:020000040800F2
:1000000000000320553F0008A53F0008A53F000859
:10001000A53F0008A53F0008A53F0008000000001C
:10002000000000000000000000000000959E000895
:10003000A53F000800000000999E00089D9E000852
:10004000A53F0008AD9E0008A53F0008A53F000899
:10005000A53F0008A53F0008CD9F0008A53F000868
:10006000B19E0008A53F0008B99E0008A53F000802
:10007000A53F0008A53F0008A53F0008A53F0008D0
:10008000A53F0008C19E0008CD9E0008A53F0008BE
:10009000A53F0008A53F0008A53F0008E99E00080D
:1000A000059F0008A53F0008A53F0008A53F0008E0
:1000B0001D9F0008A53F0008319F0008A53F0008CC
:1000C000A53F0008A53F0008A53F0008A53F000880
:1000D000A53F0008A53F0008A53F0008A53F000870
:1000E000459F0008A53F0008A53F0008A53F000860
:1000F000659F0008A53F0008A53F0008A53F000830
:10010000A53F0008A53F0008A53F0008A53F00083F
:10011000A53F0008A53F0008A53F0008A53F00082F
:10012000A53F00089D9F0008A53F0008A99F000863
:10013000B59F0008A53F0008A53F0008A53F00089F
:10014000A53F0008A53F0008A53F0008A53F0008FF
:10015000A53F0008A53F0008A53F0008A53F0008EF
:10016000A53F0008A53F0008A53F0008A53F0008DF
:10017000A53F0008C19F0008A53F0008000000003F
:10018000A53F0008A53F0008A53F0008A53F0008BF
:10019000A53F0008A53F0008A53F0008A53F0008AF
:0C01A000A53F0008A53F0008A53F00088F
:1001B00010B5054C237833B9044B13B10448AFF3A1
:1001C00000800123237010BD880300200000000080
:1001D0004C02010808B5034B1BB103490348AFF3B8
:1001E000008008BD000000008C0300204C020108C4
:1001F00081F0004102E000BF83F0004330B54FEAD8
:1002000041044FEA430594EA050F08BF90EA020F44
:100210001FBF54EA000C55EA020C7FEA645C7FEAD7
:10022000655C00F0E2804FEA5454D4EB5555B8BFFA
:100230006D420CDD2C4480EA020281EA030382EA6B
:10024000000083EA010180EA020281EA0303362DFD
:1002500088BF30BD11F0004F4FEA01314FF4801CD0
:100260004CEA113102D0404261EB410113F0004FE2
:100270004FEA03334CEA133302D0524263EB430399
:1002800094EA050F00F0A780A4F10104D5F1200E37
:100290000DDB02FA0EFC22FA05F2801841F1000192
:1002A00003FA0EF2801843FA05F359410EE0A5F166
:1002B00020050EF1200E012A03FA0EFC28BF4CF097
:1002C000020C43FA05F3C01851EBE37101F000454D
:1002D00007D54FF0000EDCF1000C7EEB00006EEB5A
:1002E0000101B1F5801F1BD3B1F5001F0CD34908E4
:1002F0005FEA30004FEA3C0C04F101044FEA44523B
:1003000012F5800F80F09A80BCF1004F08BF5FEAC1
:10031000500C50F1000041EB045141EA050130BDA1
:100320005FEA4C0C404141EB010111F4801FA4F144
:100330000104E9D191F0000F04BF01460020B1FA99
:1003400081F308BF2033A3F10B03B3F120020CDAD1
:100350000C3208DD02F1140CC2F10C0201FA0CF0AF
:1003600021FA02F10CE002F11402D8BFC2F1200C14
:1003700001FA02F120FA0CFCDCBF41EA0C019040CA
:10038000E41AA2BF01EB0451294330BD6FEA040413
:100390001F3C1CDA0C340EDC04F11404C4F12002FE
:1003A00020FA04F001FA02F340EA030021FA04F310
:1003B00045EA030130BDC4F10C04C4F1200220FA67
:1003C00002F001FA04F340EA0300294630BD21FAA5
:1003D00004F0294630BD94F0000F83F4801306BF6B
:1003E00081F480110134013D4EE77FEA645C18BF5F
:1003F0007FEA655C29D094EA050F08BF90EA020FF6
:1004000005D054EA000C04BF1946104630BD91EAED
:10041000030F1EBF0021002030BD5FEA545C05D1F0
:100420004000494128BF41F0004130BD14F580042F
:100430003CBF01F5801130BD01F0004545F0FE41A3
:1004400041F470014FF0000030BD7FEA645C1ABFD8
:10045000194610467FEA655C1CBF0B46024650EA0F
:10046000013406BF52EA033591EA030F41F400213B
:1004700030BD00BF90F0000F04BF0021704730B5C1
:100480004FF4806404F132044FF000054FF0000196
:1004900050E700BF90F0000F04BF0021704730B557
:1004A0004FF4806404F1320410F0004548BF40422C
:1004B0004FF000013EE700BF42004FEAE2014FEA81
:1004C00031014FEA02701FBF12F07F4393F07F4F5C
:1004D00081F06051704732F07F4208BF704793F05F
:1004E0007F4F04BF41F40021704730B54FF4607472
:1004F00001F0004521F000411CE700BF50EA010275
:1005000008BF704730B54FF000050AE050EA01021D
:1005100008BF704730B511F0004502D5404261EB8D
:1005200041014FF4806404F132045FEA915C3FF4CE
:10053000D8AE4FF003025FEADC0C18BF03325FEA6B
:10054000DC0C18BF033202EBDC02C2F1200300FA1C
:1005500003FC20FA02F001FA03FE40EA0E0021FA41
:1005600002F11444BDE600BF70B54FF0FF0C4CF42F
:10057000E06C1CEA11541DBF1CEA135594EA0C0FE1
:1005800095EA0C0F00F0DEF82C4481EA030621EA1C
:100590004C5123EA4C5350EA013518BF52EA033557
:1005A00041F4801143F4801338D0A0FB02CE4FF009
:1005B0000005E1FB02E506F00042E0FB03E54FF039
:1005C0000006E1FB03569CF0000F18BF4EF0010E31
:1005D000A4F1FF04B6F5007F64F5407404D25FEA2D
:1005E0004E0E6D4146EB060642EAC62141EA5551E0
:1005F0004FEAC52040EA5E504FEACE2EB4F1FD0C22
:1006000088BFBCF5E06F1ED8BEF1004F08BF5FEA9F
:10061000500E50F1000041EB045170BD06F0004651
:1006200046EA010140EA020081EA0301B4EB5C04FE
:10063000C2BFD4EB0C0541EA045170BD41F48011F6
:100640004FF0000E013C00F3AB8014F1360FDEBF1B
:10065000002001F0004170BDC4F10004203C35DAF7
:100660000C341BDC04F11404C4F1200500FA05F37A
:1006700020FA04F001FA05F240EA020001F000421B
:1006800021F0004110EBD37021FA04F642EB060191
:100690005EEA430E08BF20EAD37070BDC4F10C04BB
:1006A000C4F1200500FA04F320FA05F001FA04F27F
:1006B00040EA020001F0004110EBD37041F100016B
:1006C0005EEA430E08BF20EAD37070BDC4F1200576
:1006D00000FA05F24EEA020E20FA04F301FA05F2DE
:1006E00043EA020321FA04F001F0004121FA04F286
:1006F00020EA020000EBD3705EEA430E08BF20EA56
:10070000D37070BD94F0000F0FD101F0004640008F
:1007100041EB010111F4801F08BF013CF7D041EA11
:10072000060195F0000F18BF704703F00046520015
:1007300043EB030313F4801F08BF013DF7D043EAE6
:100740000603704794EA0C0F0CEA135518BF95EA9C
:100750000C0F0CD050EA410618BF52EA4306D1D123
:1007600081EA030101F000414FF0000070BD50EA42
:10077000410606BF1046194652EA430619D094EACC
:100780000C0F02D150EA013613D195EA0C0F05D1B6
:1007900052EA03361CBF104619460AD181EA03010A
:1007A00001F0004141F0FE4141F470014FF00000C2
:1007B00070BD41F0FE4141F4780170BD70B54FF05D
:1007C000FF0C4CF4E06C1CEA11541DBF1CEA1355DD
:1007D00094EA0C0F95EA0C0F00F0A7F8A4EB0504BF
:1007E00081EA030E52EA03354FEA013100F08880B6
:1007F0004FEA03334FF0805545EA131343EA12637F
:100800004FEA022245EA111545EA10654FEA002633
:100810000EF000419D4208BF964244F1FD0404F5EC
:10082000407402D25B084FEA3202B61A65EB030548
:100830005B084FEA32024FF480104FF4002CB6EB05
:10084000020E75EB030E22BFB61A754640EA0C0085
:100850005B084FEA3202B6EB020E75EB030E22BFC5
:10086000B61A754640EA5C005B084FEA3202B6EB06
:10087000020E75EB030E22BFB61A754640EA9C00C5
:100880005B084FEA3202B6EB020E75EB030E22BF95
:10089000B61A754640EADC0055EA060E18D04FEA53
:1008A000051545EA16754FEA06164FEAC30343EAF3
:1008B00052734FEAC2025FEA1C1CC0D111F4801FC0
:1008C0000BD141EA00014FF000004FF0004CB6E7B9
:1008D00011F4801F04BF01430020B4F1FD0C88BF58
:1008E000BCF5E06F3FF6AFAEB5EB030C04BFB6EB63
:1008F000020C5FEA500C50F1000041EB045170BD56
:100900000EF0004E4EEA113114EB5C04C2BFD4EB82
:100910000C0541EA045170BD41F480114FF0000E06
:10092000013C90E645EA060E8DE60CEA135594EA82
:100930000C0F08BF95EA0C0F3FF43BAF94EA0C0F85
:100940000AD150EA01347FF434AF95EA0C0F7FF4FA
:1009500025AF104619462CE795EA0C0F06D152EA4E
:1009600003353FF4FDAE1046194622E750EA410632
:1009700018BF52EA43067FF4C5AE50EA41047FF443
:100980000DAF52EA43057FF4EBAE12E74A0011D2F5
:1009900012F5001211D20DD56FF47873B3EB6252D9
:1009A0000ED44FEAC12343F0004343EA505323FAE5
:1009B00002F070474FF00000704750EA013002D15A
:1009C0004FF0FF3070474FF0000070474FEA410290
:1009D000B2F1E04324BFB3F5001CDCF1FE5C0DD99D
:1009E00001F0004C4FEAC0024CEA5070B2F1004FE7
:1009F00040EB830008BF20F00100704711F0804FEA
:100A000021D113F13872BCBF01F00040704741F4AE
:100A100080114FEA5252C2F11802C2F1200C10FAB2
:100A20000CF320FA02F018BF40F001004FEAC12396
:100A30004FEAD32303FA0CFC40EA0C0023FA02F33A
:100A40004FEA4303CCE77FEA625307D150EA013310
:100A50001EBF4FF0FE4040F44000704701F00040E0
:100A600040F0FE4040F40000704700BF53B94AB95F
:100A7000002908BF00281CBF4FF0FF314FF0FF30A6
:100A800000F072B9ADF1080C6DE904CE00F006F883
:100A9000DDF804E0DDE9022304B070472DE9F047FA
:100AA000089E04468846002B4BD18A42154667D9DA
:100AB000B2FA82F24AB1C2F1200701FA02F320FA37
:100AC00007F7954047EA030894404FEA154E230C78
:100AD000B8FBFEF71FFA85FC0EFB178843EA0843B4
:100AE00007FB0CF1994209D9EB1807F1FF3080F0B0
:100AF0001B81994240F21881023F2B445B1AA4B239
:100B0000B3FBFEF00EFB103344EA034400FB0CFC85
:100B1000A44509D92C1900F1FF3380F00781A445C1
:100B200040F2048102382C4440EA0740A4EB0C0454
:100B300000271EB1D4400023C6E900433946BDE872
:100B4000F0878B4209D9002E00F0EB800027C6E920
:100B5000000138463946BDE8F087B3FA83F7002F25
:100B600047D18B4202D3824200F2FA80841A61EBB1
:100B7000030301209846002EE0D0C6E90048DDE7D7
:100B800002B9FFDEB2FA82F2002A40F08F80491BE0
:100B90004FEA154E1FFA85F80127B1FBFEFC230C26
:100BA0000EFB1C1143EA014308FB0CF1994207D9E3
:100BB000EB180CF1FF3002D2994200F2CD8084464E
:100BC000591AA3B2B1FBFEF00EFB101443EA044421
:100BD00008FB00F8A04507D92C1900F1FF3302D219
:100BE000A04500F2B6801846A4EB080440EA0C4089
:100BF0009FE7C7F1200CBB4022FA0CFE4EEA030E21
:100C000001FA07F420FA0CF521FA0CF34FEA1E481A
:100C10002543B3FBF8F92C0C08FB19331FFA8EFAA5
:100C200044EA034309FB0AF49C4202FA07F200FA81
:100C300007F10BD91EEB030309F1FF3080F0878029
:100C40009C4240F28480A9F1020973441B1BADB29F
:100C5000B3FBF8F008FB103345EA034400FB0AFA43
:100C6000A24508D91EEB040400F1FF336BD2A24564
:100C700069D90238744440EA0940A0FB0289A4EB18
:100C80000A044C45C2464B4654D351D0002E69D07D
:100C9000B1EB0A0564EB030404FA0CFCFD40FC40D4
:100CA0004CEA0505C6E90054002747E7C2F12003D6
:100CB00020FA03F7954001FA02F021FA03F34FEA14
:100CC000154E3843010CB3FBFEF71FFA85F80EFBF7
:100CD000173341EA034107FB08F38B4204FA02F49D
:100CE00007D9691807F1FF3C2FD28B422DD9023F5B
:100CF0002944CB1A81B2B3FBFEF00EFB103341EA5C
:100D0000034100FB08F38B4207D9691800F1FF3C4F
:100D100017D28B4215D902382944C91A40EA07472D
:100D20003BE73746304609E70746E7E61846FBE665
:100D30004145ABD2B8EB020A69EB0E02013813460B
:100D4000A4E76046E9E7184695E76746D1E781469C
:100D50007CE702382C4447E7ACF1020C2B442FE728
:100D6000384608E73746E9E6704700BF034613F800
:100D7000012B002AFBD1181A01387047000000002F
:100D800001F0FF01102A2BDB10F0070F08D010F83C
:100D9000013B013A8B422DD010F0070F42B3F6D140
:100DA000F0B441EA012141EA014122F007047FF059
:100DB00000070023F0E80256083C85EA010586EAB0
:100DC000010685FA47F5A3FA87F586FA47F6A5FAEC
:100DD00087F68EB9EED1F0BC01F0FF0102F00702F8
:100DE00032B110F8013B013A83EA010313B1F8D1A3
:100DF0000020704701387047002D06BF3546033884
:100E0000073815F0010F07D1013015F4807F02BFBC
:100E1000013015F4C03F0130F0BC0138704700BF0D
:100E20000120704701207047012070470120704762
:100E30000120704701207047012070470120704752
:100E40000120704701207047012070470120704742
:100E500001207047012070470120704700EB80009F
:100E6000034B53F8203003B118470420704700BFEC
:100E700000000020044B00EB800003EB80035B6864
:100E800003B1184704207047000000208BB170B4F4
:100E9000094D00EB800405EB8404246934B10E464F
:100EA000304611461A46234670BC1847042070BCD1
:100EB00070470420704700BF000000208BB170B461
:100EC000094D00EB800405EB8404E46834B10E4660
:100ED000304611461A46234670BC1847042070BCA1
:100EE00070470420704700BF00000020054B00EB56
:100EF000800003EB800308469B680BB1114618473E
:100F00000420704700000020004870470000FC42A9
:100F10000F49104B10B40860FF2401E00868A0B12D
:100F20001A685206FAD59A689007FCD59A68120694
:100F3000F9D4DC609A68D007FCD59A681206F9D417
:100F4000DA68D2B2FF2AE9D101205DF8044B70477C
:100F5000F00300200050014008B5012208210E488E
:100F60000AF062FD0D4A13685B0603D408BD93685E
:100F7000190606D593689807F9D493689807F9D5A8
:100F8000F5E7FF230549D3608B68DA07FCD58B684A
:100F90001B06F9D4CB6808BD000802400050014090
:100FA00000B5002283B0082118480AF03DFD184A18
:100FB00013685B060BD44FF4FA70FFF7A9FFE8B192
:100FC000012003B05DF804FB9368190606D5936809
:100FD0009807F9D493689807F9D5F5E7FF230C49EA
:100FE000D3608B68DA07FCD58B681B06F9D44FF405
:100FF000FA70CB68FFF78CFF0028E1D10190FFF772
:10100000ABFF019803B05DF804FB00BF000802408D
:101010000050014038B505464FF4FA700C46FFF712
:1010200077FFB8B13A4A13685B0618D4FD2C1DD07F
:10103000374C294620464FF4007203F057F92368D5
:10104000580652D4324A13685C0614D4304A1368E6
:101050005C061AD4002038BD936819061CD5936825
:101060009807F9D493689807F9D5F5E7012038BDBA
:10107000936819062ED593689807F9D49368980752
:10108000F9D5F5E79368190612D593689807F9D44E
:1010900093689807F9D5F5E71D48D4608368DA07A7
:1010A000FCD583681B06F9D4FD2CC368C0D1DDE7ED
:1010B000FF231749D3608B68DA07FCD58B681B06C2
:1010C000F9D4C86800F01F00A0F10500B0FA80F064
:1010D000400938BDFF230E49D3608B68DB07FCD580
:1010E0008B681D06F9D4CB68B0E720468368990762
:1010F000FCD583681A06F9D4FF23054AC3609368B8
:10110000DB07FCD593681D06F9D4D3689AE700BFC6
:10111000005001402D4A38B5C8232D4C1360FF25DF
:1011200023685B0613D5A3689B07FCD5A3681B0641
:10113000F9D4E560A368DB07FCD5A3681B06F9D4E6
:10114000E368DBB2FF2B04D11368002BE8D1002049
:1011500038BDFE2BFBD10B46FF2201461C4803F095
:10116000DDF823685C060FD4194A13685C0604D4C2
:10117000012038BD936819061CD593689807F9D4E7
:1011800093689807F9D5F5E711498B689807FCD55E
:101190008B681A06F9D4FF230D4ACB609368DB07EE
:1011A000FCD593681D06F9D4D368094A13685C0618
:1011B000DED5E2E7FF230649D3608B68DA07FCD56A
:1011C0008B681B06F9D4CB68012038BDF0030020E2
:1011D0000050014038B5030604460D4600F1F0808A
:1011E0000C2C5BD17B4A1368580626D4794A1368C5
:1011F0005B064CD4774A136858063DD4754A136889
:101200005B062FD4734A1368580621D4002C67D08C
:10121000082C40F0CF806F4A126852064FF08703C7
:1012200064D46C4B0A21FF24186810F0400040D1B0
:1012300038BD93681B0640F1A68093689907F8D4DF
:1012400093689907F9D5F4E793681B0640F18E80FF
:1012500093689907F8D493689907F9D5F4E79368E8
:10126000190677D593689807F9D493689807F9D544
:10127000F5E793681B0661D593689907F9D49368DD
:101280009907F9D5F5E79368190640F188809368C6
:101290009807F8D493689807F9D5F4E7FFF75CFE50
:1012A000FFF77EFE00289DD1FF2038BD9A68150605
:1012B00006D59A689207F9D49A689207F9D5F5E7A6
:1012C000DC609A68D007FCD59A681206F9D4DA680F
:1012D0001506D0B2ACD54A1E12F0FF01A4D138BD1C
:1012E0003C4A126852064FF095039AD51846394980
:1012F0008B689A07FCD58B681B06F9D4354AC86001
:101300009368DD07FCD593681806F9D4D3680C2CD4
:1013100087D1304A1368590683D593689B07FCD55B
:1013200093681D06F9D4FF232A49D3608B68DC0734
:10133000FCD58B681806F9D4CB6872E7C5F3074370
:101340002449D3608B68D807FCD58B681A06F9D47A
:10135000CB6853E7C5F307231E49D3608B68DA07D0
:10136000FCD58B681B06F9D4CB684BE7EDB2194965
:10137000D5608B68DD07FCD58B681806F9D4CB687F
:10138000002CADD044E744F040031249D3608B6891
:10139000D807FCD58B681A06F9D4CB6826E72B0E44
:1013A0000C49D3608B68DA07FCD58B681B06F9D42F
:1013B000CB681FE7074B1B685906A8D5012096E7A5
:1013C00000213720FFF706FF01283FF631AF04F078
:1013D0007F0405E70050014070B582B002F0E4FDE3
:1013E0000821012264480AF01FFB0A2002F02EFEA9
:1013F0000A24624BFF2103E0621E12F0FF0414D0A6
:101400001A685006F8D59A689207FCD59A681606AD
:10141000F9D4D9609A68D507FCD59A681006F9D432
:10142000DA68621E12F0FF04EAD121462046FFF777
:10143000D1FE012805460ED0514B00221A70FFF74D
:101440008BFD504B01221A701A7802F0FB021A70C1
:10145000187802B070BD4C4E4FF47A734FF4D571CA
:1014600008203360FFF7B6FE012842D101AD434B9F
:101470002C4602A9FF201A6812F040025FD104F83E
:10148000012BA142F7D19DF80630012BD4D19DF854
:101490000730AA2BD0D102E0FFF79CFE28B13368B9
:1014A0004FF08041A920002BF6D13368002BC3D028
:1014B00000213A20FFF78EFE0028BDD12F4AFF21E0
:1014C00003E005F8013BA54249D0136813F040033F
:1014D000F7D093689B07FCD593681E06F9D4D160BA
:1014E0009368D807FCD593681B06F9D4D368DBB2A0
:1014F000E7E72146A920FFF76DFE02283ABFA9259C
:101500000224012402E0FFF765FE20B133680021C8
:101510002846002BF7D13368002B8DD14FF4007192
:101520001020FFF757FE002886D1154B1C70FFF7DF
:1015300013FD144B1A7802F0FE021A7084E79A68C1
:101540009207FCD59A681206F9D4D8609A68D20737
:10155000FCD59A681206F9D4DA68D2B28FE79DF802
:10156000043013F0400F064B14BF0C2204221A70F3
:10157000FFF7F2FCDDE700BF000802400050014029
:10158000A4030020B4000020F0030020034B1A78CD
:1015900002F0FB021A701878704700BFB4000020F8
:1015A00038B51E4B1B78DC0734D41D4B1B781B074A
:1015B00058BF4902012A054614461DD01220FFF7E4
:1015C00009FE40B1003418BF0124FFF7C5FC2046D6
:1015D00038BD013C0BD028464FF40071FFF79AFD4F
:1015E00005F500750028F4D1003418BF012400214E
:1015F0000C20FFF7EFFDE8E71120FFF7EBFD0028D7
:10160000E3D128464FF40071FFF784FDB0FA80F46F
:101610006409DAE70324204638BD00BFB400002087
:10162000A4030020F8B5254B1E78F50730D41B78AD
:101630005C072AD4224B1B7814461A070F4658BF62
:101640004F02012C05462BD013F0060F23D139464B
:101650001920FFF7BFFD40B1003418BF0124FFF788
:101660007BFC2046F8BD013C07D02846FC21FFF753
:10167000D1FC05F500750028F5D1FD210020FFF70C
:10168000C9FC0028E8D10124E9E702242046F8BD7E
:1016900003242046F8BD21469720FFF79BFDD6E79F
:1016A00039461820FFF796FD0028ECD12846FE2188
:1016B000FFF7B0FCB0FA80F46409D0E7B400002072
:1016C000A4030020F0B5894B1B78DC0785B007D454
:1016D0000D4604287CD8DFE800F013197B4C070086
:1016E0000324204605B0F0BD814C237813F0060F8B
:1016F00040F0A3800124FFF72FFC204605B0F0BD89
:10170000FFF74EFCB0FA80F46409F4E700210920E9
:10171000FFF760FD04460028ECD110216846FFF772
:10172000F9FC0028E6D09DF800309B09012B00F061
:10173000C0809DF807309DF806009DF805209DF8B3
:1017400009109DF808709DF80A609B00800202F065
:101750000F02490003EB971300F4406002EBD6122E
:1017600001F0060103440A440133073A93402B6019
:10177000C1E75F4C237813F004012BD000218D20AA
:10178000FFF728FD0028B5D15A4A1368590643D4FB
:1017900010216846FFF7BEFC0028ABD0554B302423
:1017A000FF2103E0621E12F0FF047BD01A6850068E
:1017B000F8D59A689207FCD59A681706F9D4D960CB
:1017C0009A68D607FCD59A681006F9D4DA68E9E772
:1017D000042490E70920FFF7FDFC0646002889D184
:1017E00010216846FFF796FC002883D023789DF8E7
:1017F0000A209DF80B0013F002036AD053009DF8F5
:101800000D2003F07E0303EBD01392090133013A5C
:10181000934034462B606EE793689B07FCD5936832
:101820001F06F9D4FF233349D3608B68DE07FCD54C
:101830008B681C06F9D4CB68AAE769460B20FFF732
:1018400041FF00287FF456AF9DF800309B0904D17A
:101850009DF80A305A067FF54DAF2378D5E900147C
:101860001B0758BF49024FF0200058BF6402FFF722
:10187000B1FC00287FF43EAF21462120FFF7AAFCEF
:10188000014600287FF436AF2620FFF7A3FC00288E
:101890007FF430AF47F23050FFF73AFBB0FA80F4F4
:1018A000640928E79DF80A201023120993402B6051
:1018B00021E79DF807209DF808109DF809301204D3
:1018C00002F47C12013203EB012313449B022B60D0
:1018D00011E7C100C2F3840201F01801013201EBEB
:1018E000501101FB02221C462A6004E7B4000020CC
:1018F000A4030020005001403AB101388A1811F8C1
:10190000013B00F8013F9142F9D1704722B18218A2
:1019100000F8011B8242FBD17047CA7E8B7E43EAEE
:1019200002230278032A01D018467047487D0A7DB9
:1019300042EA002243EA0243F6E770B401F10904E7
:10194000036963B34569681E00222E2601E00B2A55
:101950000ED0013210F8013F202BF8D0052B08BF24
:10196000E523092A04BF2670013423700134EEE711
:10197000EB7A0B72EA7FAB7F1B0443EA02632A7F98
:1019800013436A7F43EA02230B606A7E2B7E43EA9D
:1019900002238B80EA7DAB7D43EA0223CB800023C8
:1019A000237070BC70470000D0F800C0BCF1000F7D
:1019B0004BD0F0B586469CF80070202F14D93A2FF2
:1019C00020D0624612F8013F202B0FD93A2BF9D1D3
:1019D000A7F13000092803D80CF101039A420AD07C
:1019E000561C1E48002714E062463B463A2BEFD0B7
:1019F0001B4B1878F0BD08282AD80CF10203CEF84A
:101A00000030F7E76246EBE7A64218D00137092F0E
:101A100012D050F8045F644615F8011B14F8013B1E
:101A2000A3F16102D2B2192A9CBF203BDBB200298C
:101A3000EAD08B42F0D0E9E74FF0FF30DAE7082F29
:101A400009D83846CEF80040D4E74FF0FF30704751
:101A50004FF0FF30CEE74FF0FF30CBE7E002010858
:101A6000A803002003790BB9002070472DE9F0414D
:101A70000446056B00F1340701232A4639464078B5
:101A8000FFF71CFAC0B900232371636AEB1AE269FD
:101A9000934214D2E678012E13D94FF00108E3697E
:101AA0001D4443462A4639466078FFF707FA013E4F
:101AB000012EF4D1002000E00120BDE8F0810020DB
:101AC000FBE70020F9E770B5036B8B4213D00446A7
:101AD0000D46FFF7C7FF064670B901232A4604F1F9
:101AE00034016078FFF7D2F900281CBF01264FF0BF
:101AF000FF35256300E00026304670BD10B5044672
:101B0000002303714FF0FF330363FFF7DCFF80BB5B
:101B100094F8332294F8323243EA02231BB2184A73
:101B2000934228D194F86D2094F86C301B0443EA5A
:101B3000026394F86A20134394F86B2043EA02236B
:101B400023F07F430F4A934217D094F8893094F8DA
:101B50008800000440EA036094F88630184394F843
:101B6000873040EA032020F07F40801A18BF012010
:101B700002E0032000E0022010BD0020FCE700BFCF
:101B800055AAFFFF46415400A0B108B503689BB1B8
:101B9000197899B1D9888288914201D0092008BD6D
:101BA0005878FFF767F900F00100002814BF032000
:101BB0000020F4E7092070470920F0E70920EEE74C
:101BC0002DE9F04184B0064617460023036008461D
:101BD000FFF7EAFE051EC0F26D81CA4B03EB8503D9
:101BE0005C68002C00F06A81346023787BB16078F7
:101BF000FFF740F910F0010F09D1002F00F06081CC
:101C000000F0040000280CBF00200A2053E100234C
:101C10002370E8B26070FFF721F910F0010F40F077
:101C200051811FB110F0040F40F04E810021204679
:101C3000FFF764FF0346012800F0AA800026032B6B
:101C400000F04481002B40F0438194F8402094F848
:101C50003F3043EA02231BB2B3F5007F40F03A81E4
:101C600094F84B1094F84A3053EA01210DD194F8BE
:101C70005B2094F85A301B0443EA026394F858201E
:101C8000134394F8591043EA0121E16194F8442088
:101C9000E270531EDBB2012B00F21E8194F841501A
:101CA000A570002D00F01A816B1E2B4240F01881A8
:101CB00094F8463094F8450040EA0320208110F063
:101CC0000F0F40F00F8194F8487094F8473053EAB2
:101CD00007230DD194F8577094F856301B0443EA4B
:101CE000076394F854703B4394F8557043EA072314
:101CF00094F843C094F8427057EA0C2C00F0F4803A
:101D000001FB02F20CEB10171744BB42C0F0EE804F
:101D1000DB1BB3FBF5F3002B00F0EA8040F6F57512
:101D2000AB4294BF012502254FF6F57E734500F2C4
:101D3000F1800233A3612662B444C4F824C037445E
:101D4000E762032D00F0EE80002800F0D7806244A7
:101D5000A262022D0FBF5B0003EB430203F00103FD
:101D600003EB520303F2FF13B1EB532FC0F0C88013
:101D70004FF0FF332361E360802363712570614A74
:101D8000138D01339BB21385E3800020606192E0E4
:101D900023466D4604F140002946002705E03A46F7
:101DA00041F8042B1033834212D093F8F621002A15
:101DB000F5D093F8FD6193F8FC21120442EA066223
:101DC00093F8FA61324393F8FB6142EA0622E7E7AF
:101DD00005F110074FF002080AE031462046FFF7F0
:101DE0008DFE034600283FF430AFBD423FF427AFDD
:101DF00055F8046B002EF0D14346F6E7711C2046DF
:101E0000FFF761FE00284FD10023637194F833225D
:101E100094F8323243EA02231BB23B4A934201D088
:101E20000325ABE794F8372094F836301B0443EAD7
:101E3000026394F83420134394F8352043EA0223D4
:101E4000324A934232D194F81B2294F81A321B047E
:101E500043EA026394F81822134394F8192243EAE0
:101E600002232B4A934223D194F81F2294F81E3266
:101E70001B0443EA026394F81C22134394F81D22C6
:101E800043EA0223236194F8232294F822321B04AC
:101E900043EA026394F82022134394F8212243EA90
:101EA0000223E360032569E7032567E7032565E768
:101EB000032563E70B2004B0BDE8F0810C20FAE7AE
:101EC0000020F8E70320F6E70A20F4E70120F2E714
:101ED0000D20F0E70D20EEE70D20ECE70D20EAE7FE
:101EE0000D20E8E70D20E6E70D20E4E70D20E2E70E
:101EF0000D20E0E70D20DEE70D20DCE70D20DAE71E
:101F00000D20D8E7A803002055AAFFFF52526141D7
:101F1000727241610233A36126620CEB06026262B7
:101F20003744E7620028E5D194F8630094F8622012
:101F3000120442EA006294F86000024394F86100DF
:101F400042EA0022A2629B0003F2FF13B1EB532F7F
:101F5000D2D34FF0FF332361E3608023637194F8A1
:101F6000652094F8643043EA02231BB2012B3FF44E
:101F700045AF032502E700BF38B50446FFF772FD01
:101F8000034650B92378032B09D00022114660780C
:101F9000FEF7ACFF031C18BF0123184638BD637958
:101FA000012BF2D104F134054FF4007200212846D0
:101FB000FFF7ACFC552384F83232AA2384F833327D
:101FC000522384F8343084F83530612384F8363075
:101FD000412284F83720722184F8181284F81912EB
:101FE00084F81A2284F81B32236984F81C32C3F364
:101FF000072284F81D221A0C84F81E221B0E84F876
:102000001F32E36884F82032C3F3072284F82122C8
:102010001A0C84F822221B0E84F82332226A013221
:102020002263012329466078FEF748FF002363718D
:10203000ABE702398369023B8B4283BF8378C06A76
:1020400001FB03000020704701295FD9F8B58369BF
:102050008B425DD90C4606460378022B2AD0032B0F
:1020600039D0012B01D0012053E001EB5105416A29
:1020700001EB5521FFF727FD00284BD16F1CC5F35D
:102080000805354495F83450716A01EB5721304604
:10209000FFF719FD002840D1C7F30800304490F83D
:1020A000340045EA002014F0010F14BF0009C0F30A
:1020B0000B002EE0416A01EB1421FFF704FD78BB11
:1020C000600000F4FF70304490F8353090F8340030
:1020D00040EA03201DE0416A01EBD411FFF7F3FC55
:1020E00008BBA00000F4FE7000F134023244D17845
:1020F00093781B0443EA0163304490F8340018439A
:10210000537840EA032020F0704002E0012070473D
:102110000120F8BD4FF0FF30FBE74FF0FF30F8E74C
:102120004FF0FF30F5E74FF0FF30F2E7F8B5064625
:10213000C1808468012C39D00D4603689A69A24297
:1021400036D9CCB91A78032A12D01A89AA4231D9C1
:10215000986AF460002835D000EB151030613368C0
:10216000343305F00F0503EB45157561002020E0C1
:102170009A6A002AE9D014469F783F01BD4210D3E5
:1021800021463068FFF760FF0446B0F1FF3F13D0EF
:10219000012813D933689B69834211D9ED1BAF42E3
:1021A000EED921463068FFF744FFD2E7022000E075
:1021B0000220F8BD0220FCE70120FAE70220F8E740
:1021C0000220F6E70220F4E738B50446C188FFF79D
:1021D000ADFF054608B1284638BD21692068FFF7E4
:1021E00072FC05460028F6D1202200216069FFF725
:1021F0008DFB6369E5221A70236801221A71EAE7F0
:102200002DE9F843012940F28A8083698B4240F22C
:10221000888016460C4605460378022B4CD0032BCB
:102220005ED0012B01D002277CE001EB5108416A0E
:1022300001EB5821FFF747FC0746002872D108F14F
:102240000109C8F3080814F0010F1CD0A84498F83D
:10225000343003F00F0343EA061388F834300123C7
:102260002B71696A01EB59212846FFF72CFC0028E5
:102270005BD1C9F30809C6F30716A94489F834608D
:1022800001232B714EE0A84488F8346001232B71A0
:10229000696A01EB59212846FFF715FC002846D151
:1022A000C9F3080905EB090393F8343023F00F0351
:1022B000C6F303261E43E0E7416A01EB1421FFF752
:1022C00002FC074670BB610001F4FF71294481F8EC
:1022D0003460C6F3072681F8356001232B7121E0B5
:1022E000416A01EBD411FFF7EEFB0746D0B9A1001C
:1022F00001F4FE7101F134032B44DA78120629440B
:1023000002F07042164381F83460C6F307225A7017
:10231000320C9A70360EDE7001232B7102E0022718
:1023200000E002273846BDE8F8830746FAE707468B
:10233000F8E7F8B505460F4639B9C66896B183691E
:10234000B34298BF012634461BE0FFF77DFE0346EB
:10235000012842D9B0F1FF3F44D0AA69824241D856
:102360003E46F0E70126EEE721462846FFF76CFEE1
:10237000034670B1B0F1FF3F34D0012832D0B442EF
:102380002FD00134AB69A342EED8012E27D9022405
:10239000EAE76FF0704221462846FFF731FF034617
:1023A000A8B967B9EC602B69B3F1FF3F1CD0013BC2
:1023B0002B616B7943F001036B71234612E02246D7
:1023C00039462846FFF71CFF03460028EAD0012BB8
:1023D0000CBF4FF0FF33012304E0012302E0002390
:1023E00000E000231846F8BD2346FBE72DE9F8433B
:1023F000C488631C9AB2002A6AD00269002A69D094
:102400000F46054613F00F0607D101320261C1687D
:1024100069B9026812899A425ED90134EC802B684E
:10242000343303EB46136B610020BDE8F88300688A
:102430008278013A12EA1318EFD1FFF705FE8146C0
:1024400001284BD9B0F1FF3F4AD0286883694B453A
:1024500036D8002F46D0E968FFF76BFF8146002889
:1024600042D0012842D0B0F1FF3F41D02868FFF7A9
:10247000F9FA08B10120D8E728684FF4007200216A
:102480003430FFF743FA2F6849463846FFF7D1FD4D
:1024900038632B689A787AB101271F712868FFF793
:1024A000E1FA38BB2A68136B0133136308F10108A2
:1024B0002B689A784245F0D81A6BA2EB08021A638F
:1024C000C5F80C9049462868FFF7B3FD2861A4E7DA
:1024D0000420AAE70420A8E70420A6E70220A4E736
:1024E0000120A2E70420A0E707209EE702209CE746
:1024F00001209AE7012098E72DE9F84F05460C46A0
:102500000B782F2B05D05C2B03D003685B698360AD
:1025100002E001340023AB6023781F2B02D9DFF8DF
:10252000148268E000212846FFF700FE8146002360
:102530006B6119E02E233B7073782E2B08D17B70D2
:10254000B3782E2B02D14FF006090DE0032400E0F2
:1025500002242F2B00F099805C2B00F09680202B1A
:1025600040F29E804FF006094846BDE8F88F4EF0D5
:10257000030E803B18F8033066E0002BF2D1A3F184
:102580006102D2B2192A71D84EF0010E203BDBB2A3
:102590006CE031462846FFF729FF8146002840F0CD
:1025A000A58029692868FFF78EFA8146002840F047
:1025B0009D8069690B78002B00F0AA8091F80BA030
:1025C0001AF0080FE5D1AF6901F10B0E3A460B4640
:1025D00013F801CB12F8010B8445DAD19E45F7D1EF
:1025E000FB7A13F0040FBFD11AF0100F4AD02868FD
:1025F000FFF793F9A860264614F8013B2F2BFAD079
:102600005C2BF8D0AF690B2220213846FFF77EF90A
:1026100033782E2B8ED006F1FF3C002004464FF07D
:10262000080A86464FF02A0B01341CF8013F202B84
:1026300059D92F2B37D05C2B35D02E2B6BD0824520
:1026400090D913F0800F92D1222B3FF47CAF5A46E1
:102650003749934291D011F8012F002AF9D1A3F103
:102660004102D2B2192A8AD84EF0020E3B540130F0
:10267000DAE703F00403002B14BF4FF004094FF016
:10268000050971E74FF005096EE734442023FB721A
:1026900000212846FFF74AFD814638BB002680E727
:1026A00034442423F3E73444002300283FF45AAF92
:1026B0003A78E52A04BF05223A70BAF1080F04BF40
:1026C0004FEA8E0E5FFA8EFE0EF00302012A08BF5B
:1026D00043F010030EF00C0EBEF1040F08BF43F0E0
:1026E0000803FB72D4E734440423DEE7AB69DB7AEA
:1026F000B9F1040F7FF438AF13F0200FB9D00022E6
:10270000AA606A6113F0040F3FF475AF91462BE79E
:10271000AB69DB7AF0E7BAF1080F7FF423AF4FEA39
:102720008E0E5FFA8EFE50464FF00B0A7CE700BF1C
:10273000052C010864020108F8B504460F46002183
:10274000FFF7F4FC0346C8B90025012608E001356F
:10275000BD4216D031462046FFF748FE034668B911
:1027600021692068FFF7AFF9034638B9626912782A
:10277000E52AECD0002AEAD00025EBE7042B08BFBD
:1027800007231846F8BD38B505460121FFF7D4FFE9
:10279000044608B1204638BD29692868FFF793F937
:1027A00004460028F6D1202200216869FFF7AEF820
:1027B0000B22A9696869FFF79FF82B6801221A713B
:1027C000E8E7F8B504460E460427002505E029464B
:1027D0002046FFF70BFE0746E0B92169B9B1206832
:1027E000FFF771F90746A8B963691A788AB1DB7AED
:1027F00003F03F03E52AEAD00F2BE8D023F02003B3
:10280000082B14BF00230123B342E0D104E01FB121
:1028100000E00427002323613846F8BD012928D9A8
:10282000F8B504460E4683698B4225D9002709E096
:1028300001332361637943F0010363712E46A36979
:10284000AB421AD931462046FFF7FEFB0546B0B130
:10285000012816D0B0F1FF3F15D03A463146204648
:10286000FFF7CEFC024640B92369B3F1FF3FDFD149
:10287000E4E702221046704702221046F8BD00220B
:10288000FBE70222F9E70122F7E7000010B584B068
:1028900001900091144604A840F8041DFFF784F845
:1028A00000281BDB124B03EB80035B680BB100229B
:1028B0001A70019BB3B100221A70019A0C4B03EB02
:1028C0008000426062B1012C02D0002004B010BD33
:1028D0000022694601A8FFF773F9F7E70B20F5E737
:1028E0000020F3E7024B03EB800300205860EDE784
:1028F000A80300202DE9F0478EB00191002800F0D8
:10290000A880044615460023036002F01E0201A9B8
:1029100006A8FFF755F9064618B130460EB0BDE8D7
:10292000F08705F01F0803AB0C93019906A8FFF789
:10293000E3FD0B9F0346002839D1002F00F08B8068
:1029400015F01C0F48D1FB7A13F0100F40F0908067
:1029500015F0020F03D013F0010F40F0878015F03F
:10296000080F01D048F02008069B1B6BE36127622B
:1029700084F806804FF0000884F80780069D3946E9
:102980002846FEF7CAFF2061FA7FBB7F1B0443EA9B
:1029900002633A7F13437A7F43EA0223E360C4F879
:1029A0000880C4F818802560EB88A380B5E715F08F
:1029B0001C0F04D0042806D048F008080B9F002BF9
:1029C000D6D01E46A9E706A8FFF7DDFE48F00808A6
:1029D0000B9F40B10646A0E7FB7A13F0110F41D1DF
:1029E00015F0040F40D118F0080FBDD0FEF78CFA97
:1029F000B873C0F30723FB73030C3B74000E7874A9
:102A00000025FD723D777D77BD77FD77DDF8189065
:102A100039464846FEF781FFBD76FD763D757D75EA
:102A2000012389F80430054600289BD0D9F830A04E
:102A300001464846FFF7F2FE08B106466DE70698E4
:102A4000013DC5605146FFF73EF800288AD0064692
:102A500063E7092661E715F01C0F01D10623AEE7F5
:102A60000623A9E7072658E7082656E7072654E76E
:102A7000042652E72DE9F04F83B0044689461546F7
:102A800098460023C8F80030FFF77EF80090002831
:102A900040F0B080E379002B40F0AB80A37913F0D5
:102AA000010F00F0AB80E668A368F61AAE4228BFBB
:102AB0002E46002E00F09E8004F12403019358E07E
:102AC0006169FFF7C1FA64E00223E371009391E0CA
:102AD0000123E37100938DE00223E371009389E009
:102AE000A37913F0400F03D0A069401B584502D3CF
:102AF0004FEA4B2532E04FF40072019909EB402078
:102B0000FEF7FAFEF4E7A269AA4218D0A37913F0FF
:102B1000400F0BD0012301999AF80100FEF7CEF97E
:102B200000285ED1A37923F04003A371206801231C
:102B30002A4601994078FEF7A9F9002855D1A561E8
:102B4000A168C1F30801C1F50075B54228BF35463B
:102B500024312A4621444846FEF7CEFEA944A36804
:102B60002B44A360D8F800302B44C8F80030761B03
:102B700040D0A268C2F30803002BE1D1206883781B
:102B8000013B03EA522313F0FF0708D1002A97D133
:102B90002069012898D9B0F1FF3F99D06061D4F83D
:102BA00000A061695046FFF744FA0546002893D01B
:102BB0003D445FEA562BA6D09AF8023007EB0B0291
:102BC0009A4288BFA3EB070B5B462A4649469AF810
:102BD0000100FEF75BF9002882D00123E371009326
:102BE00008E00123E371009304E00123E371009303
:102BF00000E00093009803B0BDE8F08F0723009336
:102C0000F8E72DE9F04F83B004468846164699460A
:102C10000023C9F80030FEF7B7FF0090002840F00D
:102C2000CF80E379002B40F0CA80A37913F0020F24
:102C300000F0CA80A368F34280F0B780002E00F055
:102C4000B48004F12403019388E06169FFF771FB0C
:102C50000346002B00F0A980012B2AD0B3F1FF3FDF
:102C60002BD06361226902B92361A37913F0400F6D
:102C700027D1D4F800A061695046FFF7DAF905467C
:102C800080B33D445FEA562B43D09AF8023007EBFD
:102C90000B029A4288BFA3EB070B5B462A464146CC
:102CA0009AF80100FEF70AF900B30123E3710093DB
:102CB00086E00223E371009382E00123E371009335
:102CC0007EE020680123A26901994078FEF7F6F8BA
:102CD00020B9A37923F04003A371CAE70123E3716C
:102CE00000936DE00223E371009369E0A169491B41
:102CF000594502D34FEA4B2525E04FF4007208EB0B
:102D000041210198FEF7F8FDA37923F04003A37158
:102D1000F0E7A369AB4203D0A268E3689A4237D3D5
:102D2000A561A068C0F30800C0F50075B54228BFD2
:102D3000354624302A4641462044FEF7DDFDA3797E
:102D400043F04003A371A844A3682B44A360D9F8BF
:102D500000302B44C9F80030761B26D0A268C2F39D
:102D60000803002BDDD120688378013B03EA52235E
:102D700013F0FF077FF479AF002A7FF466AF236971
:102D8000002B7FF469AF0021FFF7D3FA034660E719
:102D900001232A4601999AF80100FEF777F80028E6
:102DA000BED00123E37100930AE0A368E268934276
:102DB00088BFE360A37943F02003A37100E0009390
:102DC000009803B0BDE8F08F07230093F8E738B50B
:102DD0000446FEF7D9FE0346D0B9A27912F0200FBF
:102DE00016D012F0400F0DD020680123A26904F123
:102DF00024014078FEF762F800283BD1A37923F044
:102E00004003A371E1692068FEF75DFE034608B147
:102E1000184638BD256AEB7A43F02003EB72E3686D
:102E20002B77A3891B0A6B77E389AB77E37BEB777F
:102E30002369AB76C3F30722EA761B0C2B751B0ABA
:102E40006B75FEF761F8A875C0F30723EB75030CEB
:102E50002B76000E68760023AB74EB74A37923F015
:102E60002003A371236801221A712068FFF784F8F8
:102E70000346CDE70123CBE710B50446FFF7A7FFD4
:102E8000034608B1184610BD2046FEF77DFE0346F6
:102E90000028F7D100222260F4E700002DE9F04776
:102EA00094B014AB43F84C0D8946002202701946C9
:102EB0000CA8FEF785FE0746002868D103AB1293E5
:102EC0000C9BD3F814A0CDF838A0BAF1000F00F095
:102ED00086804C464FF0010800252AE006A90CA880
:102EE000FEF72BFD9DF82130002B74D00DF1210150
:102EF0002B4600E013465A1C11F8010F0028F9D1A7
:102F0000191DA1424FD8002A45D014A90B442F3BCC
:102F1000A21A013C13F80109019908559442F8D10D
:102F2000541E019B2F221A55DDF838A0BAF1000F6C
:102F30003DD041460CA8FFF7F9F870BB29460CA814
:102F4000FFF73FFC58BB11990C98FEF7E6FC0E907A
:102F500029460CA8FFF7EAF818BB29460CA8FFF78A
:102F600030FC064660B911990C98FEF7D6FC504526
:102F7000B4D029460CA8FFF739FA06460028ECD051
:102F8000042E14BF37460227019B00221A703846D0
:102F900014B0BDE8F0872246C2E70746F4E70746CB
:102FA000F2E70746F0E71127EEE71127ECE7019A71
:102FB000104B1B78303313703A235370A14515D052
:102FC000931C621C0199095D03F8011B144691458D
:102FD000F7D83746D9E7022CE7D92246A0E7019A6D
:102FE000044B1B78303313703A235370D31C2F21BA
:102FF0009170CAE7A80300202DE9F04104460E466F
:10300000FEF7C2FD0746002840F0AD80E379002BB3
:1030100040F0A880E368B34205D2A27902F0020230
:10302000002A08BF1E46A3680022A260002E00F0FE
:103030009A80206890F802804FEA482873B1013BDB
:10304000721EB2FBF8F2B3FBF8F18A4206D3C8F164
:1030500000021340A360F61A656902E025692DB1EC
:103060006561002D4DD0464527D832E00021FFF79D
:1030700060F90546012804D0B0F1FF3F04D020617B
:10308000EEE70227E7716EE00127E7716BE0294662
:103090002068FEF7D9FF0546B5F1FF3F27D0012D87
:1030A00028D923689B69AB4224D96561A36843444E
:1030B000A360A6EB0806B0450BD2A37913F0020F6C
:1030C000E5D029462068FFF734F905460028E3D10A
:1030D0004646A3683344A360C6F3080383B1294678
:1030E0002068FEF7A6FF40B100EB562509E0012756
:1030F000E77138E00227E77135E00227E77132E037
:103100000025A368C3F30803E3B1A269AA4219D05A
:10311000A37913F0400F0BD02068012304F12401A0
:103120004078FDF7CBFEB8B9A37923F04003A37133
:10313000206801232A4604F124014078FDF7A6FE09
:1031400068B9A561A368E26893420CD9E360A379EA
:1031500043F02003A37106E00127E77103E0012794
:10316000E77100E01F463846BDE8F08110B586B033
:103170000191002831D00446002201A905A8FEF7DC
:103180001FFD034620B100222260184606B010BD84
:10319000059B236002ABA36101992046FFF7ACF9C0
:1031A000034688B9616939B1CB7A13F0100F10D09A
:1031B0000598FEF7B2FBA060059BDB88A380002189
:1031C0002046FEF7B3FF0346042B04D0002BDCD0CF
:1031D000D9E70523D7E70523D5E70923D5E710B5B8
:1031E0000446FEF7D1FC034608B9002222601846C7
:1031F00010BD70B584B004460E46FEF7C5FC05460A
:10320000A0B9B6B101ABA36100212046FFF7D9FAFE
:10321000042814D0C8B931462046FEF78EFB0021A1
:103220002046FFF7E3F804280CD00546284604B0F2
:1032300070BD00212046FEF779FF0546F6E7002322
:103240002361E8E700232361F0E70546EEE770B568
:103250000446FEF799FC054600284DD1E379002B82
:1032600046D1A27912F0020F40D0A368E1689942DA
:1032700042D9E36042F02002A271C3B921692068FB
:10328000FFF7CCFA0023236160BBA37913F0400F52
:1032900032D020680123A26904F124014078FDF7AF
:1032A0000DFE08BBA37923F04003A37124E06169FC
:1032B0002068FEF7C9FE064601281BD0B0F1FF3F8B
:1032C0001CD020688369B342DFD96FF07042616916
:1032D000FEF796FF08B105460DE031462068FFF77E
:1032E0009DFAD1E7054606E0012504E0072503E045
:1032F0001D4601E00225E571284670BD0125FAE76B
:1033000070B596B016A941F8540D01220EA8FEF72B
:1033100057FC034610B1184616B070BD03AB1493AA
:1033200001990EA8FFF7E8F803460028F3D1149B93
:10333000DB7A13F0200F2DD1139979B3CC7A14F0E6
:10334000010F2DD10E9D2846FEF7E7FA064600280C
:1033500038D014F0100F27D06B6983421CD0202284
:103360000EA906A8FEF7C8FA0896022106A8FEF7DD
:10337000DDFE03460028CED1002106A8FFF721FA82
:10338000034678B10428C6D10EA8FEF71DFF0346F8
:1033900080B1C0E70623BEE70723BCE70623BAE7F0
:1033A0000723B8E70723B6E70EA8FEF70DFF03468D
:1033B0000028B0D131460E98FFF730FA03460028B6
:1033C000A9D105E00EA8FEF7FFFE03460028A2D112
:1033D0000E98FEF7D1FD03469DE70000012204216F
:1033E000014808F021BB00BF001002402DE9F04168
:1033F00084B00E466425174604210022044628485E
:1034000008F012FB4FF0030C0DF10F0201230DF138
:103410000D01009523488DF80DC009F07FFE04A929
:10342000330C01F8043D0DF10F02012300951D48F6
:1034300009F074FE04A9330A01F8053D0DF10F02ED
:1034400001230095174809F069FE04A900950DF1C4
:103450000F0201F8066D0123124809F05FFEBFB1AB
:103460007E1EB6B20136DFF83C802644FF270123DA
:1034700000950DF10F020DF10E0140468DF80E7012
:1034800009F04CFE9DF80F3004F8013BB442EED138
:1034900001220421024808F0C7FA04B0BDE8F08117
:1034A00000100240C421002030B50D4C85B02046EC
:1034B0000022042108F0B8FA642300930DF10F02F2
:1034C00001230DF10E01062506488DF80E5009F076
:1034D00025FE20460122042108F0A6FA05B030BDE1
:1034E00000100240C421002070B5002284B00421E5
:1034F0001348144E08F098FA642405208DF80D0046
:103500000DF10F02009401230DF10D01304609F079
:1035100005FEFF25012300940DF10F020DF10E01B0
:1035200030468DF80E5009F0F9FD9DF80F30DB079D
:10353000F0D401220421024808F076FA04B070BDEC
:1035400000100240C4210020F0B5214F214C85B06D
:1035500006466425FFF7A8FF38460022042108F03C
:1035600063FA4FF0D80C0DF10F020DF10E01204659
:10357000009501238DF80EC009F0D0FD04A9330C8D
:1035800001F8033D0DF10F0200952046012309F0DB
:10359000C5FD04A9330A01F8043D0DF10F020095A1
:1035A0002046012309F0BAFD04A9012300950DF17D
:1035B0000F0201F8056D204609F0B0FD38460122E2
:1035C000042108F031FAFFF78FFF05B0F0BD00BF0E
:1035D00000100240C4210020F0B5214F214C85B0DD
:1035E00006466425FFF760FF38460022042108F0F4
:1035F0001BFA4FF0200C0DF10F020DF10E012046C9
:10360000009501238DF80EC009F088FD04A9330C44
:1036100001F8033D0DF10F0200952046012309F04A
:103620007DFD04A9330A01F8043D0DF10F02009558
:103630002046012309F072FD04A9012300950DF134
:103640000F0201F8056D204609F068FD3846012299
:10365000042108F0E9F9FFF747FF05B0F0BD00BF0E
:1036600000100240C42100204318B3F1007F09D8A4
:1036700040EA0103C3F30B0370B505460C461BB1CA
:10368000012070BD0120704783B26BB98BB29942A3
:103690000AD00E46A6F580362846B4B2FFF754FF8E
:1036A000B44205F58035F5D1C4F30B039C420AD032
:1036B000A4F580542846FFF78FFFC4F30B03A34201
:1036C00005F58055F4D1002070BD00BF2DE9F04113
:1036D00084B00E46642517460446FFF7E5FE002237
:1036E0000421284808F0A0F94FF0020C0DF10F0258
:1036F00001230DF10D01009523488DF80DC009F04F
:103700000DFD04A9330C01F8043D0DF10F02012356
:1037100000951D4809F002FD04A9330A01F8053D92
:103720000DF10F0201230095174809F0F7FC04A9D9
:1037300000950DF10F0201F8066D0123124809F002
:10374000EDFCA7B17E1EB6B20136DFF83C80264400
:1037500014F8017B009501230DF10F020DF10E010C
:1037600040468DF80E7009F0D9FCB442F0D1012228
:103770000421044808F058F9FFF7B6FE04B0BDE88C
:10378000F08100BF00100240C42100202DE9F84361
:103790001646130A11F0FF020D4607461ED17BB3F1
:1037A000013B5FFA83F83C4608F1010007EB002774
:1037B000A1EB04094FF4807204EB09012046144484
:1037C000FFF784FFBC42F5D105F5807101EB0821BC
:1037D000F2B22046BDE8F843FFF778BF5442E4B2A6
:1037E000ABB9F3B29C420BD21A44D6B22246FFF7D1
:1037F0006DFF324661193819BDE8F843FFF766BF1F
:10380000324629463846BDE8F843FFF75FBFA2B20B
:10381000B61AB6B24FEA16295FFA89F808F1FF38EE
:10382000FFF754FFF6B2254438195FFA88F8B9F16A
:10383000000F1ED008F10107044600EB0727A5EB97
:1038400000094FF4807204EB090120461444FFF78D
:103850003DFFBC42F5D105F5807505EB08250EB995
:10386000BDE8F883324629462046BDE8F843FFF715
:103870002DBF0446F3E700BFF0B5D1E90263334042
:103880001BD091F800C0BCF1000F1BD00D6900F1F6
:10389000140700234FF0010E0EFA03F4344203F133
:1038A0000103284606D095F90040002C02DB2C8944
:1038B000944204D063453D44EED10020F0BD4B68F6
:1038C0006B60F0BD6046F0BD2DE9F84FC66DD6E9DE
:1038D00002138B4302D00020BDE8F88F3578002D0D
:1038E00044D03769D0F81CC0D6F804A04FF00008C7
:1038F0003C460CF1140942464FF0FF3E6368AAEBC8
:103900000303434506D994F900B0BBF1000FA4BFEF
:10391000984696460132AA424C44EFD1BEF1FF3F91
:10392000D9D04FF0010808FA0EF818EA01051DD0A9
:1039300009FB0EF907EB090317F809502A0618D4FA
:1039400015F0010517D01D890169436809F11402BA
:103950000CFB05103A4461469847B16821EA08011A
:103960000023B16007F80930BDE8F88F2846BDE8AC
:10397000F88F0020F2E72846F0E700BF2DE9F04F6E
:1039800004461E46E56D0069E36981B0321A894636
:10399000B2FBF3F2184692B22946DDE90A78FFF746
:1039A0006BFF6A68013282466A6060B909F00309F8
:1039B000B9F1010F25D1236842463946304601B09E
:1039C000BDE8F04F1847606E2369E1692D69013049
:1039D0006066F61A9AF80100B6FBF1F301FB136377
:1039E0001433143101FB0031CAF8042040463A4632
:1039F00029440BF0D1FA4FF00009484601B0BDE868
:103A0000F08FA36E0133A3662046FFF75DFFE26DE2
:103A10009368591C814608D123684246394630468E
:103A20009847002818BF8146E7E710780028F3D0B0
:103A300013F0010CE16945D04FF0010C0AF1010AC5
:103A400082450CFA0AFBE7D013EA0B0FF6D101F11D
:103A5000140000FB0AFCD2F810E043EA0B030EEB63
:103A60000C0A93605368CAF8043002230EF80C3035
:103A700023699AF80120D5F810C0F31A00FB02F26E
:103A8000B3FBF1FE143201FB1E33F01A62442368CB
:103A9000AAF808E098472369E2699AF80140296981
:103AA000F61AB6FBF2F302FB13631433143202FB73
:103AB0000433002818BF81463A46404619440BF0AB
:103AC0006BFA9AE701F114004FF0010BC3E700BF56
:103AD000D0F85CC0BCF1000F47D0F0B5C369056EEB
:103AE0001433143DB5FBF3F5002D87B03BDD002208
:103AF000134601325B00954243F00103F9D10024E3
:103B0000CDE901440CF1140E4FF0FF328DF8045052
:103B10000493CDF814E0039201AE07460FCECCF823
:103B200010E0CCF80000CCF80410CCF80820CCF859
:103B30000C30FE6DFB6932783069143302FB03F2FE
:103B40000BF035FAD6E9023215F0FF0523EA02033D
:103B5000B36008D0F96932691431234653700133D8
:103B60009D420A44FAD107B0F0BD70472DE9F84FE5
:103B70000D4604469246002180221F46D0F878B0B8
:103B8000DDF83080DDE90A690BF011FA29686A680E
:103B9000A868EB68E36021606260A060EB69296956
:103BA0006A69A869E361E369A061534421616261C4
:103BB000C4E90D3AA269E368C4F878B0B3FBF2F344
:103BC00038462362324600210BF0F1F917F0030367
:103BD00003D0C3F104031F44F61A184BE763A3FB99
:103BE0000636760919F00303266404D0C3F10403F2
:103BF0009944A8EB0308E369C4F85C9018F0030F3C
:103C00004FEA431318BF28F00308434528BF434633
:103C100023662046FFF75CFF094BE367204600F070
:103C200025F9002807DB01230D9A84F87430E26639
:103C30000020BDE8F88F6064BDE8F88FABAAAAAA9F
:103C4000150309204FF6FF7291420AD021B1C36CCF
:103C50000133C36406487047036D013303650448AC
:103C60007047002BF6D1836C0133836400487047A2
:103C7000AAD8FFFF2DE9F04F05461746D5F81CC01E
:103C80008069B0FBFCF25400B4FBFCF4002C8BB058
:103C900008BF01246E6BD5F820E00896141BBDF810
:103CA00050600596BC428B46049304FB0EF94FEA24
:103CB0005C0A0DDC4B1C1FFA83FBDE4500F2A6807C
:103CC000049B13F0040740F09D800797BB4602E079
:103CD00000FB01F30793B9F1000F40F39380CAEBA7
:103CE000CA735B000993049B03F0010302936346CC
:103CF00097FBFAF1089C069101FB0AF8C8EBC87122
:103D000004EB4101039152000699B2FBF3F2002A41
:103D100008BF01228A4240F38C802A690798696BA8
:103D20000191024406980093142103FB0023002212
:103D30002846FFF723FE002859D1D5E906033C4663
:103D40004E46B0FBF3F2159F07E0039931F814C01B
:103D500005998C4514D0013E0134A4EB080CE245D2
:103D60004FEA4201A646B1FBF3F1B14653DD00290B
:103D700008BF0121511AA1424DDD02990029E4D169
:103D8000189B0BB1A3F800B0199B03B11C60002F66
:103D90004BD0049B9A0756BF039B059933F8141028
:103DA000179B0193169B00935A4623462846B84713
:103DB00000F51D531733012B25D82A4AEB69904291
:103DC00003D0A869B0FBF3F2C5E72A690798696BCD
:103DD0000191024406980093142100FB0323002262
:103DE0002846FFF7CBFD00280DDBEB69E9E70BF177
:103DF00001032A6A9BB2934202D3049B5B0701D45E
:103E0000002800DB18480BB0BDE8F08F0BFB00F377
:103E1000079300275FE70699099C013106910399F2
:103E200021447746D04403916DE715980BB0BDE867
:103E3000F08F0BF1010B2A6A1FFA8BFB5A4509D947
:103E4000079A02440792B9F1000FDBDDB0FBF3F2F1
:103E500000274DE7049A12F0040BD3D1CDF81CB023
:103E6000F1E700BFA9D8FFFFA8D8FFFF2DE9F04F69
:103E7000036A89B04FF000080646ADF81A80002B9F
:103E80005ED044464FF6FF790DF11C0A4FF0020B4D
:103E900012E0BDF81C30934205D0994528BF9946E1
:103EA000984538BF9846BDF81A40326A0134A4B22A
:103EB0009442ADF81A401CD2D6E906C33769BCFB60
:103EC000F3F5023F6D0000221521304604FB0C740F
:103ED000B5FBF3F50DB105FB03F3CDE900BA2344BF
:103EE000FFF74CFD00284FF6FF72D2DA09B0BDE8AB
:103EF000F08FA8EB0903B3F5004FB4BF08F1010838
:103F000009F101081FFA88F800230DF11A050F4C7A
:103F1000A6F856801A46CDF814A01946C6E9123301
:103F200033653046CDE90233009304950194FFF7E1
:103F3000A1FE074B984208BF002009B0BDE8F08FF2
:103F40004FF001080DF11C0ADEE700BF453C0008F8
:103F5000A8D8FFFFDFF834D0002103E00C4B5B58FA
:103F6000435004310B480C4B42189A42F6D30B4A8B
:103F700002E0002342F8043B094B9A42F9D306F0D1
:103F8000F5FB0AF0D5FF03F0FDFC704700000320AD
:103F9000D836010800000020880300208803002094
:103FA0008C2D0020FEE700000C4A0D4BD16821F05B
:103FB0008071D160D16841F08071D1601A6822F0BF
:103FC00001021A601A68002142F001021A60596069
:103FD0005A6800BF00BF5868801A7047F0ED00E0D3
:103FE000001000E0704700BF70B5174EB369013391
:103FF000B361F36913B1F369013BF361337803B340
:104000000024A50073195B68B3B11A7892071846AB
:1040100012D59A68511E0AB1996069B93544D3E93D
:10402000032190476A6813785168916013F0010189
:1040300002D161F34103137001343378E4B2A34237
:10404000DFD8FFF7CFFF70BDD4030020EFF3058367
:104050003BB1074A20B11368DB03FCD50138F9E70F
:104060007047044A916993695B1A8342FBD3704796
:1040700010E000E0D4030020014B9869704700BFB6
:10408000D403002038B50546164C1748C5F3C002C6
:10409000802107F0C9FCC5F380022046402107F0CB
:1040A000C3FCC5F340022046802107F0BDFC05F0AB
:1040B000010220464FF4807107F0B6FC2046012231
:1040C0004FF4007107F0B0FC142001F0A3F9204672
:1040D00000224FF4007107F0A7FC1420BDE838401F
:1040E00001F098B9000802400018024010B5002203
:1040F00004464FF48071064807F096FC2009FFF74C
:10410000C1FF04F00F00BDE81040FFF7BBBF00BFC8
:104110000000024010B40C4B0C4ADC7883B08C4297
:104120000192024609D8002140F080005A7199712D
:1041300003B05DF8044BFFF7D9BF02A8084410F89C
:10414000040C1044C0B2EFE7F40300200040145404
:1041500010B5012204464FF48071064807F064FC54
:104160002009FFF78FFF04F00F00BDE81040FFF7B4
:1041700089BF00BF0000024070B500220D46064610
:104180004FF480713248334C07F04EFC00224FF45C
:104190000071314807F048FC00224FF480712E482E
:1041A00007F042FC002280212B4807F03DFC002252
:1041B0004021294807F038FC00228021274807F0D9
:1041C00033FC4AF6C87001F025F9012D4FF00003C9
:1041D0006371A3714FF0030088BF082363702671D9
:1041E000E570FFF74FFF41F2941001F013F903203F
:1041F000FFF748FF41F2941001F00CF90320FFF79C
:1042000041FF41F2941001F005F90220FFF73AFF57
:10421000642001F0FFF8607840F02000FFF766FFAF
:1042200004230C202370FFF761FF0120FFF75EFFDE
:1042300040F6B83001F0EEF802230620A370FFF735
:1042400055FF41F29410BDE8704001F0E3B800BFA3
:1042500000000240F4030020000802400018024061
:1042600008B50120FFF742FF40F6B830BDE808402E
:1042700001F0D0B870B51546FFF74CFF2B786BB343
:10428000194C00260DE02B780A2B18461AD00D2B5E
:1042900025D0FFF75DFF63790133637115F8013FA6
:1042A000E3B1627923799A42EDD3A3796671013340
:1042B000DBB219460020A371FFF72CFF2B780A2BE5
:1042C0001846E4D1A37960790133DBB21946A371B2
:1042D000FFF720FF15F8013F002BE2D170BDA17957
:1042E0000020FFF717FFD9E7F403002003685B06FF
:1042F00013D592B10A4483689B07FCD583681B06DB
:10430000F9D411F8013B03738368DB07FCD583689C
:104310001B06F9D48A428389EDD1704710B4046832
:10432000640613D593B1CC1883689B07FCD58368CA
:104330001B06F9D402738368DB07FCD583681B0670
:10434000F9D4037B01F8013B8C42EDD15DF8044BBD
:10435000704700BF30B583B002AC0D4D04F8010DBD
:1043600000224FF400510B4807F05EFB2846002264
:10437000042107F059FB214664230122064808F076
:104380006BFD28460122042107F04EFB03B030BD2F
:1043900000080240000C0240C421002030B583B068
:1043A00002AC0D4D04F8010D01224FF400510B48F1
:1043B00007F03AFB28460022042107F035FB21468E
:1043C00064230122064808F047FD28460122042103
:1043D00007F02AFB03B030BD00080240000C024089
:1043E000C421002010B500224FF48051994807F0F5
:1043F0001BFB44F62063013BFDD101224FF48051A9
:10440000944807F011FB44F62063013BFDD10120E5
:10441000FFF7A0FF4CF25034013CFDD1CB20FFF759
:1044200099FF3920FFF7BAFF2C20FFF7B7FF20468E
:10443000FFF7B4FF3420FFF7B1FF0220FFF7AEFF14
:10444000CF20FFF787FF2046FFF7A8FFC120FFF727
:10445000A5FF3020FFF7A2FFE820FFF77BFF8520B4
:10446000FFF79CFF2046FFF799FF7820FFF796FFA4
:10447000EA20FFF76FFF2046FFF790FF2046FFF787
:104480008DFFED20FFF766FF6420FFF787FF032015
:10449000FFF784FF1220FFF781FF8120FFF77EFFE7
:1044A000F720FFF757FF2020FFF778FFC020FFF726
:1044B00051FF2320FFF772FFC120FFF74BFF1020B1
:1044C000FFF76CFFC520FFF745FF3E20FFF766FFB3
:1044D0002820FFF763FFC720FFF73CFF8620FFF788
:1044E0005DFF3620FFF736FF4820FFF757FF3A20E1
:1044F000FFF730FF5520FFF751FFB120FFF72AFFEC
:104500002046FFF74BFF1820FFF748FFB620FFF7C4
:1045100021FF0820FFF742FF8220FFF73FFF2720FF
:10452000FFF73CFFF220FFF715FF2046FFF736FFAD
:104530002A20FFF70FFF2046FFF730FF2046FFF746
:104540002DFF2046FFF72AFFEF20FFF727FF2B2044
:10455000FFF700FF2046FFF721FF2046FFF71EFF71
:104560000120FFF71BFF3F20FFF718FF2620FFF772
:10457000F1FE0120FFF712FFE020FFF7EBFE0F2016
:10458000FFF70CFF3120FFF709FF2B20FFF706FF95
:104590000C20FFF703FF0E20FFF700FF0820FFF7B6
:1045A000FDFE4E20FFF7FAFEF120FFF7F7FE372061
:1045B000FFF7F4FE0720FFF7F1FE1020FFF7EEFEF5
:1045C0000320FFF7EBFE0E20FFF7E8FE0920FFF7C0
:1045D000E5FE2046FFF7E2FEE120FFF7BBFE2046A6
:1045E000FFF7DCFE0E20FFF7D9FE1420FFF7D6FE02
:1045F0000320FFF7D3FE1120FFF7D0FE0720FFF7BF
:10460000CDFE3120FFF7CAFEC120FFF7C7FE4820CC
:10461000FFF7C4FE0820FFF7C1FE0F20FFF7BEFE24
:104620000C20FFF7BBFE3120FFF7B8FE3620FFF766
:10463000B5FE0F20FFF7B2FE1120FFF78BFE064BF1
:10464000013BFDD12920FFF785FE2C20BDE810405D
:10465000FFF780BE000C024040420F00F8B507464D
:104660002A200D4616461C46FFF774FE380AFFF74F
:1046700095FEF8B2FFF792FE300AFFF78FFEF0B218
:10468000FFF78CFE2B20FFF765FE280AFFF786FE5A
:10469000E8B2FFF783FE200AFFF780FEE0B2BDE834
:1046A000F840FFF77BBE00BF10B50B46144602462C
:1046B000FFF7D4FF2C20FFF74DFEC4F30720FFF7D0
:1046C0006DFEE0B2BDE81040FFF768BE2DE9F04195
:1046D00082B00746BDF820408DF80540240A0D46FB
:1046E00016468DF804401C46FFF7B8FF2C20FFF754
:1046F00031FE631B0133002204212848DFF8A48027
:10470000F61B06FB033707F08FF901224FF4005127
:10471000234807F089F9D8F800301A6822F04002DF
:104720001A601A684FF4006142F04002B7F5803F0A
:10473000C8F80C101A602DD34FF6FF7401AD464631
:1047400002222946304608F0F7FC013CF8D1A7F5D3
:104750007F47FF3F134E01370124013402222946CF
:10476000304608F0E9FCBC42F7D1012204210B4895
:1047700007F05AF9D8F800301A6822F040021A609F
:104780001A68002142F04002C8F80C101A6002B00A
:10479000BDE8F081002FE8D001ADDBE70008024062
:1047A000000C0240C421002000B5074B1A885B882A
:1047B00083B0002180B2013A009092B20846FFF720
:1047C00085FF03B05DF804FBF80E002030B5012230
:1047D00083B004210E480F4C07F026F9FFF702FEC4
:1047E0000D480E4A00234FF6FF7100914FF4A0755B
:1047F00019460380138018460122F023238022717A
:104800002B46EF226580FFF761FF03B030BD00BF8C
:1048100000080240F80E0020FE0E0020F40E0020DA
:1048200010B504463620FFF795FD74B1012C1CD05D
:10483000022C16D0032C1CD0104B4FF4A070F0218A
:104840000022188059801A7110BD5820FFF7A6FD6C
:104850000A4BF0204FF4A0710122188059801A7180
:1048600010BD2820FFF79AFDE6E78820FFF796FDA8
:10487000EEE7E820FFF792FDDEE700BFF80E00202C
:104880002DE9F04F2F4FDFF8C4803880A8F80010D2
:104890002D4C93F800E0248893F801C083B000EB1E
:1048A0000E051E46A54201EB0C03DDF83090924642
:1048B0009BB208DD9C440020A8F8003019467546DC
:1048C0001FFA8CF338800D9A94B20094AAB2FFF7C5
:1048D000FDFE72787AB333783888AAF1200A194637
:1048E0004FF0000B0AFB02B4756835F81450CBB1D9
:1048F000002403E00134A342194612D905FA04F258
:104900001204F7D5B8F800102044594480B289B297
:104910004A46FFF7C9FE337838880134A342194666
:10492000ECD872780BF1010B5A45DBD8084438807B
:1049300003B0BDE8F08F317838880844388003B080
:10494000BDE8F08FF40E0020F80E0020FE0E0020CF
:104950002DE9F04F1B4F1C4E824610463180A7F8C0
:1049600000A083B00178DDF83090DDF834801D467A
:104970004FF0000B441C2B460A4681B10A2911D086
:104980000D2905D038883188CDE90098FFF778FFE8
:1049900020460178441C2B460A460029EED103B07C
:1049A000BDE8F08F32886B7801321344338043784E
:1049B0000D2B06BF841CA7F800B0A7F800A0204666
:1049C000E7E700BFF40E0020FE0E002030B583B0F4
:1049D0009042069C02D9054610462A46994202D9C1
:1049E0000D4619462B46A4B20094FFF76FFE04480B
:1049F0000122042103B0BDE8304007F015B800BF24
:104A000000080240014B185C704700BFD000002036
:104A1000094B187CFF280BD05A7CFE2A09D0074985
:104A200010B4FE2200240C805A745DF8044B7047C9
:104A30007047FF20704700BFD0000020FC0300201B
:104A400010B5012204464FF480511C4806F0ECFFDB
:104A500001222021194806F0E7FF012240211748D2
:104A600006F0E2FF01224FF40051154806F0DCFF8A
:104A7000012C1BD0022C12D0032C09D0042C1CD1E9
:104A800000224FF400510E48BDE8104006F0CCBFA4
:104A9000002240210948BDE8104006F0C5BF0022B1
:104AA00020210648BDE8104006F0BEBF00221021BC
:104AB0000248BDE8104006F0B7BF10BD001002402C
:104AC000000802400020FFF7BBBF00BF10B54FF445
:104AD00080710446134806F0A1FF18B9124820441B
:104AE000C07C10BD80210F4806F098FF18B90E4811
:104AF0002044C07D10BD4FF480610C4806F08EFF4D
:104B000018B909482044C07E10BD4FF40071054813
:104B100006F084FF18B904482044C07F10BDFF2070
:104B200010BD00BF00040240D00000200018024069
:104B300008B50120FFF784FF0120FFF7C7FFFF281A
:104B400000D008BD0220FFF77BFF0220FFF7BEFF69
:104B5000FF28F6D10320FFF773FF0320FFF7B6FF0E
:104B6000FF28EED10420FFF76BFF0420BDE80840CA
:104B7000FFF7ACBF08B5FFF7DBFF0D4A0D491388FF
:104B8000087401339BB2B3F5FA7F0ED30023FF28DC
:104B9000138005D093780133DBB2042B937001D1DD
:104BA00000239370FF234B7408BD138008BD00BF22
:104BB000FC030020D0000020014B9869704700BF23
:104BC00000040020012922D017D3022914D1124B4E
:104BD0009A691044B0F5801F01D3C0F31300C0F3ED
:104BE0001001C0F34B129861C0F34740C3E90412AF
:104BF000187783F8200070477047074B0022B0F504
:104C0000801FC3E9042283F82020E6D2E7E7024BA5
:104C1000C0F58010F2E700BF00040020012922D077
:104C200017D3022914D1124B9A681044B0F5801F93
:104C300001D3C0F31300C0F31001C0F34B1298600E
:104C4000C0F34740C3E90012187383F8200070478F
:104C50007047074B0022B0F5801FC3E9002283F89C
:104C60002020E6D2E7E7024BC0F58010F2E700BF54
:104C700000040020014B9868704700BF000400202A
:104C800038B50C4C0C480D4D002384F82030082119
:104C900002E055F82300118C012206F0C5FE94F8BD
:104CA00020300133DBB2072B05EB430284F82030C0
:104CB000EFD938BD00040020001802404C2B010839
:104CC0002DE9F041164E174C96F82030164F04EBA4
:104CD000430282B08046118C54F82300002206F073
:104CE000A3FE02A9012501F8015D2A463846642386
:104CF00008F0B2F802A92A4601F8028D384664236A
:104D000008F0AAF896F8203004EB430154F8230089
:104D1000098C2A4606F088FE002002B0BDE8F0812A
:104D2000000400204C2B0108C42100202DE9F04193
:104D300082B002AD134C05F8013D06460F46904681
:104D4000294620466423012208F086F802A920465D
:104D500001F8028D6423012208F07EF802A92046A2
:104D600001F8037D6423012208F076F802A92046A9
:104D700001F8046D6423012208F06EF802B0BDE86A
:104D8000F08100BFC42100202DE9F047DFF87880D2
:104D90001B4F82B006464020894692460A9D1C461B
:104DA000FFF78EFF98F8203007EB430257F82300F7
:104DB000118C002206F038FE524649463046022346
:104DC000FFF7B4FF75B10F4E254414F8013B8DF881
:104DD0000730012264230DF10701304608F03CF84A
:104DE000AC42F2D198F8203007EB430257F8230089
:104DF000118C012206F018FE002002B0BDE8F087F9
:104E00004C2B0108C4210020000400202DE9F043B0
:104E1000534CDFF85081236883B007460D464FF0AE
:104E2000200913F01F0314BFC3F120061E464DB323
:104E30001F2D20786178A27827D9002B41D13B46DD
:104E4000CDF80090FFF7A0FFA2682032424588BF4E
:104E5000C2F31302C2F31003C2F34B11A260C4E900
:104E60000031C2F3474213F01F03A5F1200507F1FB
:104E70002007227384F8202014BFC3F120061E46A9
:104E8000002DD5D103B0BDE8F083A3B3AE424CD220
:104E90003B460096FFF778FFA2683244424588BF40
:104EA000C2F31302C2F31003C2F34B11A260C2F3A8
:104EB0004742AD1B3744C4E90031227384F82020F7
:104EC000AFE73B460096FFF75FFFA36833444345D7
:104ED00088BFC3F31303A360A268C2F31003C2F335
:104EE0004B11C2F347423744AD1BC4E90031227372
:104EF00084F8202095E700953B46FFF745FFA3681F
:104F00001D44B5F5801F28BFC5F31305C5F3100276
:104F1000C5F34B13A560C5F34745C4E900232573CA
:104F200084F8205003B0BDE8F08300953B46FFF7BE
:104F30002BFFA3681D44B5F5801F28BFC5F31305DB
:104F4000A560A368C3F31001C3F34B12C3F3474337
:104F5000C4E90012237384F8203003B0BDE8F08365
:104F600000040020FFFF0F002DE9F047DFF87880F4
:104F70001B4F82B006464020894692460A9D1C4639
:104F8000FFF79EFE98F8203007EB430257F8230006
:104F9000118C002206F048FD524649463046032354
:104FA000FFF7C4FE75B10F4E2544642301220DF1B5
:104FB0000701304608F004F89DF8073004F8013B7B
:104FC000AC42F2D198F8203007EB430257F82300A7
:104FD000118C012206F028FD002002B0BDE8F08708
:104FE0004C2B0108C4210020000400202DE9F043CF
:104FF000534CDFF85081236983B007460D464FF0CC
:10500000200913F01F0314BFC3F120061E464DB341
:105010001F2D207C617CA27C27D9002B41D13B46EF
:10502000CDF80090FFF7A0FFA2692032424588BF6B
:10503000C2F31302C2F31003C2F34B11A261C4E91D
:105040000431C2F3474213F01F03A5F1200507F115
:105050002007227784F8202014BFC3F120061E46C3
:10506000002DD5D103B0BDE8F083A3B3AE424CD23E
:105070003B460096FFF778FFA2693244424588BF5D
:10508000C2F31302C2F31003C2F34B11A261C2F3C5
:105090004742AD1B3744C4E90431227784F820200D
:1050A000AFE73B460096FFF75FFFA36933444345F4
:1050B00088BFC3F31303A361A269C2F31003C2F351
:1050C0004B11C2F347423744AD1BC4E90431227788
:1050D00084F8202095E700953B46FFF745FFA3693C
:1050E0001D44B5F5801F28BFC5F31305C5F3100295
:1050F000C5F34B13A561C5F34745C4E904232577E0
:1051000084F8205003B0BDE8F08300953B46FFF7DC
:105110002BFFA3691D44B5F5801F28BFC5F31305F8
:10512000A561A369C3F31001C3F34B12C3F3474353
:10513000C4E90412237784F8203003B0BDE8F0837B
:1051400000040020FFFF0F0010B5064C406C214604
:105150000A220AF08DF8224601210020BDE8104005
:10516000FFF788B8000F00200368234A93421AD043
:10517000224A934200D0704710B505F073FD204BD2
:105180003F2818600ED0C00807280BD8DFE800F0D1
:105190001D0A0A150A0D0A041A4A5379B3FA83F351
:1051A0005B09537110BD02F053BB164A136C0133F7
:1051B0001364BDE8104000F0E9BF124A136C013BD4
:1051C0001364BDE8104000F0E1BF0E4B1979C9B27D
:1051D000012908D00120014618710B4A0020BDE8C2
:1051E0001040FFF747B8002420461C71074ABDE86D
:1051F0001040FFF73FB800BF0022014000200140EF
:1052000044040020081D0020AC2C01089C2C01083F
:1052100030B5194B194A1A604FF040714FF4803283
:1052200085B04FF080554FF070645A60996000224D
:1052300001211846C3E90A451A619A611A62DA60C7
:105240001A63D961596105F069FB80B90424012210
:105250000723694608480293CDE9004205F0E0FDC6
:1052600018B1A221064802F013FD05B030BD982107
:10527000034802F00DFDE9E7680F0020002001401F
:10528000BC2C010830B51E4B1E4A1A604FF4803109
:105290004FF0407285B01C4D5960022401219A6084
:1052A000184600229D62DC611961996119631A62D6
:1052B000DA62DA605A6105F031FBE0B901230622B7
:1052C00069460F480292CDE9003305F0A9FD68B99F
:1052D000022369460A48CDE9003305F0A1FD18B163
:1052E000CE210A4802F0D4FC05B030BDC5210748E4
:1052F00002F0CEFCECE7BB21044802F0C9FCDDE77C
:10530000B00F0020002201400100000FBC2C01085A
:1053100070B5394A0368934288B042D0374A934205
:1053200001D008B070BD0026354B02965A6C354C42
:1053300042F480625A645B6C059603F480630293C6
:10534000062203230299039203A905462E480493DB
:1053500006F026FA2D4921604FF080624FF48063F9
:105360004FF480504FF48041626023614FF48072AB
:105370004FF4803360612046A660E6606662C4E94F
:105380000612236205F0D8FF78BBAC63002203212C
:105390001220A56305F004FE122005F037FE08B0C8
:1053A00070BD0024164B01945A6C174842F4807269
:1053B0005A645B6C059403F48073019310250326F3
:1053C00003A9019BCDE9035606F0EAF922463146CE
:1053D000122005F0E5FD122005F018FE22462946B0
:1053E000094806F021FB08B070BD40F20D110848D5
:1053F00002F04EFCC9E700BF00200140002201403E
:1054000000380240080F00200000024028640240DB
:10541000BC2C010870B5084C0546666807F09AFA7E
:10542000064BA3FB0030800C224605FB00F55368B9
:105430009B1BAB42FBD370BD001000E083DE1B431F
:1054400030B583B00D4C8DF80700656807F082FA1F
:105450000B4BA3FB0030800C0A21224601FB00F11C
:1054600053685B1B8B42FBD30A2301220DF107011A
:10547000044807F0F1FC03B030BD00BF001000E0AD
:1054800083DE1B437C22002070B50D4C00220646B3
:105490000D4620464FF4806106F0C6FA46F05000F3
:1054A000FFF7CEFF0020FFF7CBFF2846FFF7C8FF2E
:1054B000204601224FF48061BDE8704006F0B4BA86
:1054C0000008024030B500224FF4806183B00546E9
:1054D0001648174C06F0A8FA45F01000FFF7B0FF89
:1054E0000020FFF7ADFF656807F034FA114BA3FB0E
:1054F0000030800C0A21224601FB00F153685B1B3F
:105500008B42FBD302A9002301F8013D01220A23AB
:10551000094807F055FD05489DF8074001224FF462
:10552000806106F081FA204603B030BD00080240D9
:10553000001000E083DE1B437C22002038B5094CBC
:105540000546002220464FF4806106F06DFA284699
:10555000FFF776FF204601224FF48061BDE8384016
:1055600006F062BA0008024030B101280CD00228CF
:1055700006D003280BD0704701210846FFF784BFEF
:1055800045210120FFF780BF2321FFF77DBF672161
:105590000120FFF779BF00BF38B5064C064D01E08A
:1055A000013C05D00421284606F038FA0028F7D13E
:1055B00038BD00BF801A0600000C02401C4B70B5BD
:1055C00005460E4618705970FFF7E6FF194B1A484A
:1055D0009E5D1A4C00224FF4806106F025FA50209F
:1055E000FFF72EFF0320FFF72BFF0620FFF728FF12
:1055F0000820FFF725FF2846FFF722FF3046FFF778
:105600001FFF01224FF480610B4806F00DFA656818
:1056100007F0A0F90A4BA3FB0030800C3221224690
:1056200001FB00F153685B1B8B42FBD370BD00BFD5
:10563000CC0E00207C2B010800080240001000E086
:1056400083DE1B4308B5FFF7A7FF0020FFF73AFFF3
:10565000C0F3071008BD00BFF0B500224FF4806111
:1056600083B02648264C06F0DFF90120FFF7E8FE5C
:10567000656807F06FF9234BA3FB0030800C0A210B
:10568000224601FB00F153685B1B8B42FBD302AC4B
:10569000002604F8016D1C4D1C4821460A230122F6
:1056A00007F08EFC9DF8077018488DF807602146BA
:1056B0000A2301222F7007F083FC9DF807306B70DE
:1056C00021460A23012211488DF8076007F078FC73
:1056D0006B782A789DF80740AC701B0243EA0243BE
:1056E0001C43064801224FF4806106F09DF9230215
:1056F00048BF44F07F44204603B0F0BD000802409C
:10570000001000E083DE1B434C0400207C220020BC
:1057100030B5104C83B00B468DF804000D0A2046BE
:10572000012220218DF806308DF8055006F07CF915
:1057300020460022202106F077F9642301A90322E4
:10574000054807F089FB20460122202106F06CF96C
:1057500003B030BD000C02407C220020F0B51C4C90
:105760001C4E83B0002503464FEA102C0F0A20463A
:105770008DF802302A4634238DF8051020218DF84B
:1057800001C08DF803308DF804708DF8005006F0DC
:105790004BF9642369463046032207F05DFB20463F
:1057A0000122202106F040F92A462046202106F059
:1057B0003BF903220DEB02016423304607F04CFB5A
:1057C00020460122202106F02FF903B0F0BD00BFD2
:1057D000000C02407C220020064A074953691269E6
:1057E000064803EB430301EB83035B6802FB03F30F
:1057F00003607047081D0020881100205404002019
:10580000014B5860704700BF54040020024BD3E99D
:10581000022302600B60704754040020184B194AA1
:1058200030B45C7F012CC2E9020101F1010112D008
:10583000154C01EB410104EB81014D68196900EB46
:10584000400004EB80004068986001FB00F1DD60DF
:10585000116030BC70475C78012CE9D11C78012CB8
:10586000094C05D001EB410104EB81014D68E5E7EE
:1058700001EB410104EB810155684D60DEE700BF9B
:10588000081D00205404002088110020914212DAE3
:1058900001F10041831E013900EB410003EB42029C
:1058A00030F9023F002BB8BF03339B1003F50063B0
:1058B00082420380F4D1704730B5114C83B0A37895
:1058C000ADF8060023B10F4D2B68B3F5000F01D3DF
:1058D00003B030BD087803F1504303EB10100122F0
:1058E0000DF1060104F070FA21692B68627F0B4408
:1058F000012A2B60ECD16B6801336B60E8E700BFD5
:10590000081D002054040020F0B5444C85B0A37855
:10591000ADF8060023B3424F3B68B3F5000F1646BF
:105920000D4613D20A7812F001022AD1327812F011
:1059300001024CD12069627F0344012A3B6002D1FD
:105940007B6801337B60A3680133A360E3681BB10C
:10595000A268E3689A420AD23B68B3F5000F01D00F
:1059600005B0F0BD00233B60A37005B0F0BD012081
:1059700004F084F82B4A0023012123701170A370D6
:10598000EEE7087803F1504303EB10100DF1060128
:1059900004F01AFA6269244B94F8201002EB4202D8
:1059A00003EB820301F0010213441A7A3B68012AD7
:1059B000C0D1307803F1504303EB10100DF10E010C
:1059C00004F0FAF9BDF90E3073803B68B2E7307825
:1059D00003F1504303EB10100DF1060104F0F4F94C
:1059E0006269114B94F8201002EB420203EB820330
:1059F00001F0010213441A7A3B68012A9AD12878EF
:105A000003F1504303EB10100DF10E0104F0D4F933
:105A1000BDF90E203B686A808CE700BF081D00209E
:105A200054040020890B0020881100200000000091
:105A3000F0B5494DAB7883B00BB903B0F0BD474E1C
:105A400033680746087803F150430C4603EB101007
:105A500001220DF1060104F0AFF9BDF90630DA19A3
:105A600012B2228163802278520715D507EE907A10
:105A7000D4ED036A94ED036A07EE103AF8EEE77A84
:105A8000B8EEC77A67EE867AE6EE877AFDEEE77AB9
:105A900017EE903A1BB22381238962681BB29342AE
:105AA0002FDC22783768C2F3C002002A2DD1AB6800
:105AB0000133AB602869AA68EB6838449A423060C9
:105AC00018D323781B072BD423784FF07E526FF323
:105AD00082032370E26043F6FF7363606B7F022BE7
