:020000040800F2
:1000000000000320F11800084119000841190008F8
:1000100041190008411900084119000800000000BA
:10002000000000000000000000000000A1550008D2
:100030004119000800000000A5550008A955000856
:1000400041190008B9550008411900084119000874
:100050004119000841190008C95600084119000853
:10006000BD55000841190008C55500084119000890
:1000700041190008411900084119000841190008F8
:1000800041190008CD550008D9550008411900084C
:10009000411900084119000841190008FD550008E0
:1000A00019560008411900084119000841190008B3
:1000B0002D56000841190008415600084119000852
:1000C00041190008411900084119000841190008A8
:1000D0004119000841190008411900084119000898
:1000E0005556000841190008411900084119000837
:1000F0006D5600084119000841190008411900080F
:100100004119000841190008411900084119000867
:100110004119000841190008411900084119000857
:10012000411900084119000841190008A5560008A6
:10013000B15600084119000841190008411900088A
:100140004119000841190008411900084119000827
:100150004119000841190008411900084119000817
:100160004119000841190008411900084119000807
:1001700041190008BD5600084119000800000000A0
:1001800041190008411900084119000841190008E7
:1001900041190008411900084119000841190008D7
:0C01A0004119000841190008411900082D
:1001B00010B5054C237833B9044B13B10448AFF3A1
:1001C00000800123237010BD1402002000000000F5
:1001D00050B6000808B5034B1BB103490348AFF301
:1001E000008008BD000000001802002050B6000882
:1001F00081F0004102E000BF83F0004330B54FEAD8
:1002000041044FEA430594EA050F08BF90EA020F44
:100210001FBF54EA000C55EA020C7FEA645C7FEAD7
:10022000655C00F0E2804FEA5454D4EB5555B8BFFA
:100230006D420CDD2C4480EA020281EA030382EA6B
:10024000000083EA010180EA020281EA0303362DFD
:1002500088BF30BD11F0004F4FEA01314FF4801CD0
:100260004CEA113102D0404261EB410113F0004FE2
:100270004FEA03334CEA133302D0524263EB430399
:1002800094EA050F00F0A780A4F10104D5F1200E37
:100290000DDB02FA0EFC22FA05F2801841F1000192
:1002A00003FA0EF2801843FA05F359410EE0A5F166
:1002B00020050EF1200E012A03FA0EFC28BF4CF097
:1002C000020C43FA05F3C01851EBE37101F000454D
:1002D00007D54FF0000EDCF1000C7EEB00006EEB5A
:1002E0000101B1F5801F1BD3B1F5001F0CD34908E4
:1002F0005FEA30004FEA3C0C04F101044FEA44523B
:1003000012F5800F80F09A80BCF1004F08BF5FEAC1
:10031000500C50F1000041EB045141EA050130BDA1
:100320005FEA4C0C404141EB010111F4801FA4F144
:100330000104E9D191F0000F04BF01460020B1FA99
:1003400081F308BF2033A3F10B03B3F120020CDAD1
:100350000C3208DD02F1140CC2F10C0201FA0CF0AF
:1003600021FA02F10CE002F11402D8BFC2F1200C14
:1003700001FA02F120FA0CFCDCBF41EA0C019040CA
:10038000E41AA2BF01EB0451294330BD6FEA040413
:100390001F3C1CDA0C340EDC04F11404C4F12002FE
:1003A00020FA04F001FA02F340EA030021FA04F310
:1003B00045EA030130BDC4F10C04C4F1200220FA67
:1003C00002F001FA04F340EA0300294630BD21FAA5
:1003D00004F0294630BD94F0000F83F4801306BF6B
:1003E00081F480110134013D4EE77FEA645C18BF5F
:1003F0007FEA655C29D094EA050F08BF90EA020FF6
:1004000005D054EA000C04BF1946104630BD91EAED
:10041000030F1EBF0021002030BD5FEA545C05D1F0
:100420004000494128BF41F0004130BD14F580042F
:100430003CBF01F5801130BD01F0004545F0FE41A3
:1004400041F470014FF0000030BD7FEA645C1ABFD8
:10045000194610467FEA655C1CBF0B46024650EA0F
:10046000013406BF52EA033591EA030F41F400213B
:1004700030BD00BF90F0000F04BF0021704730B5C1
:100480004FF4806404F132044FF000054FF0000196
:1004900050E700BF90F0000F04BF0021704730B557
:1004A0004FF4806404F1320410F0004548BF40422C
:1004B0004FF000013EE700BF42004FEAE2014FEA81
:1004C00031014FEA02701FBF12F07F4393F07F4F5C
:1004D00081F06051704732F07F4208BF704793F05F
:1004E0007F4F04BF41F40021704730B54FF4607472
:1004F00001F0004521F000411CE700BF50EA010275
:1005000008BF704730B54FF000050AE050EA01021D
:1005100008BF704730B511F0004502D5404261EB8D
:1005200041014FF4806404F132045FEA915C3FF4CE
:10053000D8AE4FF003025FEADC0C18BF03325FEA6B
:10054000DC0C18BF033202EBDC02C2F1200300FA1C
:1005500003FC20FA02F001FA03FE40EA0E0021FA41
:1005600002F11444BDE600BF70B54FF0FF0C4CF42F
:10057000E06C1CEA11541DBF1CEA135594EA0C0FE1
:1005800095EA0C0F00F0DEF82C4481EA030621EA1C
:100590004C5123EA4C5350EA013518BF52EA033557
:1005A00041F4801143F4801338D0A0FB02CE4FF009
:1005B0000005E1FB02E506F00042E0FB03E54FF039
:1005C0000006E1FB03569CF0000F18BF4EF0010E31
:1005D000A4F1FF04B6F5007F64F5407404D25FEA2D
:1005E0004E0E6D4146EB060642EAC62141EA5551E0
:1005F0004FEAC52040EA5E504FEACE2EB4F1FD0C22
:1006000088BFBCF5E06F1ED8BEF1004F08BF5FEA9F
:10061000500E50F1000041EB045170BD06F0004651
:1006200046EA010140EA020081EA0301B4EB5C04FE
:10063000C2BFD4EB0C0541EA045170BD41F48011F6
:100640004FF0000E013C00F3AB8014F1360FDEBF1B
:10065000002001F0004170BDC4F10004203C35DAF7
:100660000C341BDC04F11404C4F1200500FA05F37A
:1006700020FA04F001FA05F240EA020001F000421B
:1006800021F0004110EBD37021FA04F642EB060191
:100690005EEA430E08BF20EAD37070BDC4F10C04BB
:1006A000C4F1200500FA04F320FA05F001FA04F27F
:1006B00040EA020001F0004110EBD37041F100016B
:1006C0005EEA430E08BF20EAD37070BDC4F1200576
:1006D00000FA05F24EEA020E20FA04F301FA05F2DE
:1006E00043EA020321FA04F001F0004121FA04F286
:1006F00020EA020000EBD3705EEA430E08BF20EA56
:10070000D37070BD94F0000F0FD101F0004640008F
:1007100041EB010111F4801F08BF013CF7D041EA11
:10072000060195F0000F18BF704703F00046520015
:1007300043EB030313F4801F08BF013DF7D043EAE6
:100740000603704794EA0C0F0CEA135518BF95EA9C
:100750000C0F0CD050EA410618BF52EA4306D1D123
:1007600081EA030101F000414FF0000070BD50EA42
:10077000410606BF1046194652EA430619D094EACC
:100780000C0F02D150EA013613D195EA0C0F05D1B6
:1007900052EA03361CBF104619460AD181EA03010A
:1007A00001F0004141F0FE4141F470014FF00000C2
:1007B00070BD41F0FE4141F4780170BD70B54FF05D
:1007C000FF0C4CF4E06C1CEA11541DBF1CEA1355DD
:1007D00094EA0C0F95EA0C0F00F0A7F8A4EB0504BF
:1007E00081EA030E52EA03354FEA013100F08880B6
:1007F0004FEA03334FF0805545EA131343EA12637F
:100800004FEA022245EA111545EA10654FEA002633
:100810000EF000419D4208BF964244F1FD0404F5EC
:10082000407402D25B084FEA3202B61A65EB030548
:100830005B084FEA32024FF480104FF4002CB6EB05
:10084000020E75EB030E22BFB61A754640EA0C0085
:100850005B084FEA3202B6EB020E75EB030E22BFC5
:10086000B61A754640EA5C005B084FEA3202B6EB06
:10087000020E75EB030E22BFB61A754640EA9C00C5
:100880005B084FEA3202B6EB020E75EB030E22BF95
:10089000B61A754640EADC0055EA060E18D04FEA53
:1008A000051545EA16754FEA06164FEAC30343EAF3
:1008B00052734FEAC2025FEA1C1CC0D111F4801FC0
:1008C0000BD141EA00014FF000004FF0004CB6E7B9
:1008D00011F4801F04BF01430020B4F1FD0C88BF58
:1008E000BCF5E06F3FF6AFAEB5EB030C04BFB6EB63
:1008F000020C5FEA500C50F1000041EB045170BD56
:100900000EF0004E4EEA113114EB5C04C2BFD4EB82
:100910000C0541EA045170BD41F480114FF0000E06
:10092000013C90E645EA060E8DE60CEA135594EA82
:100930000C0F08BF95EA0C0F3FF43BAF94EA0C0F85
:100940000AD150EA01347FF434AF95EA0C0F7FF4FA
:1009500025AF104619462CE795EA0C0F06D152EA4E
:1009600003353FF4FDAE1046194622E750EA410632
:1009700018BF52EA43067FF4C5AE50EA41047FF443
:100980000DAF52EA43057FF4EBAE12E74FEA4102A6
:10099000B2F1E04324BFB3F5001CDCF1FE5C0DD9DD
:1009A00001F0004C4FEAC0024CEA5070B2F1004F27
:1009B00040EB830008BF20F00100704711F0804F2A
:1009C00021D113F13872BCBF01F00040704741F4EF
:1009D00080114FEA5252C2F11802C2F1200C10FAF3
:1009E0000CF320FA02F018BF40F001004FEAC123D7
:1009F0004FEAD32303FA0CFC40EA0C0023FA02F37B
:100A00004FEA4303CCE77FEA625307D150EA013350
:100A10001EBF4FF0FE4040F44000704701F0004020
:100A200040F0FE4040F40000704700BF53B94AB99F
:100A3000002908BF00281CBF4FF0FF314FF0FF30E6
:100A400000F072B9ADF1080C6DE904CE00F006F8C3
:100A5000DDF804E0DDE9022304B070472DE9F0473A
:100A6000089E04468846002B4BD18A42154667D91A
:100A7000B2FA82F24AB1C2F1200701FA02F320FA77
:100A800007F7954047EA030894404FEA154E230CB8
:100A9000B8FBFEF71FFA85FC0EFB178843EA0843F4
:100AA00007FB0CF1994209D9EB1807F1FF3080F0F0
:100AB0001B81994240F21881023F2B445B1AA4B279
:100AC000B3FBFEF00EFB103344EA034400FB0CFCC6
:100AD000A44509D92C1900F1FF3380F00781A44502
:100AE00040F2048102382C4440EA0740A4EB0C0495
:100AF00000271EB1D4400023C6E900433946BDE8B3
:100B0000F0878B4209D9002E00F0EB800027C6E960
:100B1000000138463946BDE8F087B3FA83F7002F65
:100B200047D18B4202D3824200F2FA80841A61EBF1
:100B3000030301209846002EE0D0C6E90048DDE717
:100B400002B9FFDEB2FA82F2002A40F08F80491B20
:100B50004FEA154E1FFA85F80127B1FBFEFC230C66
:100B60000EFB1C1143EA014308FB0CF1994207D923
:100B7000EB180CF1FF3002D2994200F2CD8084468E
:100B8000591AA3B2B1FBFEF00EFB101443EA044461
:100B900008FB00F8A04507D92C1900F1FF3302D259
:100BA000A04500F2B6801846A4EB080440EA0C40C9
:100BB0009FE7C7F1200CBB4022FA0CFE4EEA030E61
:100BC00001FA07F420FA0CF521FA0CF34FEA1E485B
:100BD0002543B3FBF8F92C0C08FB19331FFA8EFAE6
:100BE00044EA034309FB0AF49C4202FA07F200FAC2
:100BF00007F10BD91EEB030309F1FF3080F087806A
:100C00009C4240F28480A9F1020973441B1BADB2DF
:100C1000B3FBF8F008FB103345EA034400FB0AFA83
:100C2000A24508D91EEB040400F1FF336BD2A245A4
:100C300069D90238744440EA0940A0FB0289A4EB58
:100C40000A044C45C2464B4654D351D0002E69D0BD
:100C5000B1EB0A0564EB030404FA0CFCFD40FC4014
:100C60004CEA0505C6E90054002747E7C2F1200316
:100C700020FA03F7954001FA02F021FA03F34FEA54
:100C8000154E3843010CB3FBFEF71FFA85F80EFB37
:100C9000173341EA034107FB08F38B4204FA02F4DD
:100CA00007D9691807F1FF3C2FD28B422DD9023F9B
:100CB0002944CB1A81B2B3FBFEF00EFB103341EA9C
:100CC000034100FB08F38B4207D9691800F1FF3C90
:100CD00017D28B4215D902382944C91A40EA07476E
:100CE0003BE73746304609E70746E7E61846FBE6A6
:100CF0004145ABD2B8EB020A69EB0E02013813464C
:100D0000A4E76046E9E7184695E76746D1E78146DC
:100D10007CE702382C4447E7ACF1020C2B442FE768
:100D2000384608E73746E9E6704700BF0000000094
:100D300001F0FF01102A2BDB10F0070F08D010F88C
:100D4000013B013A8B422DD010F0070F42B3F6D190
:100D5000F0B441EA012141EA014122F007047FF0A9
:100D600000070023F0E80256083C85EA010586EA00
:100D7000010685FA47F5A3FA87F586FA47F6A5FA3C
:100D800087F68EB9EED1F0BC01F0FF0102F0070248
:100D900032B110F8013B013A83EA010313B1F8D1F3
:100DA0000020704701387047002D06BF35460338D4
:100DB000073815F0010F07D1013015F4807F02BF0D
:100DC000013015F4C03F0130F0BC0138704700BF5E
:100DD00001220421014806F03DB800BF0010024086
:100DE0002DE9F04184B00E46642517460421002207
:100DF0000446284806F02EF84FF0030C0DF10F02C0
:100E000001230DF10D01009523488DF80DC007F069
:100E10009BFB04A9330C01F8043D0DF10F020123E3
:100E200000951D4807F090FB04A9330A01F8053D21
:100E30000DF10F0201230095174807F085FB04A967
:100E400000950DF10F0201F8066D0123124807F01D
:100E50007BFBBFB17E1EB6B20136DFF83C80264474
:100E6000FF27012300950DF10F020DF10E01404601
:100E70008DF80E7007F068FB9DF80F3004F8013B09
:100E8000B442EED101220421024805F0E3FF04B090
:100E9000BDE8F081001002405010002030B50D4C2C
:100EA00085B020460022042105F0D4FF642300937E
:100EB0000DF10F0201230DF10E01062506488DF8F4
:100EC0000E5007F041FB20460122042105F0C2FF2D
:100ED00005B030BD001002405010002070B5002257
:100EE00084B004211348144E05F0B4FF6424052097
:100EF0008DF80D000DF10F02009401230DF10D018D
:100F0000304607F021FBFF25012300940DF10F026D
:100F10000DF10E0130468DF80E5007F015FB9DF8CF
:100F20000F30DB07F0D401220421024805F092FFC4
:100F300004B070BD0010024050100020F0B5214FE9
:100F4000214C85B006466425FFF7A8FF38460022ED
:100F5000042105F07FFF4FF0D80C0DF10F020DF1C9
:100F60000E012046009501238DF80EC007F0ECFA23
:100F700004A9330C01F8033D0DF10F020095204642
:100F8000012307F0E1FA04A9330A01F8043D0DF149
:100F90000F0200952046012307F0D6FA04A9012389
:100FA00000950DF10F0201F8056D204607F0CCFA0F
:100FB00038460122042105F04DFFFFF78FFF05B0F1
:100FC000F0BD00BF0010024050100020F0B5214FCE
:100FD000214C85B006466425FFF760FF38460022A5
:100FE000042105F037FF4FF0200C0DF10F020DF139
:100FF0000E012046009501238DF80EC007F0A4FADB
:1010000004A9330C01F8033D0DF10F0200952046B1
:10101000012307F099FA04A9330A01F8043D0DF100
:101020000F0200952046012307F08EFA04A9012340
:1010300000950DF10F0201F8056D204607F084FAC6
:1010400038460122042105F005FFFFF747FF05B0F0
:10105000F0BD00BF00100240501000204318B3F153
:10106000007F09D840EA0103C3F30B0370B50546BE
:101070000C461BB1012070BD0120704783B26BB9D3
:101080008BB299420AD00E46A6F580362846B4B2F5
:10109000FFF754FFB44205F58035F5D1C4F30B03D7
:1010A0009C420AD0A4F580542846FFF78FFFC4F372
:1010B0000B03A34205F58055F4D1002070BD00BF9D
:1010C0002DE9F04184B00E46642517460446FFF72B
:1010D000E5FE00220421284805F0BCFE4FF0020C7A
:1010E0000DF10F0201230DF10D01009523488DF83C
:1010F0000DC007F029FA04A9330C01F8043D0DF1E5
:101100000F02012300951D4807F01EFA04A9330AB7
:1011100001F8053D0DF10F0201230095174807F076
:1011200013FA04A900950DF10F0201F8066D0123D1
:10113000124807F009FAA7B17E1EB6B20136DFF8F1
:101140003C80264414F8017B009501230DF10F0229
:101150000DF10E0140468DF80E7007F0F5F9B4421E
:10116000F0D101220421044805F074FEFFF7B6FE19
:1011700004B0BDE8F08100BF001002405010002014
:101180002DE9F8431646130A11F0FF020D460746F3
:101190001ED17BB3013B5FFA83F83C4608F10100A6
:1011A00007EB0027A1EB04094FF4807204EB09015F
:1011B00020461444FFF784FFBC42F5D105F5807149
:1011C00001EB0821F2B22046BDE8F843FFF778BFF3
:1011D0005442E4B2ABB9F3B29C420BD21A44D6B239
:1011E0002246FFF76DFF324661193819BDE8F84312
:1011F000FFF766BF324629463846BDE8F843FFF799
:101200005FBFA2B2B61AB6B24FEA16295FFA89F8E2
:1012100008F1FF38FFF754FFF6B2254438195FFA9A
:1012200088F8B9F1000F1ED008F10107044600EB61
:101230000727A5EB00094FF4807204EB0901204653
:101240001444FFF73DFFBC42F5D105F5807505EB71
:1012500008250EB9BDE8F883324629462046BDE888
:10126000F843FFF72DBF0446F3E700BFF0B4C66DA7
:10127000B768F3681F421DD08446002200E00132A7
:101280003378934213DD3569DCF81C30143303FBEB
:1012900002F3E818012494402742F0D0EB56002BCB
:1012A000EDDB03898B42EAD17368436000E00020E4
:1012B000F0BC70470020FBE72DE9F041C66D3769AF
:1012C000C36903F1140404FB01F407EB040C0125CA
:1012D0008D40B168294221D09AB13A5D12F0800F59
:1012E00018D112F0010F17D004F11402D0F80480C5
:1012F0000069BCF808C03A4419460CFB0300C0471B
:1013000000E00020B16821EA0501B16000233B55EF
:10131000BDE8F0810020F5E70020F3E70020F7E7C3
:101320002DE9F843C46DA568E368AB4302D0002003
:10133000BDE8F88391464FF0000C4FF0FF3E654644
:1013400000E001352378AB4213DD2769C36914330C
:1013500003FB05F307EB0308D8F804606268961BEB
:101360006645EED9FB5C0B404B45EAD1B446AE4630
:10137000E7E7BEF1000F04DB01227146FFF79CFF97
:10138000D6E70020D4E730B4C46DA568B5F1FF3FBF
:1013900016D00023217899420FDD01229A40154290
:1013A00001D00133F6E72169C069143000FB031056
:1013B0002A43A2606368436000E0002030BC7047AD
:1013C0000020FBE72DE9F84304460F461E46C56D95
:1013D0000169591AC369B1FBF3F189B2FFF746FFFE
:1013E0006B6801336B6050B907F00307012F23D1FD
:1013F0002368099A089930469847074619E0626EB3
:10140000013262666A68426029694278E06900F1E7
:10141000140303FB02F314332269B61AB6FBF0F28D
:1014200000FB12661E44089A3144099808F0CAFF6E
:1014300000273846BDE8F883A36E0133A366002277
:1014400080212046FFF76CFF81462046FFF79BFF77
:101450008046002834D0022303702369F31AE2691E
:10146000B3FBF2F3038127682069301AE169B0FB0E
:10147000F1F301FB13002A6998F801C001F114038C
:1014800003FB0CF314331A44301AB8470746A8B1CB
:10149000296998F80120E06900F1140303FB02F3C5
:1014A00014332269B61AB6FBF0F200FB126633441D
:1014B000089A1944099808F085FFBAE74F46E7E70C
:1014C0002368099A08993046984707460028B0D102
:1014D0004F46AEE7F0B587B0C76D002F41D0016E23
:1014E0001439C3691433B1FBF3F10C46002938DD1C
:1014F0000022134603E05B0043F001030132A242E5
:10150000F9DB05460024019402948DF8041007F1DC
:10151000140205924FF0FF320392049301AE0FCEF6
:1015200038607960BA60FB6030683861EE6D32789F
:10153000EB69143303FB02F2306908F04EFFF268E6
:10154000B36823EA0203B360234606E03169EA691F
:10155000143202FB0312537001339DF804209A42A7
:10156000F4DC07B0F0BD00002DE9F84F04460D464D
:10157000924698460A9EDDF82C900C9FD0F878B0E1
:101580008022002108F029FF28686968AA68EB68B2
:1015900020606160A260E36028696969AA69EB69FB
:1015A00020616161A261E361C4F878B0E368A26977
:1015B000B3FBF2F32362C4F838A0E36953446363D6
:1015C00032460021404608F008FF18F0030303D01C
:1015D000C3F104039844F61AC4F83C80164BA3FBED
:1015E00006367609266419F0030303D0C3F1040319
:1015F0009944FF1A17F0030F01D027F00307C4F82E
:101600005C90E3695B01BB4228BF3B4623662046F2
:10161000FFF760FF094BE367204600F0FDF8002864
:1016200007DB0D9BE366012384F874300020BDE8DE
:10163000F88F6064FBE700BFABAAAAAA15030920D4
:101640004FF6FF72914205D051B1C36C0133C364B0
:1016500005487047002BFBD1836C01338364F7E7A7
:10166000036D01330365F3E7AAD8FFFF2DE9F04FBF
:1016700089B005468B4614469846BDF84830059318
:10168000006AA969EE69B1FBF6F35A00B2FBF6F203
:1016900002B901229B1A03FB00F70BFB01F2069231
:1016A0006A6B04927608013BA3427FDA0BF10103D7
:1016B0001FFA83FB0BFB01F30693584575D818F00E
:1016C000040F40F0A08000240694A3466EE0169B11
:1016D00013B1BDF80C201A80179B03B11C60002EBB
:1016E00049D018F0020F03D1049B33F8111000E029
:1016F0000599159B0193149B00932346039A284652
:10170000B04700F51D531733012B34D8404B984296
:1017100020D00134013F002080BBA4EB0B014945E0
:101720002CDAAB69D5F81CC0B3FBFCF35A00B2FB52
:10173000FCF202B901229B1AA3421FDD18F0010F2F
:10174000C5D0049B33F81130059A9342BFD0013FB6
:101750000134E1E72B69EA69079902FB0133696B00
:1017600001910092069A1344002214212846FFF7A3
:1017700029FE0028CDDA09B0BDE8F08F0AF1010A90
:101780001EE04E46039B01339AB20392AB69069961
:10179000194406912B6A9A4205D318F0040F34D1EC
:1017A000002306930393002403E000240020CDF8D7
:1017B0000CB020BB002F22DD94FBF6FAB146139E3D
:1017C0000028DED1AB69EA69B3FBF2F35B00B3FB3F
:1017D000F2F303B901239A45D3DA09FB0AFB2B691B
:1017E000CDF81CA002FB0A33696B01910092069AA6
:1017F0001344002214212846FFF7E4FD8CE700285B
:10180000B9DB0448B7E70348B5E70248B3E700BFD0
:10181000A9D8FFFFA8D8FFFFF0B58BB0044600257C
:10182000ADF826504FF6FF7622E001FB00F103FBF6
:101830000212D3190DF11E02019202220092023B04
:10184000002215212046FFF7BDFD002844DBBDF82E
:101850001E304FF6FF72934205D09E4228BF1E46AF
:101860009D4238BF1D46BDF826300133ADF8263005
:10187000BDF82610236A99420BD22769A069E26954
:10188000B0FBF2F35B00B3FBF2F3002BCDD10123ED
:10189000CBE71EB94FF6FF739D4205D0AB1BB3F5E6
:1018A000004F1BDB0136B6B2A4F856600021A164DC
:1018B000E164216508AB05930DF1260304930391C0
:1018C0000291094B019300910B460A462046FFF70F
:1018D000CDFE064B984204D00BB0F0BD0135AEB240
:1018E000E2E70020F8E700BF41160008A8D8FFFF94
:1018F000DFF834D0002103E00C4B5B584350043137
:101900000B480C4B42189A42F6D30B4A02E00023D4
:1019100042F8043B094B9A42F9D304F0A5FA08F0C7
:101920001DFD02F039FF704700000320E4E30008CA
:10193000000000201402002014020020181C0020C7
:10194000FEE70000704700BF70B5174EB369013362
:10195000B361F36913B1F369013BF361337803B306
:101960000024A50073195B68B3B11A789207184672
:1019700012D59A68511E0AB1996069B93544D3E904
:10198000032190476A6813785168916013F0010150
:1019900002D161F34103137001343378E4B2A342FE
:1019A000DFD8FFF7CFFF70BD30020020EFF30583D3
:1019B0003BB1074A20B11368DB03FCD50138F9E7D6
:1019C0007047044A916993695B1A8342FBD370475D
:1019D00010E000E030020020014B9869704700BF22
:1019E0003002002038B50546164C1748C5F3C00232
:1019F000802105F02FFAC5F380022046402105F032
:101A000029FAC5F340022046802105F023FA05F0AB
:101A1000010220464FF4807105F01CFA2046012295
:101A20004FF4007105F016FA142001F0C7F92046B2
:101A300000224FF4007105F00DFA1420BDE8384083
:101A400001F0BCB9000802400018024010B50022A5
:101A500004464FF48071064805F0FCF92009FFF7B1
:101A6000C1FF04F00F00BDE81040FFF7BBBF00BF8F
:101A70000000024010B40C4B0C4ADC7883B08C425E
:101A80000192024609D8002140F080005A719971F4
:101A900003B05DF8044BFFF7D9BF02A8084410F863
:101AA000040C1044C0B2EFE7500200200040145470
:101AB00010B5012204464FF48071064805F0CAF9BA
:101AC0002009FFF78FFF04F00F00BDE81040FFF77B
:101AD00089BF00BF0000024070B500220D460646D7
:101AE0004FF480713248334C05F0B4F900224FF4C2
:101AF0000071314805F0AEF900224FF480712E4894
:101B000005F0A8F9002280212B4805F0A3F9002256
:101B10004021294805F09EF900228021274805F040
:101B200099F94AF6C87001F049F9012D4FF0000308
:101B30006371A3714FF0030088BF0823637026719F
:101B4000E570FFF74FFF41F2941001F037F90320E1
:101B5000FFF748FF41F2941001F030F90320FFF73E
:101B600041FF41F2941001F029F90220FFF73AFFFA
:101B7000642001F023F9607840F02000FFF766FF51
:101B800004230C202370FFF761FF0120FFF75EFFA5
:101B900040F6B83001F012F902230620A370FFF7D7
:101BA00055FF41F29410BDE8704001F007B900BF45
:101BB00000000240500200200008024000180240CD
:101BC00008B50120FFF742FF40F6B830BDE80840F5
:101BD00001F0F4B870B51546FFF74CFF2B786BB3E6
:101BE000194C00260DE02B780A2B18461AD00D2B25
:101BF00025D0FFF75DFF63790133637115F8013F6D
:101C0000E3B1627923799A42EDD3A3796671013306
:101C1000DBB219460020A371FFF72CFF2B780A2BAB
:101C20001846E4D1A37960790133DBB21946A37178
:101C3000FFF720FF15F8013F002BE2D170BDA1791D
:101C40000020FFF717FFD9E75002002030B583B01E
:101C500002AC0D4D04F8010D00224FF400510B4869
:101C600005F0F8F828460022042105F0F3F8214693
:101C700064230122064806F005FB284601220421C0
:101C800005F0E8F803B030BD00080240000C024047
:101C90005010002030B583B002AC0D4D04F8010D9A
:101CA00001224FF400510B4805F0D4F828460022D9
:101CB000042105F0CFF8214664230122064806F0EE
:101CC000E1FA28460122042105F0C4F803B030BD32
:101CD00000080240000C02405010002010B5002205
:101CE0004FF48051994805F0B5F844F62063013B64
:101CF000FDD101224FF48051944805F0ABF844F631
:101D00002063013BFDD10120FFF7A0FF4CF25034CE
:101D1000013CFDD1CB20FFF799FF3920FFF7BAFF37
:101D20002C20FFF7B7FF2046FFF7B4FF3420FFF762
:101D3000B1FF0220FFF7AEFFCF20FFF787FF20465D
:101D4000FFF7A8FFC120FFF7A5FF3020FFF7A2FF94
:101D5000E820FFF77BFF8520FFF79CFF2046FFF779
:101D600099FF7820FFF796FFEA20FFF76FFF2046E4
:101D7000FFF790FF2046FFF78DFFED20FFF766FF8E
:101D80006420FFF787FF0320FFF784FF1220FFF78F
:101D900081FF8120FFF77EFFF720FFF757FF20200C
:101DA000FFF778FFC020FFF751FF2320FFF772FFF6
:101DB000C120FFF74BFF1020FFF76CFFC520FFF796
:101DC00045FF3E20FFF766FF2820FFF763FFC7208F
:101DD000FFF73CFF8620FFF75DFF3620FFF736FF59
:101DE0004820FFF757FF3A20FFF730FF5520FFF755
:101DF00051FFB120FFF72AFF2046FFF74BFF1820C5
:101E0000FFF748FFB620FFF721FF0820FFF742FF4A
:101E10008220FFF73FFF2720FFF73CFFF220FFF76C
:101E200015FF2046FFF736FF2A20FFF70FFF204659
:101E3000FFF730FF2046FFF72DFF2046FFF72AFF70
:101E4000EF20FFF727FF2B20FFF700FF2046FFF7CB
:101E500021FF2046FFF71EFF0120FFF71BFF3F2059
:101E6000FFF718FF2620FFF7F1FE0120FFF712FF12
:101E7000E020FFF7EBFE0F20FFF70CFF3120FFF70C
:101E800009FF2B20FFF706FF0C20FFF703FF0E20B2
:101E9000FFF700FF0820FFF7FDFE4E20FFF7FAFED8
:101EA000F120FFF7F7FE3720FFF7F4FE0720FFF7DA
:101EB000F1FE1020FFF7EEFE0320FFF7EBFE0E20F1
:101EC000FFF7E8FE0920FFF7E5FE2046FFF7E2FEF8
:101ED000E120FFF7BBFE2046FFF7DCFE0E20FFF7F8
:101EE000D9FE1420FFF7D6FE0320FFF7D3FE112002
:101EF000FFF7D0FE0720FFF7CDFE3120FFF7CAFE27
:101F0000C120FFF7C7FE4820FFF7C4FE0820FFF7F7
:101F1000C1FE0F20FFF7BEFE0C20FFF7BBFE3120F5
:101F2000FFF7B8FE3620FFF7B5FE0F20FFF7B2FE31
:101F30001120FFF78BFE064B013BFDD12920FFF757
:101F400085FE2C20BDE81040FFF780BE000C02404B
:101F500040420F00F8B507462A200D4616461C469B
:101F6000FFF774FE380AFFF795FEF8B2FFF792FE0E
:101F7000300AFFF78FFEF0B2FFF78CFE2B20FFF741
:101F800065FE280AFFF786FEE8B2FFF783FE200A07
:101F9000FFF780FEE0B2BDE8F840FFF77BBE00BF70
:101FA00010B50B4614460246FFF7D4FF2C20FFF76E
:101FB0004DFEC4F30720FFF76DFEE0B2BDE8104010
:101FC000FFF768BE2DE9F04182B00746BDF820401A
:101FD0008DF80540240A0D4616468DF804401C462F
:101FE000FFF7B8FF2C20FFF731FE631B01330022FF
:101FF00004212848DFF8A480F61B06FB033704F011
:1020000029FF01224FF40051234804F023FFD8F8A0
:1020100000301A6822F040021A601A684FF400611A
:1020200042F04002B7F5803FC8F80C101A602DD37B
:102030004FF6FF7401AD464602222946304606F0AF
:1020400091FA013CF8D1A7F57F47FF3F134E0137C6
:102050000124013402222946304606F083FABC42AC
:10206000F7D1012204210B4804F0F4FED8F8003027
:102070001A6822F040021A601A68002142F04002F9
:10208000C8F80C101A6002B0BDE8F081002FE8D04B
:1020900001ADDBE700080240000C024050100020B8
:1020A00000B5074B1A885B8883B0002180B2013AE3
:1020B000009092B20846FFF785FF03B05DF804FB7D
:1020C0001C0C002030B5012283B004210E480F4CB7
:1020D00004F0C0FEFFF702FE0D480E4A00234FF643
:1020E000FF7100914FF4A0751946038013801846C4
:1020F0000122F023238022712B46EF226580FFF717
:1021000061FF03B030BD00BF000802401C0C00207E
:10211000220C0020180C002010B504463620FFF7D2
:1021200095FD74B1012C1CD0022C16D0032C1CD0B0
:10213000104B4FF4A070F0210022188059801A71C2
:1021400010BD5820FFF7A6FD0A4BF0204FF4A071F8
:102150000122188059801A7110BD2820FFF79AFDBE
:10216000E6E78820FFF796FDEEE7E820FFF792FD0F
:10217000DEE700BF1C0C00202DE9F04F2F4FDFF8E9
:10218000C4803880A8F800102D4C93F800E0248813
:1021900093F801C083B000EB0E051E46A54201EB8B
:1021A0000C03DDF8309092469BB208DD9C44002081
:1021B000A8F80030194675461FFA8CF338800D9A3E
:1021C00094B20094AAB2FFF7FDFE72787AB3337826
:1021D0003888AAF1200A19464FF0000B0AFB02B416
:1021E000756835F81450CBB1002403E00134A342E4
:1021F000194612D905FA04F21204F7D5B8F80010FE
:102200002044594480B289B24A46FFF7C9FE337868
:1022100038880134A3421946ECD872780BF1010BCF
:102220005A45DBD80844388003B0BDE8F08F3178D8
:1022300038880844388003B0BDE8F08F180C0020BF
:102240001C0C0020220C00202DE9F04F1B4F1C4ECF
:10225000824610463180A7F800A083B00178DDF8EF
:102260003090DDF834801D464FF0000B441C2B46A7
:102270000A4681B10A2911D00D2905D03888318844
:10228000CDE90098FFF778FF20460178441C2B46E3
:102290000A460029EED103B0BDE8F08F32886B7892
:1022A00001321344338043780D2B06BF841CA7F8FA
:1022B00000B0A7F800A02046E7E700BF180C0020F8
:1022C000220C002030B583B09042069C02D905460E
:1022D00010462A46994202D90D4619462B46A4B209
:1022E0000094FFF76FFE04480122042103B0BDE80B
:1022F000304004F0AFBD00BF00080240014B185C45
:10230000704700BF18000020094B187CFF280BD035
:102310005A7CFE2A09D0074910B4FE2200240C8002
:102320005A745DF8044B70477047FF20704700BF38
:10233000180000205802002010B5012204464FF476
:1023400080511C4804F086FD01222021194804F028
:1023500081FD01224021174804F07CFD01224FF449
:102360000051154804F076FD012C1BD0022C12D030
:10237000032C09D0042C1CD100224FF400510E482C
:10238000BDE8104004F066BD002240210948BDE8C8
:10239000104004F05FBD002220210648BDE8104037
:1023A00004F058BD002210210248BDE8104004F09E
:1023B00051BD10BD00100240000802400020FFF790
:1023C000BBBF00BF10B54FF480710446134804F042
:1023D0003BFD18B912482044C07C10BD80210F4835
:1023E00004F032FD18B90E482044C07D10BD4FF4F2
:1023F00080610C4804F028FD18B909482044C07ECB
:1024000010BD4FF40071054804F01EFD18B90448D2
:102410002044C07F10BDFF2010BD00BF000402405B
:10242000180000200018024008B50120FFF784FFC3
:102430000120FFF7C7FFFF2800D008BD0220FFF7EB
:102440007BFF0220FFF7BEFFFF28F6D10320FFF736
:1024500073FF0320FFF7B6FFFF28EED10420FFF73C
:102460006BFF0420BDE80840FFF7ACBF08B5FFF7DD
:10247000DBFF0D4A0D491388087401339BB2B3F595
:10248000FA7F0ED30023FF28138005D09378013301
:10249000DBB2042B937001D100239370FF234B74A4
:1024A00008BD138008BD00BF58020020180000209E
:1024B000014B9869704700BF5C020020012922D0BF
:1024C00017D3022914D1124B9A691044B0F5801F1A
:1024D00001D3C0F31300C0F31001C0F34B12986195
:1024E000C0F34740C3E90412187783F8200070470F
:1024F0007047074B0022B0F5801FC3E9042283F820
:102500002020E6D2E7E7024BC0F58010F2E700BFDB
:102510005C020020012922D017D3022914D1124BCA
:102520009A681044B0F5801F01D3C0F31300C0F3C4
:102530001001C0F34B129860C0F34740C3E900128A
:10254000187383F8200070477047074B0022B0F5DE
:10255000801FC3E9002283F82020E6D2E7E7024B80
:10256000C0F58010F2E700BF5C020020014B9868C4
:10257000704700BF5C02002038B50C4C0C480D4D74
:10258000002384F82030082102E055F82300118C44
:10259000012204F05FFC94F820300133DBB2072BFA
:1025A00005EB430284F82030EFD938BD5C020020EF
:1025B000001802407CDE00082DE9F041164E174C51
:1025C00096F82030164F04EB430282B08046118CFF
:1025D00054F82300002204F03DFC02A9012501F873
:1025E000015D2A463846642305F04CFE02A92A46BE
:1025F00001F8028D3846642305F044FE96F8203039
:1026000004EB430154F82300098C2A4604F022FC11
:10261000002002B0BDE8F0815C0200207CDE0008F2
:10262000501000202DE9F04182B002AD134C05F8A6
:10263000013D06460F469046294620466423012266
:1026400005F020FE02A9204601F8028D6423012234
:1026500005F018FE02A9204601F8037D642301223B
:1026600005F010FE02A9204601F8046D6423012242
:1026700005F008FE02B0BDE8F08100BF5010002058
:102680002DE9F047DFF878801B4F82B006464020E6
:10269000894692460A9D1C46FFF78EFF98F8203027
:1026A00007EB430257F82300118C002204F0D2FB01
:1026B0005246494630460223FFF7B4FF75B10F4E2C
:1026C000254414F8013B8DF80730012264230DF1F5
:1026D0000701304605F0D6FDAC42F2D198F8203023
:1026E00007EB430257F82300118C012204F0B2FBE0
:1026F000002002B0BDE8F0877CDE0008501000200A
:102700005C0200202DE9F043534CDFF85081236830
:1027100083B007460D464FF0200913F01F0314BF86
:10272000C3F120061E464DB31F2D20786178A27894
:1027300027D9002B41D13B46CDF80090FFF7A0FFF1
:10274000A2682032424588BFC2F31302C2F31003CD
:10275000C2F34B11A260C4E90031C2F3474213F047
:102760001F03A5F1200507F12007227384F820201C
:1027700014BFC3F120061E46002DD5D103B0BDE81D
:10278000F083A3B3AE424CD23B460096FFF778FFEE
:10279000A2683244424588BFC2F31302C2F3100359
:1027A000C2F34B11A260C2F34742AD1B3744C4E9E8
:1027B0000031227384F82020AFE73B460096FFF7F4
:1027C0005FFFA3683344434588BFC3F31303A3608B
:1027D000A268C2F31003C2F34B11C2F3474237445D
:1027E000AD1BC4E90031227384F8202095E70095E1
:1027F0003B46FFF745FFA3681D44B5F5801F28BF82
:10280000C5F31305C5F31002C5F34B13A560C5F35B
:102810004745C4E90023257384F8205003B0BDE880
:10282000F08300953B46FFF72BFFA3681D44B5F5E9
:10283000801F28BFC5F31305A560A368C3F310016B
:10284000C3F34B12C3F34743C4E90012237384F864
:10285000203003B0BDE8F0835C020020FFFF0F00D2
:102860002DE9F047DFF878801B4F82B00646402004
:10287000894692460A9D1C46FFF79EFE98F8203036
:1028800007EB430257F82300118C002204F0E2FA10
:102890005246494630460323FFF7C4FE75B10F4E3A
:1028A0002544642301220DF10701304605F09EFD09
:1028B0009DF8073004F8013BAC42F2D198F8203083
:1028C00007EB430257F82300118C012204F0C2FAEF
:1028D000002002B0BDE8F0877CDE00085010002028
:1028E0005C0200202DE9F043534CDFF8508123694E
:1028F00083B007460D464FF0200913F01F0314BFA5
:10290000C3F120061E464DB31F2D207C617CA27CA6
:1029100027D9002B41D13B46CDF80090FFF7A0FF0F
:10292000A2692032424588BFC2F31302C2F31003EA
:10293000C2F34B11A261C4E90431C2F3474213F060
:102940001F03A5F1200507F12007227784F8202036
:1029500014BFC3F120061E46002DD5D103B0BDE83B
:10296000F083A3B3AE424CD23B460096FFF778FF0C
:10297000A2693244424588BFC2F31302C2F3100376
:10298000C2F34B11A261C2F34742AD1B3744C4E905
:102990000431227784F82020AFE73B460096FFF70A
:1029A0005FFFA3693344434588BFC3F31303A361A7
:1029B000A269C2F31003C2F34B11C2F3474237447A
:1029C000AD1BC4E90431227784F8202095E70095F7
:1029D0003B46FFF745FFA3691D44B5F5801F28BF9F
:1029E000C5F31305C5F31002C5F34B13A561C5F379
:1029F0004745C4E90423257784F8205003B0BDE897
:102A0000F08300953B46FFF72BFFA3691D44B5F506
:102A1000801F28BFC5F31305A561A369C3F3100187
:102A2000C3F34B12C3F34743C4E90412237784F87A
:102A3000203003B0BDE8F0835C020020FFFF0F00F0
:102A400010B5064C406C21460A2207F017FE2246BC
:102A500001210020BDE81040FFF7BCB86C0C00203D
:102A6000454B02689A4200D0704710B503F0B0FCA5
:102A70003E287ED8DFE800F0797979797D7D7D7D0B
:102A80007D757575757D7D7D7D7D717171717D7DC6
:102A90007D6D6D6D6D7D7D69696969656565657D56
:102AA0006161617D5D5D5D59595955555551514D76
:102AB0004D45453D3D312000304C10232360FFF74C
:102AC0007FF820682E490A2207F0D8FD0021084629
:102AD0002B4ABDE81040FFF77DB82A4B274C1A79E6
:102AE000012A4FF00F010CBF0322012221601A714D
:102AF000E5E7244A214C136C0E2101331364216055
:102B0000DDE7204A1D4C136C0D21013B136421604D
:102B1000D5E71A4C0C232360D1E7184C0B23236014
:102B2000CDE7164C0A232360C9E7144C0923236020
:102B3000C5E7124C08232360C1E7104C072323602C
:102B4000BDE70E4C06232360B9E70C4C0523236038
:102B5000B5E70A4C04232360B1E7084C0323236044
:102B6000ADE7064C02232360A9E7044C0123236050
:102B7000A5E7024B186010BD00200140A002002014
:102B80006C0C0020E80F002030B5194B194A1A6070
:102B90004FF040714FF4803285B04FF080554FF0C8
:102BA00070645A609960002201211846C3E90A4501
:102BB0001A619A611A62DA601A63D961596103F085
:102BC0002BFA80B90424012207236946084802939E
:102BD000CDE9004203F098FC18B1CC21064801F081
:102BE0003BFF05B030BDC221034801F035FFE9E7E6
:102BF000740C002000200140ECDE000830B5174BBB
:102C0000174A184C1A604FF48031002285B04FF0FB
:102C100040755960184601219D609C621A619A6155
:102C20001A62DA62DA601A63D961596103F0F4F961
:102C300078B901230222694608480292CDE900339F
:102C400003F062FC18B1EF21074801F005FF05B061
:102C500030BDE521044801F0FFFEEAE7240C002026
:102C6000002101400100000FECDE000830B5184BD8
:102C7000184A194C1A604FF48031002285B04FF089
:102C800040755960184601219D609C621A619A61E5
:102C90001A62DA62DA601A63D961596103F0BCF929
:102CA00080B902230122694609480093CDE9012336
:102CB00003F02AFC20B14FF48971084801F0CCFEE2
:102CC00005B030BD4FF48471044801F0C5FEE8E75B
:102CD000BC0C0020002201400100000FECDE0008C7
:102CE00030B50368304A934289B007D02F4A9342E7
:102CF00047D02F4A934225D009B030BD00242D4B38
:102D000000945A6C2C4842F480725A645B6C0594AF
:102D100003F4807300931025032303A9CDE9035323
:102D2000009A03F053FF22462146122003F0ACFC28
:102D3000122003F0DFFC224629461F4804F08AF8DF
:102D400009B030BD1B4B1C48002402945A6C42F45D
:102D500080625A645B6C059403F480630293029D65
:102D60000422032303A9CDE9032303F02FFF224606
:102D70002146122003F088FC122003F0BBFC09B0AE
:102D800030BD0C4B0C48002401945A6C42F4007284
:102D90005A645B6C059403F40073019302220323CD
:102DA00003A9019DDFE700BF002001400021014091
:102DB00000220140003802400000024070B5084C7B
:102DC0000546666804F0DCFF064BA3FB0030800C70
:102DD000224605FB00F553689B1BAB42FBD370BD3D
:102DE000001000E083DE1B4330B583B00D4C8DF83E
:102DF0000700656804F0C4FF0B4BA3FB0030800C98
:102E00000A21224601FB00F153685B1B8B42FBD376
:102E10000A2301220DF10701044805F033FA03B03B
:102E200030BD00BF001000E083DE1B43081100200E
:102E300070B50D4C002206460D4620464FF48061C9
:102E400004F008F846F05000FFF7CEFF0020FFF72F
:102E5000CBFF2846FFF7C8FF204601224FF48061D0
:102E6000BDE8704003F0F6BF0008024030B5002214
:102E70004FF4806183B005461648174C03F0EAFF13
:102E800045F01000FFF7B0FF0020FFF7ADFF6568C9
:102E900004F076FF114BA3FB0030800C0A21224680
:102EA00001FB00F153685B1B8B42FBD302A900239B
:102EB00001F8013D01220A23094805F097FA054867
:102EC0009DF8074001224FF4806103F0C3FF2046C4
:102ED00003B030BD00080240001000E083DE1B4359
:102EE0000811002038B5094C0546002220464FF451
:102EF000806103F0AFFF2846FFF776FF20460122EE
:102F00004FF48061BDE8384003F0A4BF00080240E0
:102F100030B101280CD0022806D003280BD070470E
:102F200001210846FFF784BF45210120FFF780BF3C
:102F30002321FFF77DBF67210120FFF779BF00BF85
:102F400038B5064C064D01E0013C05D00421284669
:102F500003F07AFF0028F7D138BD00BF801A0600C1
:102F6000000C02401C4B70B505460E461870597097
:102F7000FFF7E6FF194B1A489E5D1A4C00224FF4EA
:102F8000806103F067FF5020FFF72EFF0320FFF75B
:102F90002BFF0620FFF728FF0820FFF725FF284614
:102FA000FFF722FF3046FFF71FFF01224FF4806139
:102FB0000B4803F04FFF656804F0E2FE0A4BA3FBE9
:102FC0000030800C3221224601FB00F153685B1B6C
:102FD0008B42FBD370BD00BFF00B0020ACDE0008BD
:102FE00000080240001000E083DE1B4308B5FFF735
:102FF000A7FF0020FFF73AFFC0F3071008BD00BF8E
:10300000F0B500224FF4806183B02648264C03F0CF
:1030100021FF0120FFF7E8FE656804F0B1FE234BB5
:10302000A3FB0030800C0A21224601FB00F153680B
:103030005B1B8B42FBD302AC002604F8016D1C4DD8
:103040001C4821460A23012205F0D0F99DF807709B
:1030500018488DF8076021460A2301222F7005F0D9
:10306000C5F99DF807306B7021460A2301221148EB
:103070008DF8076005F0BAF96B782A789DF807405B
:10308000AC701B0243EA02431C43064801224FF482
:10309000806103F0DFFE230248BF44F07F442046F6
:1030A00003B0F0BD00080240001000E083DE1B43C7
:1030B000A40200200811002030B5104C83B00B464C
:1030C0008DF804000D0A2046012220218DF80630DB
:1030D0008DF8055003F0BEFE20460022202103F0AB
:1030E000B9FE642301A90322054805F0CBF8204668
:1030F0000122202103F0AEFE03B030BD000C0240DF
:1031000008110020F0B51C4C1C4E83B0002503466E
:103110004FEA102C0F0A20468DF802302A4634233D
:103120008DF8051020218DF801C08DF803308DF841
:1031300004708DF8005003F08DFE6423694630461C
:10314000032205F09FF820460122202103F082FE91
:103150002A462046202103F07DFE03220DEB0201CA
:103160006423304605F08EF820460122202103F02A
:1031700071FE03B0F0BD00BF000C0240081100203A
:1031800030B5114B83B0DB78ADF806000BB903B056
:1031900030BD0E4D28680C46012200F150400DF163
:1031A000060102F097F92B68A26802330132B3F5E9
:1031B000000FA26002D02B6003B030BD002363601B
:1031C0002B6000F0B7FDE2E7E80F0020AC02002022
:1031D000414BDB7803B9704770B5404E0546306807
:1031E00082B00C46012200F150400DF1060102F0C0
:1031F00069F9BDF906305A1912B2A282A381626838
:10320000013262602278120715D507EE905AD4ED8C
:10321000066A94ED066A07EE103AF8EEE77AB8EE21
:10322000C77A67EE867AE6EE877AFDEEE77A17EEE2
:10323000903A1BB2A382A38A22691BB2934210DC8C
:103240002278C2F3001222BB6268A3689A420CD0B3
:1032500033680233B3F5000F08BF0023336002B0B8
:1032600070BDA38A1BB22361EAE72378DB0618D47A
:1032700023784FF07E526FF3C3032370A2610023C3
:1032800043F6FF7222616360336000F053FD02B0C9
:1032900070BD306804F1140100F1504002F01AF9D9
:1032A000D2E72369B3F5804FE2DB237843F00803CC
:1032B00023702069FDF7EEF802460B4604A1D1E920
:1032C0000001FDF77BFAFDF761FBA061D7E700BFC6
:1032D0000000000080FFCF40E80F0020AC0200207B
:1032E00003461020998901F57F513F3189B2FFF7DC
:1032F000E3BE00BF2DE9F043394E85B0F378ADF859
:1033000006004BB10D78C5F3400517460C4635B99C
:103310001578C5F340058DBB05B0BDE8F083DFF837
:10332000C480D8F800002A4600F150400DF1060193
:1033300002F0D0F8D8F8000000F150402A460230E0
:103340000DF10E0102F0BEF8A368BDF90E200133A5
:10335000A360BA81D8F80030A168BA6804339142FA
:10336000C8F8003026D0B3F5000FD5D10023636034
:103370007B60C8F8003000F0DDFCCDE7DFF864804A
:10338000D8F8000000F1504002302A460DF1060145
:1033900002F0A0F8D8F800002A4600F150400DF1E4
:1033A0000E0102F08FF8BB68BDF90E200133BB603F
:1033B000A281CFE700252846F57001F0D7FE012055
:1033C000814601F0E1FE86F80190357065607D6010
:1033D000C8F8005000F0AEFC86F803909CE700BFF0
:1033E000E80F0020AC02002003789A0709D40B787C
:1033F0009B0713D403789A0716D40B789B071BD42A
:1034000070478B68002BF2D08389898943F6FF705F
:103410000144184489B280B2FFF774BE8368002B60
:10342000F2D103789A07E8D5818901F57F513F31C0
:1034300089B21020FFF740BE898901F57F513F31E5
:1034400089B22420FFF738BE574BDB7803B97047A9
:10345000F0B5564F0646386883B00C46154600F165
:103460005040012201A902F025F823789A074CD494
:103470002B789B0701D403B0F0BDBDF90610BDF950
:1034800004208B191BB2AB822346A981A2812C4652
:103490001D466368013363606968AB68994202D274
:1034A0006B6801336B602378180715D507EE906AB7
:1034B000D4ED066A94ED066AF8EEE77A07EE102A74
:1034C00067EE867AB8EEC77AE6EE877AFDEEE77A9F
:1034D00017EE903A1BB2A382A38A22691BB29342D1
:1034E00002DDA38A1BB223612278C2F300124ABB19
:1034F0006268A3689A4212D03B680433B3F5000FA8
:1035000008BF00233B6003B0F0BDBDF90420BDF946
:10351000061093191BB2A382A281A981B9E723786F
:10352000DB061FD423784FF07E526FF3C303237062
:10353000A261002343F6FF72226163603B6000F0EA
:10354000F9FB98E72378D90722D5227812F00102F7
:10355000CED0386800F15040023004F1140101F07F
:10356000B9FFC5E72369B3F5804FDBDB237843F070
:10357000080323702069FCF78DFF02460B4608A163
:10358000D1E90001FDF71AF9FDF700FAA061D0E7D3
:10359000386804F1140100F1504001F09BFFA7E7E7
:1035A0000000000080FFCF40E80F0020AC020020A8
:1035B000134B1A7A6FF3C30210B41A7293F82420D3
:1035C0006FF3C30283F824201A7A6FF304121A727D
:1035D00093F82410002243F6FF744FF07E506FF3EF
:1035E000041183F824109C615C6318625DF8044B3D
:1035F000D863DA609A621A61DA629A821A86704730
:10360000E80F002010B50E480E4B036082B003F0A7
:10361000B7F878B90C240023102269460848CDE990
:10362000004303F0C3F818B15221074801F014FA1F
:1036300002B010BD4921044801F00EFAEAE700BFCC
:10364000080D00200074004020DF0008214B0268B4
:103650009A4200D0704770B586B0002603F5E23379
:1036600000961A6C1C4C42F000521A641B6C0396B4
:1036700003F000530093202203230099019201A933
:1036800005461648029303F0A1FA154820604FF052
:10369000606140224FF480634FF400606160A2607B
:1036A0004FF400514FF48072236160614FF4003396
:1036B0002046E6606662C4E90612236203F09AF8C7
:1036C00018B9EC60A56306B070BD7921054801F01A
:1036D000C3F9F6E7007400401C0D00200000024012
:1036E000A060024020DF000810B582B0184B002413
:1036F00000941A6B42F400121A631A6B02F400125F
:103700000092009A01941A6B42F480021A631B6BB8
:1037100003F480030193022201211120019B02F096
:10372000B3FF112002F0E6FF224603213B2002F006
:10373000ABFF3B2002F0DEFF022203213C2002F01F
:10374000A3FF3C2002B0BDE8104002F0D3BF00BF91
:10375000003802402DE9F04F734BDFF800B200242F
:1037600089B0214620461C708BF80040FEF7A6FE6B
:103770000C2105A8FFF7B6F8DDF81890B9F1000F95
:1037800055D0079B302B45D84FEA490006F00AFE7A
:103790000390002848D0654EDFF8A8813546824660
:1037A00000E03C46FEF784FE10214AF8340028462B
:1037B000FFF798F83368716801FB03F101EB8101B1
:1037C0004046671CFFF78EF8B945EAD1039BDFF846
:1037D00090811868DFF88091DFF858A10021FEF78A
:1037E0006DFE0025FEF790FD88F800000628F9D848
:1037F00001A353F820F000BF29380008E53700087E
:10380000E5370008E53700084D3B00088938000817
:103810004938000840F21D53CDE90043444A454B66
:1038200064210A20FEF710FD09B0BDE8F08F40F2D8
:103830001D53CDE90093404A3E4B64210A20FEF718
:1038400003FD09B0BDE8F08FA5424FF0000105F17E
:10385000010202D2AB1C15461A46039B029253F892
:103860003500FEF72BFE029A3449484606F08EFEDC
:10387000002340F21D52CDE90032642153464A46EE
:103880000A20FEF7E1FCADE7102128482C4CDFF8B8
:10389000D480DFF8D4A0FFF725F8D6F808C0336845
:1038A0007168284801FB03F1216033684EF66022FD
:1038B000B2FBFCF203FB02F3636061682268B1FBB8
:1038C000F2F302FB1313A36063682268B3FBF2F305
:1038D000E360216801EB8101FFF704F81A4A1B4BF2
:1038E0001B484FF00009A2F80090C3F8009004F0C4
:1038F000E5FE0A214AF25423084600934FF4F07281
:103900003023FEF7DFFC40F21D530A21CDE900937E
:103910000846084B0F4ADFF85490FEF795FC012348
:1039200088F80430A1E000BF7C0D0020900E00203C
:1039300068DF00080800002054DF0008A0DF00084E
:10394000B00E0020C00E00201E0B0020B00F002083
:10395000741200208CDF00082C100020740E002050
:103960004F100020E80F0020A00E0020780E00204D
:10397000B068D8F84030D6F800C072689E4902FBA3
:103980000CF222600C609D4A3168166003444EF6CA
:103990006022B2FBF3F301FB03F36360606821680C
:1039A000B0FBF1F301FB13039549A36095486368ED
:1039B0000860BD4221680292B3FBF1F3E36032D0AC
:1039C00010215046FEF78EFFDAF80800DAF80010F2
:1039D000DAF80430029AB2FBF0F203FB01F3C9F803
:1039E0000030DAF80030884803FB02F2C9F80420FE
:1039F000D9F80410D9F80020B1FBF2F302FB13133D
:103A0000C9F80830D9F80430D9F80020B3FBF2F334
:103A1000C9F80C30D9F8001001EB8101FEF762FF04
:103A20007A4A012313702A4679497A4806F0AEFD96
:103A3000002340F21D52CDE900326421764B754AD5
:103A40000A20FEF701FC98F80430012B03D098F807
:103A50000430032B03D19BF80030002BF3D000235C
:103A6000BD428BF8003000F0928098F80430012BB2
:103A700003D098F80430032B74D1BD4272D298F869
:103A80000430032BFBD0614B1B780135002B3FF436
:103A90006FAFDAF80800D8F840C0DAF80010DAF8AA
:103AA0000420554B02FB01F2C9F80020DAF800109F
:103AB000C3F80090514B4EF66022C3F800A00CEB07
:103AC0000003B2FBF3F301FB03F3C9F80430D9F8A8
:103AD0000400D9F80010B0FBF1F301FB13034849CF
:103AE000C9F808304848D9F804300860BD42D9F810
:103AF00000100292B3FBF1F3C9F80C3093D01021FF
:103B00004648FEF7EFFEB06831687368029AB2FB70
:103B1000F0F203FB01F3236033683A4803FB02F23F
:103B2000626061682268B1FBF2F302FB1313A360C9
:103B300063682268B3FBF2F3E360216801EB810163
:103B4000FEF7D0FE314A002313706CE7691E002D8A
:103B50004ED0039B2A4603EBC1030D46029200217F
:103B600018687EE600242E4888F8044004F0B2FD70
:103B70006420FDF71BFF039888F8034088F8014094
:103B800088F8004009B0BDE8F04F06F013BC039A76
:103B9000029310681D4A194613708BF80030FEF727
:103BA0008DFC10211D48FEF79DFEB56832687068D7
:103BB00000FB02F02060326812484EF66021B1FB33
:103BC000F5F102FB01F2626065682168B5FBF1F274
:103BD00001FB1252A26062682168B2FBF1F2E2605E
:103BE000216801EB8101FEF77DFE029B1D463CE74B
:103BF0000122039BB2E700BF700E0020880E002058
:103C00008C0E0020C00E0020800D00207C0D0020B6
:103C1000A0DF00082C10002008000020900E0020DB
:103C20007412002008B5054B054800221A7104F0F3
:103C300051FD6420BDE80840FDF7B8BEE80F002044
:103C4000741200202DE9F04182B000F003FDC0F3B2
:103C50000743C0F307218DF804008DF806308DF876
:103C6000051023B12D4D2B79DBB2012B02D002B010
:103C7000BDE8F0812A4A2B4E12683188506888428C
:103C80003CD9338891689BB241B3274F3C68052CDF
:103C900024D1D16892680A44B3FBF2F102FB1133DC
:103CA000BBB9DFF88C80D8F80020115D013419B160
:103CB0002879C0B2012828D03B680433A342F4D845
:103CC000115D19B12879C0B2012823D03B680533B2
:103CD0003B60338801339BB23380C8E7D168B3FBC4
:103CE000F1F201FB1233002BF3D10F4FDFF84080CC
:103CF0003C68D8F80020631DD7D9E1E70B490A4A90
:103D00000B70002313603380B1E701F0B9F8D8F8E5
:103D10000020D1E701F0BEF8D8E700BFE80F00208F
:103D2000700E00201E0B0020B00F0020740E00202B
:103D30008C0E00200249034A00230B801360704759
:103D40001E0B0020B00F002030B5124B124A1A6033
:103D500089B001220421002480255A60D9601022F4
:103D6000184669449D619C60C3E90444C3E9074463
:103D7000C3E90944CDE90122CDE90322CDE90522B9
:103D8000079204F023F818B15A21044800F064FEA9
:103D900009B030BDB40F0020400100A0A8DF00082A
:103DA0002DE9F0412D4B1C6886B014B106B0BDE87A
:103DB000F0814FF001082A4A0094C3F80080936B09
:103DC000284843EA08039363936B039403EA0803C8
:103DD000022703260C25009301A94FF63F03009A02
:103DE000CDE90137CDE9046502F0F0FE01A91E48D6
:103DF0000394CDE90187CDE9046502F0E7FE01A94E
:103E000048F23313194801930297CDE904650394EE
:103E100002F0DCFE01A94FF6837315480193029767
:103E2000CDE90465039402F0D1FE01A94CF20373BD
:103E3000104801930297CDE90465039402F0C6FE91
:103E4000602301A90C480297CDE90465039401930E
:103E500002F0BCFE06B0BDE8F08100BFB002002059
:103E600000380240001402400008024000180240DE
:103E700000100240000C0240000402402DE9F04F07
:103E80008FB00024BF4B01941A6BDFF810B3DFF83A
:103E900010A3DFF81093DFF81083BB4F42F010023D
:103EA0001A631A6B02F010020192019A02941A6BC3
:103EB00042F004021A631A6B02F004020292029AA0
:103EC00003941A6B42F020021A631A6B02F020026C
:103ED0000392039A04941A6B42F080021A631A6BDD
:103EE00002F080020492049A05941A6B42F00102D7
:103EF0001A631A6B02F001020592059A06941A6B76
:103F000042F002021A631A6B02F002020692069A4B
:103F100007941A6B42F040021A631A6B02F04002D7
:103F20000792079A08941A6B42F008021A631B6BF7
:103F300003F008030893584601220C21089B02F065
:103F400089FF22465846702102F084FF22465046DF
:103F500042F2160102F07EFF504601224FF4F96151
:103F600002F078FF484601224FF4A47102F072FF7C
:103F700022464846802102F06DFF8448012240F22B
:103F8000034102F067FF2246404643F2200102F05F
:103F900061FF2246384647F20C0102F05BFF3846CB
:103FA0000122802102F056FF0122404618210125FE
:103FB00002F050FF0226584609A90423CDE909352D
:103FC0000B940C9602F002FE09A9584608230993A7
:103FD000CDE90A540C9502F0F9FD584609A9702361
:103FE0000993CDE90A540C9402F0F0FD09A950465A
:103FF00042F216030993CDE90A540C9402F0E6FD4F
:104000004FF4886309A909936148624B0A930B94A2
:1040100002F0DCFD09A950464FF481630993CDE914
:104020000A540C9602F0D2FD482309A94846099388
:10403000CDE90A540C9602F0C9FD09A94846802230
:104040000992CDE90A540C9402F0C0FD524B0B9436
:10405000202209A95046CDE9092302F0B7FD40F21C
:10406000034309A949480993CDE90A540C9602F083
:10407000ADFD09A9042245480B944FF4006BCDE92E
:10408000092402F0A3FD0E2209A940480D92CDE9B2
:104090000A640C94CDF824B002F098FD09A94046BA
:1040A000CDE909B40B9402F091FD09A9404643F211
:1040B00020030993CDE90A540C9402F087FD47F2DE
:1040C0000C0309A938460993CDE90A540C9402F06F
:1040D0007DFD0E2209A938460D9240220992CDE9B4
:1040E0000A640C9402F072FD802209A93846CDE9D9
:1040F0000925CDE90B4502F069FD504609A94FF4A9
:1041000070730993CDE90A540C9502F05FFD09A97B
:1041100048464FF480734FF00A0A0993CDE90A54D8
:104120000C9502F053FD09A948464FF4C05309937A
:10413000CDE90A640C96CDF834A002F047FD48465C
:1041400009A94FF400430993CDE90A4502F03EFD69
:10415000104B0B9509A940460422CDE9092302F032
:1041600035FD09A9404618220992CDE90A540C965A
:1041700002F02CFD402209A9404609920E220D9220
:1041800014E000BF00380240001802400004024062
:104190000014024000002110000012100010024024
:1041A0000008024000000240000C0240CDE90A6411
:1041B0000C9402F00BFD2D4B0B94404609A9802274
:1041C000CDE9092302F002FD284A09A938464FF437
:1041D0000073CDE90A24099302F0F8FC09A93846D6
:1041E0004FF480630993CDE90A4502F0EFFC204BC0
:1041F000CDF824B0384609A9CDE90A3402F0E6FC2E
:104200001A4A1C48102309A9CDE90A24099302F08F
:10421000DDFC4FF4607309A916480993CDE90A45FE
:1042200002F0D4FC2A462146082002F02DFA08208C
:1042300002F060FA31465046032202F025FA504659
:1042400002F058FA31460322172002F01DFA172017
:1042500002F050FA2A462146282002F015FA2820BA
:1042600002F048FA0FB0BDE8F08F00BF0000211047
:104270000000111000040240402838B500F0E6802C
:1042800008D9B0F5007F69D0B0F5004F3FD0802845
:1042900045D038BD042800F0A98010281ED0012880
:1042A000F7D1C34C002323716371FFF743FDFFF780
:1042B0007FF92378012B02D06378012BE9D1002507
:1042C00025706570E5702571FFF7ACFC012000F0EA
:1042D0005BFF2846BDE8384000F056BFB5490B7873
:1042E00013F00802D5D1B24CE270627943F00803B2
:1042F000013A0B70082ACCD8DFE812F011013A011C
:10430000110131010801FF000801F6000801A84B66
:104310001A79012A0CBF032201221A7138BDA54A5D
:10432000137813F00400B4D1A1490C7A43F00403CC
:104330001370A20700F1CD8091F824309B07A8D517
:1043400091F8243013F0100F91F824300CBF43F093
:10435000100360F3041381F8243038BD944C637863
:10436000012B96D0236913B9E36A002B91D0914AAF
:10437000137813F002018CD18F4843F002031370BD
:104380000160FFF7D7FC2379022B04BF01232371BF
:104390000023E370E360A362227A900708D5227AB3
:1043A00063F3C3022272227A63F304122272A3829D
:1043B00094F8243099070DD594F824306FF3C30393
:1043C00084F8243094F8243000226FF3041384F826
:1043D00024302286002000F0C9FE012000F0D4FE27
:1043E0000123002222706370E37038BD704CE378C3
:1043F000002B3FF44EAFFEF703FE63786F4D40F3A2
:104400000F20012B288000F0E9802378012B7FF416
:1044100040AF6379012B00F012816379052B00F026
:104420000E816379022B03D06379032B7FF431AFC4
:10443000634AB5F90000A2F11C01FEF75BFF604979
:10444000BDE83840A1F11C00FEF7CEBF584C2378E0
:10445000012B3FF41EAF574A137813F001057FF488
:1044600018AF5549E57043F0010313700D60FFF775
:1044700061FC04F1240104F10800FFF799F8237AA4
:104480009B0700F1C38094F8243065F3C30384F8DC
:10449000243094F8243043F6FF7165F304134FF091
:1044A0007E5284F824306163E263A562E56225866A
:1044B000012000F05BFE002000F066FE2379022B55
:1044C00004BF012323710022012323706270E37073
:1044D00038BD0B7A13F0100F0B7A0CBF43F01003AA
:1044E00060F304130B7238BD092300216371084681
:1044F000344ABDE83840FDF76DBB072300216371E6
:104500000846314ABDE83840FDF764BB012300216D
:10451000637108462D4ABDE83840FDF75BBB0223B6
:104520006371237A43F00203237294F824306FF30B
:10453000410384F82430237A43F00403237294F86F
:10454000243000206FF3820384F82430FEF7E0FC6F
:10455000002108461E4ABDE83840FDF73BBB052355
:104560000021637108461B4ABDE83840FDF732BBA5
:1045700003236371237A6FF34103237294F8243089
:1045800043F0020384F82430237A6FF3820323720A
:1045900094F82430012043F0040384F82430FEF71B
:1045A000B7FC002108460C4ABDE83840FDF712BBB5
:1045B000E80F0020390A0020AC020020040D002082
:1045C0000C10002040E000082CE0000818E0000873
:1045D000DCDF000804E00008F0DF00086379012B4D
:1045E00026D06379052B23D06379022B03D063791E
:1045F000032B7FF40AAF154AA2F11C01FEF724FF3A
:104600001249A1F11C00FEF7EFFEFEE6237A65F3E6
:10461000C3032372237A43F6FF7165F304134FF04B
:104620007E522372A1612262E5602561A5823FE787
:104630000749FEF7CDFD0648FEF752FEE5E6B5F95F
:1046400000000349BDE83840FEF79ABD0C10002079
:10465000F00F002030B54FF47A7183B0144801F0A8
:10466000F5FDE0B14FF47A71124801F0EFFD30B979
:10467000104801F0ADFEC4B20E4801F07BFD4FF4CE
:1046800000410D4802F0E0FB002365F30703C0B2D0
:1046900064F30F2360F31743184603B030BD04489A
:1046A00001F096FEC5B2024801F064FDDAE700BFF2
:1046B000240C0020BC0C002000000240FCF7CEBC03
:1046C00008B513468AB201461846FCF759FD00208A
:1046D00008BD00BF08B513468AB201461846FCF76C
:1046E0007FFB002008BD00BF70B594B00020284AB1
:1046F0000190116C274B41F080511164126C02F053
:1047000080520192019A02901A6842F440421A6063
:104710001B6803F4404302934FF4803001230224CA
:104720004FF480010425A82208930990072308A8C4
:10473000029E0E941294CDE90F151192139303F07B
:1047400095F800B1FEE74FF4A0524FF48053059066
:104750000F26052103A804940396CDE9062303F050
:1047600075FA044600B1FEE703F00AFB4FF47A73D2
:10477000B0FBF3F001F0D8FF284601F0EFFF22462E
:1047800021464FF0FF3001F07FFF14B070BD00BF35
:10479000003802400070004079497A4BCA682DE920
:1047A000F04142F080720026CA605E601A68764C62
:1047B000764D774F42F001028CB01A604FF001083D
:1047C00084F8058001F00EFC237A43F00203237283
:1047D000237A43F00403237294F8243066F34103F0
:1047E00084F8243094F8243043F0040384F824300F
:1047F000237A66F30003237294F8243043EA080313
:1048000084F824302664FFF76FFFFFF737FBFEF7CD
:104810006BFF00F05DFFFFF797FA00F091FF00F0EB
:1048200071FB01F0A1F8FEF7AFF900F093FBFEF782
:10483000E9FE00F0BFFF01F0E1F800F0F5FFFEF740
:10484000DDF9FEF713FAFCF7C3FA4FF49061029119
:10485000802100914FF00071CDE907164FF48031AF
:10486000CDE909114FF480710B914A4904914A49ED
:104870000591A5F540734949019503F1800203F5BF
:1048800020700691039604A9FCF76EFE0146444889
:10489000444C05F053FE00F011FD082001F036FFF6
:1048A000FDF710FC0220FDF737FC4AF25420FDF71B
:1048B000F7FB3D4803F002FF304600F01BFC40468A
:1048C00000F018FC4146304600F06CFC374803F01D
:1048D000F5FE374801F00AFD364801F04BFC36483A
:1048E00001F048FCFE20FEF7FDFA0F20FEF7FAFA71
:1048F000FEF77CFB41464046FEF734FB3046FEF7B0
:1049000007FBF020FEF7EEFA082001F0F3FE03208B
:10491000FEF7E8FAFDF752FD00F096FA42463146FE
:10492000B02000F069FA04211420FDF7D5F8FDF756
:1049300047F931463046214AFDF74CF9FDF71CFE98
:1049400000F02AF9304600F087F9A5F540750FE030
:10495000387885F88067FF2801D000F07DF9FFF7EF
:1049600079FEC0F30722C0F3074320706270A37082
:1049700095F88037002BEBD1FDF7C6FC3870E8E7DF
:10498000F0ED00E0001000E0E80F0020B805002086
:104990004F100020D5460008C1460008BD4600085B
:1049A00054E000084C10002038120020FC110020B8
:1049B000740C0020240C0020BC0C002064E00008D3
:1049C00010B5204C94F88137D8072ED499071ED4FF
:1049D0005A070FD41B0700D410BD10211A4802F04B
:1049E00033FA0128F8D194F8813783F0080384F86A
:1049F000813710BD8021154802F026FA94F88137DE
:104A0000012804BF83F0040384F88137E2E74FF400
:104A100000710F4802F018FA94F88137012804BF9A
:104A200083F0020384F88137D2E74021094802F07D
:104A30000BFA94F88137012804BF83F0010384F84E
:104A40008137C3E7B802002000040240000C024096
:104A50000018024000140240FEE700BF2DE9F04FAD
:104A60003E4B3F4EDFF828813E4A3F4C3F4D0027EA
:104A700083B0384601211F70776188F80070FDF718
:104A8000A9F839463846FDF745FD384600F06EFB7B
:104A9000B94603E02978C9B2012918D0FDF734FCE2
:104AA00020700028F6D1002000F06EFB0A22304969
:104AB000706905F0E3FD7369BB420CBF2D4A2E4AB5
:104AC0000121002003B0BDE8F04FFDF783B8DFF807
:104AD000C4B04FF0000AB9F1000F38D098F8009038
:104AE000264B274985F800A099444846042205F042
:104AF00075FD0028D7D0DBF800104846FDF702FE10
:104B00007269DBF800301F49194803EB020C62465A
:104B10003B46C6F814C005F039FD40F21D53CDE9FF
:104B200000A3134A184B50210A20FDF78DFB73692F
:104B3000BB42B8D298F800304033DBB2802B14BFB0
:104B400088F8003088F800A04FF00109A6E70B4B69
:104B50000E4A1F684846FDF73DF8BFE720160020C3
:104B60003C0A0020A4E000084F100020141500208B
:104B70002C100020D8E00008ECE000085C150020B4
:104B8000C8E00008D0E0000808000020B4E00008F9
:104B900058150020DC15002038B5244C244DB622D1
:104BA0004FF0FF31A01D05F018FC224A224823498E
:104BB000234B2260A061234A2348E16223492563F5
:104BC0006364234D234BA264206604220520A16761
:104BD0000621C4F89050C4F8A83007250023627756
:104BE000A0770122022084F83510032184F84D506B
:104BF00084F8C03023716361E3656367C4F88C3067
:104C0000C4F8A430C4F8BC30237784F8343084F876
:104C10004C30627184F8642084F87C20A07184F8A0
:104C20009400E17284F8AC1038BD00BF540A002033
:104C30001CE1000800E100080CE10008494D0008F3
:104C4000694D000828E1000834E1000840E100084F
:104C50004CE1000858E100080F2866D82DE9F0471C
:104C6000344C94F8C03003EB430304EBC303184403
:104C700082B090F904305A1C54D0DBB203EB4302EB
:104C80002D4854F8321084F8C03005F09FFCFCF732
:104C900097FF4AF25420FDF703FA00210846264AFE
:104CA000FCF798FF94F8C03003EB430304EBC30315
:104CB0005D6925B12B4602B0BDE8F04718474AF2BE
:104CC0005420FDF7EDF9DFF874901B4FDFF870808A
:104CD0000A2694F8C03003EB430304EBC3032B44D0
:104CE000E8B293F9043003EB4302013317D0EDB17E
:104CF00054F832A0FDF702FB5346024649463846B7
:104D000005F044FC002340F21D52CDE9003231464B
:104D100043463A460A20FDF797FA1436B6B20135F3
:104D2000102DD6D102B0BDE8F0877047DFF814A08F
:104D3000E0E700BF540A00202C1000206CE10008BE
:104D40000800002064E1000810B5054C0A236371D7
:104D5000FFF784FE034B0021012261711A7010BD20
:104D6000E80F0020380A0020F0B51B4D1B4F1C4AED
:104D7000ADF50D7D00244FF0020C40F21D560A21C6
:104D80002B46CDE90046084687F804C0FDF75CFADB
:104D90002B46CDE90046134A1E210A20FDF754FA9E
:104DA0002B46CDE90046104A32210A20FDF74CFA85
:104DB0002B460E4A4621CDE900460A20FDF744FA6B
:104DC00003A8FEF7C7FC0A490A4B3C7101220C708C
:104DD0001A700DF50D7DF0BD08000020E80F0020D1
:104DE000B0E10008C4E10008D0E10008E4E10008F7
:104DF0004F100020380A002000B583B064238DF8DE
:104E000007008DF806108DF805200DF1070101222D
:104E10000C4804F063F8642301220DF106010948EF
:104E200004F05CF89DF8073003F0F003B02B06D8CF
:104E3000642301220DF10501024804F04FF803B08C
:104E40005DF804FBB012002010B50C4C0022204687
:104E5000082101F0FFFF6420FCF7A8FD2046012295
:104E6000082101F0F7FF6420FCF7A0FD782207215C
:104E7000B020BDE81040FFF7BFBF00BF00100240E8
:104E800001284FF03C0202D08920FFF7B5BF9920DE
:104E9000FFF7B2BF38B5002205460C46C0202221DC
:104EA000FFF7AAFF012D21464FF03C0204D08020DD
:104EB000BDE83840FFF7A0BF9020BDE83840FFF7BD
:104EC0009BBF00BF70B50E4E3446351D14F8011B54
:104ED00021B9AC42FAD134792CB970BD3C22992069
:104EE000FFF78AFFF5E700222221C020FFF784FFA9
:104EF00021463C229020BDE87040FFF77DBF00BFF7
:104F00001815002038B5104B104A1A604FF4827003
:104F100001224FF4007508240A2158605A6118468E
:104F20000022C3E90654D962C3E902221A61C3E927
:104F300008229A6203F066F900B938BD532104488B
:104F4000BDE83840FFF788BD08110020003C004054
:104F5000F0E1000838B5104B104A1A604FF4827225
:104F60004FF4007510240A215A6018460022C3E944
:104F70000654D962C3E90222C3E90422C3E9082224
:104F80009A6203F03FF900B938BD69210448BDE8D1
:104F90003840FFF761BD00BF5010002000500140B5
:104FA000F0E10008F0B5484A0368934289B05BD04D
:104FB000464A934201D009B0F0BD0024444B02940C
:104FC0005A6C444D42F480125A645B6C059403F4AD
:104FD000801302934FF4607202230299039203A993
:104FE000052206463C4804930693079201F0EEFD25
:104FF0003A4B2B604FF080604FF480614FF4803269
:10500000042368602846AC60EC60C5E90544EC61A7
:10501000C5E90A442C632961C5E9082301F0EAFBCC
:1050200000284CD12E4C2F4921604FF08062402047
:105030004FF480634FF480316260A06004222361EA
:10504000F56400232046AE63C4E90812E360C4E9B6
:105050000533E361C4E90A33236301F0CBFB48BBAA
:10506000B464A66309B0F0BD0024194B01941A6C16
:105070001D4842F400421A641B6C059403F400437B
:10508000019303A94FF4C053022703260625019A72
:10509000CDE90337CDE9066501F098FD082303A9A2
:1050A00012480393CDE90474CDE9066501F08EFD45
:1050B00009B0F0BDCB210E48FFF7CEFCD0E7B621FA
:1050C0000B48FFF7C9FCADE7003C00400050014031
:1050D00000380240A810002000140240586402402A
:1050E0006011002070640240000802400004024089
:1050F000F0E1000830B589B028B3012816D0184C6B
:10510000184B04EB800433F81050606803950123BA
:10511000022203A9CDE90433069201F057FD294686
:105120006068002201F096FE09B030BD0E4B0022EF
:1051300002921A6B42F040021A631B6B03F04003A9
:105140000293029BDBE7084B01901A6B42F040028E
:105150001A631B6B03F040030193019BCFE700BF71
:105160003C000020BCDE000800380240044B054A29
:1051700003EB800332F810105868012201F06ABE78
:105180003C000020BCDE0008044B054A03EB800312
:1051900032F810105868002201F05CBE3C0000207C
:1051A000BCDE000810B586B050B91A4B00901A6BDF
:1051B00042F001021A631B6B03F001030093009B92
:1051C000C9B1012901D006B010BD134B134A01919A
:1051D00003EB8000002401A9C0680292039401F04F
:1051E000F5FC21460222062001F04EFA062001F0CD
:1051F00081FA06B010BD084B029103EB8000012339
:105200000193C068022301A9CDE9033301F0DEFC5C
:1052100006B010BD003802403C0000200000111014
:105220002DE9F047244C82B004F11005012608272F
:105230004FF00008214682464FF6FF72284626604E
:10524000C4E90176C4F80C80CDF8048002F062FE57
:105250003046FCF7ABFB0223214628464FF6FF728F
:1052600023604FF00409C4E90176C4F80C8002F011
:1052700051FE0323214628464FF6FF7223606760E4
:10528000C4F80C80C4F8089002F044FE4FF40C738C
:105290000193019B6760214628464FF6FF72C4F8D0
:1052A0000090C4E9026302F035FE5146284602B080
:1052B000BDE8F04702F048BE200B00202DE9F04386
:1052C0008FB0724B724C73497348002501959A6BED
:1052D000A56142F001029A639A6BE56202F0010255
:1052E0000192019A02951A6B656342F480021A6377
:1052F0001A6B216102F480020292029A03951A6BE2
:10530000102640274FF4C0714FF4006C4FF0040991
:1053100026626762A162022707214FF0010842F06E
:1053200002024FF40056C4F830C0A663A164C4E979
:1053300013916764C4E91577E765C4F81C90C4F855
:1053400014801A631A6B3A400392039A04951A6BFD
:1053500042EA09021A631A6B02EA09020492049AE9
:1053600005951A6B42F008021A631A6B02F00802E4
:105370000592059A06951A6B42F010021A631A6B91
:1053800002F010020692069A07951A6B42F020026C
:105390001A631A6B02F020020792079A08951A6B9B
:1053A00042F040021A631B6B0EAE03F040030893F9
:1053B000602346F8143D0C233146089A0D93CDE93D
:1053C0000B570A9701F002FC31463448CDF824808F
:1053D00001F0FCFB31464CF203733148099301F0B4
:1053E000F5FB31464FF683732E48099301F0EEFB2F
:1053F00031464FF63F032C480993A04601F0E6FBE7
:10540000314648F233132948099301F0DFFB284B5A
:1054100048F8603F80204FF400764FF4806C4FF4E2
:1054200040334FF480514FF480426566E567C4E92C
:105430002355A066E66604F1100503264046C4F82D
:1054400070C0C4F88030C4E91D12C4F88490C4F858
:105450004080C4F88860C4F8985001F065FA40466E
:1054600001F0C8F932463946382001F00DF93820EC
:1054700001F040F904F14401284602F0A7FC40F293
:105480006A50FFF7CDFE0FB0BDE8F0830038024050
:10549000200B0020400100A0000402400008024050
:1054A000000C0240001002400014024000180240AC
:1054B0001064024013460A460146014802F0F0BC5F
:1054C000300B002013460A460146014802F0A0BCFA
:1054D000300B00202DE9F041074C0E4617460546DB
:1054E000204602F001FD3B46324629462046BDE8F3
:1054F000F04102F0B1BC00BF300B002010B582B00B
:105500000024264B00945A6C42F480425A645A6C30
:1055100002F480420092009A01941A6C42F0805288
:105520001A641B6C03F0805301930520019B01F06A
:1055300099F8224621466FF00B0001F0A5F82246AB
:1055400021466FF00A0001F09FF8224621466FF0D5
:10555000090001F099F8224621466FF0040001F09D
:1055600093F8224621466FF0030001F08DF82246A1
:1055700021466FF0010001F087F8224621464FF0E6
:10558000FF3001F081F822462146012001F07CF82D
:10559000012002B0BDE8104001F0ACB80038024074
:1055A000704700BF704700BF08B5FCF7CDF9BDE8F4
:1055B000084001F0E1B800BF02F04AB9042001F050
:1055C0004DBC00BF102001F049BC00BF014801F0F4
:1055D00027BA00BF1C0D002008B5054800F0FEFEEC
:1055E000044800F0FBFE0448BDE8084000F0F6BEA9
:1055F000740C0020240C0020BC0C002008B54020B6
:1056000001F02CFC802001F029FC4FF40070BDE873
:10561000084001F023BC00BF08B5034803F03CF983
:10562000BDE80840FCF722BF3812002008B5034847
:1056300003F032F9BDE80840FEF704BB7412002005
:1056400008B5034803F028F9BDE80840FFF7B8B9EA
:10565000FC11002008B54FF4806001F0FFFB4FF40F
:105660000060BDE8084001F0F9BB00BFF8B50A4C86
:105670000A4803F011F9257805B1F8BD084F3E68D6
:1056800002363E60FCF772FFB0EB460FF5D2012305
:105690003D602370F8BD00BF480A0020C011002003
:1056A000440A0020014801F0BBB900BFA810002047
:1056B000014801F0B5B900BF60110020014801F0B8
:1056C0005DBC00BF24160020012001F0C7BB00BF55
:1056D00030B5194B002287B04FF08045682440F266
:1056E0001F311846C3E90054C3E902211A6103F0CF
:1056F000E5F9D8B906A94FF4805341F8103D0E489A
:1057000002F0FEFF68B9002369460B48CDE900337B
:1057100003F0F0F918B158210848FFF79DF907B0D8
:1057200030BD51210548FFF797F9ECE74B210348BD
:10573000FFF792F9DEE700BF7412002024E20008B0
:1057400010B5194B194A1A6086B0002249F27B2421
:1057500040F22B1118465C60C3E902211A6103F084
:10576000ADF9D8B906A94FF4805341F8103D0E4861
:1057700002F0C6FF68B9002369460B48CDE9003343
:1057800003F0B8F918B176210948FFF765F906B0BA
:1057900010BD6F210648FFF75FF9ECE76921044867
:1057A000FFF75AF9DEE700BFFC11002000080040B7
:1057B00024E2000810B5194B194A1A6086B000227D
:1057C00040F28F141B2118465C60C3E90221C3E933
:1057D000042203F073F9E0B906A94FF4805341F8AD
:1057E000103D0E4802F08CFF70B92022002369465C
:1057F0000A48CDE9002303F07DF918B19521094845
:10580000FFF72AF906B010BD8E210648FFF724F9EC
:10581000EBE788210348FFF71FF9DDE7C0110020FF
:105820000004014024E2000800B5114B114A1A603F
:10583000C721002285B018465960C3E902211A61C8
:1058400003F03CF978B904A94FF4805341F8103DB6
:10585000074802F055FF18B1AB210748FFF7FCF8E5
:1058600005B05DF804FBA5210348FFF7F5F8EAE76A
:10587000381200200040014024E2000800B503680F
:10588000B3F1804F85B022D0334A934237D0334AA8
:1058900093424BD0324A934202D005B05DF804FBEC
:1058A000304B002203925A6C42F480325A645B6C93
:1058B000022203F48033039311461820039B00F067
:1058C000E3FE182005B05DF804EB00F013BF03F50C
:1058D0000E33002200921A6C42F001021A641B6C13
:1058E00003F001030093022203211C20009B00F01F
:1058F000CBFE1C2005B05DF804EB00F0FBBE194B9D
:10590000002201921A6C42F004021A641B6C0322FA
:1059100003F00403019311461E20019B00F0B4FE26
:105920001E2005B05DF804EB00F0E4BE00220D4B34
:105930000292596C41F0020159645B6C03F002035E
:10594000029311462C20029B00F09EFE2C2005B0F5
:105950005DF804EB00F0CEBE0008004000040140FA
:10596000004001400038024038B50D4B0D4A1A6026
:10597000002447F612210C2559601846224621467C
:105980005D61C3E902441C61C3E9064403F064FAA3
:1059900000B938BD4C210448BDE83840FFF75CB879
:1059A000B01200200010014058E200080268114BBC
:1059B0009A4200D0704770B586B0002103F5943349
:1059C00000915A6C0C4842F010025A645B6C0391CF
:1059D00003F010030093032207234FF4C065022451
:1059E00001A9009ECDE90154CDE9042301F0EEF8B0
:1059F00006B070BD001001400000024010B5094C17
:105A000009490122204604F00DF92046074904F017
:105A10001FF92046064904F0D7F82046BDE810409B
:105A200004F01EB9F0120020780000207801002058
:105A30005000002000207047F8B505460E46164875
:105A4000294604F0D1F8144804F0D4F8134B5B79DC
:105A50000A2B06D0FFF736FA0F4804F0CBF80020E7
:105A6000F8BD0F4F0F483C78326829462044403437
:105A700004F0A8FCE4B2802C08BF00230A490CBF44
:105A80003B703C70094B32680120087002481A6074
:105A900004F0B0F80020F8BDF0120020E80F00205C
:105AA000201600205C15002014150020DC150020B5
:105AB00010B5064C06490022204604F08DF8204619
:105AC000044904F091F8002010BD00BFF01200203E
:105AD000E015002018150020212806D14FF416509B
