:020000040800F2
:1000000000000320E13400083135000831350008D4
:100010003135000831350008313500080000000096
:1000200000000000000000000000000051920008E5
:100030003135000800000000539200085592000876
:10004000313500086192000831350008313500086B
:100050003135000831350008959300083135000826
:1000600069920008313500087392000831350008A4
:1000700031350008313500083135000831350008C8
:10008000313500087D9200088D9200083135000856
:10009000313500083135000831350008A5920008D7
:1000A000BD920008313500083135000831350008AF
:1000B000D592000831350008E99200083135000872
:1000C0003135000831350008313500083135000878
:1000D0003135000831350008313500083135000868
:1000E000FD9200083135000831350008313500082F
:1000F0001993000831350008313500083135000802
:100100003135000831350008313500083135000837
:100110003135000831350008313500083135000827
:100120003135000855930008313500086593000803
:100130007593000831350008313500083135000865
:1001400031350008313500083135000831350008F7
:1001500031350008313500083135000831350008E7
:1001600031350008313500083135000831350008D7
:100170003135000885930008313500080000000083
:1001800031350008313500083135000831350008B7
:1001900031350008313500083135000831350008A7
:0C01A00031350008313500083135000809
:1001B00010B5054C237833B9044B13B10448AFF3A1
:1001C00000800123237010BD780300200000000090
:1001D00098F0000808B5034B1BB103490348AFF37F
:1001E000008008BD000000007C03002098F000089B
:1001F00081F0004102E000BF83F0004330B54FEAD8
:1002000041044FEA430594EA050F08BF90EA020F44
:100210001FBF54EA000C55EA020C7FEA645C7FEAD7
:10022000655C00F0E2804FEA5454D4EB5555B8BFFA
:100230006D420CDD2C4480EA020281EA030382EA6B
:10024000000083EA010180EA020281EA0303362DFD
:1002500088BF30BD11F0004F4FEA01314FF4801CD0
:100260004CEA113102D0404261EB410113F0004FE2
:100270004FEA03334CEA133302D0524263EB430399
:1002800094EA050F00F0A780A4F10104D5F1200E37
:100290000DDB02FA0EFC22FA05F2801841F1000192
:1002A00003FA0EF2801843FA05F359410EE0A5F166
:1002B00020050EF1200E012A03FA0EFC28BF4CF097
:1002C000020C43FA05F3C01851EBE37101F000454D
:1002D00007D54FF0000EDCF1000C7EEB00006EEB5A
:1002E0000101B1F5801F1BD3B1F5001F0CD34908E4
:1002F0005FEA30004FEA3C0C04F101044FEA44523B
:1003000012F5800F80F09A80BCF1004F08BF5FEAC1
:10031000500C50F1000041EB045141EA050130BDA1
:100320005FEA4C0C404141EB010111F4801FA4F144
:100330000104E9D191F0000F04BF01460020B1FA99
:1003400081F308BF2033A3F10B03B3F120020CDAD1
:100350000C3208DD02F1140CC2F10C0201FA0CF0AF
:1003600021FA02F10CE002F11402D8BFC2F1200C14
:1003700001FA02F120FA0CFCDCBF41EA0C019040CA
:10038000E41AA2BF01EB0451294330BD6FEA040413
:100390001F3C1CDA0C340EDC04F11404C4F12002FE
:1003A00020FA04F001FA02F340EA030021FA04F310
:1003B00045EA030130BDC4F10C04C4F1200220FA67
:1003C00002F001FA04F340EA0300294630BD21FAA5
:1003D00004F0294630BD94F0000F83F4801306BF6B
:1003E00081F480110134013D4EE77FEA645C18BF5F
:1003F0007FEA655C29D094EA050F08BF90EA020FF6
:1004000005D054EA000C04BF1946104630BD91EAED
:10041000030F1EBF0021002030BD5FEA545C05D1F0
:100420004000494128BF41F0004130BD14F580042F
:100430003CBF01F5801130BD01F0004545F0FE41A3
:1004400041F470014FF0000030BD7FEA645C1ABFD8
:10045000194610467FEA655C1CBF0B46024650EA0F
:10046000013406BF52EA033591EA030F41F400213B
:1004700030BD00BF90F0000F04BF0021704730B5C1
:100480004FF4806404F132044FF000054FF0000196
:1004900050E700BF90F0000F04BF0021704730B557
:1004A0004FF4806404F1320410F0004548BF40422C
:1004B0004FF000013EE700BF42004FEAE2014FEA81
:1004C00031014FEA02701FBF12F07F4393F07F4F5C
:1004D00081F06051704732F07F4208BF704793F05F
:1004E0007F4F04BF41F40021704730B54FF4607472
:1004F00001F0004521F000411CE700BF50EA010275
:1005000008BF704730B54FF000050AE050EA01021D
:1005100008BF704730B511F0004502D5404261EB8D
:1005200041014FF4806404F132045FEA915C3FF4CE
:10053000D8AE4FF003025FEADC0C18BF03325FEA6B
:10054000DC0C18BF033202EBDC02C2F1200300FA1C
:1005500003FC20FA02F001FA03FE40EA0E0021FA41
:1005600002F11444BDE600BF70B54FF0FF0C4CF42F
:10057000E06C1CEA11541DBF1CEA135594EA0C0FE1
:1005800095EA0C0F00F0DEF82C4481EA030621EA1C
:100590004C5123EA4C5350EA013518BF52EA033557
:1005A00041F4801143F4801338D0A0FB02CE4FF009
:1005B0000005E1FB02E506F00042E0FB03E54FF039
:1005C0000006E1FB03569CF0000F18BF4EF0010E31
:1005D000A4F1FF04B6F5007F64F5407404D25FEA2D
:1005E0004E0E6D4146EB060642EAC62141EA5551E0
:1005F0004FEAC52040EA5E504FEACE2EB4F1FD0C22
:1006000088BFBCF5E06F1ED8BEF1004F08BF5FEA9F
:10061000500E50F1000041EB045170BD06F0004651
:1006200046EA010140EA020081EA0301B4EB5C04FE
:10063000C2BFD4EB0C0541EA045170BD41F48011F6
:100640004FF0000E013C00F3AB8014F1360FDEBF1B
:10065000002001F0004170BDC4F10004203C35DAF7
:100660000C341BDC04F11404C4F1200500FA05F37A
:1006700020FA04F001FA05F240EA020001F000421B
:1006800021F0004110EBD37021FA04F642EB060191
:100690005EEA430E08BF20EAD37070BDC4F10C04BB
:1006A000C4F1200500FA04F320FA05F001FA04F27F
:1006B00040EA020001F0004110EBD37041F100016B
:1006C0005EEA430E08BF20EAD37070BDC4F1200576
:1006D00000FA05F24EEA020E20FA04F301FA05F2DE
:1006E00043EA020321FA04F001F0004121FA04F286
:1006F00020EA020000EBD3705EEA430E08BF20EA56
:10070000D37070BD94F0000F0FD101F0004640008F
:1007100041EB010111F4801F08BF013CF7D041EA11
:10072000060195F0000F18BF704703F00046520015
:1007300043EB030313F4801F08BF013DF7D043EAE6
:100740000603704794EA0C0F0CEA135518BF95EA9C
:100750000C0F0CD050EA410618BF52EA4306D1D123
:1007600081EA030101F000414FF0000070BD50EA42
:10077000410606BF1046194652EA430619D094EACC
:100780000C0F02D150EA013613D195EA0C0F05D1B6
:1007900052EA03361CBF104619460AD181EA03010A
:1007A00001F0004141F0FE4141F470014FF00000C2
:1007B00070BD41F0FE4141F4780170BD70B54FF05D
:1007C000FF0C4CF4E06C1CEA11541DBF1CEA1355DD
:1007D00094EA0C0F95EA0C0F00F0A7F8A4EB0504BF
:1007E00081EA030E52EA03354FEA013100F08880B6
:1007F0004FEA03334FF0805545EA131343EA12637F
:100800004FEA022245EA111545EA10654FEA002633
:100810000EF000419D4208BF964244F1FD0404F5EC
:10082000407402D25B084FEA3202B61A65EB030548
:100830005B084FEA32024FF480104FF4002CB6EB05
:10084000020E75EB030E22BFB61A754640EA0C0085
:100850005B084FEA3202B6EB020E75EB030E22BFC5
:10086000B61A754640EA5C005B084FEA3202B6EB06
:10087000020E75EB030E22BFB61A754640EA9C00C5
:100880005B084FEA3202B6EB020E75EB030E22BF95
:10089000B61A754640EADC0055EA060E18D04FEA53
:1008A000051545EA16754FEA06164FEAC30343EAF3
:1008B00052734FEAC2025FEA1C1CC0D111F4801FC0
:1008C0000BD141EA00014FF000004FF0004CB6E7B9
:1008D00011F4801F04BF01430020B4F1FD0C88BF58
:1008E000BCF5E06F3FF6AFAEB5EB030C04BFB6EB63
:1008F000020C5FEA500C50F1000041EB045170BD56
:100900000EF0004E4EEA113114EB5C04C2BFD4EB82
:100910000C0541EA045170BD41F480114FF0000E06
:10092000013C90E645EA060E8DE60CEA135594EA82
:100930000C0F08BF95EA0C0F3FF43BAF94EA0C0F85
:100940000AD150EA01347FF434AF95EA0C0F7FF4FA
:1009500025AF104619462CE795EA0C0F06D152EA4E
:1009600003353FF4FDAE1046194622E750EA410632
:1009700018BF52EA43067FF4C5AE50EA41047FF443
:100980000DAF52EA43057FF4EBAE12E74A0011D2F5
:1009900012F5001211D20DD56FF47873B3EB6252D9
:1009A0000ED44FEAC12343F0004343EA505323FAE5
:1009B00002F070474FF00000704750EA013002D15A
:1009C0004FF0FF3070474FF0000070474FEA410290
:1009D000B2F1E04324BFB3F5001CDCF1FE5C0DD99D
:1009E00001F0004C4FEAC0024CEA5070B2F1004FE7
:1009F00040EB830008BF20F00100704711F0804FEA
:100A000021D113F13872BCBF01F00040704741F4AE
:100A100080114FEA5252C2F11802C2F1200C10FAB2
:100A20000CF320FA02F018BF40F001004FEAC12396
:100A30004FEAD32303FA0CFC40EA0C0023FA02F33A
:100A40004FEA4303CCE77FEA625307D150EA013310
:100A50001EBF4FF0FE4040F44000704701F00040E0
:100A600040F0FE4040F40000704700BF53B94AB95F
:100A7000002908BF00281CBF4FF0FF314FF0FF30A6
:100A800000F072B9ADF1080C6DE904CE00F006F883
:100A9000DDF804E0DDE9022304B070472DE9F047FA
:100AA000089E04468846002B4BD18A42154667D9DA
:100AB000B2FA82F24AB1C2F1200701FA02F320FA37
:100AC00007F7954047EA030894404FEA154E230C78
:100AD000B8FBFEF71FFA85FC0EFB178843EA0843B4
:100AE00007FB0CF1994209D9EB1807F1FF3080F0B0
:100AF0001B81994240F21881023F2B445B1AA4B239
:100B0000B3FBFEF00EFB103344EA034400FB0CFC85
:100B1000A44509D92C1900F1FF3380F00781A445C1
:100B200040F2048102382C4440EA0740A4EB0C0454
:100B300000271EB1D4400023C6E900433946BDE872
:100B4000F0878B4209D9002E00F0EB800027C6E920
:100B5000000138463946BDE8F087B3FA83F7002F25
:100B600047D18B4202D3824200F2FA80841A61EBB1
:100B7000030301209846002EE0D0C6E90048DDE7D7
:100B800002B9FFDEB2FA82F2002A40F08F80491BE0
:100B90004FEA154E1FFA85F80127B1FBFEFC230C26
:100BA0000EFB1C1143EA014308FB0CF1994207D9E3
:100BB000EB180CF1FF3002D2994200F2CD8084464E
:100BC000591AA3B2B1FBFEF00EFB101443EA044421
:100BD00008FB00F8A04507D92C1900F1FF3302D219
:100BE000A04500F2B6801846A4EB080440EA0C4089
:100BF0009FE7C7F1200CBB4022FA0CFE4EEA030E21
:100C000001FA07F420FA0CF521FA0CF34FEA1E481A
:100C10002543B3FBF8F92C0C08FB19331FFA8EFAA5
:100C200044EA034309FB0AF49C4202FA07F200FA81
:100C300007F10BD91EEB030309F1FF3080F0878029
:100C40009C4240F28480A9F1020973441B1BADB29F
:100C5000B3FBF8F008FB103345EA034400FB0AFA43
:100C6000A24508D91EEB040400F1FF336BD2A24564
:100C700069D90238744440EA0940A0FB0289A4EB18
:100C80000A044C45C2464B4654D351D0002E69D07D
:100C9000B1EB0A0564EB030404FA0CFCFD40FC40D4
:100CA0004CEA0505C6E90054002747E7C2F12003D6
:100CB00020FA03F7954001FA02F021FA03F34FEA14
:100CC000154E3843010CB3FBFEF71FFA85F80EFBF7
:100CD000173341EA034107FB08F38B4204FA02F49D
:100CE00007D9691807F1FF3C2FD28B422DD9023F5B
:100CF0002944CB1A81B2B3FBFEF00EFB103341EA5C
:100D0000034100FB08F38B4207D9691800F1FF3C4F
:100D100017D28B4215D902382944C91A40EA07472D
:100D20003BE73746304609E70746E7E61846FBE665
:100D30004145ABD2B8EB020A69EB0E02013813460B
:100D4000A4E76046E9E7184695E76746D1E781469C
:100D50007CE702382C4447E7ACF1020C2B442FE728
:100D6000384608E73746E9E6704700BF034613F800
:100D7000012B002AFBD1181A01387047000000002F
:100D800001F0FF01102A2BDB10F0070F08D010F83C
:100D9000013B013A8B422DD010F0070F42B3F6D140
:100DA000F0B441EA012141EA014122F007047FF059
:100DB00000070023F0E80256083C85EA010586EAB0
:100DC000010685FA47F5A3FA87F586FA47F6A5FAEC
:100DD00087F68EB9EED1F0BC01F0FF0102F00702F8
:100DE00032B110F8013B013A83EA010313B1F8D1A3
:100DF0000020704701387047002D06BF3546033884
:100E0000073815F0010F07D1013015F4807F02BFBC
:100E1000013015F4C03F0130F0BC0138704700BF0D
:100E20000120704701207047012070470120704762
:100E30000120704701207047012070470120704752
:100E40000120704701207047012070470120704742
:100E500001207047012070470120704708B500EB62
:100E60008000044B53F820300BB1984708BD042094
:100E7000FCE700BF0000002008B500EB8000044B39
:100E800003EB800043680BB1984708BD0420FCE7E2
:100E9000000000207BB138B51C4600EB8000084BF9
:100EA00003EB8000056945B12346144608461A46FF
:100EB0002146A84738BD042070470420FAE700BF48
:100EC000000000207BB138B51C4600EB8000084BC9
:100ED00003EB8000C56845B12346144608461A4610
:100EE0002146A84738BD042070470420FAE700BF18
:100EF0000000002000EB8000064B03EB80039B68A2
:100F00002BB110B50C4611462046984710BD042061
:100F1000704700BF00000020004870470000FC42FE
:100F200030B4144B1860144BFF240025114902E023
:100F300028460A68C2B11A6812F0400FF8D09A68C1
:100F400012F0020FFBD09A6812F0800FF7D1DC602C
:100F50009A6812F0010FFBD09A6812F0800FF7D157
:100F6000D868C0B2FF28E4D1FF2814BF00200120B8
:100F700030BC7047E00300200050014008B501225A
:100F80000821104809F062FF0F4B1B6813F0400F57
:100F900016D00D4A936813F0020FFBD0936813F03C
:100FA000800FF7D1084BFF22DA601A46936813F0DE
:100FB000010FFBD0936813F0800FF7D1024BDB6871
:100FC00008BD00BF000802400050014010B50022DB
:100FD0000821154809F03AFF144B1B6813F0400F25
:100FE00016D0124A936813F0020FFBD0936813F0E7
:100FF000800FF7D10D4BFF22DA601A46936813F089
:10100000010FFBD0936813F0800FF7D1074BDB681B
:101010004FF4FA70FFF784FF044610B10124204614
:1010200010BDFFF7ABFFFAE7000802400050014097
:1010300038B5364BC8221A60354BFF25334C01E0DA
:101040002268CAB11A6812F0400F17D09A6812F0DD
:10105000020FFBD09A6812F0800FF7D1DD609A681A
:1010600012F0010FFBD09A6812F0800FF7D1DA6806
:10107000D2B2FF2AE4D002E0002038BD0022FE2ACE
:1010800001D00020F9E70B460146214CFF22204603
:1010900002F02BFC236813F0400F16D02246936811
:1010A00013F0020FFBD0936813F0800FF7D1184BA9
:1010B000FF22DA601A46936813F0010FFBD09368A1
:1010C00013F0800FF7D1124BDB68114B1B6813F044
:1010D000400F18D00E4A936813F0020FFBD09368AC
:1010E00013F0800FF7D10A4BFF22DA601A4693689B
:1010F00013F0010FFBD0936813F0800FF7D1044B6E
:10110000DB680120B9E70120B7E700BFE00300205A
:101110000050014038B505460C464FF4FA70FFF711
:10112000FFFE034608B9184638BD414B1B6813F053
:10113000400F15D03E4A936813F0020FFBD093681E
:1011400013F0800FF7D13A4BDC601A46936813F026
:10115000010FFBD0936813F0800FF7D1344BDB689D
:10116000FD2C63D0324C4FF400722946204602F029
:101170009FFB236813F0400F16D02246936813F0AC
:10118000020FFBD0936813F0800FF7D1284BFF229A
:10119000DA601A46936813F0010FFBD0936813F0DE
:1011A000800FF7D1224BDB68214B1B6813F0400FF7
:1011B00016D01F4A936813F0020FFBD0936813F008
:1011C000800FF7D11A4BFF22DA601A46936813F0AA
:1011D000010FFBD0936813F0800FF7D1144BDB683D
:1011E000134B1B6813F0400F1ED0114A936813F085
:1011F000020FFBD0936813F0800FF7D10C4BFF2246
:10120000DA601A46936813F0010FFBD0936813F06D
:10121000800FF7D1064BDB68DBB203F01F03052B11
:1012200014BF002301237EE70023F6E701237AE7BA
:101230000050014038B504460D4610F0800F40F0D4
:101240009F800C2C06D0FFF799FEFFF7BFFE002809
:1012500000F0E280834B1B6813F0400F16D0814AE8
:10126000936813F0020FFBD0936813F0800FF7D14F
:1012700044F040037B4AD360936813F0010FFBD026
:10128000936813F0800FF7D1764BDB68754B1B68C2
:1012900013F0400F15D0734A936813F0020FFBD080
:1012A000936813F0800FF7D12B0E6E4AD3609368CA
:1012B00013F0010FFBD0936813F0800FF7D1694B47
:1012C000DB68684B1B6813F0400F16D0654A9368C3
:1012D00013F0020FFBD0936813F0800FF7D1C5F322
:1012E0000743604AD360936813F0010FFBD0936803
:1012F00013F0800FF7D15B4BDB685A4B1B6813F080
:10130000400F16D0574A936813F0020FFBD0936832
:1013100013F0800FF7D1C5F30723524AD3609368C7
:1013200013F0010FFBD0936813F0800FF7D14D4BF2
:10133000DB684C4B1B6813F0400F16D0494A93688A
:1013400013F0020FFBD0936813F0800FF7D1EDB2CA
:10135000444BDD601A46936813F0010FFBD093688D
:1013600013F0800FF7D13F4BDB68002C58D0082CCE
:101370000FD13C4B1B6813F0400F6FD0872155E015
:1013800000213720FFF756FF012848D804F07F04DA
:1013900057E7344B1B6813F0400F5DD0012145E047
:1013A000304B1B6813F0400F58D02E4A936813F04F
:1013B000020FFBD0936813F0800FF7D1294BFF2267
:1013C000DA601A46936813F0010FFBD0936813F0AC
:1013D000800FF7D1234BDB6840E04A1E12F0FF017B
:1013E0001DD01A6812F0400F18D09A6812F0020F40
:1013F000FBD09A6812F0800FF7D1DC609A6812F087
:10140000010FFBD09A6812F0800FF7D1DA68D0B2E2
:1014100012F0800FE1D102E0FF2000E0002038BD93
:10142000104B1B6813F0400F18D095210D4A93689C
:1014300013F0020FFBD0936813F0800FF7D1094B24
:10144000D9601A46936813F0010FFBD0936813F02C
:10145000800FF7D1034BDB680C2CA1D00A21014B84
:10146000FF24BEE700500140F0B583B002F062F8FF
:1014700001220821724809F0E9FC0A2002F0BEF8B6
:101480000A21704BFF2003E04A1E12F0FF0116D024
:101490001A6812F0400FF7D09A6812F0020FFBD0D2
:1014A0009A6812F0800FF7D1D8609A6812F0010F95
:1014B000FBD09A6812F0800FF7D1DA68E4E70021D8
:1014C0000846FFF7B7FE0446012808D05E4B00220D
:1014D0001A70FFF753FD5D4B01221A70A6E05C4BBA
:1014E0004FF47A721A604FF4D5710820FFF7A2FE0C
:1014F00001286FD101A902AD524BFF24002004E066
:10150000024601F8012BA94217D01A6812F0400FC9
:10151000F6D09A6812F0020FFBD09A6812F0800F92
:10152000F7D1DC609A6812F0010FFBD09A6812F0D4
:10153000800FF7D1DA68D2B2E3E79DF80630012BCD
:10154000C4D19DF80730AA2BC0D1414E4FF0804541
:10155000A92433682BB129462046FFF76BFE0028EB
:10156000F7D13B4B1B68002BB0D000213A20FFF78E
:1015700061FE0028AAD10022324BFF25144601A8A3
:10158000196811F0400F23D0996811F0020FFBD0B9
:10159000996811F0800FF7D1DD60996811F0010FA3
:1015A000FBD0996811F0800FF7D1D968C9B21154F6
:1015B0000132042AE4D19DF8043003F04003002BEB
:1015C00014BF0C220422204B1A70FFF7D7FC28E02E
:1015D0002146ECE70021A920FFF72CFE02282EBFB0
:1015E00025460225A9241A4F00263B682BB1314617
:1015F0002046FFF71FFE0028F7D1154B1B68002B74
:101600007FF464AF4FF400711020FFF713FE002841
:101610007FF45CAF0C4B1D70FFF7B0FC002D3FF466
:101620005AAF0A4A137803F0FE031370074B1A7877
:1016300002F0FB021A701878C0B203B0F0BD00BF10
:10164000000802400050014094030020B400002034
:10165000E0030020034B1A7802F0FB021A7018789E
:10166000704700BFB40000201C4B1B7813F0010F23
:1016700031D170B505461446194B1B7813F0080F8D
:1016800008BF4902012A18D01220FFF7D3FD70B914
:101690004FF4007631462846FFF7CAFC18B105F52D
:1016A0000075013CF6D100210C20FFF7C3FDFFF7C8
:1016B00065FC201C18BF012070BD1120FFF7BAFD8A
:1016C0000028F4D14FF400712846FFF7B1FCB0FABE
:1016D00080F46409EBE70320704700BFB4000020EA
:1016E00094030020254B1B7813F0010F42D170B5F5
:1016F00005460E461446214B1B7813F0040F3BD1D0
:101700001F4B1B7813F0080F08BF4E02012A1ED092
:1017100013F0060F29D131461920FFF78BFD80B950
:10172000FC2631462846FFF7F5FC18B105F5007593
:10173000013CF6D1FD210020FFF7ECFC002808BF9A
:101740000124FFF71BFC201C18BF012070BD31468F
:101750001820FFF76FFD0028F3D1FE212846FFF780
:10176000D9FCB0FA80F46409EBE711469720FFF743
:1017700061FDD0E7032070470220E7E7B4000020B6
:101780009403002010B584B0994B1B7813F0010F1F
:1017900040F02B810C46042800F21981DFE810F09C
:1017A00005000F0017015400DF00FFF70FFCB0FA2F
:1017B00080F46409FFF7E2FB204604B010BD00216D
:1017C0000920FFF737FD08B10124F3E7102168462F
:1017D000FFF72EFC002800F0FC809DF800309B09EC
:1017E000012B20D09DF808209DF807309B0003EBCB
:1017F00092139DF80620920202F4406213440133D2
:101800009DF8052002F00F029DF80A1002EBD1129C
:101810009DF80910490001F006010A44073A934077
:1018200023600024C6E79DF807301B0403F47C13F3
:1018300001339DF808109DF8092002EB01221344A2
:101840009B0223600024B5E76A4B1B7813F0040F5A
:1018500050D000218D20FFF7EDFC08B10124A9E74D
:10186000654B1B6813F0400F16D0634A936813F062
:10187000020FFBD0936813F0800FF7D15E4BFF226D
:10188000DA601A46936813F0010FFBD0936813F0E7
:10189000800FF7D1584BDB6810216846FFF7C8FB73
:1018A000002800F098803021534BFF2003E04A1EAF
:1018B00012F0FF0116D01A6812F0400FF7D09A68A4
:1018C00012F0020FFBD09A6812F0800FF7D1D860A7
:1018D0009A6812F0010FFBD09A6812F0800FF7D1CE
:1018E000DA68E4E79DF80A301A0910239340236070
:1018F00000245FE700210920FFF79CFC08B10124C8
:1019000058E710216846FFF793FB002865D0394B54
:101910001B7813F0020F11D09DF80A305B0003F022
:101920007E039DF80B2003EBD21301339DF80D20AD
:101930009209013A9340236000243BE79DF80B2075
:10194000D30003F0180303EB52129DF80A30C3F3DF
:101950008403013302FB0333236000242AE7254B71
:101960001B7813F0060F01D1012423E769460B20F1
:10197000FFF708FF98BB9DF800309B0904D19DF844
:101980000A3013F0400F2CD021686468194B1B7883
:1019900013F0080F04BF490264022020FFF74AFC3D
:1019A00008B1012406E721462120FFF743FCD0B906
:1019B00000212620FFF73EFC08B10124FAE647F299
:1019C0003050FFF7ADFAB0FA80F46409F2E604246F
:1019D000F0E60124EEE60124ECE60124EAE6012427
:1019E000E8E60124E6E60124E4E60324E4E600BF99
:1019F000B400002094030020005001403AB10138A7
:101A00008A1811F8013B00F8013F9142F9D1704763
:101A100022B1821800F8011B8242FBD17047CA7EB6
:101A20008B7E43EA02230278032A01D018467047CE
:101A3000487D0A7D42EA002243EA0243F6E770B499
:101A400001F10904036963B34569681E00222E266B
:101A500001E00B2A0ED0013210F8013F202BF8D004
:101A6000052B08BFE523092A04BF26700134237023
:101A70000134EEE7EB7A0B72EA7FAB7F1B0443EA9B
:101A800002632A7F13436A7F43EA02230B606A7E64
:101A90002B7E43EA02238B80EA7DAB7D43EA02235F
:101AA000CB800023237070BC70470000D0F800C0CA
:101AB000BCF1000F4BD0F0B586469CF80070202F8B
:101AC00014D93A2F20D0624612F8013F202B0FD9AB
:101AD0003A2BF9D1A7F13000092803D80CF1010302
:101AE0009A420AD0561C1E48002714E062463B4624
:101AF0003A2BEFD01B4B1878F0BD08282AD80CF1F0
:101B00000203CEF80030F7E76246EBE7A64218D0B2
:101B10000137092F12D050F8045F644615F8011BF5
:101B200014F8013BA3F16102D2B2192A9CBF203BF9
:101B3000DBB20029EAD08B42F0D0E9E74FF0FF306A
:101B4000DAE7082F09D83846CEF80040D4E74FF03E
:101B5000FF3070474FF0FF30CEE74FF0FF30CBE75C
:101B60002CF100089803002003790BB9002070477E
:101B70002DE9F0410446056B00F1340701232A46A4
:101B800039464078FFF79EF9C0B900232371636A94
:101B9000EB1AE269934214D2E678012E13D94FF082
:101BA0000108E3691D4443462A4639466078FFF739
:101BB00089F9013E012EF4D1002000E00120BDE8AA
:101BC000F0810020FBE70020F9E770B5036B8B4242
:101BD00013D004460D46FFF7C7FF064670B9012330
:101BE0002A4604F134016078FFF754F900281CBF3D
:101BF00001264FF0FF35256300E00026304670BD1A
:101C000010B50446002303714FF0FF330363FFF761
:101C1000DCFF80BB94F8332294F8323243EA02238B
:101C20001BB2184A934228D194F86D2094F86C3076
:101C30001B0443EA026394F86A20134394F86B2070
:101C400043EA022323F07F430F4A934217D094F8CC
:101C5000893094F88800000440EA036094F88630E4
:101C6000184394F8873040EA032020F07F40801A20
:101C700018BF012002E0032000E0022010BD002078
:101C8000FCE700BF55AAFFFF46415400A0B108B5CC
:101C900003689BB1197899B1D9888288914201D0A3
:101CA000092008BD5878FFF7E7F800F00100002888
:101CB00014BF03200020F4E7092070470920F0E753
:101CC0000920EEE72DE9F04184B0064617460023CF
:101CD00003600846FFF7EAFE051EC0F26D81CA4B9D
:101CE00003EB85035C68002C00F06A813460237884
:101CF0007BB16078FFF7C0F810F0010F09D1002F19
:101D000000F0608100F0040000280CBF00200A20D1
:101D100053E100232370E8B26070FFF79FF810F0E2
:101D2000010F40F051811FB110F0040F40F04E81BF
:101D300000212046FFF764FF0346012800F0AA8037
:101D40000026032B00F04481002B40F0438194F8DF
:101D5000402094F83F3043EA02231BB2B3F5007FE2
:101D600040F03A8194F84B1094F84A3053EA01213C
:101D70000DD194F85B2094F85A301B0443EA0263B7
:101D800094F85820134394F8591043EA0121E16173
:101D900094F84420E270531EDBB2012B00F21E8146
:101DA00094F84150A570002D00F01A816B1E2B4253
:101DB00040F0188194F8463094F8450040EA03203A
:101DC000208110F00F0F40F00F8194F8487094F8C4
:101DD000473053EA07230DD194F8577094F85630E2
:101DE0001B0443EA076394F854703B4394F855701E
:101DF00043EA072394F843C094F8427057EA0C2C46
:101E000000F0F48001FB02F20CEB10171744BB4208
:101E1000C0F0EE80DB1BB3FBF5F3002B00F0EA8093
:101E200040F6F575AB4294BF012502254FF6F57ECD
:101E3000734500F2F1800233A3612662B444C4F812
:101E400024C03744E762032D00F0EE80002800F044
:101E5000D7806244A262022D0FBF5B0003EB4302F6
:101E600003F0010303EB520303F2FF13B1EB532F13
:101E7000C0F0C8804FF0FF332361E36080236371BB
:101E80002570614A138D01339BB21385E3800020D6
:101E9000606192E023466D4604F140002946002728
:101EA00005E03A4641F8042B1033834212D093F8F0
:101EB000F621002AF5D093F8FD6193F8FC21120475
:101EC00042EA066293F8FA61324393F8FB6142EA10
:101ED0000622E7E705F110074FF002080AE0314655
:101EE0002046FFF78DFE034600283FF430AFBD4289
:101EF0003FF427AF55F8046B002EF0D14346F6E7C8
:101F0000711C2046FFF761FE00284FD1002363714A
:101F100094F8332294F8323243EA02231BB23B4A4C
:101F2000934201D00325ABE794F8372094F836307C
:101F30001B0443EA026394F83420134394F83520D9
:101F400043EA0223324A934232D194F81B2294F896
:101F50001A321B0443EA026394F81822134394F8DC
:101F6000192243EA02232B4A934223D194F81F22D9
:101F700094F81E321B0443EA026394F81C221343B4
:101F800094F81D2243EA0223236194F8232294F853
:101F900022321B0443EA026394F82022134394F88C
:101FA000212243EA0223E360032569E7032567E76B
:101FB000032565E7032563E70B2004B0BDE8F08146
:101FC0000C20FAE70020F8E70320F6E70A20F4E700
:101FD0000120F2E70D20F0E70D20EEE70D20ECE701
:101FE0000D20EAE70D20E8E70D20E6E70D20E4E705
:101FF0000D20E2E70D20E0E70D20DEE70D20DCE715
:102000000D20DAE70D20D8E79803002055AAFFFF3E
:1020100052526141727241610233A36126620CEB3C
:10202000060262623744E7620028E5D194F8630053
:1020300094F86220120442EA006294F860000243BD
:1020400094F8610042EA0022A2629B0003F2FF13AF
:10205000B1EB532FD2D34FF0FF332361E3608023E2
:10206000637194F8652094F8643043EA02231BB24C
:10207000012B3FF445AF032502E700BF38B5044606
:10208000FFF772FD034650B92378032B09D00022D5
:1020900011466078FEF72EFF031C18BF0123184677
:1020A00038BD6379012BF2D104F134054FF400728D
:1020B00000212846FFF7ACFC552384F83232AA23CE
:1020C00084F83332522384F8343084F83530612375
:1020D00084F83630412284F83720722184F81812AF
:1020E00084F8191284F81A2284F81B32236984F8C0
:1020F0001C32C3F3072284F81D221A0C84F81E2216
:102100001B0E84F81F32E36884F82032C3F30722E1
:1021100084F821221A0C84F822221B0E84F8233220
:10212000226A01322263012329466078FEF7CAFE43
:1021300000236371ABE702398369023B8B4283BFA3
:102140008378C06A01FB03000020704701295FD932
:10215000F8B583698B425DD90C4606460378022B9D
:102160002AD0032B39D0012B01D0012053E001EB01
:102170005105416A01EB5521FFF727FD00284BD19E
:102180006F1CC5F30805354495F83450716A01EBAE
:1021900057213046FFF719FD002840D1C7F308004A
:1021A000304490F8340045EA002014F0010F14BFC9
:1021B0000009C0F30B002EE0416A01EB1421FFF788
:1021C00004FD78BB600000F4FF70304490F83530B7
:1021D00090F8340040EA03201DE0416A01EBD4117D
:1021E000FFF7F3FC08BBA00000F4FE7000F134021E
:1021F0003244D17893781B0443EA0163304490F869
:1022000034001843537840EA032020F0704002E085
:10221000012070470120F8BD4FF0FF30FBE74FF081
:10222000FF30F8E74FF0FF30F5E74FF0FF30F2E70F
:10223000F8B50646C1808468012C39D00D46036884
:102240009A69A24236D9CCB91A78032A12D01A89CF
:10225000AA4231D9986AF460002835D000EB1510F5
:1022600030613368343305F00F0503EB45157561B4
:10227000002020E09A6A002AE9D014469F783F01A6
:10228000BD4210D321463068FFF760FF0446B0F12D
:10229000FF3F13D0012813D933689B69834211D9BA
:1022A000ED1BAF42EED921463068FFF744FFD2E77D
:1022B000022000E00220F8BD0220FCE70120FAE73E
:1022C0000220F8E70220F6E70220F4E738B50446DA
:1022D000C188FFF7ADFF054608B1284638BD216922
:1022E0002068FFF772FC05460028F6D12022002165
:1022F0006069FFF78DFB6369E5221A70236801228C
:102300001A71EAE72DE9F843012940F28A808369CE
:102310008B4240F2888016460C4605460378022B15
:102320004CD0032B5ED0012B01D002277CE001EBC7
:102330005108416A01EB5821FFF747FC0746002886
:1023400072D108F10109C8F3080814F0010F1CD07C
:10235000A84498F8343003F00F0343EA061388F8D2
:10236000343001232B71696A01EB59212846FFF7AC
:102370002CFC00285BD1C9F30809C6F30716A94451
:1023800089F8346001232B714EE0A84488F834604A
:1023900001232B71696A01EB59212846FFF715FCCF
:1023A000002846D1C9F3080905EB090393F8343036
:1023B00023F00F03C6F303261E43E0E7416A01EB57
:1023C0001421FFF702FC074670BB610001F4FF71A6
:1023D000294481F83460C6F3072681F8356001236B
:1023E0002B7121E0416A01EBD411FFF7EEFB0746A8
:1023F000D0B9A10001F4FE7101F134032B44DA7865
:102400001206294402F07042164381F83460C6F384
:1024100007225A70320C9A70360EDE7001232B712F
:1024200002E0022700E002273846BDE8F8830746AD
:10243000FAE70746F8E7F8B505460F4639B9C66822
:1024400096B18369B34298BF012634461BE0FFF77B
:102450007DFE0346012842D9B0F1FF3F44D0AA696E
:10246000824241D83E46F0E70126EEE72146284663
:10247000FFF76CFE034670B1B0F1FF3F34D0012886
:1024800032D0B4422FD00134AB69A342EED8012E32
:1024900027D90224EAE76FF0704221462846FFF769
:1024A00031FF0346A8B967B9EC602B69B3F1FF3F70
:1024B0001CD0013B2B616B7943F001036B71234608
:1024C00012E0224639462846FFF71CFF0346002843
:1024D000EAD0012B0CBF4FF0FF33012304E00123AE
:1024E00002E0002300E000231846F8BD2346FBE786
:1024F0002DE9F843C488631C9AB2002A6AD00269A5
:10250000002A69D00F46054613F00F0607D10132A5
:102510000261C16869B9026812899A425ED90134C0
:10252000EC802B68343303EB46136B610020BDE86D
:10253000F88300688278013A12EA1318EFD1FFF7A6
:1025400005FE814601284BD9B0F1FF3F4AD02868EB
:1025500083694B4536D8002F46D0E968FFF76BFFFB
:102560008146002842D0012842D0B0F1FF3F41D03F
:102570002868FFF7F9FA08B10120D8E728684FF476
:10258000007200213430FFF743FA2F68494638467D
:10259000FFF7D1FD38632B689A787AB101271F7154
:1025A0002868FFF7E1FA38BB2A68136B013313631D
:1025B00008F101082B689A784245F0D81A6BA2EB13
:1025C00008021A63C5F80C9049462868FFF7B3FD66
:1025D0002861A4E70420AAE70420A8E70420A6E7CE
:1025E0000220A4E70120A2E70420A0E707209EE73D
:1025F00002209CE701209AE7012098E72DE9F84F97
:1026000005460C460B782F2B05D05C2B03D00368B6
:102610005B69836002E001340023AB6023781F2BE9
:1026200002D9DFF8148268E000212846FFF700FE97
:10263000814600236B6119E02E233B7073782E2BAB
:1026400008D17B70B3782E2B02D14FF006090DE034
:10265000032400E002242F2B00F099805C2B00F073
:102660009680202B40F29E804FF006094846BDE838
:10267000F88F4EF0030E803B18F8033066E0002B15
:10268000F2D1A3F16102D2B2192A71D84EF0010E33
:10269000203BDBB26CE031462846FFF729FF81463C
:1026A000002840F0A58029692868FFF78EFA814646
:1026B000002840F09D8069690B78002B00F0AA800B
:1026C00091F80BA01AF0080FE5D1AF6901F10B0EDC
:1026D0003A460B4613F801CB12F8010B8445DAD1C8
:1026E0009E45F7D1FB7A13F0040FBFD11AF0100FFB
:1026F0004AD02868FFF793F9A860264614F8013BF2
:102700002F2BFAD05C2BF8D0AF690B222021384652
:10271000FFF77EF933782E2B8ED006F1FF3C002098
:1027200004464FF0080A86464FF02A0B01341CF885
:10273000013F202B59D92F2B37D05C2B35D02E2B96
:102740006BD0824590D913F0800F92D1222B3FF4A9
:102750007CAF5A463749934291D011F8012F002A95
:10276000F9D1A3F14102D2B2192A8AD84EF0020E51
:102770003B540130DAE703F00403002B14BF4FF0A1
:1027800004094FF0050971E74FF005096EE734447D
:102790002023FB7200212846FFF74AFD814638BB03
:1027A000002680E734442423F3E734440023002840
:1027B0003FF45AAF3A78E52A04BF05223A70BAF1DD
:1027C000080F04BF4FEA8E0E5FFA8EFE0EF0030272
:1027D000012A08BF43F010030EF00C0EBEF1040FE7
:1027E00008BF43F00803FB72D4E734440423DEE758
:1027F000AB69DB7AB9F1040F7FF438AF13F0200F27
:10280000B9D00022AA606A6113F0040F3FF475AFDB
:1028100091462BE7AB69DB7AF0E7BAF1080F7FF45A
:1028200023AF4FEA8E0E5FFA8EFE50464FF00B0A32
:102830007CE700BF4D1A0108B0F00008F8B5044667
:102840000F460021FFF7F4FC0346C8B90025012616
:1028500008E00135BD4216D031462046FFF748FE5C
:10286000034668B921692068FFF7AFF9034638B914
:1028700062691278E52AECD0002AEAD00025EBE75D
:10288000042B08BF07231846F8BD38B505460121BB
:10289000FFF7D4FF044608B1204638BD29692868EF
:1028A000FFF793F904460028F6D120220021686939
:1028B000FFF7AEF80B22A9696869FFF79FF82B684C
:1028C00001221A71E8E7F8B504460E4604270025F0
:1028D00005E029462046FFF70BFE0746E0B92169CF
:1028E000B9B12068FFF771F90746A8B963691A788A
:1028F0008AB1DB7A03F03F03E52AEAD00F2BE8D058
:1029000023F02003082B14BF00230123B342E0D19E
:1029100004E01FB100E00427002323613846F8BD1E
:10292000012928D9F8B504460E4683698B4225D97A
:10293000002709E001332361637943F001036371E8
:102940002E46A369AB421AD931462046FFF7FEFB5B
:102950000546B0B1012816D0B0F1FF3F15D03A4678
:1029600031462046FFF7CEFC024640B92369B3F159
:10297000FF3FDFD1E4E702221046704702221046F3
:10298000F8BD0022FBE70222F9E70122F7E7000089
:1029900010B584B001900091144604A840F8041DBD
:1029A000FFF784F800281BDB124B03EB80035B6806
:1029B0000BB100221A70019BB3B100221A70019A68
:1029C0000C4B03EB8000426062B1012C02D000206E
:1029D00004B010BD0022694601A8FFF773F9F7E7BC
:1029E0000B20F5E70020F3E7024B03EB8003002008
:1029F0005860EDE7980300202DE9F0478EB0019173
:102A0000002800F0A880044615460023036002F069
:102A10001E0201A906A8FFF755F9064618B130466F
:102A20000EB0BDE8F08705F01F0803AB0C930199C9
:102A300006A8FFF7E3FD0B9F0346002839D1002FBE
:102A400000F08B8015F01C0F48D1FB7A13F0100FAB
:102A500040F0908015F0020F03D013F0010F40F00A
:102A6000878015F0080F01D048F02008069B1B6BEB
:102A7000E361276284F806804FF0000884F807803D
:102A8000069D39462846FEF7CAFF2061FA7FBB7FC4
:102A90001B0443EA02633A7F13437A7F43EA02232B
:102AA000E360C4F80880C4F818802560EB88A38030
:102AB000B5E715F01C0F04D0042806D048F008082C
:102AC0000B9F002BD6D01E46A9E706A8FFF7DDFE18
:102AD00048F008080B9F40B10646A0E7FB7A13F0C8
:102AE000110F41D115F0040F40D118F0080FBDD0DF
:102AF000FEF712FAB873C0F30723FB73030C3B74A1
:102B0000000E78740025FD723D777D77BD77FD77E7
:102B1000DDF8189039464846FEF781FFBD76FD7610
:102B20003D757D75012389F80430054600289BD04A
:102B3000D9F830A001464846FFF7F2FE08B1064634
:102B40006DE70698013DC5605146FFF73EF8002845
:102B50008AD0064663E7092661E715F01C0F01D10C
:102B60000623AEE70623A9E7072658E7082656E717
:102B7000072654E7042652E72DE9F04F83B00446B8
:102B80008946154698460023C8F80030FFF77EF8BE
:102B90000090002840F0B080E379002B40F0AB803B
:102BA000A37913F0010F00F0AB80E668A368F61A72
:102BB000AE4228BF2E46002E00F09E8004F1240372
:102BC000019358E06169FFF7C1FA64E00223E37101
:102BD000009391E00123E37100938DE00223E37100
:102BE000009389E0A37913F0400F03D0A069401B44
:102BF000584502D34FEA4B2532E04FF40072019959
:102C000009EB4020FEF7FAFEF4E7A269AA4218D0C9
:102C1000A37913F0400F0BD0012301999AF801001A
:102C2000FEF750F900285ED1A37923F04003A37189
:102C3000206801232A4601994078FEF72BF90028E5
:102C400055D1A561A168C1F30801C1F50075B54270
:102C500028BF354624312A4621444846FEF7CEFE99
:102C6000A944A3682B44A360D8F800302B44C8F8CB
:102C70000030761B40D0A268C2F30803002BE1D1DC
:102C800020688378013B03EA522313F0FF0708D141
:102C9000002A97D12069012898D9B0F1FF3F99D037
:102CA0006061D4F800A061695046FFF744FA054618
:102CB000002893D03D445FEA562BA6D09AF8023004
:102CC00007EB0B029A4288BFA3EB070B5B462A4631
:102CD00049469AF80100FEF7DDF8002882D001236A
:102CE000E371009308E00123E371009304E0012302
:102CF000E371009300E00093009803B0BDE8F08F0B
:102D000007230093F8E72DE9F04F83B00446884687
:102D1000164699460023C9F80030FEF7B7FF009029
:102D2000002840F0CF80E379002B40F0CA80A379DF
:102D300013F0020F00F0CA80A368F34280F0B7805E
:102D4000002E00F0B48004F12403019388E061694F
:102D5000FFF771FB0346002B00F0A980012B2AD05E
:102D6000B3F1FF3F2BD06361226902B92361A379DC
:102D700013F0400F27D1D4F800A061695046FFF747
:102D8000DAF9054680B33D445FEA562B43D09AF802
:102D9000023007EB0B029A4288BFA3EB070B5B469E
:102DA0002A4641469AF80100FEF78CF800B3012349
:102DB000E371009386E00223E371009382E0012334
:102DC000E37100937EE020680123A26901994078B5
:102DD000FEF778F820B9A37923F04003A371CAE77E
:102DE0000123E37100936DE00223E371009369E036
:102DF000A169491B594502D34FEA4B2525E04FF401
:102E0000007208EB41210198FEF7F8FDA37923F049
:102E10004003A371F0E7A369AB4203D0A268E36863
:102E20009A4237D3A561A068C0F30800C0F50075C9
:102E3000B54228BF354624302A4641462044FEF795
:102E4000DDFDA37943F04003A371A844A3682B449C
:102E5000A360D9F800302B44C9F80030761B26D087
:102E6000A268C2F30803002BDDD120688378013B00
:102E700003EA522313F0FF077FF479AF002A7FF4AF
:102E800066AF2369002B7FF469AF0021FFF7D3FA07
:102E9000034660E701232A4601999AF80100FDF7ED
:102EA000F9FF0028BED00123E37100930AE0A36874
:102EB000E268934288BFE360A37943F02003A371E3
:102EC00000E00093009803B0BDE8F08F0723009363
:102ED000F8E738B50446FEF7D9FE0346D0B9A27923
:102EE00012F0200F16D012F0400F0DD020680123F1
:102EF000A26904F124014078FDF7E4FF00283BD1EA
:102F0000A37923F04003A371E1692068FEF75DFE19
:102F1000034608B1184638BD256AEB7A43F0200312
:102F2000EB72E3682B77A3891B0A6B77E389AB7796
:102F3000E37BEB772369AB76C3F30722EA761B0CBE
:102F40002B751B0A6B75FDF7E7FFA875C0F3072308
:102F5000EB75030C2B76000E68760023AB74EB74D4
:102F6000A37923F02003A371236801221A7120683A
:102F7000FFF784F80346CDE70123CBE710B50446FD
:102F8000FFF7A7FF034608B1184610BD2046FEF71D
:102F90007DFE03460028F7D100222260F4E70000FE
:102FA0002DE9F04794B014AB43F84C0D894600224C
:102FB000027019460CA8FEF785FE0746002868D166
:102FC00003AB12930C9BD3F814A0CDF838A0BAF140
:102FD000000F00F086804C464FF0010800252AE0E3
:102FE00006A90CA8FEF72BFD9DF82130002B74D00C
:102FF0000DF121012B4600E013465A1C11F8010F78
:103000000028F9D1191DA1424FD8002A45D014A992
:103010000B442F3BA21A013C13F8010901990855F2
:103020009442F8D1541E019B2F221A55DDF838A086
:10303000BAF1000F3DD041460CA8FFF7F9F870BB7C
:1030400029460CA8FFF73FFC58BB11990C98FEF7D6
:10305000E6FC0E9029460CA8FFF7EAF818BB2946B3
:103060000CA8FFF730FC064660B911990C98FEF7E2
:10307000D6FC5045B4D029460CA8FFF739FA0646CD
:103080000028ECD0042E14BF37460227019B0022F3
:103090001A70384614B0BDE8F0872246C2E70746EA
:1030A000F4E70746F2E70746F0E71127EEE71127B6
:1030B000ECE7019A104B1B78303313703A235370AE
:1030C000A14515D0931C621C0199095D03F8011BF1
:1030D00014469145F7D83746D9E7022CE7D922465E
:1030E000A0E7019A044B1B78303313703A235370D6
:1030F000D31C2F219170CAE7980300202DE9F041DD
:1031000004460E46FEF7C2FD0746002840F0AD809B
:10311000E379002B40F0A880E368B34205D2A2799E
:1031200002F00202002A08BF1E46A3680022A26025
:10313000002E00F09A80206890F802804FEA48281C
:1031400073B1013B721EB2FBF8F2B3FBF8F18A4295
:1031500006D3C8F100021340A360F61A656902E0C5
:1031600025692DB16561002D4DD0464527D832E047
:103170000021FFF760F90546012804D0B0F1FF3FB8
:1031800004D02061EEE70227E7716EE00127E771C6
:103190006BE029462068FEF7D9FF0546B5F1FF3FF1
:1031A00027D0012D28D923689B69AB4224D96561BA
:1031B000A3684344A360A6EB0806B0450BD2A379ED
:1031C00013F0020FE5D029462068FFF734F90546D1
:1031D0000028E3D14646A3683344A360C6F308033E
:1031E00083B129462068FEF7A6FF40B100EB5625C3
:1031F00009E00127E77138E00227E77135E002278F
:10320000E77132E00025A368C3F30803E3B1A269C4
:10321000AA4219D0A37913F0400F0BD020680123E4
:1032200004F124014078FDF74DFEB8B9A37923F0ED
:103230004003A371206801232A4604F12401407849
:10324000FDF728FE68B9A561A368E26893420CD92E
:10325000E360A37943F02003A37106E00127E7713F
:1032600003E00127E77100E01F463846BDE8F08122
:1032700010B586B00191002831D00446002201A982
:1032800005A8FEF71FFD034620B100222260184664
:1032900006B010BD059B236002ABA36101992046D7
:1032A000FFF7ACF9034688B9616939B1CB7A13F0FD
:1032B000100F10D00598FEF7B2FBA060059BDB88CD
:1032C000A38000212046FEF7B3FF0346042B04D061
:1032D000002BDCD0D9E70523D7E70523D5E7092361
:1032E000D5E710B50446FEF7D1FC034608B9002225
:1032F0002260184610BD70B584B004460E46FEF735
:10330000C5FC0546A0B9B6B101ABA36100212046BA
:10331000FFF7D9FA042814D0C8B931462046FEF781
:103320008EFB00212046FFF7E3F804280CD0054669
:10333000284604B070BD00212046FEF779FF0546FF
:10334000F6E700232361E8E700232361F0E7054661
:10335000EEE770B50446FEF799FC054600284DD10E
:10336000E379002B46D1A27912F0020F40D0A36876
:10337000E168994242D9E36042F02002A271C3B9E8
:1033800021692068FFF7CCFA0023236160BBA37991
:1033900013F0400F32D020680123A26904F1240108
:1033A0004078FDF78FFD08BBA37923F04003A3719C
:1033B00024E061692068FEF7C9FE064601281BD09B
:1033C000B0F1FF3F1CD020688369B342DFD96FF0B2
:1033D00070426169FEF796FF08B105460DE031467F
:1033E0002068FFF79DFAD1E7054606E0012504E0D5
:1033F000072503E01D4601E00225E571284670BD62
:103400000125FAE770B596B016A941F8540D0122CE
:103410000EA8FEF757FC034610B1184616B070BD53
:1034200003AB149301990EA8FFF7E8F803460028B0
:10343000F3D1149BDB7A13F0200F2DD1139979B3BC
:10344000CC7A14F0010F2DD10E9D2846FEF7E7FA35
:103450000646002838D014F0100F27D06B6983423D
:103460001CD020220EA906A8FEF7C8FA0896022151
:1034700006A8FEF7DDFE03460028CED1002106A8EF
:10348000FFF721FA034678B10428C6D10EA8FEF74B
:103490001DFF034680B1C0E70623BEE70723BCE754
:1034A0000623BAE70723B8E70723B6E70EA8FEF717
:1034B0000DFF03460028B0D131460E98FFF730FAD1
:1034C00003460028A9D105E00EA8FEF7FFFE03463B
:1034D0000028A2D10E98FEF7D1FD03469DE700001B
:1034E000DFF834D0002103E00C4B5B58435004312B
:1034F0000B480C4B42189A42F6D30B4A02E00023C9
:1035000042F8043B094B9A42F9D306F011FB0BF049
:1035100007F903F097FB704700000320A02401087F
:10352000000000207803002078030020F825002008
:10353000FEE700000C4BDA6822F08072DA60DA688D
:1035400042F08072DA60094B1A6822F001021A60B8
:103550001A6842F001021A6000225A605A6800BFDD
:1035600000BF5868801A7047F0ED00E0001000E0DE
:103570007047000070B5204B9A6901329A61DB698F
:103580001BB11D4AD369013BD3611B4B1B78002B38
:103590002ED00024184E15E0C3680169984706EB49
:1035A00085056B685A689A606B681A7812F0010F8B
:1035B00003D11A786FF341021A700134E4B2337800
:1035C000A34215D9254606EB840358680028F4D099
:1035D000037813F0020FF0D08368002BDCD0013B9E
:1035E000836006EB840358688368002BD4D0E4E73B
:1035F000FFF7BEFF70BD00BFC4030020EFF30583DB
:103600005BB10A4A88B1136813F4803F03D1136891
:1036100013F4803FFBD00138F4E7054B99691A4653
:1036200093695B1A8342FBD37047704710E000E058
:10363000C4030020014B9869704700BFC4030020F9
:1036400038B50546C0F3C0028021154807F0FEFBDF
:10365000144CC5F380024021204607F0F7FBC5F368
:1036600040028021204607F0F1FB05F001024FF4F3
:103670008071204607F0EAFB01224FF400712046DA
:1036800007F0E4FB142001F0F1F800224FF4007180
:10369000204607F0DBFB142001F0E8F838BD00BF3E
:1036A000001802400008024010B5044600224FF402
:1036B0008071054807F0CAFB2009FFF7C1FF04F03D
:1036C0000F00FFF7BDFF10BD0000024000B583B042
:1036D00000238DF8043040238DF8053014238DF835
:1036E000063054238DF807300A4BDB788B4298BFA5
:1036F0000021084B5871997102AB194411F8043C30
:10370000184460F07F00C0B2FFF7CEFF03B05DF851
:1037100004FB00BFE403002010B5044601224FF46F
:103720008071054807F092FB2009FFF789FF04F03C
:103730000F00FFF785FF10BD0000024008B5012013
:10374000FFF7B2FF40F6B83001F090F808BD000076
:1037500070B51546FFF7BAFF2B784BB3154C002612
:1037600017E06671A1790131C9B2A1713046FFF746
:10377000ADFF12E0A1790131C9B2A1716079FFF703
:10378000A5FF03E0A1793046FFF7A0FF15F8013F40
:1037900073B1627923799A42E3D228780A28E9D072
:1037A0000D28EFD0FFF7B8FF637901336371EDE7C0
:1037B00070BD00BFE403002008B5054B187840F049
:1037C00004021A7040F00C00FFF76EFF08BD00BF46
:1037D000E403002070B506460D4600224FF48071C8
:1037E0002F4807F033FB2F4C00224FF40071204686
:1037F00007F02CFB00224FF48071204607F026FBD7
:1038000000228021204607F021FB00224021204693
:1038100007F01CFB00228021234807F017FB4AF623
:10382000C87001F023F8214BDD701E7100225A711F
:103830009A71012D84BF1D4B08225A700320FFF797
:10384000FFFE41F2941001F011F80320FFF7F8FE9B
:1038500041F2941001F00AF80320FFF7F1FE41F263
:10386000941001F003F80220FFF7EAFE642000F054
:10387000FDFF0E4C607840F02000FFF715FF042399
:103880002370FFF799FFFFF759FF0223A37006206B
:10389000FFF70AFF41F2941000F0E8FF70BD00BF8F
:1038A000000002400008024000180240E40300202B
:1038B000036813F0400F17D0B2B10A44836813F0C5
:1038C000020FFBD0836813F0800FF7D111F8013B92
:1038D0000373836813F0010FFBD0836813F0800F2C
:1038E000F7D183899142E9D1704710B4046814F08C
:1038F000400F17D0B3B1CC18836813F0020FFBD080
:10390000836813F0800FF7D10273836813F0010FFF
:10391000FBD0836813F0800FF7D1037B01F8013BE4
:10392000A142E9D15DF8044B7047000030B583B087
:1039300002AC04F8010D00224FF400510A4807F0D0
:1039400085FA0A4D00220421284607F07FFA6423F5
:1039500001222146064808F017FC012204212846CE
:1039600007F074FA03B030BD000C024000080240BA
:10397000301A002030B583B002AC04F8010D0122EA
:103980004FF400510A4807F061FA0A4D0022042161
:10399000284607F05BFA642301222146064808F016
:1039A000F3FB01220421284607F050FA03B030BD92
:1039B000000C024000080240301A0020F8B507460B
:1039C0000D4616461C462A20FFF7B0FF380AFFF7BF
:1039D000D1FFF8B2FFF7CEFF300AFFF7CBFFF0B20E
:1039E000FFF7C8FF2B20FFF7A1FF280AFFF7C2FF50
:1039F000E8B2FFF7BFFF200AFFF7BCFFE0B2FFF716
:103A0000B9FFF8BD10B514460B460246FFF7D6FFC6
:103A10002C20FFF78BFFC4F30720FFF7ABFFE0B2CA
:103A2000FFF7A8FF10BD00002DE9F04182B08046ED
:103A30000E4617461C46BDF820504FEA152C8DF84F
:103A400004C08DF80550FFF7B9FF2C20FFF76EFF7B
:103A5000A7EB0807A31B013307FB03370022042150
:103A6000244807F0F3F901224FF40051224807F0EF
:103A7000EDF9224B19680A6822F040020A604FF4FF
:103A80000062DA601A68136843F040031360B7F508
:103A9000803F0DD34FF6FF74184E02252A4601A928
:103AA000304608F011FE013CF8D1A7F57F47FF3FF3
:103AB0005FB101370124114E02252A4601A9304683
:103AC00008F002FE0134BC42F7D10122042109486A
:103AD00007F0BCF9094B19680A6822F040020A6035
:103AE0000022DA601A68136843F04003136002B0E2
:103AF000BDE8F08100080240000C0240301A0020AE
:103B000000B583B0064A53881288013A80B200900B
:103B100092B200210846FFF787FF03B05DF804FB6F
:103B2000E407002082B00190019B2BB1019B013B77
:103B30000193019B002BF9D102B0704710B59B4C4B
:103B400000224FF48051204607F080F944F62060AF
:103B5000FFF7E8FF01224FF48051204607F076F985
:103B600044F62060FFF7DEFF0120FFF7DFFE4CF296
:103B70005030FFF7D7FFCB20FFF7D8FE3920FFF7F3
:103B8000F9FE2C20FFF7F6FE0020FFF7F3FE3420AD
:103B9000FFF7F0FE0220FFF7EDFECF20FFF7C6FE95
:103BA0000020FFF7E7FEC120FFF7E4FE3020FFF71B
:103BB000E1FEE820FFF7BAFE8520FFF7DBFE0020DC
:103BC000FFF7D8FE7820FFF7D5FEEA20FFF7AEFE1C
:103BD0000020FFF7CFFE0020FFF7CCFEED20FFF71F
:103BE000A5FE6420FFF7C6FE0320FFF7C3FE1220E8
:103BF000FFF7C0FE8120FFF7BDFEF720FFF796FE1E
:103C00002020FFF7B7FEC020FFF790FE2320FFF72C
:103C1000B1FEC120FFF78AFE1020FFF7ABFEC520E2
:103C2000FFF784FE3E20FFF7A5FE2820FFF7A2FE47
:103C3000C720FFF77BFE8620FFF79CFE3620FFF7AC
:103C400075FE4820FFF796FE3A20FFF76FFE5520DD
:103C5000FFF790FEB120FFF769FE0020FFF78AFE14
:103C60001820FFF787FEB620FFF760FE0820FFF759
:103C700081FE8220FFF77EFE2720FFF77BFEF220E9
:103C8000FFF754FE0020FFF775FE2A20FFF74EFED7
:103C90000020FFF76FFE0020FFF76CFE0020FFF70B
:103CA00069FEEF20FFF766FE2B20FFF73FFE0020A6
:103CB000FFF760FE0020FFF75DFE0120FFF75AFED0
:103CC0003F20FFF757FE2620FFF730FE0120FFF7C9
:103CD00051FEE020FFF72AFE0F20FFF74BFE3120B8
:103CE000FFF748FE2B20FFF745FE0C20FFF742FEB2
:103CF0000E20FFF73FFE0820FFF73CFE4E20FFF7A7
:103D000039FEF120FFF736FE3720FFF733FE07209C
:103D1000FFF730FE1020FFF72DFE0320FFF72AFEED
:103D20000E20FFF727FE0920FFF724FE0020FFF7F3
:103D300021FEE120FFF7FAFD0020FFF71BFE0E2019
:103D4000FFF718FE1420FFF715FE0320FFF712FE01
:103D50001120FFF70FFE0720FFF70CFE3120FFF7C1
:103D600009FEC120FFF706FE4820FFF703FE0820EA
:103D7000FFF700FE0F20FFF7FDFD0C20FFF7FAFD17
:103D80003120FFF7F7FD3620FFF7F4FD0F20FFF796
:103D9000F1FD1120FFF7CAFD0548FFF7C3FE2920FA
:103DA000FFF7C4FD2C20FFF7C1FD10BD000C024041
:103DB00040420F0008B5012204210B4807F046F8E5
:103DC000FFF7BCFE0023094A1380094A1380094B00
:103DD000F0221A804FF4A0725A8001221A714FF615
:103DE000FF70FFF78DFE08BD00080240EA070020C3
:103DF000E0070020E407002010B504463620FFF756
:103E000095FD84B1012C1AD0022C1CD0032C1ED09D
:103E1000012C0BD9104B4FF4A0721A80F0225A805B
:103E200000221A7110BD5820FFF7A4FD0A4BF022A2
:103E30001A804FF4A0725A8001221A71F2E788208A
:103E4000FFF798FDF2E72820FFF794FDE2E7E8206E
:103E5000FFF790FDDEE700BFE40700202DE9F04DFD
:103E600082B093461D462A4B18802A4B19802B7826
:103E70001844294B1B88984206DD6B781944254B62
:103E80001980234B00221A80214B1888214B198856
:103E90006B780B442A780244BDF82C4000949BB206
:103EA00092B2FFF7C1FD6A7852B34FF00008DFF815
:103EB00064A0174F18E001342B78A3420FD906FAFB
:103EC00004F313F4004FF6D0BAF8001041443888D8
:103ED00020440A9A89B280B2FFF794FDEBE708F11B
:103EE00001086A7842450BD9ABF1200302FB03833A
:103EF0006A6832F813602B78002BF0D00024DEE7DC
:103F0000034A2B7811880B44138002B0BDE8F08D72
:103F1000E0070020EA070020E40700202DE9F04F29
:103F200083B0824614461E46DDF83090DDF83480BA
:103F3000164B1880164B19801D46144F4FF0000B7E
:103F40000FE02B885A1C737813442B8063780D2B59
:103F500006BFA7F800B00134A7F800A0013400E0C4
:103F60000134227872B10A2AEBD00D2AF8D001343C
:103F700029883888CDF80480CDF800903346FFF7C3
:103F80006DFFEEE703B0BDE8F08F00BFE007002053
:103F9000EA07002010B582B0904202D904461046CC
:103FA0002246994202D90C4619462346BDF81040D4
:103FB0000094FFF739FD01220421024806F046FF74
:103FC00002B010BD00080240014B185C704700BFF2
:103FD000D0000020074B187CFF280AD05B7CFE2B0A
:103FE00006D0054B00221A80024BFE225A747047FD
:103FF000FF207047D0000020EC03002038B50546B4
:104000001C4C01224FF48051204606F01FFF012274
:104010002021204606F01AFF01224021204606F00A
:1040200015FF01224FF40051134806F00FFF012D38
:1040300006D0022D0AD0032D0ED0042D12D038BD8B
:1040400000221021204606F001FFF6E70022202181
:10405000084806F0FBFEF2E700224021054806F082
:10406000F5FEECE700224FF40051034806F0EEFEA7
:10407000E5E700BF001002400008024008B500203C
:10408000FFF7BCFF08BD000010B504464FF4807177
:10409000134806F0D5FE18B912482044C07C10BD64
:1040A00080210F4806F0CCFE18B90E482044C07D90
:1040B000F5E74FF480610C4806F0C2FE18B90948D4
:1040C0002044C07EEBE74FF40071054806F0B8FECF
:1040D00018B904482044C07FE1E7FF20DFE700BFB4
:1040E00000040240D00000200018024008B5012062
:1040F000FFF784FF0120FFF7C7FFFF2800D008BDAE
:104100000220FFF77BFF0220FFF7BEFFFF28F6D15A
:104110000320FFF773FF0320FFF7B6FFFF28EED160
:104120000420FFF76BFF0420FFF7AEFFE7E7000076
:1041300008B5FFF7DBFF114B1874114B1B880133D7
:104140009BB2B3F5FA7F0FD30D4B00221A80FF28E4
:104150000DD01A469B780133DBB29370042B09D142
:10416000074B00229A7005E0054A138005E0044BD6
:1041700000229A70014BFF225A7408BDD000002023
:10418000EC0300200B4B9B681844B0F5801F28BF40
:10419000C0F31300074B9860064A9368C3F31001FD
:1041A0001160C3F34B115160C3F34743137313748E
:1041B000704700BFF00300200B4BDB691844B0F5DB
:1041C000801F28BFC0F31300074BD861064AD3698C
:1041D000C3F310015161C3F34B119161C3F3474322
:1041E00082F8203013747047F003002010B5054B9F
:1041F00003EB8004012233F81010206906F026FE3C
:1042000010BD00BF9819010810B5054B03EB8004E1
:10421000002233F81010206906F018FE10BD00BF10
:104220009819010800B583B0642301220DF107013C
:10423000034808F096F99DF8070003B05DF804FB09
:10424000301A0020014B9868704700BFF00300202F
:1042500008B501290FD011B1022909D008BD0B4BB7
:1042600000221A605A609A601A74FFF78BFFF5E714
:10427000FFF788FFF2E7054B00221A605A609A6048
:104280001A74C0F58010FFF77DFFE7E7F003002008
:1042900008B501290FD011B1022909D008BD0B4B77
:1042A00000225A619A61DA611A74FFF785FFF5E717
:1042B000FFF782FFF2E7054B00225A619A61DA614B
:1042C0001A74C0F58010FFF777FFE7E7F0030020CE
:1042D000014BD869704700BFF003002000B583B0E0
:1042E00002A901F8010D64230122034807F04CFFE5
:1042F00003B05DF804FB00BF301A002010B50020A9
:10430000054B18741C46FFF771FF207C0130C0B2CA
:1043100020740728F7D910BDF003002038B50546F2
:10432000074C207CFFF770FF0120FFF7D7FF2846DE
:10433000FFF7D4FF207CFFF759FF002038BD00BFF6
:10434000F003002070B504460D4616461846FFF7E8
:10435000C5FF3046FFF7C2FF2846FFF7BFFF2046E4
:10436000FFF7BCFF70BD00002DE9F04106460F4687
:1043700090461C46069D4020FFF7D0FF0C4B187C52
:10438000FFF742FF0223424639463046FFF7DAFF85
:1043900035B1254414F8010BFFF7A0FFA542F9D170
:1043A000034B187CFFF722FF0020BDE8F08100BF1F
:1043B000F003002070B582B02E4A526912F01F023D
:1043C00014BFC2F120051546002934D00C4606461C
:1043D0001F2922D98AB9274B9A7D597D187D20251E
:1043E00000953346FFF7C0FF2846FFF7E5FEA4F12E
:1043F00020017019FFF7DEFF1DE01E4B9A7D597DED
:10440000187D00953346FFF7AFFF2846FFF7D4FE2F
:10441000611B7019FFF7CEFF0DE0FAB18D420CD38E
:10442000144B9A7D597D187D00943346FFF79CFF0D
:104430002046FFF7C1FE02B070BD4C1B0D4B9A7DAC
:10444000597D187D00953346FFF78EFF2846FFF70C
:10445000B3FE21467019FFF7ADFFECE7054B9A7DDF
:10446000597D187D00943346FFF77EFF2046FFF705
:10447000A3FEE0E7F00300202DE9F04106460F46D9
:1044800090461C46069D4020FFF748FF0C4B187CC9
:10449000FFF7BAFE0323424639463046FFF752FF84
:1044A00035B12544FFF7BEFE04F8010BA542F9D152
:1044B000034B187CFFF79AFE0020BDE8F08100BF97
:1044C000F003002070B582B02E4A126812F01F026D
:1044D00014BFC2F120051546002934D00C4606460B
:1044E0001F2922D98AB9274B9A785978187820251C
:1044F00000953346FFF7C0FF2846FFF743FEA4F1BF
:1045000020017019FFF7DEFF1DE01E4B9A785978E5
:10451000187800953346FFF7AFFF2846FFF732FEC5
:10452000611B7019FFF7CEFF0DE0FAB18D420CD37D
:10453000144B9A785978187800943346FFF79CFF0B
:104540002046FFF71FFE02B070BD4C1B0D4B9A7842
:104550005978187800953346FFF78EFF2846FFF705
:1045600011FE21467019FFF7ADFFECE7054B9A7875
:104570005978187800943346FFF77EFF2046FFF7FE
:1045800001FEE0E7F003002010B5406C054C0A2264
:1045900021460AF04DFA224601210020FFF7D8F803
:1045A00010BD00BFEC07002008B50368274A9342FE
:1045B00003D0274A934203D008BD02F0B5FAFBE7C7
:1045C00005F06AFD234B18603F28F5D0C008072886
:1045D000F2D801A353F820F0F9450008B9450008C6
:1045E000B945000823460008B945000831460008CF
:1045F000B94500083F460008174B1B79DBB2012B79
:1046000007D00121144B1971144A0020FFF7A0F8BC
:10461000D2E70020104B1871114A0121FFF798F8DA
:10462000CAE70D4A136C013B136400F057FFC3E760
:10463000094A136C0133136400F050FFBCE7064ACB
:104640005379B3FA83F35B095371B5E70022014054
:104650000020014034040020F4150020F41A010861
:10466000E41A010800B585B019481A4B03604FF4ED
:10467000803343604FF040738360002303618361A4
:1046800003624FF08052C2624FF070628262C36078
:104690000122C2610363426105F018FB68B904237B
:1046A000009301230193072302936946084805F00C
:1046B000DFFD38B905B05DF804FB9821064802F02B
:1046C0001DFCECE7A221044802F018FCF2E700BF51
:1046D0005408002000200140041B010800B585B0EB
:1046E0001E481F4B03604FF4803343604FF040730C
:1046F000836001220261826100230362C36219495F
:104700008162C3600221C1610263436105F0DEFA88
:10471000A0B90123009301930623029369460F4831
:1047200005F0A6FD78B902230093019369460B4872
:1047300005F09EFD60B905B05DF804FBBB210A4899
:1047400002F0DCFBE5E7C521074802F0D7FBEAE70A
:10475000CE21054802F0D2FBEDE700BF9C08002007
:10476000002201400100000F041B0108F0B589B0D0
:104770000368374A934205D00446364A934225D00F
:1047800009B0F0BD00240194334B5A6C42F480729E
:104790005A645B6C03F480730193019B10260396AB
:1047A0000327049705942D4D03A9284606F056FAD1
:1047B00022463946122005F03BFE122005F06AFE23
:1047C00022463146284606F041FBD9E700250295EE
:1047D000214B5A6C42F480625A645B6C03F4806330
:1047E0000293029B0623039303230493059503A9D5
:1047F0001A4806F033FA1A481A4B03604FF08063E8
:1048000043608560C5604FF4806303614FF480535B
:1048100043614FF4804383614FF48073C3614FF46D
:1048200080330362456205F0D7FF58B90C4BA36390
:104830009C6300220321122005F0FAFD122005F0EE
:1048400029FE9DE740F20D11074802F057FBEDE706
:1048500000200140002201400038024000000240D8
:10486000F407002028640240041B010838B5044600
:10487000074B5D6807F0F4FA064BA3FB0030800C91
:1048800004FB00F4024A53685B1BA342FBD338BD10
:10489000001000E083DE1B4310B582B002AC04F8C8
:1048A000010D0A20FFF7E2FF0A23012221460248F8
:1048B00007F06AFC02B010BDE81A002008B50A2013
:1048C000FFF7D4FF08BD000000B583B002A90023A4
:1048D00001F8013D0A230122034807F042FE9DF83A
:1048E000070003B05DF804FBE81A002070B5064627
:1048F0000D460C4C00224FF48061204606F0A6FACB
:1049000046F05000FFF7C8FF0020FFF7C5FF28461C
:10491000FFF7C2FF01224FF48061204606F096FAAD
:1049200070BD00BF0008024038B505460D4C00229E
:104930004FF48061204606F089FA45F01000FFF739
:10494000ABFF0020FFF7A8FFFFF7B8FFFFF7BCFFA2
:10495000054601224FF48061204606F077FA28468A
:1049600038BD00BF0008024038B50546084C00229B
:104970004FF48061204606F069FA2846FFF78CFF65
:1049800001224FF48061204606F060FA38BD00BF76
:104990000008024008B530B1012809D002280CD027
:1049A00003280FD008BD01210846FFF79FFFF9E754
:1049B00023210120FFF79AFFF4E745210120FFF7AB
:1049C00095FFEFE767210120FFF790FFEAE700007E
:1049D00070B5054C054E04252946304606F030FAE0
:1049E00008B1013CF8D170BD801A0600000C0240ED
:1049F00070B505460C46154B18705970FFF7E8FF67
:104A0000134B1E5D134C00224FF48061204606F0CC
:104A10001DFA5020FFF740FF0320FFF73DFF06205F
:104A2000FFF73AFF0820FFF737FF2846FFF734FF6C
:104A30003046FFF731FF01224FF48061204606F037
:104A400005FA3220FFF712FF70BD00BFB807002043
:104A5000C81901080008024008B5FFF7B9FF002097
:104A6000FFF762FFC0F3071008BD000070B5144ED9
:104A700000224FF48061304606F0E8F90120FFF78C
:104A80000BFFFFF71BFFFFF71FFF0E4D2870FFF70F
:104A90001BFF6870FFF718FFA8702B786C78240252
:104AA00044EA0344044301224FF48061304606F097
:104AB000CDF914F4000F18BF44F07F44204670BDB8
:104AC000000802403C04002010B582B08DF80400BC
:104AD0000B0A8DF805308DF806100C4C01222021B0
:104AE000204606F0B3F900222021204606F0AEF958
:104AF0006423032201A9064807F046FB0122202176
:104B0000204606F0A3F902B010BD00BF000C024021
:104B1000E81A002070B582B000258DF80050030A15
:104B20008DF801308DF8020034238DF803300B0A24
:104B30008DF804308DF80510124C2A4620212046AD
:104B400006F084F9104E642303226946304607F0CC
:104B50001BFB01222021204606F078F92A4620215D
:104B6000204606F073F9642303220DEB0201304660
:104B700007F00AFB01222021204606F067F902B067
:104B800070BD00BF000C0240E81A0020014B186005
:104B9000704700BF44040020024B5A6802609B68C3
:104BA0000B6070474404002030B4194B5860996082
:104BB000184B5B7FDBB2012B15D0174B00EB40008D
:104BC00003EB80004468134A106900FB04F0104DA9
:104BD000E8609460013101EB410103EB81014B6816
:104BE000D36030BC70470B4B5B78DBB2012BE4D158
:104BF000084B1B78DBB2012BDFD14B1C03EB4303CB
:104C0000054A02EB8303024A12685A60D5E700BFE7
:104C100044040020F4150020740A0020914213DAA5
:104C200001F10041013900EB4101023800EB420281
:104C30000231B1F90030002BB8BF03339B1003F5EC
:104C400000630B809142F3D17047000000B583B040
:104C5000ADF80600114B9B7823B1114BDB68B3F51F
:104C6000000F02D303B05DF804FB087803F1504352
:104C700001220DF1060103EB101004F085FA074A3A
:104C800010690749CB680344CB60537FDBB2012B2B
:104C9000E8D10B6801330B60E4E700BFF415002096
:104CA0004404002030B585B0ADF806004A4B9B782F
:104CB0004BB315460C46494BDB68B3F5000F15D2D4
:104CC0000A7812F0010F20D12A7812F0010F45D195
:104CD000414A10694149CB680344CB60537FDBB242
:104CE000012B64D03C4A9368013393603A4BDB68F4
:104CF00023B1394B9A68DB689A425CD2374BDB6848
:104D0000B3F5000F62D005B030BD087803F1504311
:104D100001220DF1060103EB101004F035FA2E4AC2
:104D2000536992F8201001F0010103EB43022C4B70
:104D300003EB82030B441B7A012BC9D12878274B44
:104D4000DB6803F1504301220DF10E0103EB10105B
:104D500004F010FABDF90E306B80B9E7287803F142
:104D6000504301220DF1060103EB101004F00CFA80
:104D7000194A536992F8201001F0010103EB430234
:104D8000174B03EB82030B441B7A012BA0D1207835
:104D9000124BDB6803F1504301220DF10E0103EBCE
:104DA000101004F0E7F9BDF90E30638090E70B684E
:104DB00001330B6096E7012004F038F8064B00221F
:104DC0001A700849012008709A709CE70023034A72
:104DD000D360014A937096E7F41500204404002044
:104DE000740A0020780400204D4B9B7803B970476B
:104DF00030B583B00C46054608784A4BDB6803F1B2
:104E0000504301220DF1060103EB101004F0B2F93A
:104E1000BDF906305A1912B222816380227812F04D
:104E2000040F32D123891BB26268934202DD2389C9
:104E30001BB26360237813F0080F3FD1384B9A6898
:104E400001329A601A693749C8680244CA60996891
:104E5000DB68994259D3237813F0080F3BD12378AC
:104E60006FF3820323704FF07E53E36043F6FF73CA
:104E700063602B4B5B7FDBB2022B42D0294B9968DE
:104E80005868FFF791FE03B030BD94ED037AD4ED7E
:104E9000036A07EE903AF8EEE77A67EE877A07EE54
:104EA000105AB8EEC77A27EE267A77EE877AFDEEAB
:104EB000E77A17EE903A1BB22381B3E7214611F847
:104EC000080B184BDB6803F15043012203EB101071
:104ED00004F05AF9B2E76368B3F5804FBFDB23787B
:104EE00043F0040323706068FBF7D4FA02460B46D4
:104EF00009A1D1E90001FBF761FCFBF767FDE06068
:104F0000B4E7074B00229A70B8E7B2F5000FBAD1A8
:104F1000044B0022DA60B6E70000000080FFCF40BB
:104F2000F4150020440400201D4B9B7803B9704702
:104F300070B582B014460D461A4EF068012201A9E0
:104F400000F1504004F00CF9BDF904306B80BDF95C
:104F500006306380124B9A6801329A601969F268D0
:104F60000A44F2609A68DB689A4209D30C4B5B7F73
:104F7000DBB2022B0BD00B4B99685868FFF714FE7D
:104F8000084BDB68B3F5000F05D002B070BD044BD1
:104F900000229A70EFE7034B0022DA60F5E700BFCA
:104FA000F41500204404002008B5418801F57F5124
:104FB0003F3189B21020FFF787FD08BD08B5274BA8
:104FC000DB7883B1254B5B6903EB4303244A02EB97
:104FD00083031B7A3BB1214B5B6903EB430302EB79
:104FE00083035B7A43B9037813F0010F0FD10B7879
:104FF00013F0010F1ED108BD4388498843F6FF70A6
:105000000144184489B280B2FFF784FDF3E7134BE3
:105010005B6903EB4303124A02EB83031B7A002B09
:10502000E5D0418801F57F513F3189B21020FFF76B
:105030004BFDE0E7094B5B6903EB4303084A02EBD6
:1050400083035B7A002BD6D0498801F57F513F312D
:1050500089B22420FFF738FDCDE700BFF41500200A
:10506000740A0020164BDB78DBB2012B0ED0144BF8
:1050700002221A6193F820206FF3071283F8202090
:1050800093F8303013F0010F11D170470C4B04220C
:105090001A6193F820206FF3071283F8202093F809
:1050A0003020022161F3071283F830207047044A50
:1050B00092F830306FF3071382F83030E5E700BF25
:1050C000F415002010B50D4B00249C7093F820209F
:1050D00042F0010283F8202093F8302064F30002AC
:1050E00083F83020FFF7BEFF2046FFF753FCF02087
:1050F000FFF73AFCF120FFF737FC10BDF415002054
:1051000008B50D4B0021997093F8302042F0010250
:1051100083F8302093F8202061F3000283F82020E8
:10512000FFF7A0FF0120FFF735FCF020FFF71CFC84
:10513000F120FFF719FC08BDF415002008B5044A5A
:10514000D378B3FA83F35B09D370FFF78BFF08BD05
:10515000F415002003786FF38203037003786FF374
:10516000C303037043F6FF7343604FF07E53C36085
:105170000023438070470000154B9B78DBB2012B66
:105180000BD0134A01239370124B197C1170597C78
:10519000517000221A745A7470470D4B00229A7095
:1051A0001B78DBB2012B09D0094B5B78DBB2012BFA
:1051B00009D0074B00221A705A707047044B1A78B6
:1051C000044B1A74F0E7024B5A78024B5A74F0E71A
:1051D000F41500204404002038B50E4D00242C7036
:1051E0006C70AC702C7705F12000FFF7B3FF05F170
:1051F0003000FFF7AFFF084B1C6000F0C9FA012038
:1052000003F014FE204603F011FE044B01221A7035
:1052100038BD00BFF41500204404002078040020AD
:1052200000B583B00E480F4B036005F074F960B908
:105230000C2300930023019310226946084805F0CF
:1052400073FA38B903B05DF804FB4921064801F050
:1052500055FEEDE75221044801F050FEF2E700BF91
:10526000F008002000740040381B01080268214B40
:105270009A4200D0704730B587B0044600250095AB
:1052800003F5E2331A6C42F000521A641B6C03F00F
:1052900000530093009B2023019303230293039563
:1052A00001A9154805F0DAFC1448154B03604FF0CE
:1052B0006063436040238360C5604FF48063036193
:1052C0004FF4006343614FF4005383614FF48073E4
:1052D000C3614FF400330362456205F07DFA20B9E3
:1052E000064BE3609C6307B030BD7921054801F0AF
:1052F00005FEF5E7007400400000024004090020AC
:10530000A0600240381B010810B582B00024009450
:105310001A4B1A6B42F400121A631A6B02F4001251
:105320000092009A01941A6B42F480021A631B6B7C
:1053300003F480030193019B02220121112005F057
:1053400077F8112005F0A6F803220121392005F095
:105350006FF8392005F09EF8224603213B2005F026
:1053600067F83B2005F096F8022203213C2005F067
:105370005FF83C2005F08EF802B010BD0038024006
:1053800010B582B0012818D018B1022829D002B077
:1053900010BD1E4C1E4B1A681E49204609F0C0FA6B
:1053A00040F21D5301934FF6E07300931A4B2246CF
:1053B0005A217820FEF7B2FDE9E7144C144B5A68E5
:1053C0001449204609F0ACFA40F21D5301934FF600
:1053D000E0730093104B22466E217820FEF79EFD6D
:1053E000D5E70A4C0A4B9A680A49204609F098FA10
:1053F00040F21D5301934FF6E0730093064B224693
:1054000082217820FEF78AFDC1E700BF74180020D2
:10541000F400002078210108C000002030B587B0DA
:105420000446214B0FCB06AD05E90F001F4B01933E
:105430001F4B00931F4B204A5A21042002F024FBEB
:1054400004EB8405AD0006AB03EB840353F8102C8A
:105450001F2301934FF478430093184B05F15A0131
:105460000A20FEF75BFD6CB940F21D5301934FF427
:1054700078430093114B0D4A96210A20FEF74EFD0A
:1054800007B030BD06AB03EB840454F8142C40F293
:105490001D5301934FF478430093084B05F14601E7
:1054A0000A20FEF73BFDEBE7D8190108801B010835
:1054B000881B01086C1B0108781B0108C000002034
:1054C00010B4054B1C680460586808609B68136042
:1054D0005DF8044B704700BFF4000020014B01222F
:1054E0001A707047580400202DE9F04182B04AF24A
:1054F0005420FEF705FB394B0093394B394A0A21FA
:10550000032002F0C1FA0020FFF788FF0020FFF718
:1055100037FF0120FFF734FF0220FFF731FF00249F
:10552000314D324E06F10408FEF754FD287005286F
:10553000FAD801A353F820F0D155000851550008BE
:105540006F550008295500085F5500086F55000881
:105550000CB1013CE4B22046FFF760FFE4E7022C07
:105560009CBF0134E4B22046FFF758FFDCE7012C72
:1055700017D0A4B1022C16D03B6863B1052815D012
:1055800002281CD07268336803FB02F3302B02D967
:105590003B68013B3B602046FFF7F2FEC4E737461D
:1055A000EAE74746E8E706F10807E5E73268012A37
:1055B000E8D97268012AE5D9013B3B60E2E77168EE
:1055C000326802FB01F22F2A9CBF01333B60D9E70E
:1055D000074B01221A7002B0BDE8F081B81B010828
:1055E000941B0108AC1B010892180020F400002055
:1055F0007704002030B585B0054600210846FEF747
:1056000047FE104C2268636803FB02F303EB83033D
:105610001C330193012302930B4B1B6803930C2152
:1056200001A8FEF7C7FE10212046FEF7C3FE23683F
:10563000616801FB03F101EB81012846FEF7BAFE28
:1056400005B030BDE0130020C014002030B585B097
:10565000054600210846FEF7FBFD00210846FEF73F
:1056600017FE0C2101A8FEF72DFF019C6CB3194A0F
:105670001168536803FB01F303EB830304F1100289
:1056800013440193029B01330293134B1A68039B4B
:105690009A4202D9104B1B6803930C2101A8FEF714
:1056A00089FE00212046FEF7F3FD0A4C102120461A
:1056B000FEF780FE2368616801FB03F101EB8101C5
:1056C0002846FEF777FE05B030BD2846FFF792FF6B
:1056D000F9E700BFE0130020C01400202DE9F041DD
:1056E00088B005460E461446264B00205870987028
:1056F0000146FEF7ADFD0C2101A8FEF7E3FE019B7C
:105700003360029B2B60039B23602A68002A36D0FB
:10571000302B34D81C4B00225A601A725A722B68F4
:105720006BB3194C16461746DFF8608004E001366B
:105730000C342B68B34222D927726772FEF782FDC0
:10574000206010210DEB0100FEF7BCFE049B0599C3
:1057500001FB03F101EB81014046FEF7B3FE2B682C
:10576000B342E4D9049BC3EB03134EF660220699BF
:10577000B2FBF1F2616802FB03132361D7E708B0C3
:10578000BDE8F08158040020740A0020D0140020E5
:1057900008B5054B00221A77044807F04FF864203B
:1057A000FDF72CFF08BD00BFF4150020541C00209D
:1057B00030B485680368446804FB03F40C60036834
:1057C0004EF66022B2FBF5F203FB02F34B60486831
:1057D0000A68B0FBF2F302FB13038B604B680A68A4
:1057E000B3FBF2F3CB6030BC7047000038B5002348
:1057F0000C4A537001EB4102194650F82200FEF7A3
:1058000027FD094D10212846FEF75CFE074C214676
:105810002846FFF7CDFF216801EB81010448FEF720
:1058200051FE38BD58040020E0130020C0140020B1
:10583000D014002030B485680E4B1A6C036844689D
:1058400004FB03F40C60036850194EF66022B2FBAF
:10585000F0F203FB02F34B6048680A68B0FBF2F316
:1058600002FB13038B604B680A68B3FBF2F3CB6057
:1058700030BC7047F415002010B5F02422460021FA
:10588000064808F08CFF22460021054808F087FFF3
:10589000C0220021034808F082FF10BDD014002070
:1058A0006409002000140020024B00225A609A6014
:1058B000DA607047580400202DE9F04383B06A4C49
:1058C00065696A4B00225A709A7061696848FFF7EF
:1058D0008DFFFFF7E9FF674806F0A4FF0223637717
:1058E00001232377614E644F237FDBB2012B3DD12F
:1058F0006269A36901339A4238D20123A370737895
:10590000002B56D1DFF89091DFF890814946404650
:10591000FFF790FF594BC3F80090594BC3F8008034
:10592000584B594A1A6001F0DFFF6269A3699A4235
:105930002CD16269DFF8688101325449404608F091
:10594000EFFF40F21D53019300230093504B42465A
:1059500096210A20FEF7E2FAB378002B51D1237F7B
:10596000DBB2032B02D0237F002BF5D1FFF710FF12
:105970003D4B5D61002098705870187003F056FA26
:10598000012003F053FA03B0BDE8F083DFF814817F
:1059900010214046FEF796FD39464046FFF708FFC6
:1059A000396801EB81013B48FEF78CFD01237370E0
:1059B000BFE7DFF8F08039464046FFF73BFF2F4B4B
:1059C0001F602F4BC3F800802E4B324A1A60626969
:1059D000A3699A42ADD0DFF8C49010214846FEF783
:1059E00071FDDFF8B48041464846FFF7E1FED8F884
:1059F000001001EB81012448FEF764FD0023737061
:105A000097E70023B3702378DBB2012B17D06369CB
:105A1000013363616269A36901339A427FF464AF21
:105A20002378DBB2012B1AD0656100237370B37049
:105A300061690F48FFF7DAFEFFF736FF54E7616947
:105A400094F8202002F0010282F0010201EB4101F2
:105A5000074B03EB8103134401221A72D7E7024B71
:105A600000221A7082E700BFF415002058040020BD
:105A7000740A0020541C0020580A0020540A0020F8
:105A8000700A0020680A0020D0140020C81B0108FA
:105A9000C000002064090020C0140020E013002092
:105AA00074180020F013002038B50546FEF792FA6E
:105AB0000446FF2813D0012D13D01E4B1B7963B36E
:105AC00004F11C03DBB21C4A1374517C8B422CD1B1
:105AD000194D297C012003F03FF82B7C6B74204684
