:020000040800F2
:100000000000032059190008A9190008A9190008BF
:10001000A9190008A9190008A91900080000000082
:10002000000000000000000000000000AD5C0008BF
:10003000A919000800000000B15C0008B55C0008C8
:10004000A9190008C55C0008A9190008A919000829
:10005000A9190008A9190008E15D0008A9190008FC
:10006000C95C0008A9190008D15C0008A91900089A
:10007000A9190008A9190008A9190008A919000858
:10008000A9190008D95C0008E55C0008A919000856
:10009000A9190008A9190008A9190008015D00089C
:1000A0001D5D0008A9190008A9190008A919000870
:1000B000315D0008A9190008455D0008A91900086C
:1000C000A9190008A9190008A9190008A919000808
:1000D000A9190008A9190008A9190008A9190008F8
:1000E000595D0008A9190008A9190008A9190008F4
:1000F000795D0008A9190008A9190008A9190008C4
:10010000A9190008A9190008A9190008A9190008C7
:10011000A9190008A9190008A9190008A9190008B7
:10012000A9190008B15D0008A9190008BD5D000803
:10013000C95D0008A9190008A9190008A919000833
:10014000A9190008A9190008A9190008A919000887
:10015000A9190008A9190008A9190008A919000877
:10016000A9190008A9190008A9190008A919000867
:10017000A9190008D55D0008A919000800000000B1
:10018000A9190008A9190008A9190008A919000847
:10019000A9190008A9190008A9190008A919000837
:0C01A000A9190008A9190008A9190008F5
:1001B00010B5054C237833B9044B13B10448AFF3A1
:1001C00000800123237010BD1402002000000000F5
:1001D0007CBD000808B5034B1BB103490348AFF3CE
:1001E000008008BD00000000180200207CBD00084F
:1001F00081F0004102E000BF83F0004330B54FEAD8
:1002000041044FEA430594EA050F08BF90EA020F44
:100210001FBF54EA000C55EA020C7FEA645C7FEAD7
:10022000655C00F0E2804FEA5454D4EB5555B8BFFA
:100230006D420CDD2C4480EA020281EA030382EA6B
:10024000000083EA010180EA020281EA0303362DFD
:1002500088BF30BD11F0004F4FEA01314FF4801CD0
:100260004CEA113102D0404261EB410113F0004FE2
:100270004FEA03334CEA133302D0524263EB430399
:1002800094EA050F00F0A780A4F10104D5F1200E37
:100290000DDB02FA0EFC22FA05F2801841F1000192
:1002A00003FA0EF2801843FA05F359410EE0A5F166
:1002B00020050EF1200E012A03FA0EFC28BF4CF097
:1002C000020C43FA05F3C01851EBE37101F000454D
:1002D00007D54FF0000EDCF1000C7EEB00006EEB5A
:1002E0000101B1F5801F1BD3B1F5001F0CD34908E4
:1002F0005FEA30004FEA3C0C04F101044FEA44523B
:1003000012F5800F80F09A80BCF1004F08BF5FEAC1
:10031000500C50F1000041EB045141EA050130BDA1
:100320005FEA4C0C404141EB010111F4801FA4F144
:100330000104E9D191F0000F04BF01460020B1FA99
:1003400081F308BF2033A3F10B03B3F120020CDAD1
:100350000C3208DD02F1140CC2F10C0201FA0CF0AF
:1003600021FA02F10CE002F11402D8BFC2F1200C14
:1003700001FA02F120FA0CFCDCBF41EA0C019040CA
:10038000E41AA2BF01EB0451294330BD6FEA040413
:100390001F3C1CDA0C340EDC04F11404C4F12002FE
:1003A00020FA04F001FA02F340EA030021FA04F310
:1003B00045EA030130BDC4F10C04C4F1200220FA67
:1003C00002F001FA04F340EA0300294630BD21FAA5
:1003D00004F0294630BD94F0000F83F4801306BF6B
:1003E00081F480110134013D4EE77FEA645C18BF5F
:1003F0007FEA655C29D094EA050F08BF90EA020FF6
:1004000005D054EA000C04BF1946104630BD91EAED
:10041000030F1EBF0021002030BD5FEA545C05D1F0
:100420004000494128BF41F0004130BD14F580042F
:100430003CBF01F5801130BD01F0004545F0FE41A3
:1004400041F470014FF0000030BD7FEA645C1ABFD8
:10045000194610467FEA655C1CBF0B46024650EA0F
:10046000013406BF52EA033591EA030F41F400213B
:1004700030BD00BF90F0000F04BF0021704730B5C1
:100480004FF4806404F132044FF000054FF0000196
:1004900050E700BF90F0000F04BF0021704730B557
:1004A0004FF4806404F1320410F0004548BF40422C
:1004B0004FF000013EE700BF42004FEAE2014FEA81
:1004C00031014FEA02701FBF12F07F4393F07F4F5C
:1004D00081F06051704732F07F4208BF704793F05F
:1004E0007F4F04BF41F40021704730B54FF4607472
:1004F00001F0004521F000411CE700BF50EA010275
:1005000008BF704730B54FF000050AE050EA01021D
:1005100008BF704730B511F0004502D5404261EB8D
:1005200041014FF4806404F132045FEA915C3FF4CE
:10053000D8AE4FF003025FEADC0C18BF03325FEA6B
:10054000DC0C18BF033202EBDC02C2F1200300FA1C
:1005500003FC20FA02F001FA03FE40EA0E0021FA41
:1005600002F11444BDE600BF70B54FF0FF0C4CF42F
:10057000E06C1CEA11541DBF1CEA135594EA0C0FE1
:1005800095EA0C0F00F0DEF82C4481EA030621EA1C
:100590004C5123EA4C5350EA013518BF52EA033557
:1005A00041F4801143F4801338D0A0FB02CE4FF009
:1005B0000005E1FB02E506F00042E0FB03E54FF039
:1005C0000006E1FB03569CF0000F18BF4EF0010E31
:1005D000A4F1FF04B6F5007F64F5407404D25FEA2D
:1005E0004E0E6D4146EB060642EAC62141EA5551E0
:1005F0004FEAC52040EA5E504FEACE2EB4F1FD0C22
:1006000088BFBCF5E06F1ED8BEF1004F08BF5FEA9F
:10061000500E50F1000041EB045170BD06F0004651
:1006200046EA010140EA020081EA0301B4EB5C04FE
:10063000C2BFD4EB0C0541EA045170BD41F48011F6
:100640004FF0000E013C00F3AB8014F1360FDEBF1B
:10065000002001F0004170BDC4F10004203C35DAF7
:100660000C341BDC04F11404C4F1200500FA05F37A
:1006700020FA04F001FA05F240EA020001F000421B
:1006800021F0004110EBD37021FA04F642EB060191
:100690005EEA430E08BF20EAD37070BDC4F10C04BB
:1006A000C4F1200500FA04F320FA05F001FA04F27F
:1006B00040EA020001F0004110EBD37041F100016B
:1006C0005EEA430E08BF20EAD37070BDC4F1200576
:1006D00000FA05F24EEA020E20FA04F301FA05F2DE
:1006E00043EA020321FA04F001F0004121FA04F286
:1006F00020EA020000EBD3705EEA430E08BF20EA56
:10070000D37070BD94F0000F0FD101F0004640008F
:1007100041EB010111F4801F08BF013CF7D041EA11
:10072000060195F0000F18BF704703F00046520015
:1007300043EB030313F4801F08BF013DF7D043EAE6
:100740000603704794EA0C0F0CEA135518BF95EA9C
:100750000C0F0CD050EA410618BF52EA4306D1D123
:1007600081EA030101F000414FF0000070BD50EA42
:10077000410606BF1046194652EA430619D094EACC
:100780000C0F02D150EA013613D195EA0C0F05D1B6
:1007900052EA03361CBF104619460AD181EA03010A
:1007A00001F0004141F0FE4141F470014FF00000C2
:1007B00070BD41F0FE4141F4780170BD70B54FF05D
:1007C000FF0C4CF4E06C1CEA11541DBF1CEA1355DD
:1007D00094EA0C0F95EA0C0F00F0A7F8A4EB0504BF
:1007E00081EA030E52EA03354FEA013100F08880B6
:1007F0004FEA03334FF0805545EA131343EA12637F
:100800004FEA022245EA111545EA10654FEA002633
:100810000EF000419D4208BF964244F1FD0404F5EC
:10082000407402D25B084FEA3202B61A65EB030548
:100830005B084FEA32024FF480104FF4002CB6EB05
:10084000020E75EB030E22BFB61A754640EA0C0085
:100850005B084FEA3202B6EB020E75EB030E22BFC5
:10086000B61A754640EA5C005B084FEA3202B6EB06
:10087000020E75EB030E22BFB61A754640EA9C00C5
:100880005B084FEA3202B6EB020E75EB030E22BF95
:10089000B61A754640EADC0055EA060E18D04FEA53
:1008A000051545EA16754FEA06164FEAC30343EAF3
:1008B00052734FEAC2025FEA1C1CC0D111F4801FC0
:1008C0000BD141EA00014FF000004FF0004CB6E7B9
:1008D00011F4801F04BF01430020B4F1FD0C88BF58
:1008E000BCF5E06F3FF6AFAEB5EB030C04BFB6EB63
:1008F000020C5FEA500C50F1000041EB045170BD56
:100900000EF0004E4EEA113114EB5C04C2BFD4EB82
:100910000C0541EA045170BD41F480114FF0000E06
:10092000013C90E645EA060E8DE60CEA135594EA82
:100930000C0F08BF95EA0C0F3FF43BAF94EA0C0F85
:100940000AD150EA01347FF434AF95EA0C0F7FF4FA
:1009500025AF104619462CE795EA0C0F06D152EA4E
:1009600003353FF4FDAE1046194622E750EA410632
:1009700018BF52EA43067FF4C5AE50EA41047FF443
:100980000DAF52EA43057FF4EBAE12E74FEA4102A6
:10099000B2F1E04324BFB3F5001CDCF1FE5C0DD9DD
:1009A00001F0004C4FEAC0024CEA5070B2F1004F27
:1009B00040EB830008BF20F00100704711F0804F2A
:1009C00021D113F13872BCBF01F00040704741F4EF
:1009D00080114FEA5252C2F11802C2F1200C10FAF3
:1009E0000CF320FA02F018BF40F001004FEAC123D7
:1009F0004FEAD32303FA0CFC40EA0C0023FA02F37B
:100A00004FEA4303CCE77FEA625307D150EA013350
:100A10001EBF4FF0FE4040F44000704701F0004020
:100A200040F0FE4040F40000704700BF53B94AB99F
:100A3000002908BF00281CBF4FF0FF314FF0FF30E6
:100A400000F072B9ADF1080C6DE904CE00F006F8C3
:100A5000DDF804E0DDE9022304B070472DE9F0473A
:100A6000089E04468846002B4BD18A42154667D91A
:100A7000B2FA82F24AB1C2F1200701FA02F320FA77
:100A800007F7954047EA030894404FEA154E230CB8
:100A9000B8FBFEF71FFA85FC0EFB178843EA0843F4
:100AA00007FB0CF1994209D9EB1807F1FF3080F0F0
:100AB0001B81994240F21881023F2B445B1AA4B279
:100AC000B3FBFEF00EFB103344EA034400FB0CFCC6
:100AD000A44509D92C1900F1FF3380F00781A44502
:100AE00040F2048102382C4440EA0740A4EB0C0495
:100AF00000271EB1D4400023C6E900433946BDE8B3
:100B0000F0878B4209D9002E00F0EB800027C6E960
:100B1000000138463946BDE8F087B3FA83F7002F65
:100B200047D18B4202D3824200F2FA80841A61EBF1
:100B3000030301209846002EE0D0C6E90048DDE717
:100B400002B9FFDEB2FA82F2002A40F08F80491B20
:100B50004FEA154E1FFA85F80127B1FBFEFC230C66
:100B60000EFB1C1143EA014308FB0CF1994207D923
:100B7000EB180CF1FF3002D2994200F2CD8084468E
:100B8000591AA3B2B1FBFEF00EFB101443EA044461
:100B900008FB00F8A04507D92C1900F1FF3302D259
:100BA000A04500F2B6801846A4EB080440EA0C40C9
:100BB0009FE7C7F1200CBB4022FA0CFE4EEA030E61
:100BC00001FA07F420FA0CF521FA0CF34FEA1E485B
:100BD0002543B3FBF8F92C0C08FB19331FFA8EFAE6
:100BE00044EA034309FB0AF49C4202FA07F200FAC2
:100BF00007F10BD91EEB030309F1FF3080F087806A
:100C00009C4240F28480A9F1020973441B1BADB2DF
:100C1000B3FBF8F008FB103345EA034400FB0AFA83
:100C2000A24508D91EEB040400F1FF336BD2A245A4
:100C300069D90238744440EA0940A0FB0289A4EB58
:100C40000A044C45C2464B4654D351D0002E69D0BD
:100C5000B1EB0A0564EB030404FA0CFCFD40FC4014
:100C60004CEA0505C6E90054002747E7C2F1200316
:100C700020FA03F7954001FA02F021FA03F34FEA54
:100C8000154E3843010CB3FBFEF71FFA85F80EFB37
:100C9000173341EA034107FB08F38B4204FA02F4DD
:100CA00007D9691807F1FF3C2FD28B422DD9023F9B
:100CB0002944CB1A81B2B3FBFEF00EFB103341EA9C
:100CC000034100FB08F38B4207D9691800F1FF3C90
:100CD00017D28B4215D902382944C91A40EA07476E
:100CE0003BE73746304609E70746E7E61846FBE6A6
:100CF0004145ABD2B8EB020A69EB0E02013813464C
:100D0000A4E76046E9E7184695E76746D1E78146DC
:100D10007CE702382C4447E7ACF1020C2B442FE768
:100D2000384608E73746E9E6704700BF034613F840
:100D3000012B002AFBD1181A01387047000000006F
:100D400001F0FF01102A2BDB10F0070F08D010F87C
:100D5000013B013A8B422DD010F0070F42B3F6D180
:100D6000F0B441EA012141EA014122F007047FF099
:100D700000070023F0E80256083C85EA010586EAF0
:100D8000010685FA47F5A3FA87F586FA47F6A5FA2C
:100D900087F68EB9EED1F0BC01F0FF0102F0070238
:100DA00032B110F8013B013A83EA010313B1F8D1E3
:100DB0000020704701387047002D06BF35460338C4
:100DC000073815F0010F07D1013015F4807F02BFFD
:100DD000013015F4C03F0130F0BC0138704700BF4E
:100DE00001220421014806F0CBBB00BF00100240E5
:100DF0002DE9F04184B00E466425174604210022F7
:100E00000446284806F0BCFB4FF0030C0DF10F021E
:100E100001230DF10D01009523488DF80DC007F059
:100E200029FF04A9330C01F8043D0DF10F02012341
:100E300000951D4807F01EFF04A9330A01F8053D7F
:100E40000DF10F0201230095174807F013FF04A9C5
:100E500000950DF10F0201F8066D0123124807F00D
:100E600009FFBFB17E1EB6B20136DFF83C802644D2
:100E7000FF27012300950DF10F020DF10E014046F1
:100E80008DF80E7007F0F6FE9DF80F3004F8013B68
:100E9000B442EED101220421024806F071FB04B0F5
:100EA000BDE8F08100100240EC1B002030B50D4C75
:100EB00085B020460022042106F062FB64230093E3
:100EC0000DF10F0201230DF10E01062506488DF8E4
:100ED0000E5007F0CFFE20460122042106F050FB01
:100EE00005B030BD00100240EC1B002070B50022A0
:100EF00084B004211348144E06F042FB64240520FC
:100F00008DF80D000DF10F02009401230DF10D017C
:100F1000304607F0AFFEFF25012300940DF10F02CC
:100F20000DF10E0130468DF80E5007F0A3FE9DF82E
:100F30000F30DB07F0D401220421024806F020FB29
:100F400004B070BD00100240EC1B0020F0B5214F32
:100F5000214C85B006466425FFF7A8FF38460022DD
:100F6000042106F00DFB4FF0D80C0DF10F020DF12E
:100F70000E012046009501238DF80EC007F07AFE81
:100F800004A9330C01F8033D0DF10F020095204632
:100F9000012307F06FFE04A9330A01F8043D0DF1A7
:100FA0000F0200952046012307F064FE04A90123E7
:100FB00000950DF10F0201F8056D204607F05AFE6D
:100FC00038460122042106F0DBFAFFF78FFF05B057
:100FD000F0BD00BF00100240EC1B0020F0B5214F17
:100FE000214C85B006466425FFF760FF3846002295
:100FF000042106F0C5FA4FF0200C0DF10F020DF19F
:101000000E012046009501238DF80EC007F032FE38
:1010100004A9330C01F8033D0DF10F0200952046A1
:10102000012307F027FE04A9330A01F8043D0DF15E
:101030000F0200952046012307F01CFE04A901239E
:1010400000950DF10F0201F8056D204607F012FE24
:1010500038460122042106F093FAFFF747FF05B056
:10106000F0BD00BF00100240EC1B00204318B3F19C
:10107000007F09D840EA0103C3F30B0370B50546AE
:101080000C461BB1012070BD0120704783B26BB9C3
:101090008BB299420AD00E46A6F580362846B4B2E5
:1010A000FFF754FFB44205F58035F5D1C4F30B03C7
:1010B0009C420AD0A4F580542846FFF78FFFC4F362
:1010C0000B03A34205F58055F4D1002070BD00BF8D
:1010D0002DE9F04184B00E46642517460446FFF71B
:1010E000E5FE00220421284806F04AFA4FF0020CDF
:1010F0000DF10F0201230DF10D01009523488DF82C
:101100000DC007F0B7FD04A9330C01F8043D0DF143
:101110000F02012300951D4807F0ACFD04A9330A16
:1011200001F8053D0DF10F0201230095174807F066
:10113000A1FD04A900950DF10F0201F8066D012330
:10114000124807F097FDA7B17E1EB6B20136DFF850
:101150003C80264414F8017B009501230DF10F0219
:101160000DF10E0140468DF80E7007F083FDB4427C
:10117000F0D101220421044806F002FAFFF7B6FE7E
:1011800004B0BDE8F08100BF00100240EC1B00205D
:101190002DE9F8431646130A11F0FF020D460746E3
:1011A0001ED17BB3013B5FFA83F83C4608F1010096
:1011B00007EB0027A1EB04094FF4807204EB09014F
:1011C00020461444FFF784FFBC42F5D105F5807139
:1011D00001EB0821F2B22046BDE8F843FFF778BFE3
:1011E0005442E4B2ABB9F3B29C420BD21A44D6B229
:1011F0002246FFF76DFF324661193819BDE8F84302
:10120000FFF766BF324629463846BDE8F843FFF788
:101210005FBFA2B2B61AB6B24FEA16295FFA89F8D2
:1012200008F1FF38FFF754FFF6B2254438195FFA8A
:1012300088F8B9F1000F1ED008F10107044600EB51
:101240000727A5EB00094FF4807204EB0901204643
:101250001444FFF73DFFBC42F5D105F5807505EB61
:1012600008250EB9BDE8F883324629462046BDE878
:10127000F843FFF72DBF0446F3E700BFF0B5D1E90F
:10128000026333401BD091F800C0BCF1000F1BD0AB
:101290000D6900F1140700234FF0010E0EFA03F45C
:1012A000344203F10103284606D095F90040002C92
:1012B00002DB2C89944204D063453D44EED10020EA
:1012C000F0BD4B686B60F0BD6046F0BD2DE9F84F96
:1012D000C66DD6E902138B4302D00020BDE8F88F1B
:1012E0003578002D44D03769D0F81CC0D6F804A05A
:1012F0004FF000083C460CF1140942464FF0FF3E07
:101300006368AAEB0303434506D994F900B0BBF127
:10131000000FA4BF984696460132AA424C44EFD132
:10132000BEF1FF3FD9D04FF0010808FA0EF818EAD5
:1013300001051DD009FB0EF907EB090317F8095049
:101340002A0618D415F0010517D01D8901694368D4
:1013500009F114020CFB05103A4461469847B16844
:1013600021EA08010023B16007F80930BDE8F88FD1
:101370002846BDE8F88F0020F2E72846F0E700BFD6
:101380002DE9F04F04461E46E56D0069E36981B022
:10139000321A8946B2FBF3F2184692B22946DDE9C9
:1013A0000A78FFF76BFF6A68013282466A6060B9AB
:1013B00009F00309B9F1010F25D1236842463946E6
:1013C000304601B0BDE8F04F1847606E2369E1690F
:1013D0002D6901306066F61A9AF80100B6FBF1F348
:1013E00001FB13631433143101FB0031CAF80420EC
:1013F00040463A46294409F07BFB4FF00009484635
:1014000001B0BDE8F08FA36E0133A3662046FFF75D
:101410005DFFE26D9368591C814608D123684246FE
:10142000394630469847002818BF8146E7E71078CC
:101430000028F3D013F0010CE16945D04FF0010C06
:101440000AF1010A82450CFA0AFBE7D013EA0B0FF6
:10145000F6D101F1140000FB0AFCD2F810E043EAD7
:101460000B030EEB0C0A93605368CAF80430022396
:101470000EF80C3023699AF80120D5F810C0F31A41
:1014800000FB02F2B3FBF1FE143201FB1E33F01A33
:1014900062442368AAF808E098472369E2699AF849
:1014A00001402969F61AB6FBF2F302FB1363143309
:1014B000143202FB0433002818BF81463A464046E6
:1014C000194409F015FB9AE701F114004FF0010BE4
:1014D000C3E700BFD0F85CC0BCF1000F47D0F0B547
:1014E000C369056E1433143DB5FBF3F5002D87B0C9
:1014F0003BDD0022134601325B00954243F00103BD
:10150000F9D10024CDE901440CF1140E4FF0FF3263
:101510008DF804500493CDF814E0039201AE074611
:101520000FCECCF810E0CCF80000CCF80410CCF8CA
:101530000820CCF80C30FE6DFB693278306914332A
:1015400002FB03F209F0DFFAD6E9023215F0FF05DB
:1015500023EA0203B36008D0F969326914312346E3
:10156000537001339D420A44FAD107B0F0BD704771
:101570002DE9F84F0D4604469246002180221F4671
:10158000D0F878B0DDF83080DDE90A6909F0BBFAFF
:1015900029686A68A868EB68E36021606260A060FF
:1015A000EB6929696A69A869E361E369A061534449
:1015B00021616261C4E90D3AA269E368C4F878B0B8
:1015C000B3FBF2F3384623623246002109F09BFA5E
:1015D00017F0030303D0C3F104031F44F61A184B9A
:1015E000E763A3FB0636760919F00303266404D0EB
:1015F000C3F104039944A8EB0308E369C4F85C90C1
:1016000018F0030F4FEA431318BF28F003084345AF
:1016100028BF434623662046FFF75CFF094BE3677C
:10162000204600F025F9002807DB01230D9A84F8F5
:101630007430E2660020BDE8F88F6064BDE8F88F82
:10164000ABAAAAAA150309204FF6FF7291420AD04D
:1016500021B1C36C0133C36406487047036D013385
:10166000036504487047002BF6D1836C0133836413
:1016700000487047AAD8FFFF2DE9F04F05461746EE
:10168000D5F81CC08069B0FBFCF25400B4FBFCF43C
:10169000002C8BB008BF01246E6BD5F820E00896B3
:1016A000141BBDF850600596BC428B46049304FBA6
:1016B0000EF94FEA5C0A0DDC4B1C1FFA83FBDE457A
:1016C00000F2A680049B13F0040740F09D8007976A
:1016D000BB4602E000FB01F30793B9F1000F40F3B2
:1016E0009380CAEBCA735B000993049B03F0010368
:1016F0000293634697FBFAF1089C069101FB0AF8F6
:10170000C8EBC87104EB4101039152000699B2FB8A
:10171000F3F2002A08BF01228A4240F38C802A6932
:101720000798696B0191024406980093142103FB0A
:10173000002300222846FFF723FE002859D1D5E9CF
:1017400006033C464E46B0FBF3F2159F07E00399B3
:1017500031F814C005998C4514D0013E0134A4EB36
:10176000080CE2454FEA4201A646B1FBF3F1B1464F
:1017700053DD002908BF0121511AA1424DDD029914
:101780000029E4D1189B0BB1A3F800B0199B03B159
:101790001C60002F4BD0049B9A0756BF039B0599F2
:1017A00033F81410179B0193169B00935A46234657
:1017B0002846B84700F51D531733012B25D82A4A70
:1017C000EB69904203D0A869B0FBF3F2C5E72A6940
:1017D0000798696B0191024406980093142100FB5D
:1017E000032300222846FFF7CBFD00280DDBEB6921
:1017F000E9E70BF101032A6A9BB2934202D3049BEF
:101800005B0701D4002800DB18480BB0BDE8F08F5F
:101810000BFB00F3079300275FE70699099C013152
:101820000691039921447746D04403916DE71598BA
:101830000BB0BDE8F08F0BF1010B2A6A1FFA8BFB8E
:101840005A4509D9079A02440792B9F1000FDBDD26
:10185000B0FBF3F200274DE7049A12F0040BD3D14A
:10186000CDF81CB0F1E700BFA9D8FFFFA8D8FFFF53
:101870002DE9F04F036A89B04FF000080646ADF835
:101880001A80002B5ED044464FF6FF790DF11C0AFA
:101890004FF0020B12E0BDF81C30934205D0994581
:1018A00028BF9946984538BF9846BDF81A40326A15
:1018B0000134A4B29442ADF81A401CD2D6E906C352
:1018C0003769BCFBF3F5023F6D000022152130465D
:1018D00004FB0C74B5FBF3F50DB105FB03F3CDE987
:1018E00000BA2344FFF74CFD00284FF6FF72D2DA0E
:1018F00009B0BDE8F08FA8EB0903B3F5004FB4BF02
:1019000008F1010809F101081FFA88F800230DF118
:101910001A050F4CA6F856801A46CDF814A01946A1
:10192000C6E9123333653046CDE90233009304959E
:101930000194FFF7A1FE074B984208BF002009B0B1
:10194000BDE8F08F4FF001080DF11C0ADEE700BF83
:1019500049160008A8D8FFFFDFF834D0002103E0C3
:101960000C4B5B58435004310B480C4B42189A42C5
:10197000F6D30B4A02E0002342F8043B094B9A429B
:10198000F9D304F0FDFD09F07FF802F0F5FE704791
:101990000000032020EC00080000002014020020BA
:1019A00014020020B4270020FEE70000704700BFAB
:1019B00070B5174EB3690133B361F36913B1F369BD
:1019C000013BF361337803B30024A50073195B680E
:1019D000B3B11A789207184612D59A68511E0AB107
:1019E000996069B93544D3E9032190476A6813784F
:1019F0005168916013F0010102D161F3410313704A
:101A000001343378E4B2A342DFD8FFF7CFFF70BDD3
:101A100030020020EFF305833BB1074A20B1136881
:101A2000DB03FCD50138F9E77047044A91699369F3
:101A30005B1A8342FBD3704710E000E030020020C5
:101A4000014B9869704700BF3002002038B5054649
:101A5000164C1748C5F3C002802105F091FDC5F36F
:101A600080022046402105F08BFDC5F34002204650
:101A7000802105F085FD05F0010220464FF48071BC
:101A800005F07EFD204601224FF4007105F078FD3F
:101A9000142001F0A1F9204600224FF4007105F056
:101AA0006FFD1420BDE8384001F096B900080240EF
:101AB0000018024010B5002204464FF48071064819
:101AC00005F05EFD2009FFF7C1FF04F00F00BDE83F
:101AD0001040FFF7BBBF00BF0000024010B40C4B2A
:101AE0000C4ADC7883B08C420192024609D800216E
:101AF00040F080005A71997103B05DF8044BFFF714
:101B0000D9BF02A8084410F8040C1044C0B2EFE793
:101B1000500200200040145410B5012204464FF436
:101B20008071064805F02CFD2009FFF78FFF04F0B7
:101B30000F00BDE81040FFF789BF00BF0000024062
:101B400070B500220D4606464FF480713248334C82
:101B500005F016FD00224FF40071314805F010FD2C
:101B600000224FF480712E4805F00AFD00228021EA
:101B70002B4805F005FD00224021294805F000FD15
:101B800000228021274805F0FBFC4AF6C87001F0CE
:101B900023F9012D4FF000036371A3714FF003008F
:101BA00088BF082363702671E570FFF74FFF41F28D
:101BB000941001F011F90320FFF748FF41F294104F
:101BC00001F00AF90320FFF741FF41F2941001F000
:101BD00003F90220FFF73AFF642001F0FDF8607876
:101BE00040F02000FFF766FF04230C202370FFF76E
:101BF00061FF0120FFF75EFF40F6B83001F0ECF81E
:101C000002230620A370FFF755FF41F29410BDE8B0
:101C1000704001F0E1B800BF000002405002002017
:101C2000000802400018024008B50120FFF742FFFB
:101C300040F6B830BDE8084001F0CEB870B51546A2
:101C4000FFF74CFF2B786BB3194C00260DE02B7877
:101C50000A2B18461AD00D2B25D0FFF75DFF6379AC
:101C60000133637115F8013FE3B1627923799A4238
:101C7000EDD3A37966710133DBB219460020A3715D
:101C8000FFF72CFF2B780A2B1846E4D1A379607953
:101C90000133DBB21946A371FFF720FF15F8013FAE
:101CA000002BE2D170BDA1790020FFF717FFD9E723
:101CB0005002002030B583B002AC0D4D04F8010D88
:101CC00000224FF400510B4805F05AFC2846002230
:101CD000042105F055FC214664230122064806F044
:101CE00067FE28460122042105F04AFC03B030BDFE
:101CF00000080240000C0240EC1B002030B583B00D
:101D000002AC0D4D04F8010D01224FF400510B48B7
:101D100005F036FC28460022042105F031FC21465E
:101D200064230122064806F043FE284601220421CE
:101D300005F026FC03B030BD00080240000C024054
:101D4000EC1B002010B500224FF48051994805F09B
:101D500017FC44F62063013BFDD101224FF4805172
:101D6000944805F00DFC44F62063013BFDD10120B1
:101D7000FFF7A0FF4CF25034013CFDD1CB20FFF720
:101D800099FF3920FFF7BAFF2C20FFF7B7FF204655
:101D9000FFF7B4FF3420FFF7B1FF0220FFF7AEFFDB
:101DA000CF20FFF787FF2046FFF7A8FFC120FFF7EE
:101DB000A5FF3020FFF7A2FFE820FFF77BFF85207B
:101DC000FFF79CFF2046FFF799FF7820FFF796FF6B
:101DD000EA20FFF76FFF2046FFF790FF2046FFF74E
:101DE0008DFFED20FFF766FF6420FFF787FF0320DC
:101DF000FFF784FF1220FFF781FF8120FFF77EFFAE
:101E0000F720FFF757FF2020FFF778FFC020FFF7EC
:101E100051FF2320FFF772FFC120FFF74BFF102077
:101E2000FFF76CFFC520FFF745FF3E20FFF766FF79
:101E30002820FFF763FFC720FFF73CFF8620FFF74E
:101E40005DFF3620FFF736FF4820FFF757FF3A20A7
:101E5000FFF730FF5520FFF751FFB120FFF72AFFB2
:101E60002046FFF74BFF1820FFF748FFB620FFF78B
:101E700021FF0820FFF742FF8220FFF73FFF2720C6
:101E8000FFF73CFFF220FFF715FF2046FFF736FF74
:101E90002A20FFF70FFF2046FFF730FF2046FFF70D
:101EA0002DFF2046FFF72AFFEF20FFF727FF2B200B
:101EB000FFF700FF2046FFF721FF2046FFF71EFF38
:101EC0000120FFF71BFF3F20FFF718FF2620FFF739
:101ED000F1FE0120FFF712FFE020FFF7EBFE0F20DD
:101EE000FFF70CFF3120FFF709FF2B20FFF706FF5C
:101EF0000C20FFF703FF0E20FFF700FF0820FFF77D
:101F0000FDFE4E20FFF7FAFEF120FFF7F7FE372027
:101F1000FFF7F4FE0720FFF7F1FE1020FFF7EEFEBB
:101F20000320FFF7EBFE0E20FFF7E8FE0920FFF786
:101F3000E5FE2046FFF7E2FEE120FFF7BBFE20466C
:101F4000FFF7DCFE0E20FFF7D9FE1420FFF7D6FEC8
:101F50000320FFF7D3FE1120FFF7D0FE0720FFF785
:101F6000CDFE3120FFF7CAFEC120FFF7C7FE482093
:101F7000FFF7C4FE0820FFF7C1FE0F20FFF7BEFEEB
:101F80000C20FFF7BBFE3120FFF7B8FE3620FFF72D
:101F9000B5FE0F20FFF7B2FE1120FFF78BFE064BB8
:101FA000013BFDD12920FFF785FE2C20BDE8104024
:101FB000FFF780BE000C024040420F00F8B5074614
:101FC0002A200D4616461C46FFF774FE380AFFF716
:101FD00095FEF8B2FFF792FE300AFFF78FFEF0B2DF
:101FE000FFF78CFE2B20FFF765FE280AFFF786FE21
:101FF000E8B2FFF783FE200AFFF780FEE0B2BDE8FB
:10200000F840FFF77BBE00BF10B50B4614460246F2
:10201000FFF7D4FF2C20FFF74DFEC4F30720FFF796
:102020006DFEE0B2BDE81040FFF768BE2DE9F0415B
:1020300082B00746BDF820408DF80540240A0D46C1
:1020400016468DF804401C46FFF7B8FF2C20FFF71A
:1020500031FE631B0133002204212848DFF8A480ED
:10206000F61B06FB033705F08BFA01224FF40051F3
:10207000234805F085FAD8F800301A6822F04002AB
:102080001A601A684FF4006142F04002B7F5803FD1
:10209000C8F80C101A602DD34FF6FF7401AD4646F8
:1020A00002222946304606F0F3FD013CF8D1A7F59F
:1020B0007F47FF3F134E0137012401340222294696
:1020C000304606F0E5FDBC42F7D1012204210B4861
:1020D00005F056FAD8F800301A6822F040021A606B
:1020E0001A68002142F04002C8F80C101A6002B0D1
:1020F000BDE8F081002FE8D001ADDBE70008024029
:10210000000C0240EC1B002000B5074B1A885B88CE
:1021100083B0002180B2013A009092B20846FFF7E6
:1021200085FF03B05DF804FBA00D002030B501224F
:1021300083B004210E480F4C05F022FAFFF702FE8F
:102140000D480E4A00234FF6FF7100914FF4A07521
:1021500019460380138018460122F0232380227140
:102160002B46EF226580FFF761FF03B030BD00BF53
:1021700000080240A00D0020A60D00209C0D0020AC
:1021800010B504463620FFF795FD74B1012C1CD024
:10219000022C16D0032C1CD0104B4FF4A070F02151
:1021A0000022188059801A7110BD5820FFF7A6FD33
:1021B0000A4BF0204FF4A0710122188059801A7147
:1021C00010BD2820FFF79AFDE6E78820FFF796FD6F
:1021D000EEE7E820FFF792FDDEE700BFA00D00204C
:1021E0002DE9F04F2F4FDFF8C4803880A8F8001099
:1021F0002D4C93F800E0248893F801C083B000EBE5
:102200000E051E46A54201EB0C03DDF83090924608
:102210009BB208DD9C440020A8F8003019467546A2
:102220001FFA8CF338800D9A94B20094AAB2FFF78B
:10223000FDFE72787AB333783888AAF1200A1946FD
:102240004FF0000B0AFB02B4756835F81450CBB19F
:10225000002403E00134A342194612D905FA04F21E
:102260001204F7D5B8F800102044594480B289B25E
:102270004A46FFF7C9FE337838880134A34219462D
:10228000ECD872780BF1010B5A45DBD80844388042
:1022900003B0BDE8F08F317838880844388003B047
:1022A000BDE8F08F9C0D0020A00D0020A60D0020A1
:1022B0002DE9F04F1B4F1C4E824610463180A7F887
:1022C00000A083B00178DDF83090DDF834801D4641
:1022D0004FF0000B441C2B460A4681B10A2911D04D
:1022E0000D2905D038883188CDE90098FFF778FFAF
:1022F00020460178441C2B460A460029EED103B043
:10230000BDE8F08F32886B78013213443380437814
:102310000D2B06BF841CA7F800B0A7F800A020462C
:10232000E7E700BF9C0D0020A60D0020014B185CC4
:10233000704700BF18000020094B187CFF280BD005
:102340005A7CFE2A09D0074910B4FE2200240C80D2
:102350005A745DF8044B70477047FF20704700BF08
:10236000180000205802002010B5012204464FF446
:1023700080511C4805F004F901222021194805F07C
:10238000FFF801224021174805F0FAF801224FF426
:102390000051154805F0F4F8012C1BD0022C12D086
:1023A000032C09D0042C1CD100224FF400510E48FC
:1023B000BDE8104005F0E4B8002240210948BDE81E
:1023C000104005F0DDB8002220210648BDE810408D
:1023D00005F0D6B8002210210248BDE8104005F0F3
:1023E000CFB810BD00100240000802400020FFF7E7
:1023F000BBBF00BF10B54FF480710446134805F011
:10240000B9F818B912482044C07C10BD80210F488B
:1024100005F0B0F818B90E482044C07D10BD4FF447
:1024200080610C4805F0A6F818B909482044C07E20
:1024300010BD4FF40071054805F09CF818B9044828
:102440002044C07F10BDFF2010BD00BF000402402B
:10245000180000200018024008B50120FFF784FF93
:102460000120FFF7C7FFFF2800D008BD0220FFF7BB
:102470007BFF0220FFF7BEFFFF28F6D10320FFF706
:1024800073FF0320FFF7B6FFFF28EED10420FFF70C
:102490006BFF0420BDE80840FFF7ACBF08B5FFF7AD
:1024A000DBFF0D4A0D491388087401339BB2B3F565
:1024B000FA7F0ED30023FF28138005D093780133D1
:1024C000DBB2042B937001D100239370FF234B7474
:1024D00008BD138008BD00BF58020020180000206E
:1024E000014B9869704700BF5C020020012922D08F
:1024F00017D3022914D1124B9A691044B0F5801FEA
:1025000001D3C0F31300C0F31001C0F34B12986164
:10251000C0F34740C3E90412187783F820007047DE
:102520007047074B0022B0F5801FC3E9042283F8EF
:102530002020E6D2E7E7024BC0F58010F2E700BFAB
:102540005C020020012922D017D3022914D1124B9A
:102550009A681044B0F5801F01D3C0F31300C0F394
:102560001001C0F34B129860C0F34740C3E900125A
:10257000187383F8200070477047074B0022B0F5AE
:10258000801FC3E9002283F82020E6D2E7E7024B50
:10259000C0F58010F2E700BF5C020020014B986894
:1025A000704700BF5C02002038B50C4C0C480D4D44
:1025B000002384F82030082102E055F82300118C14
:1025C000012204F0DDFF94F820300133DBB2072B49
:1025D00005EB430284F82030EFD938BD5C020020BF
:1025E00000180240A8E500082DE9F041164E174CEE
:1025F00096F82030164F04EB430282B08046118CCF
:1026000054F82300002204F0BBFF02A9012501F8C1
:10261000015D2A463846642306F0CAF902A92A4613
:1026200001F8028D3846642306F0C2F996F820308E
:1026300004EB430154F82300098C2A4604F0A0FF60
:10264000002002B0BDE8F0815C020020A8E500088F
:10265000EC1B00202DE9F04182B002AD134C05F8CF
:10266000013D06460F469046294620466423012236
:1026700006F09EF902A9204601F8028D642301228A
:1026800006F096F902A9204601F8037D6423012291
:1026900006F08EF902A9204601F8046D6423012298
:1026A00006F086F902B0BDE8F08100BFEC1B002007
:1026B0002DE9F047DFF878801B4F82B006464020B6
:1026C000894692460A9D1C46FFF78EFF98F82030F7
:1026D00007EB430257F82300118C002204F050FF4F
:1026E0005246494630460223FFF7B4FF75B10F4EFC
:1026F000254414F8013B8DF80730012264230DF1C5
:102700000701304606F054F9AC42F2D198F8203077
:1027100007EB430257F82300118C012204F030FF2D
:10272000002002B0BDE8F087A8E50008EC1B0020FF
:102730005C0200202DE9F043534CDFF85081236800
:1027400083B007460D464FF0200913F01F0314BF56
:10275000C3F120061E464DB31F2D20786178A27864
:1027600027D9002B41D13B46CDF80090FFF7A0FFC1
:10277000A2682032424588BFC2F31302C2F310039D
:10278000C2F34B11A260C4E90031C2F3474213F017
:102790001F03A5F1200507F12007227384F82020EC
:1027A00014BFC3F120061E46002DD5D103B0BDE8ED
:1027B000F083A3B3AE424CD23B460096FFF778FFBE
:1027C000A2683244424588BFC2F31302C2F3100329
:1027D000C2F34B11A260C2F34742AD1B3744C4E9B8
:1027E0000031227384F82020AFE73B460096FFF7C4
:1027F0005FFFA3683344434588BFC3F31303A3605B
:10280000A268C2F31003C2F34B11C2F3474237442C
:10281000AD1BC4E90031227384F8202095E70095B0
:102820003B46FFF745FFA3681D44B5F5801F28BF51
:10283000C5F31305C5F31002C5F34B13A560C5F32B
:102840004745C4E90023257384F8205003B0BDE850
:10285000F08300953B46FFF72BFFA3681D44B5F5B9
:10286000801F28BFC5F31305A560A368C3F310013B
:10287000C3F34B12C3F34743C4E90012237384F834
:10288000203003B0BDE8F0835C020020FFFF0F00A2
:102890002DE9F047DFF878801B4F82B006464020D4
:1028A000894692460A9D1C46FFF79EFE98F8203006
:1028B00007EB430257F82300118C002204F060FE5E
:1028C0005246494630460323FFF7C4FE75B10F4E0A
:1028D0002544642301220DF10701304606F01CF95E
:1028E0009DF8073004F8013BAC42F2D198F8203053
:1028F00007EB430257F82300118C012204F040FE3D
:10290000002002B0BDE8F087A8E50008EC1B00201D
:102910005C0200202DE9F043534CDFF8508123691D
:1029200083B007460D464FF0200913F01F0314BF74
:10293000C3F120061E464DB31F2D207C617CA27C76
:1029400027D9002B41D13B46CDF80090FFF7A0FFDF
:10295000A2692032424588BFC2F31302C2F31003BA
:10296000C2F34B11A261C4E90431C2F3474213F030
:102970001F03A5F1200507F12007227784F8202006
:1029800014BFC3F120061E46002DD5D103B0BDE80B
:10299000F083A3B3AE424CD23B460096FFF778FFDC
:1029A000A2693244424588BFC2F31302C2F3100346
:1029B000C2F34B11A261C2F34742AD1B3744C4E9D5
:1029C0000431227784F82020AFE73B460096FFF7DA
:1029D0005FFFA3693344434588BFC3F31303A36177
:1029E000A269C2F31003C2F34B11C2F3474237444A
:1029F000AD1BC4E90431227784F8202095E70095C7
:102A00003B46FFF745FFA3691D44B5F5801F28BF6E
:102A1000C5F31305C5F31002C5F34B13A561C5F348
:102A20004745C4E90423257784F8205003B0BDE866
:102A3000F08300953B46FFF72BFFA3691D44B5F5D6
:102A4000801F28BFC5F31305A561A369C3F3100157
:102A5000C3F34B12C3F34743C4E90412237784F84A
:102A6000203003B0BDE8F0835C020020FFFF0F00C0
:102A700010B5064C406C21460A2208F095F9224612
:102A800001210020BDE81040FFF7D8B8A80D0020B4
:102A900003684A4A93422BD0494A934200D0704778
:102AA00010B503F0E9FF3E2800F28280DFE800F075
:102AB0007C7C7C7C80808080807878787880808046
:102AC0008080747474748080807070707080806C8A
:102AD0006C6C6C6868686880646464806060605C6A
:102AE0005C5C585858545450504848404033220079
:102AF00001F0A8BD334C10232360FFF795F8206840
:102B000031490A2208F050F9002108462E4ABDE852
:102B10001040FFF793B82D4B2A4C1A7D0F21012A44
:102B2000216048D01A7D032AE7D101221A75E4E713
:102B3000264A244C136D0E21013313652160DCE716
:102B4000224A204C136D0D21013B13652160D4E70F
:102B50001C4C0C232360D0E71A4C0B232360CCE7DA
:102B6000184C0A232360C8E7164C09232360C4E7E6
:102B7000144C08232360C0E7124C07232360BCE7F2
:102B8000104C06232360B8E70E4C05232360B4E7FE
:102B90000C4C04232360B0E70A4C03232360ACE70A
:102BA000084C02232360A8E7064C01232360A4E716
:102BB000044B186010BD03221A759EE700220140E5
:102BC00000200140A0020020A80D0020F81A0020DB
:102BD00030B5194B194A1A604FF040714FF48032EA
:102BE00085B04FF080554FF070645A6099600022B4
:102BF00001211846C3E90A451A619A611A62DA602E
:102C00001A63D961596103F093FD80B9042401224C
:102C10000723694608480293CDE9004204F00AF808
:102C200018B1D521064801F00BFF05B030BDCB210E
:102C3000034801F005FFE9E7100E002000200140E5
:102C400018E6000830B51F4B1F4A1A604FF4803158
:102C50004FF0407285B01D4D5960022401219A60E9
:102C6000184600229D62DC611961996119631A623C
:102C7000DA62DA605A6103F05BFDE8B901230622EB
:102C8000694610480292CDE9003303F0D3FF70B9D2
:102C9000022369460B48CDE9003303F0CBFF20B196
:102CA00040F201110A4801F0CBFE05B030BDF82119
:102CB000074801F0C5FEEBE7EE21054801F0C0FE34
:102CC000DCE700BF580E0020002201400100000F89
:102CD00018E6000870B5394A0368934288B042D0BC
:102CE000374A934201D008B070BD0026354B02969A
:102CF0005A6C354C42F480625A645B6C059603F45E
:102D000080630293062203230299039203A90546D6
:102D10002E48049304F0F0FA2D4921604FF08062B0
:102D20004FF480634FF480504FF480416260236120
:102D30004FF480724FF4803360612046A660E660F5
:102D40006662C4E90612236204F0EAF878BBAC6359
:102D5000002203211220A56304F02CF8122004F0B5
:102D60005FF808B070BD0024164B01945A6C1748E8
:102D700042F480725A645B6C059403F4807301938F
:102D80001025032603A9019BCDE9035604F0B4FAEC
:102D900022463146122004F00DF8122004F040F8CB
:102DA00022462946094804F0EBFB08B070BD4FF4F9
:102DB000A071084801F044FEC9E700BF00200140AF
:102DC0000022014000380240B00D00200000024007
:102DD0002864024018E6000870B5084C054666688D
:102DE00005F064FB064BA3FB0030800C224605FB7C
:102DF00000F553689B1BAB42FBD370BD001000E095
:102E000083DE1B4330B583B00D4C8DF80700656839
:102E100005F04CFB0B4BA3FB0030800C0A21224633
:102E200001FB00F153685B1B8B42FBD30A23012299
:102E30000DF10701044805F0BBFD03B030BD00BF34
:102E4000001000E083DE1B43A41C002070B50D4C75
:102E5000002206460D4620464FF4806104F090FBA8
:102E600046F05000FFF7CEFF0020FFF7CBFF2846CB
:102E7000FFF7C8FF204601224FF48061BDE8704093
:102E800004F07EBB0008024030B500224FF48061A0
:102E900083B005461648174C04F072FB45F010004D
:102EA000FFF7B0FF0020FFF7ADFF656805F0FEFA01
:102EB000114BA3FB0030800C0A21224601FB00F1DC
:102EC00053685B1B8B42FBD302A9002301F8013D31
:102ED00001220A23094805F01FFE05489DF8074016
:102EE00001224FF4806104F04BFB204603B030BD5B
:102EF00000080240001000E083DE1B43A41C0020F9
:102F000038B5094C0546002220464FF4806104F094
:102F100037FB2846FFF776FF204601224FF48061F9
:102F2000BDE8384004F02CBB0008024030B1012855
:102F30000CD0022806D003280BD070470121084688
:102F4000FFF784BF45210120FFF780BF2321FFF752
:102F50007DBF67210120FFF779BF00BF38B5064C60
:102F6000064D01E0013C05D00421284604F002FB97
:102F70000028F7D138BD00BF801A0600000C0240BF
:102F80001C4B70B505460E4618705970FFF7E6FFEA
:102F9000194B1A489E5D1A4C00224FF4806104F0D0
:102FA000EFFA5020FFF72EFF0320FFF72BFF06203C
:102FB000FFF728FF0820FFF725FF2846FFF722FF2D
:102FC0003046FFF71FFF01224FF480610B4804F0E9
:102FD000D7FA656805F06AFA0A4BA3FB0030800C4B
:102FE0003221224601FB00F153685B1B8B42FBD36D
:102FF00070BD00BF740D0020D8E500080008024035
:10300000001000E083DE1B4308B5FFF7A7FF002098
:10301000FFF73AFFC0F3071008BD00BFF0B500226C
:103020004FF4806183B02648264C04F0A9FA0120B1
:10303000FFF7E8FE656805F039FA234BA3FB003083
:10304000800C0A21224601FB00F153685B1B8B4276
:10305000FBD302AC002604F8016D1C4D1C48214630
:103060000A23012205F058FD9DF8077018488DF8D5
:10307000076021460A2301222F7005F04DFD9DF8BF
:1030800007306B7021460A23012211488DF8076032
:1030900005F042FD6B782A789DF80740AC701B0262
:1030A00043EA02431C43064801224FF4806104F0C6
:1030B00067FA230248BF44F07F44204603B0F0BDC6
:1030C00000080240001000E083DE1B43AC02002039
:1030D000A41C002030B5104C83B00B468DF80400C2
:1030E0000D0A2046012220218DF806308DF805506A
:1030F00004F046FA20460022202104F041FA64231D
:1031000001A90322054805F053FC20460122202195
:1031100004F036FA03B030BD000C0240A41C0020BD
:10312000F0B51C4C1C4E83B0002503464FEA102C12
:103130000F0A20468DF802302A4634238DF80510F8
:1031400020218DF801C08DF803308DF804708DF8C2
:10315000005004F015FA642369463046032205F056
:1031600027FC20460122202104F00AFA2A462046A4
:10317000202104F005FA03220DEB020164233046FE
:1031800005F016FC20460122202104F0F9F903B0D5
:10319000F0BD00BF000C0240A41C0020024BD3E98C
:1031A000002302600B607047B4020020F0B4144E9C
:1031B000144CB568144A334613F8187F206000EBAE
:1031C000400017F0010F02EB800006F134070CBF3E
:1031D000BC469C464068CCF80400367E61600131F4
:1031E00001EB410116F0010F02EB810108BF3B46E4
:1031F00005FB00F54A68A5609A60F0BC704700BF07
:10320000F81A0020B40200203410002070B5124DCE
:1032100082B0EB78ADF806000BB902B070BD0F4E6E
:103220000878B36803F150430C4603EB10100122F9
:103230000DF1060102F0D4FCAB68B168A2680B4442
:103240000132B3F5000FB360A260E6D30023B36090
:10325000636002B070BD00BFF81A0020B402002005
:10326000F0B5594DEB7883B00BB903B0F0BD574EB4
:10327000B3680746087803F150430C4603EB10107F
:1032800001220DF1060102F0A3FCBDF90630DA19A6
:1032900012B2A282A3812278520715D507EE907A46
:1032A000D4ED066A94ED066A07EE103AF8EEE77A76
:1032B000B8EEC77A67EE867AE6EE877AFDEEE77AB1
:1032C00017EE903A1BB2A382A38A22691BB29342E3
:1032D0002ADC2278B768C2F3C0024ABB63680133B4
:1032E0006360A8686268A36838449A42B06014D3E7
:1032F00023781B074ED423784FF07E526FF382035E
:103300002370A26143F6FF7323616B7D022B1AD0F9
:103310000023B360636003B0F0BDB0F5000F04BFDD
:103320000023B36003B0F0BDA38A1BB22361D0E7D2
:10333000214607F1504011F8143B00EB131002F046
:103340004FFCB768CAE73268AC6821492B7E214838
:1033500002EB420213F0010F00EB8202A1F11C0705
:103360000CBF8C46BC4652687368CCF8042095F8B4
:1033700018C0013303EB430300EB83031CF0010F80
:1033800018BF394604FB02F4586888600022B46014
:10339000EA706AE72369B3F5804FACDB237843F02A
:1033A000040323702069FDF775F802460B4604A15B
:1033B000D1E90001FDF702FAFDF7E8FAA061A1E703
:1033C0000000000080FFCF40F81A0020B402002067
:1033D0002C1B00203410002083681BB142688368D6
:1033E0009A4200D97047818901F57F513F3189B2F6
:1033F0001020FFF76FBE00BF2DE9F041444F84B0AD
:10340000FB78ADF806004BB10B7813F001051646BA
:103410000C4606D1127812F001052AD104B0BDE89D
:10342000F081DFF8F4800878D8F8083003F15043D1
:1034300003EB10102A460DF1060102F0D1FBA36840
:103440000133A3607268B3689A424DD3BB68D8F861
:103450000800A168B26803449142C8F8083030D02F
:10346000B3F5000FDAD100236360C8F80830736049
:10347000D4E7DFF8A4803078D8F8083003F150435F
:1034800003EB10102A460DF1060102F0A9FBB36808
:103490000133B3606268A3689A42D7D2D8F8083083
:1034A000207803F1504303EB10102A460DF10E0172
:1034B00002F08EFBBDF90E30A381636801336360B7
:1034C000C4E700252846FD7002F0D6F9012002F07D
:1034D000E1F9104AC8F8085001237B7013703D7061
:1034E00065607560FB7099E7D8F80830307803F1B3
:1034F000504303EB10102A460DF10E0102F068FB59
:10350000BDF90E30B3817368013373609EE700BF6D
:10351000F81A00204D0A0020B4020020274A13792F
:1035200010B43BB1D368264C03EB430304EB830395
:103530001B7A43B90378DC0719D40B78DB0729D44D
:103540005DF8044B7047D36803EB430304EB83043B
:10355000637A002BEED0838989895DF8044B43F6AA
:10356000FF700144184489B280B2FFF7D9BDD36817
:10357000134C03EB430304EB83031B7A002BDCD0D7
:1035800081895DF8044B01F57F513F3189B21020EC
:10359000FFF7A0BDD3680A4A03EB430302EB8303A2
:1035A0005B7A002BCCD089895DF8044B01F57F5103
:1035B0003F3189B22420FFF78DBD00BFF81A0020EB
:1035C00034100020F0B5324FFB7883B00BB903B054
:1035D000F0BD304DA8680C46164601A9012200F145
:1035E000504002F0EDFABDF90420BDF90630A28189
:1035F000B3816268AB6801326260726801327260E6
:10360000B96822780B44D107AB6015D43278D20761
:1036100006D4B3F5000F04BF0023AB6003B0F0BDC8
:103620007168B2689142F4D37B7D022B09D00023EC
:103630006360AB607360CAE76168A2689142F3D2CD
:10364000E4E72968BE6814483B7E144C6A6801EBC5
:10365000410113F0010F04EB8101A0F11C0C0CBF20
:103660008646E6464B68CEF80430397E013202EBDE
:10367000420211F0010F04EB820218BF604651684C
:10368000816006FB03F30022AB60FA70C1E700BF64
:10369000F81A0020B40200202C1B00203410002057
:1036A00008B50D4B0020D8701A7E42F001021A7640
:1036B00093F8342060F3000283F834201A7E60F31C
:1036C00007121A76FFF732FCF020FFF719FCF12001
:1036D000BDE80840FFF714BCF81A002008B5114BEC
:1036E0000021D97093F8342042F0010283F834208D
:1036F0001A7E61F300021A761A79012A93F83420AF
:1037000008BF022161F3071283F834200120FFF77C
:103710000DFCF020FFF7F4FBF120BDE80840FFF7B7
:10372000EFBB00BFF81A0020064A1379B3FA83F3FF
:103730005B0913711379012B0CBF042302239360DF
:10374000704700BFF81A002003786FF382030370FC
:103750000378002210B46FF3C30343F6FF744FF0F5
:103760007E510370046181615DF8044B42608260A8
:10377000828170471A4B10B500241C705C70DC709D
:103780001C751A7E64F382021A761A7E4FF07E51FF
:1037900043F6FF7064F3C3021A7698621963DC6122
:1037A0001C629C8493F8342064F3820283F83420F2
:1037B00093F8342064F3C30283F834205864D96446
:1037C0009C63DC63A3F8404000F0BCFA012002F0E7
:1037D00061F8204602F05EF8024B01221A7010BD1B
:1037E000F81A00204D0A002010B50E480E4B036059
:1037F00082B003F05BFB78B90C24002310226946E9
:103800000848CDE9004303F067FB18B1522107488F
:1038100001F016F902B010BD4921044801F010F979
:10382000EAE700BFAC0E0020007400404CE6000840
:10383000214B02689A4200D0704770B586B00026CE
:1038400003F5E23300961A6C1C4C42F000521A64E5
:103850001B6C039603F0005300932022032300996E
:10386000019201A905461648029303F045FD15484B
:1038700020604FF0606140224FF480634FF400609D
:103880006160A2604FF400514FF480722361606167
:103890004FF400332046E6606662C4E906122362F4
:1038A00003F03EFB18B9EC60A56306B070BD79214A
:1038B000054801F0C5F8F6E700740040C00E00208E
:1038C00000000240A06002404CE6000810B582B043
:1038D0001C4B002400941A6B42F400121A631A6BFA
:1038E00002F400120092009A01941A6B42F48002D2
:1038F0001A631B6B03F48003019302220121112040
:10390000019B03F057FA112003F08AFA03220121E8
:10391000392003F04FFA392003F082FA22460321BE
:103920003B2003F047FA3B2003F07AFA02220321FE
:103930003C2003F03FFA3C2002B0BDE8104003F009
:103940006FBA00BF0038024038B500EB4000184B9A
:10395000184C194A53F82000002319461370FEF73B
:10396000C5FD20461021FEF7D5FFA56822686068D6
:10397000124B00FB02F01860226811484EF66021DD
:10398000B1FBF5F102FB01F25A605C681968B4FB07
:10399000F1F201FB12429A605A681968B2FBF1F227
:1039A000DA601968BDE8384001EB8101FEF7B2BF6B
:1039B00034100020A0190020200F0020C019002082
:1039C000D01900202DE9F04F9C4CDFF8B0829C4FBD
:1039D000E3689C4E9C4DDFF8A8A24FF0000985B02B
:1039E00088F8009087F80090E0680293FFF7ACFF3A
:1039F000964A974B9748A2F80090C3F8009005F0BC
:103A0000F3F90222012362752375E0682169DFF86A
:103A10007492FFF7CBFB227D012A4CD1E168236928
:103A20000133994247D2E27098F80030002B7DD0E4
:103A3000B068236DD6F800C07168874ACAF8005094
:103A400001FB0CF129603168C9F8006003444EF6AF
:103A5000602BBBFBF3F301FB03F36B606868296821
:103A6000B0FBF1F301FB1303AB606B682968B3FB98
:103A7000F1F3EB60E16823697848106099422AD13C
:103A8000E26877497748013207F016F9002340F2DF
:103A90001D52CDE900329621734B724A0A20FEF77F
:103AA00007FC3B78002B40F09C80237D032B02D049
:103AB000237D002BF5D100256648257505F0A0F97A
:103AC0006420FDF7A7FF029BE360E5706570257039
:103AD00005B0BDE8F08F654A039210461021FEF74D
:103AE00019FF039A936810685168BBFBF3FB604BA6
:103AF00001FB00F1196012685E4802FB0BF25A608C
:103B0000D3F804C01968BCFBF1F201FB12C29A6041
:103B10005A681968B2FBF1F2DA60196801EB8101A9
:103B2000FEF7F8FE002388F80030A9E74F48504B15
:103B3000D0F808E0216DD0F800B0D0F804C0C9F882
:103B400000000CFB0BFCC3F800C00068CAF8003092
:103B500071444EF6602BBBFBF1F100FB01F15960A3
:103B6000D3F804C01868BCFBF0F100FB11C13A485F
:103B70009960DFF800C15968C0F800C00392186866
:103B8000B1FBF0F1D96001F03BF9E168236999429A
:103B90003FF476AF10213046FEF7BCFEB0683168C6
:103BA0007368BBFBF0FB03FB01F32B6033682B480E
:103BB00003FB0BF36B60D5F804C02968BCFBF1F381
:103BC00001FB13C3AB606B682968B3FBF1F3EB60D7
:103BD000296801EB8101FEF79DFE039A88F8002019
:103BE0004EE700233B702378DBB2012B0CD1E06859
:103BF000217E214A00EB400001F0010102EB80022E
:103C000081F001010A441372E3680133E360E26862
:103C1000236901339A427FF4FEAE2378012B4FF0E3
:103C2000000308D0029AE26088F800303B70E06838
:103C3000FFF78AFEEFE623703DE700BFF81A002089
:103C400018100020B01900201C100020A20C002029
:103C5000C01A0020101E002030100020240F002069
:103C600080E60008541B002008000020A019002056
:103C7000C0190020D019002034100020200F00208F
:103C8000141000202C1000202DE9F041294BDFF802
:103C9000B0C0002488B006460F462046214615468F
:103CA0008CF800401C70FEF721FC0C2101A8FEF7E7
:103CB00031FEDDE90112039B396032602B6032680E
:103CC000A2B3302B32D81C4D6C6033682C726C72EE
:103CD00063B31A4FA04685F8088085F80980FEF77F
:103CE000FFFB102128600DEB0100FEF713FEDDE95C
:103CF000043101FB03F1384601EB8101FEF70AFEB6
:103D00003368621CA3424EF6602014460AD9049B15
:103D10006A680699B0FBF1F1C3EB031301FB0323BF
:103D20002B6133689C4205F10C05D4D308B0BDE883
:103D3000F08100BF1810002034100020D01900209E
:103D4000200F002008B5054B054800221A7505F024
:103D500057F86420BDE80840FDF75CBEF81A002063
:103D6000101E00202DE9F0412D4D2B7DDBB2012BE3
:103D700001D0BDE8F0812B4A2B4E12683188506883
:103D800088422FD9338891689BB219B1274F3C687C
:103D9000052C37D0D168B3FBF1F201FB1233DBB94C
:103DA000224FDFF890803C68D8F80020631D0AD8C5
:103DB000115D013419B1287DC0B201281AD03B68C9
:103DC0000433A342F4D8115D19B1287DC0B2012893
:103DD00015D03B6805333B60338801339BB2338099
:103DE000BDE8F0811249114A0B7000231360338043
:103DF000BDE8F08101F0CAFBD8F80020DFE701F050
:103E0000CFFBE6E7D16892680A44B3FBF2F102FB0C
:103E10001133002BE0D1DFF81C80D8F80020C7E771
:103E2000F81A002014100020A20C0020C01A002054
:103E3000181000203010002030B5124B124A1A60C2
:103E400089B001220421002480255A60D960102203
:103E5000184669449D619C60C3E90444C3E9074472
:103E6000C3E90944CDE90122CDE90322CDE90522C8
:103E7000079204F041FB18B15A21044800F0E0FD1C
:103E800009B030BDC41A0020400100A094E600082B
:103E90002DE9F0412D4B1C6886B014B106B0BDE889
:103EA000F0814FF001082A4A0094C3F80080936B18
:103EB000284843EA08039363936B039403EA0803D7
:103EC000022703260C25009301A94FF63F03009A11
:103ED000CDE90137CDE9046503F00EFA01A91E48CA
:103EE0000394CDE90187CDE9046503F005FA01A942
:103EF00048F23313194801930297CDE904650394FE
:103F000003F0FAF901A94FF683731548019302975C
:103F1000CDE90465039403F0EFF901A94CF20373B2
:103F2000104801930297CDE90465039403F0E4F986
:103F3000602301A90C480297CDE90465039401931D
:103F400003F0DAF906B0BDE8F08100BFC00200203E
:103F500000380240001402400008024000180240ED
:103F600000100240000C0240000402402DE9F04F16
:103F70008FB00024BF4B01941A6BDFF810B3DFF849
:103F800010A3DFF81093DFF81083BB4F42F010024C
:103F90001A631A6B02F010020192019A02941A6BD2
:103FA00042F004021A631A6B02F004020292029AAF
:103FB00003941A6B42F020021A631A6B02F020027B
:103FC0000392039A04941A6B42F080021A631A6BEC
:103FD00002F080020492049A05941A6B42F00102E6
:103FE0001A631A6B02F001020592059A06941A6B85
:103FF00042F002021A631A6B02F002020692069A5B
:1040000007941A6B42F040021A631A6B02F04002E6
:104010000792079A08941A6B42F008021A631B6B06
:1040200003F008030893584601220C21089B03F073
:10403000A7FA22465846702103F0A2FA22465046BB
:1040400042F2160103F09CFA504601224FF4F96146
:1040500003F096FA484601224FF4A47103F090FA57
:1040600022464846802103F08BFA8448012240F220
:10407000034103F085FA2246404643F2200103F053
:104080007FFA2246384647F20C0103F079FA3846A7
:104090000122802103F074FA0122404618210125F3
:1040A00003F06EFA0226584609A90423CDE9093522
:1040B0000B940C9603F020F909A95846082309939C
:1040C000CDE90A540C9503F017F9584609A9702355
:1040D0000993CDE90A540C9403F00EF909A950464E
:1040E00042F216030993CDE90A540C9403F004F943
:1040F0004FF4886309A909936148624B0A930B94B2
:1041000003F0FAF809A950464FF481630993CDE909
:104110000A540C9603F0F0F809A94846482309937D
:10412000CDE90A540C9603F0E7F809A94846802324
:104130000993CDE90A540C9403F0DEF8524B0B942A
:10414000202209A95046CDE9092303F0D5F809A991
:1041500040F2034349480993CDE90A540C9603F011
:10416000CBF809A9042345480B944FF4006BCDE923
:10417000093403F0C1F80E2309A940480D93CDE995
:104180000A640C94CDF824B003F0B6F809A94046AF
:10419000CDE909B40B9403F0AFF809A9404643F206
:1041A00020030993CDE90A540C9403F0A5F809A95A
:1041B000384647F20C030993CDE90A540C9403F0F6
:1041C0009BF80E2309A938460D9340230993CDE9A6
:1041D0000A640C9403F090F809A938468023CDE9CD
:1041E0000935CDE90B4503F087F8504609A94FF48E
:1041F00070730993CDE90A540C9503F07DF809A971
:1042000048464FF480734FF00A0A0993CDE90A54E7
:104210000C9503F071F809A948464FF4C05309936F
:10422000CDE90A640C96CDF834A003F065F8154A80
:10423000484609A94FF40043CDE90A24099303F045
:104240005BF8104A0B95042309A94046CDE90932D1
:1042500003F052F8182209A940460992CDE90A5400
:104260000C9603F049F8402309A9404609930E2310
:1042700014E000BF00380240001802400004024071
:104280000014024000002110000012100010024033
:104290000008024000000240000C02400D93CDE9EE
:1042A0000A640C9403F028F82C4A0B94404609A9A0
:1042B0008023CDE9093203F01FF8284A09A93846BE
:1042C0004FF40073CDE90A24099303F015F809A906
:1042D00038464FF480630993CDE90A4503F00CF8A2
:1042E0001F4BCDF824B0384609A9CDE90A3403F0B4
:1042F00003F81A4A1B48102309A9CDE90A24099397
:1043000002F0FAFF4FF4607309A916480993CDE94A
:104310000A4502F0F1FF2A462146082002F04AFD34
:10432000082002F07DFD31465046032202F042FD96
:10433000504602F075FD31460322172002F03AFD87
:10434000172002F06DFD2A462146282002F032FD9A
:10435000282002F065FD0FB0BDE8F08F00002110AD
:104360000000111000040240402870B500F0C58024
:1043700008D9B0F5007F54D0B0F5004F15D0802893
:1043800029D070BD042800F09780102805D001289E
:10439000F7D1BDE87040FFF7EDB99A4A13781907D5
:1043A0005CBF43F00803137070BD964A137813F096
:1043B0001004E6D143F01003137000F043F9924B60
:1043C000DC701A7D012A00F0EC801A7D032AD8D116
:1043D00001221A7570BD8B4A13785E07D1D48A4CBE
:1043E000216A43F00403137011B9E36B002BC8D0AA
:1043F000237EDD0700F1B28094F83430D8070CD565
:1044000094F8343013F0080F94F834300CBF43F0B4
:1044100008036FF3C30384F834307C4B01221A7015
:1044200070BD784A13789907ABD4774C617843F024
:10443000020301291370A4D0237D012BA1D0236A8C
:1044400013B9E36B002B9CD0637D012B04D1704A20
:104450000023E3611360A3630123E370237EDA0783
:1044600009D5237E6FF382032376237E00226FF328
:10447000C3032376A28494F83430DB070ED594F876
:1044800034306FF3820384F8343094F834300022EF
:104490006FF3C30384F83430A4F84020002001F007
:1044A000EBF9012001F0F6F9584A012300212170AF
:1044B00013706370E37070BD534CE378002B3FF4CE
:1044C00060AFFEF7ABFD6378524A40F30F20012B3B
:1044D00010804ED02378012B7FF453AF2379002B2B
:1044E00070D104F1340114F8183F13F0010F18BF14
:1044F0002146BDE87040FEF789BE424A137813F0AA
:1045000001057FF43EAF404C217843F001030129BF
:1045100013703FF436AF237D012B3FF432AFE570CB
:10452000637D012B0CD1234604F1340013F8182FBE
:1045300012F0010F18BF1846FFF706F9344B1D6043
:10454000012001F099F9002001F0A4F92F4901237D
:10455000002223700B706270E37070BD237E13F035
:10456000080F237E0CBF43F008036FF3C3032376C9
:1045700053E72379C3B9254604F1340615F8183FEB
:1045800013F0010F14BF29463146FEF769FE237E62
:1045900013F0010F14BF28463046BDE87040FEF707
:1045A0001BBF03221A7570BD04F1180104F1340217
:1045B000FFF708F804F1340104F11800BDE8704079
:1045C000FEF7ACBF04F1340204F11801FEF714FF4A
:1045D000E268114B217E02EB420203EB820301F001
:1045E000010213441B7A012B7FF4CBAE14F8183F61
:1045F00013F0010F04F11C0008BF2046BDE8704015
:10460000FEF7EABE4E0A0020F81A00204D0A0020EC
:10461000BC020020A80E002034100020084B1B68AC
:104620000020DAB262F30700C3F3072262F30F201F
:10463000C3F3074382B063F3174002B0704700BF73
:10464000C802002008B54FF40041094802F092FF6B
:10465000084B0949B0FA80F0400998700A68C2F323
:10466000C7021A704A68C2F3C7025A7008BD00BF79
:1046700000000240C80200204C1B0020064B1A78A4
:10468000042A01D0012070475A78042AFAD1987878
:10469000003018BF01207047C8020020FCF7E6BCBC
:1046A00008B513468AB201461846FCF771FD002092
:1046B00008BD00BF08B513468AB201461846FCF78C
:1046C00097FB002008BD00BF70B594B00020284AB9
:1046D0000190116C274B41F080511164126C02F073
:1046E00080520192019A02901A6842F440421A6084
:1046F0001B6803F4404302934FF4803001230224EB
:104700004FF480010425A82208930990072308A8E4
:10471000029E0E941294CDE90F151192139303F09B
:104720003BFC00B1FEE74FF4A0524FF480530590DC
:104730000F26052103A804940396CDE9062303F070
:104740001BFE044600B1FEE703F0B0FE4FF47A739F
:10475000B0FBF3F002F07EFB284602F095FB224608
:1047600021464FF0FF3002F025FB14B070BD00BFB2
:1047700000380240007000407349744BCA68F0B5BD
:1047800042F080720025CA605D601A68704C714EFC
:1047900042F001028DB01A6001F0B0FF6E4B5D7502
:1047A0001D711A7E42F001021A761A7E65F34102EB
:1047B0001A7693F8342065F3000283F8342093F8D6
:1047C0003420022765F3410283F834201D659F6081
:1047D000FFF77AFFFFF7CAFBFFF778F801F004FB59
:1047E000FFF72AFB01F038FB00F012FF01F048FC54
:1047F000FEF7EEF900F034FFFEF7F6FF01F066FB7E
:1048000001F088FC01F09CFBFEF71CFAFCF7E8FACB
:104810004FF490610291802100914FF00071CDE939
:1048200007154FF48031CDE909114FF480710B91D8
:104830004A4904914A490591A4F5407349490194B4
:1048400003F1800203F520700691039504A9FCF79B
:104850008FFE0146444806F007FA01F0B5F808203B
:1048600002F0EAFAFDF762FC3846FDF789FC4AF2ED
:104870005420FDF749FC3D4804F0B6FA284600F004
:10488000BFFF012000F0BCFF0121284601F010F815
:10489000374804F0A9FA374801F0F8FF3A4636499C
:1048A000364802F065F8FE20FEF72AFB0F20FEF7DF
:1048B00027FBFEF7A9FB01210846FEF761FB28460E
:1048C000FEF734FBF020FEF71BFBF120FEF718FB90
:1048D000082002F0A5FA0320FEF712FBFDF786FD83
:1048E00000F038FE01222946B02000F00BFE042122
:1048F0001420FDF725F9FDF797F929462846204AA7
:10490000FDF79CF9FDF750FE00F08AF9284600F00B
:1049100025FAA4F540740AE0307884F88057FF281F
:1049200001D000F01BFA94F88137012B07D094F8DE
:104930008037002BF0D1FDF7FFFC3070EDE700F081
:104940005FFA84F88157F2E7F0ED00E0001000E034
:10495000CC050020721B0020F81A0020B546000884
:10496000A14600089D460008C8E60008D41D0020A6
:10497000981D0020100E00204C1B0020580E002017
:10498000D8E6000810B5284C94F88237DA073ED4F0
:1049900098072ED459071FD41A0710D4DB0600D469
:1049A00010BD4FF40041214802F0E4FD0128F7D189
:1049B00094F8823783F0100384F8823710BD1021F9
:1049C0001B4802F0D7FD94F88237012804BF83F01A
:1049D000080384F88237E1E78021164802F0CAFD17
:1049E00094F88237012804BF83F0040384F88237E7
:1049F000D2E74FF40071104802F0BCFD94F8823702
:104A0000012804BF83F0020384F88237C2E7402103
:104A10000A4802F0AFFD94F88237012804BF83F002
:104A2000010384F88237B3E7CC0200200000024083
:104A300000040240000C0240001802400014024032
:104A4000FEE700BF2DE9F04F3E4B3F4EDFF82881D7
:104A50003E4A3F4C3F4D002783B0384601211F702E
:104A6000776188F80070FDF7E9F839463846FDF7B8
:104A700069FD384600F000FFB94603E02978C9B265
:104A8000012918D0FDF758FC20700028F6D100202D
:104A900000F000FF0A223049706906F085F9736959
:104AA000BB420CBF2D4A2E4A0121002003B0BDE8B5
:104AB000F04FFDF7C3B8DFF8C4B04FF0000AB9F10A
:104AC000000F38D098F80090264B274985F800A0B1
:104AD00099444846042206F017F90028D7D0DBF89D
:104AE00000104846FDF726FE7269DBF800301F49CA
:104AF000194803EB020C62463B46C6F814C006F0A8
:104B0000DBF840F21D53CDE900A3134A184B5021A6
:104B10000A20FDF7CDFB7369BB42B8D298F800308C
:104B20004033DBB2802B14BF88F8003088F800A037
:104B30004FF00109A6E70B4B0E4A1F684846FDF7E8
:104B40007DF8BFE7BC210020500A002018E70008CC
:104B5000721B0020B0200020541B00204CE70008EE
:104B600060E70008F82000203CE7000844E7000860
:104B70000800002028E70008F42000207821002009
:104B80002DE9F0474AF2542082B0FDF7BDFA1F4EDE
:104B9000DFF88490DFF884801D4F00240A2596F802
:104BA0003032C3EBC30306EB83032344E0B293F933
:104BB0000430C3EBC302013317D0E4B156F822A08E
:104BC000FDF7B4FB534602464146384606F074F8FA
:104BD0001E20002340F21D52CDE9003229460D4B24
:104BE0003A46FDF765FB1435ADB20134102CD6D131
:104BF00002B0BDE8F0872046FDF798FB4B46024621
:104C00004146384606F058F80A20E2E7680A0020D4
:104C1000541B0020080000207CE7000874E700080F
:104C2000F8B5444C444D00F02BFC4FF40C724FF09F
:104C3000FF31204605F067FF404A41481168936BF9
:104C40002160E561556BC4F8A83093683D49A563C0
:104C5000C4F8C4306063C4F8C0103B483B493C4DC5
:104C600013692065C4F8DC103A485169C4F88851CA
:104C7000156AC4F8A001106B2067C4F8FC30C4F8B2
:104C8000181100233449C4F83451C4F88C0084F856
:104C900030322371A361C4F81431C4F83031C4F840
:104CA0004C31C4F88810C4F8A410D2E906120725C4
:104CB0000920C4F85011C4F86C210A210B22C4F851
:104CC0006831C4F8843184F8203084F83C300C23F7
:104CD0000427062684F83D5084F88D010D25052013
:104CE00084F88E1184F88F210121022284F89031FA
:104CF0000E2384F8217084F8226084F8915184F89E
:104D00009201617184F8741084F8AC10A27184F877
:104D1000C82084F88C2184F83E3084F8003184F86F
:104D20001C3184F8383184F8543184F8703184F8B7
:104D30009030F8BD680A002084E70008741B00204A
:104D40000D5200084D520008015200081952000887
:104D50008CE70008C1530008655200080F282FD8BF
:104D600010B5184C94F83032C3EBC30304EB830343
:104D7000184490F904305A1C21D0DBB2C3EBC302B3
:104D8000114854F8221084F8303205F0B5FFFCF7D2
:104D90004BFF4AF25420FDF7B7F9002108460A4AB2
:104DA000FCF74CFFFFF7ECFE94F83032C3EBC30383
:104DB00004EB8304A36913B1BDE81040184710BD8C
:104DC000704700BF680A0020541B002010B5094C32
:104DD000094982B00246204605F06EFF00204FF6DA
:104DE000E073CDE900302246044BDD21FDF760FA87
:104DF00002B010BD541B002098E7000808000020F6
:104E00002DE9F041414C424F4248224604F134061C
:104E100012F8185F237E15F0010F08BF164603F045
:104E200001032278012B08BFB84688B014BF804622
:104E3000074612B96378002B3DD02378012B52D05E
:104E4000237E1A0717D494F834301B0713D46378E1
:104E5000012B53D06D462846FBF768FF394628449E
:104E600005F02AFF2379012B0ED02846FFF7AEFF6D
:104E700008B0BDE8F081284B0FCB6D46AC46ACE8DE
:104E800007008CF80030E6E7B368002BEDD0284629
:104E9000FBF74CFF214B024603CBAC18A85002F1A4
:104EA0000A001A889B786160284441462281A372D7
:104EB00005F002FFD9E71A4B0FCB6D4685E80F00CE
:104EC00039460DF10F0005F0F7FE2379012BCCD107
:104ED0002846FBF72BFF134A0346291810689288CF
:104EE000E8508A80C1E7104B93E807006D462B46D7
:104EF00003C323F8022B120C1A70ACE70B4B93E898
:104F000007006D462B4603C31A80A4E7F81A002059
:104F1000A0E70008A4E70008CCE70008E8E70008DD
:104F2000A8E70008B8E70008C0E70008DCE70008C9
:104F30000EB42DE9F04384B00BAC14F8045B039479
:104F4000D0B1461EF6B20136DFF8388004EB860693
:104F500040F21D594FF478470434CDF8049054F8CA
:104F6000042C0097294643460A2003941435FDF784
:104F70009FF9A642EDB2EFD104B0BDE8F04303B013
:104F8000704700BF0800002010B5054CFDF7D4F9AC
:104F9000002814BF012300232370F7D110BD00BFE8
:104FA000721B00202DE9F04F87B00125DFF8448205
:104FB000DFF844928A4E8B4F03908A462C46FDF7C9
:104FC000BBF9FF2888F8000027D0062800F20481EA
:104FD000DFE800F0C363B51DA7999000DBF80C2053
:104FE000DBF810309A4204D2DBF80C300133CBF8F6
:104FF0000C309DF81630012B2CD19BF81430022B6D
:1050000002D09BF81430D3B99AF80030BBB9012311
:105010008AF8003007B0BDE8F08FDFF8E0B19BF808
:105020000030012BF3D09BF80130012BEFD0FFF7BC
:1050300025FB012800F0978064B90024BFE79BF8A6
:105040001430022B06D19AF80030012B02D1002334
:105050008AF800305DBBDBF80C20494640F21D5455
:1050600000250132304605F027FE3B463246CDE9A9
:105070000054AA210A20FDF71BF9DBF810205A4939
:105080000132304605F018FECDE900543B46324669
:10509000BE210A20FDF70CF9CFE7DFF860B1DBF89D
:1050A0000C3023B1DBF80C30013BCBF80C30DBF8D3
:1050B0000C204E4940F21D5501320024304605F0C7
:1050C000FBFD3B46CDE900453246AA210A20FDF70B
:1050D000EFF8DBF8102046490132304605F0ECFDD0
:1050E000CDE900453B463246BE210A20FDF7E0F8F7
:1050F0000125A2E700F0B6F8DFF800B1FFF740FDA8
:10510000FFF77EFEA6E7DFF8F4B0039BDBF8102084
:10511000013B9A429FD2DBF810300133CBF81030BC
:1051200099E7DFF8D8B0DBF81020DBF80C309A42B2
:1051300091D9DBF81030013BCBF810308BE7DFF86A
:10514000BCB0DBF80C20DBF810309A42AFD2DBF8B1
:105150000C300133CBF80C30A9E700238AF800307B
:1051600007B0BDE8F08FFFF759FAC0F30723C0F38B
:105170000742042B8DF814008DF815308DF8162099
:105180000FD83FF436AFE5B9DBF81020DBF80C3070
:105190009A427FF62EAFDBF81030013BCBF810308F
:1051A00027E7002D7FF41AAF039BDBF81020013BAB
:1051B0009A42BFF41EAFDBF810300133CBF8103049
:1051C00017E7DBF80C30002B3FF413AFDBF80C30A3
:1051D000013BCBF80C300CE7DFF820B03AE700BF1A
:1051E000541B00200800002058E800082CE80008A4
:1051F0003CE80008721B002048E80008F81A00206C
:10520000014B02225A757047F81A0020014B012207
:105210005A757047F81A002038B5084C084B094AEF
:105220006E21022007256575FFF782FEFFF70AFC55
:10523000054B0021012261751A7038BDF81A002053
:1052400068E8000880E800084C0A0020044B0121AF
:1052500000225975DA601A61D8681969FDF7A6BF8E
:10526000F81A00202DE9F0414A4C207E10F0010090
:1052700082B07CD1237EDB076FD52079C0B20128B4
:1052800000F08380444A82210120FFF751FE434A07
:10529000434B444D404FDFF82481434ECDE900326B
:1052A0009621424B424A0420FFF742FEFDF744F8A4
:1052B00028700E28FAD801A353F820F04F530008A5
:1052C000AD520008AD520008AD520008AD520008C2
:1052D000AD520008AD520008AD520008AD520008B2
:1052E000AD520008AD520008AD5200083753000817
:1052F0001F530008F9520008FEF716FA0023A363B3
:10530000E3612379DBB2012B3A464FF001004FF005
:10531000820104BF18464246FFF70AFEC6E7FEF7C1
:10532000DDF9002332466E210120E361A363E363CC
:10533000FFF7FEFDBAE7FEF7B3F900231D4AA363AA
:105340006E210120E3612362FFF7F2FDAEE71A4B05
:1053500001221A7002B0BDE8F08194F8340010F018
:1053600001008AD0104A6E21FFF7E2FD85E794F82C
:105370003430DA073FF57EAF0E4A6E21FFF7D8FDD5
:105380002079C0B201287FF47DAF0C4A8221FFF75B
:10539000CFFD7CE7F81A0020D4E8000808E90008EF
:1053A00014E90008721B0020B0E80008E8E80008D3
:1053B000F8E800089CE800084C0A0020C4E800084F
:1053C00030B52A4A2A4C2B4885B000231946136071
:1053D000022540F66C128DF80330657505F093FBDD
:1053E00003AA02A901A8FEF74FFC04F1100104F181
:1053F0000C00FDF7D3FE019B33B3C82B15D8039BDC
:10540000302B05D929E0FEF7DDFA9DF80330A3B172
:105410002575FFF7F5FC0DF103010198FFF7C2FDBB
:105420009DF80330002BEED107E0134B82219A6ADE
:105430000120FFF77DFDFFF7A7FD104A01210023A2
:105440001170237505B030BD0B4B82215A6A0120C3
:10545000FFF76EFDFFF798FDEFE7074B8221DA6A51
:105460000120FFF765FDFFF78FFDE6E7BC02002096
:10547000F81A002034100020741B00204C0A002071
:1054800030B4104B104D114C11481249124A1D6096
:105490005C60124D124C9860D960124812491A6132
:1054A0005D61124A124D9C61D861124C124819621A
:1054B00012495A62124A9A63C3E90A54C3E90C01B9
:1054C00030BC7047741B00202CE900087CE7000802
:1054D00040E9000850E9000864E9000874E90008A0
:1054E00088E9000898E90008ACE90008BCE9000870
:1054F000D0E90008E4E90008F8E9000808EA000833
:105500001CEA000800B583B064238DF807008DF80D
:1055100006108DF805200DF1070101220C4804F05A
:1055200073F8642301220DF10601094804F06CF8B8
:105530009DF8073003F0F003B02B06D86423012256
:105540000DF10501024804F05FF803B05DF804FBBB
:105550004C1E002010B50C4C00222046082102F001
:105560000FF86420FCF756FA20460122082102F0C9
:1055700007F86420FCF74EFA78220721B020BDE836
:105580001040FFF7BFBF00BF0010024001284FF0DE
:105590003C0202D08920FFF7B5BF9920FFF7B2BFC8
:1055A00038B5002205460C46C0202221FFF7AAFF8D
:1055B000012D21464FF03C0204D08020BDE8384048
:1055C000FFF7A0BF9020BDE83840FFF79BBF00BFAA
:1055D00070B50E4E3446351D14F8011B21B9AC428E
:1055E000FAD134792CB970BD3C229920FFF78AFF9B
:1055F000F5E700222221C020FFF784FF21463C224C
:105600009020BDE87040FFF77DBF00BFB4200020B0
:1056100038B5104B104A1A604FF4827001224FF4D3
:10562000007508240A2158605A6118460022C3E90F
:105630000654D962C3E902221A61C3E908229A62B8
:1056400003F076F900B938BD53210448BDE838406D
:10565000FFF7F6B9A41C0020003C00402CEA00082B
:1056600038B5104B104A1A604FF482724FF400752F
:1056700010240A215A6018460022C3E90654D96250
:10568000C3E90222C3E90422C3E908229A6203F0B3
:105690004FF900B938BD69210448BDE83840FFF72B
:1056A000CFB900BFEC1B0020005001402CEA0008DD
:1056B000F0B5484A0368934289B05BD0464A9342AA
:1056C00001D009B0F0BD0024444B02945A6C444D03
:1056D00042F480125A645B6C059403F480130293C5
:1056E0004FF4607202230299039203A90522064631
:1056F0003C4804930693079201F0FEFD3A4B2B6061
:105700004FF080604FF480614FF480320423686072
:105710002846AC60EC60C5E90544EC61C5E90A4483
:105720002C632961C5E9082301F0FAFB00284CD15C
:105730002E4C2F4921604FF0806240204FF480634F
:105740004FF480316260A06004222361F56400237D
:105750002046AE63C4E90812E360C4E90533E3619F
:10576000C4E90A33236301F0DBFB48BBB464A663DE
:1057700009B0F0BD0024194B01941A6C1D4842F485
:1057800000421A641B6C059403F40043019303A9BF
:105790004FF4C053022703260625019ACDE90337AB
:1057A000CDE9066501F0A8FD082303A9124803937B
:1057B000CDE90474CDE9066501F09EFD09B0F0BDA8
:1057C000CB210E48FFF73CF9D0E7B6210B48FFF795
:1057D00037F9ADE7003C004000500140003802407E
:1057E000441C00200014024058640240FC1C0020AD
:1057F0007064024000080240000402402CEA0008E5
:1058000030B589B028B3012816D0184C184B04EBDA
:10581000800433F81050606803950123022203A925
:10582000CDE90433069201F067FD29466068002245
:1058300001F0A6FE09B030BD0E4B002202921A6B99
:1058400042F040021A631B6B03F040030293029B79
:10585000DBE7084B01901A6B42F040021A631B6BA6
:1058600003F040030193019BCFE700BF3C00002001
:10587000E8E5000800380240044B054A03EB8003CA
:1058800032F810105868012201F07ABE3C00002066
:10589000E8E50008044B054A03EB800332F81010DA
:1058A0005868002201F06CBE3C000020E8E50008CA
:1058B00010B586B050B91A4B00901A6B42F0010235
:1058C0001A631B6B03F001030093009BC9B101290C
:1058D00001D006B010BD134B134A019103EB8000B9
:1058E000002401A9C0680292039401F005FD21463D
:1058F0000222062001F05EFA062001F091FA06B0BD
:1059000010BD084B029103EB800001230193C06896
:10591000022301A9CDE9033301F0EEFC06B010BD6E
:10592000003802403C000020000011102DE9F04733
:10593000244C82B004F11005012608274FF000081E
:10594000214682464FF6FF7228462660C4E901765A
:10595000C4F80C80CDF8048002F072FE3046FCF7EB
:1059600059F80223214628464FF6FF7223604FF074
:105970000409C4E90176C4F80C8002F061FE032337
:10598000214628464FF6FF7223606760C4F80C80FA
:10599000C4F8089002F054FE4FF40C730193019B7D
:1059A0006760214628464FF6FF72C4F80090C4E9AC
:1059B000026302F045FE5146284602B0BDE8F047BA
:1059C00002F058BEA40C00202DE9F0438FB0724BBA
:1059D000724C73497348002501959A6BA56142F09A
:1059E00001029A639A6BE56202F001020192019A48
:1059F00002951A6B656342F480021A631A6B216187
:105A000002F480020292029A03951A6B1026402734
:105A10004FF4C0714FF4006C4FF0040926626762C6
:105A2000A162022707214FF0010842F002024FF461
:105A30000056C4F830C0A663A164C4E9139167643A
:105A4000C4E91577E765C4F81C90C4F814801A639C
:105A50001A6B3A400392039A04951A6B42EA0902C0
:105A60001A631A6B02EA09020492049A05951A6BEA
:105A700042F008021A631A6B02F008020592059AB6
:105A800006951A6B42F010021A631A6B02F01002AC
:105A90000692069A07951A6B42F020021A631A6B57
:105AA00002F020020792079A08951A6B42F0400212
:105AB0001A631B6B0EAE03F040030893602346F895
:105AC000143D0C233146089A0D93CDE90B570A97E4
:105AD00001F012FC31463448CDF8248001F00CFC72
