:020000040800F2
:1000000000000320491900089919000899190008EF
:1000100099190008991900089919000800000000B2
:10002000000000000000000000000000D55900089A
:100030009919000800000000D9590008DD5900088E
:1000400099190008ED590008991900089919000834
:100050009919000899190008095B00089919000806
:10006000F159000899190008F95900089919000870
:100070009919000899190008991900089919000898
:1000800099190008015A00080D5A0008991900082A
:10009000991900089919000899190008295A0008A7
:1000A000455A00089919000899190008991900087B
:1000B000595A0008991900086D5A00089919000842
:1000C0009919000899190008991900089919000848
:1000D0009919000899190008991900089919000838
:1000E000815A0008991900089919000899190008FF
:1000F000A15A0008991900089919000899190008CF
:100100009919000899190008991900089919000807
:1001100099190008991900089919000899190008F7
:1001200099190008D95A000899190008E55A0008D9
:10013000F15A00089919000899190008991900083E
:1001400099190008991900089919000899190008C7
:1001500099190008991900089919000899190008B7
:1001600099190008991900089919000899190008A7
:1001700099190008FD5A00089919000800000000AC
:100180009919000899190008991900089919000887
:100190009919000899190008991900089919000877
:0C01A00099190008991900089919000825
:1001B00010B5054C237833B9044B13B10448AFF3A1
:1001C00000800123237010BD1402002000000000F5
:1001D000A4BA000808B5034B1BB103490348AFF3A9
:1001E000008008BD0000000018020020A4BA00082A
:1001F00081F0004102E000BF83F0004330B54FEAD8
:1002000041044FEA430594EA050F08BF90EA020F44
:100210001FBF54EA000C55EA020C7FEA645C7FEAD7
:10022000655C00F0E2804FEA5454D4EB5555B8BFFA
:100230006D420CDD2C4480EA020281EA030382EA6B
:10024000000083EA010180EA020281EA0303362DFD
:1002500088BF30BD11F0004F4FEA01314FF4801CD0
:100260004CEA113102D0404261EB410113F0004FE2
:100270004FEA03334CEA133302D0524263EB430399
:1002800094EA050F00F0A780A4F10104D5F1200E37
:100290000DDB02FA0EFC22FA05F2801841F1000192
:1002A00003FA0EF2801843FA05F359410EE0A5F166
:1002B00020050EF1200E012A03FA0EFC28BF4CF097
:1002C000020C43FA05F3C01851EBE37101F000454D
:1002D00007D54FF0000EDCF1000C7EEB00006EEB5A
:1002E0000101B1F5801F1BD3B1F5001F0CD34908E4
:1002F0005FEA30004FEA3C0C04F101044FEA44523B
:1003000012F5800F80F09A80BCF1004F08BF5FEAC1
:10031000500C50F1000041EB045141EA050130BDA1
:100320005FEA4C0C404141EB010111F4801FA4F144
:100330000104E9D191F0000F04BF01460020B1FA99
:1003400081F308BF2033A3F10B03B3F120020CDAD1
:100350000C3208DD02F1140CC2F10C0201FA0CF0AF
:1003600021FA02F10CE002F11402D8BFC2F1200C14
:1003700001FA02F120FA0CFCDCBF41EA0C019040CA
:10038000E41AA2BF01EB0451294330BD6FEA040413
:100390001F3C1CDA0C340EDC04F11404C4F12002FE
:1003A00020FA04F001FA02F340EA030021FA04F310
:1003B00045EA030130BDC4F10C04C4F1200220FA67
:1003C00002F001FA04F340EA0300294630BD21FAA5
:1003D00004F0294630BD94F0000F83F4801306BF6B
:1003E00081F480110134013D4EE77FEA645C18BF5F
:1003F0007FEA655C29D094EA050F08BF90EA020FF6
:1004000005D054EA000C04BF1946104630BD91EAED
:10041000030F1EBF0021002030BD5FEA545C05D1F0
:100420004000494128BF41F0004130BD14F580042F
:100430003CBF01F5801130BD01F0004545F0FE41A3
:1004400041F470014FF0000030BD7FEA645C1ABFD8
:10045000194610467FEA655C1CBF0B46024650EA0F
:10046000013406BF52EA033591EA030F41F400213B
:1004700030BD00BF90F0000F04BF0021704730B5C1
:100480004FF4806404F132044FF000054FF0000196
:1004900050E700BF90F0000F04BF0021704730B557
:1004A0004FF4806404F1320410F0004548BF40422C
:1004B0004FF000013EE700BF42004FEAE2014FEA81
:1004C00031014FEA02701FBF12F07F4393F07F4F5C
:1004D00081F06051704732F07F4208BF704793F05F
:1004E0007F4F04BF41F40021704730B54FF4607472
:1004F00001F0004521F000411CE700BF50EA010275
:1005000008BF704730B54FF000050AE050EA01021D
:1005100008BF704730B511F0004502D5404261EB8D
:1005200041014FF4806404F132045FEA915C3FF4CE
:10053000D8AE4FF003025FEADC0C18BF03325FEA6B
:10054000DC0C18BF033202EBDC02C2F1200300FA1C
:1005500003FC20FA02F001FA03FE40EA0E0021FA41
:1005600002F11444BDE600BF70B54FF0FF0C4CF42F
:10057000E06C1CEA11541DBF1CEA135594EA0C0FE1
:1005800095EA0C0F00F0DEF82C4481EA030621EA1C
:100590004C5123EA4C5350EA013518BF52EA033557
:1005A00041F4801143F4801338D0A0FB02CE4FF009
:1005B0000005E1FB02E506F00042E0FB03E54FF039
:1005C0000006E1FB03569CF0000F18BF4EF0010E31
:1005D000A4F1FF04B6F5007F64F5407404D25FEA2D
:1005E0004E0E6D4146EB060642EAC62141EA5551E0
:1005F0004FEAC52040EA5E504FEACE2EB4F1FD0C22
:1006000088BFBCF5E06F1ED8BEF1004F08BF5FEA9F
:10061000500E50F1000041EB045170BD06F0004651
:1006200046EA010140EA020081EA0301B4EB5C04FE
:10063000C2BFD4EB0C0541EA045170BD41F48011F6
:100640004FF0000E013C00F3AB8014F1360FDEBF1B
:10065000002001F0004170BDC4F10004203C35DAF7
:100660000C341BDC04F11404C4F1200500FA05F37A
:1006700020FA04F001FA05F240EA020001F000421B
:1006800021F0004110EBD37021FA04F642EB060191
:100690005EEA430E08BF20EAD37070BDC4F10C04BB
:1006A000C4F1200500FA04F320FA05F001FA04F27F
:1006B00040EA020001F0004110EBD37041F100016B
:1006C0005EEA430E08BF20EAD37070BDC4F1200576
:1006D00000FA05F24EEA020E20FA04F301FA05F2DE
:1006E00043EA020321FA04F001F0004121FA04F286
:1006F00020EA020000EBD3705EEA430E08BF20EA56
:10070000D37070BD94F0000F0FD101F0004640008F
:1007100041EB010111F4801F08BF013CF7D041EA11
:10072000060195F0000F18BF704703F00046520015
:1007300043EB030313F4801F08BF013DF7D043EAE6
:100740000603704794EA0C0F0CEA135518BF95EA9C
:100750000C0F0CD050EA410618BF52EA4306D1D123
:1007600081EA030101F000414FF0000070BD50EA42
:10077000410606BF1046194652EA430619D094EACC
:100780000C0F02D150EA013613D195EA0C0F05D1B6
:1007900052EA03361CBF104619460AD181EA03010A
:1007A00001F0004141F0FE4141F470014FF00000C2
:1007B00070BD41F0FE4141F4780170BD70B54FF05D
:1007C000FF0C4CF4E06C1CEA11541DBF1CEA1355DD
:1007D00094EA0C0F95EA0C0F00F0A7F8A4EB0504BF
:1007E00081EA030E52EA03354FEA013100F08880B6
:1007F0004FEA03334FF0805545EA131343EA12637F
:100800004FEA022245EA111545EA10654FEA002633
:100810000EF000419D4208BF964244F1FD0404F5EC
:10082000407402D25B084FEA3202B61A65EB030548
:100830005B084FEA32024FF480104FF4002CB6EB05
:10084000020E75EB030E22BFB61A754640EA0C0085
:100850005B084FEA3202B6EB020E75EB030E22BFC5
:10086000B61A754640EA5C005B084FEA3202B6EB06
:10087000020E75EB030E22BFB61A754640EA9C00C5
:100880005B084FEA3202B6EB020E75EB030E22BF95
:10089000B61A754640EADC0055EA060E18D04FEA53
:1008A000051545EA16754FEA06164FEAC30343EAF3
:1008B00052734FEAC2025FEA1C1CC0D111F4801FC0
:1008C0000BD141EA00014FF000004FF0004CB6E7B9
:1008D00011F4801F04BF01430020B4F1FD0C88BF58
:1008E000BCF5E06F3FF6AFAEB5EB030C04BFB6EB63
:1008F000020C5FEA500C50F1000041EB045170BD56
:100900000EF0004E4EEA113114EB5C04C2BFD4EB82
:100910000C0541EA045170BD41F480114FF0000E06
:10092000013C90E645EA060E8DE60CEA135594EA82
:100930000C0F08BF95EA0C0F3FF43BAF94EA0C0F85
:100940000AD150EA01347FF434AF95EA0C0F7FF4FA
:1009500025AF104619462CE795EA0C0F06D152EA4E
:1009600003353FF4FDAE1046194622E750EA410632
:1009700018BF52EA43067FF4C5AE50EA41047FF443
:100980000DAF52EA43057FF4EBAE12E74FEA4102A6
:10099000B2F1E04324BFB3F5001CDCF1FE5C0DD9DD
:1009A00001F0004C4FEAC0024CEA5070B2F1004F27
:1009B00040EB830008BF20F00100704711F0804F2A
:1009C00021D113F13872BCBF01F00040704741F4EF
:1009D00080114FEA5252C2F11802C2F1200C10FAF3
:1009E0000CF320FA02F018BF40F001004FEAC123D7
:1009F0004FEAD32303FA0CFC40EA0C0023FA02F37B
:100A00004FEA4303CCE77FEA625307D150EA013350
:100A10001EBF4FF0FE4040F44000704701F0004020
:100A200040F0FE4040F40000704700BF53B94AB99F
:100A3000002908BF00281CBF4FF0FF314FF0FF30E6
:100A400000F072B9ADF1080C6DE904CE00F006F8C3
:100A5000DDF804E0DDE9022304B070472DE9F0473A
:100A6000089E04468846002B4BD18A42154667D91A
:100A7000B2FA82F24AB1C2F1200701FA02F320FA77
:100A800007F7954047EA030894404FEA154E230CB8
:100A9000B8FBFEF71FFA85FC0EFB178843EA0843F4
:100AA00007FB0CF1994209D9EB1807F1FF3080F0F0
:100AB0001B81994240F21881023F2B445B1AA4B279
:100AC000B3FBFEF00EFB103344EA034400FB0CFCC6
:100AD000A44509D92C1900F1FF3380F00781A44502
:100AE00040F2048102382C4440EA0740A4EB0C0495
:100AF00000271EB1D4400023C6E900433946BDE8B3
:100B0000F0878B4209D9002E00F0EB800027C6E960
:100B1000000138463946BDE8F087B3FA83F7002F65
:100B200047D18B4202D3824200F2FA80841A61EBF1
:100B3000030301209846002EE0D0C6E90048DDE717
:100B400002B9FFDEB2FA82F2002A40F08F80491B20
:100B50004FEA154E1FFA85F80127B1FBFEFC230C66
:100B60000EFB1C1143EA014308FB0CF1994207D923
:100B7000EB180CF1FF3002D2994200F2CD8084468E
:100B8000591AA3B2B1FBFEF00EFB101443EA044461
:100B900008FB00F8A04507D92C1900F1FF3302D259
:100BA000A04500F2B6801846A4EB080440EA0C40C9
:100BB0009FE7C7F1200CBB4022FA0CFE4EEA030E61
:100BC00001FA07F420FA0CF521FA0CF34FEA1E485B
:100BD0002543B3FBF8F92C0C08FB19331FFA8EFAE6
:100BE00044EA034309FB0AF49C4202FA07F200FAC2
:100BF00007F10BD91EEB030309F1FF3080F087806A
:100C00009C4240F28480A9F1020973441B1BADB2DF
:100C1000B3FBF8F008FB103345EA034400FB0AFA83
:100C2000A24508D91EEB040400F1FF336BD2A245A4
:100C300069D90238744440EA0940A0FB0289A4EB58
:100C40000A044C45C2464B4654D351D0002E69D0BD
:100C5000B1EB0A0564EB030404FA0CFCFD40FC4014
:100C60004CEA0505C6E90054002747E7C2F1200316
:100C700020FA03F7954001FA02F021FA03F34FEA54
:100C8000154E3843010CB3FBFEF71FFA85F80EFB37
:100C9000173341EA034107FB08F38B4204FA02F4DD
:100CA00007D9691807F1FF3C2FD28B422DD9023F9B
:100CB0002944CB1A81B2B3FBFEF00EFB103341EA9C
:100CC000034100FB08F38B4207D9691800F1FF3C90
:100CD00017D28B4215D902382944C91A40EA07476E
:100CE0003BE73746304609E70746E7E61846FBE6A6
:100CF0004145ABD2B8EB020A69EB0E02013813464C
:100D0000A4E76046E9E7184695E76746D1E78146DC
:100D10007CE702382C4447E7ACF1020C2B442FE768
:100D2000384608E73746E9E6704700BF0000000094
:100D300001F0FF01102A2BDB10F0070F08D010F88C
:100D4000013B013A8B422DD010F0070F42B3F6D190
:100D5000F0B441EA012141EA014122F007047FF0A9
:100D600000070023F0E80256083C85EA010586EA00
:100D7000010685FA47F5A3FA87F586FA47F6A5FA3C
:100D800087F68EB9EED1F0BC01F0FF0102F0070248
:100D900032B110F8013B013A83EA010313B1F8D1F3
:100DA0000020704701387047002D06BF35460338D4
:100DB000073815F0010F07D1013015F4807F02BF0D
:100DC000013015F4C03F0130F0BC0138704700BF5E
:100DD00001220421014806F067BA00BF001002405A
:100DE0002DE9F04184B00E46642517460421002207
:100DF0000446284806F058FA4FF0030C0DF10F0294
:100E000001230DF10D01009523488DF80DC007F069
:100E1000C5FD04A9330C01F8043D0DF10F020123B7
:100E200000951D4807F0BAFD04A9330A01F8053DF5
:100E30000DF10F0201230095174807F0AFFD04A93B
:100E400000950DF10F0201F8066D0123124807F01D
:100E5000A5FDBFB17E1EB6B20136DFF83C80264448
:100E6000FF27012300950DF10F020DF10E01404601
:100E70008DF80E7007F092FD9DF80F3004F8013BDD
:100E8000B442EED101220421024806F00DFA04B06A
:100E9000BDE8F081001002406818002030B50D4C0C
:100EA00085B020460022042106F0FEF96423009359
:100EB0000DF10F0201230DF10E01062506488DF8F4
:100EC0000E5007F06BFD20460122042106F0ECF9DC
:100ED00005B030BD001002406818002070B5002237
:100EE00084B004211348144E06F0DEF96424052072
:100EF0008DF80D000DF10F02009401230DF10D018D
:100F0000304607F04BFDFF25012300940DF10F0241
:100F10000DF10E0130468DF80E5007F03FFD9DF8A3
:100F20000F30DB07F0D401220421024806F0BCF99F
:100F300004B070BD0010024068180020F0B5214FC9
:100F4000214C85B006466425FFF7A8FF38460022ED
:100F5000042106F0A9F94FF0D80C0DF10F020DF1A4
:100F60000E012046009501238DF80EC007F016FDF6
:100F700004A9330C01F8033D0DF10F020095204642
:100F8000012307F00BFD04A9330A01F8043D0DF11C
:100F90000F0200952046012307F000FD04A901235C
:100FA00000950DF10F0201F8056D204607F0F6FCE3
:100FB00038460122042106F077F9FFF78FFF05B0CC
:100FC000F0BD00BF0010024068180020F0B5214FAE
:100FD000214C85B006466425FFF760FF38460022A5
:100FE000042106F061F94FF0200C0DF10F020DF114
:100FF0000E012046009501238DF80EC007F0CEFCAF
:1010000004A9330C01F8033D0DF10F0200952046B1
:10101000012307F0C3FC04A9330A01F8043D0DF1D4
:101020000F0200952046012307F0B8FC04A9012314
:1010300000950DF10F0201F8056D204607F0AEFC9A
:1010400038460122042106F02FF9FFF747FF05B0CB
:10105000F0BD00BF00100240681800204318B3F133
:10106000007F09D840EA0103C3F30B0370B50546BE
:101070000C461BB1012070BD0120704783B26BB9D3
:101080008BB299420AD00E46A6F580362846B4B2F5
:10109000FFF754FFB44205F58035F5D1C4F30B03D7
:1010A0009C420AD0A4F580542846FFF78FFFC4F372
:1010B0000B03A34205F58055F4D1002070BD00BF9D
:1010C0002DE9F04184B00E46642517460446FFF72B
:1010D000E5FE00220421284806F0E6F84FF0020C55
:1010E0000DF10F0201230DF10D01009523488DF83C
:1010F0000DC007F053FC04A9330C01F8043D0DF1B9
:101100000F02012300951D4807F048FC04A9330A8B
:1011100001F8053D0DF10F0201230095174807F076
:101120003DFC04A900950DF10F0201F8066D0123A5
:10113000124807F033FCA7B17E1EB6B20136DFF8C5
:101140003C80264414F8017B009501230DF10F0229
:101150000DF10E0140468DF80E7007F01FFCB442F1
:10116000F0D101220421044806F09EF8FFF7B6FEF4
:1011700004B0BDE8F08100BF0010024068180020F4
:101180002DE9F8431646130A11F0FF020D460746F3
:101190001ED17BB3013B5FFA83F83C4608F10100A6
:1011A00007EB0027A1EB04094FF4807204EB09015F
:1011B00020461444FFF784FFBC42F5D105F5807149
:1011C00001EB0821F2B22046BDE8F843FFF778BFF3
:1011D0005442E4B2ABB9F3B29C420BD21A44D6B239
:1011E0002246FFF76DFF324661193819BDE8F84312
:1011F000FFF766BF324629463846BDE8F843FFF799
:101200005FBFA2B2B61AB6B24FEA16295FFA89F8E2
:1012100008F1FF38FFF754FFF6B2254438195FFA9A
:1012200088F8B9F1000F1ED008F10107044600EB61
:101230000727A5EB00094FF4807204EB0901204653
:101240001444FFF73DFFBC42F5D105F5807505EB71
:1012500008250EB9BDE8F883324629462046BDE888
:10126000F843FFF72DBF0446F3E700BFF0B5D1E91F
:10127000026333401BD091F800C0BCF1000F1BD0BB
:101280000D6900F1140700234FF0010E0EFA03F46C
:10129000344203F10103284606D095F90040002CA2
:1012A00002DB2C89944204D063453D44EED10020FA
:1012B000F0BD4B686B60F0BD6046F0BD2DE9F84FA6
:1012C000C66DD6E902138B4302D00020BDE8F88F2B
:1012D0003578002D44D03769D0F81CC0D6F804A06A
:1012E0004FF000083C460CF1140942464FF0FF3E17
:1012F0006368AAEB0303434506D994F900B0BBF138
:10130000000FA4BF984696460132AA424C44EFD142
:10131000BEF1FF3FD9D04FF0010808FA0EF818EAE5
:1013200001051DD009FB0EF907EB090317F8095059
:101330002A0618D415F0010517D01D8901694368E4
:1013400009F114020CFB05103A4461469847B16854
:1013500021EA08010023B16007F80930BDE8F88FE1
:101360002846BDE8F88F0020F2E72846F0E700BFE6
:101370002DE9F04F04461E46E56D0069E36981B032
:10138000321A8946B2FBF3F2184692B22946DDE9D9
:101390000A78FFF76BFF6A68013282466A6060B9BB
:1013A00009F00309B9F1010F25D1236842463946F6
:1013B000304601B0BDE8F04F1847606E2369E1691F
:1013C0002D6901306066F61A9AF80100B6FBF1F358
:1013D00001FB13631433143101FB0031CAF80420FC
:1013E00040463A46294409F017FA4FF000094846AA
:1013F00001B0BDE8F08FA36E0133A3662046FFF76E
:101400005DFFE26D9368591C814608D1236842460E
:10141000394630469847002818BF8146E7E71078DC
:101420000028F3D013F0010CE16945D04FF0010C16
:101430000AF1010A82450CFA0AFBE7D013EA0B0F06
:10144000F6D101F1140000FB0AFCD2F810E043EAE7
:101450000B030EEB0C0A93605368CAF804300223A6
:101460000EF80C3023699AF80120D5F810C0F31A51
:1014700000FB02F2B3FBF1FE143201FB1E33F01A43
:1014800062442368AAF808E098472369E2699AF859
:1014900001402969F61AB6FBF2F302FB1363143319
:1014A000143202FB0433002818BF81463A464046F6
:1014B000194409F0B1F99AE701F114004FF0010B5A
:1014C000C3E700BFD0F85CC0BCF1000F47D0F0B557
:1014D000C369056E1433143DB5FBF3F5002D87B0D9
:1014E0003BDD0022134601325B00954243F00103CD
:1014F000F9D10024CDE901440CF1140E4FF0FF3274
:101500008DF804500493CDF814E0039201AE074621
:101510000FCECCF810E0CCF80000CCF80410CCF8DA
:101520000820CCF80C30FE6DFB693278306914333A
:1015300002FB03F209F07BF9D6E9023215F0FF0550
:1015400023EA0203B36008D0F969326914312346F3
:10155000537001339D420A44FAD107B0F0BD704781
:101560002DE9F84F0D4604469246002180221F4681
:10157000D0F878B0DDF83080DDE90A6909F057F974
:1015800029686A68A868EB68E36021606260A0600F
:10159000EB6929696A69A869E361E369A061534459
:1015A00021616261C4E90D3AA269E368C4F878B0C8
:1015B000B3FBF2F3384623623246002109F037F9D3
:1015C00017F0030303D0C3F104031F44F61A184BAA
:1015D000E763A3FB0636760919F00303266404D0FB
:1015E000C3F104039944A8EB0308E369C4F85C90D1
:1015F00018F0030F4FEA431318BF28F003084345C0
:1016000028BF434623662046FFF75CFF094BE3678C
:10161000204600F025F9002807DB01230D9A84F805
:101620007430E2660020BDE8F88F6064BDE8F88F92
:10163000ABAAAAAA150309204FF6FF7291420AD05D
:1016400021B1C36C0133C36406487047036D013395
:10165000036504487047002BF6D1836C0133836423
:1016600000487047AAD8FFFF2DE9F04F05461746FE
:10167000D5F81CC08069B0FBFCF25400B4FBFCF44C
:10168000002C8BB008BF01246E6BD5F820E00896C3
:10169000141BBDF850600596BC428B46049304FBB6
:1016A0000EF94FEA5C0A0DDC4B1C1FFA83FBDE458A
:1016B00000F2A680049B13F0040740F09D8007977A
:1016C000BB4602E000FB01F30793B9F1000F40F3C2
:1016D0009380CAEBCA735B000993049B03F0010378
:1016E0000293634697FBFAF1089C069101FB0AF806
:1016F000C8EBC87104EB4101039152000699B2FB9B
:10170000F3F2002A08BF01228A4240F38C802A6942
:101710000798696B0191024406980093142103FB1A
:10172000002300222846FFF723FE002859D1D5E9DF
:1017300006033C464E46B0FBF3F2159F07E00399C3
:1017400031F814C005998C4514D0013E0134A4EB46
:10175000080CE2454FEA4201A646B1FBF3F1B1465F
:1017600053DD002908BF0121511AA1424DDD029924
:101770000029E4D1189B0BB1A3F800B0199B03B169
:101780001C60002F4BD0049B9A0756BF039B059902
:1017900033F81410179B0193169B00935A46234667
:1017A0002846B84700F51D531733012B25D82A4A80
:1017B000EB69904203D0A869B0FBF3F2C5E72A6950
:1017C0000798696B0191024406980093142100FB6D
:1017D000032300222846FFF7CBFD00280DDBEB6931
:1017E000E9E70BF101032A6A9BB2934202D3049BFF
:1017F0005B0701D4002800DB18480BB0BDE8F08F70
:101800000BFB00F3079300275FE70699099C013162
:101810000691039921447746D04403916DE71598CA
:101820000BB0BDE8F08F0BF1010B2A6A1FFA8BFB9E
:101830005A4509D9079A02440792B9F1000FDBDD36
:10184000B0FBF3F200274DE7049A12F0040BD3D15A
:10185000CDF81CB0F1E700BFA9D8FFFFA8D8FFFF63
:101860002DE9F04F036A89B04FF000080646ADF845
:101870001A80002B5ED044464FF6FF790DF11C0A0A
:101880004FF0020B12E0BDF81C30934205D0994591
:1018900028BF9946984538BF9846BDF81A40326A25
:1018A0000134A4B29442ADF81A401CD2D6E906C362
:1018B0003769BCFBF3F5023F6D000022152130466D
:1018C00004FB0C74B5FBF3F50DB105FB03F3CDE997
:1018D00000BA2344FFF74CFD00284FF6FF72D2DA1E
:1018E00009B0BDE8F08FA8EB0903B3F5004FB4BF12
:1018F00008F1010809F101081FFA88F800230DF129
:101900001A050F4CA6F856801A46CDF814A01946B1
:10191000C6E9123333653046CDE9023300930495AE
:101920000194FFF7A1FE074B984208BF002009B0C1
:10193000BDE8F08F4FF001080DF11C0ADEE700BF93
:1019400039160008A8D8FFFFDFF834D0002103E0E3
:101950000C4B5B58435004310B480C4B42189A42D5
:10196000F6D30B4A02E0002342F8043B094B9A42AB
:10197000F9D304F099FC08F01BFF02F02FFE70472A
:1019800000000320E0E8000800000020140200200E
:101990001402002030240020FEE70000704700BF42
:1019A00070B5174EB3690133B361F36913B1F369CD
:1019B000013BF361337803B30024A50073195B681E
:1019C000B3B11A789207184612D59A68511E0AB117
:1019D000996069B93544D3E9032190476A6813785F
:1019E0005168916013F0010102D161F3410313705A
:1019F00001343378E4B2A342DFD8FFF7CFFF70BDE4
:101A000030020020EFF305833BB1074A20B1136891
:101A1000DB03FCD50138F9E77047044A9169936903
:101A20005B1A8342FBD3704710E000E030020020D5
:101A3000014B9869704700BF3002002038B5054659
:101A4000164C1748C5F3C002802105F02DFCC5F3E4
:101A500080022046402105F027FCC5F340022046C5
:101A6000802105F021FC05F0010220464FF4807131
:101A700005F01AFC204601224FF4007105F014FC19
:101A8000142001F0A1F9204600224FF4007105F066
:101A90000BFC1420BDE8384001F096B90008024064
:101AA0000018024010B5002204464FF48071064829
:101AB00005F0FAFB2009FFF7C1FF04F00F00BDE8B5
:101AC0001040FFF7BBBF00BF0000024010B40C4B3A
:101AD0000C4ADC7883B08C420192024609D800217E
:101AE00040F080005A71997103B05DF8044BFFF724
:101AF000D9BF02A8084410F8040C1044C0B2EFE7A4
:101B0000500200200040145410B5012204464FF446
:101B10008071064805F0C8FB2009FFF78FFF04F02D
:101B20000F00BDE81040FFF789BF00BF0000024072
:101B300070B500220D4606464FF480713248334C92
:101B400005F0B2FB00224FF40071314805F0ACFB08
:101B500000224FF480712E4805F0A6FB0022802160
:101B60002B4805F0A1FB00224021294805F09CFBF1
:101B700000228021274805F097FB4AF6C87001F043
:101B800023F9012D4FF000036371A3714FF003009F
:101B900088BF082363702671E570FFF74FFF41F29D
:101BA000941001F011F90320FFF748FF41F294105F
:101BB00001F00AF90320FFF741FF41F2941001F010
:101BC00003F90220FFF73AFF642001F0FDF8607886
:101BD00040F02000FFF766FF04230C202370FFF77E
:101BE00061FF0120FFF75EFF40F6B83001F0ECF82E
:101BF00002230620A370FFF755FF41F29410BDE8C1
:101C0000704001F0E1B800BF000002405002002027
:101C1000000802400018024008B50120FFF742FF0B
:101C200040F6B830BDE8084001F0CEB870B51546B2
:101C3000FFF74CFF2B786BB3194C00260DE02B7887
:101C40000A2B18461AD00D2B25D0FFF75DFF6379BC
:101C50000133637115F8013FE3B1627923799A4248
:101C6000EDD3A37966710133DBB219460020A3716D
:101C7000FFF72CFF2B780A2B1846E4D1A379607963
:101C80000133DBB21946A371FFF720FF15F8013FBE
:101C9000002BE2D170BDA1790020FFF717FFD9E733
:101CA0005002002030B583B002AC0D4D04F8010D98
:101CB00000224FF400510B4805F0F6FA28460022A6
:101CC000042105F0F1FA214664230122064806F0BA
:101CD00003FD28460122042105F0E6FA03B030BDD9
:101CE00000080240000C02406818002030B583B0A4
:101CF00002AC0D4D04F8010D01224FF400510B48C8
:101D000005F0D2FA28460022042105F0CDFA21463A
:101D100064230122064806F0DFFC28460122042144
:101D200005F0C2FA03B030BD00080240000C0240CA
:101D30006818002010B500224FF48051994805F032
:101D4000B3FA44F62063013BFDD101224FF48051E8
:101D5000944805F0A9FA44F62063013BFDD1012027
:101D6000FFF7A0FF4CF25034013CFDD1CB20FFF730
:101D700099FF3920FFF7BAFF2C20FFF7B7FF204665
:101D8000FFF7B4FF3420FFF7B1FF0220FFF7AEFFEB
:101D9000CF20FFF787FF2046FFF7A8FFC120FFF7FE
:101DA000A5FF3020FFF7A2FFE820FFF77BFF85208B
:101DB000FFF79CFF2046FFF799FF7820FFF796FF7B
:101DC000EA20FFF76FFF2046FFF790FF2046FFF75E
:101DD0008DFFED20FFF766FF6420FFF787FF0320EC
:101DE000FFF784FF1220FFF781FF8120FFF77EFFBE
:101DF000F720FFF757FF2020FFF778FFC020FFF7FD
:101E000051FF2320FFF772FFC120FFF74BFF102087
:101E1000FFF76CFFC520FFF745FF3E20FFF766FF89
:101E20002820FFF763FFC720FFF73CFF8620FFF75E
:101E30005DFF3620FFF736FF4820FFF757FF3A20B7
:101E4000FFF730FF5520FFF751FFB120FFF72AFFC2
:101E50002046FFF74BFF1820FFF748FFB620FFF79B
:101E600021FF0820FFF742FF8220FFF73FFF2720D6
:101E7000FFF73CFFF220FFF715FF2046FFF736FF84
:101E80002A20FFF70FFF2046FFF730FF2046FFF71D
:101E90002DFF2046FFF72AFFEF20FFF727FF2B201B
:101EA000FFF700FF2046FFF721FF2046FFF71EFF48
:101EB0000120FFF71BFF3F20FFF718FF2620FFF749
:101EC000F1FE0120FFF712FFE020FFF7EBFE0F20ED
:101ED000FFF70CFF3120FFF709FF2B20FFF706FF6C
:101EE0000C20FFF703FF0E20FFF700FF0820FFF78D
:101EF000FDFE4E20FFF7FAFEF120FFF7F7FE372038
:101F0000FFF7F4FE0720FFF7F1FE1020FFF7EEFECB
:101F10000320FFF7EBFE0E20FFF7E8FE0920FFF796
:101F2000E5FE2046FFF7E2FEE120FFF7BBFE20467C
:101F3000FFF7DCFE0E20FFF7D9FE1420FFF7D6FED8
:101F40000320FFF7D3FE1120FFF7D0FE0720FFF795
:101F5000CDFE3120FFF7CAFEC120FFF7C7FE4820A3
:101F6000FFF7C4FE0820FFF7C1FE0F20FFF7BEFEFB
:101F70000C20FFF7BBFE3120FFF7B8FE3620FFF73D
:101F8000B5FE0F20FFF7B2FE1120FFF78BFE064BC8
:101F9000013BFDD12920FFF785FE2C20BDE8104034
:101FA000FFF780BE000C024040420F00F8B5074624
:101FB0002A200D4616461C46FFF774FE380AFFF726
:101FC00095FEF8B2FFF792FE300AFFF78FFEF0B2EF
:101FD000FFF78CFE2B20FFF765FE280AFFF786FE31
:101FE000E8B2FFF783FE200AFFF780FEE0B2BDE80B
:101FF000F840FFF77BBE00BF10B50B461446024603
:10200000FFF7D4FF2C20FFF74DFEC4F30720FFF7A6
:102010006DFEE0B2BDE81040FFF768BE2DE9F0416B
:1020200082B00746BDF820408DF80540240A0D46D1
:1020300016468DF804401C46FFF7B8FF2C20FFF72A
:1020400031FE631B0133002204212848DFF8A480FD
:10205000F61B06FB033705F027F901224FF4005168
:10206000234805F021F9D8F800301A6822F0400220
:102070001A601A684FF4006142F04002B7F5803FE1
:10208000C8F80C101A602DD34FF6FF7401AD464608
:1020900002222946304606F08FFC013CF8D1A7F514
:1020A0007F47FF3F134E01370124013402222946A6
:1020B000304606F081FCBC42F7D1012204210B48D6
:1020C00005F0F2F8D8F800301A6822F040021A60E1
:1020D0001A68002142F04002C8F80C101A6002B0E1
:1020E000BDE8F081002FE8D001ADDBE70008024039
:1020F000000C02406818002000B5074B1A885B8866
:1021000083B0002180B2013A009092B20846FFF7F6
:1021100085FF03B05DF804FB480D002030B50122B7
:1021200083B004210E480F4C05F0BEF8FFF702FE05
:102130000D480E4A00234FF6FF7100914FF4A07531
:1021400019460380138018460122F0232380227150
:102150002B46EF226580FFF761FF03B030BD00BF63
:1021600000080240480D00204E0D0020440D0020C4
:1021700010B504463620FFF795FD74B1012C1CD034
:10218000022C16D0032C1CD0104B4FF4A070F02161
:102190000022188059801A7110BD5820FFF7A6FD43
:1021A0000A4BF0204FF4A0710122188059801A7157
:1021B00010BD2820FFF79AFDE6E78820FFF796FD7F
:1021C000EEE7E820FFF792FDDEE700BF480D0020B4
:1021D0002DE9F04F2F4FDFF8C4803880A8F80010A9
:1021E0002D4C93F800E0248893F801C083B000EBF5
:1021F0000E051E46A54201EB0C03DDF83090924619
:102200009BB208DD9C440020A8F8003019467546B2
:102210001FFA8CF338800D9A94B20094AAB2FFF79B
:10222000FDFE72787AB333783888AAF1200A19460D
:102230004FF0000B0AFB02B4756835F81450CBB1AF
:10224000002403E00134A342194612D905FA04F22E
:102250001204F7D5B8F800102044594480B289B26E
:102260004A46FFF7C9FE337838880134A34219463D
:10227000ECD872780BF1010B5A45DBD80844388052
:1022800003B0BDE8F08F317838880844388003B057
:10229000BDE8F08F440D0020480D00204E0D0020B9
:1022A0002DE9F04F1B4F1C4E824610463180A7F897
:1022B00000A083B00178DDF83090DDF834801D4651
:1022C0004FF0000B441C2B460A4681B10A2911D05D
:1022D0000D2905D038883188CDE90098FFF778FFBF
:1022E00020460178441C2B460A460029EED103B053
:1022F000BDE8F08F32886B78013213443380437825
:102300000D2B06BF841CA7F800B0A7F800A020463C
:10231000E7E700BF440D00204E0D0020014B185C84
:10232000704700BF18000020094B187CFF280BD015
:102330005A7CFE2A09D0074910B4FE2200240C80E2
:102340005A745DF8044B70477047FF20704700BF18
:10235000180000205802002010B5012204464FF456
:1023600080511C4804F0A0FF01222021194804F0EC
:102370009BFF01224021174804F096FF01224FF4F1
:102380000051154804F090FF012C1BD0022C12D0F4
:10239000032C09D0042C1CD100224FF400510E480C
:1023A000BDE8104004F080BF002240210948BDE88C
:1023B000104004F079BF002220210648BDE81040FB
:1023C00004F072BF002210210248BDE8104004F062
:1023D0006BBF10BD00100240000802400020FFF754
:1023E000BBBF00BF10B54FF480710446134804F022
:1023F00055FF18B912482044C07C10BD80210F48F9
:1024000004F04CFF18B90E482044C07D10BD4FF4B5
:1024100080610C4804F042FF18B909482044C07E8E
:1024200010BD4FF40071054804F038FF18B9044896
:102430002044C07F10BDFF2010BD00BF000402403B
:10244000180000200018024008B50120FFF784FFA3
:102450000120FFF7C7FFFF2800D008BD0220FFF7CB
:102460007BFF0220FFF7BEFFFF28F6D10320FFF716
:1024700073FF0320FFF7B6FFFF28EED10420FFF71C
:102480006BFF0420BDE80840FFF7ACBF08B5FFF7BD
:10249000DBFF0D4A0D491388087401339BB2B3F575
:1024A000FA7F0ED30023FF28138005D093780133E1
:1024B000DBB2042B937001D100239370FF234B7484
:1024C00008BD138008BD00BF58020020180000207E
:1024D000014B9869704700BF5C020020012922D09F
:1024E00017D3022914D1124B9A691044B0F5801FFA
:1024F00001D3C0F31300C0F31001C0F34B12986175
:10250000C0F34740C3E90412187783F820007047EE
:102510007047074B0022B0F5801FC3E9042283F8FF
:102520002020E6D2E7E7024BC0F58010F2E700BFBB
:102530005C020020012922D017D3022914D1124BAA
:102540009A681044B0F5801F01D3C0F31300C0F3A4
:102550001001C0F34B129860C0F34740C3E900126A
:10256000187383F8200070477047074B0022B0F5BE
:10257000801FC3E9002283F82020E6D2E7E7024B60
:10258000C0F58010F2E700BF5C020020014B9868A4
:10259000704700BF5C02002038B50C4C0C480D4D54
:1025A000002384F82030082102E055F82300118C24
:1025B000012204F079FE94F820300133DBB2072BBE
:1025C00005EB430284F82030EFD938BD5C020020CF
:1025D00000180240D0E200082DE9F041164E174CD9
:1025E00096F82030164F04EB430282B08046118CDF
:1025F00054F82300002204F057FE02A9012501F837
:10260000015D2A463846642306F066F802A92A4688
:1026100001F8028D3846642306F05EF896F8203003
:1026200004EB430154F82300098C2A4604F03CFED5
:10263000002002B0BDE8F0815C020020D0E200087A
:10264000681800202DE9F04182B002AD134C05F866
:10265000013D06460F469046294620466423012246
:1026600006F03AF802A9204601F8028D64230122FF
:1026700006F032F802A9204601F8037D6423012206
:1026800006F02AF802A9204601F8046D642301220D
:1026900006F022F802B0BDE8F08100BF6818002003
:1026A0002DE9F047DFF878801B4F82B006464020C6
:1026B000894692460A9D1C46FFF78EFF98F8203007
:1026C00007EB430257F82300118C002204F0ECFDC5
:1026D0005246494630460223FFF7B4FF75B10F4E0C
:1026E000254414F8013B8DF80730012264230DF1D5
:1026F0000701304605F0F0FFAC42F2D198F82030E7
:1027000007EB430257F82300118C012204F0CCFDA3
:10271000002002B0BDE8F087D0E200086818002071
:102720005C0200202DE9F043534CDFF85081236810
:1027300083B007460D464FF0200913F01F0314BF66
:10274000C3F120061E464DB31F2D20786178A27874
:1027500027D9002B41D13B46CDF80090FFF7A0FFD1
:10276000A2682032424588BFC2F31302C2F31003AD
:10277000C2F34B11A260C4E90031C2F3474213F027
:102780001F03A5F1200507F12007227384F82020FC
:1027900014BFC3F120061E46002DD5D103B0BDE8FD
:1027A000F083A3B3AE424CD23B460096FFF778FFCE
:1027B000A2683244424588BFC2F31302C2F3100339
:1027C000C2F34B11A260C2F34742AD1B3744C4E9C8
:1027D0000031227384F82020AFE73B460096FFF7D4
:1027E0005FFFA3683344434588BFC3F31303A3606B
:1027F000A268C2F31003C2F34B11C2F3474237443D
:10280000AD1BC4E90031227384F8202095E70095C0
:102810003B46FFF745FFA3681D44B5F5801F28BF61
:10282000C5F31305C5F31002C5F34B13A560C5F33B
:102830004745C4E90023257384F8205003B0BDE860
:10284000F08300953B46FFF72BFFA3681D44B5F5C9
:10285000801F28BFC5F31305A560A368C3F310014B
:10286000C3F34B12C3F34743C4E90012237384F844
:10287000203003B0BDE8F0835C020020FFFF0F00B2
:102880002DE9F047DFF878801B4F82B006464020E4
:10289000894692460A9D1C46FFF79EFE98F8203016
:1028A00007EB430257F82300118C002204F0FCFCD4
:1028B0005246494630460323FFF7C4FE75B10F4E1A
:1028C0002544642301220DF10701304605F0B8FFCD
:1028D0009DF8073004F8013BAC42F2D198F8203063
:1028E00007EB430257F82300118C012204F0DCFCB3
:1028F000002002B0BDE8F087D0E200086818002090
:102900005C0200202DE9F043534CDFF8508123692D
:1029100083B007460D464FF0200913F01F0314BF84
:10292000C3F120061E464DB31F2D207C617CA27C86
:1029300027D9002B41D13B46CDF80090FFF7A0FFEF
:10294000A2692032424588BFC2F31302C2F31003CA
:10295000C2F34B11A261C4E90431C2F3474213F040
:102960001F03A5F1200507F12007227784F8202016
:1029700014BFC3F120061E46002DD5D103B0BDE81B
:10298000F083A3B3AE424CD23B460096FFF778FFEC
:10299000A2693244424588BFC2F31302C2F3100356
:1029A000C2F34B11A261C2F34742AD1B3744C4E9E5
:1029B0000431227784F82020AFE73B460096FFF7EA
:1029C0005FFFA3693344434588BFC3F31303A36187
:1029D000A269C2F31003C2F34B11C2F3474237445A
:1029E000AD1BC4E90431227784F8202095E70095D7
:1029F0003B46FFF745FFA3691D44B5F5801F28BF7F
:102A0000C5F31305C5F31002C5F34B13A561C5F358
:102A10004745C4E90423257784F8205003B0BDE876
:102A2000F08300953B46FFF72BFFA3691D44B5F5E6
:102A3000801F28BFC5F31305A561A369C3F3100167
:102A4000C3F34B12C3F34743C4E90412237784F85A
:102A5000203003B0BDE8F0835C020020FFFF0F00D0
:102A600010B5064C406C21460A2208F031F8224687
:102A700001210020BDE81040FFF7D8B8500D00201C
:102A800003684A4A93422BD0494A934200D0704788
:102A900010B503F085FE3E2800F28280DFE800F0EA
:102AA0007C7C7C7C80808080807878787880808056
:102AB0008080747474748080807070707080806C9A
:102AC0006C6C6C6868686880646464806060605C7A
:102AD0005C5C585858545450504848404033220089
:102AE00001F0E2BC334C10232360FFF795F8206817
:102AF00031490A2207F0ECFF002108462E4ABDE8C2
:102B00001040FFF793B82D4B2A4C1A7B0F21012A56
:102B1000216048D01A7B032AE7D101221A73E4E727
:102B2000264A244C936C0E21013393642160DCE728
:102B3000224A204C936C0D21013B93642160D4E721
:102B40001C4C0C232360D0E71A4C0B232360CCE7EA
:102B5000184C0A232360C8E7164C09232360C4E7F6
:102B6000144C08232360C0E7124C07232360BCE702
:102B7000104C06232360B8E70E4C05232360B4E70E
:102B80000C4C04232360B0E70A4C03232360ACE71A
:102B9000084C02232360A8E7064C01232360A4E726
:102BA000044B186010BD03221A739EE700220140F7
:102BB00000200140A0020020500D00207C170020C2
:102BC00030B5194B194A1A604FF040714FF48032FA
:102BD00085B04FF080554FF070645A6099600022C4
:102BE00001211846C3E90A451A619A611A62DA603E
:102BF0001A63D961596103F02FFC80B904240122C2
:102C00000723694608480293CDE9004203F0A6FE77
:102C100018B1D521064801F04DFE05B030BDCB21DD
:102C2000034801F047FEE9E7B80D0020002001400D
:102C300040E3000830B51F4B1F4A1A604FF4803143
:102C40004FF0407285B01D4D5960022401219A60F9
:102C5000184600229D62DC611961996119631A624C
:102C6000DA62DA605A6103F0F7FBE8B90123062261
:102C7000694610480292CDE9003303F06FFE70B947
:102C8000022369460B48CDE9003303F067FE20B10B
:102C900040F201110A4801F00DFE05B030BDF821E7
:102CA000074801F007FEEBE7EE21054801F002FEC0
:102CB000DCE700BF000E0020002201400100000FF1
:102CC00040E3000870B5394A0368934288B042D0A7
:102CD000374A934201D008B070BD0026354B0296AA
:102CE0005A6C354C42F480625A645B6C059603F46E
:102CF00080630293062203230299039203A90546E7
:102D00002E48049304F08CF92D4921604FF0806225
:102D10004FF480634FF480504FF480416260236130
:102D20004FF480724FF4803360612046A660E66005
:102D30006662C4E90612236203F086FF78BBAC63C7
:102D4000002203211220A56303F0C8FE122003F025
:102D5000FBFE08B070BD0024164B01945A6C174856
:102D600042F480725A645B6C059403F4807301939F
:102D70001025032603A9019BCDE9035604F050F961
:102D800022463146122003F0A9FE122003F0DCFE99
:102D900022462946094804F087FA08B070BD4FF46E
:102DA000A071084801F086FDC9E700BF002001407E
:102DB0000022014000380240580D0020000002406F
:102DC0002864024040E3000870B5084C0546666878
:102DD00005F000FA064BA3FB0030800C224605FBF1
:102DE00000F553689B1BAB42FBD370BD001000E0A5
:102DF00083DE1B4330B583B00D4C8DF8070065684A
:102E000005F0E8F90B4BA3FB0030800C0A212246A9
:102E100001FB00F153685B1B8B42FBD30A230122A9
:102E20000DF10701044805F057FC03B030BD00BFA9
:102E3000001000E083DE1B432019002070B50D4C0C
:102E4000002206460D4620464FF4806104F02CFA1D
:102E500046F05000FFF7CEFF0020FFF7CBFF2846DB
:102E6000FFF7C8FF204601224FF48061BDE87040A3
:102E700004F01ABA0008024030B500224FF4806115
:102E800083B005461648174C04F00EFA45F01000C2
:102E9000FFF7B0FF0020FFF7ADFF656805F09AF976
:102EA000114BA3FB0030800C0A21224601FB00F1EC
:102EB00053685B1B8B42FBD302A9002301F8013D41
:102EC00001220A23094805F0BBFC05489DF807408C
:102ED00001224FF4806104F0E7F9204603B030BDD1
:102EE00000080240001000E083DE1B432019002090
:102EF00038B5094C0546002220464FF4806104F0A5
:102F0000D3F92846FFF776FF204601224FF480616F
:102F1000BDE8384004F0C8B90008024030B10128CB
:102F20000CD0022806D003280BD070470121084698
:102F3000FFF784BF45210120FFF780BF2321FFF762
:102F40007DBF67210120FFF779BF00BF38B5064C70
:102F5000064D01E0013C05D00421284604F09EF90D
:102F60000028F7D138BD00BF801A0600000C0240CF
:102F70001C4B70B505460E4618705970FFF7E6FFFA
:102F8000194B1A489E5D1A4C00224FF4806104F0E0
:102F90008BF95020FFF72EFF0320FFF72BFF0620B1
:102FA000FFF728FF0820FFF725FF2846FFF722FF3D
:102FB0003046FFF71FFF01224FF480610B4804F0F9
:102FC00073F9656805F006F90A4BA3FB0030800C25
:102FD0003221224601FB00F153685B1B8B42FBD37D
:102FE00070BD00BF1C0D002000E300080008024077
:102FF000001000E083DE1B4308B5FFF7A7FF0020A9
:10300000FFF73AFFC0F3071008BD00BFF0B500227C
:103010004FF4806183B02648264C04F045F9012026
:10302000FFF7E8FE656805F0D5F8234BA3FB0030F9
:10303000800C0A21224601FB00F153685B1B8B4286
:10304000FBD302AC002604F8016D1C4D1C48214640
:103050000A23012205F0F4FB9DF8077018488DF84B
:10306000076021460A2301222F7005F0E9FB9DF835
:1030700007306B7021460A23012211488DF8076042
:1030800005F0DEFB6B782A789DF80740AC701B02D8
:1030900043EA02431C43064801224FF4806104F0D6
:1030A00003F9230248BF44F07F44204603B0F0BD3B
:1030B00000080240001000E083DE1B43AC02002049
:1030C0002019002030B5104C83B00B468DF8040059
:1030D0000D0A2046012220218DF806308DF805507A
:1030E00004F0E2F820460022202104F0DDF86423F9
:1030F00001A90322054805F0EFFA2046012220210C
:1031000004F0D2F803B030BD000C024020190020BA
:10311000F0B51C4C1C4E83B0002503464FEA102C22
:103120000F0A20468DF802302A4634238DF8051008
:1031300020218DF801C08DF803308DF804708DF8D2
:10314000005004F0B1F8642369463046032205F0CC
:10315000C3FA20460122202104F0A6F82A46204680
:10316000202104F0A1F803220DEB02016423304674
:1031700005F0B2FA20460122202104F095F803B0B0
:10318000F0BD00BF000C024020190020084B094A86
:1031900003EBC00003EBC1014368C96810B4064CDF
:1031A00053615B00236091615DF8044B704700BF81
:1031B000DC0F00207C170020B402002030B5104B3B
:1031C00083B0DB78ADF80600BBB10E4D28680C4625
:1031D000012200F150400DF1060102F095FB2B6831
:1031E000A2680233B3F5000F08BF002302F1010209
:1031F000A26012BF2B602B60636003B030BD00BFC4
:103200007C170020B4020020414BDB7803B97047E3
:1032100070B5404E0546306882B00C46012200F180
:1032200050400DF1060102F067FBBDF906305A1956
:1032300012B2A282A3816268013262602278120710
:1032400015D507EE905AD4ED066A94ED066A07EE9E
:10325000103AF8EEE77AB8EEC77A67EE867AE6EECD
:10326000877AFDEEE77A17EE903A1BB2A382A38A23
:1032700022691BB2934222DC2278C2F3001212BBF5
:103280006268A3689A4211D32378DB0623D423789B
:103290004FF07E526FF3C3032370A261002343F605
:1032A000FF7222613360636002B070BD3368023325
:1032B000B3F5000F08BF0023336002B070BDA38ACE
:1032C0001BB22361D8E7306804F1140100F15040CB
:1032D00002F01AFBD4E72369B3F5804FD7DB2378DC
:1032E00043F0080323702069FDF7D4F802460B462B
:1032F00005A1D1E90001FDF761FAFDF747FBA061E7
:10330000CCE700BFAFF300800000000080FFCF409B
:103310007C170020B402002003461020998901F593
:103320007F513F3189B2FFF7CDBE00BF2DE9F0419B
:10333000364E84B0F378ADF806004BB10D78C5F386
:10334000400517460C4635B91578C5F340057DBBD9
:1033500004B0BDE8F081DFF8B880D8F800002A4654
:1033600000F150400DF1060102F0CEFAD8F800004D
:1033700000F150402A4602300DF10E0102F0BCFA75
:10338000A368BDF90E200133A360BA81D8F80030DC
:10339000A168BA6804339142C8F8003024D0B3F56C
:1033A000000FD5D100236360C8F800307B60CFE701
:1033B000DFF85C80D8F8000000F1504002302A4667
:1033C0000DF1060102F0A0FAD8F800002A4600F13B
:1033D00050400DF10E0102F08FFABB68BDF90E20CE
:1033E0000133BB60A281D1E700252846F57002F0C9
:1033F000D7F8012002F0E2F801237370C8F80050FA
:10340000357065607D60F370A2E700BF7C17002017
:10341000B402002003789A0709D40B789B0713D4D1
:1034200003789A0716D40B789B071BD470478B68D8
:10343000002BF2D08389898943F6FF700144184438
:1034400089B280B2FFF764BE8368002BF2D10378A3
:103450009A07E8D5818901F57F513F3189B2102063
:10346000FFF730BE898901F57F513F3189B22420B1
:10347000FFF728BE00000000574BDB7803B9704708
:10348000F0B5564F0646386883B00C46154600F135
:103490005040012201A902F027FA23789A074CD460
:1034A0002B789B0701D403B0F0BDBDF90610BDF920
:1034B00004208B191BB2AB822346A981A2812C4622
:1034C0001D466368013363606968AB68994202D244
:1034D0006B6801336B602378180715D507EE906A87
:1034E000D4ED066A94ED066AF8EEE77A07EE102A44
:1034F00067EE867AB8EEC77AE6EE877AFDEEE77A6F
:1035000017EE903A1BB2A382A38A22691BB29342A0
:1035100002DDA38A1BB223612278C2F300123ABBF8
:103520006268A3689A4212D03B680433B3F5000F77
:1035300008BF00233B6003B0F0BDBDF90420BDF916
:10354000061093191BB2A382A281A981B9E723783F
:10355000DB061DD423784FF07E526FF3C303237034
:10356000A261002343F6FF7222613B6063609AE729
:103570002378D90722D5227812F00102D0D03868FA
:1035800000F15040023004F1140102F0BDF9C7E728
:103590002369B3F5804FDDDB237843F00803237004
:1035A0002069FCF777FF02460B4609A1D1E900012B
:1035B000FDF704F9FDF7EAF9A061D2E7386804F1F4
:1035C000140100F1504002F09FF9A9E7AFF3008029
:1035D0000000000080FFCF407C170020B4020020D4
:1035E00010B4194B1948197C00228907026017D4BE
:1035F00093F82C1062F3C30183F82C1093F82C106D
:1036000043F6FF7462F304114FF07E5083F82C10E0
:10361000DC6358645DF8044B1A635A631A87704779
:10362000197C62F3C3011974197C43F6FF7462F3C9
:1036300004114FF07E5019741C6298625DF8044BBF
:103640005A619A619A8370477C170020B402002067
:1036500010B50E480E4B036082B003F0BBFA78B988
:103660000C240023102269460848CDE9004303F0EA
:10367000C7FA18B15221074801F01CF902B010BD79
:103680004921044801F016F9EAE700BF540E002072
:103690000074004074E30008214B02689A4200D095
:1036A000704770B586B0002603F5E23300961A6CB9
:1036B0001C4C42F000521A641B6C039603F000533A
:1036C0000093202203230099019201A90546164880
:1036D000029303F0A5FC154820604FF06061402282
:1036E0004FF480634FF400606160A2604FF40051BA
:1036F0004FF48072236160614FF400332046E6602E
:103700006662C4E90612236203F09EFA18B9EC60FF
:10371000A56306B070BD7921054801F0CBF8F6E746
:1037200000740040680E002000000240A0600240CB
:1037300074E3000810B582B01C4B002400941A6B8F
:1037400042F400121A631A6B02F400120092009AFB
:1037500001941A6B42F480021A631B6B03F480031A
:103760000193022201211120019B03F0B7F91120DE
:1037700003F0EAF903220121392003F0AFF93920DF
:1037800003F0E2F9224603213B2003F0A7F93B2096
:1037900003F0DAF9022203213C2003F09FF93C20D8
:1037A00002B0BDE8104003F0CFB900BF00380240BE
:1037B00038B5184B184C194A53F8300000231946F5
:1037C0001370FEF78BFE20461021FFF79BF8A568CB
:1037D00022686068124B00FB02F0186022681148F2
:1037E0004EF66021B1FBF5F102FB01F25A605C6814
:1037F0001968B4FBF1F201FB12429A605A68196829
:10380000B2FBF1F2DA601968BDE8384001EB8101E2
:10381000FFF778B8DC0F002024160020C80E002027
:1038200044160020541600202DE9F04F984CDFF884
:103830009C82984F6368984E984DDFF894A24FF0A1
:10384000000985B088F8009087F8009060680293BE
:10385000FFF7AEFF924B9348A3F80090924BC3F84A
:10386000009005F055F9012323736068A168DFF823
:103870006492FFF78BFC227B012A4BD1616863685D
:103880000133994246D298F80030002B7DD0B068C1
:10389000A36CD6F800C07168844ACAF8005001FBD6
:1038A0000CF129603168C9F8006003444EF6602BC2
:1038B000BBFBF3F301FB03F36B6068682968B0FBA3
:1038C000F1F301FB1303AB606B682968B3FBF1F301
:1038D000EB606168A3687648106099422AD16268FB
:1038E00074497548013207F07BF8002340F21D52FD
:1038F000CDE900328221714B6F4A0A20FEF7D0FCDD
:103900003B78002B40F09C80237B032B02D0237B51
:10391000002BF5D100256348257305F005F96420D7
:10392000FEF770F8029B6360E5706570257005B066
:10393000BDE8F08F624A039210461021FEF7E2FFC5
:10394000039A936810685168BBFBF3FB5D4B01FB66
:1039500000F1196012685C4802FB0BF25A60D3F860
:1039600004C01968BCFBF1F201FB12C29A605A68EC
:103970001968B2FBF1F2DA60196801EB8101FEF718
:10398000C1FF002388F80030A9E74D484D4BD0F81F
:1039900008E0A16CD0F800B0D0F804C0C9F800006D
:1039A0000CFB0BFCC3F800C00068CAF8003071447F
:1039B0004EF6602BBBFBF1F100FB01F15960D3F82F
:1039C00004C01868BCFBF0F100FB11C137489960D6
:1039D000DFF8F4C05968C0F800C003921868B1FB62
:1039E000F0F1D96001F024F96168A36899423FF4CD
:1039F00076AF10213046FEF785FFB06831687368F6
:103A0000BBFBF0FB03FB01F32B603368284803FB8F
:103A10000BF36B60D5F804C02968BCFBF1F301FB24
:103A200013C3AB606B682968B3FBF1F3EB602968E3
:103A300001EB8101FEF766FF039A88F800204EE74C
:103A40004FF0000B87F800B0636801336360626871
:103A5000A36801339A427FF40EAF2378012B13D071
:103A6000029B63606068A168FFF790FB88F800B074
:103A700087F800B06068FFF79BFE094BA3F800B021
:103A8000094BC3F800B0F6E684F800B042E700BF87
:103A90007C170020C00F002034160020C40F002027
:103AA0004A0C00208C1A002044170020D80F002058
:103AB000CC0E0020A8E30008D0170020080000204A
:103AC000241600204416002054160020C80E0020A2
:103AD000BC0F0020D40F00202DE9F041244BDFF86B
:103AE0009CC0002488B006460F4620462146154655
:103AF0008CF800401C70FEF7F1FC0C2101A8FEF7C9
:103B000001FFDDE90112039B396032602B603268EE
:103B100052B3302B28D8174D174F4EF66028FEF7BA
:103B2000D7FC102128600DEB0100FEF7EBFEDDE96C
:103B3000043101FB03F101EB81013846FEF7E2FE9F
:103B40003368621CA34214460AD904996A68069B2A
:103B5000B8FBF3F3C1EB011101FB0323EB60336806
:103B60009C4205F10805DAD308B0BDE8F08100BF3A
:103B7000C00F0020DC0F002054160020C80E0020CB
:103B800008B5054B054800221A7304F0CDFF6420E8
:103B9000BDE80840FDF736BF7C1700208C1A0020D6
:103BA0002DE9F0412D4D2B7BDBB2012B01D0BDE87F
:103BB000F0812B4A2B4E12683188506888422FD9E9
:103BC000338891689BB219B1274F3C68052C37D0D8
:103BD000D168B3FBF1F201FB1233DBB9224FDFF8FE
:103BE00090803C68D8F80020631D0AD8115D01342C
:103BF00019B1287BC0B201281AD03B680433A34214
:103C0000F4D8115D19B1287BC0B2012815D03B68EA
:103C100005333B60338801339BB23380BDE8F081CC
:103C20001249114A0B70002313603380BDE8F08104
:103C300001F040FBD8F80020DFE701F045FBE6E7A4
:103C4000D16892680A44B3FBF2F102FB1133002BF6
:103C5000E0D1DFF81C80D8F80020C7E77C170020EF
:103C6000BC0F00204A0C002044170020C00F002089
:103C7000D80F002030B5124B124A1A6089B00122C9
:103C80000421002480255A60D96010221846694416
:103C90009D619C60C3E90444C3E90744C3E9094446
:103CA000CDE90122CDE90322CDE90522079204F0F6
:103CB000B7FA18B15A21044800F0FCFD09B030BD34
:103CC00048170020400100A0BCE300082DE9F041A6
:103CD0002D4B1C6886B014B106B0BDE8F0814FF0E2
:103CE00001082A4A0094C3F80080936B284843EAED
:103CF00008039363936B039403EA080302270326E4
:103D00000C25009301A94FF63F03009ACDE9013736
:103D1000CDE9046503F084F901A91E480394CDE9B7
:103D20000187CDE9046503F07BF901A948F233135B
:103D3000194801930297CDE90465039403F070F9E3
:103D400001A94FF68373154801930297CDE90465E5
:103D5000039403F065F901A94CF203731048019331
:103D60000297CDE90465039403F05AF9602301A991
:103D70000C480297CDE904650394019303F050F9D0
:103D800006B0BDE8F08100BFB80200200038024054
:103D900000140240000802400018024000100240D7
:103DA000000C0240000402402DE9F04F8FB00024C7
:103DB000BF4B01941A6BDFF810B3DFF810A3DFF8E4
:103DC0001093DFF81083BB4F42F010021A631A6B96
:103DD00002F010020192019A02941A6B42F004025E
:103DE0001A631A6B02F004020292029A03941A6B8D
:103DF00042F020021A631A6B02F020020392039A27
:103E000004941A6B42F080021A631A6B02F080026B
:103E10000492049A05941A6B42F001021A631A6B19
:103E200002F001020592059A06941A6B42F0020212
:103E30001A631A6B02F002020692069A07941A6B32
:103E400042F040021A631A6B02F040020792079A8E
:103E500008941A6B42F008021A631B6B03F0080304
:103E60000893584601220C21089B03F01DFA2246B4
:103E70005846702103F018FA2246504642F21601C5
:103E800003F012FA504601224FF4F96103F00CFAE4
:103E9000484601224FF4A47103F006FA2246484630
:103EA000802103F001FA8448012240F2034103F02B
:103EB000FBF92246404643F2200103F0F5F9224681
:103EC000384647F20C0103F0EFF938460122802111
:103ED00003F0EAF9012240461821012503F0E4F934
:103EE0000226584609A90423CDE909350B940C96FE
:103EF00003F096F809A9584608230993CDE90A5416
:103F00000C9503F08DF8584609A970230993CDE963
:103F10000A540C9403F084F809A9504642F216039F
:103F20000993CDE90A540C9403F07AF84FF48863AE
:103F300009A909936148624B0A930B9403F070F846
:103F400009A950464FF481630993CDE90A540C96B0
:103F500003F066F809A9484648230993CDE90A54B5
:103F60000C9603F05DF809A9484680230993CDE932
:103F70000A540C9403F054F8524B0B94202209A9D4
:103F80005046CDE9092303F04BF809A940F2034359
:103F900049480993CDE90A540C9603F041F809A960
:103FA000042345480B944FF4006BCDE9093403F02A
:103FB00037F80E2309A940480D93CDE90A640C9403
:103FC000CDF824B003F02CF809A94046CDE909B496
:103FD0000B9403F025F809A9404643F22003099306
:103FE000CDE90A540C9403F01BF809A9384647F2AE
:103FF0000C030993CDE90A540C9403F011F80E2335
:1040000009A938460D9340230993CDE90A640C941D
:1040100003F006F809A938468023CDE90935CDE932
:104020000B4502F0FDFF504609A94FF47073099348
:10403000CDE90A540C9502F0F3FF09A948464FF464
:1040400080734FF00A0A0993CDE90A540C9502F0E7
:10405000E7FF09A948464FF4C0530993CDE90A6424
:104060000C96CDF834A002F0DBFF154A484609A9AA
:104070004FF40043CDE90A24099302F0D1FF104A1E
:104080000B95042309A94046CDE9093202F0C8FF87
:10409000182209A940460992CDE90A540C9602F06B
:1040A000BFFF402309A9404609930E2314E000BF37
:1040B0000038024000180240000402400014024090
:1040C0000000211000001210001002400008024001
:1040D00000000240000C02400D93CDE90A640C94EC
:1040E00002F09EFF2C4A0B94404609A98023CDE99B
:1040F000093202F095FF284A09A938464FF40073A7
:10410000CDE90A24099302F08BFF09A938464FF440
:1041100080630993CDE90A4502F082FF1F4BCDF879
:1041200024B0384609A9CDE90A3402F079FF1A4AC9
:104130001B48102309A9CDE90A24099302F070FF56
:104140004FF4607309A916480993CDE90A4502F0B6
:1041500067FF2A462146082002F0C0FC082002F032
:10416000F3FC31465046032202F0B8FC504602F000
:10417000EBFC31460322172002F0B0FC172002F0BE
:10418000E3FC2A462146282002F0A8FC282002F061
:10419000DBFC0FB0BDE8F08F000021100000111013
:1041A00000040240402838B500F0D380044608D906
:1041B000B0F5007F65D0B0F5004F28D080283AD008
:1041C00038BD042800F09E80102815D00128F7D1B2
:1041D000A44B00251D705D70DD701D735D73FFF7CE
:1041E000FFF9FFF7CDFC204601F0E8F9284601F081
:1041F000E5F99D4B1C7038BD9C4A137813F00801FB
:10420000DED1984843F008031370C17038BD974A57
:104210001378D906D4D443F01003137000F044F996
:10422000904B1A7B012A00F0DE801A7B032AC7D14B
:1042300001221A7338BD8D4A13785907C0D4894CAE
:10424000A16943F00403137011B9636B002BB7D05D
:10425000237C9A0700F19D8094F82C309B070CD5A5
:1042600094F82C3013F0100F94F82C300CBF43F05E
:1042700010036FF3041384F82C307B4B01221A7067
:1042800038BD7A4A137899079AD4764C617843F00E
:1042900002030129137093D0A36913B9636B002B38
:1042A0008ED00123E370227C7149002395070B60B7
:1042B00008D5227C63F3C3022274227C63F30412C8
:1042C0002274A38394F82C3098070DD594F82C30E1
:1042D0006FF3C30384F82C3094F82C3000226FF372
:1042E000041384F82C302287002001F059F90120B2
:1042F00001F064F95C4A012300212170137063709E
:10430000E37038BD574CE378002B3FF459AFFEF70C
:104310007DFE6378574A40F30F20012B108043D075
:104320002378012B7FF44CAF237C9D0775D4237C2D
:104330009A0700F18480237C9D073FF541AF94F8F4
:104340002C309C077FF53CAF4B49BDE83840FEF769
:1043500035BF464A137813F001057FF431AF414C65
:10436000217843F00103012913703FF429AFE57070
:10437000637B012B3AD0012001F012F9002001F0FB
:104380001DF939490123002223700B706270E3701C
:1043900038BD237C13F0100F237C0CBF43F01003B7
:1043A0006FF30413237468E7237C9A0727D4237CD4
:1043B0009D0703D494F82C3099074AD4237C9A079C
:1043C0007FF5FEAE94F82C309B077FF5F9AE2A4AB4
:1043D000A2F11C01FFF750F82749BDE83840A1F1D0
:1043E0001C00FFF717B803221A7338BD04F12C0123
:1043F00004F11000FFF7F4F81D4B1D60BBE794F8C3
:104400002C309B07D3D404F11001FEF7FDFE04F11C
:104410001000BDE83840FEF77FBF94F82C309907B4
:1044200085D504F1100104F12C02FEF77FFF04F1A1
:104430002C0104F11000BDE83840FEF7EBBF94F802
:104440002C309B073FF577AF0C49BDE83840FEF7AD
:10445000B5BE0949FEF7D8FE0748BDE83840FEF76B
:104460005BBF00BF7C170020450A0020460A0020E1
:10447000B4020020500E0020A81700208C17002046
:10448000084B1B680020DAB262F30700C3F307226F
:1044900062F30F20C3F3074382B063F3174002B007
:1044A000704700BFC002002008B54FF40041094822
:1044B00002F0F4FE084B0949B0FA80F04009987008
:1044C0000A68C2F3C7021A704A68C2F3C7025A7078
:1044D00008BD00BF00000240C0020020C817002035
:1044E000064B1A78042A01D0012070475A78042A12
:1044F000FAD19878003018BF01207047C002002020
:10450000FCF7ACBD08B513468AB201461846FCF765
:1045100037FE002008BD00BF08B513468AB2014629
:104520001846FCF75DFC002008BD00BF70B594B0D4
:104530000020284A0190116C274B41F080511164F2
:10454000126C02F080520192019A02901A6842F4B1
:1045500040421A601B6803F4404302934FF48030DA
:10456000012302244FF480010425A8220893099016
:10457000072308A8029E0E941294CDE90F151192FC
:10458000139303F09DFB00B1FEE74FF4A0524FF4EC
:10459000805305900F26052103A804940396CDE9C6
:1045A000062303F07DFD044600B1FEE703F012FE92
:1045B0004FF47A73B0FBF3F002F0E0FA284602F011
:1045C000F7FA224621464FF0FF3002F087FA14B086
:1045D00070BD00BF00380240007000407749784B42
:1045E000CA68F0B542F080720025CA605D601A6842
:1045F000744C754E42F001028DB01A6001F012FF4A
:10460000724B01275F731A7C42F002021A741A7C03
:1046100042F004021A7493F82C2065F3410283F8E7
:104620002C2093F82C2042F0040283F82C201A7CD2
:1046300065F300021A7493F82C203A4383F82C2077
:104640009D64FFF773FFFFF7AFFBFFF773F801F00F
:104650005FFAFFF70FFB01F093FA00F06DFE01F037
:10466000A3FBFEF7ADFA00F08FFEFEF7F1FF01F0BD
:10467000C1FA01F0E3FB01F0F7FAFEF7DBFAFCF711
:10468000A7FB4FF490610291802100914FF00071DF
:10469000CDE907154FF48031CDE909114FF4807150
:1046A0000B914B4904914B490591A4F540734A493C
:1046B000019403F1800203F520700691039504A98B
:1046C000FCF74EFF0146454806F062F901F010F88C
:1046D000082002F045FAFDF721FD0220FDF748FD14
:1046E0004AF25420FDF708FD3D4804F011FA28462F
:1046F00000F01AFF384600F017FF3946284600F050
:104700006BFF384804F004FA374801F053FF0222E7
:104710003649374801F0C0FFFE20FEF7E9FB0F20C5
:10472000FEF7E6FBFEF768FC39463846FEF720FC4C
:104730002846FEF7F3FBF020FEF7DAFBF120FEF748
:10474000D7FB082002F000FA0320FEF7D1FBFDF7AB
:1047500045FE00F093FD3A462946B02000F066FD84
:1047600004211420FDF7E4F9FDF756FA29462846FE
:10477000204AFDF75BFAFDF70FFF00F03BF92846F2
:1047800000F0C4F9A4F540740AE0307884F880574A
:10479000FF2801D000F0BAF994F88137012B07D037
:1047A00094F88037002BF0D1FDF7BEFD3070EDE7B7
:1047B00000F03EFA84F88157F2E700BFF0ED00E028
:1047C000001000E0C4050020EE1700207C17002038
:1047D000194500080545000801450008F0E30008F8
:1047E000501A0020141A0020B80D0020C81700200D
:1047F000000E002000E4000810B5284C94F8823721
:10480000DA073ED498072ED459071FD41A0710D4BC
:10481000DB0600D410BD4FF40041214802F03EFDFC
:104820000128F7D194F8823783F0100384F8823797
:1048300010BD10211B4802F031FD94F88237012889
:1048400004BF83F0080384F88237E1E7802116482B
:1048500002F024FD94F88237012804BF83F004039A
:1048600084F88237D2E74FF40071104802F016FD49
:1048700094F88237012804BF83F0020384F882375A
:10488000C2E740210A4802F009FD94F88237012866
:1048900004BF83F0010384F88237B3E7C402002029
:1048A0000000024000040240000C024000180240D8
:1048B00000140240FEE700BF2DE9F04F3E4B3F4E93
:1048C000DFF828813E4A3F4C3F4D002783B03846F1
:1048D00001211F70776188F80070FDF7A7F939464C
:1048E0003846FDF727FE384600F05AFEB94603E089
:1048F0002978C9B2012918D0FDF716FD20700028CB
:10490000F6D1002000F05AFE0A223049706906F004
:10491000DFF87369BB420CBF2D4A2E4A01210020EB
:1049200003B0BDE8F04FFDF781B9DFF8C4B04FF038
:10493000000AB9F1000F38D098F80090264B2749AB
:1049400085F800A099444846042206F071F8002832
:10495000D7D0DBF800104846FDF7E4FE7269DBF8BB
:1049600000301F49194803EB020C62463B46C6F86B
:1049700014C006F035F840F21D53CDE900A3134AE8
:10498000184B50210A20FDF78BFC7369BB42B8D24B
:1049900098F800304033DBB2802B14BF88F8003029
:1049A00088F800A04FF00109A6E70B4B0E4A1F68DC
:1049B0004846FDF73BF9BFE7381E0020480A0020B3
:1049C00040E40008EE1700202C1D0020D017002026
:1049D00074E4000888E40008741D002064E4000802
:1049E0006CE400080800002050E40008701D00205E
:1049F000F41D002070B53C4C3C4D00F0D9FB4FF449
:104A0000F0724FF0FF31204605F011FF384A394B64
:104A10001168106B20662160A361E562364D9068D5
:104A200036492563D5686167C4F8A8000423344972
:104A300063773448C4F8BC1007231169C4F8C05028
:104A4000012584F83530C4F8D40000230220C4F8CE
:104A5000D8106571082184F86450092584F8E03184
:104A6000237163612377636484F83430C4F8EC30D5
:104A7000A07184F8AC0084F8C40084F8361084F87F
:104A8000DC1084F8C5505669106AC4F8F060966965
:104A9000C4F804310A25C4F8080184F8F410C4F8F5
:104AA0001C3184F80C11C4F8343184F82411C4F892
:104AB0004C3184F83C1184F84C300B210C23506BA2
:104AC00084F8C650D56984F8C7100F4A84F8C830F6
:104AD0000D210323C4F82061C4F83851A06484F880
:104AE000C910E265E37170BD600A00202D4F000817
:104AF000F01700209CE40008A4E40008794F0008A7
:104B0000454F0008E9500008394F00080F2866D8C3
:104B10002DE9F047344E96F8E03103EB430306EB02
:104B2000C303184482B090F904305A1C54D0DBB24D
:104B300003EB43022D4856F8321086F8E03105F0B9
:104B40006FFFFDF769F84AF25420FDF7D5FA00210E
:104B5000264ADFF89C90DFF89C8008461746FDF750
:104B600065F84AF25420FDF7C7FA96F8E0210024D0
:104B700051000A258B1806EBC3032344E0B293F9D6
:104B8000043003EB430C01331AD04CB356F83CA06D
:104B9000FDF7C4FB534602464946384605F020FF60
:104BA000002340F21D52CDE9003229463A464346E1
:104BB0000A20FDF775FB96F8E0211435ADB25100DF
:104BC0000134102CD6D10A4406EBC20673691BB11E
:104BD00002B0BDE8F047184702B0BDE8F087704763
:104BE000DFF814A0D4E700BF600A0020D01700202F
:104BF000B4E4000808000020ACE4000810B5094C3B
:104C0000094982B00246204605F0EAFE00204FF630
:104C1000E073CDE900302246044BDD21FDF740FB77
:104C200002B010BDD0170020BCE40008080000202E
:104C30000F4B1A780AB95A7882B11A78012A10D023
:104C40001A7CD10607D493F82C20D20603D45B78C3
:104C5000012B09D070470748FFF7D0BF0648FFF780
:104C6000CDBF0648FFF7CABF0548FFF7C7BF00BF63
:104C70007C170020DCE40008C4E40008D0E400084D
:104C8000E8E400080EB42DE9F04384B00BAC14F84E
:104C9000045B0394D0B1461EF6B20136DFF83880CB
:104CA00004EB860640F21D594FF478470434CDF8E2
:104CB000049054F8042C0097294643460A20039494
:104CC0001435FDF7EDFAA642EDB2EFD104B0BDE820
:104CD000F04303B0704700BF0800002008B5FDF79F
:104CE00023FB0028FBD108BD2DE9F04F87B001253B
:104CF000DFF82C82DFF82C92844E854F0391924688
:104D00002C46FDF711FBFF2888F8000039D0052854
:104D100000F2F980DFE800F0CB74BD2FAFA1FFF700
:104D2000AFFBC0F30723C0F30742042B8DF8140038
:104D30008DF815308DF8162000F2BF800DD0002DB3
:104D400040F0C980DBF80820DBF804309A4204D92F
:104D5000DBF80830013BCBF808309DF81630012B0A
:104D60002BD19BF80C30022B02D09BF80C30CBB926
:104D70009AF80030B3B901238AF8003007B0BDE8D3
:104D8000F08FDFF8A4B19BF80030012BF3D09BF833
:104D90000130012BEFD0FFF7A3FB0128BFD064B98E
:104DA0000024AEE79BF80C30022B06D19AF80030B5
:104DB000012B02D100238AF800305DBBDBF8042010
:104DC000494640F21D5400250132304605F008FEE8
:104DD0003B463246CDE9005496210A20FDF760FAA1
:104DE000DBF808204B490132304605F0F9FDCDE9EA
:104DF00000543B463246AA210A20FDF751FACFE77C
:104E0000DFF824B1DBF8043023B1DBF80430013BD8
:104E1000CBF80430DBF804203F4940F21D55013245
:104E20000024304605F0DCFD3B46CDE90045324626
:104E300096210A20FDF734FADBF8082037490132C1
:104E4000304605F0CDFDCDE900453B463246AA216E
:104E50000A20FDF725FA0125A2E7DFF8CCB0039B75
:104E6000DBF80820013B9A42A8D2DBF80830013376
:104E7000CBF80830A2E7DFF8B0B0DBF80820DBF8A9
:104E800004309A429AD9DBF80830013BCBF808305D
:104E900094E7DFF894B0DBF80420DBF808309A429E
:104EA000B8D2DBF804300133CBF80430B2E700238A
:104EB0008AF8003007B0BDE8F08FBDB9039BDBF87E
:104EC0000820013B9A42BFF448AFDBF808300133B9
:104ED000CBF8083041E7DBF80430002B3FF43DAF5E
:104EE000DBF80430013BCBF8043036E7DBF8042074
:104EF000DBF808309A42BFF430AFDBF804300133FE
:104F0000CBF8043029E7DFF820B056E7D0170020AF
:104F10000800002058E500082CE500083CE50008E2
:104F2000EE17002048E500087C170020014B012205
:104F30005A7370477C170020014B02225A73704746
:104F40007C17002038B5084C084B094A6E21022016
:104F500007256573FFF796FEFFF7AEFC054B0021B2
:104F6000012261731A7038BD7C17002068E50008C3
:104F700080E50008440A0020F0B5534C237C9E07CE
:104F800083B000F18B80237C980740F18080237CE4
:104F90009A0700F192804D4A4D4F4E4E4E4D6E2174
:104FA0000120FFF76FFE4D4B00934D4A4D4B822180
:104FB0000320FFF767FEFDF7B7F90E28FBD801A322
:104FC00053F820F08B500008B74F0008B74F000887
:104FD000B74F0008B74F0008B74F0008B74F000899
:104FE000B74F0008B74F0008B74F0008B74F000889
:104FF000B74F0008575000080D5000080150000836
:105000003A466E210120FFF73DFED4E70022E27010
:10501000237C62F34103237494F82C3043F00203A1
:1050200084F82C30237C62F38203237494F82C30B0
:10503000012043F0040384F82C30FDF76FFF324663
:105040006E210120FFF71EFEF020FDF751FFF12039
:10505000FDF74EFFAFE70020E070237C43F0020332
:10506000237494F82C3060F3410384F82C30237CB3
:1050700043F00403237494F82C3060F3820384F823
:105080002C30FDF74BFF2A46DAE703B0F0BD94F869
:105090002C3099077FF57BAF0E4D05E094F82C304E
:1050A0009D073FF570AF0C4D084E0FCD2D88358212
:1050B00030607160B260F3606DE794F82C309B074C
:1050C0007FF569AF024DEFE77C170020D017002075
:1050D000C4E50008B0E500089CE50008F8E5000814
:1050E000E8E50008D8E5000870B52B4A2B4C2C48A1
:1050F00084B000231946136002254FF4C96263602F
:105100008DF80330657305F092FB03AA02A901A88C
:10511000FEF7E2FC019B5A1EA26053B3C82B17D8BE
:10512000039B302B2ED81E4E04E0FEF77DFB9DF82E
:105130000330ABB12573FFF77BFD0DF1030201993D
:105140003046FFF7D1FD9DF80330002BEDD107E08D
:10515000144B82219A6A0120FFF794FDFFF7BEFDF0
:105160001148124A0023012103702373117004B007
:1051700070BD0C4B82215A6A0120FFF783FDFFF7B7
:10518000ADFDEDE7074B8221DA6A0120FFF77AFDDA
:10519000FFF7A4FDE4E700BFB40200207C17002065
:1051A000DC0F0020F0170020EE170020440A00203A
:1051B00030B40F4B0F4C10481049114A114D1C6070
:1051C0005860114C114899601149DA601D61114A0B
:1051D000114D5C619861114C1148D96111491A62F5
:1051E000114A5A63C3E90954C3E90B0130BC704743
:1051F000F017002004E60008ACE4000818E60008F8
:1052000028E6000834E6000844E6000858E60008EE
:1052100068E600087CE600088CE60008A0E60008C6
:10522000B4E60008C8E60008D8E6000800B583B078
:1052300064238DF807008DF806108DF805200DF118
:10524000070101220C4804F073F8642301220DF1D8
:105250000601094804F06CF89DF8073003F0F003EC
:10526000B02B06D8642301220DF10501024804F099
:105270005FF803B05DF804FBC81A002010B50C4CB1
:1052800000222046082102F00FF86420FCF7BAFB48
:1052900020460122082102F007F86420FCF7B2FB47
:1052A00078220721B020BDE81040FFF7BFBF00BF44
:1052B0000010024001284FF03C0202D08920FFF785
:1052C000B5BF9920FFF7B2BF38B5002205460C469E
:1052D000C0202221FFF7AAFF012D21464FF03C02FA
:1052E00004D08020BDE83840FFF7A0BF9020BDE883
:1052F0003840FFF79BBF00BF70B50E4E3446351DDA
:1053000014F8011B21B9AC42FAD134792CB970BD23
:105310003C229920FFF78AFFF5E700222221C020D6
:10532000FFF784FF21463C229020BDE87040FFF744
:105330007DBF00BF301D002038B5104B104A1A60E9
:105340004FF4827001224FF4007508240A2158603E
:105350005A6118460022C3E90654D962C3E9022201
:105360001A61C3E908229A6203F076F900B938BDE0
:1053700053210448BDE83840FFF79CBA20190020AB
:10538000003C0040ECE6000838B5104B104A1A60AB
:105390004FF482724FF4007510240A215A601846A7
:1053A0000022C3E90654D962C3E90222C3E90422F8
:1053B000C3E908229A6203F04FF900B938BD6921A8
:1053C0000448BDE83840FFF775BA00BF68180020F0
:1053D00000500140ECE60008F0B5484A03689342EB
:1053E00089B05BD0464A934201D009B0F0BD002499
:1053F000444B02945A6C444D42F480125A645B6CE4
:10540000059403F4801302934FF46072022302990F
:10541000039203A9052206463C480493069307928B
:1054200001F0FEFD3A4B2B604FF080604FF480613D
:105430004FF48032042368602846AC60EC60C5E914
:105440000544EC61C5E90A442C632961C5E90823D8
:1054500001F0FAFB00284CD12E4C2F4921604FF06F
:10546000806240204FF480634FF480316260A0601E
:1054700004222361F56400232046AE63C4E90812C8
:10548000E360C4E90533E361C4E90A33236301F04F
:10549000DBFB48BBB464A66309B0F0BD0024194B24
:1054A00001941A6C1D4842F400421A641B6C059466
:1054B00003F40043019303A94FF4C05302270326CA
:1054C0000625019ACDE90337CDE9066501F0A8FD6F
:1054D000082303A912480393CDE90474CDE90665B6
:1054E00001F09EFD09B0F0BDCB210E48FFF7E2F9B7
:1054F000D0E7B6210B48FFF7DDF9ADE7003C0040EF
:105500000050014000380240C01800200014024042
:10551000586402407819002070640240000802407C
:1055200000040240ECE6000830B589B028B3012839
:1055300016D0184C184B04EB800433F810506068F8
:1055400003950123022203A9CDE90433069201F059
:1055500067FD29466068002201F0A6FE09B030BD53
:105560000E4B002202921A6B42F040021A631B6B30
:1055700003F040030293029BDBE7084B01901A6B98
:1055800042F040021A631B6B03F040030193019B3E
:10559000CFE700BF3C00002010E3000800380240C5
:1055A000044B054A03EB800332F8101058680122BF
:1055B00001F07ABE3C00002010E30008044B054ACD
:1055C00003EB800332F810105868002201F06CBE23
:1055D0003C00002010E3000810B586B050B91A4B0B
:1055E00000901A6B42F001021A631B6B03F0010377
:1055F0000093009BC9B1012901D006B010BD134B27
:10560000134A019103EB8000002401A9C0680292B3
:10561000039401F005FD21460222062001F05EFA06
:10562000062001F091FA06B010BD084B029103EB81
:10563000800001230193C068022301A9CDE903334F
:1056400001F0EEFC06B010BD003802403C00002026
:10565000000011102DE9F047244C82B004F1100530
:10566000012608274FF00008214682464FF6FF72B8
:1056700028462660C4E90176C4F80C80CDF8048081
:1056800002F072FE3046FCF7BDF90223214628469F
:105690004FF6FF7223604FF00409C4E90176C4F8A5
:1056A0000C8002F061FE0323214628464FF6FF726C
:1056B00023606760C4F80C80C4F8089002F054FEC0
:1056C0004FF40C730193019B6760214628464FF607
:1056D000FF72C4F80090C4E9026302F045FE51462F
:1056E000284602B0BDE8F04702F058BE4C0C00203E
:1056F0002DE9F0438FB0724B724C7349734800250B
:1057000001959A6BA56142F001029A639A6BE5627A
:1057100002F001020192019A02951A6B656342F44C
:1057200080021A631A6B216102F480020292029ACB
:1057300003951A6B102640274FF4C0714FF4006C8C
:105740004FF0040926626762A162022707214FF029
:10575000010842F002024FF40056C4F830C0A663BC
:10576000A164C4E913916764C4E91577E765C4F8D7
:105770001C90C4F814801A631A6B3A400392039A7F
:1057800004951A6B42EA09021A631A6B02EA0902CB
:105790000492049A05951A6B42F008021A631A6B78
:1057A00002F008020592059A06951A6B42F0100263
:1057B0001A631A6B02F010020692069A07951A6B8A
:1057C00042F020021A631A6B02F020020792079A35
:1057D00008951A6B42F040021A631B6B0EAE03F081
:1057E00040030893602346F8143D0C233146089A81
:1057F0000D93CDE90B570A9701F012FC314634485E
:10580000CDF8248001F00CFC31464CF20373314892
:10581000099301F005FC31464FF683732E48099336
:1058200001F0FEFB31464FF63F032C480993A0469A
:1058300001F0F6FB314648F233132948099301F091
:10584000EFFB284B48F8603F80204FF400764FF480
:10585000806C4FF440334FF480514FF480426566C2
:10586000E567C4E92355A066E66604F11005032642
:105870004046C4F870C0C4F88030C4E91D12C4F8B2
:105880008490C4F84080C4F88860C4F8985001F04F
:1058900075FA404601F0D8F932463946382001F011
:1058A0001DF9382001F050F904F14401284602F0B6
:1058B000B7FC40F26A50FFF7CDFE0FB0BDE8F083B1
:1058C000003802404C0C0020400100A000040240BF
:1058D00000080240000C0240001002400014024088
:1058E000001802401064024013460A46014601486F
:1058F00002F000BD5C0C002013460A460146014838
:1059000002F0B0BC5C0C00202DE9F041074C0E46C3
:1059100017460546204602F011FD3B463246294611
:105920002046BDE8F04102F0C1BC00BF5C0C002085
:1059300010B582B00024264B00945A6C42F4804289
:105940005A645A6C02F480420092009A01941A6CD4
:1059500042F080521A641B6C03F0805301930520BF
:10596000019B01F0A9F8224621466FF00B0001F0DF
:10597000B5F8224621466FF00A0001F0AFF8224642
:1059800021466FF0090001F0A9F8224621466FF088
:10599000040001F0A3F8224621466FF0030001F055
:1059A0009DF8224621466FF0010001F097F822464B
:1059B00021464FF0FF3001F091F8224621460120A8
:1059C00001F08CF8012002B0BDE8104001F0BCB835
:1059D00000380240704700BF704700BF08B5FBF7B2
:1059E000DFFFBDE8084001F0F1B800BF02F05AB98E
:1059F000042001F05DBC00BF102001F059BC00BFC5
:105A0000014801F037BA00BF680E002008B504480D
:105A100000F002FF0348BDE8084000F0FDBE00BFF3
:105A2000B80D0020000E002008B5402001F040FC19
:105A3000802001F03DFC4FF40070BDE8084001F00B
:105A400037BC00BF08B5034803F050F9BDE8084073
:105A5000FCF71CBD501A002008B5034803F046F9B6
:105A6000BDE80840FEF79CB88C1A002008B5034832
:105A700003F03CF9BDE80840FEF7BEBE141A002052
:105A800008B54FF4806001F013FC4FF4006001F0A2
:105A90000FFC4FF40040BDE8084001F009BC00BF16
:105AA000F8B50A4C0A4803F021F9257805B1F8BD8C
:105AB000084F3E6802363E60FCF768FDB0EB460FCB
:105AC000F5D201233D602370F8BD00BF540A0020C9
:105AD000D8190020500A0020014801F0CBB900BFBE
