:020000040800F2
:10000000000003202518000875180008751800085E
:100010007518000875180008751800080000000021
:10002000000000000000000000000000355B000838
:100030007518000800000000375B0008395B0008F5
:1000400075180008455B0008751800087518000849
:100050007518000875180008755C00087518000808
:100060004D5B000875180008575B000875180008FC
:10007000751800087518000875180008751800082C
:1000800075180008615B0008715B000875180008AE
:10009000751800087518000875180008895B0008B5
:1000A000A15B00087518000875180008751800088D
:1000B000B55B000875180008C95B000875180008D2
:1000C00075180008751800087518000875180008DC
:1000D00075180008751800087518000875180008CC
:1000E000DD5B000875180008751800087518000811
:1000F000F95B0008751800087518000875180008E5
:10010000751800087518000875180008751800089B
:10011000751800087518000875180008751800088B
:1001200075180008355C000875180008455C000863
:10013000555C000875180008751800087518000847
:10014000751800087518000875180008751800085B
:10015000751800087518000875180008751800084B
:10016000751800087518000875180008751800083B
:1001700075180008655C000875180008000000008C
:10018000751800087518000875180008751800081B
:10019000751800087518000875180008751800080B
:0C01A00075180008751800087518000894
:1001B00010B5054C237833B9044B13B10448AFF3A1
:1001C00000800123237010BD1402002000000000F5
:1001D0003CC0000808B5034B1BB103490348AFF30B
:1001E000008008BD00000000180200203CC000088C
:1001F00081F0004102E000BF83F0004330B54FEAD8
:1002000041044FEA430594EA050F08BF90EA020F44
:100210001FBF54EA000C55EA020C7FEA645C7FEAD7
:10022000655C00F0E2804FEA5454D4EB5555B8BFFA
:100230006D420CDD2C4480EA020281EA030382EA6B
:10024000000083EA010180EA020281EA0303362DFD
:1002500088BF30BD11F0004F4FEA01314FF4801CD0
:100260004CEA113102D0404261EB410113F0004FE2
:100270004FEA03334CEA133302D0524263EB430399
:1002800094EA050F00F0A780A4F10104D5F1200E37
:100290000DDB02FA0EFC22FA05F2801841F1000192
:1002A00003FA0EF2801843FA05F359410EE0A5F166
:1002B00020050EF1200E012A03FA0EFC28BF4CF097
:1002C000020C43FA05F3C01851EBE37101F000454D
:1002D00007D54FF0000EDCF1000C7EEB00006EEB5A
:1002E0000101B1F5801F1BD3B1F5001F0CD34908E4
:1002F0005FEA30004FEA3C0C04F101044FEA44523B
:1003000012F5800F80F09A80BCF1004F08BF5FEAC1
:10031000500C50F1000041EB045141EA050130BDA1
:100320005FEA4C0C404141EB010111F4801FA4F144
:100330000104E9D191F0000F04BF01460020B1FA99
:1003400081F308BF2033A3F10B03B3F120020CDAD1
:100350000C3208DD02F1140CC2F10C0201FA0CF0AF
:1003600021FA02F10CE002F11402D8BFC2F1200C14
:1003700001FA02F120FA0CFCDCBF41EA0C019040CA
:10038000E41AA2BF01EB0451294330BD6FEA040413
:100390001F3C1CDA0C340EDC04F11404C4F12002FE
:1003A00020FA04F001FA02F340EA030021FA04F310
:1003B00045EA030130BDC4F10C04C4F1200220FA67
:1003C00002F001FA04F340EA0300294630BD21FAA5
:1003D00004F0294630BD94F0000F83F4801306BF6B
:1003E00081F480110134013D4EE77FEA645C18BF5F
:1003F0007FEA655C29D094EA050F08BF90EA020FF6
:1004000005D054EA000C04BF1946104630BD91EAED
:10041000030F1EBF0021002030BD5FEA545C05D1F0
:100420004000494128BF41F0004130BD14F580042F
:100430003CBF01F5801130BD01F0004545F0FE41A3
:1004400041F470014FF0000030BD7FEA645C1ABFD8
:10045000194610467FEA655C1CBF0B46024650EA0F
:10046000013406BF52EA033591EA030F41F400213B
:1004700030BD00BF90F0000F04BF0021704730B5C1
:100480004FF4806404F132044FF000054FF0000196
:1004900050E700BF90F0000F04BF0021704730B557
:1004A0004FF4806404F1320410F0004548BF40422C
:1004B0004FF000013EE700BF42004FEAE2014FEA81
:1004C00031014FEA02701FBF12F07F4393F07F4F5C
:1004D00081F06051704732F07F4208BF704793F05F
:1004E0007F4F04BF41F40021704730B54FF4607472
:1004F00001F0004521F000411CE700BF50EA010275
:1005000008BF704730B54FF000050AE050EA01021D
:1005100008BF704730B511F0004502D5404261EB8D
:1005200041014FF4806404F132045FEA915C3FF4CE
:10053000D8AE4FF003025FEADC0C18BF03325FEA6B
:10054000DC0C18BF033202EBDC02C2F1200300FA1C
:1005500003FC20FA02F001FA03FE40EA0E0021FA41
:1005600002F11444BDE600BF70B54FF0FF0C4CF42F
:10057000E06C1CEA11541DBF1CEA135594EA0C0FE1
:1005800095EA0C0F00F0DEF82C4481EA030621EA1C
:100590004C5123EA4C5350EA013518BF52EA033557
:1005A00041F4801143F4801338D0A0FB02CE4FF009
:1005B0000005E1FB02E506F00042E0FB03E54FF039
:1005C0000006E1FB03569CF0000F18BF4EF0010E31
:1005D000A4F1FF04B6F5007F64F5407404D25FEA2D
:1005E0004E0E6D4146EB060642EAC62141EA5551E0
:1005F0004FEAC52040EA5E504FEACE2EB4F1FD0C22
:1006000088BFBCF5E06F1ED8BEF1004F08BF5FEA9F
:10061000500E50F1000041EB045170BD06F0004651
:1006200046EA010140EA020081EA0301B4EB5C04FE
:10063000C2BFD4EB0C0541EA045170BD41F48011F6
:100640004FF0000E013C00F3AB8014F1360FDEBF1B
:10065000002001F0004170BDC4F10004203C35DAF7
:100660000C341BDC04F11404C4F1200500FA05F37A
:1006700020FA04F001FA05F240EA020001F000421B
:1006800021F0004110EBD37021FA04F642EB060191
:100690005EEA430E08BF20EAD37070BDC4F10C04BB
:1006A000C4F1200500FA04F320FA05F001FA04F27F
:1006B00040EA020001F0004110EBD37041F100016B
:1006C0005EEA430E08BF20EAD37070BDC4F1200576
:1006D00000FA05F24EEA020E20FA04F301FA05F2DE
:1006E00043EA020321FA04F001F0004121FA04F286
:1006F00020EA020000EBD3705EEA430E08BF20EA56
:10070000D37070BD94F0000F0FD101F0004640008F
:1007100041EB010111F4801F08BF013CF7D041EA11
:10072000060195F0000F18BF704703F00046520015
:1007300043EB030313F4801F08BF013DF7D043EAE6
:100740000603704794EA0C0F0CEA135518BF95EA9C
:100750000C0F0CD050EA410618BF52EA4306D1D123
:1007600081EA030101F000414FF0000070BD50EA42
:10077000410606BF1046194652EA430619D094EACC
:100780000C0F02D150EA013613D195EA0C0F05D1B6
:1007900052EA03361CBF104619460AD181EA03010A
:1007A00001F0004141F0FE4141F470014FF00000C2
:1007B00070BD41F0FE4141F4780170BD70B54FF05D
:1007C000FF0C4CF4E06C1CEA11541DBF1CEA1355DD
:1007D00094EA0C0F95EA0C0F00F0A7F8A4EB0504BF
:1007E00081EA030E52EA03354FEA013100F08880B6
:1007F0004FEA03334FF0805545EA131343EA12637F
:100800004FEA022245EA111545EA10654FEA002633
:100810000EF000419D4208BF964244F1FD0404F5EC
:10082000407402D25B084FEA3202B61A65EB030548
:100830005B084FEA32024FF480104FF4002CB6EB05
:10084000020E75EB030E22BFB61A754640EA0C0085
:100850005B084FEA3202B6EB020E75EB030E22BFC5
:10086000B61A754640EA5C005B084FEA3202B6EB06
:10087000020E75EB030E22BFB61A754640EA9C00C5
:100880005B084FEA3202B6EB020E75EB030E22BF95
:10089000B61A754640EADC0055EA060E18D04FEA53
:1008A000051545EA16754FEA06164FEAC30343EAF3
:1008B00052734FEAC2025FEA1C1CC0D111F4801FC0
:1008C0000BD141EA00014FF000004FF0004CB6E7B9
:1008D00011F4801F04BF01430020B4F1FD0C88BF58
:1008E000BCF5E06F3FF6AFAEB5EB030C04BFB6EB63
:1008F000020C5FEA500C50F1000041EB045170BD56
:100900000EF0004E4EEA113114EB5C04C2BFD4EB82
:100910000C0541EA045170BD41F480114FF0000E06
:10092000013C90E645EA060E8DE60CEA135594EA82
:100930000C0F08BF95EA0C0F3FF43BAF94EA0C0F85
:100940000AD150EA01347FF434AF95EA0C0F7FF4FA
:1009500025AF104619462CE795EA0C0F06D152EA4E
:1009600003353FF4FDAE1046194622E750EA410632
:1009700018BF52EA43067FF4C5AE50EA41047FF443
:100980000DAF52EA43057FF4EBAE12E74FEA4102A6
:10099000B2F1E04324BFB3F5001CDCF1FE5C0DD9DD
:1009A00001F0004C4FEAC0024CEA5070B2F1004F27
:1009B00040EB830008BF20F00100704711F0804F2A
:1009C00021D113F13872BCBF01F00040704741F4EF
:1009D00080114FEA5252C2F11802C2F1200C10FAF3
:1009E0000CF320FA02F018BF40F001004FEAC123D7
:1009F0004FEAD32303FA0CFC40EA0C0023FA02F37B
:100A00004FEA4303CCE77FEA625307D150EA013350
:100A10001EBF4FF0FE4040F44000704701F0004020
:100A200040F0FE4040F40000704700BF53B94AB99F
:100A3000002908BF00281CBF4FF0FF314FF0FF30E6
:100A400000F072B9ADF1080C6DE904CE00F006F8C3
:100A5000DDF804E0DDE9022304B070472DE9F0473A
:100A6000089E04468846002B4BD18A42154667D91A
:100A7000B2FA82F24AB1C2F1200701FA02F320FA77
:100A800007F7954047EA030894404FEA154E230CB8
:100A9000B8FBFEF71FFA85FC0EFB178843EA0843F4
:100AA00007FB0CF1994209D9EB1807F1FF3080F0F0
:100AB0001B81994240F21881023F2B445B1AA4B279
:100AC000B3FBFEF00EFB103344EA034400FB0CFCC6
:100AD000A44509D92C1900F1FF3380F00781A44502
:100AE00040F2048102382C4440EA0740A4EB0C0495
:100AF00000271EB1D4400023C6E900433946BDE8B3
:100B0000F0878B4209D9002E00F0EB800027C6E960
:100B1000000138463946BDE8F087B3FA83F7002F65
:100B200047D18B4202D3824200F2FA80841A61EBF1
:100B3000030301209846002EE0D0C6E90048DDE717
:100B400002B9FFDEB2FA82F2002A40F08F80491B20
:100B50004FEA154E1FFA85F80127B1FBFEFC230C66
:100B60000EFB1C1143EA014308FB0CF1994207D923
:100B7000EB180CF1FF3002D2994200F2CD8084468E
:100B8000591AA3B2B1FBFEF00EFB101443EA044461
:100B900008FB00F8A04507D92C1900F1FF3302D259
:100BA000A04500F2B6801846A4EB080440EA0C40C9
:100BB0009FE7C7F1200CBB4022FA0CFE4EEA030E61
:100BC00001FA07F420FA0CF521FA0CF34FEA1E485B
:100BD0002543B3FBF8F92C0C08FB19331FFA8EFAE6
:100BE00044EA034309FB0AF49C4202FA07F200FAC2
:100BF00007F10BD91EEB030309F1FF3080F087806A
:100C00009C4240F28480A9F1020973441B1BADB2DF
:100C1000B3FBF8F008FB103345EA034400FB0AFA83
:100C2000A24508D91EEB040400F1FF336BD2A245A4
:100C300069D90238744440EA0940A0FB0289A4EB58
:100C40000A044C45C2464B4654D351D0002E69D0BD
:100C5000B1EB0A0564EB030404FA0CFCFD40FC4014
:100C60004CEA0505C6E90054002747E7C2F1200316
:100C700020FA03F7954001FA02F021FA03F34FEA54
:100C8000154E3843010CB3FBFEF71FFA85F80EFB37
:100C9000173341EA034107FB08F38B4204FA02F4DD
:100CA00007D9691807F1FF3C2FD28B422DD9023F9B
:100CB0002944CB1A81B2B3FBFEF00EFB103341EA9C
:100CC000034100FB08F38B4207D9691800F1FF3C90
:100CD00017D28B4215D902382944C91A40EA07476E
:100CE0003BE73746304609E70746E7E61846FBE6A6
:100CF0004145ABD2B8EB020A69EB0E02013813464C
:100D0000A4E76046E9E7184695E76746D1E78146DC
:100D10007CE702382C4447E7ACF1020C2B442FE768
:100D2000384608E73746E9E6704700BF034613F840
:100D3000012B002AFBD1181A01387047000000006F
:100D400001F0FF01102A2BDB10F0070F08D010F87C
:100D5000013B013A8B422DD010F0070F42B3F6D180
:100D6000F0B441EA012141EA014122F007047FF099
:100D700000070023F0E80256083C85EA010586EAF0
:100D8000010685FA47F5A3FA87F586FA47F6A5FA2C
:100D900087F68EB9EED1F0BC01F0FF0102F0070238
:100DA00032B110F8013B013A83EA010313B1F8D1E3
:100DB0000020704701387047002D06BF35460338C4
:100DC000073815F0010F07D1013015F4807F02BFFD
:100DD000013015F4C03F0130F0BC0138704700BF4E
:100DE00008B501220421024806F044FB08BD00BFFB
:100DF0000010024000B587B08DF80F006423009307
:100E000001230DF117020DF10F01044807F0A0FDB9
:100E10009DF8170007B05DF804FB00BFE41B00203D
:100E200070B504460D46164600220421114806F00E
:100E300021FB0320FFF7DEFFC5F30740FFF7DAFFD2
:100E4000C5F30720FFF7D6FFE8B2FFF7D3FF5EB187
:100E5000751EADB201352544FF263046FFF7CAFFA7
:100E600004F8010BAC42F8D101220421014806F03C
:100E700001FB70BD0010024010B5074C0022042198
:100E8000204606F0F7FA0620FFF7B4FF01220421FE
:100E9000204606F0EFFA10BD0010024010B5002207
:100EA0000421094806F0E6FA0520FFF7A3FFFF2416
:100EB0002046FFF79FFF10F0010FF9D10122042116
:100EC000014806F0D7FA10BD0010024038B50446BC
:100ED000FFF7D2FF0D4D00220421284606F0CAFA82
:100EE000D820FFF787FFC4F30740FFF783FFC4F361
:100EF0000720FFF77FFFE0B2FFF77CFF012204210C
:100F0000284606F0B7FAFFF7C9FF38BD00100240C7
:100F100038B50446FFF7B0FF0D4D002204212846E6
:100F200006F0A8FA2020FFF765FFC4F30740FFF79B
:100F300061FFC4F30720FFF75DFFE0B2FFF75AFF40
:100F400001220421284606F095FAFFF7A7FF38BDD5
:100F5000001002404318B3F1007F2ED870B505464B
:100F60000C4640EA0103C3F30B030BB1012070BD33
:100F700083B26BB98BB299421BD00E462846FFF75D
:100F8000A5FFA6F5803605F58035B4B2B442F5D19B
:100F9000C4F30B039C420ED02846FFF7B9FFA4F51B
:100FA000805405F58055C4F30B03A342F4D100200F
:100FB000DDE71C46ECE70020D9E701207047000080
:100FC00070B504460D461646FFF756FF0022042171
:100FD000114806F04FFA0220FFF70CFFC5F3074057
:100FE000FFF708FFC5F30720FFF704FFE8B2FFF79C
:100FF00001FF4EB1751EADB20135254414F8010B49
:10100000FFF7F8FEAC42F9D101220421024806F0B4
:1010100031FAFFF743FF70BD001002402DE9F84F91
:1010200005460E461746130A11F0FF0222D1EBB116
:10103000013B5FFA83F909F1010800EB0828044637
:101040000D1A4FF4807A524661192046FFF7B8FF17
:1010500004F580744445F6D106F58071FAB201EBCF
:1010600009212046FFF7ACFFBDE8F88F3A46FFF7AD
:10107000A7FFF9E75442E4B28BB9FBB29C420AD213
:101080001A44D7B22246FFF79BFF3A46A119281906
:10109000FFF796FFE8E73A46FFF792FFE4E7A2B2D0
:1010A000BF1ABFB24FEA17295FFA87F8FFF788FF28
:1010B0002644254409F1FF3A5FFA8AFAB9F1000F94
:1010C0001DD00AF1010905EB09292C46751B4FF4C7
:1010D000807B5A4661192046FFF772FF04F5807441
:1010E0004C45F6D106F5807606EB0A26B8F1000FDE
:1010F000BAD0FAB231462046FFF762FFB4E72C4679
:10110000F4E7F0B5D0F85CE0DEF80850DEF80C301B
:101110001D4221D09EF8006006B3C4691434DEF885
:1011200010200023012703E001332244B34211D0F1
:1011300007FA03F02842F7D0104692F900C0BCF13C
:10114000000FF1DBB2F808C08C45EDD1DEF80430B9
:10115000536000E00020F0BD0020FCE70020FAE72B
:101160002DE9F041C66D01258D40B3681D4229D09F
:101170003769C36903F1140401FB04F43919A2B1FE
:101180003A5D12F0800F19D112F0010F18D004F15E
:101190001402B1F808E0D0F810C0D0F804803A4446
:1011A000194603FB0EC0C04700E00020B36823EAE5
:1011B0000505B56000233B55BDE8F0810020F5E74B
:1011C0000020F3E70020F7E72DE9F843C36DDC6862
:1011D0009D68AC4302D00020BDE8F88393F80080FE
:1011E000B8F1000F24D0C46904F1140CD3F80490B2
:1011F0001D6900274FF0FF3E3C4603E00134654483
:1012000044450DD06B68A9EB0303BB42F6D92E7899
:101210000E40964208BF1F46964208BFA646EDE71D
:10122000BEF1000F06DB01227146FFF799FFD3E7FD
:101230000020D1E70020CFE770B4C66DB168B1F1EE
:10124000FF3F1DD03478ECB111F0010F13D0002313
:1012500001250133A34211D005FA03F21142F8D15E
:10126000C0691430346903FB00400A43B2607368FC
:10127000436070BC704700230122F1E70020F8E7CB
:101280000020F6E70020F4E72DE9F04182B00446A3
:101290000F461E46C56D0169591AC369B1FBF3F1CA
:1012A00089B2FFF72EFF6B6801336B6050B907F00E
:1012B0000307012F22D12368099A089930469847DD
:1012C000074617E0636E013363666B684360E3694A
:1012D0002169761AB6FBF3F103FB116114314678EC
:1012E000143303FB06132969089A1944099809F075
:1012F0005FFD0027384602B0BDE8F081A36E0133E0
:10130000A366002280212046FFF75EFF07462046A5
:10131000FFF792FF8046002832D002230370236932
:10132000F31AE269B3FBF2F30381E169437801F157
:10133000140202FB03F214322069301AB0FBF1F3FD
:1013400001FB1300236801932B691A44301A019B97
:101350009847002818BF0746E3692169761AB6FB4B
:10136000F3F103FB1161143198F80120143303FBEE
:1013700002132969089A1944099809F019FDB9E777
:101380002368099A089930469847002818BF0746ED
:10139000B0E7F0B587B0C66D002E41D0046E143CA6
:1013A000C3691433B4FBF3F42146002C38DD00226A
:1013B00013465B0043F0010301329142F9D1054627
:1013C0000022019202928DF8044006F1140CCDF82F
:1013D00014C04FF0FF320392049301AF0FCF30607F
:1013E0007160B260F360C6F810C0EE6DEA69143245
:1013F000337803FB02F2306909F0E5FCF268B36868
:1014000023EA0203B36014F0FF0409D00022EB6961
:101410001433316902FB03135A700132A242F6D130
:1014200007B0F0BD2DE9F84F04460D4692469846A8
:101430000A9EDDF82C900C9FD0F878B08022002115
:1014400009F0C1FC28686968AA68EB6820606160DF
:10145000A260E36028696969AA69EB69206161613A
:10146000A261E361C4F878B0E368A269B3FBF2F368
:101470002362C4F838A0E369534463633246002111
:10148000404609F0A0FC18F0030303D0C3F10403A5
:101490009844F61AC4F83C80164BA3FB063676092E
:1014A000266419F0030303D0C3F104039944FF1A1F
:1014B00017F0030F18BF27F00307C4F85C90E36927
:1014C0005B01BB4228BF3B4623662046FFF761FF16
:1014D000094BE367204600F031F9002807DB0D9B3C
:1014E000E366012384F874300020BDE8F88F60645F
:1014F000FBE700BFABAAAAAA150309204FF6FF72AB
:10150000914205D051B1C36C0133C36405487047A3
:10151000002BFBD1836C01338364F7E7036D013348
:101520000365F3E7AAD8FFFF2DE9F04F8DB006461B
:101530000F46039114460593BDF858300693006A90
:10154000B169F569B1FBF5F35A00B2FBF5F2002A77
:1015500008BF01229B1A03FB00F9726B09926A080B
:101560000B929346013BA3423FDB3B4601FB03F357
:101570000893B9F1000F40F3C380059B03F001030A
:10158000049394FBFBF3079303FB0BFAF169B26935
:10159000B2FBF1F25200B2FBF1F2002A08BF0122C5
:1015A000079B9A4240F398803369089A1344726B00
:1015B00001920091079A02FB013300221421304668
:1015C000FFF762FE0A90002840F08880A4EB0A082A
:1015D000C34578DD25464F46A8EB0408099B03EB7D
:1015E0004808179CDDF86C903DE0039B01339BB2EB
:1015F0000393984204D903FB01F308930024B8E74E
:10160000059B13F0040F40F08E800024089403948F
:10161000AFE71A9A12B1BDF80C101180B9F1000FA2
:1016200001D0C9F80030002C7FD0059A12F0020FCB
:101630000CBF38F815100699199A0192189A009261
:10164000039A3046A04700F51D531733012B35D8B8
:10165000384B984221D06B1C781E0135013FA5EB19
:101660000A025A4535DA2B46D6F81CC0B269B2FBDD
:10167000FCF25100B1FBFCF1002908BF0121521A14
:10168000AA421EDD049A002AC3D038F81520069914
:101690008A42BED0781E6B1CDFE7F3693269089975
:1016A0000A44716B01910093079901FB0323002207
:1016B00014213046FFF7E8FD0028CCDA0DB0BDE874
:1016C000F08FB9462C46079B013307930B9B9A4436
:1016D0005CE781461C46F6E700230A93039B01332F
:1016E0009BB219460393B269336A99420AD2089BA6
:1016F000134408930A9B6BB90024A1453FF741AFFF
:101700000D48DBE7059B13F0040F10D1002308936D
:101710000393EFE708480A9B1A4612EA230238BFF0
:1017200002461046CAE70448C8E70A98C6E70248D6
:10173000C4E700BFA9D8FFFFA8D8FFFF2DE9F043F9
:101740008BB004460023ADF82630036A002B60D02E
:1017500000264FF6FF75B4460DF11E090227B0466C
:1017600009E0BDF82620013292B2ADF82620944659
:10177000236A9A4226D22169A069E369B0FBF3F299
:101780005200B2FBF3F2002A08BF012202390CFB1F
:101790000010CDF80490009702FB03034246152188
:1017A0002046FFF771FD002830DBBDF81E304FF6F4
:1017B000FF729342D5D09D4228BF1D469E4238BF3E
:1017C0001E46CEE71DB94FF6FF739E4205D0731B30
:1017D000B3F5004F1EDB0135ADB2A4F85650002121
:1017E000A164E164216508AB05930DF12603049320
:1017F00003910291094B019300910B460A46204642
:10180000FFF792FE064B984208BF00200BB0BDE8E0
:10181000F0830026751CADB2DFE700BFFD140008A1
:10182000A8D8FFFFDFF834D0002103E00C4B5B5851
:10183000435004310B480C4B42189A42F6D30B4AE2
:1018400002E0002342F8043B094B9A42F9D304F02A
:10185000DFFD09F079FA02F05BFE7047000003201B
:10186000B4EE000800000020140200201402002042
:10187000AC270020FEE7704770B5204B9A69013213
:101880009A61DB691BB11D4AD369013BD3611B4BD4
:101890001B78002B2ED00024184E15E0C368016978
:1018A000984706EB85056B685A689A606B681A78EA
:1018B00012F0010F03D11A786FF341021A7001344C
:1018C000E4B23378A34215D9254606EB8403586861
:1018D0000028F4D0037813F0020FF0D08368002BB7
:1018E000DCD0013B836006EB840358688368002BDF
:1018F000D4D0E4E7FFF7BFFF70BD00BF3002002087
:10190000EFF305835BB10A4A88B1136813F4803F93
:1019100003D1136813F4803FFBD00138F4E7054B83
:1019200099691A4693695B1A8342FBD370477047E3
:1019300010E000E030020020014B9869704700BFC2
:101940003002002038B50546C0F3C002802115489A
:1019500005F090FD144CC5F380024021204605F0AF
:1019600089FDC5F340028021204605F083FD05F086
:1019700001024FF48071204605F07CFD01224FF4F6
:101980000071204605F076FD142001F0E1F80022F8
:101990004FF40071204605F06DFD142001F0D8F8D9
:1019A00038BD00BF001802400008024010B50446D0
:1019B00000224FF48071054805F05CFD2009FFF717
:1019C000C1FF04F00F00FFF7BDFF10BD0000024093
:1019D00000B583B000238DF8043040238DF8053026
:1019E00014238DF8063054238DF807300A4BDB782A
:1019F0008B4298BF0021084B5871997102AB194472
:101A000011F8043C184460F07F00C0B2FFF7CEFF2D
:101A100003B05DF804FB00BF5002002010B504467F
:101A200001224FF48071054805F024FD2009FFF7DD
:101A300089FF04F00F00FFF785FF10BD0000024092
:101A400008B50120FFF7B2FF40F6B83001F080F88A
:101A500008BD000070B51546FFF7BAFF2B784BB3F1
:101A6000154C002617E06671A1790131C9B2A17148
:101A70003046FFF7ADFF12E0A1790131C9B2A17183
:101A80006079FFF7A5FF03E0A1793046FFF7A0FFDB
:101A900015F8013F73B1627923799A42E3D228782D
:101AA0000A28E9D00D28EFD0FFF7B8FF637901339A
:101AB0006371EDE770BD00BF5002002008B5054B13
:101AC000187840F004021A7040F00C00FFF76EFF27
:101AD00008BD00BF5002002070B506460D4600222A
:101AE0004FF480712F4805F0C5FC2F4C00224FF4B5
:101AF0000071204605F0BEFC00224FF480712046A4
:101B000005F0B8FC00228021204605F0B3FC00223D
:101B10004021204605F0AEFC00228021234805F03C
:101B2000A9FC4AF6C87001F013F8214BDD701E7154
:101B300000225A719A71012D84BF1D4B08225A70E0
:101B40000320FFF7FFFE41F2941001F001F803209B
:101B5000FFF7F8FE41F2941000F0FAFF0320FFF7C0
:101B6000F1FE41F2941000F0F3FF0220FFF7EAFECD
:101B7000642000F0EDFF0E4C607840F02000FFF78D
:101B800015FF04232370FFF799FFFFF759FF022386
:101B9000A3700620FFF70AFF41F2941000F0D8FF6F
:101BA00070BD00BF00000240000802400018024063
:101BB0005002002030B583B002AC04F8010D0022C1
:101BC0004FF400510A4805F055FC0A4D002204214B
:101BD000284605F04FFC642301222146064806F002
:101BE000E7FD01220421284605F044FC03B030BD86
:101BF000000C024000080240E41B002030B583B016
:101C000002AC04F8010D01224FF400510A4805F01E
:101C100031FC0A4D00220421284605F02BFC6423E8
:101C200001222146064806F0C3FD01220421284670
:101C300005F020FC03B030BD000C0240000802405B
:101C4000E41B0020F8B507460D4616461C462A2020
:101C5000FFF7B0FF380AFFF7D1FFF8B2FFF7CEFF6A
:101C6000300AFFF7CBFFF0B2FFF7C8FF2B20FFF7DA
:101C7000A1FF280AFFF7C2FFE8B2FFF7BFFF200A63
:101C8000FFF7BCFFE0B2FFF7B9FFF8BD10B514468F
:101C90000B460246FFF7D6FF2C20FFF78BFFC4F35D
:101CA0000720FFF7ABFFE0B2FFF7A8FF10BD000071
:101CB0002DE9F04182B080460E4617461C46BDF81D
:101CC00020504FEA152C8DF804C08DF80550FFF711
:101CD000B9FF2C20FFF76EFFA7EB0807A31B01330A
:101CE00007FB033700220421244805F0C3FB01222F
:101CF0004FF40051224805F0BDFB224B19680A68D9
:101D000022F040020A604FF40062DA601A68136839
:101D100043F040031360B7F5803F0DD34FF6FF74D7
:101D2000184E02252A4601A9304606F0E1FF013C83
:101D3000F8D1A7F57F47FF3F5FB101370124114E6E
:101D400002252A4601A9304606F0D2FF0134BC42E2
:101D5000F7D101220421094805F08CFB094B1968D1
:101D60000A6822F040020A600022DA601A681368EA
:101D700043F04003136002B0BDE8F0810008024068
:101D8000000C0240E41B002000B583B0064A5388D3
:101D90001288013A80B2009092B200210846FFF703
:101DA00087FF03B05DF804FBA80D002082B001900E
:101DB000019B2BB1019B013B0193019B002BF9D1AE
:101DC00002B0704710B59B4C00224FF48051204662
:101DD00005F050FB44F62060FFF7E8FF01224FF4C6
:101DE0008051204605F046FB44F62060FFF7DEFFF9
:101DF0000120FFF7DFFE4CF25030FFF7D7FFCB207A
:101E0000FFF7D8FE3920FFF7F9FE2C20FFF7F6FE8A
:101E10000020FFF7F3FE3420FFF7F0FE0220FFF76B
:101E2000EDFECF20FFF7C6FE0020FFF7E7FEC12042
:101E3000FFF7E4FE3020FFF7E1FEE820FFF7BAFEEF
:101E40008520FFF7DBFE0020FFF7D8FE7820FFF7A4
:101E5000D5FEEA20FFF7AEFE0020FFF7CFFE002000
:101E6000FFF7CCFEED20FFF7A5FE6420FFF7C6FECE
:101E70000320FFF7C3FE1220FFF7C0FE8120FFF70B
:101E8000BDFEF720FFF796FE2020FFF7B7FEC0202B
:101E9000FFF790FE2320FFF7B1FEC120FFF78AFE77
:101EA0001020FFF7ABFEC520FFF784FE3E20FFF7B2
:101EB000A5FE2820FFF7A2FEC720FFF77BFE8620A5
:101EC000FFF79CFE3620FFF775FE4820FFF796FED1
:101ED0003A20FFF76FFE5520FFF790FEB120FFF785
:101EE00069FE0020FFF78AFE1820FFF787FEB62064
:101EF000FFF760FE0820FFF781FE8220FFF77EFEDD
:101F00002720FFF77BFEF220FFF754FE0020FFF7AB
:101F100075FE2A20FFF74EFE0020FFF76FFE00201F
:101F2000FFF76CFE0020FFF769FEEF20FFF766FE6B
:101F30002B20FFF73FFE0020FFF760FE0020FFF799
:101F40005DFE0120FFF75AFE3F20FFF757FE2620D7
:101F5000FFF730FE0120FFF751FEE020FFF72AFED9
:101F60000F20FFF74BFE3120FFF748FE2B20FFF735
:101F700045FE0C20FFF742FE0E20FFF73FFE082033
:101F8000FFF73CFE4E20FFF739FEF120FFF736FE4B
:101F90003720FFF733FE0720FFF730FE1020FFF752
:101FA0002DFE0320FFF72AFE0E20FFF727FE092053
:101FB000FFF724FE0020FFF721FEE120FFF7FAFDE6
:101FC0000020FFF71BFE0E20FFF718FE1420FFF77E
:101FD00015FE0320FFF712FE1120FFF70FFE07206A
:101FE000FFF70CFE3120FFF709FEC120FFF706FEC8
:101FF0004820FFF703FE0820FFF700FE0F20FFF741
:10200000FDFD0C20FFF7FAFD3120FFF7F7FD36202C
:10201000FFF7F4FD0F20FFF7F1FD1120FFF7CAFDD8
:102020000548FFF7C3FE2920FFF7C4FD2C20FFF76A
:10203000C1FD10BD000C024040420F0008B5012256
:1020400004210B4805F016FAFFF7BCFE0023094AED
:102050001380094A1380094BF0221A804FF4A072B2
:102060005A8001221A714FF6FF70FFF78DFE08BDEE
:1020700000080240AE0D0020A40D0020A80D002095
:1020800010B504463620FFF795FD84B1012C1AD017
:10209000022C1CD0032C1ED0012C0BD9104B4FF45A
:1020A000A0721A80F0225A8000221A7110BD5820A6
:1020B000FFF7A4FD0A4BF0221A804FF4A0725A8059
:1020C00001221A71F2E78820FFF798FDF2E7282035
:1020D000FFF794FDE2E7E820FFF790FDDEE700BFA1
:1020E000A80D00202DE9F04D82B093461D462A4BE5
:1020F00018802A4B19802B781844294B1B8898424A
:1021000006DD6B781944254B1980234B00221A8079
:10211000214B1888214B19886B780B442A7802448C
:10212000BDF82C4000949BB292B2FFF7C1FD6A78D3
:1021300052B34FF00008DFF864A0174F18E00134E5
:102140002B78A3420FD906FA04F313F4004FF6D00C
:10215000BAF800104144388820440A9A89B280B203
:10216000FFF794FDEBE708F101086A7842450BD9C7
:10217000ABF1200302FB03836A6832F813602B780B
:10218000002BF0D00024DEE7034A2B7811880B44A3
:10219000138002B0BDE8F08DA40D0020AE0D00202C
:1021A000A80D00202DE9F04F83B0824614461E464C
:1021B000DDF83090DDF83480164B1880164B19800E
:1021C0001D46144F4FF0000B0FE02B885A1C7378FC
:1021D00013442B8063780D2B06BFA7F800B00134A1
:1021E000A7F800A0013400E00134227872B10A2A75
:1021F000EBD00D2AF8D0013429883888CDF8048036
:10220000CDF800903346FFF76DFFEEE703B0BDE871
:10221000F08F00BFA40D0020AE0D0020014B185C14
:10222000704700BF18000020074B187CFF280AD019
:102230005B7CFE2B06D0054B00221A80024BFE224F
:102240005A747047FF207047180000205802002081
:1022500038B505461C4C01224FF48051204605F04C
:1022600009F901222021204605F004F9012240212C
:10227000204605F0FFF801224FF40051134805F005
:10228000F9F8012D06D0022D0AD0032D0ED0042D11
:1022900012D038BD00221021204605F0EBF8F6E7F9
:1022A00000222021084805F0E5F8F2E7002240214D
:1022B000054805F0DFF8ECE700224FF40051034831
:1022C00005F0D8F8E5E700BF001002400008024022
:1022D00008B50020FFF7BCFF08BD000010B504469C
:1022E0004FF48071134805F0BFF818B91248204424
:1022F000C07C10BD80210F4805F0B6F818B90E4813
:102300002044C07DF5E74FF480610C4805F0ACF83F
:1023100018B909482044C07EEBE74FF40071054826
:1023200005F0A2F818B904482044C07FE1E7FF2077
:10233000DFE700BF00040240180000200018024040
:1023400008B50120FFF784FF0120FFF7C7FFFF2832
:1023500000D008BD0220FFF77BFF0220FFF7BEFF81
:10236000FF28F6D10320FFF773FF0320FFF7B6FF26
:10237000FF28EED10420FFF76BFF0420FFF7AEFF2C
:10238000E7E7000008B5FFF7DBFF114B1874114BAE
:102390001B8801339BB2B3F5FA7F0FD30D4B00229C
:1023A0001A80FF280DD01A469B780133DBB2937058
:1023B000042B09D1074B00229A7005E0054A1380CF
:1023C00005E0044B00229A70014BFF225A7408BDAD
:1023D00018000020580200200B4B9B681844B0F5F1
:1023E000801F28BFC0F31300074B9860064A93680C
:1023F000C3F310011160C3F34B115160C3F34743A2
:1024000013731374704700BF5C0200200B4BDB6931
:102410001844B0F5801F28BFC0F31300074BD861E4
:10242000064AD369C3F310015161C3F34B119161A3
:10243000C3F3474382F82030137470475C020020D6
:1024400010B5054B03EB8004012233F8101020690E
:1024500005F010F810BD00BF68E8000810B5054B86
:1024600003EB8004002233F81010206905F002F815
:1024700010BD00BF68E8000800B583B064230122E6
:102480000DF10701034806F080FB9DF8070003B03B
:102490005DF804FBE41B0020014B9868704700BF07
:1024A0005C02002008B501290FD011B1022909D022
:1024B00008BD0B4B00221A605A609A601A74FFF72D
:1024C0008BFFF5E7FFF788FFF2E7054B00221A6064
:1024D0005A609A601A74C0F58010FFF77DFFE7E735
:1024E0005C02002008B501290FD011B1022909D0E2
:1024F00008BD0B4B00225A619A61DA611A74FFF72A
:1025000085FFF5E7FFF782FFF2E7054B00225A61EE
:102510009A61DA611A74C0F58010FFF777FFE7E778
:102520005C020020014BD869704700BF5C020020AC
:1025300000B583B002A901F8010D6423012203480C
:1025400006F036F903B05DF804FB00BFE41B002081
:1025500010B50020054B18741C46FFF771FF207C56
:102560000130C0B220740728F7D910BD5C020020EA
:1025700038B50546074C207CFFF770FF0120FFF7B8
:10258000D7FF2846FFF7D4FF207CFFF759FF002034
:1025900038BD00BF5C02002070B504460D461646EB
:1025A0001846FFF7C5FF3046FFF7C2FF2846FFF782
:1025B000BFFF2046FFF7BCFF70BD00002DE9F041D2
:1025C00006460F4690461C46069D4020FFF7D0FF6A
:1025D0000C4B187CFFF742FF022342463946304637
:1025E000FFF7DAFF35B1254414F8010BFFF7A0FF20
:1025F000A542F9D1034B187CFFF722FF0020BDE86C
:10260000F08100BF5C02002070B582B02E4A526992
:1026100012F01F0214BFC2F120051546002934D064
:102620000C4606461F2922D98AB9274B9A7D597D27
:10263000187D202500953346FFF7C0FF2846FFF799
:10264000E5FEA4F120017019FFF7DEFF1DE01E4B2F
:102650009A7D597D187D00953346FFF7AFFF2846D8
:10266000FFF7D4FE611B7019FFF7CEFF0DE0FAB142
:102670008D420CD3144B9A7D597D187D00943346BE
:10268000FFF79CFF2046FFF7C1FE02B070BD4C1B58
:102690000D4B9A7D597D187D00953346FFF78EFFCF
:1026A0002846FFF7B3FE21467019FFF7ADFFECE7B0
:1026B000054B9A7D597D187D00943346FFF77EFFC8
:1026C0002046FFF7A3FEE0E75C0200202DE9F04181
:1026D00006460F4690461C46069D4020FFF748FFE1
:1026E0000C4B187CFFF7BAFE0323424639463046AE
:1026F000FFF752FF35B12544FFF7BEFE04F8010B8A
:10270000A542F9D1034B187CFFF79AFE0020BDE8E3
:10271000F08100BF5C02002070B582B02E4A1268C2
:1027200012F01F0214BFC2F120051546002934D053
:102730000C4606461F2922D98AB9274B9A78597820
:102740001878202500953346FFF7C0FF2846FFF78D
:1027500043FEA4F120017019FFF7DEFF1DE01E4BC0
:102760009A785978187800953346FFF7AFFF2846D6
:10277000FFF732FE611B7019FFF7CEFF0DE0FAB1D3
:102780008D420CD3144B9A785978187800943346BC
:10279000FFF79CFF2046FFF71FFE02B070BD4C1BE9
:1027A0000D4B9A785978187800953346FFF78EFFCD
:1027B0002846FFF711FE21467019FFF7ADFFECE741
:1027C000054B9A785978187800943346FFF77EFFC6
:1027D0002046FFF701FEE0E75C02002010B5406CE8
:1027E000054C0A22214608F03FFC22460121002028
:1027F000FFF730F910BD00BFB00D002010B5036821
:102800004C4A934203D04C4A934203D010BD01F08E
:10281000DBFDFBE704F0B0F83E2821D8DFE800F04C
:102820002323232320202020203535353520202048
:102830002020393939392020203D3D3D3D2020419F
:102840004141414545454520494949204D4D4D515E
:10285000515155555559595D5D61616969718600E0
:10286000364B1860D2E7354B01221A60FFF7E8F8C3
:10287000334C0A222146314B186808F0F5FB2246FA
:1028800000210846FFF7E6F8C0E72C4B02221A6049
:10289000ECE72A4B03221A60E8E7284B04221A606F
:1028A000E4E7264B05221A60E0E7244B06221A6073
:1028B000DCE7224B07221A60D8E7204B08221A6077
:1028C000D4E71E4B09221A60D0E71C4B0A221A607B
:1028D000CCE71A4B0B221A60C8E7184B0C221A607F
:1028E000C4E7164B0D221A60164A136C013B1364A1
:1028F000BCE7124B0E221A60124A136C01331364A8
:10290000B4E70E4B0F221A600E4B1B7FDBB2012B7C
:1029100008D00C4B1B7FDBB2032BA7D1094B012244
:102920001A77A3E7074B03221A779FE7034B10227E
:102930001A609BE70022014000200140A002002015
:10294000B00D0020001B002000B585B019481A4BBF
:1029500003604FF4803343604FF040738360002383
:102960000361836103624FF08052C2624FF0706274
:102970008262C3600122C2610363426103F016FEFA
:1029800068B9042300930123019307230293694646
:10299000084804F0DDF838B905B05DF804FBCB2138
:1029A000064801F041FFECE7D521044801F03CFF67
:1029B000F2E700BF180E002000200140E4E8000804
:1029C00000B585B01E481F4B03604FF48033436051
:1029D0004FF0407383600122026182610023036231
:1029E000C36219498162C3600221C161026343610C
:1029F00003F0DCFDA0B901230093019306230293A9
:102A000069460F4804F0A4F878B9022300930193B3
:102A100069460B4804F09CF860B905B05DF804FB0A
:102A2000EE210A4801F000FFE5E7F821074801F030
:102A3000FBFEEAE740F20111044801F0F5FEECE785
:102A4000600E0020002201400100000FE4E80008B1
:102A5000F0B589B00368374A934205D00446364A38
:102A6000934225D009B0F0BD00240194334B5A6C39
:102A700042F480725A645B6C03F480730193019B8F
:102A8000102603960327049705942D4D03A9284685
:102A900004F0F8FB22463946122004F039F91220DE
:102AA00004F068F922463146284604F0E3FCD9E7F1
:102AB00000250295214B5A6C42F480625A645B6C8B
:102AC00003F480630293029B06230393032304937E
:102AD000059503A91A4804F0D5FB1A481A4B036060
:102AE0004FF0806343608560C5604FF4806303618D
:102AF0004FF4805343614FF4804383614FF48073FC
:102B0000C3614FF480330362456204F0C3F958B9DE
:102B10000C4BA3639C6300220321122004F0F8F8FD
:102B2000122004F027F99DE74FF4A071074801F047
:102B30007BFEEDE70020014000220140003802400A
:102B400000000240B80D002028640240E4E80008BC
:102B500038B50446074B5D6805F096FC064BA3FBB1
:102B60000030800C04FB00F4024A53685B1BA34254
:102B7000FBD338BD001000E083DE1B4310B582B0EC
:102B800002AC04F8010D0A20FFF7E2FF0A2301223C
:102B90002146024805F00CFE02B010BD9C1C00202E
:102BA00008B50A20FFF7D4FF08BD000000B583B0C8
:102BB00002A9002301F8013D0A230122034805F080
:102BC000E4FF9DF8070003B05DF804FB9C1C0020A7
:102BD00070B506460D460C4C00224FF4806120462D
:102BE00004F048FC46F05000FFF7C8FF0020FFF754
:102BF000C5FF2846FFF7C2FF01224FF4806120463F
:102C000004F038FC70BD00BF0008024038B505462E
:102C10000D4C00224FF48061204604F02BFC45F05F
:102C20001000FFF7ABFF0020FFF7A8FFFFF7B8FF8A
:102C3000FFF7BCFF054601224FF48061204604F0F7
:102C400019FC284638BD00BF0008024038B50546CB
:102C5000084C00224FF48061204604F00BFC28460B
:102C6000FFF78CFF01224FF48061204604F002FC44
:102C700038BD00BF0008024008B530B1012809D0B6
:102C800002280CD003280FD008BD01210846FFF709
:102C90009FFFF9E723210120FFF79AFFF4E7452181
:102CA0000120FFF795FFEFE767210120FFF790FF75
:102CB000EAE7000070B5054C054E0425294630466C
:102CC00004F0D2FB08B1013CF8D170BD801A0600B7
:102CD000000C024070B505460C46154B1870597033
:102CE000FFF7E8FF134B1E5D134C00224FF4806189
:102CF000204604F0BFFB5020FFF740FF0320FFF702
:102D00003DFF0620FFF73AFF0820FFF737FF284670
:102D1000FFF734FF3046FFF731FF01224FF48061A7
:102D2000204604F0A7FB3220FFF712FF70BD00BF62
:102D30007C0D002098E800080008024008B5FFF765
:102D4000B9FF0020FFF762FFC0F3071008BD0000C5
:102D500070B5144E00224FF48061304604F08AFBB7
:102D60000120FFF70BFFFFF71BFFFFF71FFF0E4DC3
:102D70002870FFF71BFF6870FFF718FFA8702B780B
:102D80006C78240244EA0344044301224FF4806136
:102D9000304604F06FFB14F4000F18BF44F07F447A
:102DA000204670BD00080240AC02002010B582B081
:102DB0008DF804000B0A8DF805308DF806100C4CC8
:102DC00001222021204604F055FB0022202120462C
:102DD00004F050FB6423032201A9064805F0E8FC37
:102DE00001222021204604F045FB02B010BD00BFA7
:102DF000000C02409C1C002070B582B000258DF8AC
:102E00000050030A8DF801308DF8020034238DF84C
:102E100003300B0A8DF804308DF80510124C2A4649
:102E20002021204604F026FB104E6423032269462D
:102E3000304605F0BDFC01222021204604F01AFB9B
:102E40002A462021204604F015FB642303220DEBC3
:102E50000201304605F0ACFC01222021204604F09E
:102E600009FB02B070BD00BF000C02409C1C00209A
:102E7000014B1860704700BFB4020020024B5A6833
:102E800002609B680B607047B402002030B4194B9D
:102E900058609960184B5B7FDBB2012B15D0174B44
:102EA00000EB400003EB80004468134A106900FB0C
:102EB00004F0104DE8609460013101EB410103EB37
:102EC00081014B68D36030BC70470B4B5B78DBB241
:102ED000012BE4D1084B1B78DBB2012BDFD14B1C5B
:102EE00003EB4303054A02EB8303024A12685A606C
:102EF000D5E700BFB4020020001B00203C100020DA
:102F000000B583B0ADF80600114BDB7823B1114B4F
:102F1000DB68B3F5000F02D303B05DF804FB08785B
:102F200003F1504301220DF1060103EB101002F0F2
:102F30009DFD074A10690749CB680344CB60537F66
:102F4000DBB2012BE8D10B6801330B60E4E700BF73
:102F5000001B0020B402002030B585B0ADF806009B
:102F60004A4BDB784BB315460C46494BDB68B3F54F
:102F7000000F15D20A7812F0010F20D12A7812F032
:102F8000010F45D1414A10694149CB680344CB60E8
:102F9000537FDBB2012B64D03C4A936801339360CA
:102FA0003A4BDB6823B1394B9A68DB689A425CD2B2
:102FB000374BDB68B3F5000F61D005B030BD087842
:102FC00003F1504301220DF1060103EB101002F052
:102FD0004DFD2E4A536992F8201001F0010103EBD8
:102FE00043022C4B03EB82030B441B7A012BC9D108
:102FF0002878274BDB6803F1504301220DF10E01C5
:1030000003EB101002F028FDBDF90E306B80B9E71C
:10301000287803F1504301220DF1060103EB101053
:1030200002F024FD194A536992F8201001F00101C1
:1030300003EB4302174B03EB82030B441B7A012B78
:10304000A0D12078124BDB6803F1504301220DF12F
:103050000E0103EB101002F0FFFCBDF90E3063808F
:1030600090E70B6801330B6096E7012002F050FBFC
:10307000094B01221A70054B0022DA709DE70023EC
:10308000034AD360014AD37097E700BF001B0020BA
:10309000B40200203C100020550A0020000000006F
:1030A0004D4BDB7803B9704730B583B00C4605460D
:1030B00008784A4BDB6803F1504301220DF1060109
:1030C00003EB101002F0C8FCBDF906305A1912B219
:1030D00022816380227812F0040F32D123891BB23F
:1030E0006268934202DD23891BB26360237813F088
:1030F000080F3FD1384B9A6801329A601A693749F4
:10310000C8680244CA609968DB68994259D3237839
:1031100013F0080F3BD123786FF3820323704FF035
:103120007E53E36043F6FF7363602B4B5B7FDBB240
:10313000022B42D0294B99685868FFF7A7FE03B0CD
:1031400030BD94ED037AD4ED036A07EE903AF8EEC1
:10315000E77A67EE877A07EE105AB8EEC77A27EE5D
:10316000267A77EE877AFDEEE77A17EE903A1BB271
:103170002381B3E7214611F8080B184BDB6803F1F4
:103180005043012203EB101002F070FCB2E76368B9
:10319000B3F5804FBFDB237843F0040323706068EE
:1031A000FDF778F902460B4609A1D1E90001FDF7C8
:1031B00005FBFDF7EBFBE060B4E7074B0022DA709C
:1031C000B8E7B2F5000FBAD1044B0022DA60B6E7D7
:1031D0000000000080FFCF40001B0020B402002050
:1031E0001D4BDB7803B9704770B582B014460D46AD
:1031F0001A4EF068012201A900F1504002F022FCB1
:10320000BDF904306B80BDF906306380124B9A68BB
:1032100001329A601969F2680A44F2609A68DB68C0
:103220009A4209D30C4B5B7FDBB2022B0BD00B4BCA
:1032300099685868FFF72AFE084BDB68B3F5000F62
:1032400005D002B070BD044B0022DA70EFE7034BEB
:103250000022DA60F5E700BF001B0020B402002066
:1032600008B5418801F57F513F3189B21020FFF741
:103270009DFD08BD08B5274B1B7983B1254B5B69C4
:1032800003EB4303244A02EB83031B7A3BB1214B3C
:103290005B6903EB430302EB83035B7A43B9037877
:1032A00013F0010F0FD10B7813F0010F1ED108BDE1
:1032B0004388498843F6FF700144184489B280B2BC
:1032C000FFF79AFDF3E7134B5B6903EB4303124AE5
:1032D00002EB83031B7A002BE5D0418801F57F5177
:1032E0003F3189B21020FFF761FDE0E7094B5B69D0
:1032F00003EB4303084A02EB83035B7A002BD6D02F
:10330000498801F57F513F3189B22420FFF74EFDF6
:10331000CDE700BF001B00203C100020164B1B799E
:10332000DBB2012B0ED0144B02221A6193F820203D
:103330006FF3071283F8202093F8303013F0010F59
:1033400011D170470C4B04221A6193F820206FF3BF
:10335000071283F8202093F83020022161F307122E
:1033600083F830207047044A92F830306FF3071327
:1033700082F83030E5E700BF001B002010B50D4B90
:103380000024DC7093F8202042F0010283F8202012
:1033900093F8302064F3000283F83020FFF7BEFF7B
:1033A0002046FFF769FCF020FFF750FCF120FFF703
:1033B0004DFC10BD001B002008B50D4B0021D9703D
:1033C00093F8302042F0010283F8302093F8202057
:1033D00061F3000283F82020FFF7A0FF0120FFF730
:1033E0004BFCF020FFF732FCF120FFF72FFC08BD6B
:1033F000001B002008B5044A1379B3FA83F35B0974
:103400001371FFF78BFF08BD001B0020094A002342
:10341000D3609360027863F382020270027863F3F0
:10342000C302027043F6FF7242604FF07E52C260E8
:1034300043807047001B00200B4883690B4A01330F
:1034400003EB430302EB830300215960436903EB61
:10345000430302EB83031972436903EB430302EB5B
:1034600083025172704700BF001B00203C100020F7
:10347000154BDB78DBB2012B0BD0134A0123D37041
:10348000124B197C1170597C517000221A745A74B5
:1034900070470D4B0022DA701B78DBB2012B09D08C
:1034A000094B5B78DBB2012B09D0074B00221A7065
:1034B0005A707047044B1A78044B1A74F0E7024BA9
:1034C0005A78024B5A74F0E7001B0020B402002027
:1034D00038B50F4D00242C706C70EC702C7705F112
:1034E0002000FFF793FF05F13000FFF78FFFFFF794
:1034F000A3FF084B1C6000F01FF9012002F008F93F
:10350000204602F005F9044B01221A7038BD00BFB5
:10351000001B0020B4020020550A002000B583B033
:103520000E480F4B036003F066FC60B90C23009358
:103530000023019310226946084803F06EFC38B955
:1035400003B05DF804FB4921064801F06DF9EDE791
:103550005221044801F068F9F2E700BFB40E0020E0
:103560000074004018E900080268214B9A4200D01C
:10357000704730B587B004460025009503F5E23367
:103580001A6C42F000521A641B6C03F00053009353
:10359000009B2023019303230293039501A915485F
:1035A00003F070FE1448154B03604FF060634360F6
:1035B00040238360C5604FF4806303614FF4006370
:1035C00043614FF4005383614FF48073C3614FF440
:1035D00000330362456203F05DFC20B9064BE360F3
:1035E0009C6307B030BD7921054801F01DF9F5E76E
:1035F0000074004000000240C80E0020A06002409D
:1036000018E9000810B582B0002400941A4B1A6B18
:1036100042F400121A631A6B02F400120092009A2C
:1036200001941A6B42F480021A631B6B03F480034B
:103630000193019B02220121112003F069FB11205B
:1036400003F098FB03220121392003F061FB3920AC
:1036500003F090FB224603213B2003F059FB3B2063
:1036600003F088FB022203213C2003F051FB3C20A5
:1036700003F080FB02B010BD003802402DE9F0419C
:1036800088B005460E4614460020274B1870274B7D
:1036900018700146FEF706FF0C2101A8FFF73CF861
:1036A000019B3360029B2B60039B23602A68002AE6
:1036B00036D0302B34D81E4B00225A601A725A7200
:1036C0002B686BB31A4C16461746DFF8688004E087
:1036D00001360C342B68B34222D927726772FEF789
:1036E000DBFE206010210DEB0100FFF715F8049BB5
:1036F000059901FB03F101EB81014046FFF70CF84E
:103700002B68B342E4D9049BC3EB03134EF660224B
:103710000699B2FBF1F2616802FB03132361D7E75C
:1037200008B0BDE8F08100BF280F00202010002065
:103730003C100020D819002008B5054B00221A774C
:10374000044805F08FFB6420FEF7DAF808BD00BFDF
:10375000001B0020081E002030B485680368446800
:1037600004FB03F40C6003684EF66022B2FBF5F232
:1037700003FB02F34B6048680A68B0FBF2F302FBFC
:1037800013038B604B680A68B3FBF2F3CB6030BC69
:103790007047000038B500230C4A137001EB41025A
:1037A000194650F82200FEF77DFE094D10212846EB
:1037B000FEF7B2FF074C21462846FFF7CDFF2168F0
:1037C00001EB81010448FEF7A7FF38BD280F002058
:1037D000A8190020C8190020D819002030B4856825
:1037E0000E4B1A6C0368446804FB03F40C60036816
:1037F00050194EF66022B2FBF0F203FB02F34B606D
:1038000048680A68B0FBF2F302FB13038B604B6855
:103810000A68B3FBF2F3CB6030BC7047001B00209A
:10382000F8B5314B1B7FDBB2012B00D0F8BD2F4B1D
:103830001B889BB22E4A126851688B424AD22B4B8E
:103840001B889BB2916819B12A490C68052C0FD0CE
:10385000D168B3FBF1F201FB1233002B30D1254BC1
:103860001C6814F1050F1ED8234E1F4F214D0EE08A
:10387000D16892680A44B3FBF2F102FB1133002BCA
:10388000F2D01DE001342B680433A3420BD9336816
:10389000195D0029F6D03B7FDBB2012BF2D101206C
:1038A00001F0C2FDEEE7144B1B68195D21B10E4B10
:1038B0001B7FDBB2012B09D00E4A1368053313605E
:1038C0000A4A138801339BB21380AFE7012001F04D
:1038D000B5FDF1E7094B01221A700023034A13805A
:1038E000044A1360A2E700BF001B0020AA0C0020BE
:1038F0001C100020C81A00203810002020100020C2
:103900000023024A1380024A13607047AA0C002069
:10391000C81A00202DE9F04383B0684C6569002384
:10392000674A1370674A137061696748FFF732FF8F
:10393000FFF7E6FF654805F089FA02236377012364
:1039400023775F4E624F237FDBB2012B3ED162694A
:10395000A36901339A4239D20123E3703378002BF3
:1039600052D1DFF88C91DFF88C8149464046FFF751
:1039700035FF584BC3F80090574BC3F80080574BA6
:10398000574A1A6001F01CF96269A3699A4228D16A
:103990006269DFF8648101325249404607F0ECFA6F
:1039A00040F21D530193002300934F4B4246962152
:1039B0000A20FEF7F7FB434A1378002B4CD1237FF4
:1039C000DBB2032B02D0237F002BF5D1FFF7B4FE2F
:1039D0003A4B5D610022DA705A701A7003B0BDE88C
:1039E000F083DFF8188110214046FEF795FE394636
:1039F0004046FFF7B1FE396801EB81013B48FEF715
:103A00008BFE01233370C3E7DFF8F0803946404670
:103A1000FFF7E4FE2F4B1F602F4BC3F800802F4BA6
:103A2000324A1A606269A3699A42B1D0DFF8C49041
:103A300010214846FEF770FEDFF8B4804146484644
:103A4000FFF78AFED8F8001001EB81012448FEF749
:103A500063FE002333709BE71A4B00221A70237811
:103A6000DBB2012B16D06369013363616269A3691C
:103A700001339A427FF467AF2378DBB2012B19D070
:103A80006561002333700F4A137061690E48FFF7B8
:103A900081FE58E7616994F8202002F0010282F06B
:103AA000010201EB4101084B03EB810313440122A6
:103AB0001A72D8E7014B00221A7087E7001B00201A
:103AC000280F0020201000203C100020081E00209D
:103AD000241000201C10002034100020381000207A
:103AE000D81900204CE90008080000202C0F002005
:103AF000C8190020A81900204C1B0020B81900206C
:103B000000B589B01248134B0360012343600023C2
:103B100083600422C2600361436180228261C361C9
:103B2000036243628362102301930293039304931D
:103B300005930693079301A904F0CCFC10B909B0D2
:103B40005DF804FB5A21044800F06EFEF7E700BF61
:103B5000CC1A0020400100A060E900082E4B1B6831
:103B600003B170472DE9F04186B04FF001082A4BB0
:103B7000C3F8008000240094284B9A6B42EA0802A4
:103B80009A639B6B03EA08030093009B4FF63F0385
:103B90000193022702970394032604960C250595AA
:103BA00001A91F4803F06EFBCDF80480029703942F
:103BB0000496059501A91B4803F064FB48F23313F2
:103BC0000193029703940496059501A9164803F002
:103BD00059FB4FF68373019302970394049605955E
:103BE00001A9124803F04EFB4CF2037301930297B4
:103BF00003940496059501A90D4803F043FB602347
:103C00000193029703940496059501A9094803F0CE
:103C100039FB06B0BDE8F081C80200200038024040
:103C20000014024000080240001802400010024048
:103C3000000C0240000402402DE9F04F8FB0002438
:103C40000194AB4B1A6B42F010021A631A6B02F02C
:103C500010020192019A02941A6B42F004021A6354
:103C60001A6B02F004020292029A03941A6B42F059
:103C700020021A631A6B02F020020392039A049442
:103C80001A6B42F080021A631A6B02F080020492EF
:103C9000049A05941A6B42F001021A631A6B02F03F
:103CA00001020592059A06941A6B42F002021A6309
:103CB0001A6B02F002020692069A07941A6B42F0FF
:103CC00040021A631A6B02F040020792079A0894A6
:103CD0001A6B42F008021A631B6B03F00803089387
:103CE000089B844F01220C21384603F0C3FB224677
:103CF0007021384603F0BEFB224642F216017E4890
:103D000003F0B8FB01224FF4F9617B4803F0B2FBEA
:103D100001224FF4A471794803F0ACFB22468021C4
:103D2000764803F0A7FB012240F20341744803F0F8
:103D3000A1FB224643F22001724803F09BFB22467E
:103D400047F20C01704803F095FB012280216E4878
:103D500003F090FB012218216A4803F08BFB4FF01F
:103D6000040BCDF824B001250A950B9402260C967D
:103D700009A9384603F086FA082309930A950B949B
:103D80000C9509A9384603F07DFA702309930A952A
:103D90000B940C9409A9384603F074FA42F2160306
:103DA00009930A950B940C9409A9534803F06AFAF5
:103DB0004FF488630993554F0A970B9409A9544807
:103DC00003F060FA4FF4816309930A950B940C9603
:103DD00009A9494803F056FA482309930A950B9418
:103DE0000C9609A9454803F04DFA4FF08008CDF82C
:103DF00024800A950B940C9409A9404803F042FAD8
:103E000020230993434B0A930B9409A93A4803F0E2
:103E100039FA40F2034309930A950B940C9609A9C9
:103E2000374803F02FFACDF824B00A940B9409A96F
:103E3000334803F027FA4FF40069CDF824900A962E
:103E40000B940C944FF00E0ACDF834A009A92C481D
:103E500003F018FACDF824900A940B9409A9294884
:103E600003F010FA43F2200309930A950B940C9483
:103E700009A9244803F006FA47F20C0309930A95AE
:103E80000B940C9409A9204803F0FCF940230993F2
:103E90000A960B940C94CDF834A009A91A4803F0A3
:103EA000F1F9CDF824800A950B940C9509A91648D0
:103EB00003F0E8F94FF4707309930A950B940C958D
:103EC00009A90D4803F0DEF94FF4807309930A95B0
:103ED0000B940C9509A9094803F0D4F94FF4C05389
:103EE00009930A960B940C960A230D9314E000BFD5
:103EF000003802400010024000080240000002406A
:103F000000040240000C0240001802400000211092
:103F1000001402400000121009A93F4803F0B2F952
:103F20004FF4004309930A970B9409A93A4803F008
:103F3000A9F9CDF824B00A970B9509A9374803F0E1
:103F4000A1F9182309930A950B940C9609A93348F3
:103F500003F098F9402309930A960B940C94CDF83A
:103F600034A009A92D4803F08DF9CDF824800A97D3
:103F70000B9409A9294803F085F94FF400730993BC
:103F80000A970B9409A9264803F07CF94FF4806343
:103F900009930A940B9509A9214803F073F9CDF808
:103FA0002490204B0A930B9409A91D4803F06AF949
:103FB000102309930A970B9409A91B4803F062F98F
:103FC0004FF4607309930A940B9509A9164803F0FE
:103FD00059F92A462146082002F09AFE082002F0EC
:103FE000C9FE032231460A2002F092FE0A2002F0A6
:103FF000C1FE03223146172002F08AFE172002F08C
:10400000B9FE2A462146282002F082FE282002F02E
:10401000B1FE0FB0BDE8F08F00000240000C02407E
:1040200000180240000011100004024070B5402842
:1040300000F0CE8009D8042855D0102800F09481D3
:10404000012801D1FFF744FA70BDB0F5007F00F000
:10405000FE80B0F5004F20D08028F5D1BB4B1B78F7
:1040600013F0040FF0D143F00403B84A1370B84BB7
:10407000DB68002BE8D0B64B93F8203013F0010F2B
:1040800040F04381B24B93F8303013F0010F40F011
:104090004C81B04B01221A70D6E7AC4B1B7813F061
:1040A000100FD1D143F01003A84A137000F08CF91F
:1040B000A74BDB78DBB2012BA54B0CBF0022012202
:1040C000DA70A34B1B7FDBB2012B08D0A04B1B7F08
:1040D000DBB2032BB8D19E4B01221A77B4E79C4B7D
:1040E00003221A77B0E79A4BDB78002BACD0FEF7AF
:1040F0002FFE40F30F20984B1880954B5B78DBB276
:10410000012B16D0924B1B78DBB2012B9CD1904B2C
:104110001B79002B37D18E4B93F8203003F001032D
:104120008E4901F11002002B08BF1146FEF7E8FE90
:104130008AE7874B1B79D3B9854B93F8203003F07E
:104140000103864901F11002002B08BF1146FEF75A
:10415000A7FF7F4B93F8203003F001037F4800F165
:104160001002002B08BF1046FFF77AF86CE77C4C72
:10417000A4F1100522462946FFF732F821462846C9
:10418000FFF778F860E7764C2246A4F11001FEF7BD
:10419000E3FE54F81C2C14F8101C303C01F0010113
:1041A00002EB42026F4B03EB82030B441B7A012BA1
:1041B0007FF44AAF94F8203003F0010304F12000AB
:1041C00000F11002002B18BF1046FFF749F83BE73B
:1041D0005E4B1B7813F0010F7FF436AF43F0010301
:1041E0005A4A13705A4B1B78DBB2012B3FF42CAFA9
:1041F000574B1B7FDBB2012B3FF426AF544C0025FD
:10420000E570012001F074FA284601F081FA94F873
:10421000203065F3C30384F8203094F8303065F320
:10422000C30384F83030012626706570636903EBA0
:1042300043034C4A02EB83035868FEF719FE60699A
:10424000A169FEF723FEE670424B1E70FCE63F4B71
:104250001B7813F0020F7FF4F7AE43F002033B4AE2
:1042600013703B4B5B78DBB2012B3FF4EDAE384B68
:104270001B7FDBB2012B3FF4E7AE354B0022DA7037
:1042800093F8203013F0010F2BD1314B93F83030DD
:1042900013F0010F2FD1002001F02AFA012001F0C4
:1042A00037FA2B4C012363706069A169FEF7EEFDBC
:1042B00000232370E368002B3FF4C6AE616994F8D5
:1042C000202002F0010282F0010201EB4101254BA6
:1042D00003EB8103134401221A72E2701D4B1A7022
:1042E000B2E61B4A92F820306FF3820382F8203046
:1042F00000235384C9E7164A92F830306FF38203E3
:1043000082F8303000235386C5E7114B93F82030F4
:1043100013F0080F0E4A92F820300CBF43F0080348
:104320006FF3C30382F82030B3E6094B93F83030C3
:1043300013F0080F064A92F830300CBF43F0080320
:104340006FF3C30382F83030A3E600BF560A0020A3
:10435000001B0020550A0020B00E0020201B00206A
:10436000301B00203C1000200A4B1B7813F0080F74
:104370007FF46AAE43F00803064A1370064B5B7F76
:10438000DBB2012B03D0054B01221A705CE6FFF76C
:104390006FF8F8E7560A0020001B0020550A00209D
:1043A00082B0084B1B680020DAB262F30700C3F347
:1043B000072262F30F20C3F3074363F3174002B0F1
:1043C000704700BFD002002008B54FF400410948F3
:1043D00003F04AF8B0FA80F04009074B987007499B
:1043E0000A68C2F3C7021A704A68C2F3C7025A7059
:1043F00008BD00BF00000240D0020020441B002086
:10440000094B1B78DBB2042B01D001207047064B0F
:104410005B78DBB2042B01D001207047024B987807
:10442000003018BF01207047D002002008B5FCF70B
:1044300091FD08BD08B513468AB201461846FCF73F
:10444000EDFD002008BD08B513468AB201461846A6
:10445000FCF7E6FC002008BD00B595B000210191F5
:10446000284B1A6C42F080521A641B6C03F0805384
:104470000193019B0291244B1A6842F440421A6056
:104480001B6803F440430293029B012308934FF4FB
:104490008033099302230E934FF480020F9204227B
:1044A0001092A822119212930723139308A803F0E5
:1044B00001FD20BB0F2303930223049300230593E4
:1044C0004FF4A05306934FF480530793052103A89C
:1044D00003F02AFFA0B903F0D7FF0C4BA3FB003079
:1044E000800902F061FC042002F074FC00221146F5
:1044F0004FF0FF3002F00CFC15B05DF804FBFEE756
:10450000FEE700BF0038024000700040D34D62104B
:1045100070B58CB07A4AD36843F08073D360794B1E
:1045200000245C601A6842F001021A6002F024F86C
:10453000754B5C771C7193F8202042F0010283F8E0
:10454000202093F8202064F3410283F8202093F880
:10455000302064F3000283F8302093F8302064F3B5
:10456000410283F830201C6402251D61FFF774FFAF
:10457000FFF762FBFFF746F801F082FBFFF7C0FA96
:1045800001F0B6FB00F086FF01F0C0FCFEF7DCF99D
:1045900000F0A6FFFEF7C2FF01F0E4FB01F000FD12
:1045A00001F01CFCFEF70CFAFCF71AFC4FF000734C
:1045B000079308944FF4803309930A934FF4807360
:1045C0000B93524B0493524B0593524B0693524814
:1045D00003944FF49063029300F54073019380239A
:1045E0000093034600F1800204A900F52070FCF757
:1045F00019FF0146494806F097FC01F027F9082009
:1046000002F0C4FBFDF71AFD2846FDF739FD4AF21A
:104610005420FDF7B9FB424804F018FC204601F095
:104620002BF8012001F028F80121204601F080F844
:104630003C4804F00BFC3C4802F078F82A463B4921
:104640003B4802F0F7F8FE20FEF700FB0F20FEF7D4
:10465000FDFAFEF773FB01210846FEF73BFB2046FF
:10466000FEF70AFBF020FEF7F1FAF120FEF7EEFA72
:10467000082002F07FFB0320FEF7E8FAFDF728FE92
:1046800000F0B8FE01222146B02000F089FE04218E
:104690001420FDF721FAFDF7D3F9264A21462046DA
:1046A000FDF7D8F9FDF754FF00F0AEF9204600F011
:1046B00035FA21462046FDF715FF0C211E48FDF76F
:1046C000A3FF154C1D4D18E0FDF7AEFD287007E067
:1046D00094F88137012B0BD094F88037002BF3D05E
:1046E00084F880672878FF28F2D000F017FAEFE707
:1046F00000F066FA002384F881370026ECE700BF5B
:10470000F0ED00E0001000E0001B0020474400082E
:10471000354400082D440008D402002094E9000824
:10472000CC1D0020901D0020180E0020441B0020EE
:10473000600E0020A4E90008A8E800086A1B002019
:1047400008B5334B93F8823713F0010F18D1304B73
:1047500093F8823713F0020F20D12D4B93F8823754
:1047600013F0040F29D12A4B93F8823713F0080F66
:1047700031D1274B93F8823713F0100F39D108BD90
:104780004021244802F070FE0128E0D1204A92F82E
:10479000823783F0010382F88237D8E74FF4007143
:1047A0001D4802F061FE0128D7D1194A92F88237DC
:1047B00083F0020382F88237CFE78021174802F0A6
:1047C00053FE0128CFD1124A92F8823783F00403B6
:1047D00082F88237C7E71021114802F045FE012810
:1047E000C7D10B4A92F8823783F0080382F88237E8
:1047F000BFE74FF400410B4802F036FE0128BED15E
:10480000034A92F8823783F0100382F88237B6E7C2
:10481000D40200200014024000180240000C0240A4
:104820000004024000000240FEE700002DE9F041D4
:1048300082B000263C4B5E613C4B1E703C4B1E70B0
:104840003C4A01213046FDF705F931463046FDF777
:1048500049FE304600F04CFF3746374C374DFDF7E8
:10486000E3FC207000284AD02B78DBB2012BF6D174
:10487000002E38D000232B702D4B1E78304B1E4459
:1048800004223049304606F09FFB002837D0DFF87D
:10489000D080D8F800103046FDF7B6FED8F80020DA
:1048A000214E73691A447261DFF8A8803B4626499D
:1048B000404606F061FB40F21D5301930023009334
:1048C000224B424650210A20FDF76CFC7369BB4223
:1048D00015D2174B1B784033DBB2802B0BD0144A18
:1048E00013700126BBE7164B1F68194A01210020EF
:1048F000FDF7B0F8BEE70E4B00221A70F1E700207A
:1049000000F006FF084C0A221249606906F0ACFB71
:104910006369BB420CBF104A104A01210020FDF719
:1049200099F802B0BDE8F081580A0020B4210020B7
:10493000EC200020E4E900086A1B0020A8200020E9
:10494000F020002008EA000810EA00080800002013
:10495000F4E900084C1B002018EA00082CEA0008C3
:10496000702100202DE9F04383B04AF25420FDF776
:104970000BFA00240A251F4EDFF88480DFF88490AC
:1049800018E00020FDF74AFC4346024649461A4813
:1049900006F0F2FA0A2040F21D530193002300931F
:1049A000164B154A2946FDF7FDFB1435ADB201340F
:1049B000102C1CD0E0B296F83032C3EBC30306EBE8
:1049C0008303234493F90430B3F1FF3FEFD0002871
:1049D000D7D0C3EBC30356F82370FDF71FFC3B464B
:1049E00002464946044806F0C7FA1E20D3E703B042
:1049F000BDE8F083700A00204C1B00200800002056
:104A000048EA000840EA000810B500F089FC3A4C7A
:104A10004FF40C724FF0FF31204606F0D4F900231A
:104A200084F83032354A116821602371A36134491A
:104A3000E16134496163916BC4F8A8103249C4F84C
:104A4000C010516BA163314921659168C4F8C4104D
:104A50002F49C4F8DC102F49C4F888112E49C4F836
:104A6000A0111169C4F8FC10C4F814315169C4F8DC
:104A70001811C4F83031116AC4F83411C4F84C313B
:104A80009169C4F85011C4F86831D269C4F86C2136
:104A9000C4F8843184F820300122627184F8AC209B
:104AA000062284F8212084F83C300223A37184F884
:104AB000C830072284F83D2084F88C310E2384F816
:104AC0003E3084F80031092284F88D2184F81C31AD
:104AD0000A2284F88E2184F838310B2284F88F2141
:104AE00084F854310C2284F8902184F870310D231D
:104AF00084F8913110BD00BF700A00206C1B0020AB
:104B000050EA0008BD4F0008C1500008B14F00082E
:104B1000C94F000858EA00085D5200080F2830D835
:104B200038B5184B93F83022C2EBC20203EB820374
:104B3000184490F90430B3F1FF3F21D0DBB2114C9F
:104B400084F83032C3EBC3030F4D54F823102846CA
:104B500006F032FAFCF774FF4AF25420FDF714F91C
:104B60002A4600210846FCF775FFFFF7FBFE94F884
:104B70003032C3EBC30304EB8304A36903B198474A
:104B800038BD7047700A00204C1B002010B582B061
:104B9000084C02460849204606F0EEF90020019034
:104BA0004FF6E0730093054B2246DD21FDF7FAFA3C
:104BB00002B010BD4C1B002064EA00080800002071
:104BC00070B588B0474B93F8202093F8203003F05D
:104BD0000103454D454A002B08BF15461446424A7D
:104BE000002B08BF14463F4B1B7813B93D4B5B7835
:104BF000DBB13C4B1B78DBB2012B38D0394B93F83F
:104C0000203013F0080F3BD1364B93F8303013F0BF
:104C1000080F35D1334B5B78DBB2012B35D1344AE9
:104C20006B4607CA03C31A802FE06D46314B0FCB8A
:104C300085E80F002846FCF779F82146284406F05D
:104C40009BF9284B1B79DBB2012B03D06846FFF799
:104C50009DFF29E06846FCF769F802460DEB00016C
:104C6000254B18684DF802009B888B80EEE7234A9D
:104C70006B4607CA03C323F8022B120C1A7004E018
:104C80001F4B6E460FCB07C633706846FCF74EF8D5
:104C90002146684406F070F9124B1B79DBB2012BF8
:104CA00004D06846FFF772FF08B070BD0D4BDB689B
:104CB000002BF6D06846FCF739F804460DEB0002ED
:104CC000104B03CB4DF80400516019889B7811817B
:104CD00093726846FCF72AF82946684406F04CF9B6
:104CE000DFE700BF001B00206CEA000870EA000844
:104CF000A8EA000874EA000884EA00088CEA0008C0
:104D000098EA0008B4EA00080EB42DE9F04384B034
:104D10000BAB13F8044B0393C8B106460025DFF82C
:104D2000389040F21D584FF47847039B1A1D0392A8
:104D30001A68CDF8048000974B4621460A20FDF7FB
:104D400031FA0135EDB21434E4B2AE42EDD104B023
:104D5000BDE8F04303B070470800002010B5054CD3
:104D6000FDF762FA002814BF012300232370F7D156
:104D700010BD00BF6A1B00202DE9F04F85B08246B0
:104D80008B4601252E46DFF82492814C86E00023D5
:104D90008BF8003005B0BDE8F08F636913B163692B
:104DA000013B636162697B4D01327B49284606F015
:104DB000E3F87A4E40F21D58CDF8048000270097A2
:104DC00033462A46AA210A20FDF7ECF9A2690132EE
:104DD0007349284606F0D0F8CDF804800097334692
:104DE0002A46BE210A20FDF7DDF9012555E062695A
:104DF000A3699A42D6D2636901336361D2E7012382
:104E00008BF80030C6E7A26963699A4222D9A36988
:104E1000013BA3611EE0A2690AF1FF339A4219D255
:104E2000A3690133A36115E000F0E8F8FFF79AFDEC
:104E3000FFF7C6FE0CE02378DBB2012B56D0637877
:104E4000DBB2012B52D0FFF7DBFA012852D026B398
:104E5000002DA7D162694F4E01325249304606F00B
:104E60008BF84E4F40F21D58CDF804800025009578
:104E70003B463246AA210A20FDF794F9A269013285
:104E80004949304606F078F8CDF8048000953B4655
:104E90003246BE210A20FDF785F90026FDF7C4F948
:104EA00089F80000FF28C6D00D28D1D801A353F8F7
:104EB00020F000BF8F4D00089B4D0008EF4D00080B
:104EC000FF4D0008074E0008174E0008514E00081D
:104ED000514E0008514E0008514E0008514E000836
:104EE000514E0008294E0008294E000801238BF876
:104EF00000304FE7FFF754FA8DF80C00C0F307239A
:104F00008DF80D30C0F307408DF80E00042B29D921
:104F100005BBA2690AF1FF339A4202D2A3690133A9
:104F2000A3619DF80E30012B92D1237FDBB2022BBF
:104F300001D0237F13B99BF800302BB3237FDBB262
:104F4000022B85D19BF80030012B81D100238BF8F7
:104F500000307DE76269A3699A42E2D26369013356
:104F60006361DEE7032BDCD83DB9A26963699A422D
:104F7000D7D9A369013BA361D3E76369002BD0D0E4
:104F80006369013B6361CCE701238BF8003001E7E3
:104F9000001B00204C1B0020F8EA0008080000203D
:104FA00008EB000814EB000824EB00086A1B002043
:104FB000014B02225A777047001B0020014B01224F
:104FC0005A777047001B002010B5084C0723637701
:104FD000074B084A6E210220FFF796FEFFF726FCDA
:104FE00000236377044B01221A7010BD001B0020C0
:104FF00034EB00084CEB0008540A002010B50446BE
:105000002E4B5B78DBB2012B09D02C4B1B78DBB22B
:10501000012B04D00C2C05D00D2C29D010BDFEF78F
:1050200027FAF7E7254B93F8203013F0010F05D14D
:10503000224B93F8303013F0010F12D11F4B93F82D
:10504000203013F0010FE9D01C4B93F8303013F0EF
:10505000010FE3D1194B1B7933B90120FEF7CAF9CF
:10506000DCE7FEF78BF9D9E70020FEF7C3F9D5E7B7
:10507000124B93F8203013F0010F12D10F4B93F81D
:10508000203013F0010FC9D10C4B93F8303013F0DE
:10509000010FC3D0094B1B7963B10020FEF7AAF9B9
:1050A000BCE7064B93F8303013F0010FE6D1FEF762
:1050B00083F9B3E70120FEF79DF9AFE7001B00205D
:1050C0002DE9F04182B05B4B01225A7700225A61F0
:1050D0009A61FDF7A9F80228FBD0574D01242C70E6
:1050E000FFF76EFD00232B70544B0093544B554A31
:1050F0001E210320FFF708FE4E4B5A69524D2244F1
:105100005249284605F038FF2A4682212046FFF7FB
:10511000FBFD4F4DDFF820815DE0464B0022DA7049
:105120005A701A705B6903EB43034A4A02EB83032C
:105130005B6833B13F4B5A69013A5A619A69013A47
:105140009A613E4B00933E4B3E4A1E210320FFF7DF
:10515000DBFD384F7A693D4E3B4C013231462046EB
:1051600005F00AFF224682210120FFF7CDFD7A6972
:1051700001323146204605F0FFFE22468221012001
:10518000FFF7C2FD012388F80030FFF719FD002367
:1051900088F800301FE0274B0022DA705A701A702E
:1051A0009B69013303EB43032A4A02EB83035B68E9
:1051B000002BC6D01F4B5A6901325A619A690132DD
:1051C0009A61BEE7FFF71AFF2B78FF2BB9D198F849
:1051D0000030012BD9D0FDF727F828700D28F3D81F
:1051E00001A353F820F000BF275200081B5100080C
:1051F0009751000821520008C9510008C951000800
:10520000C9510008C9510008C9510008C951000816
:10521000C9510008C9510008C5510008C55100080E
:10522000FEF726F9D0E70C4B01221A7002B0BDE858
:10523000F08100BF001B0020550A002098EB0008F9
:1052400068EB000880EB00084C1B0020B0EB000866
:105250006A1B00203C100020540A002030B585B0A5
:1052600000218DF80310294B1960294C0223637724
:1052700040F66C12274805F0A6FD01AA02A903A872
:10528000FEF7FCF904F1180104F11400FDF7F6FD36
:10529000039BCBB1C82B27D8019B302B2DD81C4D9D
:1052A0004FF002042C77FFF78BFC0DF103010398FC
:1052B000FFF762FD9DF8033073B1FEF72BFB9DF8FD
:1052C0000330002BEED107E0134B5A6A82210120F4
:1052D000FFF71AFDFFF742FD0D4B00221A770F4B27
:1052E00001221A7005B030BD0B4B9A6A962101203D
:1052F000FFF70AFDFFF732FDEEE7074BDA6A96216A
:105300000120FFF701FDFFF729FDE5E7C0020020BE
:10531000001B00203C1000206C1B0020540A0020C1
:105320000F4B104A1A60104A5A60104A9A60104A8D
:10533000DA60104A1A61104A5A61104A9A61104A9A
:10534000DA61104A1A62104A5A62104A9A62104A86
:10535000DA62104A1A63104A5A63104A9A63704715
:105360006C1B0020C4EB000848EA0008D8EB0008DA
:10537000E8EB0008FCEB00080CEC000820EC00084F
:1053800030EC000844EC000854EC000868EC00081D
:105390007CEC000890EC0008A0EC0008B4EC0008DD
:1053A00010B582B08DF807008DF806108DF8052035
:1053B0000F4C642301220DF10701204604F0BAF9D5
:1053C000642301220DF10601204604F0B3F99DF893
:1053D000073003F0F003B02B01D902B010BD6423F5
:1053E00001220DF10501204604F0A4F9F5E700BF04
:1053F000441E002010B50B4C00220821204602F06C
:1054000039F86420FCF77CFA01220821204602F0DA
:1054100031F86420FCF774FA78220721B020FFF7F6
:10542000BFFF10BD0010024008B501284FF03C023C
:105430000CBF99208920FFF7B3FF08BD38B505469A
:105440000C4600222221C020FFF7AAFF012D4FF0B9
:105450003C0221460CBF90208020FFF7A1FF38BD01
:1054600070B50B4C251D012601E0AC4207D014F8A5
:10547000011B0029F9D03046FFF7D6FFF5E7044BB2
:10548000197901B970BD0120FFF7D8FFFAE700BF15
:10549000AC20002008B50F480F4B03604FF4827317
:1054A000436000238360C3600361012242614FF4C3
:1054B000007282610822C2610362436283620A232E
:1054C000C36203F035F900B908BD53210348FFF763
:1054D000ABF9F9E79C1C0020003C0040C0EC000840
:1054E00008B50F480F4B03604FF4827343600023ED
:1054F0008360C360036143614FF4007282611022D4
:10550000C2610362436283620A23C36203F010F93B
:1055100000B908BD69210448FFF786F9F9E700BF23
:10552000E41B002000500140C0EC0008F0B589B039
:105530000368464A934205D00446454A934226D022
:1055400009B0F0BD00240194424B1A6C42F40042B1
:105550001A641B6C03F400430193019B4FF4C05386
:1055600003930227049705940326069606250795BC
:1055700003A9394801F086FE082303930497059494
:105580000696079503A9354801F07CFED8E700256B
:105590000295304B5A6C42F480125A645B6C03F4EF
:1055A00080130293029B4FF46073039302230493CE
:1055B000059506930523079303A9294801F062FE88
:1055C0002848294B03604FF0806343608560C560C5
:1055D0004FF48063036145618561C5614FF4803399
:1055E0000362042343628562C562056301F052FCD5
:1055F00008BB1C4BE3649C631C481D4B03604FF0CD
:1056000080634360402383600023C3604FF4806263
:10561000026143618361C3614FF4803202620422FC
:1056200042628362C362036301F034FC40B90F4BF2
:10563000A3649C6384E7B6210E48FFF7F5F8D8E72A
:10564000CB210C48FFF7F0F8F1E700BF003C004029
:1056500000500140003802400008024000040240AF
:10566000001402403C1C002058640240F41C00203E
:1056700070640240C0EC000830B589B0034670B1D8
:10568000012818D100220292164A116B41F0400104
:105690001163126B02F040020292029A0BE00022A8
:1056A0000192104A116B41F040011163126B02F03C
:1056B00040020192019A0C4A32F8135003950122DC
:1056C0000492059202220692084C04EB830403A97B
:1056D000606801F0D7FD00222946606801F0CAFE2B
:1056E00009B030BD00380240B8E800083C00002096
:1056F00008B5054B03EB80030122044931F8101073
:10570000586801F0B7FE08BD3C000020B8E800086A
:1057100008B5054B03EB80030022044931F8101053
:10572000586801F0A7FE08BD3C000020B8E800085A
:1057300030B587B0044658B900230093194B1A6B53
:1057400042F001021A631B6B03F001030093009BFC
:1057500019B1012910D007B030BD012301930023F6
:1057600002930223039304930F4B03EB840401A9D8
:10577000E06801F087FDEEE7012301930025039522
:105780000A4B0293084B03EB840401A9E06801F083
:1057900079FD02222946062001F0BAFA062001F01E
:1057A000E9FAD8E7003802403C0000200000111060
:1057B0002DE9F04782B082464FF00008CDF8048012
:1057C000214C0126266008276760A660C4F80C807B
:1057D00004F110054FF6FF722146284602F01EFF25
:1057E0003046FCF78DF8022323606760A660C4F89A
:1057F0000C804FF6FF722146284602F00FFF03236C
:10580000236067604FF00409C4F80890C4F80C8066
:105810004FF6FF722146284602F000FF4FF40C734A
:105820000193C4F800906760A660019BE3604FF6A7
:10583000FF722146284602F0F1FE5146284602F04A
:1058400006FF02B0BDE8F087AC0C00202DE9F04364
:105850008FB0724C724B2361022767640723A364E5
:105860004FF00408C4F84C8023656765A765E765B9
:105870004FF00109C4F814900025A561C4F81C80FC
:1058800010232362402363624FF4C073A362E56276
:105890004FF40063236365634FF40053A3630195E2
:1058A000604B9A6B42EA09029A639A6B02EA090218
:1058B0000192019A02951A6B42F480021A631A6BE4
:1058C00002F480020292029A03951A6B3A431A6319
:1058D0001A6B3A400392039A04951A6B42EA080243
:1058E0001A631A6B02EA08020492049A05951A6B6D
:1058F00042F008021A631A6B02F008020592059A38
:1059000006951A6B42F010021A631A6B02F010022D
:105910000692069A07951A6B42F020021A631A6BD8
:1059200002F020020792079A08951A6B42F0400293
:105930001A631B6B03F040030893089B0A970C97AC
:105940000B950C230D930EAE602346F8143D3146A3
:10595000354801F097FCCDF824903146334801F0EA
:1059600091FC4CF2037309933146314801F08AFCF3
:105970004FF68373099331462E4801F083FC4FF6AE
:105980003F03099331462C4801F07CFC48F2331365
:1059900009933146294801F075FC65668023A366AA
:1059A0004FF40073E3664FF4806323674FF4805332
:1059B00063674FF48043A367E5674FF44033C4F84F
:1059C0008030C4F884804FF00308C4F88880C4F89D
:1059D0008C50C4F890502546194B45F8603F25641B
:1059E00004F11006C4F89860284601F0E7FA28464A
:1059F00001F050FA42463946382001F089F9382042
:105A000001F0B8F904F14401304602F063FD40F2C0
:105A10006A50FFF7CDFE0FB0BDE8F083AC0C00205C
:105A2000400100A00038024000040240000802408B
:105A3000000C024000100240001402400018024016
:105A40001064024008B513460A460146014802F0B8
:105A5000AAFD08BDBC0C002008B513460A46014645
:105A6000014802F056FD08BDBC0C0020F8B5054603
:105A70000E461746054C204602F0BBFD3B4632461B
:105A80002946204602F06BFDF8BD00BFBC0C00208B
:105A900010B582B000240094254B5A6C42F4804229
:105AA0005A645A6C02F480420092009A01941A6C73
:105AB00042F080521A641B6C03F080530193019BE7
:105AC000052001F013F9224621466FF00B0001F08A
:105AD0001FF9224621466FF00A0001F019F922460B
