:020000040800F2
:10000000000003200935000859350008593500085B
:10001000593500085935000859350008000000001E
:1000200000000000000000000000000065880008DB
:10003000593500080000000067880008698800083A
:1000400059350008758800085935000859350008E9
:100050005935000859350008A589000859350008A8
:100060007D88000859350008878800085935000840
:100070005935000859350008593500085935000828
:100080005935000891880008A188000859350008F2
:10009000593500085935000859350008B988000855
:1000A000D18800085935000859350008593500082D
:1000B000E588000859350008F98800085935000816
:1000C00059350008593500085935000859350008D8
:1000D00059350008593500085935000859350008C8
:1000E0000D890008593500085935000859350008B0
:1000F0002989000859350008593500085935000884
:100100005935000859350008593500085935000897
:100110005935000859350008593500085935000887
:1001200059350008658900085935000875890008A7
:1001300085890008593500085935000859350008E7
:100140005935000859350008593500085935000857
:100150005935000859350008593500085935000847
:100160005935000859350008593500085935000837
:10017000593500089589000859350008000000002D
:100180005935000859350008593500085935000817
:100190005935000859350008593500085935000807
:0C01A00059350008593500085935000891
:1001B00010B5054C237833B9044B13B10448AFF3A1
:1001C00000800123237010BDCC020020000000003D
:1001D00040E8000808B5034B1BB103490348AFF3DF
:1001E000008008BD00000000D002002040E80008A8
:1001F00081F0004102E000BF83F0004330B54FEAD8
:1002000041044FEA430594EA050F08BF90EA020F44
:100210001FBF54EA000C55EA020C7FEA645C7FEAD7
:10022000655C00F0E2804FEA5454D4EB5555B8BFFA
:100230006D420CDD2C4480EA020281EA030382EA6B
:10024000000083EA010180EA020281EA0303362DFD
:1002500088BF30BD11F0004F4FEA01314FF4801CD0
:100260004CEA113102D0404261EB410113F0004FE2
:100270004FEA03334CEA133302D0524263EB430399
:1002800094EA050F00F0A780A4F10104D5F1200E37
:100290000DDB02FA0EFC22FA05F2801841F1000192
:1002A00003FA0EF2801843FA05F359410EE0A5F166
:1002B00020050EF1200E012A03FA0EFC28BF4CF097
:1002C000020C43FA05F3C01851EBE37101F000454D
:1002D00007D54FF0000EDCF1000C7EEB00006EEB5A
:1002E0000101B1F5801F1BD3B1F5001F0CD34908E4
:1002F0005FEA30004FEA3C0C04F101044FEA44523B
:1003000012F5800F80F09A80BCF1004F08BF5FEAC1
:10031000500C50F1000041EB045141EA050130BDA1
:100320005FEA4C0C404141EB010111F4801FA4F144
:100330000104E9D191F0000F04BF01460020B1FA99
:1003400081F308BF2033A3F10B03B3F120020CDAD1
:100350000C3208DD02F1140CC2F10C0201FA0CF0AF
:1003600021FA02F10CE002F11402D8BFC2F1200C14
:1003700001FA02F120FA0CFCDCBF41EA0C019040CA
:10038000E41AA2BF01EB0451294330BD6FEA040413
:100390001F3C1CDA0C340EDC04F11404C4F12002FE
:1003A00020FA04F001FA02F340EA030021FA04F310
:1003B00045EA030130BDC4F10C04C4F1200220FA67
:1003C00002F001FA04F340EA0300294630BD21FAA5
:1003D00004F0294630BD94F0000F83F4801306BF6B
:1003E00081F480110134013D4EE77FEA645C18BF5F
:1003F0007FEA655C29D094EA050F08BF90EA020FF6
:1004000005D054EA000C04BF1946104630BD91EAED
:10041000030F1EBF0021002030BD5FEA545C05D1F0
:100420004000494128BF41F0004130BD14F580042F
:100430003CBF01F5801130BD01F0004545F0FE41A3
:1004400041F470014FF0000030BD7FEA645C1ABFD8
:10045000194610467FEA655C1CBF0B46024650EA0F
:10046000013406BF52EA033591EA030F41F400213B
:1004700030BD00BF90F0000F04BF0021704730B5C1
:100480004FF4806404F132044FF000054FF0000196
:1004900050E700BF90F0000F04BF0021704730B557
:1004A0004FF4806404F1320410F0004548BF40422C
:1004B0004FF000013EE700BF42004FEAE2014FEA81
:1004C00031014FEA02701FBF12F07F4393F07F4F5C
:1004D00081F06051704732F07F4208BF704793F05F
:1004E0007F4F04BF41F40021704730B54FF4607472
:1004F00001F0004521F000411CE700BF50EA010275
:1005000008BF704730B54FF000050AE050EA01021D
:1005100008BF704730B511F0004502D5404261EB8D
:1005200041014FF4806404F132045FEA915C3FF4CE
:10053000D8AE4FF003025FEADC0C18BF03325FEA6B
:10054000DC0C18BF033202EBDC02C2F1200300FA1C
:1005500003FC20FA02F001FA03FE40EA0E0021FA41
:1005600002F11444BDE600BF70B54FF0FF0C4CF42F
:10057000E06C1CEA11541DBF1CEA135594EA0C0FE1
:1005800095EA0C0F00F0DEF82C4481EA030621EA1C
:100590004C5123EA4C5350EA013518BF52EA033557
:1005A00041F4801143F4801338D0A0FB02CE4FF009
:1005B0000005E1FB02E506F00042E0FB03E54FF039
:1005C0000006E1FB03569CF0000F18BF4EF0010E31
:1005D000A4F1FF04B6F5007F64F5407404D25FEA2D
:1005E0004E0E6D4146EB060642EAC62141EA5551E0
:1005F0004FEAC52040EA5E504FEACE2EB4F1FD0C22
:1006000088BFBCF5E06F1ED8BEF1004F08BF5FEA9F
:10061000500E50F1000041EB045170BD06F0004651
:1006200046EA010140EA020081EA0301B4EB5C04FE
:10063000C2BFD4EB0C0541EA045170BD41F48011F6
:100640004FF0000E013C00F3AB8014F1360FDEBF1B
:10065000002001F0004170BDC4F10004203C35DAF7
:100660000C341BDC04F11404C4F1200500FA05F37A
:1006700020FA04F001FA05F240EA020001F000421B
:1006800021F0004110EBD37021FA04F642EB060191
:100690005EEA430E08BF20EAD37070BDC4F10C04BB
:1006A000C4F1200500FA04F320FA05F001FA04F27F
:1006B00040EA020001F0004110EBD37041F100016B
:1006C0005EEA430E08BF20EAD37070BDC4F1200576
:1006D00000FA05F24EEA020E20FA04F301FA05F2DE
:1006E00043EA020321FA04F001F0004121FA04F286
:1006F00020EA020000EBD3705EEA430E08BF20EA56
:10070000D37070BD94F0000F0FD101F0004640008F
:1007100041EB010111F4801F08BF013CF7D041EA11
:10072000060195F0000F18BF704703F00046520015
:1007300043EB030313F4801F08BF013DF7D043EAE6
:100740000603704794EA0C0F0CEA135518BF95EA9C
:100750000C0F0CD050EA410618BF52EA4306D1D123
:1007600081EA030101F000414FF0000070BD50EA42
:10077000410606BF1046194652EA430619D094EACC
:100780000C0F02D150EA013613D195EA0C0F05D1B6
:1007900052EA03361CBF104619460AD181EA03010A
:1007A00001F0004141F0FE4141F470014FF00000C2
:1007B00070BD41F0FE4141F4780170BD70B54FF05D
:1007C000FF0C4CF4E06C1CEA11541DBF1CEA1355DD
:1007D00094EA0C0F95EA0C0F00F0A7F8A4EB0504BF
:1007E00081EA030E52EA03354FEA013100F08880B6
:1007F0004FEA03334FF0805545EA131343EA12637F
:100800004FEA022245EA111545EA10654FEA002633
:100810000EF000419D4208BF964244F1FD0404F5EC
:10082000407402D25B084FEA3202B61A65EB030548
:100830005B084FEA32024FF480104FF4002CB6EB05
:10084000020E75EB030E22BFB61A754640EA0C0085
:100850005B084FEA3202B6EB020E75EB030E22BFC5
:10086000B61A754640EA5C005B084FEA3202B6EB06
:10087000020E75EB030E22BFB61A754640EA9C00C5
:100880005B084FEA3202B6EB020E75EB030E22BF95
:10089000B61A754640EADC0055EA060E18D04FEA53
:1008A000051545EA16754FEA06164FEAC30343EAF3
:1008B00052734FEAC2025FEA1C1CC0D111F4801FC0
:1008C0000BD141EA00014FF000004FF0004CB6E7B9
:1008D00011F4801F04BF01430020B4F1FD0C88BF58
:1008E000BCF5E06F3FF6AFAEB5EB030C04BFB6EB63
:1008F000020C5FEA500C50F1000041EB045170BD56
:100900000EF0004E4EEA113114EB5C04C2BFD4EB82
:100910000C0541EA045170BD41F480114FF0000E06
:10092000013C90E645EA060E8DE60CEA135594EA82
:100930000C0F08BF95EA0C0F3FF43BAF94EA0C0F85
:100940000AD150EA01347FF434AF95EA0C0F7FF4FA
:1009500025AF104619462CE795EA0C0F06D152EA4E
:1009600003353FF4FDAE1046194622E750EA410632
:1009700018BF52EA43067FF4C5AE50EA41047FF443
:100980000DAF52EA43057FF4EBAE12E74FEA4102A6
:10099000B2F1E04324BFB3F5001CDCF1FE5C0DD9DD
:1009A00001F0004C4FEAC0024CEA5070B2F1004F27
:1009B00040EB830008BF20F00100704711F0804F2A
:1009C00021D113F13872BCBF01F00040704741F4EF
:1009D00080114FEA5252C2F11802C2F1200C10FAF3
:1009E0000CF320FA02F018BF40F001004FEAC123D7
:1009F0004FEAD32303FA0CFC40EA0C0023FA02F37B
:100A00004FEA4303CCE77FEA625307D150EA013350
:100A10001EBF4FF0FE4040F44000704701F0004020
:100A200040F0FE4040F40000704700BF53B94AB99F
:100A3000002908BF00281CBF4FF0FF314FF0FF30E6
:100A400000F072B9ADF1080C6DE904CE00F006F8C3
:100A5000DDF804E0DDE9022304B070472DE9F0473A
:100A6000089E04468846002B4BD18A42154667D91A
:100A7000B2FA82F24AB1C2F1200701FA02F320FA77
:100A800007F7954047EA030894404FEA154E230CB8
:100A9000B8FBFEF71FFA85FC0EFB178843EA0843F4
:100AA00007FB0CF1994209D9EB1807F1FF3080F0F0
:100AB0001B81994240F21881023F2B445B1AA4B279
:100AC000B3FBFEF00EFB103344EA034400FB0CFCC6
:100AD000A44509D92C1900F1FF3380F00781A44502
:100AE00040F2048102382C4440EA0740A4EB0C0495
:100AF00000271EB1D4400023C6E900433946BDE8B3
:100B0000F0878B4209D9002E00F0EB800027C6E960
:100B1000000138463946BDE8F087B3FA83F7002F65
:100B200047D18B4202D3824200F2FA80841A61EBF1
:100B3000030301209846002EE0D0C6E90048DDE717
:100B400002B9FFDEB2FA82F2002A40F08F80491B20
:100B50004FEA154E1FFA85F80127B1FBFEFC230C66
:100B60000EFB1C1143EA014308FB0CF1994207D923
:100B7000EB180CF1FF3002D2994200F2CD8084468E
:100B8000591AA3B2B1FBFEF00EFB101443EA044461
:100B900008FB00F8A04507D92C1900F1FF3302D259
:100BA000A04500F2B6801846A4EB080440EA0C40C9
:100BB0009FE7C7F1200CBB4022FA0CFE4EEA030E61
:100BC00001FA07F420FA0CF521FA0CF34FEA1E485B
:100BD0002543B3FBF8F92C0C08FB19331FFA8EFAE6
:100BE00044EA034309FB0AF49C4202FA07F200FAC2
:100BF00007F10BD91EEB030309F1FF3080F087806A
:100C00009C4240F28480A9F1020973441B1BADB2DF
:100C1000B3FBF8F008FB103345EA034400FB0AFA83
:100C2000A24508D91EEB040400F1FF336BD2A245A4
:100C300069D90238744440EA0940A0FB0289A4EB58
:100C40000A044C45C2464B4654D351D0002E69D0BD
:100C5000B1EB0A0564EB030404FA0CFCFD40FC4014
:100C60004CEA0505C6E90054002747E7C2F1200316
:100C700020FA03F7954001FA02F021FA03F34FEA54
:100C8000154E3843010CB3FBFEF71FFA85F80EFB37
:100C9000173341EA034107FB08F38B4204FA02F4DD
:100CA00007D9691807F1FF3C2FD28B422DD9023F9B
:100CB0002944CB1A81B2B3FBFEF00EFB103341EA9C
:100CC000034100FB08F38B4207D9691800F1FF3C90
:100CD00017D28B4215D902382944C91A40EA07476E
:100CE0003BE73746304609E70746E7E61846FBE6A6
:100CF0004145ABD2B8EB020A69EB0E02013813464C
:100D0000A4E76046E9E7184695E76746D1E78146DC
:100D10007CE702382C4447E7ACF1020C2B442FE768
:100D2000384608E73746E9E6704700BF034613F840
:100D3000012B002AFBD1181A01387047000000006F
:100D400001F0FF01102A2BDB10F0070F08D010F87C
:100D5000013B013A8B422DD010F0070F42B3F6D180
:100D6000F0B441EA012141EA014122F007047FF099
:100D700000070023F0E80256083C85EA010586EAF0
:100D8000010685FA47F5A3FA87F586FA47F6A5FA2C
:100D900087F68EB9EED1F0BC01F0FF0102F0070238
:100DA00032B110F8013B013A83EA010313B1F8D1E3
:100DB0000020704701387047002D06BF35460338C4
:100DC000073815F0010F07D1013015F4807F02BFFD
:100DD000013015F4C03F0130F0BC0138704700BF4E
:100DE00001207047012070470120704701207047A3
:100DF0000120704701207047012070470120704793
:100E00000120704701207047012070470120704782
:100E100001207047012070470120704708B500EBA2
:100E200080008300034AD3580BB1984708BD0420C3
:100E3000FCE700BF0000002008B500EB8000820046
:100E4000034B13445B680BB1984708BD0420FCE7D3
:100E5000000000207BB138B51C4600EB8000850007
:100E6000074B2B441D6945B12346144608461A46D4
:100E70002146A84738BD042070470420FAE700BF88
:100E8000000000207BB138B51C4600EB80008500D7
:100E9000074B2B44DD6845B12346144608461A46E5
:100EA0002146A84738BD042070470420FAE700BF58
:100EB0000000002010B50C4600EB80008100054BBF
:100EC0000B449B681BB111462046984710BD042077
:100ED000FCE700BF00000020004870470000FC4213
:100EE00008B502F03BFB01220821034809F00FFB83
:100EF0000A2002F099FB08BD0008024008B50B4625
:100F0000FF220146014802F0FFFC08BD00500140ED
:100F100008B50A460146024802F0D4FC08BD00BFED
:100F200000500140164B186005E00020FF2822D039
:100F3000134B1B68FBB1134B1B6813F0400FF4D02D
:100F4000104B9B6813F0020FFAD00E4B9B6813F006
:100F5000800FF5D10B4BFF22DA600A4B9B6813F030
:100F6000010FFAD0074B9B6813F0800FF5D1054BAA
:100F7000D868C0B2DAE7FF2814BF0020012070470C
:100F8000340300200050014008B501220821114817
:100F900009F0BDFA104B1B6813F0400F18D00E4B30
:100FA0009B6813F0020FFAD00B4B9B6813F0800F75
:100FB000F5D1094BFF22DA60074B9B6813F0010F54
:100FC000FAD0054B9B6813F0800FF5D1024BDB681C
:100FD00008BD00BF000802400050014010B50022CB
:100FE0000821164809F093FA154B1B6813F0400FBF
:100FF00018D0134B9B6813F0020FFAD0104B9B686C
:1010000013F0800FF5D10E4BFF22DA600C4B9B687A
:1010100013F0010FFAD00A4B9B6813F0800FF5D143
:10102000074BDB684FF4FA70FFF77CFF044610B102
:101030000124204610BDFFF7A7FFFAE70008024091
:101040000050014008B5374BC8221A6005E0002364
:10105000FF2B22D1334A1268FAB1334B1B6813F0CD
:10106000400FF4D0304B9B6813F0020FFAD02E4B98
:101070009B6813F0800FF5D12B4BFF22DA602A4BCF
:101080009B6813F0010FFAD0274B9B6813F0800F79
:10109000F5D1254BDB68DBB2DAE7FE2B01D000206F
:1010A00008BDFFF72BFF204B1B6813F0400F18D033
:1010B0001D4B9B6813F0020FFAD01B4B9B6813F07B
:1010C000800FF5D1184BFF22DA60174B9B6813F0A5
:1010D000010FFAD0144B9B6813F0800FF5D1124B1F
:1010E000DB68114B1B6813F0400F18D00E4B9B6848
:1010F00013F0020FFAD00C4B9B6813F0800FF5D160
:10110000094BFF22DA60084B9B6813F0010FFAD0FD
:10111000054B9B6813F0800FF5D1034BDB68012072
:10112000BEE700BF340300200050014038B505463B
:101130000C464FF4FA70FFF7F5FE034608B918465F
:1011400038BD454B1B6813F0400F17D0424B9B68CE
:1011500013F0020FFAD0404B9B6813F0800FF5D1CB
:101160003D4BDC603C4B9B6813F0010FFAD03A4BCF
:101170009B6813F0800FF5D1374BDB68FD2C67D0EF
:101180004FF400712846FFF7C3FE334B1B6813F082
:10119000400F18D0304B9B6813F0020FFAD02E4B43
:1011A0009B6813F0800FF5D12B4BFF22DA602A4B9E
:1011B0009B6813F0010FFAD0274B9B6813F0800F48
:1011C000F5D1254BDB68244B1B6813F0400F18D07A
:1011D000214B9B6813F0020FFAD01F4B9B6813F052
:1011E000800FF5D11C4BFF22DA601B4B9B6813F07C
:1011F000010FFAD0184B9B6813F0800FF5D1164BF6
:10120000DB68154B1B6813F0400F1FD0124B9B6817
:1012100013F0020FFAD0104B9B6813F0800FF5D13A
:101220000D4BFF22DA600C4B9B6813F0010FFAD0D4
:10123000094B9B6813F0800FF5D1074BDB68DBB2DD
:1012400003F01F03052B05D0002378E70023F7E701
:10125000012374E7012372E70050014038B50446CA
:101260000D4610F0800F40F0C7800C2C06D0FFF721
:101270008BFEFFF7B3FE002800F0128144F040021D
:10128000884B1B6813F0400F17D0864B9B6813F0F8
:10129000020FFAD0834B9B6813F0800FF5D1814B7E
:1012A000DA60804B9B6813F0010FFAD07D4B9B688E
:1012B00013F0800FF5D17B4BDB682A0E794B1B684E
:1012C00013F0400F17D0774B9B6813F0020FFAD042
:1012D000744B9B6813F0800FF5D1724BDA60714B41
:1012E0009B6813F0010FFAD06E4B9B6813F0800FD0
:1012F000F5D16C4BDB68C5F307426A4B1B6813F0F2
:10130000400F17D0674B9B6813F0020FFAD0654B64
:101310009B6813F0800FF5D1624BDA60614B9B68DC
:1013200013F0010FFAD05F4B9B6813F0800FF5D1DB
:101330005C4BDB68C5F307225A4B1B6813F0400F68
:1013400017D0584B9B6813F0020FFAD0554B9B688F
:1013500013F0800FF5D1534BDA60524B9B6813F0BA
:10136000010FFAD04F4B9B6813F0800FF5D14D4B16
:10137000DB68EDB24B4B1B6813F0400F17D0494BA5
:101380009B6813F0020FFAD0464B9B6813F0800F56
:10139000F5D1444BDD60434B9B6813F0010FFAD04D
:1013A000404B9B6813F0800FF5D13E4BDB6864B374
:1013B0000122082C2BD03B4B1B6813F0400F17D099
:1013C000384B9B6813F0020FFAD0364B9B6813F032
:1013D000800FF5D1334BDA60324B9B6813F0010F6D
:1013E000FAD0304B9B6813F0800FF5D12D4BDB68A2
:1013F0000C2C0ED00A2233E000F07F0400213720AD
:10140000FFF72CFF01284CD82FE79522D1E7872240
:10141000D1E7244B1B6813F0400FEBD0214B9B68A6
:1014200013F0020FFAD01F4B9B6813F0800FF5D119
:101430001C4BFF22DA601B4B9B6813F0010FFAD0A4
:10144000184B9B6813F0800FF5D1164BDB68D1E782
:10145000002010F0800F24D0531E13F0FF0220D084
:10146000104B1B6813F0400FF2D00E4B9B6813F02B
:10147000020FFAD00B4B9B6813F0800FF5D1094B8C
:10148000FF21D960074B9B6813F0010FFAD0054B81
:101490009B6813F0800FF5D1024BD868C0B2D8E733
:1014A000FF2038BD005001400120704701207047E7
:1014B00070B582B0FFF714FDFFF7F6FF002800F0CB
:1014C000FB800A2401E0013CE4B2F4B17B4B1B68D1
:1014D00013F0400FF7D0794B9B6813F0020FFAD04E
:1014E000764B9B6813F0800FF5D1744BFF22DA60C6
:1014F000724B9B6813F0010FFAD0704B9B6813F08E
:10150000800FF5D16D4BDB68DDE700210846FFF762
:10151000A5FE054601281AD0694B1C70FFF734FD63
:10152000002C00F0BF80674A137803F0FE031370AD
:10153000FFF7BCFF002840F0B980624A137843F0FF
:10154000040313705F4B1878C0B202B070BD5E4BDD
:101550004FF47A721A604FF4D5710820FFF77EFEBF
:10156000012847D00021A920FFF778FE012840F28A
:1015700094802E46544B1B682BB100212846FFF760
:101580006DFE0028F6D1504B1B68002BC4D14FF4E0
:1015900000711020FFF762FE0028BDD13446BBE782
:1015A000002302A8014401F8043C0132D2B2032A0C
:1015B00022D81146414B1B6813F0400FF0D03F4B2F
:1015C0009B6813F0020FFAD03C4B9B6813F0800F1E
:1015D000F5D13A4BFF20D860384B9B6813F0010FD0
:1015E000FAD0364B9B6813F0800FF5D1334BDB6894
:1015F000DBB2D6E72246DAE79DF80630012B8BD125
:101600009DF80730AA2B87D12F4B1B6833B14FF0C1
:101610008041A920FFF722FE0028F5D12A4B1B6844
:10162000002B3FF479AF00213A20FFF717FE034665
:1016300000287FF471AF032B06D99DF8043013F016
:10164000400F2DD00C2467E719461C4A126812F08F
:10165000400F20D0194A926812F0020FFAD0174AB0
:10166000926812F0800FF5D1144AFF20D060134A1F
:10167000926812F0010FFAD0104A926812F0800FAF
:10168000F5D10E4AD268D2B202A8014401F8042C66
:101690000133DBB2CFE70022F6E70226A92569E78E
:1016A000042439E7074B01221A7041E7054A1378F1
:1016B00003F0FB03137045E7022046E700500140AA
:1016C000E8020020B40000203403002008B5FFF732
:1016D000EBFE88B1FFF7EAFE40B9084A137843F001
:1016E00004031370054B1878C0B208BD034A137881
:1016F00003F0FB031370F5E70120F6E7B4000020C8
:1017000070B505460E461446FFF7CEFEA0B31C4B3F
:101710001B7813F0010F31D11A4B1B7813F0080F0F
:1017200000D17602012C18D031461220FFF796FD29
:1017300068B94FF400712846FFF784FC18B105F52D
:101740000075013CF5D100210C20FFF787FDFFF764
:101750001BFC201C18BF012070BD31461120FFF773
:101760007DFD0028F3D14FF400712846FFF76AFC95
:101770000028ECD00024EAE70320EDE70320EBE7A4
:10178000B4000020E802002070B505460E4614465D
:10179000FFF78AFE002846D0FFF788FE002844D0D5
:1017A000254B1B7813F0010F41D1234B1B7813F00D
:1017B000040F3ED1214B1B7813F0080F00D17602A5
:1017C000012C1BD013F0060F26D131461920FFF74C
:1017D00045FD68B9FC212846FFF7A8FC18B105F5BE
:1017E0000075013CF6D1FD210020FFF79FFCC0B140
:1017F000FFF7CAFB201C18BF012015E03146182056
:10180000FFF72CFD0028F3D1FE212846FFF78EFCC0
:101810000028EDD00024EBE721469720FFF71EFDBE
:10182000D3E70124E4E7012070BD0220FCE7032098
:10183000FAE70220F8E700BFB4000020E802002029
:1018400030B585B0A14B1B7813F0010F40F03A8101
:101850000D460446FFF728FE002800F03581042CD1
:1018600000F22281DFE814F005000C002001510095
:10187000E300FFF7B3FB002840F018810124DCE00F
:1018800000210920FFF7EAFC08B10124D5E010216E
:101890006846FFF7D7FB002800F00A819DF800306A
:1018A0009B09012B20D09DF8052002F00F029DF826
:1018B0000A3002EBD3129DF809305B0003F00603F7
:1018C0001A449DF808109DF807309B0003EB911314
:1018D0009DF80610890201F440610B440133073A78
:1018E00093402B600024A8E09DF809309DF8082063
:1018F00003EB02239DF80720120402F47C12134428
:1019000001339B022B60002497E0714B1B7813F08E
:10191000040F57D000218D20FFF7A0FC08B101244F
:101920008BE06C4B1B6813F0400F18D0694B9B6821
:1019300013F0020FFAD0674B9B6813F0800FF5D1BC
:10194000644BFF22DA60634B9B6813F0010FFAD0FF
:10195000604B9B6813F0800FF5D15E4BDB68102164
:101960006846FFF76FFB18BB012466E0013AD2B26C
:1019700002B3584B1B6813F0400FF7D0554B9B68D0
:1019800013F0020FFAD0534B9B6813F0800FF5D180
:10199000504BFF21D9604F4B9B6813F0010FFAD0D9
:1019A0004C4B9B6813F0800FF5D14A4BDB68DDE7A9
:1019B0003022DDE79DF80A301A09102393402B608E
:1019C00000243AE000210920FFF748FC08B1012477
:1019D00033E010216846FFF735FB00286AD03C4B06
:1019E0001B7813F0020F11D09DF80A305B0003F052
:1019F0007E039DF80B2003EBD21301339DF80D20DD
:101A00009209013A93402B60002416E09DF80A30B9
:101A1000C3F384029DF80B10CB0003F0180303EB13
:101A20005113013302FB03332B60002405E0284BE4
:101A30001B7813F0060F05D10124FFF7A5FA204605
:101A400005B030BD69460B20FFF7FAFE044698BB8F
:101A50009DF800309B0904D19DF80A3013F0400F27
:101A60002CD029686D681A4B1B7813F0080F01D130
:101A700049026D022020FFF7F1FB08B10124DCE7E9
:101A800029462120FFF7EAFBD0B900212620FFF7E5
:101A9000E5FB08B10124D0E747F23050FFF742FAE6
:101AA0000028CAD10124C8E70424C6E70024C4E7FB
:101AB0000124C2E70124C0E70124BEE70124BCE7FA
:101AC0000124BAE70324BAE70324B8E7B4000020EE
:101AD000E80200200050014004E00A780270013161
:101AE00001301A46531E002AF7D1704702E00170F8
:101AF00001301A46531E002AF9D1704770B40346CC
:101B0000002001E029463346541E32B15E1C18788D
:101B10004D1C0B782246C01AF4D070BC704700E010
:101B2000013003780BB18B42FAD118467047CA7E58
:101B30008B7E43EA02230278032A01D018467047BD
:101B4000487D0A7D42EA002243EA0243F6E78176B5
:101B5000C1F30723C376090C0175090A4175704763
:101B600030B401F10904036963B34069002304E060
:101B7000092A0CD02370013413460A2B0BD85A1CA7
:101B8000C35C202BF8D0052BF2D1E523F0E72E25FE
:101B900025700134EEE7C37A0B72C27F837F1B048A
:101BA00043EA0263427F43EA0223027F13430B604E
:101BB000427E037E43EA02238B80C27D837D43EA1B
:101BC0000223CB800023237030BC70472DE9F84FEF
:101BD00089460C6800E0013423782F2BFBD05C2B66
:101BE000F9D087690B2220213846FFF77FFF237841
:101BF0002E2B05D0002633464FF0080AB04635E0BC
:101C0000002201E0BB540A46511CA35C2E2B01D1DB
:101C10000229F7D92F2B03D05C2B01D0202B73D8AE
:101C20000C44C9F80040202B03D92023FB7200206C
:101C30002FE02423FAE74FEA88085FFA88F856462F
:101C40004FF00B0A11E015F0800F24D129463248DD
:101C5000FFF765FF00285BD1A5F14103DBB2192B2B
:101C60001FD848F00208BD5501365B4603F1010B51
:101C7000E55C202D1FD92F2D1DD05C2D1BD02E2DC6
:101C800001D0B245DFD8BAF1080F3FD12E2DD2D006
:101C90000620BDE8F88F48F00308803D1F4B5D5DCE
:101CA000D4E7A5F16103DBB2192BDCD848F00108B9
:101CB000203DEDB2D7E75C44C9F80040202D13D891
:101CC00004233EB33A78E52A10D0BAF1080F10D0B9
:101CD00008F00302012A11D008F00C08B8F1040F33
:101CE0000FD0FB720020D4E70023EAE705223A7008
:101CF000EBE74FEA88085FFA88F8E9E743F010035A
:101D0000EAE743F00803ECE70620C2E70620C0E755
:101D10000620BEE70620BCE7E811010858E80008E5
:101D2000F0B5D0F800E0BEF1000F02D08446724654
:101D300003E04FF0FF3009E001321378202B01D986
:101D40003A2BF9D13A2B02D01E4B1878F0BD0EF188
:101D500001039EF800003038092801D89A4202D0C9
:101D6000571C00201CE0082826D80132CCF800209F
:101D7000ECE779B12A4634468B420BD1661C2178B8
:101D8000551C1378A3F16102D2B2192AF1D8203B75
:101D9000DBB2EEE709B9AF4209D00130082806D816
:101DA000094B03EB8003D3F880407246E6E708282E
:101DB00005D8CCF80070C9E74FF0FF30C6E74FF008
:101DC000FF30C3E7EC02002058E80008F8B50379BB
:101DD0000BB90020F8BD0446056B00F13407012360
:101DE0002A4639464078FFF74DF8A8B900232371F9
:101DF000636AEB1AE269934210D2E678012E09D9A0
:101E0000E3691D4401232A4639466078FFF73AF812
:101E1000013EF3E70020DDE70120DBE70020D9E702
:101E200070B5036B8B4212D004460D46FFF7CEFF10
:101E3000064668B901232A4604F134016078FFF7A9
:101E400009F810B101264FF0FF35256300E00026A8
:101E5000304670BD10B50446002303714FF0FF33C8
:101E60000363FFF7DDFF88BB94F8332294F8323226
:101E700043EA02231BB2184A934229D194F86D20F9
:101E800094F86C301B0443EA026394F86B2043EA35
:101E9000022394F86A20134323F07F430F4A9342AE
:101EA00018D094F8892094F888301B0443EA026320
:101EB00094F8872043EA022394F88620134323F002
:101EC0007F43064A934204D0012002E0032000E051
:101ED000022010BD0020FCE755AAFFFF4641540038
:101EE000A0B108B503689BB1197899B1D9888288E7
:101EF000914201D0092008BD5878FEF79DFF10F0EF
:101F0000010F01D10020F6E70320F4E70920704714
:101F10000920F0E70920EEE7F0B585B00646174640
:101F2000002303600846FFF7FBFE051EC0F2888110
:101F3000D04B03EB85035C68002C00F08481346097
:101F4000237873B16078FEF777FF10F0010F08D1A6
:101F5000002F00F07A8110F0040F40F0788100200B
:101F60006FE100232370E8B26070FEF757FF10F0B6
:101F7000010F40F06E811FB110F0040F40F06B8133
:101F800000212046FFF766FF0346012800F0C980C4
:101F90000026032B00F06181002B40F0608194F853
:101FA000402094F83F3043EA02231BB2B3F5007F90
:101FB00040F0578194F84B2094F84A3053EA0223BA
:101FC0000DD194F85B2094F85A301B0443EA026365
:101FD00094F8592043EA022394F858201343E3610C
:101FE00094F84410E1704A1ED2B2012A00F23B81FB
:101FF00003FB01F194F84120A270002A00F0358122
:10200000501E024240F0338194F8460094F8455047
:1020100045EA0025258115F00F0F40F0338194F833
:10202000487094F8470050EA07200DD194F8577093
:1020300094F85600000440EA076094F8557040EAAE
:10204000072094F85470384394F843E094F84270B1
:1020500057EA0E2E00F018810EEB010C0CEB151C4C
:102060006045C0F01381A0EB0C00B0FBF2F2002A37
:1020700000F00E8140F6F57082426BD801274FF6D2
:10208000F570824200D903270232A26126620EEB6C
:1020900006006062B444C4F82CC0032F5CD0002D4D
:1020A00000F0FA800144A162022F69D002EB4201E4
:1020B00002F0010202EB510202F2FF12B3EB522FC7
:1020C000C0F0EC804FF0FF332361E3608023637145
:1020D000032F57D02770674A138D01339BB21385A6
:1020E000E38000206061ACE0002304AA02EB8102DF
:1020F00042F8103C0131032915D804F134030A01D8
:1021000002F5DF7213441A79002AEDD0D87A9A7A50
:10211000120442EA0062587A42EA00221B7A134310
:10212000E3E70021E7E700250BE031462046FFF713
:1021300091FE034600283FF42CAF0135032D3FF6F6
:1021400028AF04AB03EB850353F8106C002EECD1E1
:102150000223F2E7022792E7002D40F09B8094F8DB
:10216000630094F86210090441EA006194F8610088
:1021700041EA002194F860000143A16292009BE7CC
:10218000520099E794F8652094F8643043EA0223FA
:102190001BB2012B9ED1711C2046FFF741FE002887
:1021A00098D10023637194F8332294F8323243EAD1
:1021B00002231BB2304A93428CD194F8372094F812
:1021C00036301B0443EA026394F8352043EA0223C5
:1021D00094F834201343294A93427FF47BAF94F858
:1021E0001B2294F81A321B0443EA026394F8192262
:1021F00043EA022394F818221343214A93427FF4BE
:1022000069AF94F81F2294F81E321B0443EA02635C
:1022100094F81D2243EA022394F81C2213432361FD
:1022200094F8232294F822321B0443EA026394F8C0
:10223000212243EA022394F820221343E36049E772
:102240000B2005B0F0BD0C20FBE70020F9E70A20C9
:10225000F7E70320F5E70A20F3E70120F1E70D2077
:10226000EFE70D20EDE70D20EBE70D20E9E70D206E
:10227000E7E700BFEC02002055AAFFFF5252614180
:10228000727241610D20DCE70D20DAE70D20D8E7FE
:102290000D20D6E70D20D4E70D20D2E70D20D0E7A2
:1022A00070B50446FFF792FD054648B92378032B25
:1022B00008D0002211466078FEF7FCFD00B1012530
:1022C000284670BD6379012BF3D104F134064FF435
:1022D000007200213046FFF709FC552384F83232A2
:1022E000AA2384F83332522384F8343084F835300A
:1022F000612384F83630412284F83720722184F833
:10230000181284F8191284F81A2284F81B322369EF
:1023100084F81C32C3F3072284F81D22C3F307425A
:1023200084F81E221B0E84F81F32E36884F82032E2
:10233000C3F3072284F82122C3F3074284F8222240
:102340001B0E84F82332226A0132226301233146B4
:102350006078FEF797FD00236371AAE7023983696D
:10236000023B8B4204D98378C06A01FB03007047AB
:1023700000207047012963D9F8B583698B4261D980
:102380000C4606460378022B2BD0032B3CD0012BA6
:1023900001D0012057E001EB5105416A01EB5521C5
:1023A000FFF73EFD00284FD16F1CC5F308053544EB
:1023B00095F83450716A01EB57213046FFF730FD34
:1023C000002844D1C7F30800304490F8340045EAAF
:1023D000002014F0010F01D0000934E0C0F30B001D
:1023E00031E0416A01EB1421FFF71AFD90BB610057
:1023F00001F4FF7101F1300333445B79701890F8F8
:10240000340040EA03201EE0416A01EBD411FFF7DB
:1024100007FD10BBA00000F4FE7000F13002324452
:10242000D179937904321B0443EA0163527843EA79
:102430000223304490F83400184320F0704002E04A
:10244000012070470120F8BD4FF0FF30FBE74FF04F
:10245000FF30F8E74FF0FF30F5E74FF0FF30F2E7DD
:10246000F8B50646C1808468012C36D00D46036855
:102470009A69A24233D914B91A78032A12D09CB9A6
:102480001A89AA422DD9986AF46090B300EB15100E
:1024900030613368343305F00F0503EB4515756182
:1024A00000201DE09C6AEAE79F783F01BD420FD300
:1024B00021463068FFF75EFF0446B0F1FF3F12D0BF
:1024C000012812D933689B69834210D9ED1BEDE7CF
:1024D00021463068FFF742FFD6E7022000E00220E5
:1024E000F8BD0220FCE70120FAE70220F8E702200D
:1024F000F6E70220F4E738B50446C188FFF7B0FFDD
:10250000054608B1284638BD21692068FFF788FCD8
:1025100005460028F6D1202200216069FFF7E6FA7F
:102520006369E5221A70236801221A71EAE701291A
:1025300040F2908083698B4240F28E802DE9F04119
:1025400016460C4605460378022B48D0032B5DD077
:10255000012B03D002231846BDE8F08101EB51079F
:10256000416A01EB5721FFF75BFC03460028F2D1DB
:1025700007F10108C7F3080714F0010422D0EB1992
:1025800093F9343003F00F03320102F47F621343F6
:10259000DBB22F4487F8343001232B71696A01EBD9
:1025A00058212846FFF73CFC03460028D3D1C8F346
:1025B00008084CB1C6F30716A84488F83460012215
:1025C0002A71C8E7F3B2E4E705EB080292F9341088
:1025D00021F00F01C6F303260E43F6B2ECE7416A81
:1025E00001EB1421FFF71CFC03460028B3D1610066
:1025F00001F4FF7101F130002844294481F834606E
:10260000C6F30726467101222A71A4E7416A01EB4D
:10261000D411FFF705FC034600289CD1A10001F46A
:10262000FE7101F130002844C4798279120442EA33
:102630000462294402F07042164381F83460C6F304
:1026400007224271C6F307428271360EC67101221B
:102650002A7180E7022300E0022318467047F8B58C
:1026600005460F4631B9C6688EB18369B3420FD8AB
:1026700001260DE0FFF77EFE0346012844D9B0F1A4
:10268000FF3F46D0AA69824243D83E4600E0012679
:1026900034460CE021462846FFF76CFE034670B135
:1026A000B0F1FF3F35D0012833D0B44230D00134EF
:1026B000AB69A342EED8012E28D90224EAE76FF0D5
:1026C000704221462846FFF732FF034600B96FB932
:1026D0009BB9EC602B69B3F1FF3F1CD0013B2B6130
:1026E0006B7943F001036B71234612E022463946B1
:1026F0002846FFF71CFF0346EAE7012B01D0012320
:1027000007E04FF0FF3304E0012302E0002300E084
:1027100000231846F8BD2346FBE72DE9F843C4889B
:10272000631C9AB2002A68D00269002A67D00F465B
:10273000054613F00F0607D101320261C16869B97D
:10274000026812899A425CD90134EC802B683433D8
:1027500003EB46136B610020BDE8F88300688278C4
:10276000013A12EA1318EFD1FFF704FE814601285F
:1027700049D9B0F1FF3F48D0286883694B4534D828
:10278000002F44D0E968FFF76AFF8146002840D057
:10279000012840D0B0F1FF3F3FD02868FFF716FB7B
:1027A00008B10120D8E728684FF4007200213430C6
:1027B000FFF79CF92F6849463846FFF7CFFD38638D
:1027C0002B689A7842450CD901221A712868FFF7C4
:1027D000FDFA20BB2A68136B0133136308F101086B
:1027E000EEE71A6BA2EB08021A63C5F80C90494693
:1027F0002868FFF7B3FD2861A6E70420ACE70420B2
:10280000AAE70420A8E70220A6E70120A4E7042005
:10281000A2E70720A0E702209EE701209CE7012015
:102820009AE738B504460021FFF71AFE054640B185
:10283000284638BD00212046FFF76FFF05460028D7
:10284000F6D121692068FFF7EBFA05460028EFD1A1
:102850006069037853B1C37A13F0080FEAD10B22F1
:10286000A169FFF74BF90028E4D1E1E70425DFE790
:1028700030B583B0044601910B782F2B05D05C2B2B
:1028800003D003685B69836003E001310191002399
:10289000A360019B1B781F2B18D800212046FFF74F
:1028A000DFFD05460023636128E013F0040F2AD002
:1028B000054623E013F0040F27D16169CB7A13F0AA
:1028C000100F24D02068FFF732F9A06001A920463C
:1028D000FFF77CF9054688B92046FFF7A2FFA369F8
:1028E000DB7A0028E6D004280BD113F0200FDCD0CF
:1028F0000022A260626113F0040FE7D0284603B003
:1029000030BD0546FAE70525F8E70546F6E7052553
:10291000F4E770B504460E460021FFF7A1FD03461B
:10292000C0B9002508E00135B54213D00121204689
:10293000FFF7F3FE034668B921692068FFF770FAD4
:10294000034638B962691278E52AECD0002AEAD049
:102950000025EBE7042B01D0184670BD0723FBE7E9
:1029600038B505460121FFF7D4FF044608B12046DB
:1029700038BD29692868FFF753FA04460028F6D1C4
:10298000202200216869FFF7B1F80B22A969686964
:10299000FFF7A2F82B6801221A71E8E770B5044628
:1029A0000D46042605E000212046FFF7B6FE064648
:1029B000D0B92169C1B12068FFF732FA064698B94B
:1029C00063691A787AB1DB7A03F03F03E52AEAD02B
:1029D0000F2BE8D023F02003082B14BF0023012382
:1029E000AB42E0D100E004260EB100232361304663
:1029F00070BDF8B5012927D904460D4683698B427D
:102A000024D9002706E001332361637943F00103F1
:102A100063713546A369AB4219D929462046FFF7B1
:102A2000A9FC064698B1012813D0B0F1FF3F12D09F
:102A3000002229462046FFF77AFD074638B9236968
:102A4000B3F1FF3FDFD1E4E7022700E00227384679
:102A5000F8BD0227FBE70127F9E7000010B584B0B5
:102A600001900091144604A840F8041DFFF758F99E
:102A700000281BDB0F4B03EB80035B680BB10022CC
:102A80001A70019B0BB100221A70019A094B03EBDB
:102A90008000426062B1012C02D0002004B010BD61
:102AA0000022694601A8FFF737FAF7E70B20F5E7A0
:102AB0000020F3E7EC0200202DE9F0438FB00191F4
:102AC000002800F0A880044615460023036002F0A9
:102AD0001F0802F01E0201A906A8FFF71DFA06460C
:102AE00018B130460FB0BDE8F08303AB0C930199E9
:102AF00006A8FFF7BDFE0B9F064608B9002F38D089
:102B000015F01C0F77D0002E3AD0042E33D048F0A9
:102B100008080B9F16B918F0080F3CD146B918F0F9
:102B2000080F01D048F02008069B1B6BE361276269
:102B3000002ED6D184F806804FF0000884F8078074
:102B4000069D39462846FEF7F2FF2061FA7FBB7FDB
:102B50001B0443EA02637A7F43EA02233A7F13436A
:102B6000E360C4F80880C4F818802560EB88A3806F
:102B7000B7E70626C4E706A8FFF7F2FE0646C6E753
:102B8000FB7A13F0110F04D115F0040FC2D0082600
:102B9000C0E70726BEE7FEF79FF9B873C0F3072327
:102BA000FB73C0F307433B74000E78740025FD727D
:102BB0003D777D77BD77FD7739460698FEF7B7FFFD
:102BC000814629463846FEF7C2FF06980123037165
:102BD000B9F1000FA2D0056B4946FFF70AFF064680
:102BE00000289BD1069809F1FF33C3602946FFF7FF
:102BF00017F9064692E7002E90D1FB7A13F0100FDA
:102C000007D115F0020F89D013F0010F86D00726E7
:102C100084E7042682E7092663E72DE9F04F83B0B5
:102C200004468946154698460023C8F80030FFF749
:102C300057F90190002840F0AC80E379002B40F078
:102C4000A780A37913F0010F00F0A780E668A368BE
:102C5000F61AAE425ED32E465CE06169FFF78AFB4E
:102C600069E00223E371019393E00123E37101938F
:102C70008FE00223E37101938BE0A37913F0400FFF
:102C800004D0A069A0EB0A00A84201D36D0237E08E
:102C90004FF4007204F1240109EB4020FEF71CFF01
:102CA000F4E7A26952451AD0A37913F0400F0CD073
:102CB000012304F124019BF80100FEF7E3F800284A
:102CC0005ED1A37923F04003A371214651F8240B70
:102CD000012352464078FEF7BDF8002854D1C4F8CD
:102CE00018A0A168C1F30801C1F50075AE4200D279
:102CF0003546203121442A4604314846FEF7ECFE91
:102D0000A944A3682B44A360D8F800302B44C8F82A
:102D10000030761B002E3CD0A368C3F30802002AC3
:102D2000DFD120688778013FFFB217EA532708D127
:102D3000002B92D12069012893D9B0F1FF3F94D0A4
:102D40006061D4F800B061695846FFF707FB82461E
:102D500000288ED0BA44750AA3D07B199BF80220B4
:102D6000934200D9D51B2B46524649469BF8010099
:102D7000FEF770F8002880D00123E371019308E08A
:102D80000123E371019304E00123E371019300E067
:102D90000193019803B0BDE8F08F07230193F8E792
:102DA0002DE9F04F83B00446884616469946002325
:102DB000C9F80030FFF794F80190002840F0CA806D
:102DC000E379002B40F0C580A37913F0020F00F0E7
:102DD000C580A368F34263D3002661E00021FFF7BA
:102DE0003EFC03466FE06169FFF739FC03466AE089
:102DF0000223E3710193ADE00123E3710193A9E0A4
:102E0000214651F8240B0123A2694078FEF73AF8D5
:102E100020B9A37923F04003A37163E00123E37198
:102E2000019397E00223E371019393E0A169A1EB81
:102E30000A01A94201D36D0228E04FF4007208EBA9
:102E4000412104F12400FEF747FEA37923F040035B
:102E5000A371F0E7A369534503D0A268E3689A42DF
:102E60005FD3C4F818A0A068C0F30800C0F50075CF
:102E7000AE4200D23546203020442A464146043036
:102E8000FEF72AFEA37943F04003A371A844A36888
:102E90002B44A360D9F800302B44C9F80030761BCE
:102EA000002E4CD0A368C3F30802002ADBD12068AF
:102EB0008778013FFFB217EA53270FD1002B92D139
:102EC0002369002B8AD0002B39D0012B90D0B3F18D
:102ED000FF3F91D06361226902B92361A37913F0A6
:102EE000400F8DD1D4F800B061695846FFF736FA2B
:102EF0008246002896D0BA44750AABD07B199BF85D
:102F00000220934200D9D51B2B46524641469BF8DE
:102F10000100FDF7B7FF002888D00123E37101937A
:102F200018E00123524604F124019BF80100FDF74B
:102F300091FF002895D00123E37101930AE0A36873
:102F4000E268934200D9E360A37943F02003A371C0
:102F500000E00193019803B0BDE8F08F07230193CF
:102F6000F8E738B50446FEF7BBFF0346D0B9A279AF
:102F700012F0200F16D012F0400F0DD0214651F85C
:102F8000240B0123A2694078FDF77CFF002837D18C
:102F9000A37923F04003A371E1692068FEF740FFA5
:102FA000034608B1184638BD256AEB7A43F0200382
:102FB000EB72237B2B77A3891B0A6B77A37BAB7701
:102FC000E37BEB7721692846FEF7C1FDFDF784FF1F
:102FD000A875C0F30723EB75C0F307432B76000EEB
:102FE00068760023AB74EB74A37923F02003A371FC
:102FF000236801221A712068FFF752F90346D1E7CE
:103000000123CFE710B50446FFF7ABFF034608B135
:10301000184610BD2046FEF763FF03460028F7D18F
:1030200000222260F4E70000F0B595B014AB43F83D
:103030004C0D0E460022027019460CA8FEF76CFFDC
:10304000054600286ED103AB12930C9B5B690E936F
:10305000344619E0013314AA1A4412F82F2C002A1E
:10306000F8D1DA1CA24209D9112544E0013B013C08
:1030700014AA1A4412F82F1C019A1155002BF5D1ED
:10308000013C019B2F221A550E9F002F33D00121A6
:103090000CA8FFF7E5F9054668BB00210CA8FFF76F
:1030A0007DFC054638BB11990C98FEF740FD0E904B
:1030B00000210CA8FFF7D4F90546E0B900210CA8BF
:1030C000FFF76CFC054660B911990C98FEF72FFDCF
:1030D000B84206D000210CA8FFF71FFB05460028C8
:1030E000ECD0042D06D035B906A90CA8FEF738FDA2
:1030F0000023B0E70225019A95B90E4B19783031BB
:10310000134603F8021B3A215170B4420DD0611CE2
:103110005A1C0198005D18700C4613468E42F6D872
:1031200000231370284615B0F0BD2F23937003328F
:10313000F6E700BFEC0200202DE9F04104460D4601
:10314000FEF7CEFE0646002840F0AD80E379002B66
:1031500040F0A880E368AB4204D2A27912F0020FDB
:1031600000D11D46A7680023A360E5B1206890F850
:1031700002804FEA482877B16B1EB3FBF8F3013F9A
:10318000B7FBF8F2934206D3C8F100031F40A760D3
:10319000EF1B656905E02369002B31D063612F4681
:1031A0001D46002D51D1A368C3F30803F3B1A269F2
:1031B000AA421BD0A37913F0400F0CD0214651F83E
:1031C000240B01234078FDF75DFE002864D1A3792C
:1031D00023F04003A371214651F8240B01232A4612
:1031E0004078FDF737FE002859D1A561A368E26851
:1031F000934258D9E360A37943F02003A37152E0CE
:103200000021FFF72CFA0346012804D0B0F1FF3F5C
:1032100004D02061C2E70226E67144E00126E6718F
:1032200041E029462068FFF7A5F80546B5F1FF3FC4
:1032300027D0012D28D923689B69AB4224D9656129
:10324000A3684344A360A7EB080747450BD9A379BC
:1032500013F0020FE5D029462068FFF700FA054673
:103260000028E3D14746A3683B44A360C7F30803A3
:1032700083B129462068FFF771F840B100EB57256C
:1032800091E70126E6710EE00226E6710BE00226C8
:10329000E67108E0002586E70126E67103E00126D5
:1032A000E67100E01E463046BDE8F08110B586B0FC
:1032B000019178B30446002201A905A8FEF72CFE6F
:1032C000034628B10BB100222260184606B010BD9B
:1032D000059B236002ABA36101992046FFF7C8FA62
:1032E000034688B9616939B1CB7A13F0100F0FD05A
:1032F0000598FEF71CFCA060059BDB88A3800021DD
:103300002046FFF7ADF80346042BDBD10523DAE7AF
:103310000523F9E70923D8E710B50446FEF7E0FDD9
:10332000034608B900222260184610BD70B584B06B
:1033300004460E46FEF7D4FD0546A0B9B6B101AB72
:10334000A36100212046FFF729FB042814D0C8B947
:1033500031462046FEF704FC00212046FFF7DDF948
:1033600004280CD00546284604B070BD0021204634
:10337000FFF776F80546F6E700232361E8E7002328
:103380002361F0E70546EEE770B50446FEF7A8FDB9
:10339000054640B9E3792BB9A37913F0020F02D1A6
:1033A000072519E01D46BDB9E268A3689A4211D904
:1033B000E360A27942F02002A2717BB92169206802
:1033C000FFF717FB0546002323611DB9A37913F00E
:1033D000400F25D105B1E571284670BD61692068AF
:1033E000FEF7C8FF0646B0F1FF3F15D0012E15D0FD
:1033F000002DEAD120688369B342E6D96FF07042AC
:103400006169FFF794F805460028DED1314620684F
:10341000FFF7EFFA0546D8E70125E7E70225D4E7ED
:10342000214651F8240B0123A2694078FDF72AFDBB
:1034300020B9A37923F04003A371CBE70125CAE7A4
:10344000F0B597B016A941F8540D01220EA8FEF769
:1034500063FD044610B1204617B0F0BD03AB1493D2
:1034600001990EA8FFF704FA044620B9149BDB7AF1
:1034700013F0200F44D1002CEDD1139921B3CD7A54
:1034800015F0010F23D10E9F3846FEF750FB06467C
:10349000F8B115F0100F1CD07B69834232D0202286
:1034A0000EA906A8FEF718FB0896022106A8FEF74B
:1034B000D7FF044668B9002106A8FFF76FFA044653
:1034C000B0B1042805D106E00026062401E000265C
:1034D0000724002CBFD10EA8FFF70DF8044600B951
:1034E00046B9002CB7D10E98FEF7DAFE0446B2E7D3
:1034F0000724EEE731460E98FFF77BFA0446F0E723
:103500000624A8E70724A6E7DFF834D0002103E06B
:103510000C4B5B58435004310B480C4B42189A42F9
:10352000F6D30B4A02E0002342F8043B094B9A42CF
:10353000F9D305F099FE0AF0D7FC02F0B3FF70470B
:1035400000000320EC19010800000020CC0200203C
:10355000CC02002088240020FEE700000C4BDA6833
:1035600022F08072DA60DA6842F08072DA60094B29
:103570001A6822F001021A601A6842F001021A6009
:1035800000225A605A6800BF00BF5868801A70470E
:10359000F0ED00E0001000E07047000038B51E4B71
:1035A0009A6901329A61DB691BB11B4AD369013BFD
:1035B000D361002401E00134E4B2174B1B78A3422D
:1035C00027D92546144B03EB84035B68002BF2D00C
:1035D0001A7812F0020FEED09A680AB1013A9A6096
:1035E0000D4B03EB850358688368002BE3D1C36858
:1035F00001699847084B03EB85056B685A689A6028
:103600001A7812F0010FD6D11A786FF341021A70AE
:10361000D1E7FFF7C1FF38BD18030020014B9869BF
:10362000704700BF1803002038B50446EFF3058348
:103630003BB174B1074B1B6813F4803FF9D0013CD8
:10364000F7E7FFF7EBFF0546FFF7E8FF401BA04257
:10365000FAD338BD10E000E010B500224FF48071BD
:103660000F4806F054FF0F4C00224FF40071204623
:1036700006F04DFF00224FF48071204606F047FF10
:1036800000228021204606F042FF002240212046F1
:1036900006F03DFF00228021034806F038FF10BDF0
:1036A00000000240000802400018024038B50546FC
:1036B000C0F3C0028021154806F029FF144CC5F361
:1036C00080024021204606F022FFC5F340028021FF
:1036D000204606F01CFF05F001024FF480712046E1
:1036E00006F015FF01224FF40071204606F00FFF8F
:1036F000142001F07FF900224FF40071204606F0FB
:1037000006FF142001F076F938BD00BF0018024012
:103710000008024010B5044600224FF480710548AD
:1037200006F0F5FE2009FFF7C1FF04F00F00FFF7D8
:10373000BDFF10BD0000024000B583B00C4B1B68FC
:1037400001930C4BDB788B4200D80021094B587158
:10375000997102AB194411F8043C184440B260F06E
:103760007F00C0B2FFF7D6FF03B05DF804FB00BFD7
:103770002CE900083803002010B5044601224FF45C
:103780008071054806F0C3FE2009FFF78FFF04F0A3
:103790000F00FFF78BFF10BD0000024008B50120AD
:1037A000FFF7B8FF40F6B83001F024F908BD00007B
:1037B00010B51446FFF7C0FF18E0164B00205871F3
:1037C00099790131C9B29971FFF7B6FF15E0114B34
:1037D00099790131C9B299715879FFF7ADFF04E0C9
:1037E0000C4B99790020FFF7A7FF0134237883B1B0
:1037F000084B5A791B799A42DFD220780A28E6D002
:103800000D28EDD0FFF7B8FF024A53790133537109
:10381000EBE710BD3803002008B5054B187840F0E1
:103820000400187040F00800FFF774FF08BD00BFE7
:103830003803002038B505460C46FFF70DFF4AF661
:10384000C87001F0D7F81E4BDC701D7100225A7150
:103850009A715A70012C01D908225A700320FFF77F
:1038600025FF41F2941001F0C5F80320FFF71EFF79
:1038700041F2941001F0BEF80320FFF717FF41F268
:10388000941001F0B7F80220FFF710FF642001F058
:10389000B1F80B4C607840F02000FFF73BFF0423A9
:1038A0002370FFF7B9FFFFF779FF0223A37006200B
:1038B000FFF730FF41F2941001F09CF838BD00BFD3
:1038C00038030020036813F0400F01D030B416E035
:1038D0007047836813F0020FFBD0836813F0800FEA
:1038E000F7D14D1C0B780373836813F0010FFBD0E5
:1038F000836813F0800FF7D1838922462946541E2E
:10390000002AE6D130BC704710B4046814F0400FB0
:1039100015D117E0836813F0020FFBD0836813F012
:10392000800FF7D10273836813F0010FFBD0836817
:1039300013F0800FF7D1037B0B70234601315C1E1F
:10394000002BE7D15DF8044B7047000030B583B021
:1039500002AC04F8010D00224FF400510A4806F0B1
:10396000D6FD0A4D00220421284606F0D0FD64232E
:1039700001222146064807F080FF01220421284643
:1039800006F0C5FD03B030BD000C02400008024047
:10399000C018002030B583B002AC04F8010D01223C
:1039A0004FF400510A4806F0B2FD0A4D00220421EE
:1039B000284606F0ACFD642301222146064807F0A4
:1039C0005CFF01220421284606F0A1FD03B030BDB2
:1039D000000C024000080240C0180020F8B507465D
:1039E0000D4616461C462A20FFF7B0FF380AFFF79F
:1039F000D1FFF8B2FFF7CEFF300AFFF7CBFFF0B2EE
:103A0000FFF7C8FF2B20FFF7A1FF280AFFF7C2FF2F
:103A1000E8B2FFF7BFFF200AFFF7BCFFE0B2FFF7F5
:103A2000B9FFF8BD10B514460B460246FFF7D6FFA6
:103A30002C20FFF78BFFC4F30720FFF7ABFFE0B2AA
:103A4000FFF7A8FF10BD00002DE9F04182B08046CD
:103A50000F4615461C46BDF820604FEA162C8DF81F
:103A600004C08DF80560FFF7B9FF2C20FFF76EFF4B
:103A7000A5EB0805E41B013405FB044400220421E6
:103A8000244806F044FD01224FF40051224806F07C
:103A90003EFD224B19680A6822F040020A604FF48A
:103AA0000062DA601A68136843F040031360B4F5EB
:103AB000803F0ED2002314E0022201A9174808F02B
:103AC0007FF9013C2B465D1C4FF6FE729342F3D901
:103AD000F0E70023F7E7022201A9104808F070F987
:103AE0002B465D1CA342F6D301220421094806F0AF
:103AF0000EFD0A4B19680A6822F040020A60002293
:103B0000DA601A68136843F04003136002B0BDE83E
:103B1000F08100BF00080240000C0240C0180020E5
:103B200000B583B0064B1A885B88013A80B20090DA
:103B300092B200210846FFF787FF03B05DF804FB4F
:103B40003007002082B0019002E0019B013B01930D
:103B5000019B002BF9D102B07047000010B59B4CBF
:103B600000224FF48051204606F0D1FC44F620603C
:103B7000FFF7E8FF01224FF48051204606F0C7FC12
:103B800044F62060FFF7DEFF0120FFF7DFFE4CF276
:103B90005030FFF7D7FFCB20FFF7D8FE3920FFF7D3
:103BA000F9FE2C20FFF7F6FE0020FFF7F3FE34208D
:103BB000FFF7F0FE0220FFF7EDFECF20FFF7C6FE75
:103BC0000020FFF7E7FEC120FFF7E4FE3020FFF7FB
:103BD000E1FEE820FFF7BAFE8520FFF7DBFE0020BC
:103BE000FFF7D8FE7820FFF7D5FEEA20FFF7AEFEFC
:103BF0000020FFF7CFFE0020FFF7CCFEED20FFF7FF
:103C0000A5FE6420FFF7C6FE0320FFF7C3FE1220C7
:103C1000FFF7C0FE8120FFF7BDFEF720FFF796FEFD
:103C20002020FFF7B7FEC020FFF790FE2320FFF70C
:103C3000B1FEC120FFF78AFE1020FFF7ABFEC520C2
:103C4000FFF784FE3E20FFF7A5FE2820FFF7A2FE27
:103C5000C720FFF77BFE8620FFF79CFE3620FFF78C
:103C600075FE4820FFF796FE3A20FFF76FFE5520BD
:103C7000FFF790FEB120FFF769FE0020FFF78AFEF4
:103C80001820FFF787FEB620FFF760FE0820FFF739
:103C900081FE8220FFF77EFE2720FFF77BFEF220C9
:103CA000FFF754FE0020FFF775FE2A20FFF74EFEB7
:103CB0000020FFF76FFE0020FFF76CFE0020FFF7EB
:103CC00069FEEF20FFF766FE2B20FFF73FFE002086
:103CD000FFF760FE0020FFF75DFE0120FFF75AFEB0
:103CE0003F20FFF757FE2620FFF730FE0120FFF7A9
:103CF00051FEE020FFF72AFE0F20FFF74BFE312098
:103D0000FFF748FE2B20FFF745FE0C20FFF742FE91
:103D10000E20FFF73FFE0820FFF73CFE4E20FFF786
:103D200039FEF120FFF736FE3720FFF733FE07207C
:103D3000FFF730FE1020FFF72DFE0320FFF72AFECD
:103D40000E20FFF727FE0920FFF724FE0020FFF7D3
:103D500021FEE120FFF7FAFD0020FFF71BFE0E20F9
:103D6000FFF718FE1420FFF715FE0320FFF712FEE1
:103D70001120FFF70FFE0720FFF70CFE3120FFF7A1
:103D800009FEC120FFF706FE4820FFF703FE0820CA
:103D9000FFF700FE0F20FFF7FDFD0C20FFF7FAFDF7
:103DA0003120FFF7F7FD3620FFF7F4FD0F20FFF776
:103DB000F1FD1120FFF7CAFD0548FFF7C3FE2920DA
:103DC000FFF7C4FD2C20FFF7C1FD10BD000C024021
:103DD00040420F0008B5012204210B4806F097FB72
:103DE000FFF7BCFE0023094A1380094A1380094BE0
:103DF000F0221A804FF4A0725A8001221A714FF6F5
:103E0000FF70FFF78DFE08BD000802403607002056
:103E10002C0700203007002010B504463620FFF79D
:103E200095FD84B1012C12D0022C14D0032C16D095
:103E3000012C18D9104B4FF4A0721A80F0225A802E
:103E400000221A7110BD5820FFF7A4FDF0E788206A
:103E5000FFF7A0FDECE72820FFF79CFDE8E7E8204E
:103E6000FFF798FDE4E7044BF0221A804FF4A072AC
:103E70005A8001221A71E5E7300700202DE9F0434E
:103E800083B091461E460A9D264B1880264B19800A
:103E900033781844254B1B88984206DD7378194403
:103EA000214B19801F4B00221A801E4B18881E4B75
:103EB0001988327873780B440244BDF82C40009482
:103EC0009BB292B2FFF7C0FD4FF0000816E001343C
:103ED0003378A34210D907FA04F313F4004FF6D055
:103EE000114B198841440F4B188820442A4689B247
:103EF00080B2FFF797FDEAE708F1010872784245C2
:103F000008D97168A9F1200302FB038331F813700B
:103F10000024DDE73378034A11880B44138003B093
:103F2000BDE8F0832C070020360700203007002072
:103F30002DE9F04182B0804614461D46089F099E37
:103F4000164B1880164B198013E06B78144A1188B1
:103F50000B440133138063780D2B04D00F4BA3F86F
:103F60000080013405E00D4B00221A800134F8E78F
:103F70000134227872B10A2AE7D00D2AF8D0013430
:103F8000074B1988054B1888019600972B46FFF7B9
:103F900075FFEEE702B0BDE8F08100BF2C070020FE
:103FA0003607002030B583B004460D46104619464A
:103FB000944201D8204614468D420DD9BDF81830E0
:103FC00000932B462246FFF73FFD012204210448BF
:103FD00006F09DFA03B030BD0B4629461D46EDE7BD
:103FE00000080240014B185C704700BFD000002061
:103FF000074B187CFF280AD05B7CFE2B06D0054BB4
:1040000000221A80024BFE225A747047FF2070472C
:10401000D00000204003002038B504461C4D01228A
:104020004FF48051284606F072FA012220212846DA
:1040300006F06DFA01224021284606F068FA0122B6
:104040004FF40051134806F062FA012C06D0022CFE
:104050000AD0032C0ED0042C12D038BD002210211F
:10406000284606F054FAF2E700222021084806F01C
:104070004EFAEEE700224021054806F048FAEAE74A
:1040800000224FF40051034806F041FAE5E700BF73
:10409000001002400008024008B50020FFF7BCFFF6
:1040A00008BD000010B504464FF48071154806F0B5
:1040B00027FA20B9013C144B1C44207D10BD8021FF
:1040C000104806F01DFA20B9013C0F4B1C44207E1D
:1040D000F4E74FF480610D4806F012FA20B9013C74
:1040E000094B1C44207FE9E74FF40071054806F0B6
:1040F00007FA28B9013C044B1C4494F82000DDE782
:10410000FF20DBE700040240D0000020001802403E
:1041100008B50120FFF780FF0120FFF7C3FFFF284C
:1041200000D008BD0220FFF777FF0220FFF7BAFF9B
:10413000FF28F6D10320FFF76FFF0320FFF7B2FF40
:10414000FF28EED10420FFF767FF0420FFF7AAFF46
:10415000E7E7000008B5FFF7DBFF114B1874114AC1
:10416000138801339BB21380B3F5FA7F0FD3134644
:1041700000221A80FF280BD01A469B7801339370D7
:10418000084B9B78042B07D0054BFF225A7408BDBF
:10419000044B00229A70F3E7024B00229A70F3E777
:1041A000D000002040030020034B00221A605A6018
:1041B0009A601A74704700BF44030020034B00222A
:1041C0005A619A61DA611A74704700BF4403002093
:1041D0000B4A936818449060B0F5801F02D3C0F377
:1041E00013009060064A9368C3F310011160C3F393
:1041F0004B115160C3F3474313731374704700BFEF
:10420000440300200B4AD3691844D061B0F5801FE5
:1042100002D3C0F31300D061064AD369C3F310017F
:104220005161C3F34B119161C3F3474382F82030CE
:10423000137470474403002010B5054B03EB800452
:10424000012233F81010206906F061F910BD00BF9B
:104250004411010810B5054B03EB8004002233F82C
:104260001010206906F053F910BD00BF4411010879
:1042700000B583B0642301220DF10701034807F064
:10428000EBFC9DF8070003B05DF804FBC0180020AC
:10429000014B9868704700BF4403002010B50446E6
:1042A00001290CD011B1022906D010BDFFF77CFF07
:1042B0002046FFF78DFFF8E7FFF78AFFF5E7FFF7E6
:1042C00073FFC4F58010FFF783FFEEE710B50446D7
:1042D00001290CD011B1022906D010BDFFF76EFFE5
:1042E0002046FFF78FFFF8E7FFF78CFFF5E7FFF7B2
:1042F00065FFC4F58010FFF785FFEEE7014BD86935
:10430000704700BF4403002000B583B002A901F844
:10431000010D64230122034807F0AFFA03B05DF8F2
:1043200004FB00BFC018002008B5074B00221A7418
:1043300005E0FFF781FF044A137C01331374024B3D
:10434000187C0728F5D908BD4403002038B5054678
:10435000074C207CFFF77EFF0120FFF7D5FF2846A2
:10436000FFF7D2FF207CFFF767FF002038BD00BFBA
:104370004403002070B504460D4616461846FFF764
:10438000C3FF3046FFF7C0FF2846FFF7BDFF2046BA
:10439000FFF7BAFF70BD00002DE9F04106460F4659
:1043A00090461D46069C4020FFF7D0FF0C4B187C22
:1043B000FFF750FF0223424639463046FFF7DAFF47
:1043C00005E06E1C2878FFF79FFF013C3546002C66
:1043D000F7D1034B187CFFF72FFF0020BDE8F081D9
:1043E0004403002070B582B02F4A526912F01F02B8
:1043F0001AD0C2F12005002936D00C4606461F29E6
:1044000024D99AB9284B9A7D597D187D202500958D
:104410003346FFF7C1FF2846FFF7F4FEA4F1200161
:104420007019FFF7DFFF1FE01546E4E71E4B9A7D8A
:10443000597D187D00953346FFF7AEFF2846FFF7FC
:10444000E1FE611B7019FFF7CDFF0DE0FAB18D425F
:104450000CD3154B9A7D597D187D00943346FFF798
:104460009BFF2046FFF7CEFE02B070BD4C1B0E4BEB
:104470009A7D597D187D00953346FFF78DFF2846BC
:10448000FFF7C0FE21467019FFF7ACFFECE7064BC3
:104490009A7D597D187D00943346FFF77DFF2046B5
:1044A000FFF7B0FEE0E700BF440300202DE9F04134
:1044B00006460F4690461D46069C4020FFF746FFE5
:1044C0000C4B187CFFF7C6FE0323424639463046A4
:1044D000FFF750FF05E06E1CFFF7CAFE2870013C95
:1044E0003546002CF7D1034B187CFFF7A5FE0020C2
:1044F000BDE8F0814403002070B582B02F4A1268F5
:1045000012F01F021AD0C2F12005002936D00C4645
:1045100006461F2924D99AB9284B9A7859781878D1
:10452000202500953346FFF7C1FF2846FFF750FED0
:10453000A4F120017019FFF7DFFF1FE01546E4E743
:104540001E4B9A785978187800953346FFF7AEFFDE
:104550002846FFF73DFE611B7019FFF7CDFF0DE008
:10456000FAB18D420CD3154B9A785978187800948B
:104570003346FFF79BFF2046FFF72AFE02B070BDCF
:104580004C1B0E4B9A785978187800953346FFF7F4
:104590008DFF2846FFF71CFE21467019FFF7ACFF80
:1045A000ECE7064B9A785978187800943346FFF771
:1045B0007DFF2046FFF70CFEE0E700BF440300202C
:1045C00010B5406C054C0A22214609F005FE224632
:1045D00001210020FFF7ECF810BD00BF38070020D4
:1045E00010B503687C4A934203D07C4A934203D0BF
:1045F00010BD01F05BFEFBE705F084F8784B186016
:104600003E28F5D801A353F820F000BF0947000861
:10461000094700080947000809470008F145000854
:10462000F1450008F1450008F1450008F145000892
:104630002D4700082D4700082D4700082D4700088A
:10464000F1450008F1450008F1450008F145000872
:10465000F145000835470008354700083547000890
:1046600035470008F1450008F1450008F14500080C
:104670003D4700083D4700083D4700083D4700080A
:10468000F1450008F1450008454700084547000886
:1046900045470008454700084D4700084D470008BA
:1046A0004D4700084D470008F145000855470008F0
:1046B0005547000855470008F14500085D470008C8
:1046C0005D4700085D47000865470008654700082A
:1046D000654700086D4700086D4700086D470008F2
:1046E00075470008754700087D4700087D470008AA
:1046F000854700088547000895470008954700084A
:10470000A5470008CF470008354B01221A60FFF784
:1047100045F8344C0A222146314B186809F05CFDFB
:10472000224600210846FFF743F861E72C4B02229E
:104730001A60ECE72A4B03221A60E8E7284B0422B0
:104740001A60E4E7264B05221A60E0E7244B0622B4
:104750001A60DCE7224B07221A60D8E7204B0822B8
:104760001A60D4E71E4B09221A60D0E71C4B0A22BC
:104770001A60CCE71A4B0B221A60C8E7184B0C22C0
:104780001A60C4E7164B0D221A60174AD36B013B1F
:10479000D363BCE7124B0E221A60134AD36B01336A
:1047A000D363B4E70E4B0F221A600F4B1B7EDBB2B4
:1047B000012B08D00C4B1B7EDBB2032BA7D10A4B7D
:1047C00001221A76A3E7084B03221A769FE7044BCF
:1047D00010221A609BE700BF002201400020014028
:1047E00088030020380700208814002000B585B019
:1047F00019481A4B03604FF4803343604FF0407305
:10480000836000230361836103624FF08052C262C0
:104810004FF070628262C3600122C2610363426131
:1048200004F020FE68B904230093012301930723B9
:1048300002936946084805F053F838B905B05DF8A9
:1048400004FBCB21064801F0C5FDECE7D521044867
:1048500001F0C0FDF2E700BFA007002000200140EA
:104860008012010800B585B01E481F4B03604FF44D
:10487000803343604FF040738360012202618261A4
:1048800000230362C36219498162C3600221C161CE
:104890000263436104F0E6FDA0B901230093019394
:1048A0000623029369460F4805F01AF878B90223E7
:1048B0000093019369460B4805F012F860B905B002
:1048C0005DF804FBEE210A4801F084FDE5E7F821DC
:1048D000074801F07FFDEAE740F20111044801F0CA
:1048E00079FDECE7E8070020002201400100000FFD
:1048F00080120108F0B589B00368374A934205D0A9
:104900000446364A934225D009B0F0BD00240194F4
:10491000334B5A6C42F480725A645B6C03F48073BC
:104920000193019B102603960327049705942D4DB0
:1049300003A9284605F0F4FC22463946122005F06A
:10494000ADF8122005F0DEF822463146284605F083
:10495000DEFDD9E700250295214B5A6C42F48062B6
:104960005A645B6C03F480630293029B06230393F7
:1049700003230493059503A91A4805F0D1FC1A48AE
:104980001A4B03604FF0806343608560C5604FF44D
:10499000806303614FF4805343614FF4804383612C
:1049A0004FF48073C3614FF480330362456205F0B6
:1049B000B3FA58B90C4BA3639C6300220321122065
:1049C00005F06CF8122005F09DF89DE74FF4A071FA
:1049D000074801F0FFFCEDE7002001400022014004
:1049E00000380240000002404007002028640240D6
:1049F0008012010838B50446074B5D6806F0A6FD35
:104A0000064BA3FB0030800C04FB00F4024B5B68F8
:104A10005B1BA342FAD338BD001000E083DE1B43CA
:104A200008B5FFF7E7FF08BD10B582B002AC04F887
:104A3000010D0A200021FFF7F3FF0A23012221467E
:104A4000024806F01AFF02B010BD00BF781900201E
:104A500008B50A200021FFF7E3FF08BD00B583B0C9
:104A600002A9002301F8013D0A230122034807F0AF
:104A7000F3F89DF8070003B05DF804FB78190020F7
:104A800070B506460D460C4C00224FF4806120465E
:104A900005F03DFD46F05000FFF7C6FF0020FFF790
:104AA000C3FF2846FFF7C0FF01224FF48061204674
:104AB00005F02DFD70BD00BF0008024038B5054669
:104AC0000D4C00224FF48061204605F020FD45F09A
:104AD0001000FFF7A9FF0020FFF7A6FFFFF7B8FFC0
:104AE000FFF7BCFF054601224FF48061204605F028
:104AF0000EFD284638BD00BF0008024038B5054607
:104B0000084C00224FF48061204605F000FD284645
:104B1000FFF78AFF01224FF48061204605F0F7FC81
:104B200038BD00BF0008024008B530B1012809D0E7
:104B300002280CD003280FD008BD01210846FFF73A
:104B40009FFFF9E723210120FFF79AFFF4E74521B2
:104B50000120FFF795FFEFE767210120FFF790FFA6
:104B6000EAE7000010B50024054B9C4206D804215A
:104B7000044805F0C5FC08B10134F5E710BD00BFDD
:104B80007F1A0600000C024070B505460C46154B16
:104B900018705970FFF7E6FF134B1E5D134C00228F
:104BA0004FF48061204605F0B2FC5020FFF73CFF37
:104BB0000320FFF739FF0620FFF736FF0820FFF735
:104BC00033FF2846FFF730FF3046FFF72DFF012265
:104BD0004FF48061204605F09AFC32200021FFF757
:104BE0001FFF70BD04070020741101080008024077
:104BF00008B5FFF7B7FF0020FFF760FFC0F307100D
:104C000008BD000070B5144E00224FF4806130469C
:104C100005F07DFC0120FFF707FFFFF719FFFFF705
:104C20001DFF0E4D2870FFF719FF6870FFF716FF84
:104C3000A8702B786C78240244EA034404430122D0
:104C40004FF48061304605F062FC14F4000F01D08F
:104C500044F07F44204670BD0008024094030020C9
:104C600010B582B08DF804000B0A8DF805308DF870
:104C700006100C4C01222021204605F048FC0022A1
:104C80002021204605F043FC6423032201A90648A5
:104C900006F0F3FD01222021204605F038FC02B089
:104CA00010BD00BF000C02407819002070B582B022
:104CB00000258DF80050030A8DF801308DF80200B0
:104CC00034238DF803300B0A8DF804308DF805106D
:104CD000124C2A462021204605F019FC104E642370
:104CE00003226946304606F0C8FD012220212046F5
:104CF00005F00DFC2A462021204605F008FC64231F
:104D000003220DEB0201304606F0B7FD01222021FF
:104D1000204605F0FCFB02B070BD00BF000C024055
:104D200078190020014B1860704700BF9C030020D9
:104D3000024B5A6802609B680B6070479C0300201E
:104D400030B4194B58609960184B5B7EDBB2012B75
:104D500015D0174B00EB400082001A445468134AE8
:104D6000D06800FB04F0104DE8605460013101EBA5
:104D70004101880003445B68936030BC70470B4B73
:104D80005B78DBB2012BE4D1084B1B78DBB2012B43
:104D9000DFD14B1C03EB43039A00054B1344024A3B
:104DA00012685A60D5E700BF9C03002088140020D9
:104DB000C4090020914212DA10B406E09B1003F5FA
:104DC000006303530131914206DA4C0030F911308F
:104DD000002BF3DA0333F1E75DF8044B70477047BB
:104DE00000B583B0ADF80600114B9B7823B1114B91
:104DF000D868B0F5000F02D303B05DF804FB0B7860
:104E000000EB131001220DF1060100F1504003F0F8
:104E1000C5FC074AD0680749CB680344CB60537E82
:104E2000DBB2012BE8D10B6801330B60E4E700BF74
:104E3000881400209C03002030B585B0ADF8060032
:104E4000494B9B784BB315460C46484BD868B0F598
:104E5000000F15D20B7813F0010F20D1137813F047
:104E6000010F44D1404AD0684049CB680344CB602D
:104E7000537EDBB2012B62D03B4A5368013353604F
:104E8000394B9B6823B1384B5A689B689A425AD277
:104E9000364BDB68B3F5000F60D005B030BD0B7842
:104EA00000EB131001220DF1060100F1504003F058
:104EB00075FC2D4B1A691B7F03F0010102EB4202C6
:104EC00090002B4B03440B441B7A012BCAD12B7847
:104ED000264AD06800EB131001220DF10E0100F1FB
:104EE000504003F051FCBDF90E306B80BAE71378E7
:104EF00000EB131001220DF1060100F1504003F008
:104F00004DFC194B1A691B7F03F0010102EB4202B1
:104F10009000174B03440B441B7A012BA2D123783A
:104F2000124AD06800EB131001220DF10E0100F1BE
:104F3000504003F029FCBDF90E30638092E70B6806
:104F400001330B6098E7012003F060FA064B002262
:104F50001A700849012008709A709EE70023034ADE
:104F6000D360014A937098E7881400209C030020C6
:104F7000C4090020BC0300204D4B9B7803B9704747
:104F800030B583B00C4605460B784A4AD06800EB32
:104F9000131001220DF1060100F1504003F0F4FB63
:104FA000BDF906305A1912B222816380227812F0BC
:104FB000040F32D123891BB26268934202DD238938
:104FC0001BB26360237813F0080F3FD1384B5A6847
:104FD00001325A60DA683749C8680244CA605968C1
:104FE0009B68994259D3237813F0080F3BD123785B
:104FF0006FF3820323704FF07E53E36043F6FF7339
:1050000063602B4B5B7EDBB2022B42D0294B99684D
:105010005868FFF795FE03B030BD94ED037A07EEB4
:10502000903AF8EEE77A67EE277AD4ED036A07EE56
:10503000105AB8EEC77A26EE877A77EE877AFDEEB9
:10504000E77A17EE903A1BB22381B3E7214611F8B5
:10505000083B184AD06800EB1310012200F15040C1
:1050600003F09CFBB2E76368B3F5804FBFDB2378A6
:1050700043F0040323706068FBF70CFA02460B460A
:1050800009A1D1E90001FBF799FBFBF77FFCE06088
:10509000B4E7074B00229A70B8E7B2F5000FBAD117
:1050A000044B0022DA60B6E70000000080FFCF402A
:1050B000881400209C0300201D4B9B7803B9704787
:1050C00070B582B014460D461A4EF068012201A94F
:1050D00000F1504003F04EFBBDF904306B80BDF988
:1050E00006306380124B5A6801325A60D968F26800
:1050F0000A44F2605A689B689A4209D30C4B5B7E63
:10510000DBB2022B0BD00B4B99685868FFF718FEE7
:10511000084BDB68B3F5000F05D002B070BD044B3F
:1051200000229A70EFE7034B0022DA60F5E700BF38
:10513000881400209C03002008B5418801F57F51A8
:105140003F3189B21020FFF78BFD08BD08B5274B12
:10515000DB788BB1254B1B6903EB43039A00244B8F
:1051600013441B7A43B1214B1B6903EB43039A00A1
:105170001F4B13445B7A43B9037813F0010F0FD12F
:105180000B7813F0010F1ED108BD4388498843F600
:10519000FF700144184489B280B2FFF787FDF3E73E
:1051A000124B1B6903EB43039A00114B13441B7A08
:1051B000002BE5D0418801F57F513F3189B21020A5
:1051C000FFF74EFDE0E7094B1B6903EB43039A0031
:1051D000074B13445B7A002BD6D0498801F57F51E9
:1051E0003F3189B22420FFF73BFDCDE78814002032
:1051F000C4090020144BDB78DBB2012B0CD0124B1E
:105200000222DA601A7F6FF307121A7793F82C30B4
:1052100013F0010F0FD170470B4B0422DA601A7F95
:105220006FF307121A7793F82C20022161F307120B
:1052300083F82C207047044A92F82C306FF3071340
:1052400082F82C30E7E700BF8814002010B50C4B23
:1052500000249C701A7F42F001021A7793F82C20E8
:1052600064F3000283F82C20FFF7C4FF2046FFF709
:105270005BFCF020FFF742FCF120FFF73FFC10BD84
:105280008814002008B50C4B0021997093F82C204D
:1052900042F0010283F82C201A7F61F300021A7792
:1052A000FFF7A8FF0120FFF73FFCF020FFF726FCE7
:1052B000F120FFF723FC08BD8814002008B5044A3C
:1052C000D378B3FA83F35B09D370FFF793FF08BD7C
:1052D0008814002003786FF38203037003786FF360
:1052E000C303037043F6FF7343604FF07E53C36004
:1052F0000023438070470000154B9B78DBB2012BE5
:105300000BD0134A01239370124B197C1170597CF6
:10531000517000221A745A7470470D4B00229A7013
:105320001B78DBB2012B09D0094B5B78DBB2012B78
:1053300009D0074B00221A705A707047044B1A7834
:10534000044B1A74F0E7024B5A78024B5A74F0E798
:10535000881400209C03002038B50E4D00242C70CA
:105360006C70AC702C7605F11C00FFF7B3FF05F1F3
:105370002C00FFF7AFFF2046FFF7D4FC00F020F928
:10538000012003F043F8204603F040F8024B0122CD
:105390001A7038BD88140020BC03002000B583B00B
:1053A0000E480F4B036004F0F0FB60B90C23009330
:1053B0000023019310226946084804F0F1FC38B933
:1053C00003B05DF804FB4921064801F003F8EDE75E
:1053D0005221044800F0FEFFF2E700BF3C08002025
:1053E00000740040B41201080268214B9A4200D0B8
:1053F000704730B587B004460025009503F5E233C9
:105400001A6C42F000521A641B6C03F000530093B4
:10541000009B2023019303230293039501A91548C0
:1054200004F07EFF1448154B03604FF06063436047
:1054300040238360C5604FF4806303614FF40063D1
:1054400043614FF4005383614FF48073C3614FF4A1
:1054500000330362456204F05FFD20B9064BE36050
:105460009C6307B030BD7921054800F0B3FFF5E734
:10547000007400400000024050080020A06002407C
:10548000B412010810B582B0002400941A4B1A6BB4
:1054900042F400121A631A6B02F400120092009A8E
:1054A00001941A6B42F480021A631B6B03F48003AD
:1054B0000193019B02220121112004F0EFFA112037
:1054C00004F020FB03220121392004F0E7FA3920FF
:1054D00004F018FB224603213B2004F0DFFA3B20B6
:1054E00004F010FB022203213C2004F0D7FA3C20F8
:1054F00004F008FB02B010BD00380240F0B589B0DE
:1055000005460E4614460020294B1870294B18708A
:105510000146FEF7C3FE0C2101A8FEF7EDFF019B3B
:105520003360029B2B60039B23602A68002A3DD0D6
:10553000302B3BD8204B00245C601C725C7200E076
:1055400001342B68A34231D91B4F630023449E00D2
:10555000BB1900221A725A72FEF79AFEB851102136
:105560000DEB0100FEF7C8FF049B059901FB03F159
:1055700001EB81011148FEF7BFFF2B68A342DFD981
:10558000069A4EF66023B3FBF2F3394632463A44AC
:105590005068049A03FB02F3C3EB0313621C034439
:1055A00002EB4202900001444B60C9E709B0F0BD34
:1055B000B0080020A8090020C409002060130020C2
:1055C00008B5054B00221A76044806F0EEFC64206C
:1055D000FEF72AF808BD00BF88140020E41A002056
:1055E00010B482684EF66023B3FBF2F3046842689D
:1055F00002FB04F20A60026803FB02F34B60486896
:105600000A68B0FBF2F302FB13038B604B680A6875
:10561000B3FBF2F3CB605DF8044B704738B5002262
:105620000C4B1A7001EB41018B001146C058FEF77C
:1056300035FE094D10212846FEF75EFF074C214636
:105640002846FFF7CDFF216801EB81010448FEF7F2
:1056500053FF38BDB0080020301300205013002045
:105660006013002010B483680F4AD26B1A444EF6C0
:105670006023B3FBF2F30468426802FB04F20A60A1
:10568000026803FB02F34B6048680A68B0FBF2F360
:1056900002FB13038B604B680A68B3FBF2F3CB6029
:1056A0005DF8044B704700BF881400202C4B1B7E14
:1056B000DBB2012B00D070472A4B1B889BB22A4AD1
:1056C000126851688B4241D210B5264B1B889BB2A1
:1056D000916819B125490968052908D0D168B3FB3B
:1056E000F1F201FB12333BBB204B1C6804E0D16894
:1056F00092681144F3E701341C4B1B680433A34246
:105700000DD91B4B1B68195D0029F4D0144B1B7E6F
:10571000DBB2012BEFD1012002F0FEFCEBE7144BD2
:105720001B68195D21B10E4B1B7EDBB2012B09D02A
:105730000E4A1368053313600A4A138801339BB27B
:10574000138010BD012002F0F4FCF1E7094B0122A7
:105750001A700023034A1380044A1360704700BF85
:105760008814002032060020A409002050140020D4
:10577000C0090020A80900200023024A1380024A21
:1057800013607047320600205014002070B582B0BC
:105790006C4C256900236C4A13706C4A13702169A4
:1057A0006B48FFF73BFFFFF7E7FF6A4806F0F1FBA6
:1057B0000223637601232376624B1B7EDBB2012B2F
:1057C00040D1604B1A695B6901339A423AD25D4B12
:1057D00001229A705C4B1B78002B56D15E4E5F4CB9
:1057E00031462046FFF73EFF5D4B1E605D4B1C605F
:1057F0005D4B5E4A1A6001F0E9FB524B1A695B6926
:105800009A422ED14F4B1A69594C013259492046C0
:1058100008F06AFC40F21D53019300230093564B9D
:10582000224696210A20FEF783FB484B1B78002B6B
:1058300051D1444B1B7EDBB2032B03D0414B1B7E6B
:10584000002BF2D1FFF7BCFE3E4B1D61002098708B
:105850005870187002F0DAFD012002F0D7FD02B096
:1058600070BD464E10213046FEF746FE444C2146A0
:105870003046FFF7B5FE216801EB81014148FEF794
:105880003BFE314B01221A70BCE73D4E3B4C31468A
:105890002046FFF7E7FE324B1E60324B1C60324B56
:1058A000384A1A60274B1A695B699A42AAD02B4E74
:1058B00010213046FEF720FE274C21463046FFF7E8
:1058C0008FFE216801EB81012848FEF715FE1E4B73
:1058D00000221A7096E71D4B00221A70194B1B7894
:1058E000DBB2012B1AD0174B1A6901321A611A69FF
:1058F0005B6901339A427FF45FAF124B1B78DBB2D6
:10590000012B1BD00F4B1D6100220F490A700F495C
:105910000A7019690E48FFF781FE4DE7094B1969B6
:105920001B7F03F0010383F0010201EB41018800BA
:10593000074B0344134401221A72D4E7014B00229F
:105940001A707FE788140020B0080020A809002002
:10595000C4090020E41A0020501300203013002056
:10596000A4090020BC090020C00900206013002009
:1059700004170020E8120108C00000204013002096
:10598000AC090020B40800202E4B1B6803B17047FF
:105990002DE9F04186B04FF001082A4BC3F8008092
:1059A00000240094284B9A6B42EA08029A639B6B8E
:1059B00003EA08030093009B4FF63F03019302277D
:1059C00002970394032604960C25059501A91F4808
:1059D00004F0A6FCCDF80480029703940496059584
:1059E00001A91B4804F09CFC48F233130193029771
:1059F00003940496059501A9164804F091FC4FF60E
:105A000083730193029703940496059501A91248A4
:105A100004F086FC4CF203730193029703940496FE
:105A2000059501A90D4804F07BFC602301930297C2
:105A300003940496059501A9094804F071FC06B089
:105A4000BDE8F081B003002000380240001402409D
:105A5000000802400018024000100240000C024002
:105A60000004024000B589B01248134B03600123C3
:105A70004360002383600422C2600361436180228B
:105A80008261C361036243628362102301930293C4
:105A90000393049305930693079301A905F07CFDF6
:105AA00010B909B05DF804FB5A21044800F092FCDB
:105AB000F7E700BF54140020400100A0FC120108C9
:105AC00008B5FFF761FF08BD2DE9F04F8FB0002446
:105AD0000194AB4B1A6B42F010021A631A6B02F07E
