:020000040800F2
:1000000000000320491900089919000899190008EF
:1000100099190008991900089919000800000000B2
:10002000000000000000000000000000255A000849
:100030009919000800000000295A00082D5A0008EC
:10004000991900083D5A00089919000899190008E3
:100050009919000899190008595B000899190008B6
:10006000415A000899190008495A000899190008CE
:100070009919000899190008991900089919000898
:1000800099190008515A00085D5A0008991900088A
:10009000991900089919000899190008795A000857
:1000A000955A00089919000899190008991900082B
:1000B000A95A000899190008BD5A000899190008A2
:1000C0009919000899190008991900089919000848
:1000D0009919000899190008991900089919000838
:1000E000D15A0008991900089919000899190008AF
:1000F000F15A00089919000899190008991900087F
:100100009919000899190008991900089919000807
:1001100099190008991900089919000899190008F7
:1001200099190008295B000899190008355B000837
:10013000415B0008991900089919000899190008ED
:1001400099190008991900089919000899190008C7
:1001500099190008991900089919000899190008B7
:1001600099190008991900089919000899190008A7
:10017000991900084D5B000899190008000000005B
:100180009919000899190008991900089919000887
:100190009919000899190008991900089919000877
:0C01A00099190008991900089919000825
:1001B00010B5054C237833B9044B13B10448AFF3A1
:1001C00000800123237010BD1402002000000000F5
:1001D000F4BA000808B5034B1BB103490348AFF359
:1001E000008008BD0000000018020020F4BA0008DA
:1001F00081F0004102E000BF83F0004330B54FEAD8
:1002000041044FEA430594EA050F08BF90EA020F44
:100210001FBF54EA000C55EA020C7FEA645C7FEAD7
:10022000655C00F0E2804FEA5454D4EB5555B8BFFA
:100230006D420CDD2C4480EA020281EA030382EA6B
:10024000000083EA010180EA020281EA0303362DFD
:1002500088BF30BD11F0004F4FEA01314FF4801CD0
:100260004CEA113102D0404261EB410113F0004FE2
:100270004FEA03334CEA133302D0524263EB430399
:1002800094EA050F00F0A780A4F10104D5F1200E37
:100290000DDB02FA0EFC22FA05F2801841F1000192
:1002A00003FA0EF2801843FA05F359410EE0A5F166
:1002B00020050EF1200E012A03FA0EFC28BF4CF097
:1002C000020C43FA05F3C01851EBE37101F000454D
:1002D00007D54FF0000EDCF1000C7EEB00006EEB5A
:1002E0000101B1F5801F1BD3B1F5001F0CD34908E4
:1002F0005FEA30004FEA3C0C04F101044FEA44523B
:1003000012F5800F80F09A80BCF1004F08BF5FEAC1
:10031000500C50F1000041EB045141EA050130BDA1
:100320005FEA4C0C404141EB010111F4801FA4F144
:100330000104E9D191F0000F04BF01460020B1FA99
:1003400081F308BF2033A3F10B03B3F120020CDAD1
:100350000C3208DD02F1140CC2F10C0201FA0CF0AF
:1003600021FA02F10CE002F11402D8BFC2F1200C14
:1003700001FA02F120FA0CFCDCBF41EA0C019040CA
:10038000E41AA2BF01EB0451294330BD6FEA040413
:100390001F3C1CDA0C340EDC04F11404C4F12002FE
:1003A00020FA04F001FA02F340EA030021FA04F310
:1003B00045EA030130BDC4F10C04C4F1200220FA67
:1003C00002F001FA04F340EA0300294630BD21FAA5
:1003D00004F0294630BD94F0000F83F4801306BF6B
:1003E00081F480110134013D4EE77FEA645C18BF5F
:1003F0007FEA655C29D094EA050F08BF90EA020FF6
:1004000005D054EA000C04BF1946104630BD91EAED
:10041000030F1EBF0021002030BD5FEA545C05D1F0
:100420004000494128BF41F0004130BD14F580042F
:100430003CBF01F5801130BD01F0004545F0FE41A3
:1004400041F470014FF0000030BD7FEA645C1ABFD8
:10045000194610467FEA655C1CBF0B46024650EA0F
:10046000013406BF52EA033591EA030F41F400213B
:1004700030BD00BF90F0000F04BF0021704730B5C1
:100480004FF4806404F132044FF000054FF0000196
:1004900050E700BF90F0000F04BF0021704730B557
:1004A0004FF4806404F1320410F0004548BF40422C
:1004B0004FF000013EE700BF42004FEAE2014FEA81
:1004C00031014FEA02701FBF12F07F4393F07F4F5C
:1004D00081F06051704732F07F4208BF704793F05F
:1004E0007F4F04BF41F40021704730B54FF4607472
:1004F00001F0004521F000411CE700BF50EA010275
:1005000008BF704730B54FF000050AE050EA01021D
:1005100008BF704730B511F0004502D5404261EB8D
:1005200041014FF4806404F132045FEA915C3FF4CE
:10053000D8AE4FF003025FEADC0C18BF03325FEA6B
:10054000DC0C18BF033202EBDC02C2F1200300FA1C
:1005500003FC20FA02F001FA03FE40EA0E0021FA41
:1005600002F11444BDE600BF70B54FF0FF0C4CF42F
:10057000E06C1CEA11541DBF1CEA135594EA0C0FE1
:1005800095EA0C0F00F0DEF82C4481EA030621EA1C
:100590004C5123EA4C5350EA013518BF52EA033557
:1005A00041F4801143F4801338D0A0FB02CE4FF009
:1005B0000005E1FB02E506F00042E0FB03E54FF039
:1005C0000006E1FB03569CF0000F18BF4EF0010E31
:1005D000A4F1FF04B6F5007F64F5407404D25FEA2D
:1005E0004E0E6D4146EB060642EAC62141EA5551E0
:1005F0004FEAC52040EA5E504FEACE2EB4F1FD0C22
:1006000088BFBCF5E06F1ED8BEF1004F08BF5FEA9F
:10061000500E50F1000041EB045170BD06F0004651
:1006200046EA010140EA020081EA0301B4EB5C04FE
:10063000C2BFD4EB0C0541EA045170BD41F48011F6
:100640004FF0000E013C00F3AB8014F1360FDEBF1B
:10065000002001F0004170BDC4F10004203C35DAF7
:100660000C341BDC04F11404C4F1200500FA05F37A
:1006700020FA04F001FA05F240EA020001F000421B
:1006800021F0004110EBD37021FA04F642EB060191
:100690005EEA430E08BF20EAD37070BDC4F10C04BB
:1006A000C4F1200500FA04F320FA05F001FA04F27F
:1006B00040EA020001F0004110EBD37041F100016B
:1006C0005EEA430E08BF20EAD37070BDC4F1200576
:1006D00000FA05F24EEA020E20FA04F301FA05F2DE
:1006E00043EA020321FA04F001F0004121FA04F286
:1006F00020EA020000EBD3705EEA430E08BF20EA56
:10070000D37070BD94F0000F0FD101F0004640008F
:1007100041EB010111F4801F08BF013CF7D041EA11
:10072000060195F0000F18BF704703F00046520015
:1007300043EB030313F4801F08BF013DF7D043EAE6
:100740000603704794EA0C0F0CEA135518BF95EA9C
:100750000C0F0CD050EA410618BF52EA4306D1D123
:1007600081EA030101F000414FF0000070BD50EA42
:10077000410606BF1046194652EA430619D094EACC
:100780000C0F02D150EA013613D195EA0C0F05D1B6
:1007900052EA03361CBF104619460AD181EA03010A
:1007A00001F0004141F0FE4141F470014FF00000C2
:1007B00070BD41F0FE4141F4780170BD70B54FF05D
:1007C000FF0C4CF4E06C1CEA11541DBF1CEA1355DD
:1007D00094EA0C0F95EA0C0F00F0A7F8A4EB0504BF
:1007E00081EA030E52EA03354FEA013100F08880B6
:1007F0004FEA03334FF0805545EA131343EA12637F
:100800004FEA022245EA111545EA10654FEA002633
:100810000EF000419D4208BF964244F1FD0404F5EC
:10082000407402D25B084FEA3202B61A65EB030548
:100830005B084FEA32024FF480104FF4002CB6EB05
:10084000020E75EB030E22BFB61A754640EA0C0085
:100850005B084FEA3202B6EB020E75EB030E22BFC5
:10086000B61A754640EA5C005B084FEA3202B6EB06
:10087000020E75EB030E22BFB61A754640EA9C00C5
:100880005B084FEA3202B6EB020E75EB030E22BF95
:10089000B61A754640EADC0055EA060E18D04FEA53
:1008A000051545EA16754FEA06164FEAC30343EAF3
:1008B00052734FEAC2025FEA1C1CC0D111F4801FC0
:1008C0000BD141EA00014FF000004FF0004CB6E7B9
:1008D00011F4801F04BF01430020B4F1FD0C88BF58
:1008E000BCF5E06F3FF6AFAEB5EB030C04BFB6EB63
:1008F000020C5FEA500C50F1000041EB045170BD56
:100900000EF0004E4EEA113114EB5C04C2BFD4EB82
:100910000C0541EA045170BD41F480114FF0000E06
:10092000013C90E645EA060E8DE60CEA135594EA82
:100930000C0F08BF95EA0C0F3FF43BAF94EA0C0F85
:100940000AD150EA01347FF434AF95EA0C0F7FF4FA
:1009500025AF104619462CE795EA0C0F06D152EA4E
:1009600003353FF4FDAE1046194622E750EA410632
:1009700018BF52EA43067FF4C5AE50EA41047FF443
:100980000DAF52EA43057FF4EBAE12E74FEA4102A6
:10099000B2F1E04324BFB3F5001CDCF1FE5C0DD9DD
:1009A00001F0004C4FEAC0024CEA5070B2F1004F27
:1009B00040EB830008BF20F00100704711F0804F2A
:1009C00021D113F13872BCBF01F00040704741F4EF
:1009D00080114FEA5252C2F11802C2F1200C10FAF3
:1009E0000CF320FA02F018BF40F001004FEAC123D7
:1009F0004FEAD32303FA0CFC40EA0C0023FA02F37B
:100A00004FEA4303CCE77FEA625307D150EA013350
:100A10001EBF4FF0FE4040F44000704701F0004020
:100A200040F0FE4040F40000704700BF53B94AB99F
:100A3000002908BF00281CBF4FF0FF314FF0FF30E6
:100A400000F072B9ADF1080C6DE904CE00F006F8C3
:100A5000DDF804E0DDE9022304B070472DE9F0473A
:100A6000089E04468846002B4BD18A42154667D91A
:100A7000B2FA82F24AB1C2F1200701FA02F320FA77
:100A800007F7954047EA030894404FEA154E230CB8
:100A9000B8FBFEF71FFA85FC0EFB178843EA0843F4
:100AA00007FB0CF1994209D9EB1807F1FF3080F0F0
:100AB0001B81994240F21881023F2B445B1AA4B279
:100AC000B3FBFEF00EFB103344EA034400FB0CFCC6
:100AD000A44509D92C1900F1FF3380F00781A44502
:100AE00040F2048102382C4440EA0740A4EB0C0495
:100AF00000271EB1D4400023C6E900433946BDE8B3
:100B0000F0878B4209D9002E00F0EB800027C6E960
:100B1000000138463946BDE8F087B3FA83F7002F65
:100B200047D18B4202D3824200F2FA80841A61EBF1
:100B3000030301209846002EE0D0C6E90048DDE717
:100B400002B9FFDEB2FA82F2002A40F08F80491B20
:100B50004FEA154E1FFA85F80127B1FBFEFC230C66
:100B60000EFB1C1143EA014308FB0CF1994207D923
:100B7000EB180CF1FF3002D2994200F2CD8084468E
:100B8000591AA3B2B1FBFEF00EFB101443EA044461
:100B900008FB00F8A04507D92C1900F1FF3302D259
:100BA000A04500F2B6801846A4EB080440EA0C40C9
:100BB0009FE7C7F1200CBB4022FA0CFE4EEA030E61
:100BC00001FA07F420FA0CF521FA0CF34FEA1E485B
:100BD0002543B3FBF8F92C0C08FB19331FFA8EFAE6
:100BE00044EA034309FB0AF49C4202FA07F200FAC2
:100BF00007F10BD91EEB030309F1FF3080F087806A
:100C00009C4240F28480A9F1020973441B1BADB2DF
:100C1000B3FBF8F008FB103345EA034400FB0AFA83
:100C2000A24508D91EEB040400F1FF336BD2A245A4
:100C300069D90238744440EA0940A0FB0289A4EB58
:100C40000A044C45C2464B4654D351D0002E69D0BD
:100C5000B1EB0A0564EB030404FA0CFCFD40FC4014
:100C60004CEA0505C6E90054002747E7C2F1200316
:100C700020FA03F7954001FA02F021FA03F34FEA54
:100C8000154E3843010CB3FBFEF71FFA85F80EFB37
:100C9000173341EA034107FB08F38B4204FA02F4DD
:100CA00007D9691807F1FF3C2FD28B422DD9023F9B
:100CB0002944CB1A81B2B3FBFEF00EFB103341EA9C
:100CC000034100FB08F38B4207D9691800F1FF3C90
:100CD00017D28B4215D902382944C91A40EA07476E
:100CE0003BE73746304609E70746E7E61846FBE6A6
:100CF0004145ABD2B8EB020A69EB0E02013813464C
:100D0000A4E76046E9E7184695E76746D1E78146DC
:100D10007CE702382C4447E7ACF1020C2B442FE768
:100D2000384608E73746E9E6704700BF0000000094
:100D300001F0FF01102A2BDB10F0070F08D010F88C
:100D4000013B013A8B422DD010F0070F42B3F6D190
:100D5000F0B441EA012141EA014122F007047FF0A9
:100D600000070023F0E80256083C85EA010586EA00
:100D7000010685FA47F5A3FA87F586FA47F6A5FA3C
:100D800087F68EB9EED1F0BC01F0FF0102F0070248
:100D900032B110F8013B013A83EA010313B1F8D1F3
:100DA0000020704701387047002D06BF35460338D4
:100DB000073815F0010F07D1013015F4807F02BF0D
:100DC000013015F4C03F0130F0BC0138704700BF5E
:100DD00001220421014806F08FBA00BF0010024032
:100DE0002DE9F04184B00E46642517460421002207
:100DF0000446284806F080FA4FF0030C0DF10F026C
:100E000001230DF10D01009523488DF80DC007F069
:100E1000EDFD04A9330C01F8043D0DF10F0201238F
:100E200000951D4807F0E2FD04A9330A01F8053DCD
:100E30000DF10F0201230095174807F0D7FD04A913
:100E400000950DF10F0201F8066D0123124807F01D
:100E5000CDFDBFB17E1EB6B20136DFF83C80264420
:100E6000FF27012300950DF10F020DF10E01404601
:100E70008DF80E7007F0BAFD9DF80F3004F8013BB5
:100E8000B442EED101220421024806F035FA04B042
:100E9000BDE8F08100100240C818002030B50D4CAC
:100EA00085B020460022042106F026FA6423009330
:100EB0000DF10F0201230DF10E01062506488DF8F4
:100EC0000E5007F093FD20460122042106F014FA8B
:100ED00005B030BD00100240C818002070B50022D7
:100EE00084B004211348144E06F006FA6424052049
:100EF0008DF80D000DF10F02009401230DF10D018D
:100F0000304607F073FDFF25012300940DF10F0219
:100F10000DF10E0130468DF80E5007F067FD9DF87B
:100F20000F30DB07F0D401220421024806F0E4F977
:100F300004B070BD00100240C8180020F0B5214F69
:100F4000214C85B006466425FFF7A8FF38460022ED
:100F5000042106F0D1F94FF0D80C0DF10F020DF17C
:100F60000E012046009501238DF80EC007F03EFDCE
:100F700004A9330C01F8033D0DF10F020095204642
:100F8000012307F033FD04A9330A01F8043D0DF1F4
:100F90000F0200952046012307F028FD04A9012334
:100FA00000950DF10F0201F8056D204607F01EFDBA
:100FB00038460122042106F09FF9FFF78FFF05B0A4
:100FC000F0BD00BF00100240C8180020F0B5214F4E
:100FD000214C85B006466425FFF760FF38460022A5
:100FE000042106F089F94FF0200C0DF10F020DF1EC
:100FF0000E012046009501238DF80EC007F0F6FC87
:1010000004A9330C01F8033D0DF10F0200952046B1
:10101000012307F0EBFC04A9330A01F8043D0DF1AC
:101020000F0200952046012307F0E0FC04A90123EC
:1010300000950DF10F0201F8056D204607F0D6FC72
:1010400038460122042106F057F9FFF747FF05B0A3
:10105000F0BD00BF00100240C81800204318B3F1D3
:10106000007F09D840EA0103C3F30B0370B50546BE
:101070000C461BB1012070BD0120704783B26BB9D3
:101080008BB299420AD00E46A6F580362846B4B2F5
:10109000FFF754FFB44205F58035F5D1C4F30B03D7
:1010A0009C420AD0A4F580542846FFF78FFFC4F372
:1010B0000B03A34205F58055F4D1002070BD00BF9D
:1010C0002DE9F04184B00E46642517460446FFF72B
:1010D000E5FE00220421284806F00EF94FF0020C2C
:1010E0000DF10F0201230DF10D01009523488DF83C
:1010F0000DC007F07BFC04A9330C01F8043D0DF191
:101100000F02012300951D4807F070FC04A9330A63
:1011100001F8053D0DF10F0201230095174807F076
:1011200065FC04A900950DF10F0201F8066D01237D
:10113000124807F05BFCA7B17E1EB6B20136DFF89D
:101140003C80264414F8017B009501230DF10F0229
:101150000DF10E0140468DF80E7007F047FCB442C9
:10116000F0D101220421044806F0C6F8FFF7B6FECC
:1011700004B0BDE8F08100BF00100240C818002094
:101180002DE9F8431646130A11F0FF020D460746F3
:101190001ED17BB3013B5FFA83F83C4608F10100A6
:1011A00007EB0027A1EB04094FF4807204EB09015F
:1011B00020461444FFF784FFBC42F5D105F5807149
:1011C00001EB0821F2B22046BDE8F843FFF778BFF3
:1011D0005442E4B2ABB9F3B29C420BD21A44D6B239
:1011E0002246FFF76DFF324661193819BDE8F84312
:1011F000FFF766BF324629463846BDE8F843FFF799
:101200005FBFA2B2B61AB6B24FEA16295FFA89F8E2
:1012100008F1FF38FFF754FFF6B2254438195FFA9A
:1012200088F8B9F1000F1ED008F10107044600EB61
:101230000727A5EB00094FF4807204EB0901204653
:101240001444FFF73DFFBC42F5D105F5807505EB71
:1012500008250EB9BDE8F883324629462046BDE888
:10126000F843FFF72DBF0446F3E700BFF0B5D1E91F
:10127000026333401BD091F800C0BCF1000F1BD0BB
:101280000D6900F1140700234FF0010E0EFA03F46C
:10129000344203F10103284606D095F90040002CA2
:1012A00002DB2C89944204D063453D44EED10020FA
:1012B000F0BD4B686B60F0BD6046F0BD2DE9F84FA6
:1012C000C66DD6E902138B4302D00020BDE8F88F2B
:1012D0003578002D44D03769D0F81CC0D6F804A06A
:1012E0004FF000083C460CF1140942464FF0FF3E17
:1012F0006368AAEB0303434506D994F900B0BBF138
:10130000000FA4BF984696460132AA424C44EFD142
:10131000BEF1FF3FD9D04FF0010808FA0EF818EAE5
:1013200001051DD009FB0EF907EB090317F8095059
:101330002A0618D415F0010517D01D8901694368E4
:1013400009F114020CFB05103A4461469847B16854
:1013500021EA08010023B16007F80930BDE8F88FE1
:101360002846BDE8F88F0020F2E72846F0E700BFE6
:101370002DE9F04F04461E46E56D0069E36981B032
:10138000321A8946B2FBF3F2184692B22946DDE9D9
:101390000A78FFF76BFF6A68013282466A6060B9BB
:1013A00009F00309B9F1010F25D1236842463946F6
:1013B000304601B0BDE8F04F1847606E2369E1691F
:1013C0002D6901306066F61A9AF80100B6FBF1F358
:1013D00001FB13631433143101FB0031CAF80420FC
:1013E00040463A46294409F03FFA4FF00009484682
:1013F00001B0BDE8F08FA36E0133A3662046FFF76E
:101400005DFFE26D9368591C814608D1236842460E
:10141000394630469847002818BF8146E7E71078DC
:101420000028F3D013F0010CE16945D04FF0010C16
:101430000AF1010A82450CFA0AFBE7D013EA0B0F06
:10144000F6D101F1140000FB0AFCD2F810E043EAE7
:101450000B030EEB0C0A93605368CAF804300223A6
:101460000EF80C3023699AF80120D5F810C0F31A51
:1014700000FB02F2B3FBF1FE143201FB1E33F01A43
:1014800062442368AAF808E098472369E2699AF859
:1014900001402969F61AB6FBF2F302FB1363143319
:1014A000143202FB0433002818BF81463A464046F6
:1014B000194409F0D9F99AE701F114004FF0010B32
:1014C000C3E700BFD0F85CC0BCF1000F47D0F0B557
:1014D000C369056E1433143DB5FBF3F5002D87B0D9
:1014E0003BDD0022134601325B00954243F00103CD
:1014F000F9D10024CDE901440CF1140E4FF0FF3274
:101500008DF804500493CDF814E0039201AE074621
:101510000FCECCF810E0CCF80000CCF80410CCF8DA
:101520000820CCF80C30FE6DFB693278306914333A
:1015300002FB03F209F0A3F9D6E9023215F0FF0528
:1015400023EA0203B36008D0F969326914312346F3
:10155000537001339D420A44FAD107B0F0BD704781
:101560002DE9F84F0D4604469246002180221F4681
:10157000D0F878B0DDF83080DDE90A6909F07FF94C
:1015800029686A68A868EB68E36021606260A0600F
:10159000EB6929696A69A869E361E369A061534459
:1015A00021616261C4E90D3AA269E368C4F878B0C8
:1015B000B3FBF2F3384623623246002109F05FF9AB
:1015C00017F0030303D0C3F104031F44F61A184BAA
:1015D000E763A3FB0636760919F00303266404D0FB
:1015E000C3F104039944A8EB0308E369C4F85C90D1
:1015F00018F0030F4FEA431318BF28F003084345C0
:1016000028BF434623662046FFF75CFF094BE3678C
:10161000204600F025F9002807DB01230D9A84F805
:101620007430E2660020BDE8F88F6064BDE8F88F92
:10163000ABAAAAAA150309204FF6FF7291420AD05D
:1016400021B1C36C0133C36406487047036D013395
:10165000036504487047002BF6D1836C0133836423
:1016600000487047AAD8FFFF2DE9F04F05461746FE
:10167000D5F81CC08069B0FBFCF25400B4FBFCF44C
:10168000002C8BB008BF01246E6BD5F820E00896C3
:10169000141BBDF850600596BC428B46049304FBB6
:1016A0000EF94FEA5C0A0DDC4B1C1FFA83FBDE458A
:1016B00000F2A680049B13F0040740F09D8007977A
:1016C000BB4602E000FB01F30793B9F1000F40F3C2
:1016D0009380CAEBCA735B000993049B03F0010378
:1016E0000293634697FBFAF1089C069101FB0AF806
:1016F000C8EBC87104EB4101039152000699B2FB9B
:10170000F3F2002A08BF01228A4240F38C802A6942
:101710000798696B0191024406980093142103FB1A
:10172000002300222846FFF723FE002859D1D5E9DF
:1017300006033C464E46B0FBF3F2159F07E00399C3
:1017400031F814C005998C4514D0013E0134A4EB46
:10175000080CE2454FEA4201A646B1FBF3F1B1465F
:1017600053DD002908BF0121511AA1424DDD029924
:101770000029E4D1189B0BB1A3F800B0199B03B169
:101780001C60002F4BD0049B9A0756BF039B059902
:1017900033F81410179B0193169B00935A46234667
:1017A0002846B84700F51D531733012B25D82A4A80
:1017B000EB69904203D0A869B0FBF3F2C5E72A6950
:1017C0000798696B0191024406980093142100FB6D
:1017D000032300222846FFF7CBFD00280DDBEB6931
:1017E000E9E70BF101032A6A9BB2934202D3049BFF
:1017F0005B0701D4002800DB18480BB0BDE8F08F70
:101800000BFB00F3079300275FE70699099C013162
:101810000691039921447746D04403916DE71598CA
:101820000BB0BDE8F08F0BF1010B2A6A1FFA8BFB9E
:101830005A4509D9079A02440792B9F1000FDBDD36
:10184000B0FBF3F200274DE7049A12F0040BD3D15A
:10185000CDF81CB0F1E700BFA9D8FFFFA8D8FFFF63
:101860002DE9F04F036A89B04FF000080646ADF845
:101870001A80002B5ED044464FF6FF790DF11C0A0A
:101880004FF0020B12E0BDF81C30934205D0994591
:1018900028BF9946984538BF9846BDF81A40326A25
:1018A0000134A4B29442ADF81A401CD2D6E906C362
:1018B0003769BCFBF3F5023F6D000022152130466D
:1018C00004FB0C74B5FBF3F50DB105FB03F3CDE997
:1018D00000BA2344FFF74CFD00284FF6FF72D2DA1E
:1018E00009B0BDE8F08FA8EB0903B3F5004FB4BF12
:1018F00008F1010809F101081FFA88F800230DF129
:101900001A050F4CA6F856801A46CDF814A01946B1
:10191000C6E9123333653046CDE9023300930495AE
:101920000194FFF7A1FE074B984208BF002009B0C1
:10193000BDE8F08F4FF001080DF11C0ADEE700BF93
:1019400039160008A8D8FFFFDFF834D0002103E0E3
:101950000C4B5B58435004310B480C4B42189A42D5
:10196000F6D30B4A02E0002342F8043B094B9A42AB
:10197000F9D304F0C1FC08F043FF02F053FE7047B6
:101980000000032068E90008000000201402002085
:101990001402002090240020FEE70000704700BFE2
:1019A00070B5174EB3690133B361F36913B1F369CD
:1019B000013BF361337803B30024A50073195B681E
:1019C000B3B11A789207184612D59A68511E0AB117
:1019D000996069B93544D3E9032190476A6813785F
:1019E0005168916013F0010102D161F3410313705A
:1019F00001343378E4B2A342DFD8FFF7CFFF70BDE4
:101A000030020020EFF305833BB1074A20B1136891
:101A1000DB03FCD50138F9E77047044A9169936903
:101A20005B1A8342FBD3704710E000E030020020D5
:101A3000014B9869704700BF3002002038B5054659
:101A4000164C1748C5F3C002802105F055FCC5F3BC
:101A500080022046402105F04FFCC5F3400220469D
:101A6000802105F049FC05F0010220464FF4807109
:101A700005F042FC204601224FF4007105F03CFCC9
:101A8000142001F0A1F9204600224FF4007105F066
:101A900033FC1420BDE8384001F096B9000802403C
:101AA0000018024010B5002204464FF48071064829
:101AB00005F022FC2009FFF7C1FF04F00F00BDE88C
:101AC0001040FFF7BBBF00BF0000024010B40C4B3A
:101AD0000C4ADC7883B08C420192024609D800217E
:101AE00040F080005A71997103B05DF8044BFFF724
:101AF000D9BF02A8084410F8040C1044C0B2EFE7A4
:101B0000500200200040145410B5012204464FF446
:101B10008071064805F0F0FB2009FFF78FFF04F005
:101B20000F00BDE81040FFF789BF00BF0000024072
:101B300070B500220D4606464FF480713248334C92
:101B400005F0DAFB00224FF40071314805F0D4FBB8
:101B500000224FF480712E4805F0CEFB0022802138
:101B60002B4805F0C9FB00224021294805F0C4FBA1
:101B700000228021274805F0BFFB4AF6C87001F01B
:101B800023F9012D4FF000036371A3714FF003009F
:101B900088BF082363702671E570FFF74FFF41F29D
:101BA000941001F011F90320FFF748FF41F294105F
:101BB00001F00AF90320FFF741FF41F2941001F010
:101BC00003F90220FFF73AFF642001F0FDF8607886
:101BD00040F02000FFF766FF04230C202370FFF77E
:101BE00061FF0120FFF75EFF40F6B83001F0ECF82E
:101BF00002230620A370FFF755FF41F29410BDE8C1
:101C0000704001F0E1B800BF000002405002002027
:101C1000000802400018024008B50120FFF742FF0B
:101C200040F6B830BDE8084001F0CEB870B51546B2
:101C3000FFF74CFF2B786BB3194C00260DE02B7887
:101C40000A2B18461AD00D2B25D0FFF75DFF6379BC
:101C50000133637115F8013FE3B1627923799A4248
:101C6000EDD3A37966710133DBB219460020A3716D
:101C7000FFF72CFF2B780A2B1846E4D1A379607963
:101C80000133DBB21946A371FFF720FF15F8013FBE
:101C9000002BE2D170BDA1790020FFF717FFD9E733
:101CA0005002002030B583B002AC0D4D04F8010D98
:101CB00000224FF400510B4805F01EFB284600227D
:101CC000042105F019FB214664230122064806F091
:101CD0002BFD28460122042105F00EFB03B030BD88
:101CE00000080240000C0240C818002030B583B044
:101CF00002AC0D4D04F8010D01224FF400510B48C8
:101D000005F0FAFA28460022042105F0F5FA2146EA
:101D100064230122064806F007FD2846012204211B
:101D200005F0EAFA03B030BD00080240000C0240A2
:101D3000C818002010B500224FF48051994805F0D2
:101D4000DBFA44F62063013BFDD101224FF48051C0
:101D5000944805F0D1FA44F62063013BFDD10120FF
:101D6000FFF7A0FF4CF25034013CFDD1CB20FFF730
:101D700099FF3920FFF7BAFF2C20FFF7B7FF204665
:101D8000FFF7B4FF3420FFF7B1FF0220FFF7AEFFEB
:101D9000CF20FFF787FF2046FFF7A8FFC120FFF7FE
:101DA000A5FF3020FFF7A2FFE820FFF77BFF85208B
:101DB000FFF79CFF2046FFF799FF7820FFF796FF7B
:101DC000EA20FFF76FFF2046FFF790FF2046FFF75E
:101DD0008DFFED20FFF766FF6420FFF787FF0320EC
:101DE000FFF784FF1220FFF781FF8120FFF77EFFBE
:101DF000F720FFF757FF2020FFF778FFC020FFF7FD
:101E000051FF2320FFF772FFC120FFF74BFF102087
:101E1000FFF76CFFC520FFF745FF3E20FFF766FF89
:101E20002820FFF763FFC720FFF73CFF8620FFF75E
:101E30005DFF3620FFF736FF4820FFF757FF3A20B7
:101E4000FFF730FF5520FFF751FFB120FFF72AFFC2
:101E50002046FFF74BFF1820FFF748FFB620FFF79B
:101E600021FF0820FFF742FF8220FFF73FFF2720D6
:101E7000FFF73CFFF220FFF715FF2046FFF736FF84
:101E80002A20FFF70FFF2046FFF730FF2046FFF71D
:101E90002DFF2046FFF72AFFEF20FFF727FF2B201B
:101EA000FFF700FF2046FFF721FF2046FFF71EFF48
:101EB0000120FFF71BFF3F20FFF718FF2620FFF749
:101EC000F1FE0120FFF712FFE020FFF7EBFE0F20ED
:101ED000FFF70CFF3120FFF709FF2B20FFF706FF6C
:101EE0000C20FFF703FF0E20FFF700FF0820FFF78D
:101EF000FDFE4E20FFF7FAFEF120FFF7F7FE372038
:101F0000FFF7F4FE0720FFF7F1FE1020FFF7EEFECB
:101F10000320FFF7EBFE0E20FFF7E8FE0920FFF796
:101F2000E5FE2046FFF7E2FEE120FFF7BBFE20467C
:101F3000FFF7DCFE0E20FFF7D9FE1420FFF7D6FED8
:101F40000320FFF7D3FE1120FFF7D0FE0720FFF795
:101F5000CDFE3120FFF7CAFEC120FFF7C7FE4820A3
:101F6000FFF7C4FE0820FFF7C1FE0F20FFF7BEFEFB
:101F70000C20FFF7BBFE3120FFF7B8FE3620FFF73D
:101F8000B5FE0F20FFF7B2FE1120FFF78BFE064BC8
:101F9000013BFDD12920FFF785FE2C20BDE8104034
:101FA000FFF780BE000C024040420F00F8B5074624
:101FB0002A200D4616461C46FFF774FE380AFFF726
:101FC00095FEF8B2FFF792FE300AFFF78FFEF0B2EF
:101FD000FFF78CFE2B20FFF765FE280AFFF786FE31
:101FE000E8B2FFF783FE200AFFF780FEE0B2BDE80B
:101FF000F840FFF77BBE00BF10B50B461446024603
:10200000FFF7D4FF2C20FFF74DFEC4F30720FFF7A6
:102010006DFEE0B2BDE81040FFF768BE2DE9F0416B
:1020200082B00746BDF820408DF80540240A0D46D1
:1020300016468DF804401C46FFF7B8FF2C20FFF72A
:1020400031FE631B0133002204212848DFF8A480FD
:10205000F61B06FB033705F04FF901224FF4005140
:10206000234805F049F9D8F800301A6822F04002F8
:102070001A601A684FF4006142F04002B7F5803FE1
:10208000C8F80C101A602DD34FF6FF7401AD464608
:1020900002222946304606F0B7FC013CF8D1A7F5EC
:1020A0007F47FF3F134E01370124013402222946A6
:1020B000304606F0A9FCBC42F7D1012204210B48AE
:1020C00005F01AF9D8F800301A6822F040021A60B8
:1020D0001A68002142F04002C8F80C101A6002B0E1
:1020E000BDE8F081002FE8D001ADDBE70008024039
:1020F000000C0240C818002000B5074B1A885B8806
:1021000083B0002180B2013A009092B20846FFF7F6
:1021100085FF03B05DF804FBA00D002030B501225F
:1021200083B004210E480F4C05F0E6F8FFF702FEDD
:102130000D480E4A00234FF6FF7100914FF4A07531
:1021400019460380138018460122F0232380227150
:102150002B46EF226580FFF761FF03B030BD00BF63
:1021600000080240A00D0020A60D00209C0D0020BC
:1021700010B504463620FFF795FD74B1012C1CD034
:10218000022C16D0032C1CD0104B4FF4A070F02161
:102190000022188059801A7110BD5820FFF7A6FD43
:1021A0000A4BF0204FF4A0710122188059801A7157
:1021B00010BD2820FFF79AFDE6E78820FFF796FD7F
:1021C000EEE7E820FFF792FDDEE700BFA00D00205C
:1021D0002DE9F04F2F4FDFF8C4803880A8F80010A9
:1021E0002D4C93F800E0248893F801C083B000EBF5
:1021F0000E051E46A54201EB0C03DDF83090924619
:102200009BB208DD9C440020A8F8003019467546B2
:102210001FFA8CF338800D9A94B20094AAB2FFF79B
:10222000FDFE72787AB333783888AAF1200A19460D
:102230004FF0000B0AFB02B4756835F81450CBB1AF
:10224000002403E00134A342194612D905FA04F22E
:102250001204F7D5B8F800102044594480B289B26E
:102260004A46FFF7C9FE337838880134A34219463D
:10227000ECD872780BF1010B5A45DBD80844388052
:1022800003B0BDE8F08F317838880844388003B057
:10229000BDE8F08F9C0D0020A00D0020A60D0020B1
:1022A0002DE9F04F1B4F1C4E824610463180A7F897
:1022B00000A083B00178DDF83090DDF834801D4651
:1022C0004FF0000B441C2B460A4681B10A2911D05D
:1022D0000D2905D038883188CDE90098FFF778FFBF
:1022E00020460178441C2B460A460029EED103B053
:1022F000BDE8F08F32886B78013213443380437825
:102300000D2B06BF841CA7F800B0A7F800A020463C
:10231000E7E700BF9C0D0020A60D0020014B185CD4
:10232000704700BF18000020094B187CFF280BD015
:102330005A7CFE2A09D0074910B4FE2200240C80E2
:102340005A745DF8044B70477047FF20704700BF18
:10235000180000205802002010B5012204464FF456
:1023600080511C4804F0C8FF01222021194804F0C4
:10237000C3FF01224021174804F0BEFF01224FF4A1
:102380000051154804F0B8FF012C1BD0022C12D0CC
:10239000032C09D0042C1CD100224FF400510E480C
:1023A000BDE8104004F0A8BF002240210948BDE864
:1023B000104004F0A1BF002220210648BDE81040D3
:1023C00004F09ABF002210210248BDE8104004F03A
:1023D00093BF10BD00100240000802400020FFF72C
:1023E000BBBF00BF10B54FF480710446134804F022
:1023F0007DFF18B912482044C07C10BD80210F48D1
:1024000004F074FF18B90E482044C07D10BD4FF48D
:1024100080610C4804F06AFF18B909482044C07E66
:1024200010BD4FF40071054804F060FF18B904486E
:102430002044C07F10BDFF2010BD00BF000402403B
:10244000180000200018024008B50120FFF784FFA3
:102450000120FFF7C7FFFF2800D008BD0220FFF7CB
:102460007BFF0220FFF7BEFFFF28F6D10320FFF716
:1024700073FF0320FFF7B6FFFF28EED10420FFF71C
:102480006BFF0420BDE80840FFF7ACBF08B5FFF7BD
:10249000DBFF0D4A0D491388087401339BB2B3F575
:1024A000FA7F0ED30023FF28138005D093780133E1
:1024B000DBB2042B937001D100239370FF234B7484
:1024C00008BD138008BD00BF58020020180000207E
:1024D000014B9869704700BF5C020020012922D09F
:1024E00017D3022914D1124B9A691044B0F5801FFA
:1024F00001D3C0F31300C0F31001C0F34B12986175
:10250000C0F34740C3E90412187783F820007047EE
:102510007047074B0022B0F5801FC3E9042283F8FF
:102520002020E6D2E7E7024BC0F58010F2E700BFBB
:102530005C020020012922D017D3022914D1124BAA
:102540009A681044B0F5801F01D3C0F31300C0F3A4
:102550001001C0F34B129860C0F34740C3E900126A
:10256000187383F8200070477047074B0022B0F5BE
:10257000801FC3E9002283F82020E6D2E7E7024B60
:10258000C0F58010F2E700BF5C020020014B9868A4
:10259000704700BF5C02002038B50C4C0C480D4D54
:1025A000002384F82030082102E055F82300118C24
:1025B000012204F0A1FE94F820300133DBB2072B96
:1025C00005EB430284F82030EFD938BD5C020020CF
:1025D0000018024020E300082DE9F041164E174C88
:1025E00096F82030164F04EB430282B08046118CDF
:1025F00054F82300002204F07FFE02A9012501F80F
:10260000015D2A463846642306F08EF802A92A4660
:1026100001F8028D3846642306F086F896F82030DB
:1026200004EB430154F82300098C2A4604F064FEAD
:10263000002002B0BDE8F0815C02002020E3000829
:10264000C81800202DE9F04182B002AD134C05F806
:10265000013D06460F469046294620466423012246
:1026600006F062F802A9204601F8028D64230122D7
:1026700006F05AF802A9204601F8037D64230122DE
:1026800006F052F802A9204601F8046D64230122E5
:1026900006F04AF802B0BDE8F08100BFC81800207B
:1026A0002DE9F047DFF878801B4F82B006464020C6
:1026B000894692460A9D1C46FFF78EFF98F8203007
:1026C00007EB430257F82300118C002204F014FE9C
:1026D0005246494630460223FFF7B4FF75B10F4E0C
:1026E000254414F8013B8DF80730012264230DF1D5
:1026F0000701304606F018F8AC42F2D198F82030C5
:1027000007EB430257F82300118C012204F0F4FD7B
:10271000002002B0BDE8F08720E30008C8180020C0
:102720005C0200202DE9F043534CDFF85081236810
:1027300083B007460D464FF0200913F01F0314BF66
:10274000C3F120061E464DB31F2D20786178A27874
:1027500027D9002B41D13B46CDF80090FFF7A0FFD1
:10276000A2682032424588BFC2F31302C2F31003AD
:10277000C2F34B11A260C4E90031C2F3474213F027
:102780001F03A5F1200507F12007227384F82020FC
:1027900014BFC3F120061E46002DD5D103B0BDE8FD
:1027A000F083A3B3AE424CD23B460096FFF778FFCE
:1027B000A2683244424588BFC2F31302C2F3100339
:1027C000C2F34B11A260C2F34742AD1B3744C4E9C8
:1027D0000031227384F82020AFE73B460096FFF7D4
:1027E0005FFFA3683344434588BFC3F31303A3606B
:1027F000A268C2F31003C2F34B11C2F3474237443D
:10280000AD1BC4E90031227384F8202095E70095C0
:102810003B46FFF745FFA3681D44B5F5801F28BF61
:10282000C5F31305C5F31002C5F34B13A560C5F33B
:102830004745C4E90023257384F8205003B0BDE860
:10284000F08300953B46FFF72BFFA3681D44B5F5C9
:10285000801F28BFC5F31305A560A368C3F310014B
:10286000C3F34B12C3F34743C4E90012237384F844
:10287000203003B0BDE8F0835C020020FFFF0F00B2
:102880002DE9F047DFF878801B4F82B006464020E4
:10289000894692460A9D1C46FFF79EFE98F8203016
:1028A00007EB430257F82300118C002204F024FDAB
:1028B0005246494630460323FFF7C4FE75B10F4E1A
:1028C0002544642301220DF10701304605F0E0FFA5
:1028D0009DF8073004F8013BAC42F2D198F8203063
:1028E00007EB430257F82300118C012204F004FD8A
:1028F000002002B0BDE8F08720E30008C8180020DF
:102900005C0200202DE9F043534CDFF8508123692D
:1029100083B007460D464FF0200913F01F0314BF84
:10292000C3F120061E464DB31F2D207C617CA27C86
:1029300027D9002B41D13B46CDF80090FFF7A0FFEF
:10294000A2692032424588BFC2F31302C2F31003CA
:10295000C2F34B11A261C4E90431C2F3474213F040
:102960001F03A5F1200507F12007227784F8202016
:1029700014BFC3F120061E46002DD5D103B0BDE81B
:10298000F083A3B3AE424CD23B460096FFF778FFEC
:10299000A2693244424588BFC2F31302C2F3100356
:1029A000C2F34B11A261C2F34742AD1B3744C4E9E5
:1029B0000431227784F82020AFE73B460096FFF7EA
:1029C0005FFFA3693344434588BFC3F31303A36187
:1029D000A269C2F31003C2F34B11C2F3474237445A
:1029E000AD1BC4E90431227784F8202095E70095D7
:1029F0003B46FFF745FFA3691D44B5F5801F28BF7F
:102A0000C5F31305C5F31002C5F34B13A561C5F358
:102A10004745C4E90423257784F8205003B0BDE876
:102A2000F08300953B46FFF72BFFA3691D44B5F5E6
:102A3000801F28BFC5F31305A561A369C3F3100167
:102A4000C3F34B12C3F34743C4E90412237784F85A
:102A5000203003B0BDE8F0835C020020FFFF0F00D0
:102A600010B5064C406C21460A2208F059F822465F
:102A700001210020BDE81040FFF7D8B8A80D0020C4
:102A800003684A4A93422BD0494A934200D0704788
:102A900010B503F0ADFE3E2800F28280DFE800F0C2
:102AA0007C7C7C7C80808080807878787880808056
:102AB0008080747474748080807070707080806C9A
:102AC0006C6C6C6868686880646464806060605C7A
:102AD0005C5C585858545450504848404033220089
:102AE00001F006BD334C10232360FFF795F82068F2
:102AF00031490A2208F014F8002108462E4ABDE8A0
:102B00001040FFF793B82D4B2A4C1A7D0F21012A54
:102B1000216048D01A7D032AE7D101221A75E4E723
:102B2000264A244C136D0E21013313652160DCE726
:102B3000224A204C136D0D21013B13652160D4E71F
:102B40001C4C0C232360D0E71A4C0B232360CCE7EA
:102B5000184C0A232360C8E7164C09232360C4E7F6
:102B6000144C08232360C0E7124C07232360BCE702
:102B7000104C06232360B8E70E4C05232360B4E70E
:102B80000C4C04232360B0E70A4C03232360ACE71A
:102B9000084C02232360A8E7064C01232360A4E726
:102BA000044B186010BD03221A759EE700220140F5
:102BB00000200140A0020020A80D0020D417002012
:102BC00030B5194B194A1A604FF040714FF48032FA
:102BD00085B04FF080554FF070645A6099600022C4
:102BE00001211846C3E90A451A619A611A62DA603E
:102BF0001A63D961596103F057FC80B9042401229A
:102C00000723694608480293CDE9004203F0CEFE4F
:102C100018B1D521064801F06DFE05B030BDCB21BD
:102C2000034801F067FEE9E7100E00200020014094
:102C300090E3000830B51F4B1F4A1A604FF48031F3
:102C40004FF0407285B01D4D5960022401219A60F9
:102C5000184600229D62DC611961996119631A624C
:102C6000DA62DA605A6103F01FFCE8B90123062238
:102C7000694610480292CDE9003303F097FE70B91F
:102C8000022369460B48CDE9003303F08FFE20B1E3
:102C900040F201110A4801F02DFE05B030BDF821C7
:102CA000074801F027FEEBE7EE21054801F022FE80
:102CB000DCE700BF580E0020002201400100000F99
:102CC00090E3000870B5394A0368934288B042D057
:102CD000374A934201D008B070BD0026354B0296AA
:102CE0005A6C354C42F480625A645B6C059603F46E
:102CF00080630293062203230299039203A90546E7
:102D00002E48049304F0B4F92D4921604FF08062FD
:102D10004FF480634FF480504FF480416260236130
:102D20004FF480724FF4803360612046A660E66005
:102D30006662C4E90612236203F0AEFF78BBAC639F
:102D4000002203211220A56303F0F0FE122003F0FD
:102D500023FF08B070BD0024164B01945A6C17482D
:102D600042F480725A645B6C059403F4807301939F
:102D70001025032603A9019BCDE9035604F078F939
:102D800022463146122003F0D1FE122003F004FF48
:102D900022462946094804F0AFFA08B070BD4FF446
:102DA000A071084801F0A6FDC9E700BF002001405E
:102DB0000022014000380240B00D00200000024017
:102DC0002864024090E3000870B5084C0546666828
:102DD00005F028FA064BA3FB0030800C224605FBC9
:102DE00000F553689B1BAB42FBD370BD001000E0A5
:102DF00083DE1B4330B583B00D4C8DF8070065684A
:102E000005F010FA0B4BA3FB0030800C0A21224680
:102E100001FB00F153685B1B8B42FBD30A230122A9
:102E20000DF10701044805F07FFC03B030BD00BF81
:102E3000001000E083DE1B438019002070B50D4CAC
:102E4000002206460D4620464FF4806104F054FAF5
:102E500046F05000FFF7CEFF0020FFF7CBFF2846DB
:102E6000FFF7C8FF204601224FF48061BDE87040A3
:102E700004F042BA0008024030B500224FF48061ED
:102E800083B005461648174C04F036FA45F010009A
:102E9000FFF7B0FF0020FFF7ADFF656805F0C2F94E
:102EA000114BA3FB0030800C0A21224601FB00F1EC
:102EB00053685B1B8B42FBD302A9002301F8013D41
:102EC00001220A23094805F0E3FC05489DF8074064
:102ED00001224FF4806104F00FFA204603B030BDA8
:102EE00000080240001000E083DE1B438019002030
:102EF00038B5094C0546002220464FF4806104F0A5
:102F0000FBF92846FFF776FF204601224FF4806147
:102F1000BDE8384004F0F0B90008024030B10128A3
:102F20000CD0022806D003280BD070470121084698
:102F3000FFF784BF45210120FFF780BF2321FFF762
:102F40007DBF67210120FFF779BF00BF38B5064C70
:102F5000064D01E0013C05D00421284604F0C6F9E5
:102F60000028F7D138BD00BF801A0600000C0240CF
:102F70001C4B70B505460E4618705970FFF7E6FFFA
:102F8000194B1A489E5D1A4C00224FF4806104F0E0
:102F9000B3F95020FFF72EFF0320FFF72BFF062089
:102FA000FFF728FF0820FFF725FF2846FFF722FF3D
:102FB0003046FFF71FFF01224FF480610B4804F0F9
:102FC0009BF9656805F02EF90A4BA3FB0030800CD5
:102FD0003221224601FB00F153685B1B8B42FBD37D
:102FE00070BD00BF740D002050E3000800080240CF
:102FF000001000E083DE1B4308B5FFF7A7FF0020A9
:10300000FFF73AFFC0F3071008BD00BFF0B500227C
:103010004FF4806183B02648264C04F06DF90120FE
:10302000FFF7E8FE656805F0FDF8234BA3FB0030D1
:10303000800C0A21224601FB00F153685B1B8B4286
:10304000FBD302AC002604F8016D1C4D1C48214640
:103050000A23012205F01CFC9DF8077018488DF822
:10306000076021460A2301222F7005F011FC9DF80C
:1030700007306B7021460A23012211488DF8076042
:1030800005F006FC6B782A789DF80740AC701B02AF
:1030900043EA02431C43064801224FF4806104F0D6
:1030A0002BF9230248BF44F07F44204603B0F0BD13
:1030B00000080240001000E083DE1B43AC02002049
:1030C0008019002030B5104C83B00B468DF80400F9
:1030D0000D0A2046012220218DF806308DF805507A
:1030E00004F00AF920460022202104F005F96423A7
:1030F00001A90322054805F017FB204601222021E3
:1031000004F0FAF803B030BD000C02408019002032
:10311000F0B51C4C1C4E83B0002503464FEA102C22
:103120000F0A20468DF802302A4634238DF8051008
:1031300020218DF801C08DF803308DF804708DF8D2
:10314000005004F0D9F8642369463046032205F0A4
:10315000EBFA20460122202104F0CEF82A46204630
:10316000202104F0C9F803220DEB0201642330464C
:1031700005F0DAFA20460122202104F0BDF803B060
:10318000F0BD00BF000C0240801900200A4A0B4B22
:1031900070B40B4D02EBC0042860646898686960E5
:1031A00002EBC10200FB04F0D668DC61A8601E627D
:1031B0009C63DE6370BC704734100020D41700207D
:1031C000B402002070B5124D82B0EB78ADF8060065
:1031D0000BB902B070BD0F4E0878B36803F15043CD
:1031E0000C4603EB101001220DF1060102F0B4FBB6
:1031F000AB68B168A2680B440132B3F5000FB3604D
:10320000A260E6D30023B360636002B070BD00BF6C
:10321000D4170020B4020020F0B5514DEB7883B0F4
:103220000BB903B0F0BD4F4EB3680746087803F101
:1032300050430C4603EB101001220DF1060102F081
:1032400083FBBDF90630DA1912B2A282A38122787B
:10325000520715D507EE907AD4ED066A94ED066A0A
:1032600007EE103AF8EEE77AB8EEC77A67EE867A9C
:10327000E6EE877AFDEEE77A17EE903A1BB2A3826C
:10328000A38A22691BB293422ADC2278B768C2F370
:10329000C0024ABB636801336360A8686268A368C0
:1032A00038449A42B06014D323781B073BD4237868
:1032B0004FF07E526FF382032370A26143F6FF73D7
:1032C00023616B7D022B1AD00023B360636003B0CF
:1032D000F0BDB0F5000F04BF0023B36003B0F0BD34
:1032E000A38A1BB22361D0E7214607F1504011F8B1
:1032F000143B00EB131002F02FFBB768CAE7D6E9C6
:103300000020194BA96803EBC20203EBC00352680B
:10331000D868EA6101FB02F300212862B360AA6366
:10332000E863E9707DE72369B3F5804FBFDB23785D
:1033300043F0040323702069FDF7ACF802460B4606
:1033400005A1D1E90001FDF739FAFDF71FFBA061E6
:10335000B4E700BFAFF300800000000080FFCF4063
:10336000D4170020B40200203410002083681BB161
:10337000426883689A4200D97047818901F57F517C
:103380003F3189B21020FFF79DBE00BF2DE9F0410B
:10339000434F84B0FB78ADF806004BB10B7813F0C7
:1033A000010516460C4606D1127812F001052AD105
:1033B00004B0BDE8F081DFF8EC800878D8F8083078
:1033C00003F1504303EB10102A460DF1060102F001
:1033D000C3FAA3680133A3607268B3689A424BD3FF
:1033E000BB68D8F80800A168B26803449142C8F8E5
:1033F000083030D0B3F5000FDAD100236360C8F88D
:1034000008307360D4E7DFF89C803078D8F8083053
:1034100003F1504303EB10102A460DF1060102F0B0
:103420009BFAB3680133B3606268A3689A42D7D24B
:10343000D8F80830207803F1504303EB10102A46E7
:103440000DF10E0102F080FABDF90E30A381636820
:1034500001336360C4E700252846FD7002F0C8F818
:10346000012002F0D3F801237B70C8F808503D70AA
:1034700065607560FB709BE7D8F80830307803F121
:10348000504303EB10102A460DF10E0102F05CFAD6
:10349000BDF90E30B381736801337360A0E700BFDC
:1034A000D4170020B4020020144B1B790BB18368A1
:1034B00033B90378DA0718D40B78DB070DD47047DB
:1034C0008B68002BF5D08389898943F6FF7001440E
:1034D000184489B280B2FFF71BBE898901F57F517C
:1034E0003F3189B22420FFF7EDBD818901F57F517D
:1034F0003F3189B21020FFF7E5BD00BFD41700208F
:10350000F0B5294EF37883B00BB903B0F0BD274F67
:10351000B8680C46154601A9012200F1504002F09E
:103520000BFABDF90420BDF90630A281AB816368B6
:10353000B968013363606A6801326A60B3682278EF
:103540000B44D107BB6015D42A78D20706D4B3F553
:10355000000F04BF0023BB6003B0F0BD6968AA6818
:103560009142F4D3737D022B09D000236360BB60CA
:103570006B60CAE76168A2689142F3D2E4E7D7E9D9
:1035800000100B4AB36802EBC10102EBC0024968AC
:10359000D268F16103FB01F300203262BB60B163CA
:1035A000F263F070D3E700BFD4170020B40200200C
:1035B0003410002008B50D4B0020D8701A7E42F060
:1035C00001021A7693F8342060F3000283F8342065
:1035D0001A7E60F307121A76FFF7A0FCF020FFF7BF
:1035E00087FCF120BDE80840FFF782BCD41700201B
:1035F00008B5114B0021D97093F8342042F0010234
:1036000083F834201A7E61F300021A761A79012AAF
:1036100093F8342008BF022161F3071283F83420A5
:103620000120FFF77BFCF020FFF762FCF120BDE8F2
:103630000840FFF75DBC00BFD4170020064A13798D
:10364000B3FA83F35B0913711379012B0CBF0423C5
:1036500002239360704700BFD417002003786FF3F4
:10366000820303700378002210B46FF3C30343F6A0
:10367000FF744FF07E510370046181615DF8044B6B
:1036800042608260828170471A4B10B500241C7022
:103690005C70DC701C751A7E64F382021A761A7EE6
:1036A0004FF07E5143F6FF7064F3C3021A769862BE
:1036B0001963DC611C629C8493F8342064F38202F9
:1036C00083F8342093F8342064F3C30283F8342061
:1036D0005864D9649C63DC63A3F8404000F09AFA14
:1036E000012001F093FF204601F090FF024B0122E0
:1036F0001A7010BDD41700204D0A002010B50E48D6
:103700000E4B036082B003F08DFA78B90C240023CD
:10371000102269460848CDE9004303F099FA18B130
:103720005221074801F0E6F802B010BD49210448D3
:1037300001F0E0F8EAE700BFAC0E002000740040A2
:10374000C4E30008214B02689A4200D0704770B56C
:1037500086B0002603F5E23300961A6C1C4C42F04A
:1037600000521A641B6C039603F00053009320224E
:1037700003230099019201A905461648029303F01C
:1037800077FC154820604FF0606140224FF4806361
:103790004FF400606160A2604FF400514FF48072FA
:1037A000236160614FF400332046E6606662C4E93D
:1037B0000612236203F070FA18B9EC60A56306B034
:1037C00070BD7921054801F095F8F6E700740040D6
:1037D000C00E002000000240A0600240C4E30008C8
:1037E00010B582B01C4B002400941A6B42F40012F6
:1037F0001A631A6B02F400120092009A01941A6B79
:1038000042F480021A631B6B03F4800301930222CB
:1038100001211120019B03F089F9112003F0BCF96B
:1038200003220121392003F081F9392003F0B4F992
:10383000224603213B2003F079F93B2003F0ACF949
:10384000022203213C2003F071F93C2002B0BDE8C4
:10385000104003F0A1B900BF0038024038B5184B42
:10386000184C194A53F83000002319461370FEF71C
:1038700035FE20461021FFF745F8A56822686068EC
:10388000124B00FB02F01860226811484EF66021CE
:10389000B1FBF5F102FB01F25A605C681968B4FBF8
:1038A000F1F201FB12429A605A681968B2FBF1F218
:1038B000DA601968BDE8384001EB8101FFF722B8F2
:1038C000341000207C160020200F00209C160020C1
:1038D000AC1600202DE9F04F924CDFF88482924F15
:1038E000E368924E924DDFF87CA24FF0000985B05C
:1038F00088F8009087F80090E0680293FFF7AEFF29
:103900008C4A8D4B8D48A2F80090C3F8009005F0CA
:1039100027F90222012362752375E0682169DFF827
:103920004892FFF733FC227D012A4CD1E168E3681D
:103930000133994247D2E27098F80030002B7DD0D5
:10394000B068236DD6F800C071687D4ACAF800508F
:1039500001FB0CF129603168C9F8006003444EF6A0
:10396000602BBBFBF3F301FB03F36B606868296812
:10397000B0FBF1F301FB1303AB606B682968B3FB89
:10398000F1F3EB60E16823696E48106099422AD137
:10399000E2686D496D48013207F04AF8002340F2B1
:1039A0001D52CDE900329621694B684A0A20FEF784
:1039B00077FC3B78002B40F09C80237D032B02D0CA
:1039C000237D002BF5D100255C48257505F0D4F842
:1039D0006420FEF717F8029BE360E57065702570C0
:1039E00005B0BDE8F08F5B4A039210461021FEF748
:1039F00089FF039A936810685168BBFBF3FB564B31
:103A000001FB00F119601268544802FB0BF25A6086
:103A1000D3F804C01968BCFBF1F201FB12C29A6032
:103A20005A681968B2FBF1F2DA60196801EB81019A
:103A3000FEF768FF002388F80030A9E74548464BA9
:103A4000D0F808E0216DD0F800B0D0F804C0C9F873
:103A500000000CFB0BFCC3F800C00068CAF8003083
:103A600071444EF6602BBBFBF1F100FB01F1596094
:103A7000D3F804C01868BCFBF0F100FB11C130485A
:103A80009960DFF8D8C05968C0F800C00392186880
:103A9000B1FBF0F1D96001F0F9F8E16823699942CE
:103AA0003FF476AF10213046FEF72CFFB068316846
:103AB0007368BBFBF0FB03FB01F32B603368214809
:103AC00003FB0BF36B60D5F804C02968BCFBF1F372
:103AD00001FB13C3AB606B682968B3FBF1F3EB60C8
:103AE000296801EB8101FEF70DFF039A88F8002099
:103AF0004EE700223A70E3680133E360E16823692E
:103B0000013399427FF40FAF2378012B08D0029B39
:103B1000E36088F800203A70E068FFF79FFE02E754
:103B2000227050E7D4170020181000208C160020B7
:103B30001C100020A20C00209C170020EC1A002072
:103B400030100020240F0020F8E300083018002077
:103B5000080000207C1600209C160020AC160020D7
:103B6000200F0020141000202C1000202DE9F0411F
:103B7000244BDFF89CC0002488B006460F46204640
:103B8000214615468CF800401C70FEF7A7FC0C215E
:103B900001A8FEF7B7FEDDE90112039B3960326030
:103BA0002B60326852B3302B28D8174D174F4EF682
:103BB0006028FEF78DFC102128600DEB0100FEF758
:103BC000A1FEDDE9043101FB03F101EB810138467F
:103BD000FEF798FE3368621CA34214460AD9049982
:103BE0006A68069BB8FBF3F3C1EB011101FB0323E9
:103BF000EB6033689C4205F10805DAD308B0BDE8F4
:103C0000F08100BF1810002034100020AC160020F6
:103C1000200F002008B5054B054800221A7504F056
:103C2000ABFF6420BDE80840FDF7ECBED4170020D0
:103C3000EC1A00202DE9F0412D4D2B7DDBB2012B3C
:103C400001D0BDE8F0812B4A2B4E126831885068B4
:103C500088422FD9338891689BB219B1274F3C68AD
:103C6000052C37D0D168B3FBF1F201FB1233DBB97D
:103C7000224FDFF890803C68D8F80020631D0AD8F6
:103C8000115D013419B1287DC0B201281AD03B68FA
:103C90000433A342F4D8115D19B1287DC0B20128C4
:103CA00015D03B6805333B60338801339BB23380CA
:103CB000BDE8F0811249114A0B7000231360338074
:103CC000BDE8F08101F01EFBD8F80020DFE701F02D
:103CD00023FBE6E7D16892680A44B3FBF2F102FBEA
:103CE0001133002BE0D1DFF81C80D8F80020C7E7A3
:103CF000D417002014100020A20C00209C170020D4
:103D0000181000203010002030B5124B124A1A60F3
:103D100089B001220421002480255A60D960102234
:103D2000184669449D619C60C3E90444C3E90744A3
:103D3000C3E90944CDE90122CDE90322CDE90522F9
:103D4000079204F095FA18B15A21044800F0D2FD08
:103D500009B030BDA0170020400100A00CE400080D
:103D60002DE9F0412D4B1C6886B014B106B0BDE8BA
:103D7000F0814FF001082A4A0094C3F80080936B49
:103D8000284843EA08039363936B039403EA080308
:103D9000022703260C25009301A94FF63F03009A42
:103DA000CDE90137CDE9046503F062F901A91E48A8
:103DB0000394CDE90187CDE9046503F059F901A920
:103DC00048F23313194801930297CDE9046503942F
:103DD00003F04EF901A94FF683731548019302973A
:103DE000CDE90465039403F043F901A94CF2037390
:103DF000104801930297CDE90465039403F038F964
:103E0000602301A90C480297CDE90465039401934E
:103E100003F02EF906B0BDE8F08100BFC00200201B
:103E2000003802400014024000080240001802401E
:103E300000100240000C0240000402402DE9F04F47
:103E40008FB00024BF4B01941A6BDFF810B3DFF87A
:103E500010A3DFF81093DFF81083BB4F42F010027D
:103E60001A631A6B02F010020192019A02941A6B03
:103E700042F004021A631A6B02F004020292029AE0
:103E800003941A6B42F020021A631A6B02F02002AC
:103E90000392039A04941A6B42F080021A631A6B1D
:103EA00002F080020492049A05941A6B42F0010217
:103EB0001A631A6B02F001020592059A06941A6BB6
:103EC00042F002021A631A6B02F002020692069A8C
:103ED00007941A6B42F040021A631A6B02F0400218
:103EE0000792079A08941A6B42F008021A631B6B38
:103EF00003F008030893584601220C21089B03F0A5
:103F0000FBF922465846702103F0F6F92246504646
:103F100042F2160103F0F0F9504601224FF4F96124
:103F200003F0EAF9484601224FF4A47103F0E4F9E2
:103F300022464846802103F0DFF98448012240F2FE
:103F4000034103F0D9F92246404643F2200103F031
:103F5000D3F92246384647F20C0103F0CDF9384632
:103F60000122802103F0C8F90122404618210125D1
:103F700003F0C2F90226584609A90423CDE9093500
:103F80000B940C9603F074F809A95846082309937A
:103F9000CDE90A540C9503F06BF8584609A9702333
:103FA0000993CDE90A540C9403F062F809A950462C
:103FB00042F216030993CDE90A540C9403F058F821
:103FC0004FF4886309A909936148624B0A930B94E3
:103FD00003F04EF809A950464FF481630993CDE9E7
:103FE0000A540C9603F044F809A94846482309935B
:103FF000CDE90A540C9603F03BF809A94846802302
:104000000993CDE90A540C9403F032F8524B0B9407
:10401000202209A95046CDE9092303F029F809A96E
:1040200040F2034349480993CDE90A540C9603F042
:104030001FF809A9042345480B944FF4006BCDE900
:10404000093403F015F80E2309A940480D93CDE972
:104050000A640C94CDF824B003F00AF809A940468C
:10406000CDE909B40B9403F003F809A9404643F2E3
:1040700020030993CDE90A540C9402F0F9FF09A931
:10408000384647F20C030993CDE90A540C9402F028
:10409000EFFF0E2309A938460D9340230993CDE97C
:1040A0000A640C9402F0E4FF09A938468023CDE9A4
:1040B0000935CDE90B4502F0DBFF504609A94FF465
:1040C00070730993CDE90A540C9502F0D1FF09A948
:1040D00048464FF480734FF00A0A0993CDE90A5419
:1040E0000C9502F0C5FF09A948464FF4C053099347
:1040F000CDE90A640C96CDF834A002F0B9FF154A58
:10410000484609A94FF40043CDE90A24099302F077
:10411000AFFF104A0B95042309A94046CDE90932A7
:1041200002F0A6FF182209A940460992CDE90A54D7
:104130000C9602F09DFF402309A9404609930E23E7
:1041400014E000BF003802400018024000040240A2
:104150000014024000002110000012100010024064
:104160000008024000000240000C02400D93CDE91F
:104170000A640C9402F07CFF2C4A0B94404609A977
:104180008023CDE9093202F073FF284A09A9384695
:104190004FF40073CDE90A24099302F069FF09A9DD
:1041A00038464FF480630993CDE90A4502F060FF79
:1041B0001F4BCDF824B0384609A9CDE90A3402F0E6
:1041C00057FF1A4A1B48102309A9CDE90A2409936D
:1041D00002F04EFF4FF4607309A916480993CDE928
:1041E0000A4502F045FF2A462146082002F09EFCBF
:1041F000082002F0D1FC31465046032202F096FC22
:10420000504602F0C9FC31460322172002F08EFC12
:10421000172002F0C1FC2A462146282002F086FC25
:10422000282002F0B9FC0FB0BDE8F08F000021108B
:104230000000111000040240402870B500F0C28058
:1042400008D9B0F5007F54D0B0F5004F15D08028C4
:1042500029D070BD042800F09480102805D00128D2
:10426000F7D1BDE87040FFF70FBA924A13781907EB
:104270005CBF43F00803137070BD8E4A137813F0CF
:104280001004E6D143F01003137000F031F98A4BAB
:10429000DC701A7D012A00F0EA801A7D032AD8D149
:1042A00001221A7570BD834A13785E07D1D4824CFF
:1042B000216A43F00403137011B9E36B002BC8D0DB
:1042C000237EDD0700F19E8094F83430D8070CD5AA
:1042D00094F8343013F0080F94F834300CBF43F0E6
:1042E00008036FF3C30384F83430744B01221A704F
:1042F00070BD704A13789907ABD46F4C617843F066
:10430000020301291370A4D0236A13B9E36B002BB5
:104310009FD0637D012B04D1694A0023E3611360C0
:10432000A3630123E370237EDA0709D5237E6FF3AD
:1043300082032376237E00226FF3C3032376A284B5
:1043400094F83430DB070ED594F834306FF38203E1
:1043500084F8343094F8343000226FF3C30384F8C7
:104360003430A4F84020002001F042F9012001F08F
:104370004DF9524A01230021217013706370E370DC
:1043800070BD4D4CE378002B3FF463AFFEF73EFE6B
:1043900063784C4A40F30F20012B10804FD02378D4
:1043A000012B7FF456AF2379002B71D104F1340136
:1043B00014F8183F13F0010F18BF2146BDE87040F4
:1043C000FEF700BF3B4A137813F001017FF441AFC1
:1043D000394C207843F00103012813703FF439AFC2
:1043E000E170637D012B18D0012001F001F900205C
:1043F00001F00CF931490123002223700B70627027
:10440000E37070BD237E13F0080F237E0CBF43F0D2
:1044100008036FF3C303237667E72379012B0AD1DF
:10442000234604F1340013F8182F12F0010F18BFBF
:104430001846FFF713F9224B00221A60D4E72379BC
:10444000C3B9254604F1340615F8183F13F0010FDF
:1044500014BF29463146FEF7DFFE237E13F0010F1D
:1044600014BF28463046BDE87040FEF77FBF0322E8
:104470001A7570BD04F1180104F13402FFF740F819
:1044800004F1340104F11800BDE87040FFF70CB8E6
:1044900004F1340204F11801FEF778FF14F8183F14
:1044A00013F0010F04F11C0008BF2046BDE8704066
:1044B000FEF75CBF4E0A0020D41700204D0A0020F2
:1044C000BC020020A80E0020084B1B680020DAB2B6
:1044D00062F30700C3F3072262F30F20C3F307431D
:1044E00082B063F3174002B0704700BFC8020020DB
:1044F00008B54FF40041094802F0F8FE084B09499D
:10450000B0FA80F0400998700A68C2F3C7021A70C6
:104510004A68C2F3C7025A7008BD00BF00000240DB
:10452000C802002028180020064B1A78042A01D05F
:10453000012070475A78042AFAD19878003018BFC1
:1045400001207047C8020020FCF788BD08B513465B
:104550008AB201461846FCF713FE002008BD00BFD2
:1045600008B513468AB201461846FCF739FC00200C
:1045700008BD00BF70B594B00020284A0190116CAE
:10458000274B41F080511164126C02F0805201926D
:10459000019A02901A6842F440421A601B6803F4C0
:1045A000404302934FF48030012302244FF48001F2
:1045B0000425A82208930990072308A8029E0E94B8
:1045C0001294CDE90F151192139303F0A1FB00B1E2
:1045D000FEE74FF4A0524FF4805305900F260521BB
:1045E00003A804940396CDE9062303F081FD044655
:1045F00000B1FEE703F016FE4FF47A73B0FBF3F060
:1046000002F0E4FA284602F0FBFA224621464FF077
:10461000FF3002F08BFA14B070BD00BF00380240CA
:10462000007000407549764BCA682DE9F04142F0B0
:1046300080720025CA605D601A68724C724E42F04A
:1046400001028CB01A6001F015FF704B01275F75F5
:104650001D711A7E3A431A761A7E65F341021A7664
:1046600093F8342065F3000283F8342093F8342063
:104670004FF0020865F3410283F834201D65C3F84A
:104680000880FFF777FFFFF7D9FBFFF7A9F801F0E4
:1046900067FAFFF739FB01F09BFA00F075FE01F0B5
:1046A000ABFBFEF78DFA00F097FEFFF727F801F05D
:1046B000C9FA01F0EBFB01F0FFFAFEF7BBFAFCF7D9
:1046C00087FB4FF490610291802100914FF00071BF
:1046D000CDE907154FF48031CDE909114FF4807110
:1046E0000B914B4904914B490591A4F540734A49FC
:1046F000019403F1800203F520700691039504A94B
:10470000FCF72EFF0146454806F06AF901F018F85B
:10471000082002F04DFAFDF701FD4046FDF728FDA7
:104720004AF25420FDF7E8FC3D4804F019FA284607
:1047300000F022FF384600F01FFF3946284600F0FF
:1047400073FF384804F00CFA374801F05BFF42462B
:104750003649374801F0C8FFFE20FEF7C9FB0F209D
:10476000FEF7C6FBFEF748FC39463846FEF700FC6C
:104770002846FEF7D3FBF020FEF7BAFBF120FEF748
:10478000B7FB082002F008FA0320FEF7B1FBFDF7A3
:1047900025FE00F09BFD3A462946B02000F06EFD54
:1047A00004211420FDF7C4F9FDF736FA29462846FE
:1047B000204AFDF73BFAFDF7EFFE00F03BF92846F3
:1047C00000F0CAF9A4F540740AE0307884F8805704
:1047D000FF2801D000F0C0F994F88137012B07D0F1
:1047E00094F88037002BF0D1FDF79EFD3070EDE797
:1047F00000F04CFA84F88157F2E700BFF0ED00E0DA
:10480000001000E0CC0500204E180020D417002036
:10481000614500084D4500084945000840E400088E
:10482000B01A0020741A0020100E00202818002052
:10483000580E002050E4000810B5284C94F8823738
:10484000DA073ED498072ED459071FD41A0710D47C
:10485000DB0600D410BD4FF40041214802F046FDB4
:104860000128F7D194F8823783F0100384F8823757
:1048700010BD10211B4802F039FD94F88237012841
:1048800004BF83F0080384F88237E1E780211648EB
:1048900002F02CFD94F88237012804BF83F0040352
:1048A00084F88237D2E74FF40071104802F01EFD01
:1048B00094F88237012804BF83F0020384F882371A
:1048C000C2E740210A4802F011FD94F8823701281E
:1048D00004BF83F0010384F88237B3E7CC020020E1
:1048E0000000024000040240000C02400018024098
:1048F00000140240FEE700BF2DE9F04F3E4B3F4E53
:10490000DFF828813E4A3F4C3F4D002783B03846B0
:1049100001211F70776188F80070FDF787F939462B
:104920003846FDF707FE384600F062FEB94603E060
:104930002978C9B2012918D0FDF7F6FC20700028AB
:10494000F6D1002000F062FE0A223049706906F0BC
:10495000E7F87369BB420CBF2D4A2E4A01210020A3
:1049600003B0BDE8F04FFDF761B9DFF8C4B04FF018
:10497000000AB9F1000F38D098F80090264B27496B
:1049800085F800A099444846042206F079F80028EA
:10499000D7D0DBF800104846FDF7C4FE7269DBF89B
:1049A00000301F49194803EB020C62463B46C6F82B
:1049B00014C006F03DF840F21D53CDE900A3134AA0
:1049C000184B50210A20FDF76BFC7369BB42B8D22B
:1049D00098F800304033DBB2802B14BF88F80030E9
:1049E00088F800A04FF00109A6E70B4B0E4A1F689C
:1049F0004846FDF71BF9BFE7981E0020500A00202B
:104A000090E400084E1800208C1D00203018002073
:104A1000C4E40008D8E40008D41D0020B4E4000871
:104A2000BCE4000808000020A0E40008D01D00201D
:104A3000541E002070B53F4C00F0E2FB4FF40C72A6
:104A40004FF0FF31204605F01AFF3B4A3B481568FE
:104A5000516B2560E0619068394BA163C4F8C400D4
:104A6000384D63633849394B10692565C4F8DC302B
:104A7000374D5369C4F88811116AC4F8A05195697B
:104A8000C4F8FC00106B2067C4F81831C4F8341166
:104A900000233049C4F85051C4F88C0084F83032F7
:104AA0002371A361C4F81431C4F83031C4F84C3117
:104AB000C4F86831C4F88810C4F8A410D269C4F8E6
:104AC0006C210725052009210A22C4F8843184F8C5
:104AD000203084F83C300B23042684F83D5084F8C1
:104AE0003E000C250D2084F88D1184F88E210121C3
:104AF000022284F88F310E2384F8216084F89051CB
:104B000084F89101617184F87410A27184F8C8204E
:104B100084F8902084F88C2184F83F3084F80031A8
:104B200084F81C3184F8383184F8543184F87031B9
:104B300070BD00BF680A002050180020ECE4000897
:104B4000A54F0008994F0008F4E40008B14F000891
:104B500041510008E54F00080F2866D82DE9F047BD
:104B6000384E96F83032C3EBC30306EB8303184488
:104B700082B090F904305A1C54D0DBB2C3EBC302AC
:104B8000314856F8221086F8303205F071FFFDF7F3
:104B900043F84AF25420FDF7AFFA00212A4ADFF821
:104BA000B090DFF8B08008461746FDF73FF84AF2AC
:104BB0005420FDF7A1FA96F830220024D1000A25EE
:104BC0008B1A06EB83032344E0B293F90430C3EB62
:104BD000C30C01331AD04CB356F82CA0FDF79EFB42
:104BE000534602464146384605F022FF1E20002368
:104BF00040F21D52CDE9003229463A46134BFDF7EB
:104C00004FFB96F830221435ADB2D1000134102C90
:104C1000D6D18A1A06EB8206B3691BB102B0BDE891
:104C2000F047184702B0BDE8F08770472046FDF70F
:104C300075FB4B4602464146384605F0F9FE0A2010
:104C4000D5E700BF680A00203018002008000020C7
:104C500008E5000800E5000810B5094C094982B0D4
:104C60000246204605F0E4FE00204FF6E073CDE951
:104C700000302246044BDD21FDF712FB02B010BDCF
:104C80003018002010E50008080000200F4B1A78AB
:104C90000AB95A7882B11A78012A10D01A7E1107FF
:104CA00007D493F83420120703D45B78012B09D082
:104CB00070470748FFF7D0BF0648FFF7CDBF06484B
:104CC000FFF7CABF0548FFF7C7BF00BFD4170020D2
:104CD00030E5000818E5000824E500083CE5000878
:104CE0000EB42DE9F04384B00BAC14F8045B0394CC
:104CF000D0B1461EF6B20136DFF8388004EB8606E6
:104D000040F21D594FF478470434CDF8049054F81C
:104D1000042C0097294643460A2003941435FDF7D6
:104D2000BFFAA642EDB2EFD104B0BDE8F04303B044
:104D3000704700BF0800002010B5054CFDF7F4FADD
:104D4000002814BF012300232370F7D110BD00BF3A
:104D50004E1800202DE9F04F87B00125DFF82C8296
:104D6000DFF82C92844E854F039192462C46FDF736
:104D7000DBFAFF2888F8000039D0052800F2F98016
:104D8000DFE800F0CB74BD2FAFA1FFF79DFBC0F3B0
:104D90000723C0F30742042B8DF814008DF815305B
:104DA0008DF8162000F2BF800DD0002D40F0C98094
:104DB000DBF81020DBF80C309A4204D9DBF8103015
:104DC000013BCBF810309DF81630012B2BD19BF80E
:104DD0001430022B02D09BF81430CBB99AF8003073
:104DE000B3B901238AF8003007B0BDE8F08FDFF8CF
:104DF000A4B19BF80030012BF3D09BF80130012BBC
:104E0000EFD0FFF791FB0128BFD064B90024AEE7D3
:104E10009BF81430022B06D19AF80030012B02D1F6
:104E200000238AF800305DBBDBF80C20494640F2D5
:104E30001D5400250132304605F0FAFD3B4632464E
:104E4000CDE90054AA210A20FDF72AFADBF8102048
:104E50004B490132304605F0EBFDCDE900543B46AD
:104E60003246BE210A20FDF71BFACFE7DFF824B156
:104E7000DBF80C3023B1DBF80C30013BCBF80C3005
:104E8000DBF80C203F4940F21D550132002430462A
:104E900005F0CEFD3B46CDE900453246AA210A2069
:104EA000FDF7FEF9DBF8102037490132304605F0F6
:104EB000BFFDCDE900453B463246BE210A20FDF745
:104EC000EFF90125A2E7DFF8CCB0039BDBF8102057
:104ED000013B9A42A8D2DBF810300133CBF81030F6
:104EE000A2E7DFF8B0B0DBF81020DBF80C309A4214
:104EF0009AD9DBF81030013BCBF8103094E7DFF89B
:104F000094B0DBF80C20DBF810309A42B8D2DBF812
:104F10000C300133CBF80C30B2E700238AF80030B4
:104F200007B0BDE8F08FBDB9039BDBF81020013B53
:104F30009A42BFF448AFDBF810300133CBF81030A1
:104F400041E7DBF80C30002B3FF43DAFDBF80C30D1
:104F5000013BCBF80C3036E7DBF80C20DBF81030E7
:104F60009A42BFF430AFDBF80C300133CBF80C3091
:104F700029E7DFF820B056E73018002008000020AD
:104F8000ACE5000880E5000890E500084E18002018
:104F90009CE50008D4170020014B02225A75704787
:104FA000D4170020014B01225A757047D4170020F6
:104FB00038B5084C084B094A6E2102200725657553
:104FC000FFF78EFEFFF798FC054B0021012261756B
:104FD0001A7038BDD4170020BCE50008D4E50008DD
:104FE0004C0A00202DE9F0414A4C207E10F00100CF
:104FF00082B07CD1237EDB076FD52079C0B2012837
:1050000000F08380444A82210120FFF769FE434A71
:10501000434B444D404FDFF82481434ECDE90032ED
:105020009621424B424A0420FFF75AFEFDF77CF9D5
:1050300028700E28FAD801A353F820F0CF500008AA
:105040002D5000082D5000082D5000082D5000084C
:105050002D5000082D5000082D5000082D5000083C
:105060002D5000082D5000082D500008B7500008A2
:105070009F50000879500008FEF7E0FA0023A36370
:10508000E3612379DBB2012B3A464FF001004FF088
:10509000820104BF18464246FFF722FEC6E7FEF72C
:1050A000A7FA002332466E210120E361A363E36384
:1050B000FFF716FEBAE7FEF77DFA00231D4AA36349
:1050C0006E210120E3612362FFF70AFEAEE71A4B6F
:1050D00001221A7002B0BDE8F08194F8340010F09B
:1050E00001008AD0104A6E21FFF7FAFD85E794F897
:1050F0003430DA073FF57EAF0E4A6E21FFF7F0FD40
:105100002079C0B201287FF47DAF0C4A8221FFF7DD
:10511000E7FD7CE7D41700202CE6000860E60008D5
:105120006CE600084E18002004E6000840E600087F
:1051300050E60008F0E500084C0A002018E60008D8
:1051400070B52A4A2A4C2B4884B0002319461360B4
:1051500002254FF4C962E3608DF80330657505F0F0
:105160008EFB03AA02A901A8FEF700FD019B5A1EAF
:10517000226143B3C82B17D8039B302B2CD81D4E6C
:1051800004E0FEF7A7FB9DF80330ABB12575FFF7F0
:105190007DFD0DF1030201993046FFF7DBFD9DF81F
:1051A0000330002BEDD107E0134B82219A6A0120D6
:1051B000FFF796FDFFF7C0FD104A01210023117093
:1051C000237504B070BD0C4B82215A6A0120FFF791
:1051D00087FDFFF7B1FDEFE7074B8221DA6A012077
:1051E000FFF77EFDFFF7A8FDE6E700BFBC02002049
:1051F000D417002034100020501800204C0A002042
:1052000030B40F4B0F4C10481049114A114D1C601F
:105210005860114C114899601149DA601D61114ABA
:10522000114D5C619861114C1148D96111491A62A4
:10523000114A5A63C3E90954C3E90B0130BC7047F2
:105240005018002084E6000808E5000898E60008E9
:10525000A8E60008BCE60008CCE60008E0E6000886
:10526000F0E6000804E7000814E7000828E7000853
:105270003CE7000850E7000860E7000800B583B08D
:1052800064238DF807008DF806108DF805200DF1C8
:10529000070101220C4804F073F8642301220DF188
:1052A0000601094804F06CF89DF8073003F0F0039C
:1052B000B02B06D8642301220DF10501024804F049
:1052C0005FF803B05DF804FB281B002010B50C4C00
:1052D00000222046082102F00FF86420FCF792FB20
:1052E00020460122082102F007F86420FCF78AFB1F
:1052F00078220721B020BDE81040FFF7BFBF00BFF4
:105300000010024001284FF03C0202D08920FFF734
:10531000B5BF9920FFF7B2BF38B5002205460C464D
:10532000C0202221FFF7AAFF012D21464FF03C02A9
:1053300004D08020BDE83840FFF7A0BF9020BDE832
:105340003840FFF79BBF00BF70B50E4E3446351D89
:1053500014F8011B21B9AC42FAD134792CB970BDD3
:105360003C229920FFF78AFFF5E700222221C02086
:10537000FFF784FF21463C229020BDE87040FFF7F4
:105380007DBF00BF901D002038B5104B104A1A6039
:105390004FF4827001224FF4007508240A215860EE
:1053A0005A6118460022C3E90654D962C3E90222B1
:1053B0001A61C3E908229A6203F076F900B938BD90
:1053C00053210448BDE83840FFF794BA8019002003
:1053D000003C004074E7000838B5104B104A1A60D2
:1053E0004FF482724FF4007510240A215A60184657
:1053F0000022C3E90654D962C3E90222C3E90422A8
:10540000C3E908229A6203F04FF900B938BD692157
:105410000448BDE83840FFF76DBA00BFC818002047
:105420000050014074E70008F0B5484A0368934211
:1054300089B05BD0464A934201D009B0F0BD002448
:10544000444B02945A6C444D42F480125A645B6C93
:10545000059403F4801302934FF4607202230299BF
:10546000039203A9052206463C480493069307923B
:1054700001F0FEFD3A4B2B604FF080604FF48061ED
:105480004FF48032042368602846AC60EC60C5E9C4
:105490000544EC61C5E90A442C632961C5E9082388
:1054A00001F0FAFB00284CD12E4C2F4921604FF01F
:1054B000806240204FF480634FF480316260A060CE
:1054C00004222361F56400232046AE63C4E9081278
:1054D000E360C4E90533E361C4E90A33236301F0FF
:1054E000DBFB48BBB464A66309B0F0BD0024194BD4
:1054F00001941A6C1D4842F400421A641B6C059416
:1055000003F40043019303A94FF4C0530227032679
:105510000625019ACDE90337CDE9066501F0A8FD1E
:10552000082303A912480393CDE90474CDE9066565
:1055300001F09EFD09B0F0BDCB210E48FFF7DAF96E
:10554000D0E7B6210B48FFF7D5F9ADE7003C0040A6
:105550000050014000380240201900200014024091
:1055600058640240D81900207064024000080240CC
:105570000004024074E7000830B589B028B3012860
:1055800016D0184C184B04EB800433F810506068A8
:1055900003950123022203A9CDE90433069201F009
:1055A00067FD29466068002201F0A6FE09B030BD03
:1055B0000E4B002202921A6B42F040021A631B6BE0
:1055C00003F040030293029BDBE7084B01901A6B48
:1055D00042F040021A631B6B03F040030193019BEE
:1055E000CFE700BF3C00002060E300080038024025
:1055F000044B054A03EB800332F81010586801226F
:1056000001F07ABE3C00002060E30008044B054A2C
:1056100003EB800332F810105868002201F06CBED2
:105620003C00002060E3000810B586B050B91A4B6A
:1056300000901A6B42F001021A631B6B03F0010326
:105640000093009BC9B1012901D006B010BD134BD6
:10565000134A019103EB8000002401A9C068029263
:10566000039401F005FD21460222062001F05EFAB6
:10567000062001F091FA06B010BD084B029103EB31
:10568000800001230193C068022301A9CDE90333FF
:1056900001F0EEFC06B010BD003802403C000020D6
:1056A000000011102DE9F047244C82B004F11005E0
:1056B000012608274FF00008214682464FF6FF7268
:1056C00028462660C4E90176C4F80C80CDF8048031
:1056D00002F072FE3046FCF795F902232146284677
:1056E0004FF6FF7223604FF00409C4E90176C4F855
:1056F0000C8002F061FE0323214628464FF6FF721C
:1057000023606760C4F80C80C4F8089002F054FE6F
:105710004FF40C730193019B6760214628464FF6B6
:10572000FF72C4F80090C4E9026302F045FE5146DE
:10573000284602B0BDE8F04702F058BEA40C002095
:105740002DE9F0438FB0724B724C734973480025BA
:1057500001959A6BA56142F001029A639A6BE5622A
:1057600002F001020192019A02951A6B656342F4FC
:1057700080021A631A6B216102F480020292029A7B
:1057800003951A6B102640274FF4C0714FF4006C3C
:105790004FF0040926626762A162022707214FF0D9
:1057A000010842F002024FF40056C4F830C0A6636C
:1057B000A164C4E913916764C4E91577E765C4F887
:1057C0001C90C4F814801A631A6B3A400392039A2F
:1057D00004951A6B42EA09021A631A6B02EA09027B
:1057E0000492049A05951A6B42F008021A631A6B28
:1057F00002F008020592059A06951A6B42F0100213
:105800001A631A6B02F010020692069A07951A6B39
:1058100042F020021A631A6B02F020020792079AE4
:1058200008951A6B42F040021A631B6B0EAE03F030
:1058300040030893602346F8143D0C233146089A30
:105840000D93CDE90B570A9701F012FC314634480D
:10585000CDF8248001F00CFC31464CF20373314842
:10586000099301F005FC31464FF683732E480993E6
:1058700001F0FEFB31464FF63F032C480993A0464A
:1058800001F0F6FB314648F233132948099301F041
:10589000EFFB284B48F8603F80204FF400764FF430
:1058A000806C4FF440334FF480514FF48042656672
:1058B000E567C4E92355A066E66604F110050326F2
:1058C0004046C4F870C0C4F88030C4E91D12C4F862
:1058D0008490C4F84080C4F88860C4F8985001F0FF
:1058E00075FA404601F0D8F932463946382001F0C1
:1058F0001DF9382001F050F904F14401284602F066
:10590000B7FC40F26A50FFF7CDFE0FB0BDE8F08360
:1059100000380240A40C0020400100A00004024016
:1059200000080240000C0240001002400014024037
:10593000001802401064024013460A46014601481E
:1059400002F000BDB40C002013460A46014601488F
:1059500002F0B0BCB40C00202DE9F041074C0E461B
:1059600017460546204602F011FD3B4632462946C1
:105970002046BDE8F04102F0C1BC00BFB40C0020DD
:1059800010B582B00024264B00945A6C42F4804239
:105990005A645A6C02F480420092009A01941A6C84
:1059A00042F080521A641B6C03F08053019305206F
:1059B000019B01F0A9F8224621466FF00B0001F08F
:1059C000B5F8224621466FF00A0001F0AFF82246F2
:1059D00021466FF0090001F0A9F8224621466FF038
:1059E000040001F0A3F8224621466FF0030001F005
:1059F0009DF8224621466FF0010001F097F82246FB
:105A000021464FF0FF3001F091F822462146012057
:105A100001F08CF8012002B0BDE8104001F0BCB8E4
:105A200000380240704700BF704700BF08B5FBF761
:105A3000B7FFBDE8084001F0F1B800BF02F05AB965
:105A4000042001F05DBC00BF102001F059BC00BF74
:105A5000014801F037BA00BFC00E002008B5044865
:105A600000F002FF0348BDE8084000F0FDBE00BFA3
:105A7000100E0020580E002008B5402001F040FC18
:105A8000802001F03DFC4FF40070BDE8084001F0BB
:105A900037BC00BF08B5034803F050F9BDE8084023
:105AA000FCF7F4BCB01A002008B5034803F046F92F
:105AB000BDE80840FEF7BEB8EC1A002008B5034860
:105AC00003F03CF9BDE80840FEF7B6BE741A0020AA
:105AD00008B54FF4806001F013FC4FF4006001F052
