:020000040800F2
:10000000000003201518000865180008651800088E
:100010006518000865180008651800080000000051
:100020000000000000000000000000006157000810
:1000300065180008000000006357000865570008B5
:100040006518000871570008651800086518000851
:100050006518000865180008A15800086518000810
:1000600079570008651800088357000865180008CC
:10007000651800086518000865180008651800086C
:10008000651800088D5700089D570008651800087E
:10009000651800086518000865180008B5570008BD
:1000A000CD57000865180008651800086518000895
:1000B000E157000865180008F557000865180008A2
:1000C000651800086518000865180008651800081C
:1000D000651800086518000865180008651800080C
:1000E0000958000865180008651800086518000818
:1000F00025580008651800086518000865180008EC
:1001000065180008651800086518000865180008DB
:1001100065180008651800086518000865180008CB
:100120006518000861580008651800087158000833
:10013000815800086518000865180008651800084F
:10014000651800086518000865180008651800089B
:10015000651800086518000865180008651800088B
:10016000651800086518000865180008651800087B
:100170006518000891580008651800080000000084
:10018000651800086518000865180008651800085B
:10019000651800086518000865180008651800084B
:0C01A000651800086518000865180008C4
:1001B00010B5054C237833B9044B13B10448AFF3A1
:1001C00000800123237010BD1402002000000000F5
:1001D00068BC000808B5034B1BB103490348AFF3E3
:1001E000008008BD000000001802002068BC000864
:1001F00081F0004102E000BF83F0004330B54FEAD8
:1002000041044FEA430594EA050F08BF90EA020F44
:100210001FBF54EA000C55EA020C7FEA645C7FEAD7
:10022000655C00F0E2804FEA5454D4EB5555B8BFFA
:100230006D420CDD2C4480EA020281EA030382EA6B
:10024000000083EA010180EA020281EA0303362DFD
:1002500088BF30BD11F0004F4FEA01314FF4801CD0
:100260004CEA113102D0404261EB410113F0004FE2
:100270004FEA03334CEA133302D0524263EB430399
:1002800094EA050F00F0A780A4F10104D5F1200E37
:100290000DDB02FA0EFC22FA05F2801841F1000192
:1002A00003FA0EF2801843FA05F359410EE0A5F166
:1002B00020050EF1200E012A03FA0EFC28BF4CF097
:1002C000020C43FA05F3C01851EBE37101F000454D
:1002D00007D54FF0000EDCF1000C7EEB00006EEB5A
:1002E0000101B1F5801F1BD3B1F5001F0CD34908E4
:1002F0005FEA30004FEA3C0C04F101044FEA44523B
:1003000012F5800F80F09A80BCF1004F08BF5FEAC1
:10031000500C50F1000041EB045141EA050130BDA1
:100320005FEA4C0C404141EB010111F4801FA4F144
:100330000104E9D191F0000F04BF01460020B1FA99
:1003400081F308BF2033A3F10B03B3F120020CDAD1
:100350000C3208DD02F1140CC2F10C0201FA0CF0AF
:1003600021FA02F10CE002F11402D8BFC2F1200C14
:1003700001FA02F120FA0CFCDCBF41EA0C019040CA
:10038000E41AA2BF01EB0451294330BD6FEA040413
:100390001F3C1CDA0C340EDC04F11404C4F12002FE
:1003A00020FA04F001FA02F340EA030021FA04F310
:1003B00045EA030130BDC4F10C04C4F1200220FA67
:1003C00002F001FA04F340EA0300294630BD21FAA5
:1003D00004F0294630BD94F0000F83F4801306BF6B
:1003E00081F480110134013D4EE77FEA645C18BF5F
:1003F0007FEA655C29D094EA050F08BF90EA020FF6
:1004000005D054EA000C04BF1946104630BD91EAED
:10041000030F1EBF0021002030BD5FEA545C05D1F0
:100420004000494128BF41F0004130BD14F580042F
:100430003CBF01F5801130BD01F0004545F0FE41A3
:1004400041F470014FF0000030BD7FEA645C1ABFD8
:10045000194610467FEA655C1CBF0B46024650EA0F
:10046000013406BF52EA033591EA030F41F400213B
:1004700030BD00BF90F0000F04BF0021704730B5C1
:100480004FF4806404F132044FF000054FF0000196
:1004900050E700BF90F0000F04BF0021704730B557
:1004A0004FF4806404F1320410F0004548BF40422C
:1004B0004FF000013EE700BF42004FEAE2014FEA81
:1004C00031014FEA02701FBF12F07F4393F07F4F5C
:1004D00081F06051704732F07F4208BF704793F05F
:1004E0007F4F04BF41F40021704730B54FF4607472
:1004F00001F0004521F000411CE700BF50EA010275
:1005000008BF704730B54FF000050AE050EA01021D
:1005100008BF704730B511F0004502D5404261EB8D
:1005200041014FF4806404F132045FEA915C3FF4CE
:10053000D8AE4FF003025FEADC0C18BF03325FEA6B
:10054000DC0C18BF033202EBDC02C2F1200300FA1C
:1005500003FC20FA02F001FA03FE40EA0E0021FA41
:1005600002F11444BDE600BF70B54FF0FF0C4CF42F
:10057000E06C1CEA11541DBF1CEA135594EA0C0FE1
:1005800095EA0C0F00F0DEF82C4481EA030621EA1C
:100590004C5123EA4C5350EA013518BF52EA033557
:1005A00041F4801143F4801338D0A0FB02CE4FF009
:1005B0000005E1FB02E506F00042E0FB03E54FF039
:1005C0000006E1FB03569CF0000F18BF4EF0010E31
:1005D000A4F1FF04B6F5007F64F5407404D25FEA2D
:1005E0004E0E6D4146EB060642EAC62141EA5551E0
:1005F0004FEAC52040EA5E504FEACE2EB4F1FD0C22
:1006000088BFBCF5E06F1ED8BEF1004F08BF5FEA9F
:10061000500E50F1000041EB045170BD06F0004651
:1006200046EA010140EA020081EA0301B4EB5C04FE
:10063000C2BFD4EB0C0541EA045170BD41F48011F6
:100640004FF0000E013C00F3AB8014F1360FDEBF1B
:10065000002001F0004170BDC4F10004203C35DAF7
:100660000C341BDC04F11404C4F1200500FA05F37A
:1006700020FA04F001FA05F240EA020001F000421B
:1006800021F0004110EBD37021FA04F642EB060191
:100690005EEA430E08BF20EAD37070BDC4F10C04BB
:1006A000C4F1200500FA04F320FA05F001FA04F27F
:1006B00040EA020001F0004110EBD37041F100016B
:1006C0005EEA430E08BF20EAD37070BDC4F1200576
:1006D00000FA05F24EEA020E20FA04F301FA05F2DE
:1006E00043EA020321FA04F001F0004121FA04F286
:1006F00020EA020000EBD3705EEA430E08BF20EA56
:10070000D37070BD94F0000F0FD101F0004640008F
:1007100041EB010111F4801F08BF013CF7D041EA11
:10072000060195F0000F18BF704703F00046520015
:1007300043EB030313F4801F08BF013DF7D043EAE6
:100740000603704794EA0C0F0CEA135518BF95EA9C
:100750000C0F0CD050EA410618BF52EA4306D1D123
:1007600081EA030101F000414FF0000070BD50EA42
:10077000410606BF1046194652EA430619D094EACC
:100780000C0F02D150EA013613D195EA0C0F05D1B6
:1007900052EA03361CBF104619460AD181EA03010A
:1007A00001F0004141F0FE4141F470014FF00000C2
:1007B00070BD41F0FE4141F4780170BD70B54FF05D
:1007C000FF0C4CF4E06C1CEA11541DBF1CEA1355DD
:1007D00094EA0C0F95EA0C0F00F0A7F8A4EB0504BF
:1007E00081EA030E52EA03354FEA013100F08880B6
:1007F0004FEA03334FF0805545EA131343EA12637F
:100800004FEA022245EA111545EA10654FEA002633
:100810000EF000419D4208BF964244F1FD0404F5EC
:10082000407402D25B084FEA3202B61A65EB030548
:100830005B084FEA32024FF480104FF4002CB6EB05
:10084000020E75EB030E22BFB61A754640EA0C0085
:100850005B084FEA3202B6EB020E75EB030E22BFC5
:10086000B61A754640EA5C005B084FEA3202B6EB06
:10087000020E75EB030E22BFB61A754640EA9C00C5
:100880005B084FEA3202B6EB020E75EB030E22BF95
:10089000B61A754640EADC0055EA060E18D04FEA53
:1008A000051545EA16754FEA06164FEAC30343EAF3
:1008B00052734FEAC2025FEA1C1CC0D111F4801FC0
:1008C0000BD141EA00014FF000004FF0004CB6E7B9
:1008D00011F4801F04BF01430020B4F1FD0C88BF58
:1008E000BCF5E06F3FF6AFAEB5EB030C04BFB6EB63
:1008F000020C5FEA500C50F1000041EB045170BD56
:100900000EF0004E4EEA113114EB5C04C2BFD4EB82
:100910000C0541EA045170BD41F480114FF0000E06
:10092000013C90E645EA060E8DE60CEA135594EA82
:100930000C0F08BF95EA0C0F3FF43BAF94EA0C0F85
:100940000AD150EA01347FF434AF95EA0C0F7FF4FA
:1009500025AF104619462CE795EA0C0F06D152EA4E
:1009600003353FF4FDAE1046194622E750EA410632
:1009700018BF52EA43067FF4C5AE50EA41047FF443
:100980000DAF52EA43057FF4EBAE12E74FEA4102A6
:10099000B2F1E04324BFB3F5001CDCF1FE5C0DD9DD
:1009A00001F0004C4FEAC0024CEA5070B2F1004F27
:1009B00040EB830008BF20F00100704711F0804F2A
:1009C00021D113F13872BCBF01F00040704741F4EF
:1009D00080114FEA5252C2F11802C2F1200C10FAF3
:1009E0000CF320FA02F018BF40F001004FEAC123D7
:1009F0004FEAD32303FA0CFC40EA0C0023FA02F37B
:100A00004FEA4303CCE77FEA625307D150EA013350
:100A10001EBF4FF0FE4040F44000704701F0004020
:100A200040F0FE4040F40000704700BF53B94AB99F
:100A3000002908BF00281CBF4FF0FF314FF0FF30E6
:100A400000F072B9ADF1080C6DE904CE00F006F8C3
:100A5000DDF804E0DDE9022304B070472DE9F0473A
:100A6000089E04468846002B4BD18A42154667D91A
:100A7000B2FA82F24AB1C2F1200701FA02F320FA77
:100A800007F7954047EA030894404FEA154E230CB8
:100A9000B8FBFEF71FFA85FC0EFB178843EA0843F4
:100AA00007FB0CF1994209D9EB1807F1FF3080F0F0
:100AB0001B81994240F21881023F2B445B1AA4B279
:100AC000B3FBFEF00EFB103344EA034400FB0CFCC6
:100AD000A44509D92C1900F1FF3380F00781A44502
:100AE00040F2048102382C4440EA0740A4EB0C0495
:100AF00000271EB1D4400023C6E900433946BDE8B3
:100B0000F0878B4209D9002E00F0EB800027C6E960
:100B1000000138463946BDE8F087B3FA83F7002F65
:100B200047D18B4202D3824200F2FA80841A61EBF1
:100B3000030301209846002EE0D0C6E90048DDE717
:100B400002B9FFDEB2FA82F2002A40F08F80491B20
:100B50004FEA154E1FFA85F80127B1FBFEFC230C66
:100B60000EFB1C1143EA014308FB0CF1994207D923
:100B7000EB180CF1FF3002D2994200F2CD8084468E
:100B8000591AA3B2B1FBFEF00EFB101443EA044461
:100B900008FB00F8A04507D92C1900F1FF3302D259
:100BA000A04500F2B6801846A4EB080440EA0C40C9
:100BB0009FE7C7F1200CBB4022FA0CFE4EEA030E61
:100BC00001FA07F420FA0CF521FA0CF34FEA1E485B
:100BD0002543B3FBF8F92C0C08FB19331FFA8EFAE6
:100BE00044EA034309FB0AF49C4202FA07F200FAC2
:100BF00007F10BD91EEB030309F1FF3080F087806A
:100C00009C4240F28480A9F1020973441B1BADB2DF
:100C1000B3FBF8F008FB103345EA034400FB0AFA83
:100C2000A24508D91EEB040400F1FF336BD2A245A4
:100C300069D90238744440EA0940A0FB0289A4EB58
:100C40000A044C45C2464B4654D351D0002E69D0BD
:100C5000B1EB0A0564EB030404FA0CFCFD40FC4014
:100C60004CEA0505C6E90054002747E7C2F1200316
:100C700020FA03F7954001FA02F021FA03F34FEA54
:100C8000154E3843010CB3FBFEF71FFA85F80EFB37
:100C9000173341EA034107FB08F38B4204FA02F4DD
:100CA00007D9691807F1FF3C2FD28B422DD9023F9B
:100CB0002944CB1A81B2B3FBFEF00EFB103341EA9C
:100CC000034100FB08F38B4207D9691800F1FF3C90
:100CD00017D28B4215D902382944C91A40EA07476E
:100CE0003BE73746304609E70746E7E61846FBE6A6
:100CF0004145ABD2B8EB020A69EB0E02013813464C
:100D0000A4E76046E9E7184695E76746D1E78146DC
:100D10007CE702382C4447E7ACF1020C2B442FE768
:100D2000384608E73746E9E6704700BF0000000094
:100D300001F0FF01102A2BDB10F0070F08D010F88C
:100D4000013B013A8B422DD010F0070F42B3F6D190
:100D5000F0B441EA012141EA014122F007047FF0A9
:100D600000070023F0E80256083C85EA010586EA00
:100D7000010685FA47F5A3FA87F586FA47F6A5FA3C
:100D800087F68EB9EED1F0BC01F0FF0102F0070248
:100D900032B110F8013B013A83EA010313B1F8D1F3
:100DA0000020704701387047002D06BF35460338D4
:100DB000073815F0010F07D1013015F4807F02BF0D
:100DC000013015F4C03F0130F0BC0138704700BF5E
:100DD00008B501220421024806F062F908BD00BFEF
:100DE0000010024000B587B08DF80F006423009317
:100DF00001230DF117020DF10F01044807F0BEFBAE
:100E00009DF8170007B05DF804FB00BF201200201A
:100E100070B504460D46164600220421114806F01E
:100E20003FF90320FFF7DEFFC5F30740FFF7DAFFC6
:100E3000C5F30720FFF7D6FFE8B2FFF7D3FF5EB197
:100E4000751EADB201352544FF263046FFF7CAFFB7
:100E500004F8010BAC42F8D101220421014806F04C
:100E60001FF970BD0010024010B5074C002204218C
:100E7000204606F015F90620FFF7B4FF01220421F1
:100E8000204606F00DF910BD0010024010B50022FA
:100E90000421094806F004F90520FFF7A3FFFF2409
:100EA0002046FFF79FFF10F0010FF9D10122042126
:100EB000014806F0F5F810BD0010024038B50446B0
:100EC000FFF7D2FF0D4D00220421284606F0E8F876
:100ED000D820FFF787FFC4F30740FFF783FFC4F371
:100EE0000720FFF77FFFE0B2FFF77CFF012204211C
:100EF000284606F0D5F8FFF7C9FF38BD00100240BC
:100F000038B50446FFF7B0FF0D4D002204212846F6
:100F100006F0C6F82020FFF765FFC4F30740FFF78F
:100F200061FFC4F30720FFF75DFFE0B2FFF75AFF50
:100F300001220421284606F0B3F8FFF7A7FF38BDC9
:100F4000001002404318B3F1007F2ED870B505465B
:100F50000C4640EA0103C3F30B030BB1012070BD43
:100F600083B26BB98BB299421BD00E462846FFF76D
:100F7000A5FFA6F5803605F58035B4B2B442F5D1AB
:100F8000C4F30B039C420ED02846FFF7B9FFA4F52B
:100F9000805405F58055C4F30B03A342F4D100201F
:100FA000DDE71C46ECE70020D9E701207047000090
:100FB00070B504460D461646FFF756FF0022042181
:100FC000114806F06DF80220FFF70CFFC5F307404B
:100FD000FFF708FFC5F30720FFF704FFE8B2FFF7AC
:100FE00001FF4EB1751EADB20135254414F8010B59
:100FF000FFF7F8FEAC42F9D101220421024806F0C5
:101000004FF8FFF743FF70BD001002402DE9F84F85
:1010100005460E461746130A11F0FF0222D1EBB126
:10102000013B5FFA83F909F1010800EB0828044647
:101030000D1A4FF4807A524661192046FFF7B8FF27
:1010400004F580744445F6D106F58071FAB201EBDF
:1010500009212046FFF7ACFFBDE8F88F3A46FFF7BD
:10106000A7FFF9E75442E4B28BB9FBB29C420AD223
:101070001A44D7B22246FFF79BFF3A46A119281916
:10108000FFF796FFE8E73A46FFF792FFE4E7A2B2E0
:10109000BF1ABFB24FEA17295FFA87F8FFF788FF38
:1010A0002644254409F1FF3A5FFA8AFAB9F1000FA4
:1010B0001DD00AF1010905EB09292C46751B4FF4D7
:1010C000807B5A4661192046FFF772FF04F5807451
:1010D0004C45F6D106F5807606EB0A26B8F1000FEE
:1010E000BAD0FAB231462046FFF762FFB4E72C4689
:1010F000F4E7F0B5D0F85CE0DEF80850DEF80C302C
:101100001D4221D09EF8006006B3C4691434DEF895
:1011100010200023012703E001332244B34211D001
:1011200007FA03F02842F7D0104692F900C0BCF14C
:10113000000FF1DBB2F808C08C45EDD1DEF80430C9
:10114000536000E00020F0BD0020FCE70020FAE73B
:101150002DE9F041C66D01258D40B3681D4229D0AF
:101160003769C36903F1140401FB04F43919A2B10E
:101170003A5D12F0800F19D112F0010F18D004F16E
:101180001402B1F808E0D0F810C0D0F804803A4456
:10119000194603FB0EC0C04700E00020B36823EAF5
:1011A0000505B56000233B55BDE8F0810020F5E75B
:1011B0000020F3E70020F7E72DE9F843C36DDC6872
:1011C0009D68AC4302D00020BDE8F88393F800800E
:1011D000B8F1000F24D0C46904F1140CD3F80490C2
:1011E0001D6900274FF0FF3E3C4603E00134654493
:1011F00044450DD06B68A9EB0303BB42F6D92E78AA
:101200000E40964208BF1F46964208BFA646EDE72D
:10121000BEF1000F06DB01227146FFF799FFD3E70D
:101220000020D1E70020CFE770B4C66DB168B1F1FE
:10123000FF3F1DD03478ECB111F0010F13D0002323
:1012400001250133A34211D005FA03F21142F8D16E
:10125000C0691430346903FB00400A43B26073680C
:10126000436070BC704700230122F1E70020F8E7DB
:101270000020F6E70020F4E72DE9F04182B00446B3
:101280000F461E46C56D0169591AC369B1FBF3F1DA
:1012900089B2FFF72EFF6B6801336B6050B907F01E
:1012A0000307012F22D12368099A089930469847ED
:1012B000074617E0636E013363666B684360E3695A
:1012C0002169761AB6FBF3F103FB116114314678FC
:1012D000143303FB06132969089A1944099809F085
:1012E0007DFB0027384602B0BDE8F081A36E0133D4
:1012F000A366002280212046FFF75EFF07462046B6
:10130000FFF792FF8046002832D002230370236942
:10131000F31AE269B3FBF2F30381E169437801F167
:10132000140202FB03F214322069301AB0FBF1F30D
:1013300001FB1300236801932B691A44301A019BA7
:101340009847002818BF0746E3692169761AB6FB5B
:10135000F3F103FB1161143198F80120143303FBFE
:1013600002132969089A1944099809F037FBB9E76B
:101370002368099A089930469847002818BF0746FD
:10138000B0E7F0B587B0C66D002E41D0046E143CB6
:10139000C3691433B4FBF3F42146002C38DD00227A
:1013A00013465B0043F0010301329142F9D1054637
:1013B0000022019202928DF8044006F1140CCDF83F
:1013C00014C04FF0FF320392049301AF0FCF30608F
:1013D0007160B260F360C6F810C0EE6DEA69143255
:1013E000337803FB02F2306909F003FBF268B3685B
:1013F00023EA0203B36014F0FF0409D00022EB6972
:101400001433316902FB03135A700132A242F6D140
:1014100007B0F0BD2DE9F84F04460D4692469846B8
:101420000A9EDDF82C900C9FD0F878B08022002125
:1014300009F0DFFA28686968AA68EB6820606160D3
:10144000A260E36028696969AA69EB69206161614A
:10145000A261E361C4F878B0E368A269B3FBF2F378
:101460002362C4F838A0E369534463633246002121
:10147000404609F0BEFA18F0030303D0C3F1040399
:101480009844F61AC4F83C80164BA3FB063676093E
:10149000266419F0030303D0C3F104039944FF1A2F
:1014A00017F0030F18BF27F00307C4F85C90E36937
:1014B0005B01BB4228BF3B4623662046FFF761FF26
:1014C000094BE367204600F031F9002807DB0D9B4C
:1014D000E366012384F874300020BDE8F88F60646F
:1014E000FBE700BFABAAAAAA150309204FF6FF72BB
:1014F000914205D051B1C36C0133C36405487047B4
:10150000002BFBD1836C01338364F7E7036D013358
:101510000365F3E7AAD8FFFF2DE9F04F8DB006462B
:101520000F46039114460593BDF858300693006AA0
:10153000B169F569B1FBF5F35A00B2FBF5F2002A87
:1015400008BF01229B1A03FB00F9726B09926A081B
:101550000B929346013BA3423FDB3B4601FB03F367
:101560000893B9F1000F40F3C380059B03F001031A
:10157000049394FBFBF3079303FB0BFAF169B26945
:10158000B2FBF1F25200B2FBF1F2002A08BF0122D5
:10159000079B9A4240F398803369089A1344726B10
:1015A00001920091079A02FB013300221421304678
:1015B000FFF762FE0A90002840F08880A4EB0A083A
:1015C000C34578DD25464F46A8EB0408099B03EB8D
:1015D0004808179CDDF86C903DE0039B01339BB2FB
:1015E0000393984204D903FB01F308930024B8E75E
:1015F000059B13F0040F40F08E80002408940394A0
:10160000AFE71A9A12B1BDF80C101180B9F1000FB2
:1016100001D0C9F80030002C7FD0059A12F0020FDB
:101620000CBF38F815100699199A0192189A009271
:10163000039A3046A04700F51D531733012B35D8C8
:10164000384B984221D06B1C781E0135013FA5EB29
:101650000A025A4535DA2B46D6F81CC0B269B2FBED
:10166000FCF25100B1FBFCF1002908BF0121521A24
:10167000AA421EDD049A002AC3D038F81520069924
:101680008A42BED0781E6B1CDFE7F3693269089985
:101690000A44716B01910093079901FB0323002217
:1016A00014213046FFF7E8FD0028CCDA0DB0BDE884
:1016B000F08FB9462C46079B013307930B9B9A4446
:1016C0005CE781461C46F6E700230A93039B01333F
:1016D0009BB219460393B269336A99420AD2089BB6
:1016E000134408930A9B6BB90024A1453FF741AF0F
:1016F0000D48DBE7059B13F0040F10D1002308937E
:101700000393EFE708480A9B1A4612EA230238BF00
:1017100002461046CAE70448C8E70A98C6E70248E6
:10172000C4E700BFA9D8FFFFA8D8FFFF2DE9F04309
:101730008BB004460023ADF82630036A002B60D03E
:1017400000264FF6FF75B4460DF11E090227B0467C
:1017500009E0BDF82620013292B2ADF82620944669
:10176000236A9A4226D22169A069E369B0FBF3F2A9
:101770005200B2FBF3F2002A08BF012202390CFB2F
:101780000010CDF80490009702FB03034246152198
:101790002046FFF771FD002830DBBDF81E304FF604
:1017A000FF729342D5D09D4228BF1D469E4238BF4E
:1017B0001E46CEE71DB94FF6FF739E4205D0731B40
:1017C000B3F5004F1EDB0135ADB2A4F85650002131
:1017D000A164E164216508AB05930DF12603049330
:1017E00003910291094B019300910B460A46204652
:1017F000FFF792FE064B984208BF00200BB0BDE8F1
:10180000F0830026751CADB2DFE700BFED140008C1
:10181000A8D8FFFFDFF834D0002103E00C4B5B5861
:10182000435004310B480C4B42189A42F6D30B4AF2
:1018300002E0002342F8043B094B9A42F9D304F03A
:10184000FDFB09F097F802F08DFD704700000320C2
:1018500094EA000800000020140200201402002076
:10186000E81D0020FEE7704770B5204B9A690132F1
:101870009A61DB691BB11D4AD369013BD3611B4BE4
:101880001B78002B2ED00024184E15E0C368016988
:10189000984706EB85056B685A689A606B681A78FA
:1018A00012F0010F03D11A786FF341021A7001345C
:1018B000E4B23378A34215D9254606EB8403586871
:1018C0000028F4D0037813F0020FF0D08368002BC7
:1018D000DCD0013B836006EB840358688368002BEF
:1018E000D4D0E4E7FFF7BFFF70BD00BF3002002097
:1018F000EFF305835BB10A4A88B1136813F4803FA4
:1019000003D1136813F4803FFBD00138F4E7054B93
:1019100099691A4693695B1A8342FBD370477047F3
:1019200010E000E030020020014B9869704700BFD2
:101930003002002038B50546C0F3C00280211548AA
:1019400005F0AEFB144CC5F380024021204605F0A3
:10195000A7FBC5F340028021204605F0A1FB05F05E
:1019600001024FF48071204605F09AFB01224FF4EA
:101970000071204605F094FB142001F0E1F80022EC
:101980004FF40071204605F08BFB142001F0D8F8CD
:1019900038BD00BF001802400008024010B50446E0
:1019A00000224FF48071054805F07AFB2009FFF70B
:1019B000C1FF04F00F00FFF7BDFF10BD00000240A3
:1019C00000B583B000238DF8043040238DF8053036
:1019D00014238DF8063054238DF807300A4BDB783A
:1019E0008B4298BF0021084B5871997102AB194482
:1019F00011F8043C184460F07F00C0B2FFF7CEFF3E
:101A000003B05DF804FB00BF5002002010B504468F
:101A100001224FF48071054805F042FB2009FFF7D1
:101A200089FF04F00F00FFF785FF10BD00000240A2
:101A300008B50120FFF7B2FF40F6B83001F080F89A
:101A400008BD000070B51546FFF7BAFF2B784BB301
:101A5000154C002617E06671A1790131C9B2A17158
:101A60003046FFF7ADFF12E0A1790131C9B2A17193
:101A70006079FFF7A5FF03E0A1793046FFF7A0FFEB
:101A800015F8013F73B1627923799A42E3D228783D
:101A90000A28E9D00D28EFD0FFF7B8FF63790133AA
:101AA0006371EDE770BD00BF5002002008B5054B23
:101AB000187840F004021A7040F00C00FFF76EFF37
:101AC00008BD00BF5002002070B506460D4600223A
:101AD0004FF480712F4805F0E3FA2F4C00224FF4A9
:101AE0000071204605F0DCFA00224FF48071204698
:101AF00005F0D6FA00228021204605F0D1FA002216
:101B00004021204605F0CCFA00228021234805F030
:101B1000C7FA4AF6C87001F013F8214BDD701E7148
:101B200000225A719A71012D84BF1D4B08225A70F0
:101B30000320FFF7FFFE41F2941001F001F80320AB
:101B4000FFF7F8FE41F2941000F0FAFF0320FFF7D0
:101B5000F1FE41F2941000F0F3FF0220FFF7EAFEDD
:101B6000642000F0EDFF0E4C607840F02000FFF79D
:101B700015FF04232370FFF799FFFFF759FF022396
:101B8000A3700620FFF70AFF41F2941000F0D8FF7F
:101B900070BD00BF00000240000802400018024073
:101BA0005002002030B583B002AC04F8010D0022D1
:101BB0004FF400510A4805F073FA0A4D002204213F
:101BC000284605F06DFA642301222146064806F0F6
:101BD00005FC01220421284605F062FA03B030BD5D
:101BE000000C0240000802402012002030B583B0F3
:101BF00002AC04F8010D01224FF400510A4805F02F
:101C00004FFA0A4D00220421284605F049FA6423C0
:101C100001222146064806F0E1FB01220421284664
:101C200005F03EFA03B030BD000C0240000802404F
:101C300020120020F8B507460D4616461C462A20FD
:101C4000FFF7B0FF380AFFF7D1FFF8B2FFF7CEFF7A
:101C5000300AFFF7CBFFF0B2FFF7C8FF2B20FFF7EA
:101C6000A1FF280AFFF7C2FFE8B2FFF7BFFF200A73
:101C7000FFF7BCFFE0B2FFF7B9FFF8BD10B514469F
:101C80000B460246FFF7D6FF2C20FFF78BFFC4F36D
:101C90000720FFF7ABFFE0B2FFF7A8FF10BD000081
:101CA0002DE9F04182B080460E4617461C46BDF82D
:101CB00020504FEA152C8DF804C08DF80550FFF721
:101CC000B9FF2C20FFF76EFFA7EB0807A31B01331A
:101CD00007FB033700220421244805F0E1F9012223
:101CE0004FF40051224805F0DBF9224B19680A68CD
:101CF00022F040020A604FF40062DA601A6813684A
:101D000043F040031360B7F5803F0DD34FF6FF74E7
:101D1000184E02252A4601A9304606F0FFFD013C77
:101D2000F8D1A7F57F47FF3F5FB101370124114E7E
:101D300002252A4601A9304606F0F0FD0134BC42D6
:101D4000F7D101220421094805F0AAF9094B1968C5
:101D50000A6822F040020A600022DA601A681368FA
:101D600043F04003136002B0BDE8F0810008024078
:101D7000000C02402012002000B583B0064A5388B0
:101D80001288013A80B2009092B200210846FFF713
:101D900087FF03B05DF804FB480D002082B001907E
:101DA000019B2BB1019B013B0193019B002BF9D1BE
:101DB00002B0704710B59B4C00224FF48051204672
:101DC00005F06EF944F62060FFF7E8FF01224FF4BA
:101DD0008051204605F064F944F62060FFF7DEFFED
:101DE0000120FFF7DFFE4CF25030FFF7D7FFCB208A
:101DF000FFF7D8FE3920FFF7F9FE2C20FFF7F6FE9B
:101E00000020FFF7F3FE3420FFF7F0FE0220FFF77B
:101E1000EDFECF20FFF7C6FE0020FFF7E7FEC12052
:101E2000FFF7E4FE3020FFF7E1FEE820FFF7BAFEFF
:101E30008520FFF7DBFE0020FFF7D8FE7820FFF7B4
:101E4000D5FEEA20FFF7AEFE0020FFF7CFFE002010
:101E5000FFF7CCFEED20FFF7A5FE6420FFF7C6FEDE
:101E60000320FFF7C3FE1220FFF7C0FE8120FFF71B
:101E7000BDFEF720FFF796FE2020FFF7B7FEC0203B
:101E8000FFF790FE2320FFF7B1FEC120FFF78AFE87
:101E90001020FFF7ABFEC520FFF784FE3E20FFF7C2
:101EA000A5FE2820FFF7A2FEC720FFF77BFE8620B5
:101EB000FFF79CFE3620FFF775FE4820FFF796FEE1
:101EC0003A20FFF76FFE5520FFF790FEB120FFF795
:101ED00069FE0020FFF78AFE1820FFF787FEB62074
:101EE000FFF760FE0820FFF781FE8220FFF77EFEED
:101EF0002720FFF77BFEF220FFF754FE0020FFF7BC
:101F000075FE2A20FFF74EFE0020FFF76FFE00202F
:101F1000FFF76CFE0020FFF769FEEF20FFF766FE7B
:101F20002B20FFF73FFE0020FFF760FE0020FFF7A9
:101F30005DFE0120FFF75AFE3F20FFF757FE2620E7
:101F4000FFF730FE0120FFF751FEE020FFF72AFEE9
:101F50000F20FFF74BFE3120FFF748FE2B20FFF745
:101F600045FE0C20FFF742FE0E20FFF73FFE082043
:101F7000FFF73CFE4E20FFF739FEF120FFF736FE5B
:101F80003720FFF733FE0720FFF730FE1020FFF762
:101F90002DFE0320FFF72AFE0E20FFF727FE092063
:101FA000FFF724FE0020FFF721FEE120FFF7FAFDF6
:101FB0000020FFF71BFE0E20FFF718FE1420FFF78E
:101FC00015FE0320FFF712FE1120FFF70FFE07207A
:101FD000FFF70CFE3120FFF709FEC120FFF706FED8
:101FE0004820FFF703FE0820FFF700FE0F20FFF751
:101FF000FDFD0C20FFF7FAFD3120FFF7F7FD36203D
:10200000FFF7F4FD0F20FFF7F1FD1120FFF7CAFDE8
:102010000548FFF7C3FE2920FFF7C4FD2C20FFF77A
:10202000C1FD10BD000C024040420F0008B5012266
:1020300004210B4805F034F8FFF7BCFE0023094AE1
:102040001380094A1380094BF0221A804FF4A072C2
:102050005A8001221A714FF6FF70FFF78DFE08BDFE
:10206000000802404E0D0020440D0020480D0020C5
:1020700010B504463620FFF795FD84B1012C1AD027
:10208000022C1CD0032C1ED0012C0BD9104B4FF46A
:10209000A0721A80F0225A8000221A7110BD5820B6
:1020A000FFF7A4FD0A4BF0221A804FF4A0725A8069
:1020B00001221A71F2E78820FFF798FDF2E7282045
:1020C000FFF794FDE2E7E820FFF790FDDEE700BFB1
:1020D000480D00202DE9F04D82B093461D462A4B55
:1020E00018802A4B19802B781844294B1B8898425A
:1020F00006DD6B781944254B1980234B00221A808A
:10210000214B1888214B19886B780B442A7802449C
:10211000BDF82C4000949BB292B2FFF7C1FD6A78E3
:1021200052B34FF00008DFF864A0174F18E00134F5
:102130002B78A3420FD906FA04F313F4004FF6D01C
:10214000BAF800104144388820440A9A89B280B213
:10215000FFF794FDEBE708F101086A7842450BD9D7
:10216000ABF1200302FB03836A6832F813602B781B
:10217000002BF0D00024DEE7034A2B7811880B44B3
:10218000138002B0BDE8F08D440D00204E0D0020FC
:10219000480D00202DE9F04F83B0824614461E46BC
:1021A000DDF83090DDF83480164B1880164B19801E
:1021B0001D46144F4FF0000B0FE02B885A1C73780C
:1021C00013442B8063780D2B06BFA7F800B00134B1
:1021D000A7F800A0013400E00134227872B10A2A85
:1021E000EBD00D2AF8D0013429883888CDF8048046
:1021F000CDF800903346FFF76DFFEEE703B0BDE882
:10220000F08F00BF440D00204E0D0020014B185CE4
:10221000704700BF18000020074B187CFF280AD029
:102220005B7CFE2B06D0054B00221A80024BFE225F
:102230005A747047FF207047180000205802002091
:1022400038B505461C4C01224FF48051204604F05D
:1022500027FF01222021204604F022FF01224021F5
:10226000204604F01DFF01224FF40051134804F0F2
:1022700017FF012D06D0022D0AD0032D0ED0042DFC
:1022800012D038BD00221021204604F009FFF6E7E5
:1022900000222021084804F003FFF2E70022402139
:1022A000054804F0FDFEECE700224FF4005103481E
:1022B00004F0F6FEE5E700BF00100240000802400F
:1022C00008B50020FFF7BCFF08BD000010B50446AC
:1022D0004FF48071134804F0DDFE18B91248204411
:1022E000C07C10BD80210F4804F0D4FE18B90E4800
:1022F0002044C07DF5E74FF480610C4804F0CAFE2D
:1023000018B909482044C07EEBE74FF40071054836
:1023100004F0C0FE18B904482044C07FE1E7FF2064
:10232000DFE700BF00040240180000200018024050
:1023300008B50120FFF784FF0120FFF7C7FFFF2842
:1023400000D008BD0220FFF77BFF0220FFF7BEFF91
:10235000FF28F6D10320FFF773FF0320FFF7B6FF36
:10236000FF28EED10420FFF76BFF0420FFF7AEFF3C
:10237000E7E7000008B5FFF7DBFF114B1874114BBE
:102380001B8801339BB2B3F5FA7F0FD30D4B0022AC
:102390001A80FF280DD01A469B780133DBB2937068
:1023A000042B09D1074B00229A7005E0054A1380DF
:1023B00005E0044B00229A70014BFF225A7408BDBD
:1023C00018000020580200200B4B9B681844B0F501
:1023D000801F28BFC0F31300074B9860064A93681C
:1023E000C3F310011160C3F34B115160C3F34743B2
:1023F00013731374704700BF5C0200200B4BDB6942
:102400001844B0F5801F28BFC0F31300074BD861F4
:10241000064AD369C3F310015161C3F34B119161B3
:10242000C3F3474382F82030137470475C020020E6
:1024300010B5054B03EB8004012233F8101020691E
:1024400004F02EFE10BD00BF94E4000810B5054B4B
:1024500003EB8004002233F81010206904F020FE02
:1024600010BD00BF94E4000800B583B064230122CE
:102470000DF10701034806F09EF99DF8070003B02F
:102480005DF804FB20120020014B9868704700BFE4
:102490005C02002008B501290FD011B1022909D032
:1024A00008BD0B4B00221A605A609A601A74FFF73D
:1024B0008BFFF5E7FFF788FFF2E7054B00221A6074
:1024C0005A609A601A74C0F58010FFF77DFFE7E745
:1024D0005C02002008B501290FD011B1022909D0F2
:1024E00008BD0B4B00225A619A61DA611A74FFF73A
:1024F00085FFF5E7FFF782FFF2E7054B00225A61FF
:102500009A61DA611A74C0F58010FFF777FFE7E788
:102510005C020020014BD869704700BF5C020020BC
:1025200000B583B002A901F8010D6423012203481C
:1025300005F054FF03B05DF804FB00BF201200203B
:1025400010B50020054B18741C46FFF771FF207C66
:102550000130C0B220740728F7D910BD5C020020FA
:1025600038B50546074C207CFFF770FF0120FFF7C8
:10257000D7FF2846FFF7D4FF207CFFF759FF002044
:1025800038BD00BF5C02002070B504460D461646FB
:102590001846FFF7C5FF3046FFF7C2FF2846FFF792
:1025A000BFFF2046FFF7BCFF70BD00002DE9F041E2
:1025B00006460F4690461C46069D4020FFF7D0FF7A
:1025C0000C4B187CFFF742FF022342463946304647
:1025D000FFF7DAFF35B1254414F8010BFFF7A0FF30
:1025E000A542F9D1034B187CFFF722FF0020BDE87C
:1025F000F08100BF5C02002070B582B02E4A5269A3
:1026000012F01F0214BFC2F120051546002934D074
:102610000C4606461F2922D98AB9274B9A7D597D37
:10262000187D202500953346FFF7C0FF2846FFF7A9
:10263000E5FEA4F120017019FFF7DEFF1DE01E4B3F
:102640009A7D597D187D00953346FFF7AFFF2846E8
:10265000FFF7D4FE611B7019FFF7CEFF0DE0FAB152
:102660008D420CD3144B9A7D597D187D00943346CE
:10267000FFF79CFF2046FFF7C1FE02B070BD4C1B68
:102680000D4B9A7D597D187D00953346FFF78EFFDF
:102690002846FFF7B3FE21467019FFF7ADFFECE7C0
:1026A000054B9A7D597D187D00943346FFF77EFFD8
:1026B0002046FFF7A3FEE0E75C0200202DE9F04191
:1026C00006460F4690461C46069D4020FFF748FFF1
:1026D0000C4B187CFFF7BAFE0323424639463046BE
:1026E000FFF752FF35B12544FFF7BEFE04F8010B9A
:1026F000A542F9D1034B187CFFF79AFE0020BDE8F4
:10270000F08100BF5C02002070B582B02E4A1268D2
:1027100012F01F0214BFC2F120051546002934D063
:102720000C4606461F2922D98AB9274B9A78597830
:102730001878202500953346FFF7C0FF2846FFF79D
:1027400043FEA4F120017019FFF7DEFF1DE01E4BD0
:102750009A785978187800953346FFF7AFFF2846E6
:10276000FFF732FE611B7019FFF7CEFF0DE0FAB1E3
:102770008D420CD3144B9A785978187800943346CC
:10278000FFF79CFF2046FFF71FFE02B070BD4C1BF9
:102790000D4B9A785978187800953346FFF78EFFDD
:1027A0002846FFF711FE21467019FFF7ADFFECE751
:1027B000054B9A785978187800943346FFF77EFFD6
:1027C0002046FFF701FEE0E75C02002010B5406CF8
:1027D000054C0A22214608F05DFA2246012100201C
:1027E000FFF730F910BD00BF500D002010B5036891
:1027F0004C4A934203D04C4A934203D010BD01F09F
:102800000DFDFBE703F0CEFE3E2821D8DFE800F007
:102810002323232320202020203535353520202058
:102820002020393939392020203D3D3D3D202041AF
:102830004141414545454520494949204D4D4D516E
:10284000515155555559595D5D61616969718600F0
:10285000364B1860D2E7354B01221A60FFF7E8F8D3
:10286000334C0A222146314B186808F013FA2246ED
:1028700000210846FFF7E6F8C0E72C4B02221A6059
:10288000ECE72A4B03221A60E8E7284B04221A607F
:10289000E4E7264B05221A60E0E7244B06221A6083
:1028A000DCE7224B07221A60D8E7204B08221A6087
:1028B000D4E71E4B09221A60D0E71C4B0A221A608B
:1028C000CCE71A4B0B221A60C8E7184B0C221A608F
:1028D000C4E7164B0D221A60164A936C013B9364B1
:1028E000BCE7124B0E221A60124A936C01339364B8
:1028F000B4E70E4B0F221A600E4B1B7BDBB2012B91
:1029000008D00C4B1B7BDBB2032BA7D1094B012258
:102910001A73A3E7074B03221A739FE7034B102296
:102920001A609BE70022014000200140A002002025
:10293000500D00203411002000B585B019481A4B05
:1029400003604FF4803343604FF040738360002393
:102950000361836103624FF08052C2624FF0706284
:102960008262C3600122C2610363426103F034FCEE
:1029700068B9042300930123019307230293694656
:10298000084803F0FBFE38B905B05DF804FBCB2125
:10299000064801F06BFEECE7D521044801F066FE25
:1029A000F2E700BFB80D00200020014000E500085C
:1029B00000B585B01E481F4B03604FF48033436061
:1029C0004FF0407383600122026182610023036241
:1029D000C36219498162C3600221C161026343611C
:1029E00003F0FAFBA0B9012300930193062302939D
:1029F00069460F4803F0C2FE78B9022300930193A1
:102A000069460B4803F0BAFE60B905B05DF804FBF7
:102A1000EE210A4801F02AFEE5E7F821074801F017
:102A200025FEEAE740F20111044801F01FFEECE741
:102A3000000E0020002201400100000F00E5000808
:102A4000F0B589B00368374A934205D00446364A48
:102A5000934225D009B0F0BD00240194334B5A6C49
:102A600042F480725A645B6C03F480730193019B9F
:102A7000102603960327049705942D4D03A9284695
:102A800004F016FA22463946122003F057FF1220AE
:102A900003F086FF22463146284604F001FBD9E7C1
:102AA00000250295214B5A6C42F480625A645B6C9B
:102AB00003F480630293029B06230393032304938E
:102AC000059503A91A4804F0F3F91A481A4B036054
:102AD0004FF0806343608560C5604FF4806303619D
:102AE0004FF4805343614FF4804383614FF480730C
:102AF000C3614FF480330362456203F0E1FF58B9CC
:102B00000C4BA3639C6300220321122003F016FFE9
:102B1000122003F045FF9DE74FF4A071074801F034
:102B2000A5FDEDE7002001400022014000380240F1
:102B300000000240580D00202864024000E5000813
:102B400038B50446074B5D6805F0B4FA064BA3FBA5
:102B50000030800C04FB00F4024A53685B1BA34264
:102B6000FBD338BD001000E083DE1B4310B582B0FC
:102B700002AC04F8010D0A20FFF7E2FF0A2301224C
:102B80002146024805F02AFC02B010BDD8120020F0
:102B900008B50A20FFF7D4FF08BD000000B583B0D8
:102BA00002A9002301F8013D0A230122034805F090
:102BB00002FE9DF8070003B05DF804FBD812002068
:102BC00070B506460D460C4C00224FF4806120463D
:102BD00004F066FA46F05000FFF7C8FF0020FFF748
:102BE000C5FF2846FFF7C2FF01224FF4806120464F
:102BF00004F056FA70BD00BF0008024038B5054623
:102C00000D4C00224FF48061204604F049FA45F053
:102C10001000FFF7ABFF0020FFF7A8FFFFF7B8FF9A
:102C2000FFF7BCFF054601224FF48061204604F007
:102C300037FA284638BD00BF0008024038B50546BF
:102C4000084C00224FF48061204604F029FA2846FF
:102C5000FFF78CFF01224FF48061204604F020FA38
:102C600038BD00BF0008024008B530B1012809D0C6
:102C700002280CD003280FD008BD01210846FFF719
:102C80009FFFF9E723210120FFF79AFFF4E7452191
:102C90000120FFF795FFEFE767210120FFF790FF85
:102CA000EAE7000070B5054C054E0425294630467C
:102CB00004F0F0F908B1013CF8D170BD801A0600AB
:102CC000000C024070B505460C46154B1870597043
:102CD000FFF7E8FF134B1E5D134C00224FF4806199
:102CE000204604F0DDF95020FFF740FF0320FFF7F6
:102CF0003DFF0620FFF73AFF0820FFF737FF284681
:102D0000FFF734FF3046FFF731FF01224FF48061B7
:102D1000204604F0C5F93220FFF712FF70BD00BF56
:102D20001C0D0020C4E400080008024008B5FFF7AD
:102D3000B9FF0020FFF762FFC0F3071008BD0000D5
:102D400070B5144E00224FF48061304604F0A8F9AB
:102D50000120FFF70BFFFFF71BFFFFF71FFF0E4DD3
:102D60002870FFF71BFF6870FFF718FFA8702B781B
:102D70006C78240244EA0344044301224FF4806146
:102D8000304604F08DF914F4000F18BF44F07F446E
:102D9000204670BD00080240AC02002010B582B091
:102DA0008DF804000B0A8DF805308DF806100C4CD8
:102DB00001222021204604F073F900222021204620
:102DC00004F06EF96423032201A9064805F006FB0E
:102DD00001222021204604F063F902B010BD00BF9B
:102DE000000C0240D812002070B582B000258DF88A
:102DF0000050030A8DF801308DF8020034238DF85D
:102E000003300B0A8DF804308DF80510124C2A4659
:102E10002021204604F044F9104E64230322694621
:102E2000304605F0DBFA01222021204604F038F973
:102E30002A462021204604F033F9642303220DEBB7
:102E40000201304605F0CAFA01222021204604F092
:102E500027F902B070BD00BF000C0240D81200205C
:102E600030B583B0ADF806000E4BDB780BB903B07C
:102E700030BD0C460C4D286801220DF1060100F111
:102E8000504002F009FCA3680133A3602B680233B1
:102E9000B3F5000F01D02B60E9E70023024A13606D
:102EA0006360E4E734110020B40200200000000059
:102EB000454BDB7803B9704730B583B00C46054607
:102EC000424B186801220DF1060100F1504002F05A
:102ED000D9FBBDF906305A1912B2A282A3816268E9
:102EE00001326260227812F0080F19D1A38A1BB256
:102EF0002269934202DDA38A1BB22361237813F077
:102F0000100F26D16268A3689A422CD02F4B1B6801
:102F10000233B3F5000F4FD02C4A136003B030BD1D
:102F200094ED067AD4ED066A07EE903AF8EEE77A69
:102F300067EE877A07EE105AB8EEC77A27EE267A40
:102F400077EE877AFDEEE77A17EE903A1BB2A3820E
:102F5000CCE71E4B1868012204F1140100F1504027
:102F600002F09AFBCEE7237813F0100F0ED12378EE
:102F70006FF3C30323704FF07E53A36143F6FF73D7
:102F800023610023114A13606360C7E72369B3F527
:102F9000804FECDB237843F0080323702069FDF7B2
:102FA00079FA02460B4606A1D1E90001FDF706FCBD
:102FB000FDF7ECFCA061E1E7044B00221A60ADE7ED
:102FC0000000000080FFCF4034110020B402002038
:102FD00008B5818901F57F513F3189B21020FFF793
:102FE000DDFE08BDF0B585B0ADF80600314BDB78ED
:102FF0004BB115460C460B7813F0020F05D1137830
:1030000013F0020F2AD105B0F0BD2B4E306801221B
:103010000DF1060100F1504002F03EFB3068012244
:103020000DF10E0100F15040023002F02BFBA368BD
:103030000133A360BDF90E30AB811F4A136804331E
:103040001360A168AA68914221D0B3F5000FDAD1CC
:103050000023194A136063606B60D4E7164E306832
:1030600001220DF1060100F15040023002F014FB84
:10307000306801220DF10E0100F1504002F002FB18
:10308000AB680133AB60BDF90E30A381D5E7094FC2
:103090000026FE70304602F041F9012002F04EF9A0
:1030A00001237B703E7066606E60034A1660FB70A1
:1030B000A9E700BF34110020B402002008B503784E
:1030C00013F0020F0CD10B7813F0020F16D1037816
:1030D00013F0020F16D10B7813F0020F1BD108BDAD
:1030E0008B68002BEFD08389898943F6FF700144F8
:1030F000184489B280B2FFF777FEF0E78368002BAF
:10310000E5D0F0E7818901F57F513F3189B2102088
:10311000FFF744FEE3E7898901F57F513F3189B22A
:103120002420FFF73BFEDAE7614BDB7803B97047F9
:1031300070B582B006460C4615465E4B18680122F3
:1031400001A900F1504002F093FA237813F0020F26
:1031500005D12B7813F0020F31D102B070BDBDF94B
:10316000042093191BB2A382A281BDF90630AB8162
:103170006368013363606A68AB689A4202D26B6825
:1031800001336B60237813F0080F25D1A38A1BB29B
:103190002269934202DDA38A1BB22361237813F0D4
:1031A000100F34D16268A3689A424DD0414B1B681E
:1031B0000433B3F5000F70D03E4A1360CDE7BDF97C
:1031C000062093191BB2AB82AA81BDF90430A381FA
:1031D00023462C461D46CBE794ED067AD4ED066ACD
:1031E000BDF9043007EE903AF8EEE77A27EE877AD9
:1031F00007EE906AF8EEE77A67EEA67A77EE277A1E
:10320000FDEEE77A17EE903A1BB2A382BEE7237871
:1032100013F0010F0ED0237813F0010FC2D0254B0D
:103220001868012204F1140100F15040023002F04C
:1032300033FAB7E71F4B1868012204F1140100F1BB
:10324000504002F029FAADE7237813F0100F0ED1A9
:1032500023786FF3C30323704FF07E53A36143F6CB
:10326000FF7323610023134A1360636075E72369CA
:10327000B3F5804FECDB237843F00803237020691B
:10328000FDF708F902460B4607A1D1E90001FDF759
:1032900095FAFDF77BFBA061E1E7064B00221A607F
:1032A0005BE700BFAFF300800000000080FFCF406D
:1032B00034110020B4020020124B1A7C6FF3C302B9
:1032C0001A7493F82C206FF3C30283F82C201A7C15
:1032D0006FF304121A7493F82C206FF3041283F81E
:1032E0002C2043F6FF721A62DA634FF07E529A6224
:1032F0005A6400225A611A639A615A639A831A8740
:10330000704700BF3411002000B583B00E480F4B4A
:10331000036003F086FB60B90C2300930023019344
:1033200010226946084803F08EFB38B903B05DF8F7
:1033300004FB4921064801F099F9EDE752210448C0
:1033400001F094F9F2E700BF540E00200074004031
:1033500034E500080268214B9A4200D0704730B52E
:1033600087B004460025009503F5E2331A6C42F05D
:1033700000521A641B6C03F000530093009B20233F
:10338000019303230293039501A9154803F090FDCF
:103390001448154B03604FF0606343604023836023
:1033A000C5604FF4806303614FF4006343614FF4E1
:1033B000005383614FF48073C3614FF400330362A1
:1033C000456203F07DFB20B9064BE3609C6307B0C8
:1033D00030BD7921054801F049F9F5E70074004056
:1033E00000000240680E0020A060024034E50008A2
:1033F00010B582B0002400941A4B1A6B42F40012EC
:103400001A631A6B02F400120092009A01941A6B6C
:1034100042F480021A631B6B03F480030193019B47
:1034200002220121112003F089FA112003F0B8FAD9
:1034300003220121392003F081FA392003F0B0FA88
:10344000224603213B2003F079FA3B2003F0A8FA3F
:10345000022203213C2003F071FA3C2003F0A0FA81
:1034600002B010BD003802402DE9F04385B0064699
:103470000D46144600201F4B18701F4B1870014654
:10348000FFF708F80C2101A8FFF73EF9019B2B601C
:10349000029B3360039B2360306828B3302B25D810
:1034A000400007F08BFA074610B30024134D4FF08D
:1034B0001009DFF84C80FEF7E7FF47F83400494673
:1034C0002846FFF721F92B68696801FB03F101EB3E
:1034D00081014046FFF718F901343368A342EAD866
:1034E000384605B0BDE8F0830027F9E70027F7E785
:1034F0000027F5E7C80E0020C00F0020DC0F0020D9
:103500000C10002008B5054B00221A73044805F082
:10351000BFFA6420FEF7ECF908BD00BF34110020AB
:103520004414002030B485680368446804FB03F445
:103530000C6003684EF66022B2FBF5F203FB02F367
:103540004B6048680A68B0FBF2F302FB13038B6020
:103550004B680A68B3FBF2F3CB6030BC70470000E5
:1035600070B50B4600211A4A117000EBC30650F8E3
:103570003300FEF78FFF174D10212846FFF7C4F8E0
:10358000154C21462846FFF7CDFF216801EB81014C
:103590001248FFF7B9F8124B1B7C13F0020F06D14B
:1035A0000F4B93F82C3013F0020F08D170BD7268E6
:1035B0000B4B5A615B695B000A4A1360F0E7726863
:1035C000074B1A631B6B5B00064A1360EEE700BFF4
:1035D000C80E0020DC0F0020FC0F00200C10002083
:1035E00034110020B402002030B485680E4B9A6C70
:1035F0000368446804FB03F40C60036850194EF63A
:103600006022B2FBF0F203FB02F34B6048680A68E9
:10361000B0FBF2F302FB13038B604B680A68B3FB49
:10362000F2F3CB6030BC704734110020F8B5314B59
:103630001B7BDBB2012B00D0F8BD2F4B1B889BB24C
:103640002E4A126851688B424AD22B4B1B889BB280
:10365000916819B12A490C68052C0FD0D168B3FBC9
:10366000F1F201FB1233002B30D1254B1C6814F111
:10367000050F1ED8234E1F4F214D0EE0D1689268D2
:103680000A44B3FBF2F102FB1133002BF2D01DE030
:1036900001342B680433A3420BD93368195D002928
:1036A000F6D03B7BDBB2012BF2D1012001F0D2FC42
:1036B000EEE7144B1B68195D21B10E4B1B7BDBB28F
:1036C000012B09D00E4A1368053313600A4A138888
:1036D00001339BB21380AFE7012001F0C5FCF1E795
:1036E000094B01221A700023034A1380044A136015
:1036F000A2E700BF341100204A0C0020BC0F0020BC
:10370000FC100020D80F0020C00F00200023024A28
:103710001380024A136070474A0C0020FC100020FE
:103720002DE9F04782B007466B4BD3F804800025A3
:103730006A4A15706A4A15705968FFF711FF664C9E
:10374000664E5BE0237C13F0020F0AD194F82C3014
:1037500013F0020F5BD06368626B07EBC3035A6020
:1037600055E06368A26907EBC3035A60EEE75D4862
:1037700005F082F901232373FFF7C8FF4BE0DFF860
:103780008C9110214846FEF7BFFF574D2946484609
:10379000FFF7C8FE296801EB81015448FEF7B4FF2A
:1037A000012535706268DFF868910132504948465A
:1037B00007F0F8F940F21D530193002300934D4B9D
:1037C0004A4682210A20FEF7E5FC454A13781BB9D8
:1037D000237BDBB2012BF9D0237B002B6FD0237B23
:1037E000DBB2032B6BD03E4B00221A7063680133AF
:1037F00063606268A36801339A424CD06268636870
:1038000001339A425BD22378DBB2012B9AD0337812
:10381000B3B9002DABD0DFF8FC90374D49462846B0
:10382000FFF7E2FE354BC3F80090354B1D60354B7A
:10383000354A1A606268A3689A42A0D10125B1E7AF
:10384000DFF8A4A0DFF8C49051464846FFF7CCFE4D
:103850002A4BC3F800A02A4BC3F80090294B234AF7
:103860001A606268A3689A429CD0DFF88CA010218D
:103870005046FEF749FFDFF89C9049465046FFF757
:1038800051FED9F8001001EB81011F48FEF73CFF03
:103890000023337086E72378DBB2012B0CD0C4F809
:1038A0000480002333700E4A137061683846FFF7B6
:1038B00057FEFFF72BFFA1E7074B00221A70FFF717
:1038C00021FE054BC3F804800022DA705A701A708A
:1038D00002B0BDE8F08700BF34110020C80E002000
:1038E000C00F002044140020C40F0020CC0E002084
:1038F00068E5000808000020DC0F0020BC0F002055
:10390000D40F0020D80F00200C100020EC0F002056
:1039100088110020FC0F002000B589B01248134B1D
:10392000036001234360002383600422C2600361BB
:10393000436180228261C361036243628362102318
:10394000019302930393049305930693079301A9AC
:1039500004F0D6FB10B909B05DF804FB5A21044805
:1039600000F084FEF7E700BF00110020400100A036
:103970007CE500082E4B1B6803B170472DE9F04130
:1039800086B04FF001082A4BC3F800800024009451
:10399000284B9A6B42EA08029A639B6B03EA08037E
:1039A0000093009B4FF63F03019302270297039475
:1039B000032604960C25059501A91F4803F078FA03
:1039C000CDF80480029703940496059501A91B483D
:1039D00003F06EFA48F233130193029703940496AE
:1039E000059501A9164803F063FA4FF68373019316
:1039F000029703940496059501A9124803F058FA1A
:103A00004CF203730193029703940496059501A960
:103A10000D4803F04DFA6023019302970394049636
:103A2000059501A9094803F043FA06B0BDE8F08105
:103A3000B802002000380240001402400008024092
:103A40000018024000100240000C02400004024036
:103A50002DE9F04F8FB000240194AB4B1A6B42F06C
:103A600010021A631A6B02F010020192019A02947A
:103A70001A6B42F004021A631A6B02F004020292FB
:103A8000029A03941A6B42F020021A631A6B02F036
:103A900020020392039A04941A6B42F080021A6384
:103AA0001A6B02F080020492049A05941A6B42F099
:103AB00001021A631A6B02F001020592059A06943C
:103AC0001A6B42F002021A631A6B02F002020692AB
:103AD000069A07941A6B42F040021A631A6B02F0BE
:103AE00040020792079A08941A6B42F008021A6380
:103AF0001B6B03F008030893089B844F01220C21E1
:103B0000384603F0CDFA22467021384603F0C8FA51
:103B1000224642F216017E4803F0C2FA01224FF417
:103B2000F9617B4803F0BCFA01224FF4A471794893
:103B300003F0B6FA22468021764803F0B1FA01225A
:103B400040F20341744803F0ABFA224643F22001ED
:103B5000724803F0A5FA224647F20C01704803F0C0
:103B60009FFA012280216E4803F09AFA012218215F
:103B70006A4803F095FA4FF0040BCDF824B0012504
:103B80000A950B9402260C9609A9384603F090F981
:103B9000082309930A950B940C9509A9384603F05C
:103BA00087F9702309930A950B940C9409A9384658
:103BB00003F07EF942F2160309930A950B940C94D4
:103BC00009A9534803F074F94FF488630993554FDA
:103BD0000A970B9409A9544803F06AF94FF48163DA
:103BE00009930A950B940C9609A9494803F060F9CA
:103BF000482309930A950B940C9609A9454803F0AC
:103C000057F94FF08008CDF824800A950B940C9456
:103C100009A9404803F04CF920230993434B0A9328
:103C20000B9409A93A4803F043F940F2034309937E
:103C30000A950B940C9609A9374803F039F9CDF889
:103C400024B00A940B9409A9334803F031F94FF4D6
:103C50000069CDF824900A960B940C944FF00E0A4C
:103C6000CDF834A009A92C4803F022F9CDF824900E
:103C70000A940B9409A9294803F01AF943F2200386
:103C800009930A950B940C9409A9244803F010F9A0
:103C900047F20C0309930A950B940C9409A9204848
:103CA00003F006F9402309930A960B940C94CDF87F
:103CB00034A009A91A4803F0FBF8CDF824800A952E
:103CC0000B940C9509A9164803F0F2F84FF47073A1
:103CD00009930A950B940C9509A90D4803F0E8F88F
:103CE0004FF4807309930A950B940C9509A9094820
:103CF00003F0DEF84FF4C05309930A960B940C9628
:103D00000A230D9314E000BF003802400010024067
:103D1000000802400000024000040240000C024083
:103D20000018024000002110001402400000121090
:103D300009A93F4803F0BCF84FF4004309930A97E0
:103D40000B9409A93A4803F0B3F8CDF824B00A97C8
:103D50000B9509A9374803F0ABF8182309930A9586
:103D60000B940C9609A9334803F0A2F84023099359
:103D70000A960B940C94CDF834A009A92D4803F0B1
:103D800097F8CDF824800A970B9409A9294803F0E5
:103D90008FF84FF4007309930A970B9409A92648EA
:103DA00003F086F84FF4806309930A940B9509A9F0
:103DB000214803F07DF8CDF82490204B0A930B9412
:103DC00009A91D4803F074F8102309930A970B946E
:103DD00009A91B4803F06CF84FF4607309930A9427
:103DE0000B9509A9164803F063F82A4621460820D6
:103DF00002F0A4FD082002F0D3FD032231460A2080
:103E000002F09CFD0A2002F0CBFD03223146172070
:103E100002F094FD172002F0C3FD2A462146282017
:103E200002F08CFD282002F0BBFD0FB0BDE8F08F42
:103E300000000240000C0240001802400000111077
:103E40000004024038B5402800F0EC801BD804285C
:103E500060D0102800F0B881012813D19B4B0024BA
:103E60001C705C70DC701C735C73FFF725FAFFF745
:103E700049FB012001F062FA204601F05FFA944B01
:103E800001221A7038BDB0F5007F00F02D81B0F529
:103E9000004F22D08028F5D18E4B1B7813F0040FF1
:103EA000F0D143F004038B4A1370884B9B691BB914
:103EB000864B5B6B002BE5D0844B1B7C13F0020F11
:103EC00040F06581814B93F82C3013F0020F40F0E5
:103ED0006B817F4B01221A70D4E77E4B1B7813F065
:103EE000100FCFD143F010037A4A137000F096F907
:103EF000764B1B7BDBB2012B08D0744B1B7BDBB2F8
:103F0000032BBFD1714B01221A73BBE76F4B032206
:103F10001A73B7E76D4BDB78002BB3D0FEF710FFB9
:103F200040F30F206C4B1880684B5B78DBB2012BA1
:103F30001DD0664B1B78DBB2012BA3D1634B1B7CDE
:103F400013F0020F52D1614B1B7C13F0020F5FD1B3
:103F50005E4B1B7C13F0020F94D15C4B93F82C301A
:103F600013F0020F8ED05D49FEF77AFF8AE7574BB8
:103F70001B7C13F0020F23D1544B1B7C13F0020F58
:103F800005D1524B93F82C3013F0020F26D14F4B32
:103F90001B7C13F0020F3FF475AF4C4B93F82C30A1
:103FA00013F0020F3FF46EAF4C4CA4F11C052246F7
:103FB0002946FFF7B9F821462846FFF77FF861E761
:103FC000424B93F82C3013F0020FD5D1444C2146CC
:103FD000FEF76EFF2046FEF7FBFF53E73F4C2146FE
:103FE000FEF766FF2046FEF7F3FF4BE7374B93F8EB
:103FF0002C3013F0020FA6D0384CA4F11C05224639
:104000002946FEF7EFFF21462846FFF757F839E724
:104010002E4B93F82C3013F0020F99D13049FEF754
:104020001FFF2FE72B4B1B7813F0010F7FF42AAFF4
:1040300043F00103274A1370244B1B78DBB2012B9A
:104040003FF420AF214B0022DA7026490A601B7C26
:1040500013F0020F25D11D4B93F82C206FF3C302F0
:1040600083F82C2093F82C206FF3041283F82C2073
:1040700043F6FF72DA634FF07E525A6400221A63ED
:104080005A631A87012001F049F9002001F056F91E
:104090000E4A0123137000215170D3700C4A137023
:1040A000F0E60A4B1A7C6FF3C3021A741A7C6FF3A2
:1040B00004121A7443F6FF721A624FF07E529A622B
:1040C00000225A619A619A83DCE700BF3411002014
:1040D000450A0020460A0020500E002060110020F2
:1040E00044110020B40200203E4B1B7813F0020F55
:1040F0007FF4C8AE43F002033A4A13703A4B5B7840
:10410000DBB2012B3FF4BEAE374B9B6923B9364B74
:104110005B6B002B3FF4B6AE344B00221A60324B7F
:104120000122DA701B7C13F0020F14D12E4B93F88E
:104130002C3013F0020F1AD1002001F0EFF801200B
:1041400001F0FCF8284A0023137001235370D37048
:10415000274A137096E6244B1A7C6FF3C3021A7435
:104160001A7C6FF304121A7400229A83DEE71E4B46
:1041700093F82C206FF3C30283F82C2093F82C20A3
:104180006FF3041283F82C2000221A87D4E7164B11
:104190001B7C13F0100F144A137C0CBF43F0100368
:1041A0006FF30413137494E60F4B93F82C3013F051
:1041B000100F0D4A92F82C300CBF43F010036FF330
:1041C000041382F82C3084E6064B1B7813F0080F9A
:1041D0007FF458AE43F00803024A1370024B0022EA
:1041E000DA704FE6460A002034110020B4020020A5
:1041F000450A002082B0084B1B680020DAB262F347
:104200000700C3F3072262F30F20C3F3074363F3EE
:10421000174002B0704700BFC002002008B54FF43D
:104220000041094802F036FFB0FA80F04009074B20
:10423000987007490A68C2F3C7021A704A68C2F345
:10424000C7025A7008BD00BF00000240C002002033
:1042500080110020094B1B78DBB2042B01D0012018
:104260007047064B5B78DBB2042B01D0012070470E
:10427000024B9878003018BF01207047C002002020
:1042800008B5FCF75FFE08BD08B513468AB20146C3
:104290001846FCF7BBFE002008BD08B513468AB2DD
:1042A00001461846FCF7B4FD002008BD00B595B0E6
:1042B00000210191284B1A6C42F080521A641B6C49
:1042C00003F080530193019B0291244B1A6842F43E
:1042D00040421A601B6803F440430293029B01238F
:1042E00008934FF48033099302230E934FF4800216
:1042F0000F9204221092A822119212930723139373
:1043000008A803F0EDFB20BB0F23039302230493C3
:10431000002305934FF4A05306934FF48053079363
:10432000052103A803F016FEA0B903F0C3FE0C4B51
:10433000A3FB0030800902F04DFB042002F060FB7B
:10434000002211464FF0FF3002F0F8FA15B05DF888
:1043500004FBFEE7FEE700BF0038024000700040AB
:10436000D34D621070B58CB0774AD36843F0807338
:10437000D360764B00255D601A6842F001021A6036
:10438000734C0426667301F00DFF237C43F0020397
:104390002374237C3343237494F82C3065F3410356
:1043A00084F82C3094F82C30334384F82C30237C60
:1043B00065F30003237494F82C3043F0010384F870
:1043C0002C30A564FFF772FFFFF742FBFFF710F8F0
:1043D00001F06CFAFFF7A0FA01F0A0FA00F070FE0D
:1043E00001F0AAFBFEF7A8FA00F090FEFEF78CFFA2
:1043F00001F0CEFA01F0EAFB01F006FBFEF7D8FA75
:10440000FCF7E6FC4FF00073079308954FF48033F8
:1044100009930A934FF480730B934E4B04934E4BC6
:1044200005934E4B06934E4803954FF490630293C9
:1044300000F54073019380230093034600F180024E
:1044400004A900F52070FCF7E5FF0146454806F099
:1044500081FB01F011F8082002F0AEFAFDF7E6FD4D
:104460000220FDF705FE4AF25420FDF785FC3E4888
:1044700004F002FB284600F015FF012000F012FFB7
:104480000121284600F06AFF384804F0F5FA384860
:1044900001F062FF02223749374801F0E1FFFE20B8
:1044A000FEF7CCFB0F20FEF7C9FBFEF73FFC012116
:1044B0000846FEF707FC2846FEF7D6FBF020FEF77D
:1044C000BDFBF120FEF7BAFB082002F069FA0320D9
:1044D000FEF7B4FBFDF7F4FE00F0A2FD0122294631
:1044E000B02000F073FD31461420FDF7EDFAFDF722
:1044F0009FFA224A29462846FDF7A4FAFEF720F83B
:1045000000F052F9284600F0DBF9154C1C4D18E07C
:10451000FDF782FE287007E094F88137012B0BD05D
:1045200094F88037002BF3D084F880672878FF2830
:10453000F2D000F0C5F9EFE700F056FA002384F856
:1045400081370026ECE700BFF0ED00E0001000E04E
:10455000341100209B420008894200088142000873
:10456000C4020020B0E5000808140020CC1300208D
:10457000B80D002080110020000E0020C0E50008CA
:10458000A611002008B5334B93F8823713F0010FC2
:1045900018D1304B93F8823713F0020F20D12D4BF6
:1045A00093F8823713F0040F29D12A4B93F88237FE
:1045B00013F0080F31D1274B93F8823713F0100F07
:1045C00039D108BD4021244802F064FD0128E0D122
:1045D000204A92F8823783F0010382F88237D8E7C5
:1045E0004FF400711D4802F055FD0128D7D1194A3A
:1045F00092F8823783F0020382F88237CFE7802176
:10460000174802F047FD0128CFD1124A92F88237AD
:1046100083F0040382F88237C7E71021114802F0C3
:1046200039FD0128C7D10B4A92F8823783F008037D
:1046300082F88237BFE74FF400410B4802F02AFDB1
:104640000128BED1034A92F8823783F0100382F822
:104650008237B6E7C402002000140240001802406E
:10466000000C02400004024000000240FEE700008F
:104670002DE9F04182B000263C4B5E613C4B1E7040
:104680003C4B1E703C4A01213046FDF7DBF93146B8
:104690003046FDF71FFF304600F040FE3746374CEE
:1046A000374DFDF7B9FD207000284AD02B78DBB2DA
:1046B000012BF6D1002E38D000232B702D4B1E7805
:1046C000304B1E4404223049304606F093FA00284D
:1046D00037D0DFF8D080D8F800103046FDF78CFFD7
:1046E000D8F80020214E73691A447261DFF8A8805F
:1046F0003B462649404606F055FA40F21D530193C9
:1047000000230093224B424650210A20FDF742FD30
:104710007369BB4215D2174B1B784033DBB2802B39
:104720000BD0144A13700126BBE7164B1F68194AB9
:1047300001210020FDF786F9BEE70E4B00221A701A
:10474000F1E7002000F0FAFD084C0A2212496069E6
:1047500006F0A0FA6369BB420CBF104A104A01215F
:104760000020FDF76FF902B0BDE8F081480A002093
:10477000F01700202817002000E60008A6110020EE
:10478000E41600202C17002024E600082CE6000880
:104790000800002010E600088811002034E6000818
:1047A00048E60008AC17002010B500F0D7FB3B4CE2
:1047B0004FF4F0724FF0FF31204606F01AF9002353
:1047C00084F8E031364A116821602371636135490C
:1047D000A1613549E162237701216171D06A2066C8
:1047E0003248606784F8641004216177304921639E
:1047F000636484F834300221A1719068C4F8A80081
:104800002C48C4F8BC0084F8AC10072084F83500AC
:10481000D068C4F8C0002848C4F8D40084F8C41094
:10482000082184F836101069C4F8D800C4F8EC30B8
:1048300084F8DC10092084F8C5005069C4F8F00041
:10484000C4F8043184F8F4100A2084F8C600106A11
:10485000C4F80801C4F81C3184F80C110B2084F84A
:10486000C7009069C4F82001C4F8343184F82411D9
:104870000C2084F8C800D069C4F83801C4F84C3161
:1048800084F83C110D2184F8C910126BA2640B4A04
:10489000E26584F84C300323E37110BD600A002008
:1048A000A81100205CE60008A94C0008F54C00089F
:1048B00064E60008C14C0008A54E0008B54C00088D
:1048C0000F286CD8364B93F8E02102EB420203EB41
:1048D000C203184490F90430B3F1FF3F5FD02DE9D3
:1048E000F04383B0DBB22E4A82F8E03103EB43039E
:1048F0002C4C52F83310204606F074F9FDF798F866
:104900004AF25420FDF738FA224600210846FDF706
:1049100099F84AF25420FDF72FFA00240A25204E78
:10492000DFF888801F4F19E0DFF88490FDF76EFCF8
:104930004B4602464146384606F034F940F21D53D4
:10494000019300230093184B3A4629460A20FDF7AD
:1049500021FC1435ADB20134102C13D0E0B296F81E
:10496000E03103EB430306EBC303234493F9043024
:10497000B3F1FF3FEFD00028D6D003EB430356F846
:104980003390D3E7064B93F8E02102EB420203EBAE
:10499000C2035B6903B1984703B0BDE8F083704779
:1049A000600A0020881100200800002074E600083A
:1049B0006CE6000810B582B0084C02460849204653
:1049C00006F0F0F8002001904FF6E0730093054BDD
:1049D0002246DD21FDF7DEFB02B010BD881100206C
:1049E0007CE600080800002008B5164B1B7813B9B8
:1049F000144B5B78ABB1134B1B78DBB2012B14D09B
:104A0000104B1B7C13F0100F13D10E4B93F82C306E
:104A100013F0100F0DD10B4B5B78DBB2012B0CD0D8
:104A200008BD0948FFF7C6FFFAE70848FFF7C2FFCD
:104A3000F6E70748FFF7BEFFF2E70648FFF7BAFFC1
:104A4000EEE700BF3411002084E6000890E600087D
:104A50009CE60008A8E600080EB42DE9F04384B0F7
:104A60000BAB13F8044B0393C8B106460025DFF8DF
:104A7000389040F21D584FF47847039B1A1D03925B
:104A80001A68CDF8048000974B4621460A20FDF7AE
:104A900081FB0135EDB21434E4B2AE42EDD104B085
:104AA000BDE8F04303B070470800002008B5FDF7EB
:104AB000B3FB0028FBD108BD2DE9F04F85B08A4635
:104AC000934601242646DFF8DC916F4D77E0002302
:104AD0008BF8003005B0BDE8F08F6B6813B16B68E0
:104AE000013B6B606A68694C01326949204606F0F7
:104AF00059F8684E40F21D58CDF804800027009701
:104B00003346224696210A20FDF744FBAA6801326B
:104B10006149204606F046F8CDF8048000973346F8
:104B20002246AA210A20FDF735FB012446E06A68E7
:104B3000AB689A42D6D26B6801336B60D2E701232F
:104B40008BF80030C6E7AA686B689A4213D9AB6845
:104B5000013BAB600FE0AA680AF1FF339A420AD228
:104B6000AB680133AB6006E0FFF774FB01283DD072
:104B700026B3002CB6D16A68444E0132474930460C
:104B800006F010F8434F40F21D58CDF80480002481
:104B900000943B46324696210A20FDF7FBFAAA68AC
:104BA00001323F49304605F0FDFFCDF80480009406
:104BB0003B463246AA210A20FDF7ECFA0026FDF713
:104BC0002BFB89F80000FF28CED00528D1D801A3FF
:104BD00053F820F0CF4A0008DB4A00082F4B0008AA
:104BE0003F4B0008474B0008574B0008FFF702FBFC
:104BF0008DF80C00C0F307238DF80D30C0F307408B
:104C00008DF80E00042B29D904BBAA680AF1FF33E2
:104C10009A4202D2AB680133AB609DF80E30012B93
:104C2000A7D12B7BDBB2022B01D02B7B13B99BF8D6
:104C300000302BB32B7BDBB2022B9AD19BF80030D8
:104C4000012B96D100238BF8003092E76A68AB689D
:104C50009A42E2D26B6801336B60DEE7032BDCD84B
:104C60003CB9AA686B689A42D7D9AB68013BAB6084
:104C7000D3E76B68002BD0D06B68013B6B60CCE74F
:104C800001238BF8003025E7341100208811002023
:104C9000ECE6000808000020FCE600080CE700082D
:104CA0001CE70008A6110020014B01225A7370472F
:104CB00034110020014B02225A7370473411002036
:104CC00010B5084C07236373074B084A6E21022076
:104CD000FFF7C2FEFFF7CCFC00236373044B0122F5
:104CE0001A7010BD3411002030E7000848E70008B2
:104CF000440A002070B582B0624B1B7C13F0020F97
:104D000044D1604B1B7C13F0020F05D15D4B93F82F
:104D10002C3013F0020F49D15A4B1B7C13F0020FB9
:104D20004ED1594A6E210120FFF796FE574B009352
:104D3000574B584A82210320FFF78EFE564E514CA6
:104D4000564DFDF769FA0E28FBD801A353F820F061
:104D50007F4E0008434D0008434D0008434D0008B6
:104D6000434D0008434D0008434D0008434D0008E3
:104D7000434D0008434D0008434D0008434D0008D3
:104D8000E14D0008294E0008734E00083D4B93F892
:104D90002C3013F0020FB4D13B4D414C0FCC2860A6
:104DA0006960AA60EB6023882B82BAE7364D3B4CE2
:104DB0000FCC28606960AA60EB6023882B82B0E783
:104DC000304B93F82C3013F0020FAAD02E4D324CFA
:104DD0000FCC28606960AA60EB6023882B82A0E773
:104DE0000020E070237C43F00203237494F82C30FD
:104DF00060F3410384F82C30237C43F004032374D4
:104E000094F82C3060F3820384F82C30FDF72CFFEB
:104E1000234A6E210120FFF71FFEF020FDF70EFF51
:104E2000F120FDF70BFF8CE70022E270237C62F398
:104E30004103237494F82C3043F0020384F82C309F
:104E4000237C62F38203237494F82C3043F0040330
:104E500084F82C300120FDF707FF2A466E2101203F
:104E6000FFF7FAFDF020FDF7E9FEF120FDF7E6FE81
:104E700067E732466E210120FFF7EEFD61E702B0E1
:104E800070BD00BF3411002088110020C0E7000869
:104E9000A0E70008B0E700088CE7000878E7000802
:104EA00064E700082DE9F04184B000238DF8033059
:104EB000254D6B6001AA02A903A8FEF7D5FA0446A6
:104EC000039B5A1EAA6043B1019B302B1BD81E4D79
:104ED0004FF002081D4F002622E01D4B5A6A822126
:104EE0000120FFF7B9FDFFF7E1FD204605F06EFD5B
:104EF0000023154A1373174A1370174B01221A70B7
:104F000004B0BDE8F081124B9A6A82210120FFF7BC
:104F1000A3FDFFF7CBFDE8E79DF80330002BE4D0BD
:104F200085F80C803E600DF1030203992046FFF7DF
:104F3000C3FD9DF80330012BEED1EB78002BFCD0A4
:104F40002046FEF7EDFBE7E734110020B402002015
:104F5000A8110020A6110020440A00200D4B0E4A83
:104F60001A600E4A5A600E4A9A600E4ADA600E4A79
:104F70001A610E4A5A610E4A9A610E4ADA610E4A65
:104F80001A620E4A5A620E4A9A620E4ADA620E4A51
:104F90001A637047A8110020CCE700086CE60008EF
:104FA000E0E70008F0E70008FCE700080CE800086C
:104FB00020E8000830E8000844E8000854E8000849
:104FC00068E800087CE800088CE8000810B582B0AA
:104FD0008DF807008DF806108DF805200F4C64231E
:104FE00001220DF10701204604F0BAF964230122E1
:104FF0000DF10601204604F0B3F99DF8073003F0E7
:10500000F003B02B01D902B010BD642301220DF1D1
:105010000501204604F0A4F9F5E700BF8014002044
:1050200010B50B4C00220821204602F039F864200C
:10503000FCF75EFC01220821204602F031F86420D2
:10504000FCF756FC78220721B020FFF7BFFF10BD08
:105050000010024008B501284FF03C020CBF992017
:105060008920FFF7B3FF08BD38B505460C4600227E
:105070002221C020FFF7AAFF012D4FF03C0221465C
:105080000CBF90208020FFF7A1FF38BD70B50B4CFE
:10509000251D012601E0AC4207D014F8011B0029B0
:1050A000F9D03046FFF7D6FFF5E7044B197901B97F
:1050B00070BD0120FFF7D8FFFAE700BFE816002017
:1050C00008B50F480F4B03604FF482734360002311
:1050D0008360C3600361012242614FF40072826108
:1050E0000822C2610362436283620A23C36203F03F
:1050F00035F900B908BD53210348FFF7B7FAF9E7BE
:10510000D8120020003C0040A0E8000808B50F4875
:105110000F4B03604FF48273436000238360C360CE
:10512000036143614FF4007282611022C261036225
:10513000436283620A23C36203F010F900B908BD19
:1051400069210448FFF792FAF9E700BF2012002016
:1051500000500140A0E80008F0B589B00368464A55
:10516000934205D00446454A934226D009B0F0BD8B
:1051700000240194424B1A6C42F400421A641B6CE6
:1051800003F400430193019B4FF4C05303930227A0
:1051900004970594032606960625079503A9394822
:1051A00001F086FE0823039304970594069607955D
:1051B00003A9354801F07CFED8E700250295304B65
:1051C0005A6C42F480125A645B6C03F480130293AD
:1051D000029B4FF460730393022304930595069397
:1051E0000523079303A9294801F062FE2848294BAB
:1051F00003604FF0806343608560C5604FF4806357
:10520000036145618561C5614FF480330362042306
:1052100043628562C562056301F052FC08BB1C4B0A
:10522000E3649C631C481D4B03604FF08063436044
:10523000402383600023C3604FF4806202614361B6
:105240008361C3614FF4803202620422426283624E
:10525000C362036301F034FC40B90F4BA3649C6349
:1052600084E7B6210E48FFF701FAD8E7CB210C48B6
:10527000FFF7FCF9F1E700BF003C0040005001409F
:1052800000380240000802400004024000140240BE
:1052900078120020586402403013002070640240ED
:1052A000A0E8000830B589B0034670B1012818D1D4
:1052B00000220292164A116B41F040011163126BF9
:1052C00002F040020292029A0BE000220192104A80
:1052D000116B41F040011163126B02F04002019228
:1052E000019A0C4A32F81350039501220492059258
:1052F00002220692084C04EB830403A9606801F0C3
:10530000D7FD00222946606801F0CAFE09B030BD11
:1053100000380240D4E400083C00002008B5054BEA
:1053200003EB80030122044931F81010586801F0A2
:10533000B7FE08BD3C000020D4E4000808B5054BCA
:1053400003EB80030022044931F81010586801F083
:10535000A7FE08BD3C000020D4E4000830B587B0AB
:10536000044658B900230093194B1A6B42F001020E
:105370001A631B6B03F001030093009B19B1012911
:1053800010D007B030BD0123019300230293022304
:10539000039304930F4B03EB840401A9E06801F02D
:1053A00087FDEEE701230193002503950A4B029345
:1053B000084B03EB840401A9E06801F079FD0222A7
:1053C0002946062001F0BAFA062001F0E9FAD8E7EA
:1053D000003802403C000020000011102DE9F04789
:1053E00082B082464FF00008CDF80480214C01269F
:1053F000266008276760A660C4F80C8004F11005D9
:105400004FF6FF722146284602F01EFF3046FCF799
:105410006FFA022323606760A660C4F80C804FF621
:10542000FF722146284602F00FFF032323606760C6
:105430004FF00409C4F80890C4F80C804FF6FF72CE
:105440002146284602F000FF4FF40C730193C4F884
:1054500000906760A660019BE3604FF6FF722146F3
:10546000284602F0F1FE5146284602F006FF02B03F
:10547000BDE8F0874C0C00202DE9F0438FB0724C52
:10548000724B2361022767640723A3644FF004086B
:10549000C4F84C8023656765A765E7654FF001098F
:1054A000C4F814900025A561C4F81C801023236261
:1054B000402363624FF4C073A362E5624FF400635C
:1054C000236365634FF40053A3630195604B9A6BAC
:1054D00042EA09029A639A6B02EA09020192019A6E
:1054E00002951A6B42F480021A631A6B02F480026E
:1054F0000292029A03951A6B3A431A631A6B3A4066
:105500000392039A04951A6B42EA08021A631A6B13
:1055100002EA08020492049A05951A6B42F0080206
:105520001A631A6B02F008020592059A06951A6B27
:1055300042F010021A631A6B02F010020692069AE9
:1055400007951A6B42F020021A631A6B02F02002D0
:105550000792079A08951A6B42F040021A631B6B78
:1055600003F040030893089B0A970C970B950C23B4
:105570000D930EAE602346F8143D3146354801F0D8
:1055800097FCCDF824903146334801F091FC4CF261
:10559000037309933146314801F08AFC4FF6837357
:1055A000099331462E4801F083FC4FF63F030993DF
:1055B00031462C4801F07CFC48F233130993314604
:1055C000294801F075FC65668023A3664FF40073DB
:1055D000E3664FF4806323674FF4805363674FF4AF
:1055E0008043A367E5674FF44033C4F88030C4F8C4
:1055F00084804FF00308C4F88880C4F88C50C4F845
:1056000090502546194B45F8603F256404F110067B
:10561000C4F89860284601F0E7FA284601F050FAED
:1056200042463946382001F089F9382001F0B8F9AE
:1056300004F14401304602F063FD40F26A50FFF786
:10564000CDFE0FB0BDE8F0834C0C0020400100A05F
:10565000003802400004024000080240000C0240F2
:105660000010024000140240001802401064024082
:1056700008B513460A460146014802F0AAFD08BDD6
:105680005C0C002008B513460A460146014802F0AA
:1056900056FD08BD5C0C0020F8B505460E461746C1
:1056A000054C204602F0BBFD3B46324629462046CB
:1056B00002F06BFDF8BD00BF5C0C002010B582B09D
:1056C00000240094254B5A6C42F480425A645A6C70
:1056D00002F480420092009A01941A6C42F08052C7
:1056E0001A641B6C03F080530193019B052001F0A9
:1056F00013F9224621466FF00B0001F01FF92246F4
:1057000021466FF00A0001F019F9224621466FF098
:10571000090001F013F9224621466FF0040001F060
:105720000DF9224621466FF0030001F007F92246E9
:1057300021466FF0010001F001F9224621464FF0A9
:10574000FF3001F0FBF822462146012001F0F6F877
:10575000012001F025F902B010BD00BF0038024061
:105760007047704708B5FCF77FF801F056F908BD9F
:1057700008B502F0A5F908BD08B5042001F096FCB3
:1057800008BD08B5102001F091FC08BD08B502481D
:1057900001F0A0FA08BD00BF680E002008B503485C
:1057A00000F03BFF024800F038FF08BDB80D0020B4
:1057B000000E002008B5402001F078FC802001F0A8
:1057C00075FC4FF4007001F071FC08BD08B503488A
:1057D00003F04BFAFCF7CEFD08BD00BF0814002013
:1057E00008B5034803F041FAFDF720FF08BD00BFEC
:1057F0004414002008B5034803F037FAFEF7C2FE50
:1058000008BD00BFCC13002008B54FF4806001F044
:105810004DFC4FF4006001F049FC4FF4004001F0F2
:1058200045FC08BD10B50B4803F01FFA0A4B1B7866
:1058300003B110BD094B1C6802341C60FCF76AFE02
:10584000B0EB440FF5D2044B01221A70034B002237
:105850001A60EEE790130020540A0020500A00203E
:1058600008B5024801F036FA08BD00BF580D002007
:1058700008B5024801F02EFA08BD00BF78120020DA
:1058800008B5024801F026FA08BD00BF3013002019
:1058900008B5024801F098FC08BD00BFF4170020CD
:1058A00008B5012001F002FC08BD000000B587B07A
:1058B00018484FF0804303606823436000238360EF
:1058C00040F21F32C260036103F000FB98B906A9E1
:1058D0004FF4805341F8103D0E4803F0EFF878B9CB
:1058E00000230093019369460A4803F008FB60B95E
:1058F00007B05DF804FB4B210748FEF7B7FEE6E76B
:1059000051210548FEF7B2FEEAE758210248FEF7AA
:10591000ADFEEDE744140020D4E8000800B587B0E0
:105920001848194B036049F27B23436000238360CE
:1059300040F22B12C260036103F0C8FA98B906A9BD
:105940004FF4805341F8103D0E4803F0B7F878B992
:1059500000230093019369460A4803F0D0FA60B926
:1059600007B05DF804FB69210848FEF77FFEE6E713
:105970006F210648FEF77AFEEAE776210348FEF734
:1059800075FEEDE7CC13002000080040D4E80008C5
:1059900000B587B019481A4B036040F28F1343607B
:1059A000002383601B22C2600361436103F08EFA0F
:1059B000A0B906A94FF4805341F8103D0F4803F0F9
:1059C0007DF880B9202300930023019369460B489A
:1059D00003F095FA60B907B05DF804FB8821094827
:1059E000FEF744FEE5E78E210648FEF73FFEE9E7B5
:1059F00095210448FEF73AFEEDE700BF9013002022
:105A000000040140D4E8000800B585B01048114BEF
:105A10000360C722426000238360C260036103F019
:105A200055FA58B904A94FF4805341F8103D08487D
:105A300003F044F838B905B05DF804FBA521064829
:105A4000FEF714FEEEE7AB210348FEF70FFEF2E788
:105A50000814002000400140D4E8000800B585B0DB
:105A60000368B3F1804F0BD02F4A93421DD02F4AC9
:105A700093422FD02E4A934240D005B05DF804FBEC
:105A8000002300932B4B1A6C42F001021A641B6C2A
:105A900003F001030093009B022203211C2000F06D
:105AA0004DFF1C2000F07CFFE7E700230193214B12
:105AB0001A6C42F004021A641B6C03F00403019395
:105AC000019B032211461E2000F038FF1E2000F02B
:105AD00067FFD2E700210291164B5A6C42F0020296
