:020000040800F2
:1000000000000320493200089932000899320008A4
:100010009932000899320008993200080000000067
:10002000000000000000000000000000E58600085D
:100030009932000800000000E9860008ED860008FB
:1000400099320008FD8600089932000899320008AC
:10005000993200089932000839880008993200085E
:1000600001870008993200080987000899320008C2
:100070009932000899320008993200089932000834
:1000800099320008118700081D870008993200087E
:10009000993200089932000899320008398700081F
:1000A00055870008993200089932000899320008F3
:1000B000698700089932000895870008993200087E
:1000C00099320008993200089932000899320008E4
:1000D00099320008993200089932000899320008D4
:1000E000A98700089932000899320008993200085F
:1000F000D187000899320008993200089932000827
:1001000099320008993200089932000899320008A3
:100110009932000899320008993200089932000893
:1001200099320008098800089932000815880008EB
:100130002188000899320008993200089932000895
:100140009932000899320008993200089932000863
:100150009932000899320008993200089932000853
:100160009932000899320008993200089932000843
:10017000993200082D88000899320008000000001C
:100180009932000899320008993200089932000823
:100190009932000899320008993200089932000813
:0C01A000993200089932000899320008DA
:1001B00010B5054C237833B9044B13B10448AFF3A1
:1001C00000800123237010BDEC020020000000001D
:1001D000D8E0000808B5034B1BB103490348AFF34F
:1001E000008008BD00000000F0020020D8E00008F8
:1001F00081F0004102E000BF83F0004330B54FEAD8
:1002000041044FEA430594EA050F08BF90EA020F44
:100210001FBF54EA000C55EA020C7FEA645C7FEAD7
:10022000655C00F0E2804FEA5454D4EB5555B8BFFA
:100230006D420CDD2C4480EA020281EA030382EA6B
:10024000000083EA010180EA020281EA0303362DFD
:1002500088BF30BD11F0004F4FEA01314FF4801CD0
:100260004CEA113102D0404261EB410113F0004FE2
:100270004FEA03334CEA133302D0524263EB430399
:1002800094EA050F00F0A780A4F10104D5F1200E37
:100290000DDB02FA0EFC22FA05F2801841F1000192
:1002A00003FA0EF2801843FA05F359410EE0A5F166
:1002B00020050EF1200E012A03FA0EFC28BF4CF097
:1002C000020C43FA05F3C01851EBE37101F000454D
:1002D00007D54FF0000EDCF1000C7EEB00006EEB5A
:1002E0000101B1F5801F1BD3B1F5001F0CD34908E4
:1002F0005FEA30004FEA3C0C04F101044FEA44523B
:1003000012F5800F80F09A80BCF1004F08BF5FEAC1
:10031000500C50F1000041EB045141EA050130BDA1
:100320005FEA4C0C404141EB010111F4801FA4F144
:100330000104E9D191F0000F04BF01460020B1FA99
:1003400081F308BF2033A3F10B03B3F120020CDAD1
:100350000C3208DD02F1140CC2F10C0201FA0CF0AF
:1003600021FA02F10CE002F11402D8BFC2F1200C14
:1003700001FA02F120FA0CFCDCBF41EA0C019040CA
:10038000E41AA2BF01EB0451294330BD6FEA040413
:100390001F3C1CDA0C340EDC04F11404C4F12002FE
:1003A00020FA04F001FA02F340EA030021FA04F310
:1003B00045EA030130BDC4F10C04C4F1200220FA67
:1003C00002F001FA04F340EA0300294630BD21FAA5
:1003D00004F0294630BD94F0000F83F4801306BF6B
:1003E00081F480110134013D4EE77FEA645C18BF5F
:1003F0007FEA655C29D094EA050F08BF90EA020FF6
:1004000005D054EA000C04BF1946104630BD91EAED
:10041000030F1EBF0021002030BD5FEA545C05D1F0
:100420004000494128BF41F0004130BD14F580042F
:100430003CBF01F5801130BD01F0004545F0FE41A3
:1004400041F470014FF0000030BD7FEA645C1ABFD8
:10045000194610467FEA655C1CBF0B46024650EA0F
:10046000013406BF52EA033591EA030F41F400213B
:1004700030BD00BF90F0000F04BF0021704730B5C1
:100480004FF4806404F132044FF000054FF0000196
:1004900050E700BF90F0000F04BF0021704730B557
:1004A0004FF4806404F1320410F0004548BF40422C
:1004B0004FF000013EE700BF42004FEAE2014FEA81
:1004C00031014FEA02701FBF12F07F4393F07F4F5C
:1004D00081F06051704732F07F4208BF704793F05F
:1004E0007F4F04BF41F40021704730B54FF4607472
:1004F00001F0004521F000411CE700BF50EA010275
:1005000008BF704730B54FF000050AE050EA01021D
:1005100008BF704730B511F0004502D5404261EB8D
:1005200041014FF4806404F132045FEA915C3FF4CE
:10053000D8AE4FF003025FEADC0C18BF03325FEA6B
:10054000DC0C18BF033202EBDC02C2F1200300FA1C
:1005500003FC20FA02F001FA03FE40EA0E0021FA41
:1005600002F11444BDE600BF70B54FF0FF0C4CF42F
:10057000E06C1CEA11541DBF1CEA135594EA0C0FE1
:1005800095EA0C0F00F0DEF82C4481EA030621EA1C
:100590004C5123EA4C5350EA013518BF52EA033557
:1005A00041F4801143F4801338D0A0FB02CE4FF009
:1005B0000005E1FB02E506F00042E0FB03E54FF039
:1005C0000006E1FB03569CF0000F18BF4EF0010E31
:1005D000A4F1FF04B6F5007F64F5407404D25FEA2D
:1005E0004E0E6D4146EB060642EAC62141EA5551E0
:1005F0004FEAC52040EA5E504FEACE2EB4F1FD0C22
:1006000088BFBCF5E06F1ED8BEF1004F08BF5FEA9F
:10061000500E50F1000041EB045170BD06F0004651
:1006200046EA010140EA020081EA0301B4EB5C04FE
:10063000C2BFD4EB0C0541EA045170BD41F48011F6
:100640004FF0000E013C00F3AB8014F1360FDEBF1B
:10065000002001F0004170BDC4F10004203C35DAF7
:100660000C341BDC04F11404C4F1200500FA05F37A
:1006700020FA04F001FA05F240EA020001F000421B
:1006800021F0004110EBD37021FA04F642EB060191
:100690005EEA430E08BF20EAD37070BDC4F10C04BB
:1006A000C4F1200500FA04F320FA05F001FA04F27F
:1006B00040EA020001F0004110EBD37041F100016B
:1006C0005EEA430E08BF20EAD37070BDC4F1200576
:1006D00000FA05F24EEA020E20FA04F301FA05F2DE
:1006E00043EA020321FA04F001F0004121FA04F286
:1006F00020EA020000EBD3705EEA430E08BF20EA56
:10070000D37070BD94F0000F0FD101F0004640008F
:1007100041EB010111F4801F08BF013CF7D041EA11
:10072000060195F0000F18BF704703F00046520015
:1007300043EB030313F4801F08BF013DF7D043EAE6
:100740000603704794EA0C0F0CEA135518BF95EA9C
:100750000C0F0CD050EA410618BF52EA4306D1D123
:1007600081EA030101F000414FF0000070BD50EA42
:10077000410606BF1046194652EA430619D094EACC
:100780000C0F02D150EA013613D195EA0C0F05D1B6
:1007900052EA03361CBF104619460AD181EA03010A
:1007A00001F0004141F0FE4141F470014FF00000C2
:1007B00070BD41F0FE4141F4780170BD70B54FF05D
:1007C000FF0C4CF4E06C1CEA11541DBF1CEA1355DD
:1007D00094EA0C0F95EA0C0F00F0A7F8A4EB0504BF
:1007E00081EA030E52EA03354FEA013100F08880B6
:1007F0004FEA03334FF0805545EA131343EA12637F
:100800004FEA022245EA111545EA10654FEA002633
:100810000EF000419D4208BF964244F1FD0404F5EC
:10082000407402D25B084FEA3202B61A65EB030548
:100830005B084FEA32024FF480104FF4002CB6EB05
:10084000020E75EB030E22BFB61A754640EA0C0085
:100850005B084FEA3202B6EB020E75EB030E22BFC5
:10086000B61A754640EA5C005B084FEA3202B6EB06
:10087000020E75EB030E22BFB61A754640EA9C00C5
:100880005B084FEA3202B6EB020E75EB030E22BF95
:10089000B61A754640EADC0055EA060E18D04FEA53
:1008A000051545EA16754FEA06164FEAC30343EAF3
:1008B00052734FEAC2025FEA1C1CC0D111F4801FC0
:1008C0000BD141EA00014FF000004FF0004CB6E7B9
:1008D00011F4801F04BF01430020B4F1FD0C88BF58
:1008E000BCF5E06F3FF6AFAEB5EB030C04BFB6EB63
:1008F000020C5FEA500C50F1000041EB045170BD56
:100900000EF0004E4EEA113114EB5C04C2BFD4EB82
:100910000C0541EA045170BD41F480114FF0000E06
:10092000013C90E645EA060E8DE60CEA135594EA82
:100930000C0F08BF95EA0C0F3FF43BAF94EA0C0F85
:100940000AD150EA01347FF434AF95EA0C0F7FF4FA
:1009500025AF104619462CE795EA0C0F06D152EA4E
:1009600003353FF4FDAE1046194622E750EA410632
:1009700018BF52EA43067FF4C5AE50EA41047FF443
:100980000DAF52EA43057FF4EBAE12E74A0011D2F5
:1009900012F5001211D20DD56FF47873B3EB6252D9
:1009A0000ED44FEAC12343F0004343EA505323FAE5
:1009B00002F070474FF00000704750EA013002D15A
:1009C0004FF0FF3070474FF0000070474FEA410290
:1009D000B2F1E04324BFB3F5001CDCF1FE5C0DD99D
:1009E00001F0004C4FEAC0024CEA5070B2F1004FE7
:1009F00040EB830008BF20F00100704711F0804FEA
:100A000021D113F13872BCBF01F00040704741F4AE
:100A100080114FEA5252C2F11802C2F1200C10FAB2
:100A20000CF320FA02F018BF40F001004FEAC12396
:100A30004FEAD32303FA0CFC40EA0C0023FA02F33A
:100A40004FEA4303CCE77FEA625307D150EA013310
:100A50001EBF4FF0FE4040F44000704701F00040E0
:100A600040F0FE4040F40000704700BF53B94AB95F
:100A7000002908BF00281CBF4FF0FF314FF0FF30A6
:100A800000F072B9ADF1080C6DE904CE00F006F883
:100A9000DDF804E0DDE9022304B070472DE9F047FA
:100AA000089E04468846002B4BD18A42154667D9DA
:100AB000B2FA82F24AB1C2F1200701FA02F320FA37
:100AC00007F7954047EA030894404FEA154E230C78
:100AD000B8FBFEF71FFA85FC0EFB178843EA0843B4
:100AE00007FB0CF1994209D9EB1807F1FF3080F0B0
:100AF0001B81994240F21881023F2B445B1AA4B239
:100B0000B3FBFEF00EFB103344EA034400FB0CFC85
:100B1000A44509D92C1900F1FF3380F00781A445C1
:100B200040F2048102382C4440EA0740A4EB0C0454
:100B300000271EB1D4400023C6E900433946BDE872
:100B4000F0878B4209D9002E00F0EB800027C6E920
:100B5000000138463946BDE8F087B3FA83F7002F25
:100B600047D18B4202D3824200F2FA80841A61EBB1
:100B7000030301209846002EE0D0C6E90048DDE7D7
:100B800002B9FFDEB2FA82F2002A40F08F80491BE0
:100B90004FEA154E1FFA85F80127B1FBFEFC230C26
:100BA0000EFB1C1143EA014308FB0CF1994207D9E3
:100BB000EB180CF1FF3002D2994200F2CD8084464E
:100BC000591AA3B2B1FBFEF00EFB101443EA044421
:100BD00008FB00F8A04507D92C1900F1FF3302D219
:100BE000A04500F2B6801846A4EB080440EA0C4089
:100BF0009FE7C7F1200CBB4022FA0CFE4EEA030E21
:100C000001FA07F420FA0CF521FA0CF34FEA1E481A
:100C10002543B3FBF8F92C0C08FB19331FFA8EFAA5
:100C200044EA034309FB0AF49C4202FA07F200FA81
:100C300007F10BD91EEB030309F1FF3080F0878029
:100C40009C4240F28480A9F1020973441B1BADB29F
:100C5000B3FBF8F008FB103345EA034400FB0AFA43
:100C6000A24508D91EEB040400F1FF336BD2A24564
:100C700069D90238744440EA0940A0FB0289A4EB18
:100C80000A044C45C2464B4654D351D0002E69D07D
:100C9000B1EB0A0564EB030404FA0CFCFD40FC40D4
:100CA0004CEA0505C6E90054002747E7C2F12003D6
:100CB00020FA03F7954001FA02F021FA03F34FEA14
:100CC000154E3843010CB3FBFEF71FFA85F80EFBF7
:100CD000173341EA034107FB08F38B4204FA02F49D
:100CE00007D9691807F1FF3C2FD28B422DD9023F5B
:100CF0002944CB1A81B2B3FBFEF00EFB103341EA5C
:100D0000034100FB08F38B4207D9691800F1FF3C4F
:100D100017D28B4215D902382944C91A40EA07472D
:100D20003BE73746304609E70746E7E61846FBE665
:100D30004145ABD2B8EB020A69EB0E02013813460B
:100D4000A4E76046E9E7184695E76746D1E781469C
:100D50007CE702382C4447E7ACF1020C2B442FE728
:100D6000384608E73746E9E6704700BF034613F800
:100D7000012B002AFBD1181A01387047000000002F
:100D800001F0FF01102A2BDB10F0070F08D010F83C
:100D9000013B013A8B422DD010F0070F42B3F6D140
:100DA000F0B441EA012141EA014122F007047FF059
:100DB00000070023F0E80256083C85EA010586EAB0
:100DC000010685FA47F5A3FA87F586FA47F6A5FAEC
:100DD00087F68EB9EED1F0BC01F0FF0102F00702F8
:100DE00032B110F8013B013A83EA010313B1F8D1A3
:100DF0000020704701387047002D06BF3546033884
:100E0000073815F0010F07D1013015F4807F02BFBC
:100E1000013015F4C03F0130F0BC0138704700BF0D
:100E20000120704701207047012070470120704762
:100E30000120704701207047012070470120704752
:100E40000120704701207047012070470120704742
:100E500001207047012070470120704700EB80009F
:100E6000034B53F8203003B118470420704700BFEC
:100E700000000020044B00EB800003EB80035B6864
:100E800003B1184704207047000000208BB170B4F4
:100E9000094D00EB800405EB8404246934B10E464F
:100EA000304611461A46234670BC1847042070BCD1
:100EB00070470420704700BF000000208BB170B461
:100EC000094D00EB800405EB8404E46834B10E4660
:100ED000304611461A46234670BC1847042070BCA1
:100EE00070470420704700BF00000020054B00EB56
:100EF000800003EB800308469B680BB1114618473E
:100F00000420704700000020004870470000FC42A9
:100F10000F49104B10B40860FF2401E00868A0B12D
:100F20001A685206FAD59A689007FCD59A68120694
:100F3000F9D4DC609A68D007FCD59A681206F9D417
:100F4000DA68D2B2FF2AE9D101205DF8044B70477C
:100F5000540300200050014008B5012208210E482A
:100F600009F098F90D4A13685B0603D408BD93682D
:100F7000190606D593689807F9D493689807F9D5A8
:100F8000F5E7FF230549D3608B68DA07FCD58B684A
:100F90001B06F9D4CB6808BD000802400050014090
:100FA00000B5002283B00821184809F073F9184AE7
:100FB00013685B060BD44FF4FA70FFF7A9FFE8B192
:100FC000012003B05DF804FB9368190606D5936809
:100FD0009807F9D493689807F9D5F5E7FF230C49EA
:100FE000D3608B68DA07FCD58B681B06F9D44FF405
:100FF000FA70CB68FFF78CFF0028E1D10190FFF772
:10100000ABFF019803B05DF804FB00BF000802408D
:101010000050014038B505464FF4FA700C46FFF712
:1010200077FFB8B13A4A13685B0618D4FD2C1DD07F
:10103000374C294620464FF4007202F0D1FA23685B
:10104000580652D4324A13685C0614D4304A1368E6
:101050005C061AD4002038BD936819061CD5936825
:101060009807F9D493689807F9D5F5E7012038BDBA
:10107000936819062ED593689807F9D49368980752
:10108000F9D5F5E79368190612D593689807F9D44E
:1010900093689807F9D5F5E71D48D4608368DA07A7
:1010A000FCD583681B06F9D4FD2CC368C0D1DDE7ED
:1010B000FF231749D3608B68DA07FCD58B681B06C2
:1010C000F9D4C86800F01F00A0F10500B0FA80F064
:1010D000400938BDFF230E49D3608B68DB07FCD580
:1010E0008B681D06F9D4CB68B0E720468368990762
:1010F000FCD583681A06F9D4FF23054AC3609368B8
:10110000DB07FCD593681D06F9D4D3689AE700BFC6
:10111000005001402D4A38B5C8232D4C1360FF25DF
:1011200023685B0613D5A3689B07FCD5A3681B0641
:10113000F9D4E560A368DB07FCD5A3681B06F9D4E6
:10114000E368DBB2FF2B04D11368002BE8D1002049
:1011500038BDFE2BFBD10B46FF2201461C4802F096
:1011600057FA23685C060FD4194A13685C0604D446
:10117000012038BD936819061CD593689807F9D4E7
:1011800093689807F9D5F5E711498B689807FCD55E
:101190008B681A06F9D4FF230D4ACB609368DB07EE
:1011A000FCD593681D06F9D4D368094A13685C0618
:1011B000DED5E2E7FF230649D3608B68DA07FCD56A
:1011C0008B681B06F9D4CB68012038BD540300207E
:1011D0000050014038B5030604460D4600F1F0808A
:1011E0000C2C5BD17B4A1368580626D4794A1368C5
:1011F0005B064CD4774A136858063DD4754A136889
:101200005B062FD4734A1368580621D4002C67D08C
:10121000082C40F0CF806F4A126852064FF08703C7
:1012200064D46C4B0A21FF24186810F0400040D1B0
:1012300038BD93681B0640F1A68093689907F8D4DF
:1012400093689907F9D5F4E793681B0640F18E80FF
:1012500093689907F8D493689907F9D5F4E79368E8
:10126000190677D593689807F9D493689807F9D544
:10127000F5E793681B0661D593689907F9D49368DD
:101280009907F9D5F5E79368190640F188809368C6
:101290009807F8D493689807F9D5F4E7FFF75CFE50
:1012A000FFF77EFE00289DD1FF2038BD9A68150605
:1012B00006D59A689207F9D49A689207F9D5F5E7A6
:1012C000DC609A68D007FCD59A681206F9D4DA680F
:1012D0001506D0B2ACD54A1E12F0FF01A4D138BD1C
:1012E0003C4A126852064FF095039AD51846394980
:1012F0008B689A07FCD58B681B06F9D4354AC86001
:101300009368DD07FCD593681806F9D4D3680C2CD4
:1013100087D1304A1368590683D593689B07FCD55B
:1013200093681D06F9D4FF232A49D3608B68DC0734
:10133000FCD58B681806F9D4CB6872E7C5F3074370
:101340002449D3608B68D807FCD58B681A06F9D47A
:10135000CB6853E7C5F307231E49D3608B68DA07D0
:10136000FCD58B681B06F9D4CB684BE7EDB2194965
:10137000D5608B68DD07FCD58B681806F9D4CB687F
:10138000002CADD044E744F040031249D3608B6891
:10139000D807FCD58B681A06F9D4CB6826E72B0E44
:1013A0000C49D3608B68DA07FCD58B681B06F9D42F
:1013B000CB681FE7074B1B685906A8D5012096E7A5
:1013C00000213720FFF706FF01283FF631AF04F078
:1013D0007F0405E70050014070B582B001F05EFF68
:1013E00008210122644808F055FF0A2001F0A8FFF7
:1013F0000A24624BFF2103E0621E12F0FF0414D0A6
:101400001A685006F8D59A689207FCD59A681606AD
:10141000F9D4D9609A68D507FCD59A681006F9D432
:10142000DA68621E12F0FF04EAD121462046FFF777
:10143000D1FE012805460ED0514B00221A70FFF74D
:101440008BFD504B01221A701A7802F0FB021A70C1
:10145000187802B070BD4C4E4FF47A734FF4D571CA
:1014600008203360FFF7B6FE012842D101AD434B9F
:101470002C4602A9FF201A6812F040025FD104F83E
:10148000012BA142F7D19DF80630012BD4D19DF854
:101490000730AA2BD0D102E0FFF79CFE28B13368B9
:1014A0004FF08041A920002BF6D13368002BC3D028
:1014B00000213A20FFF78EFE0028BDD12F4AFF21E0
:1014C00003E005F8013BA54249D0136813F040033F
:1014D000F7D093689B07FCD593681E06F9D4D160BA
:1014E0009368D807FCD593681B06F9D4D368DBB2A0
:1014F000E7E72146A920FFF76DFE02283ABFA9259C
:101500000224012402E0FFF765FE20B133680021C8
:101510002846002BF7D13368002B8DD14FF4007192
:101520001020FFF757FE002886D1154B1C70FFF7DF
:1015300013FD144B1A7802F0FE021A7084E79A68C1
:101540009207FCD59A681206F9D4D8609A68D20737
:10155000FCD59A681206F9D4DA68D2B28FE79DF802
:10156000043013F0400F064B14BF0C2204221A70F3
:10157000FFF7F2FCDDE700BF000802400050014029
:1015800008030020B400002054030020034B1A7805
:1015900002F0FB021A701878704700BFB4000020F8
:1015A00038B51E4B1B78DC0734D41D4B1B781B074A
:1015B00058BF4902012A054614461DD01220FFF7E4
:1015C00009FE40B1003418BF0124FFF7C5FC2046D6
:1015D00038BD013C0BD028464FF40071FFF79AFD4F
:1015E00005F500750028F4D1003418BF012400214E
:1015F0000C20FFF7EFFDE8E71120FFF7EBFD0028D7
:10160000E3D128464FF40071FFF784FDB0FA80F46F
:101610006409DAE70324204638BD00BFB400002087
:1016200008030020F8B5254B1E78F50730D41B7849
:101630005C072AD4224B1B7814461A070F4658BF62
:101640004F02012C05462BD013F0060F23D139464B
:101650001920FFF7BFFD40B1003418BF0124FFF788
:101660007BFC2046F8BD013C07D02846FC21FFF753
:10167000D1FC05F500750028F5D1FD210020FFF70C
:10168000C9FC0028E8D10124E9E702242046F8BD7E
:1016900003242046F8BD21469720FFF79BFDD6E79F
:1016A00039461820FFF796FD0028ECD12846FE2188
:1016B000FFF7B0FCB0FA80F46409D0E7B400002072
:1016C00008030020F0B5894B1B78DC0785B007D4F0
:1016D0000D4604287CD8DFE800F013197B4C070086
:1016E0000324204605B0F0BD814C237813F0060F8B
:1016F00040F0A3800124FFF72FFC204605B0F0BD89
:10170000FFF74EFCB0FA80F46409F4E700210920E9
:10171000FFF760FD04460028ECD110216846FFF772
:10172000F9FC0028E6D09DF800309B09012B00F061
:10173000C0809DF807309DF806009DF805209DF8B3
:1017400009109DF808709DF80A609B00800202F065
:101750000F02490003EB971300F4406002EBD6122E
:1017600001F0060103440A440133073A93402B6019
:10177000C1E75F4C237813F004012BD000218D20AA
:10178000FFF728FD0028B5D15A4A1368590643D4FB
:1017900010216846FFF7BEFC0028ABD0554B302423
:1017A000FF2103E0621E12F0FF047BD01A6850068E
:1017B000F8D59A689207FCD59A681706F9D4D960CB
:1017C0009A68D607FCD59A681006F9D4DA68E9E772
:1017D000042490E70920FFF7FDFC0646002889D184
:1017E00010216846FFF796FC002883D023789DF8E7
:1017F0000A209DF80B0013F002036AD053009DF8F5
:101800000D2003F07E0303EBD01392090133013A5C
:10181000934034462B606EE793689B07FCD5936832
:101820001F06F9D4FF233349D3608B68DE07FCD54C
:101830008B681C06F9D4CB68AAE769460B20FFF732
:1018400041FF00287FF456AF9DF800309B0904D17A
:101850009DF80A305A067FF54DAF2378D5E900147C
:101860001B0758BF49024FF0200058BF6402FFF722
:10187000B1FC00287FF43EAF21462120FFF7AAFCEF
:10188000014600287FF436AF2620FFF7A3FC00288E
:101890007FF430AF47F23050FFF73AFBB0FA80F4F4
:1018A000640928E79DF80A201023120993402B6051
:1018B00021E79DF807209DF808109DF809301204D3
:1018C00002F47C12013203EB012313449B022B60D0
:1018D00011E7C100C2F3840201F01801013201EBEB
:1018E000501101FB02221C462A6004E7B4000020CC
:1018F00008030020005001402DE9F0410668002E49
:101900003CD03778202F0DD906F1010E3A2F8446AE
:10191000734604D13CE03A2A08D01E4601331A78B7
:10192000202AF8D81B4B1878BDE8F081A7F13000C9
:10193000092801D89E4525D00236DFF86080164C74
:10194000002075463B4603E08B420DD115F8013B64
:1019500014F8011BA3F16102192A9CBF203BDBB2E2
:101960000029F1D1AE4205D00130092806D058F83F
:10197000044FE6E7CCF80060BDE8F0814FF0FF309F
:10198000BDE8F0810928F9D00236CCF80060CBE739
:101990007646D2E70C030020800A010870E10008B7
:1019A00098B108B503682BB11A781AB18288D98822
:1019B000914201D0092008BD5878FFF75BFA10F07A
:1019C000010F14BF0320002008BD0920704700BF8D
:1019D000F0B402F1090410B30E682E270021701E26
:1019E00010F8013F202B01F1010104F1010506D09F
:1019F000052B08BFE523092915D023702C460B2998
:101A0000EED1F37A1372F3691360717E337E43EA89
:101A100001239380F17DB37D43EA0123D38000232A
:101A20002370F0BC7047A4462C460CF8027B654638
:101A3000E3E700BFF8B5056B00F1340704462A461A
:101A4000407839460123FFF739FAB0B9626AE36991
:101A50002071AA1A9A420ED2E678012E01D80AE025
:101A6000E36960781D44013E2A4601233946FFF7A9
:101A700025FA012EF4D10020F8BD0120F8BD00BFE9
:101A800070B5037905465BB92B78032B0FD0002284
:101A900068781146FFF72AFA003018BF012070BDA0
:101AA000FFF7C8FF0028FAD12B78032BEFD16B7911
:101AB000012BECD105F134010B4605F50D72002424
:101AC00003F8014B9342FBD1D5E90330C0F307265D
:101AD0002A6A85F81C0285F81D62060C000E85F83E
:101AE0001E6285F81F02C3F30726180C85F8203202
:101AF0001B0E013285F8216285F8220285F8233217
:101B00000748084B68634AF65526C5F818322A6319
:101B1000A5F8326201236878FFF7D0F96C71B6E757
:101B2000525261417272416138B5037904460D46E3
:101B300013B1FFF77FFF70B92A46012304F1340186
:101B40006078FFF7A3F9002818BF4FF0FF35256331
:101B50000CBF0020012038BD4FF0FF330022994216
:101B600010B50446027103631AD194F8331294F845
:101B700032324AF6552243EA012393420ED1D4F879
:101B80006A300B4A23F07F4393420FD0D4F886008B
:101B900020F07F40801A18BF012010BD022010BD28
:101BA000FFF7C2FF0028E0D0032010BD002010BDC9
:101BB000464154002DE9F0470746002384B008460B
:101BC0003B601646FFF798FE051EC0F2B680DFF8B0
:101BD000648208EB85035C68002C00F0D3803C60D5
:101BE00023787BB16078FFF745F9C3070AD4002E4C
:101BF00000F0D58010F0040000F0A0800A2004B0AE
:101C0000BDE8F087E8B2002360702370FFF726F983
:101C1000C70700F196800EB14507EFD4002120469A
:101C2000FFF79AFF012800F09080032800F0B580AC
:101C30000546002840F0A28094F8402094F83F30F8
:101C400043EA0223B3F5007F40F0988094F84B20DC
:101C500094F84A3053EA022394F8442008BFA36D55
:101C6000E361511E0129E27000F2888094F841106E
:101C7000A170002900F08280481E08427ED194F8AD
:101C8000460094F8456046EA00263007268175D163
:101C900094F8487094F8470094F843C050EA07203D
:101CA00094F8427008BF606D57EA0C2C66D003FBB5
:101CB00002FE0CEB16177744B8425FD3C01BB0FB93
:101CC000F1F100295AD040F6F57A4FF6F5790CEB90
:101CD0000502E81951458CBF4FF0020C4FF0010C82
:101CE0008F1C4945A761C4E90852E06259D9002E0A
:101CF00044D1BA0002F2FF12216EA162B3EB522F5F
:101D00003CD394F8652094F8643043EA02238021A0
:101D10004FF0FF32012BC4E9032261715ED04FF016
:101D2000030CB8F8283084F800C001339BB20020BF
:101D3000A8F82830E380606100E00B2004B0BDE823
:101D4000F087032004B0BDE8F0876E46314604F505
:101D5000FD7304F23A2013F8042C02B11A6841F81A
:101D6000042B10338342F6D106F1100756F8045BBA
:101D700065B90220BE42F9D103280ED00D2004B06F
:101D8000BDE8F0870C2004B0BDE8F0872946204666
:101D9000FFF7E2FE0028EDD14EE70120CEE7304606
:101DA000CCE7002EEAD07244BCF1020FA26213D03D
:101DB00007EB470107F0010202EB51024FF0010C63
:101DC00002F2FF12B3EB522FD8D34FF0FF33802231
:101DD000C4E903336271A4E77A00F1E7236B691C5D
:101DE000994204D02046FFF79FFE002897D194F82F
:101DF000332294F8323243EA02234AF65522002174
:101E0000934261718BD10A4B626B9A4287D103F185
:101E1000FF5303F50053D4F8182220339A427FF47D
:101E20007EAFD4F81C22D4F82032C4E9033276E71E
:101E3000525261410C030020F8B50378022B07468B
:101E40000C463ED0032B21D0012B01D00120F8BD40
:101E5000436AD0F830C001EB510603EB56216145CF
:101E60004AD1C6F3080201363A4403EB56216145D4
:101E700092F8345048D1C6F308063E44E30796F87A
:101E8000340045EA002045D50009F8BD416A036BDE
:101E900001EBD411994228D1A40004F4FE7404F19A
:101EA00034033B443C449878D97894F834205B78E8
:101EB000000440EA0160104340EA032020F0704033
:101EC000F8BD416A036B01EB1421994202D0FFF780
:101ED0002BFE70B9640004F4FF743C4494F8353070
:101EE00094F8340040EA0320F8BDFFF71DFE0028F7
:101EF000D2D04FF0FF30F8BDFFF716FE0028F8D122
:101F00007B6AD7F830C0ACE73846FFF70DFE0028F3
:101F1000B1D0EEE7C0F30B00F8BD00BF70B50D46C1
:101F20008168C58001291ED003689A698A420446E7
:101F300019D9D1B19E783601B54230D3012912D9D1
:101F40008A4210D901E0AE4229D81846FFF774FF43
:101F5000431C0146A5EB06052CD0012803D92368B4
:101F60009A698242EFD8022070BD1878032811D0F8
:101F70001A89AA42F7D99A6AE160002AF3D005F0DB
:101F80000F00343303EB401302EB1515C4E904537F
:101F9000002070BD986A0028EAD00146CAE7023ADC
:101FA000881E904201D3E160DDE79A78DE6A00FB8B
:101FB0000262E1E7012070BD38B5C1880446FFF731
:101FC000ADFF054690B920682169036B99420FD196
:101FD0006369002103F1200203F8011B9A42FBD13F
:101FE0006369E5221A70236801221A71284638BDF8
:101FF000FFF79AFD0028EBD00546284638BD00BF04
:102000002DE9F0410378022B04460D46164655D0C3
:10201000032B32D0012B02D00220BDE8F081436AAD
:10202000026B01EB510703EB572191425FD107F19E
:10203000010803EB5821C7F30807EB07274462D5D3
:1020400097F8343003F00F03012043EA06138A4265
:1020500087F83430207104D02046FFF765FD002852
:10206000DBD1C8F30808C6F30712A044012388F89F
:10207000342023710020BDE8F081416A036B01EB3D
:10208000D51199423AD1AD0005F4FE7505F1340140
:1020900021442544CB781B0603F0704343EA060233
:1020A00085F83420C2F30726100C0123120E887025
:1020B0004E70CA7023710020BDE8F081416A036B45
:1020C00001EB1521994203D0FFF72EFD0028A4D182
:1020D0006D0005F4FF752544C6F30722012385F83A
:1020E000346085F8352023710020BDE8F081FFF7CA
:1020F0001BFD002891D1636A226B98E7FFF714FD5E
:102100000028C0D089E701238A4287F83460237110
:102110000AD1C8F30808A044C6F3032698F834206F
:1021200022F00F023243A1E72046FFF7FDFC002812
:102130007FF473AFEDE700BFF8B505460F46F1B980
:10214000C668836966BB012634460FE0012E2BD991
:10215000022B11D902242146FFF76EFE38B3411C31
:1021600031D0012808D0A6421ED0AB6901349C4270
:102170002846EBD2012CEED801242046F8BD0129D7
:10218000FAD983699942F7D2FFF756FE012804462F
:10219000F2D9013017D0AB69A342EED83E46D3E75F
:1021A0009E4228BF0126CFE700242046F8BDAB6938
:1021B000A342E1D96FF0704221462846FFF720FF85
:1021C00028B10128D8D14FF0FF342046F8BD5FB1C7
:1021D000012FD1D9AB699F42CED23946224628463B
:1021E000FFF70EFF0028ECD12B69EC605A1CC4D01D
:1021F0006A79013B42F001022B616A71BDE700BFC1
:102200002DE9F047C4880134A3B2002B3AD003690A
:10221000002B37D014F00F0705460E46006826D174
:10222000E96801332B6151B38378013B13EA141839
:102230001DD1012929D98369994226D2FFF7FCFDD6
:102240000128814621D9B0F1FF3F59D02868826921
:102250004A451CD9A9F1020A023A9245C5F80C90E8
:102260003BBF8378C26A00230AFB03232B6134300F
:1022700000EB47106861EC800020BDE8F08703891F
:10228000A342F4D80420BDE8F0870220FBE7002E2B
:10229000F8D0E968FFF750FF8146002832D00128C6
:1022A000F3D0B0F1FF3F2BD029680B79002B32D14E
:1022B00001F13403002201F50D7103F8012B8B426B
:1022C000FBD129688B698A78023BA9F1020A9A45F9
:1022D00036BFCB6A00230AFB02330B63A2B101268F
:1022E00006E029680B6B8A78013342450B630BD9F2
:1022F0000E710846FFF79EFB08F101080028F0D098
:102300000120C0E70720BEE70B6B8A69A3EB080337
:1023100008460B63A0E70846FFF78CFB0028EFD1C7
:102320002968C5E72DE9F0470B782F2B0F460446A7
:102330000FD05C2B0DD003685B6983603B781F2B4B
:102340000DD800212046FFF7E9FD00236361BDE8B9
:10235000F08700230137A3603B781F2BF1D9A669D2
:10236000DFF8F48106F10B00202501E017F8013FAA
:102370002F2BFBD05C2BF9D0334603F8015B834253
:10238000FBD13B782E2B22D0002108468E46BA4640
:102390004FF00809202B00F1010040F2C1802F2BE3
:1023A00044D05C2B42D02E2B04D089451AD806206D
:1023B000BDE8F087B9F1080FF9D14FEA8E0E494612
:1023C0005FFA8EFE4FF00B091AF8013FE2E7337017
:1023D0007B782E2B40F0A7807370BB782E2BE6D035
:1023E0000322A1E01A0604D543444EF0030E13F86D
:1023F000803C222BDBD0DFF864C12A229A42D6D05F
:102400001CF8012F002AF9D1A3F14102192A04D89E
:102410004EF0020E73540131D6E7A3F16102192A7E
:10242000F8D8203BDBB24EF0010EF3E7074400235F
:102430000029BCD03278E52A04BF05223270B9F1F8
:10244000080F76D00EF00302012A01D143F01003E9
:102450000EF00C0EBEF1040F08BF43F00803F37238
:1024600000212046FFF75AFD002842D1206821694B
:10247000036B994203D0FFF757FB002839D1D4F8FA
:1024800014E09EF80020002A43D09EF80B9019F02B
:10249000080F28D1A669F44606F10B00334601E087
:1024A0001CF8012F13F8011B91421CD19842F7D15F
:1024B000F37A5A072AD419F0100F3FD022689EF8F9
:1024C0001B1012789EF81A30032A43EA012307D121
:1024D0009EF815109EF8142042EA012243EA0243B6
:1024E000A3603B7844E700212046FFF789FE0028DF
:1024F000BCD0A3690428DB7A7FF45AAF03F004024E
:102500009B061DD50023A36063612AB10020BDE8AE
:10251000F087A369DB7AF1E7A66906F10B00E0E733
:102520000744042384E702222F2B0DD117442023D4
:1025300095E74FEA8E0E5FFA8EFE89E7052037E7B2
:10254000002AFBD0042033E75C2BEFD0202B3FF692
:102550002EAF1744242382E7F0E00008850A010823
:1025600070B504460D4604201FE022681046126B29
:10257000934202D0FFF7D8FAF8B963691A780021BC
:102580002046CAB1DB7AE52A03F03F0323F0200698
:1025900008D00F2B06D0A6F10806B6FA86F6760903
:1025A000AE4207D0FFF72CFE38B923691946002B3D
:1025B000DBD110B9002070BD04200023236170BD61
:1025C00070B504460D46A3699D422946204621D296
:1025D000012D21D9FFF730FC294606460022C8B15B
:1025E000012E204618D0731C18D0A3699D4213D227
:1025F000FFF706FD78B923695A1C05D062790133CB
:1026000042F0010223616271A36935469D42294669
:102610002046DDD3002070BD022070BD0120FAE706
:1026200038B500210446FFF779FC054630B1042D8A
:1026300008BF072513E0FFF7E3FD90B92068236981
:10264000026B9342194602D0FFF76EFA48B96369EC
:102650001B78E52B03D001212046002BEBD1284627
:1026600038BD0546E3E700BF38B50446FFF7D8FF9D
:102670000546D0B920682169036B994217D1636977
:10268000002103F1200203F8011B9342FBD1D4E99E
:10269000052303F10B00013A13F8011B02F8011F97
:1026A0008342F9D1236801221A71284638BDFFF709
:1026B0003BFA0028E3D00546284638BD10B584B063
:1026C00004AB019043F8041D184600911446FFF72F
:1026D00013F9002814DB0F4B80001A1852680AB156
:1026E00000211170019A034432B10020012C5A607C
:1026F000107008D004B010BD10465A6004B010BD70
:102700000B2004B010BD0246694601A8FFF752FA3B
:1027100004B010BD0C0300202DE9F0438FB00191EF
:1027200030B3002303600446154606A802F01E02DB
:1027300001A9FFF73FFA064618B130460FB0BDE8D1
:10274000F08303AB01990C9306A8FFF7EBFD05F0AE
:102750001F0805F01C0380B90B9F002F7FD0FA7A69
:102760009BB112F0110F16D16B0774D50826E4E760
:10277000092630460FB0BDE8F0830BB104280ED017
:10278000064630460FB0BDE8F083D30605D4A8074F
:102790003BD5D10739D50726CFE70426CDE706A8D4
:1027A000FFF762FF48F008080B9F0028E8D1FEF70A
:1027B000ABFB0022050C010EC0F3072C069B3D74F9
:1027C0007974B87387F80FC0FA723A777A77BA7764
:1027D000FA771A78F97EBD7E032A45EA012505D1EC
:1027E000797D3A7D42EA012245EA02450022012133
:1027F000BA76FA763A757A7519714DB18D4202D072
:102800009A6995422DD3022697E72A07069B01D5A0
:1028100048F020081A6BE2610022276284F80680E3
:10282000E2711978F87EBA7E032942EA002205D1C6
:10283000787D397D41EA002142EA01422261FA694C
:10284000D988E260304600222360A180A260A261A4
:102850000FB0BDE8F0832D07A9D4069BDAE7062662
:102860006BE729461846D3F83090FFF7A9FE0028F9
:1028700086D1069B1A6B013D9145DD60C8D0494663
:102880001846FFF751F900287FF47AAF069BBFE79F
:102890002DE9F04F9946002383B0C9F800308A46ED
:1028A00014460646FFF77CF88046002844D1F379A9
:1028B000002B45D1B379D80740F19880D6E902279B
:1028C000BF1AA74228BF2746002F35D006F12403A0
:1028D000009306F5097BCDF80480C2F30803002BB2
:1028E00051D130688378013B03EA522313F0FF088B
:1028F00069D074698269023C023A944280F0908007
:102900008178C26A01FB0424002C00F089807D0AD2
:1029100044441AD008EB0502914238BFA1EB0805E8
:1029200040782B4622465146FEF7B0FA002860D088
:102930004FF0010886F80780404603B0BDE8F08FED
:102940009846404603B0BDE8F08FB269944216D075
:10295000B37940785B060BD501230099FEF7AEFAF8
:102960000028E5D1B379326823F04003B371507881
:10297000009901232246FEF789FA0028D8D1B368CE
:10298000B461C3F30803C3F50075BD4203F124032A
:1029900028BF3D46334458190AF1FF3213F8011B92
:1029A00002F8011F8342F9D1B268AA447F1BD9F80B
:1029B00000302A441D44B260C9F80050002F8CD169
:1029C000DDF80480B8E73AB93469012C28D9611CD4
:1029D000AED0306874618DE77169012920D98269B0
:1029E00091421DD2FFF728FA0446EEE74FF00708A0
:1029F000A2E7B3795A060ED5B3691C1BA5420AD9C2
:102A00000AEB4424621E06F1240313F8011B02F8AA
:102A1000011F5B45F9D16D02AA447F1BB268C6E76E
:102A20004FF0020886F8078086E700BF2DE9F04FD7
:102A30009B46002383B0CBF800300C4690460546F9
:102A4000FEF7AEFF8246002856D1EB79002B57D116
:102A5000AB79990740F19880AA6818EB020F7DD2F4
:102A6000B8F1000F7AD005F124030193C2F30803F3
:102A7000002B54D1296891F8029009F1FF3909EA35
:102A8000522919F0FF0910D1002A40F088802869E6
:102A9000002800F09880012800F0AE80421C27D06A
:102AA0002B696861296803B92861AB795B065DD43D
:102AB0006F698B69023F023B9F4280F09D808B785B
:102AC000CA6A03FB0727002F00F096805FEA5826AA
:102AD0004F441AD009EB0602934238BFA3EB090614
:102AE000487833463A462146FEF7E8F900284ED0AA
:102AF0004FF0010A85F807A0504603B0BDE8F08FFB
:102B00009A46504603B0BDE8F08FAA69AB68974279
:102B100002D0EA689A424CD8AF61C3F30803C3F508
:102B20000076464528BF464623332B44A11914F8A6
:102B3000012B03F8012F8C42F9D1AB79AA6843F03D
:102B40004003AB71DBF8003032443344B8EB060885
:102B5000AA600C46CBF8003088D1AB79E96843F025
:102B60002003914238BFEA60AB71C5E74878AA6993
:102B700001990123FEF7A2F90028B9D1AB792968A0
:102B800023F04003AB7193E74FF0070AB4E7AB695A
:102B9000DF1BBE421FD87602A119AA68D2E70846F9
:102BA0006969FFF7C9FA00287FF475AFAA68AB79A5
:102BB000D4E74878019901233A46FEF767F90028DF
:102BC00096D1AB68A8E708464946FFF7B5FA002852
:102BD0007FF461AFEAE704EB472303F5007005F1EA
:102BE000230213F8011B02F8011F8342F9D1AB79CC
:102BF00023F04003AB71CEE74FF0020A85F807A03F
:102C00007AE700BF70B50446FEF7CAFE00283DD142
:102C1000A3799A063AD55B06206838D4E169036B3C
:102C2000994202D0FEF780FF80BB256AEB7A43F021
:102C30002003EB72E3682B77A3891B0A6B77E38988
:102C4000AB77E37BEB772369AB761A0C110AC3F3FE
:102C50000723EB762A756975FEF756F90023C0F352
:102C60000726010C020EA8752976EE756A76AB74FC
:102C7000EB74A379226823F020030121A371117161
:102C80001046BDE87040FEF7FBBE012070BD4078E5
:102C9000A269012304F12401FEF710F90028F4D100
:102CA000A379206823F04003A371B7E710B5044669
:102CB000FFF7A8FF00B110BD2046FEF771FE002807
:102CC000F9D1206010BD00BFF0B595B014AB002263
:102CD00043F84C0D0E46027019460CA8FEF76AFF29
:102CE0000546002852D10C9B5F690E9703AB1293E7
:102CF000002F00F08E80344601210CA8FFF70EF95A
:102D0000002840F0848001460CA8FFF729FC002829
:102D10007DD10C99119A0978D07E937E032943EADC
:102D2000002305D1517D127D42EA012243EA02438C
:102D300000210CA80E93FFF7F1F8C8B167E00C98DA
:102D4000119A90F800C092F81BE0937EBCF1030F3B
:102D50000CA843EA0E2306D192F815C0127D42EA70
:102D60000C2243EA0243BB4213D0FFF749FA30B9C1
:102D700000210CA8FFF7F4FB00210028DFD0042875
:102D800014BF05460225019B00221A70284615B083
:102D9000F0BD06AA11A91098FEF71AFE9DF8213081
:102DA0008BB30DF12101002300E0134611F8010F50
:102DB0005A1C0028F9D1191DA14235D8093306A99A
:102DC0000B44A21A013C019913F8010908559442D9
:102DD000F8D1541E019B2F221A550E9F002F8BD124
:102DE000124A019B12783A213032A6421A70597069
:102DF00016D00233019A125D03F8012B0134A6426A
:102E0000F8D80025C0E7022C0ED92246E1E7054696
:102E1000B9E7064A019B12783A2130321A7059708C
:102E20002F229A700333AFE71125ACE70C03002083
:102E30002DE9F0410E460446FEF7B2FD0746002894
:102E40004DD1E379002B4DD1E368B34204D2A2798E
:102E500012F0020F08BF1E460022A368A260002ED7
:102E60003DD0206890F802804FEA48283BB1013BF2
:102E7000721EB3FBF8F1B2FBF8F28A4276D22569F2
:102E8000002D7CD06561002D33D1A368C3F3080207
:102E9000002A72D0A269AA426FD02646A37956F8BA
:102EA000241B5B0648780AD501233146FEF706F855
:102EB000E0B9A379226823F04003A371507831462A
:102EC00001232A46FDF7E2FF80B9D4E90232A56169
:102ED000934204D9A279E36042F02003A3713846FB
:102EE000BDE8F0811F463846BDE8F0810127E77153
:102EF000F5E7464552D92068A3799907A6EB08065D
:102F000007D4012D02D98369AB422AD80227E77181
:102F1000E5E72946FFF710F9054600283BD06A1C73
:102F2000E4D0012DF2D920688369AB42EED9A368C1
:102F300065614344B045A360DED33344C6F3080261
:102F4000A36032B321688A69A81E023A9042DDD29A
:102F50008D78CA6A00FB0525002DD7D005EB5625D4
:102F600094E72946FEF768FF0546D8E7C8F1000256
:102F70001340A360F61A656985E7E268A8E7294669
:102F8000FFF7DAF801280546C0D00130AED0256140
:102F900078E715467AE74646A368CEE7A368CCE70C
:102FA00030B587B00191002833D00446002201A932
:102FB00002A8FEF7FFFD18B10023236007B030BD63
:102FC000029B236003ABA36101992046FFF7AAF996
:102FD00010BB636923B3DA7AD2061FD50299DD7E6E
:102FE00008789A7E032842EA052205D1587D1B7D88
:102FF00043EA002342EA0342A260CB88A380002177
:103000002046FEF78BFF042808D00028D4D107B053
:1030100030BD092007B030BD0428CDD10520CBE755
:103020000299EAE710B50446FEF7BAFC00B9206041
:1030300010BD00BF70B584B00E460546FEF7B0FC6B
:103040000446B8B9EEB101AB0146AB612846FFF7C3
:1030500087FA04281DD080B92869324605F1140189
:10306000FEF7B6FC00212846FFF7CAF8042804D171
:1030700000232B61204604B070BD0446204604B0F6
:1030800070BD01462846FEF749FF0446204604B0BD
:1030900070BD2C612046E0E770B50446FEF780FC69
:1030A000054610B9E37913B11D46284670BDA279D3
:1030B00091071ED5D4E902319942F6D942F0200297
:1030C000A271E36020685BB92169012902D9836993
:1030D000994243D3002302252361E571284670BD40
:1030E0006169012902D98369994204D30225E571F6
:1030F000F4E70725D9E7FEF79FFE421C06462AD0D3
:103100000128F3D0206883699E4213D261690129A6
:10311000ECD99942EAD26FF07042FEF771FF08BB1A
:10312000012EE3D9206883699E42DFD23146FFF742
:1031300047FAB8B9A3795B06B7D52368A26958786E
:1031400004F124010123FDF7B9FE20B9A37923F08E
:103150004003A371A9E70125E571BFE7FFF730FA46
:103160002561E6E70546E571B8E700BF30B597B0E1
:1031700016A9012241F8540D06A8FEF71BFD08B15F
:1031800017B030BD03AB01990C9306A8FFF7CAF83E
:103190000028F5D10C9BDB7A980606D40B9B23B153
:1031A000DA7AD10704D50720EAE7062017B030BD48
:1031B0000699DC7E08789D7E032845EA042537D0F1
:1031C0006DB3D3061BD54B69AB42ECD00DF1370381
:1031D00006AC0EA914F8012B03F8012F8C42F9D18B
:1031E000022120461095FEF799FE0028C8D101461D
:1031F0002046FFF7B5F90028D5D00428C0D106A88D
:10320000FEF7DAFE0028BBD1012D1AD0069883699B
:103210009D4216D22946FFF7D3F928B1B0E706A898
:10322000FEF7CAFE0028ABD10698FEF729FCA7E7F7
:10323000587D1B7D43EA002345EA0345002DEED06F
:10324000BFE702209CE700BFDFF834D0002103E095
:103250000C4B5B58435004310B480C4B42189A42BC
:10326000F6D30B4A02E0002342F8043B094B9A4292
:10327000F9D305F0B1FE0AF083FA03F06FF8704756
:10328000000003206012010800000020EC02002072
:10329000EC0200206C250020FEE700000C4A0D4BDC
:1032A000D16821F08071D160D16841F08071D16026
:1032B0001A6822F001021A601A68002142F0010225
:1032C0001A6059605A6800BF00BF5868801A70477A
:1032D000F0ED00E0001000E0704700BF70B5174E41
:1032E000B3690133B361F36913B1F369013BF3616E
:1032F000337803B30024A50073195B68B3B11A785F
:103300009207184612D59A68511E0AB1996069B998
:103310003544D3E9032190476A6813785168916076
:1033200013F0010102D161F34103137001343378CA
:10333000E4B2A342DFD8FFF7CFFF70BD380300200F
:10334000EFF305833BB1074A20B11368DB03FCD5DB
:103350000138F9E77047044A916993695B1A83421F
:10336000FBD3704710E000E038030020014B986960
:10337000704700BF3803002038B50546164C174883
:10338000C5F3C002802106F085FFC5F38002204608
:10339000402106F07FFFC5F340022046802106F061
:1033A00079FF05F0010220464FF4807106F072FFAC
:1033B000204601224FF4007106F06CFF142001F04A
:1033C00013FA204600224FF4007106F063FF142028
:1033D000BDE8384001F008BA000802400018024079
:1033E00010B5002204464FF48071064806F052FFE3
:1033F0002009FFF7C1FF04F00F00BDE81040FFF700
:10340000BBBF00BF0000024010B40C4B0C4ADC787C
:1034100083B08C420192024609D8002140F080001E
:103420005A71997103B05DF8044BFFF7D9BF02A838
:10343000084410F8040C1044C0B2EFE75803002011
:103440000040145410B5012204464FF48071064820
:1034500006F020FF2009FFF78FFF04F00F00BDE802
:103460001040FFF789BF00BF0000024070B5002286
:103470000D4606464FF480713248334C06F00AFF81
:1034800000224FF40071314806F004FF00224FF48F
:1034900080712E4806F0FEFE002280212B4806F0A7
:1034A000F9FE00224021294806F0F4FE0022802186
:1034B000274806F0EFFE4AF6C87001F095F9012D95
:1034C0004FF000036371A3714FF0030088BF08231E
:1034D00063702671E570FFF74FFF41F2941001F021
:1034E00083F90320FFF748FF41F2941001F07CF9C3
:1034F0000320FFF741FF41F2941001F075F902201B
:10350000FFF73AFF642001F06FF9607840F0200087
:10351000FFF766FF04230C202370FFF761FF0120F3
:10352000FFF75EFF40F6B83001F05EF90223062097
:10353000A370FFF755FF41F29410BDE8704001F011
:1035400053B900BF000002405803002000080240A9
:103550000018024008B50120FFF742FF40F6B830DE
:10356000BDE8084001F040B970B51546FFF74CFFC3
:103570002B786BB3194C00260DE02B780A2B1846DC
:103580001AD00D2B25D0FFF75DFF637901336371EE
:1035900015F8013FE3B1627923799A42EDD3A3791B
:1035A00066710133DBB219460020A371FFF72CFFCF
:1035B0002B780A2B1846E4D1A37960790133DBB26A
:1035C0001946A371FFF720FF15F8013F002BE2D148
:1035D00070BDA1790020FFF717FFD9E7580300203D
:1035E00003685B0613D592B10A4483689B07FCD538
:1035F00083681B06F9D411F8013B03738368DB076A
:10360000FCD583681B06F9D48A428389EDD17047C3
:1036100010B40468640613D593B1CC1883689B0773
:10362000FCD583681B06F9D402738368DB07FCD5DD
:1036300083681B06F9D4037B01F8013B8C42EDD172
:103640005DF8044B704700BF30B583B002AC0D4D40
:1036500004F8010D00224FF400510B4806F01AFE49
:1036600028460022042106F015FE2146642301228B
:10367000064808F027F828460122042106F00AFE31
:1036800003B030BD00080240000C0240A419002025
:1036900030B583B002AC0D4D04F8010D01224FF49A
:1036A00000510B4806F0F6FD28460022042106F0E2
:1036B000F1FD214664230122064808F003F828465C
:1036C0000122042106F0E6FD03B030BD00080240EF
:1036D000000C0240A419002010B500224FF48051C4
:1036E000994806F0D7FD44F62063013BFDD1012245
:1036F0004FF48051944806F0CDFD44F62063013B21
:10370000FDD10120FFF7A0FF4CF25034013CFDD168
:10371000CB20FFF799FF3920FFF7BAFF2C20FFF7E6
:10372000B7FF2046FFF7B4FF3420FFF7B1FF0220B8
:10373000FFF7AEFFCF20FFF787FF2046FFF7A8FF78
:10374000C120FFF7A5FF3020FFF7A2FFE820FFF719
:103750007BFF8520FFF79CFF2046FFF799FF78202D
:10376000FFF796FFEA20FFF76FFF2046FFF790FF75
:103770002046FFF78DFFED20FFF766FF6420FFF77F
:1037800087FF0320FFF784FF1220FFF781FF8120CE
:10379000FFF77EFFF720FFF757FF2020FFF778FFA6
:1037A000C020FFF751FF2320FFF772FFC120FFF772
:1037B0004BFF1020FFF76CFFC520FFF745FF3E20B1
:1037C000FFF766FF2820FFF763FFC720FFF73CFFE6
:1037D0008620FFF75DFF3620FFF736FF4820FFF712
:1037E00057FF3A20FFF730FF5520FFF751FFB12078
:1037F000FFF72AFF2046FFF74BFF1820FFF748FF8F
:10380000B620FFF721FF0820FFF742FF8220FFF7D5
:103810003FFF2720FFF73CFFF220FFF715FF204670
:10382000FFF736FF2A20FFF70FFF2046FFF730FF94
:103830002046FFF72DFF2046FFF72AFFEF20FFF776
:1038400027FF2B20FFF700FF2046FFF721FF204630
:10385000FFF71EFF0120FFF71BFF3F20FFF718FFB8
:103860002620FFF7F1FE0120FFF712FFE020FFF70F
:10387000EBFE0F20FFF70CFF3120FFF709FF2B2095
:10388000FFF706FF0C20FFF703FF0E20FFF700FFF6
:103890000820FFF7FDFE4E20FFF7FAFEF120FFF7AC
:1038A000F7FE3720FFF7F4FE0720FFF7F1FE1020A8
:1038B000FFF7EEFE0320FFF7EBFE0E20FFF7E8FE1A
:1038C0000920FFF7E5FE2046FFF7E2FEE120FFF7C3
:1038D000BBFE2046FFF7DCFE0E20FFF7D9FE1420CA
:1038E000FFF7D6FE0320FFF7D3FE1120FFF7D0FE2F
:1038F0000720FFF7CDFE3120FFF7CAFEC120FFF7FA
:10390000C7FE4820FFF7C4FE0820FFF7C1FE0F20C6
:10391000FFF7BEFE0C20FFF7BBFE3120FFF7B8FE1D
:103920003620FFF7B5FE0F20FFF7B2FE1120FFF79C
:103930008BFE064B013BFDD12920FFF785FE2C2095
:10394000BDE81040FFF780BE000C024040420F006F
:10395000F8B507462A200D4616461C46FFF774FEAA
:10396000380AFFF795FEF8B2FFF792FE300AFFF72C
:103970008FFEF0B2FFF78CFE2B20FFF765FE280AC2
:10398000FFF786FEE8B2FFF783FE200AFFF780FE0E
:10399000E0B2BDE8F840FFF77BBE00BF10B50B46B4
:1039A00014460246FFF7D4FF2C20FFF74DFEC4F368
:1039B0000720FFF76DFEE0B2BDE81040FFF768BEDC
:1039C0002DE9F04182B00746BDF820408DF8054052
:1039D000240A0D4616468DF804401C46FFF7B8FF32
:1039E0002C20FFF731FE631B0133002204212848FD
:1039F000DFF8A480F61B06FB033706F04BFC012220
:103A00004FF40051234806F045FCD8F800301A68FE
:103A100022F040021A601A684FF4006142F040023E
:103A2000B7F5803FC8F80C101A602DD34FF6FF741D
:103A300001AD464602222946304607F0A5FF013C6B
:103A4000F8D1A7F57F47FF3F134E0137012401341A
:103A500002222946304607F097FFBC42F7D10122E7
:103A600004210B4806F016FCD8F800301A6822F042
:103A700040021A601A68002142F04002C8F80C1097
:103A80001A6002B0BDE8F081002FE8D001ADDBE79D
:103A900000080240000C0240A419002000B5074BAA
:103AA0001A885B8883B0002180B2013A009092B2FC
:103AB0000846FFF785FF03B05DF804FB50070020C0
:103AC00030B5012283B004210E480F4C06F0E2FB12
:103AD000FFF702FE0D480E4A00234FF6FF710091DA
:103AE0004FF4A07519460380138018460122F02375
:103AF000238022712B46EF226580FFF761FF03B020
:103B000030BD00BF000802405007002056070020CB
:103B10004C07002010B504463620FFF795FD74B120
:103B2000012C1CD0022C16D0032C1CD0104B4FF4AF
:103B3000A070F0210022188059801A7110BD582001
:103B4000FFF7A6FD0A4BF0204FF4A0710122188068
:103B500059801A7110BD2820FFF79AFDE6E78820EA
:103B6000FFF796FDEEE7E820FFF792FDDEE700BFE6
:103B7000500700202DE9F04F2F4FDFF8C480388028
:103B8000A8F800102D4C93F800E0248893F801C0A9
:103B900083B000EB0E051E46A54201EB0C03DDF8D9
:103BA000309092469BB208DD9C440020A8F800307B
:103BB000194675461FFA8CF338800D9A94B200941A
:103BC000AAB2FFF7FDFE72787AB333783888AAF18B
:103BD000200A19464FF0000B0AFB02B4756835F84D
:103BE0001450CBB1002403E00134A342194612D98A
:103BF00005FA04F21204F7D5B8F80010204459442D
:103C000080B289B24A46FFF7C9FE3378388801345A
:103C1000A3421946ECD872780BF1010B5A45DBD858
:103C20000844388003B0BDE8F08F31783888084404
:103C3000388003B0BDE8F08F4C070020500700200B
:103C4000560700202DE9F04F1B4F1C4E82461046B0
:103C50003180A7F800A083B00178DDF83090DDF85E
:103C600034801D464FF0000B441C2B460A4681B1A0
:103C70000A2911D00D2905D038883188CDE900985E
:103C8000FFF778FF20460178441C2B460A4600299E
:103C9000EED103B0BDE8F08F32886B780132134467
:103CA000338043780D2B06BF841CA7F800B0A7F81B
:103CB00000A02046E7E700BF4C0700205607002081
:103CC00030B583B09042069C02D9054610462A467C
:103CD000994202D90D4619462B46A4B20094FFF72B
:103CE0006FFE04480122042103B0BDE8304006F015
:103CF000D1BA00BF00080240014B185C704700BFFA
:103D0000D0000020094B187CFF280BD05A7CFE2ADB
:103D100009D0074910B4FE2200240C805A745DF8C3
:103D2000044B70477047FF20704700BFD000002051
:103D30006003002010B5012204464FF480511C4856
:103D400006F0A8FA01222021194806F0A3FA012260
:103D50004021174806F09EFA01224FF40051154801
:103D600006F098FA012C1BD0022C12D0032C09D09B
:103D7000042C1CD100224FF400510E48BDE8104025
:103D800006F088BA002240210948BDE8104006F03C
:103D900081BA002220210648BDE8104006F07ABA18
:103DA000002210210248BDE8104006F073BA10BD91
:103DB00000100240000802400020FFF7BBBF00BF18
:103DC00010B54FF480710446134806F05DFA18B937
:103DD00012482044C07C10BD80210F4806F054FAE0
:103DE00018B90E482044C07D10BD4FF480610C48C6
:103DF00006F04AFA18B909482044C07E10BD4FF4B5
:103E00000071054806F040FA18B904482044C07F04
:103E100010BDFF2010BD00BF00040240D0000020F4
:103E20000018024008B50120FFF784FF0120FFF7CA
:103E3000C7FFFF2800D008BD0220FFF77BFF02204C
:103E4000FFF7BEFFFF28F6D10320FFF773FF032023
:103E5000FFF7B6FFFF28EED10420FFF76BFF042029
:103E6000BDE80840FFF7ACBF08B5FFF7DBFF0D4A20
:103E70000D491388087401339BB2B3F5FA7F0ED352
:103E80000023FF28138005D093780133DBB2042B85
:103E9000937001D100239370FF234B7408BD1380EE
:103EA00008BD00BF60030020D0000020014B9869CE
:103EB000704700BF64030020012922D017D30229D4
:103EC00014D1124B9A691044B0F5801F01D3C0F38E
:103ED0001300C0F31001C0F34B129861C0F34740C8
:103EE000C3E90412187783F8200070477047074B26
:103EF0000022B0F5801FC3E9042283F82020E6D217
:103F0000E7E7024BC0F58010F2E700BF6403002032
:103F1000012922D017D3022914D1124B9A681044D8
:103F2000B0F5801F01D3C0F31300C0F31001C0F33C
:103F30004B129860C0F34740C3E90012187383F82E
:103F4000200070477047074B0022B0F5801FC3E97F
:103F5000002283F82020E6D2E7E7024BC0F580106C
:103F6000F2E700BF64030020014B9868704700BF70
:103F70006403002038B50C4C0C480D4D002384F828
:103F80002030082102E055F82300118C012206F0B0
:103F900081F994F820300133DBB2072B05EB4302A3
:103FA00084F82030EFD938BD6403002000180240A7
:103FB000D80901082DE9F041164E174C96F820302B
:103FC000164F04EB430282B08046118C54F8230054
:103FD000002206F05FF902A9012501F8015D2A46D9
:103FE0003846642307F06EFB02A92A4601F8028DC9
:103FF0003846642307F066FB96F8203004EB430153
:1040000054F82300098C2A4606F044F9002002B037
:10401000BDE8F08164030020D8090108A41900203C
:104020002DE9F04182B002AD134C05F8013D064682
:104030000F469046294620466423012207F042FBA2
:1040400002A9204601F8028D6423012207F03AFB01
:1040500002A9204601F8037D6423012207F032FB08
:1040600002A9204601F8046D6423012207F02AFB0F
:1040700002B0BDE8F08100BFA41900202DE9F0478F
:10408000DFF878801B4F82B0064640208946924672
:104090000A9D1C46FFF78EFF98F8203007EB43027D
:1040A00057F82300118C002206F0F4F852464946D6
:1040B00030460223FFF7B4FF75B10F4E254414F8C4
:1040C000013B8DF80730012264230DF107013046D2
:1040D00007F0F8FAAC42F2D198F8203007EB43022F
:1040E00057F82300118C012206F0D4F8002002B00A
:1040F000BDE8F087D8090108A41900206403002056
:104100002DE9F043534CDFF85081236883B0074614
:104110000D464FF0200913F01F0314BFC3F1200612
:104120001E464DB31F2D20786178A27827D9002B29
:1041300041D13B46CDF80090FFF7A0FFA2682032A6
:10414000424588BFC2F31302C2F31003C2F34B11FE
:10415000A260C4E90031C2F3474213F01F03A5F186
:10416000200507F12007227384F8202014BFC3F133
:1041700020061E46002DD5D103B0BDE8F083A3B3C1
:10418000AE424CD23B460096FFF778FFA26832441D
:10419000424588BFC2F31302C2F31003C2F34B11AE
:1041A000A260C2F34742AD1B3744C4E90031227319
:1041B00084F82020AFE73B460096FFF75FFFA36837
:1041C0003344434588BFC3F31303A360A268C2F31B
:1041D0001003C2F34B11C2F347423744AD1BC4E98D
:1041E0000031227384F8202095E700953B46FFF7C5
:1041F00045FFA3681D44B5F5801F28BFC5F313050F
:10420000C5F31002C5F34B13A560C5F34745C4E9D8
:104210000023257384F8205003B0BDE8F083009597
:104220003B46FFF72BFFA3681D44B5F5801F28BF51
:10423000C5F31305A560A368C3F31001C3F34B12C4
:10424000C3F34743C4E90012237384F8203003B05A
:10425000BDE8F08364030020FFFF0F002DE9F04765
:10426000DFF878801B4F82B0064640208946924690
:104270000A9D1C46FFF79EFE98F8203007EB43028C
:1042800057F82300118C002206F004F852464946E4
:1042900030460323FFF7C4FE75B10F4E2544642357
:1042A00001220DF10701304607F0C0FA9DF80730F2
:1042B00004F8013BAC42F2D198F8203007EB4302FE
:1042C00057F82300118C012205F0E4FF002002B012
:1042D000BDE8F087D8090108A41900206403002074
:1042E0002DE9F043534CDFF85081236983B0074632
:1042F0000D464FF0200913F01F0314BFC3F1200631
:104300001E464DB31F2D207C617CA27C27D9002B3B
:1043100041D13B46CDF80090FFF7A0FFA2692032C3
:10432000424588BFC2F31302C2F31003C2F34B111C
:10433000A261C4E90431C2F3474213F01F03A5F19F
:10434000200507F12007227784F8202014BFC3F14D
:1043500020061E46002DD5D103B0BDE8F083A3B3DF
:10436000AE424CD23B460096FFF778FFA26932443A
:10437000424588BFC2F31302C2F31003C2F34B11CC
:10438000A261C2F34742AD1B3744C4E9043122772E
:1043900084F82020AFE73B460096FFF75FFFA36954
:1043A0003344434588BFC3F31303A361A269C2F337
:1043B0001003C2F34B11C2F347423744AD1BC4E9AB
:1043C0000431227784F8202095E700953B46FFF7DB
:1043D00045FFA3691D44B5F5801F28BFC5F313052C
:1043E000C5F31002C5F34B13A561C5F34745C4E9F6
:1043F0000423257784F8205003B0BDE8F0830095AE
:104400003B46FFF72BFFA3691D44B5F5801F28BF6E
:10441000C5F31305A561A369C3F31001C3F34B12E0
:10442000C3F34743C4E90412237784F8203003B070
:10443000BDE8F08364030020FFFF0F0010B5064CB9
:10444000406C21460A2209F013FB2246012100207C
:10445000BDE81040FFF788B8580700200368564AA7
:1044600093422BD0554A934200D0704770B505F067
:104470002FF83E2800F29A80DFE800F06A6A6A6A44
:1044800098989898986565656598989898986060E8
:1044900060609898985B5B5B5B989856565656514F
:1044A000515151984C4C4C987E7E7E797979747438
:1044B000746F6F8B8B8383909047220001F0CABE8C
:1044C0003F4940480F220A60037F3F4C012B70D0C8
:1044D0003E4E3F4B00252580356001261D60067746
:1044E0003C4D18682D683C4E2A543C482588096884
:1044F0001C681A6840F8245016F811100132012087
:10450000BDE870401A6003F05DBD2D492D480E22B4
:104510000A60D9E72A492B4806220A60D4E72849CD
:10452000284805220A60CFE72549264804220A6068
:10453000CAE72349234803220A60C5E720492148E6
:1045400002220A60C0E71E491E4801220A60BBE73A
:104550001B491C4800220A60B6E7194919480A227B
:104560000A60B1E71649174809220A60ACE7144906
:10457000144808220A60A7E71149124807220A6076
:10458000A2E710480E49036C0C22013B03640A6049
:104590009AE70B490B480B220A6095E7094808493E
:1045A000036C0D22013303640A608DE7044B18602D
:1045B00070BD074B94E700BF00220140002001407E
:1045C000A803002068150020C8090020D00300209F
:1045D000D4030020E0090020F40000207413002020
:1045E00030B5194B194A1A604FF040714FF48032C0
:1045F00085B04FF080554FF070645A60996000228A
:1046000001211846C3E90A451A619A611A62DA6003
:104610001A63D961596104F0B7FD80B904240122FD
:104620000723694608480293CDE9004205F02EF8B9
:1046300018B1DB21064801F0D3FF05B030BDD12110
:10464000034801F0CDFFE9E7C0070020002001404A
:10465000180B010830B51F4B1F4A1A604FF4803108
:104660004FF0407285B01D4D5960022401219A60BF
:10467000184600229D62DC611961996119631A6212
:10468000DA62DA605A6104F07FFDE8B9012306229C
:10469000694610480292CDE9003304F0F7FF70B983
:1046A000022369460B48CDE9003304F0EFFF20B147
:1046B00040F207110A4801F093FF05B030BDFE211A
:1046C000074801F08DFFEBE7F421054801F088FF72
:1046D000DCE700BF08080020002201400100000FB5
:1046E000180B010870B5394A0368934288B042D06C
:1046F000374A934201D008B070BD0026354B029670
:104700005A6C354C42F480625A645B6C059603F433
:1047100080630293062203230299039203A90546AC
:104720002E48049305F072FC2D4921604FF0806201
:104730004FF480634FF480504FF4804162602361F6
:104740004FF480724FF4803360612046A660E660CB
:104750006662C4E90612236205F024FA78BBAC63F2
:10476000002203211220A56305F050F8122005F065
:1047700083F808B070BD0024164B01945A6C17489A
:1047800042F480725A645B6C059403F48073019365
:104790001025032603A9019BCDE9035605F036FC3D
:1047A00022463146122005F031F8122005F064F857
:1047B00022462946094805F06DFD08B070BD4FF44A
:1047C000A371084801F00CFFC9E700BF00200140B9
:1047D0000022014000380240600700200000024033
:1047E00028640240180B010870B5084C054666683D
:1047F00006F0E6FC064BA3FB0030800C224605FBCE
:1048000000F553689B1BAB42FBD370BD001000E06A
:1048100083DE1B4330B583B00D4C8DF8070065680F
:1048200006F0CEFC0B4BA3FB0030800C0A21224685
:1048300001FB00F153685B1B8B42FBD30A2301226F
:104840000DF10701044806F03DFF03B030BD00BF85
:10485000001000E083DE1B435C1A002070B50D4C95
:10486000002206460D4620464FF4806105F012FDF9
:1048700046F05000FFF7CEFF0020FFF7CBFF2846A1
:10488000FFF7C8FF204601224FF48061BDE8704069
:1048900005F000BD0008024030B500224FF48061F1
:1048A00083B005461648174C05F0F4FC45F010009F
:1048B000FFF7B0FF0020FFF7ADFF656806F080FC52
:1048C000114BA3FB0030800C0A21224601FB00F1B2
:1048D00053685B1B8B42FBD302A9002301F8013D07
:1048E00001220A23094806F0A1FF05489DF8074068
:1048F00001224FF4806105F0CDFC204603B030BDAD
:1049000000080240001000E083DE1B435C1A002018
:1049100038B5094C0546002220464FF4806105F069
:10492000B9FC2846FFF776FF204601224FF480614C
:10493000BDE8384005F0AEBC0008024030B10128A7
:104940000CD0022806D003280BD07047012108465E
:10495000FFF784BF45210120FFF780BF2321FFF728
:104960007DBF67210120FFF779BF00BF38B5064C36
:10497000064D01E0013C05D00421284605F084FCE9
:104980000028F7D138BD00BF801A0600000C024095
:104990001C4B70B505460E4618705970FFF7E6FFC0
:1049A000194B1A489E5D1A4C00224FF4806105F0A5
:1049B00071FC5020FFF72EFF0320FFF72BFF06208E
:1049C000FFF728FF0820FFF725FF2846FFF722FF03
:1049D0003046FFF71FFF01224FF480610B4805F0BE
:1049E00059FC656806F0ECFB0A4BA3FB0030800C19
:1049F0003221224601FB00F153685B1B8B42FBD343
:104A000070BD00BF24070020080A0108000802400A
:104A1000001000E083DE1B4308B5FFF7A7FF00206E
:104A2000FFF73AFFC0F3071008BD00BFF0B5002242
:104A30004FF4806183B02648264C05F02BFC012002
:104A4000FFF7E8FE656806F0BBFB234BA3FB0030D5
:104A5000800C0A21224601FB00F153685B1B8B424C
:104A6000FBD302AC002604F8016D1C4D1C48214606
:104A70000A23012206F0DAFE9DF8077018488DF827
:104A8000076021460A2301222F7006F0CFFE9DF811
:104A900007306B7021460A23012211488DF8076008
:104AA00006F0C4FE6B782A789DF80740AC701B02B4
:104AB00043EA02431C43064801224FF4806105F09B
:104AC000E9FB230248BF44F07F44204603B0F0BD19
:104AD00000080240001000E083DE1B43B403002006
:104AE0005C1A002030B5104C83B00B468DF80400E2
:104AF0000D0A2046012220218DF806308DF8055040
:104B000005F0C8FB20460022202105F0C3FB6423EA
:104B100001A90322054806F0D5FD204601222021E7
:104B200005F0B8FB03B030BD000C02405C1A002059
:104B3000F0B51C4C1C4E83B0002503464FEA102CE8
:104B40000F0A20468DF802302A4634238DF80510CE
:104B500020218DF801C08DF803308DF804708DF898
:104B6000005005F097FB642369463046032206F0A7
:104B7000A9FD20460122202105F08CFB2A46204673
:104B8000202105F087FB03220DEB02016423304650
:104B900006F098FD20460122202105F07BFB03B0A2
:104BA000F0BD00BF000C02405C1A0020014B1860F1
:104BB000704700BFBC030020024BD3E90123026011
:104BC0000B607047BC030020184B194A30B45C7F5F
:104BD000012CC2E9010101F1010112D0154C01EBD8
:104BE000410104EB81014D68196900EB400004EBC1
:104BF00080004068986001FB00F1DD60D16030BC4E
:104C000070475C78012CE9D11C78012C094C05D047
:104C100001EB410104EB81014D68E5E701EB410146
:104C200004EB810115684D60DEE700BF68150020C8
:104C3000BC030020E8090020914212DA01F1004192
:104C4000831E013900EB410003EB420230F9023FC1
:104C5000002BB8BF03339B1003F50063824203802F
:104C6000F4D1704730B5114C83B0A378ADF806008D
:104C700023B10F4DEB68B3F5000F01D303B030BD86
:104C8000087803F1504303EB101001220DF10601E7
:104C900003F0C2FC2169EB68627F0B44012AEB60E0
:104CA000ECD12B6801332B60E8E700BF68150020CA
:104CB000BC030020F0B5444C85B0A378ADF80600E5
:104CC00023B3424FFB68B3F5000F16460D4613D2CF
:104CD0000A7812F001022AD1327812F001024CD186
:104CE0002069627F0344012AFB6002D13B680133E3
:104CF0003B60A3680133A360E3681BB1A268E3686B
:104D00009A420AD2FB68B3F5000F01D005B0F0BD9E
:104D10000023FB60A37005B0F0BD012003F0D6FABC
:104D20002B4A0023012123701170A370EEE708784D
:104D300003F1504303EB10100DF1060103F06CFC7E
:104D40006269244B94F8201002EB420203EB8203C9
:104D500001F0010213441A7AFB68012AC0D13078AD
:104D600003F1504303EB10100DF10E0103F04CFC66
:104D7000BDF90E307380FB68B2E7307803F1504321
:104D800003EB10100DF1060103F046FC6269114BB4
:104D900094F8201002EB420203EB820301F00102BF
:104DA00013441A7AFB68012A9AD1287803F15043F8
:104DB00003EB10100DF10E0103F026FCBDF90E20DF
:104DC000FB686A808CE700BF68150020BC030020E8
:104DD000E4030020E8090020F0B5494DAB7883B02A
:104DE0000BB903B0F0BD474EF3680746087803F1EE
:104DF00050430C4603EB101001220DF1060103F0A5
:104E000003FCBDF90630DA1912B2228163802278E0
:104E1000520715D507EE907AD4ED036A94ED036A34
:104E200007EE103AF8EEE77AB8EEC77A67EE867AC0
:104E3000E6EE877AFDEEE77A17EE903A1BB2238111
:104E4000238962681BB293422FDC2278F768C2F391
:104E5000C002002A2DD1AB680133AB602869AA6873
:104E6000EB6838449A42F06018D323781B072BD4A0
:104E700023784FF07E526FF382032370E26043F693
:104E8000FF7363606B7F022B08BF0023D6E901012B
:104E900008BFAB70FFF798FE03B0F0BDB0F5000F90
:104EA00004BF0023F36003B0F0BD23891BB263602D
:104EB000CBE7214607F1504011F8083B00EB1310F7
:104EC00003F0AAFBF768C6E76368B3F5804FCFDB52
:104ED000237843F0040323706068FBF7DBFA024693
:104EE0000B4605A1D1E90001FBF768FCFBF76EFD5D
:104EF000E060C4E7AFF300800000000080FFCF4017
:104F000068150020BC030020F0B5194CA37883B0CD
:104F10000BB903B0F0BD174FF86815460E460122D5
:104F200000F1504001A903F067FBBDF90420BDF971
:104F3000063072806B80A268F8680132A260236933
:104F4000A168E26803449142FB600AD3637F022BAD
:104F500008BF0023D7E9010108BFA370FFF734FEA3
:104F6000FB68B3F5000F04BF0023FB6003B0F0BD86
:104F700068150020BC03002003461020598801F565
:104F80007F513F3189B2FFF7ADBD00BF274AD378CB
:104F900010B43BB15369264C03EB430304EB83038A
:104FA0001B7A43B90378DC0719D40B78DB0729D4C3
:104FB0005DF8044B7047536903EB430304EB830430
:104FC000637A002BEED0438849885DF8044B43F6A2
:104FD000FF700144184489B280B2FFF7A9BD53693C
:104FE000134C03EB430304EB83031B7A002BDCD04D
:104FF00041885DF8044B01F57F513F3189B21020A3
:10500000FFF770BD53690A4A03EB430302EB8303C6
:105010005B7A002BCCD049885DF8044B01F57F51B9
:105020003F3189B22420FFF75DBD00BF6815002025
:10503000E8090020134BDA78012A13D002221A6102
:1050400093F820206FF3071283F8202093F8302084
:10505000D20700D4704793F830206FF3071283F81B
:105060003020704704221A6193F820206FF3071252
:1050700083F8202093F83020022161F3071283F88F
:10508000302070476815002008B50D4B002098703F
:1050900093F8202042F0010283F8202093F830207A
:1050A00060F3000283F83020FFF7C4FFFFF746FCEF
:1050B000F020FFF72DFCF120BDE80840FFF728BCE9
:1050C0006815002008B50E4B0021997093F8302028
:1050D00042F0010283F8302093F8202061F30002AF
:1050E00083F82020FFF7A6FF0120FFF727FCF02020
:1050F000FFF70EFCF120BDE80840FFF709BC00BF38
:1051000068150020034AD378B3FA83F35B09D370A0
:10511000FFF790BF68150020114B9A78012A0DD037
:10512000104A012110B4507C147C997000211C702D
:105130001174587051745DF8044B704700229A70D6
:105140001A78012A02D1074A197811745A78012A6B
:1051500002D1044A5978517400221A705A7070476B
:1051600068150020BC0300201B4B1C4910B500240F
:105170001C705C709C701C7793F820200C6064F3AA
:10518000820283F8202093F820204FF07E5143F6CE
:10519000FF7064F3C30283F820205862D9625C84F4
:1051A00093F8302064F3820283F8302093F83020A3
:1051B00064F3C30283F830205863D9635C8600F03F
:1051C000C3FA012003F082F8204603F07FF8044B75
:1051D00001221A7010BD00BF68150020BC0300201A
:1051E000E403002010B50E480E4B036082B004F0BB
:1051F00089FB78B90C240023102269460848CDE9C0
:10520000004304F08FFC18B15221074801F0E8F97F
:1052100002B010BD4921044801F0E2F9EAE700BFFD
:105220005C080020007400404C0B0108214B026810
:105230009A4200D0704770B586B0002603F5E2337D
:1052400000961A6C1C4C42F000521A641B6C0396B8
:1052500003F000530093202203230099019201A937
:1052600005461648029304F0D1FE154820604FF021
:10527000606140224FF480634FF400606160A2607F
:105280004FF400514FF48072236160614FF400339A
:105290002046E6606662C4E90612236204F082FCDE
:1052A00018B9EC60A56306B070BD7921054801F01E
:1052B00097F9F6E7007400407008002000000240F3
:1052C000A06002404C0B010810B582B01C4B0024BA
:1052D00000941A6B42F400121A631A6B02F4001263
:1052E0000092009A01941A6B42F480021A631B6BBD
:1052F00003F480030193022201211120019B04F099
:1053000085FA112004F0B8FA03220121392004F0B3
:105310007DFA392004F0B0FA224603213B2004F044
:1053200075FA3B2004F0A8FA022203213C2004F085
:105330006DFA3C2002B0BDE8104004F09DBA00BFF9
:105340000038024038B500EB4000184B184C194AA1
:1053500053F82000002319461370FEF7ADFD2046D8
:105360001021FEF7BDFFA56822686068124B00FBA4
:1053700002F01860226811484EF66021B1FBF5F189
:1053800002FB01F25A605C681968B4FBF1F201FBA0
:1053900012429A605A681968B2FBF1F2DA60196831
:1053A000BDE8384001EB8101FEF79ABFE809002013
:1053B00054130020D008002034140020441400208E
:1053C0002DE9F04F9E4CDFF8B8829E4F63699E4EE8
:1053D0009E4DDFF8B0A24FF0000988F8009085B02C
:1053E00087F8009060690293FFF7ACFF984B994AE9
:1053F0009948A2F80090C3F8009006F071FB0223D0
:105400006377DFF8849201232377227F012A4DD12D
:105410006169A3690133994248D2A27098F80030BB
:10542000002B00F08480B068236CD6F800C071684F
:105430008A4ACAF8005001FB0CF129603168C9F8AA
:10544000006003444EF6602BBBFBF3F301FB03F358
:105450006B6068682968B0FBF1F301FB1303AB6074
:105460006B682968B3FBF1F3EB606169A3697C4861
:105470001060994230D162697A497B48013208F064
:105480007FFA002340F21D52CDE900329621774B7E
:10549000754A0A20FEF7D6FB3B78002B40F0A2802D
:1054A000237F032B02D0237F002BF5D100256A48F0
:1054B000257706F021FB6420FDF742FF2846029B7A
:1054C0006361A5706570257002F000FF012005B0D2
:1054D000BDE8F04F02F0FABE654A03921046102173
:1054E000FEF7FEFE039A936810685168BBFBF3FB5E
:1054F000604B01FB00F1196012685F4802FB0BF280
:105500005A60D3F804C01968BCFBF1F201FB12C267
:105510009A605A681968B2FBF1F2DA60196801EB17
:105520008101FEF7DDFE002388F80030A3E7504834
:10553000504BD0F808E0216CD0F800B0D0F804C08F
:10554000C9F800000CFB0BFCC3F800C00068CAF8E7
:10555000003071444EF6602BBBFBF1F100FB01F112
:105560005960D3F804C01868BCFBF0F100FB11C10E
:105570003A489960DFF800C15968C0F800C003924A
:105580001868B1FBF0F1D96001F00CFD6169A36905
:1055900099423FF470AF10213046FEF7A1FEB0688B
:1055A00031687368BBFBF0FB03FB01F32B603368CE
:1055B0002B4803FB0BF36B60D5F804C02968BCFBD8
:1055C000F1F301FB13C3AB606B682968B3FBF1F324
:1055D000EB60296801EB8101FEF782FE039A88F8EF
:1055E000002048E700233B702378DBB2012B0DD16C
:1055F000606994F82010214A00EB400001F001019D
:1056000002EB800281F001010A44137263690133E5
:1056100063616269A36901339A427FF4F6AE23782D
:10562000012B4FF0000308D0029A626188F8003025
:105630003B706069FFF786FEE7E6237036E700BF40
:1056400068150020CA09002064130020CC0900203E
:10565000D0030020C8090020C81B0020DC0900205E
:10566000D4080020800B0108E8170020C0000020AB
:10567000541300203414002044140020E8090020B2
:10568000D0080020C4090020E40900202DE9F041E1
:10569000294BDFF8B0C0002488B006460F462046EC
:1056A000214615468CF800401C70FEF705FC0C21C5
:1056B00001A8FEF715FEDDE90112039B3960326097
:1056C0002B603268A2B3302B32D81C4D6C6033682B
:1056D0002C726C7263B31A4FA04685F8088085F867
:1056E0000980FEF7E3FB102128600DEB0100FEF7B7
:1056F000F7FDDDE9043101FB03F1384601EB8101DF
:10570000FEF7EEFD3368621CA3424EF6602014469D
:105710000AD9049B6A680699B0FBF1F1C3EB031345
:1057200001FB03232B6133689C4205F10C05D4D3A4
:1057300008B0BDE8F08100BFCA090020E8090020D8
:1057400044140020D008002008B5054B054800226D
:105750001A7706F0D1F96420BDE80840FDF7F0BDE6
:1057600068150020C81B0020704700BF2DE9F041DC
:10577000344D2B7F012B04D02B7F032B01D0BDE8B0
:10578000F081314B314E1B683288596891420BD9F8
:105790003288996892B281B12D4F396805290CD1B0
:1057A000D9689B68194409E02A49294A0023012045
:1057B000087033801360BDE8F081D968B2FBF1F363
:1057C00001FB13220ABB2879C0B2012828D0204F40
:1057D0003C683B68DFF8848004339C42D8F80020A2
:1057E0000AD2115D013419B1287FC0B2012812D04C
:1057F0003B680433A342F4D8115D19B1287FC0B2CD
:1058000001281CD03B6805333B60338801339BB2D1
:105810003380BDE8F08102F0D5FBD8F80020E7E73F
:105820000D4B0B4F1B6839681A68B1FBF2F302FB92
:105830001313002BCCD1212102F0C4FBC8E702F0E6
:10584000CBFBDFE768150020C4090020C809002051
:10585000D0030020CA090020E4090020DC09002050
:105860002DE9F047484B494C494FDFF844A1494ADC
:105870004949C3F800A088B00023236047483B8013
:1058800002936360464EC2F800D004AB0B60012265
:105890004FF47A63434D0560FA213271019310226F
:1058A0000423414803910092049306F019F9DFF8AC
:1058B0000491DFF80481337F012BFCD1002002F03A
:1058C000F7FC3B88B3F57A6F0ED2337F03F0FF020B
:1058D000002BF6D13448327706F00EF96420FDF73C
:1058E0002FFD08B0BDE8F08762680323FF21002088
:1058F0003377A95402F0EAFC0023236063606368F5
:10590000EB5CFF2B38D029480023626850F8221046
:10591000994203F1FA0224D3A9FB03C1D4F804C0CD
:1059200050F82CC094454FEA111103F17D0318D2B1
:105930002160D4F804C06168D4F804E0695C50F8D0
:105940002EE015F80CC09E45236818F81CC008EB23
:10595000410128BF013303EB83034978534403F823
:1059600001C0B2F57A6F1346CFD16368013363602B
:105970006368EB5CFF2BC7D10023012223603B80CF
:105980006360327797E700BFDC090020D003002076
:10599000C8090020C4090020E4090020E009002013
:1059A00068150020D4080020C81B002074130020B4
:1059B00044140020D34D6210F400002030B5124B87
:1059C000124A1A6089B001220421002480255A60FD
:1059D000D9601022184669449D619C60C3E9044463
:1059E000C3E90744C3E90944CDE90122CDE9032213
:1059F000CDE90522079205F009FC18B15A210448A7
:105A000000F0EEFD09B030BD34150020400100A0CB
:105A1000940B01082DE9F0412D4B1C6886B014B1A0
:105A200006B0BDE8F0814FF001082A4A0094C3F89F
:105A30000080936B284843EA08039363936B0394B5
:105A400003EA0803022703260C25009301A94FF659
:105A50003F03009ACDE90137CDE9046504F0D6FA99
:105A600001A91E480394CDE90187CDE9046504F03E
:105A7000CDFA01A948F21313194801930297CDE911
:105A80000465039404F0C2FA01A94FF68273154825
:105A900001930297CDE90465039404F0B7FA01A9D4
:105AA0004CF20363104801930297CDE90465039417
:105AB00004F0ACFA602301A90C480297CDE9046513
:105AC0000394019304F0A2FA06B0BDE8F08100BF90
:105AD000D8030020003802400014024000080240B1
