:020000040800F2
:100000000000032059190008A9190008A9190008BF
:10001000A9190008A9190008A91900080000000082
:10002000000000000000000000000000655C000807
:10003000A919000800000000695C00086D5C000858
:10004000A91900087D5C0008A9190008A919000871
:10005000A9190008A9190008995D0008A919000844
:10006000815C0008A9190008895C0008A91900082A
:10007000A9190008A9190008A9190008A919000858
:10008000A9190008915C00089D5C0008A9190008E6
:10009000A9190008A9190008A9190008B95C0008E5
:1000A000D55C0008A9190008A9190008A9190008B9
:1000B000E95C0008A9190008FD5C0008A9190008FE
:1000C000A9190008A9190008A9190008A919000808
:1000D000A9190008A9190008A9190008A9190008F8
:1000E000115D0008A9190008A9190008A91900083C
:1000F000315D0008A9190008A9190008A91900080C
:10010000A9190008A9190008A9190008A9190008C7
:10011000A9190008A9190008A9190008A9190008B7
:10012000A9190008695D0008A9190008755D000893
:10013000815D0008A9190008A9190008A91900087B
:10014000A9190008A9190008A9190008A919000887
:10015000A9190008A9190008A9190008A919000877
:10016000A9190008A9190008A9190008A919000867
:10017000A91900088D5D0008A919000800000000F9
:10018000A9190008A9190008A9190008A919000847
:10019000A9190008A9190008A9190008A919000837
:0C01A000A9190008A9190008A9190008F5
:1001B00010B5054C237833B9044B13B10448AFF3A1
:1001C00000800123237010BD1402002000000000F5
:1001D00034BD000808B5034B1BB103490348AFF316
:1001E000008008BD000000001802002034BD000897
:1001F00081F0004102E000BF83F0004330B54FEAD8
:1002000041044FEA430594EA050F08BF90EA020F44
:100210001FBF54EA000C55EA020C7FEA645C7FEAD7
:10022000655C00F0E2804FEA5454D4EB5555B8BFFA
:100230006D420CDD2C4480EA020281EA030382EA6B
:10024000000083EA010180EA020281EA0303362DFD
:1002500088BF30BD11F0004F4FEA01314FF4801CD0
:100260004CEA113102D0404261EB410113F0004FE2
:100270004FEA03334CEA133302D0524263EB430399
:1002800094EA050F00F0A780A4F10104D5F1200E37
:100290000DDB02FA0EFC22FA05F2801841F1000192
:1002A00003FA0EF2801843FA05F359410EE0A5F166
:1002B00020050EF1200E012A03FA0EFC28BF4CF097
:1002C000020C43FA05F3C01851EBE37101F000454D
:1002D00007D54FF0000EDCF1000C7EEB00006EEB5A
:1002E0000101B1F5801F1BD3B1F5001F0CD34908E4
:1002F0005FEA30004FEA3C0C04F101044FEA44523B
:1003000012F5800F80F09A80BCF1004F08BF5FEAC1
:10031000500C50F1000041EB045141EA050130BDA1
:100320005FEA4C0C404141EB010111F4801FA4F144
:100330000104E9D191F0000F04BF01460020B1FA99
:1003400081F308BF2033A3F10B03B3F120020CDAD1
:100350000C3208DD02F1140CC2F10C0201FA0CF0AF
:1003600021FA02F10CE002F11402D8BFC2F1200C14
:1003700001FA02F120FA0CFCDCBF41EA0C019040CA
:10038000E41AA2BF01EB0451294330BD6FEA040413
:100390001F3C1CDA0C340EDC04F11404C4F12002FE
:1003A00020FA04F001FA02F340EA030021FA04F310
:1003B00045EA030130BDC4F10C04C4F1200220FA67
:1003C00002F001FA04F340EA0300294630BD21FAA5
:1003D00004F0294630BD94F0000F83F4801306BF6B
:1003E00081F480110134013D4EE77FEA645C18BF5F
:1003F0007FEA655C29D094EA050F08BF90EA020FF6
:1004000005D054EA000C04BF1946104630BD91EAED
:10041000030F1EBF0021002030BD5FEA545C05D1F0
:100420004000494128BF41F0004130BD14F580042F
:100430003CBF01F5801130BD01F0004545F0FE41A3
:1004400041F470014FF0000030BD7FEA645C1ABFD8
:10045000194610467FEA655C1CBF0B46024650EA0F
:10046000013406BF52EA033591EA030F41F400213B
:1004700030BD00BF90F0000F04BF0021704730B5C1
:100480004FF4806404F132044FF000054FF0000196
:1004900050E700BF90F0000F04BF0021704730B557
:1004A0004FF4806404F1320410F0004548BF40422C
:1004B0004FF000013EE700BF42004FEAE2014FEA81
:1004C00031014FEA02701FBF12F07F4393F07F4F5C
:1004D00081F06051704732F07F4208BF704793F05F
:1004E0007F4F04BF41F40021704730B54FF4607472
:1004F00001F0004521F000411CE700BF50EA010275
:1005000008BF704730B54FF000050AE050EA01021D
:1005100008BF704730B511F0004502D5404261EB8D
:1005200041014FF4806404F132045FEA915C3FF4CE
:10053000D8AE4FF003025FEADC0C18BF03325FEA6B
:10054000DC0C18BF033202EBDC02C2F1200300FA1C
:1005500003FC20FA02F001FA03FE40EA0E0021FA41
:1005600002F11444BDE600BF70B54FF0FF0C4CF42F
:10057000E06C1CEA11541DBF1CEA135594EA0C0FE1
:1005800095EA0C0F00F0DEF82C4481EA030621EA1C
:100590004C5123EA4C5350EA013518BF52EA033557
:1005A00041F4801143F4801338D0A0FB02CE4FF009
:1005B0000005E1FB02E506F00042E0FB03E54FF039
:1005C0000006E1FB03569CF0000F18BF4EF0010E31
:1005D000A4F1FF04B6F5007F64F5407404D25FEA2D
:1005E0004E0E6D4146EB060642EAC62141EA5551E0
:1005F0004FEAC52040EA5E504FEACE2EB4F1FD0C22
:1006000088BFBCF5E06F1ED8BEF1004F08BF5FEA9F
:10061000500E50F1000041EB045170BD06F0004651
:1006200046EA010140EA020081EA0301B4EB5C04FE
:10063000C2BFD4EB0C0541EA045170BD41F48011F6
:100640004FF0000E013C00F3AB8014F1360FDEBF1B
:10065000002001F0004170BDC4F10004203C35DAF7
:100660000C341BDC04F11404C4F1200500FA05F37A
:1006700020FA04F001FA05F240EA020001F000421B
:1006800021F0004110EBD37021FA04F642EB060191
:100690005EEA430E08BF20EAD37070BDC4F10C04BB
:1006A000C4F1200500FA04F320FA05F001FA04F27F
:1006B00040EA020001F0004110EBD37041F100016B
:1006C0005EEA430E08BF20EAD37070BDC4F1200576
:1006D00000FA05F24EEA020E20FA04F301FA05F2DE
:1006E00043EA020321FA04F001F0004121FA04F286
:1006F00020EA020000EBD3705EEA430E08BF20EA56
:10070000D37070BD94F0000F0FD101F0004640008F
:1007100041EB010111F4801F08BF013CF7D041EA11
:10072000060195F0000F18BF704703F00046520015
:1007300043EB030313F4801F08BF013DF7D043EAE6
:100740000603704794EA0C0F0CEA135518BF95EA9C
:100750000C0F0CD050EA410618BF52EA4306D1D123
:1007600081EA030101F000414FF0000070BD50EA42
:10077000410606BF1046194652EA430619D094EACC
:100780000C0F02D150EA013613D195EA0C0F05D1B6
:1007900052EA03361CBF104619460AD181EA03010A
:1007A00001F0004141F0FE4141F470014FF00000C2
:1007B00070BD41F0FE4141F4780170BD70B54FF05D
:1007C000FF0C4CF4E06C1CEA11541DBF1CEA1355DD
:1007D00094EA0C0F95EA0C0F00F0A7F8A4EB0504BF
:1007E00081EA030E52EA03354FEA013100F08880B6
:1007F0004FEA03334FF0805545EA131343EA12637F
:100800004FEA022245EA111545EA10654FEA002633
:100810000EF000419D4208BF964244F1FD0404F5EC
:10082000407402D25B084FEA3202B61A65EB030548
:100830005B084FEA32024FF480104FF4002CB6EB05
:10084000020E75EB030E22BFB61A754640EA0C0085
:100850005B084FEA3202B6EB020E75EB030E22BFC5
:10086000B61A754640EA5C005B084FEA3202B6EB06
:10087000020E75EB030E22BFB61A754640EA9C00C5
:100880005B084FEA3202B6EB020E75EB030E22BF95
:10089000B61A754640EADC0055EA060E18D04FEA53
:1008A000051545EA16754FEA06164FEAC30343EAF3
:1008B00052734FEAC2025FEA1C1CC0D111F4801FC0
:1008C0000BD141EA00014FF000004FF0004CB6E7B9
:1008D00011F4801F04BF01430020B4F1FD0C88BF58
:1008E000BCF5E06F3FF6AFAEB5EB030C04BFB6EB63
:1008F000020C5FEA500C50F1000041EB045170BD56
:100900000EF0004E4EEA113114EB5C04C2BFD4EB82
:100910000C0541EA045170BD41F480114FF0000E06
:10092000013C90E645EA060E8DE60CEA135594EA82
:100930000C0F08BF95EA0C0F3FF43BAF94EA0C0F85
:100940000AD150EA01347FF434AF95EA0C0F7FF4FA
:1009500025AF104619462CE795EA0C0F06D152EA4E
:1009600003353FF4FDAE1046194622E750EA410632
:1009700018BF52EA43067FF4C5AE50EA41047FF443
:100980000DAF52EA43057FF4EBAE12E74FEA4102A6
:10099000B2F1E04324BFB3F5001CDCF1FE5C0DD9DD
:1009A00001F0004C4FEAC0024CEA5070B2F1004F27
:1009B00040EB830008BF20F00100704711F0804F2A
:1009C00021D113F13872BCBF01F00040704741F4EF
:1009D00080114FEA5252C2F11802C2F1200C10FAF3
:1009E0000CF320FA02F018BF40F001004FEAC123D7
:1009F0004FEAD32303FA0CFC40EA0C0023FA02F37B
:100A00004FEA4303CCE77FEA625307D150EA013350
:100A10001EBF4FF0FE4040F44000704701F0004020
:100A200040F0FE4040F40000704700BF53B94AB99F
:100A3000002908BF00281CBF4FF0FF314FF0FF30E6
:100A400000F072B9ADF1080C6DE904CE00F006F8C3
:100A5000DDF804E0DDE9022304B070472DE9F0473A
:100A6000089E04468846002B4BD18A42154667D91A
:100A7000B2FA82F24AB1C2F1200701FA02F320FA77
:100A800007F7954047EA030894404FEA154E230CB8
:100A9000B8FBFEF71FFA85FC0EFB178843EA0843F4
:100AA00007FB0CF1994209D9EB1807F1FF3080F0F0
:100AB0001B81994240F21881023F2B445B1AA4B279
:100AC000B3FBFEF00EFB103344EA034400FB0CFCC6
:100AD000A44509D92C1900F1FF3380F00781A44502
:100AE00040F2048102382C4440EA0740A4EB0C0495
:100AF00000271EB1D4400023C6E900433946BDE8B3
:100B0000F0878B4209D9002E00F0EB800027C6E960
:100B1000000138463946BDE8F087B3FA83F7002F65
:100B200047D18B4202D3824200F2FA80841A61EBF1
:100B3000030301209846002EE0D0C6E90048DDE717
:100B400002B9FFDEB2FA82F2002A40F08F80491B20
:100B50004FEA154E1FFA85F80127B1FBFEFC230C66
:100B60000EFB1C1143EA014308FB0CF1994207D923
:100B7000EB180CF1FF3002D2994200F2CD8084468E
:100B8000591AA3B2B1FBFEF00EFB101443EA044461
:100B900008FB00F8A04507D92C1900F1FF3302D259
:100BA000A04500F2B6801846A4EB080440EA0C40C9
:100BB0009FE7C7F1200CBB4022FA0CFE4EEA030E61
:100BC00001FA07F420FA0CF521FA0CF34FEA1E485B
:100BD0002543B3FBF8F92C0C08FB19331FFA8EFAE6
:100BE00044EA034309FB0AF49C4202FA07F200FAC2
:100BF00007F10BD91EEB030309F1FF3080F087806A
:100C00009C4240F28480A9F1020973441B1BADB2DF
:100C1000B3FBF8F008FB103345EA034400FB0AFA83
:100C2000A24508D91EEB040400F1FF336BD2A245A4
:100C300069D90238744440EA0940A0FB0289A4EB58
:100C40000A044C45C2464B4654D351D0002E69D0BD
:100C5000B1EB0A0564EB030404FA0CFCFD40FC4014
:100C60004CEA0505C6E90054002747E7C2F1200316
:100C700020FA03F7954001FA02F021FA03F34FEA54
:100C8000154E3843010CB3FBFEF71FFA85F80EFB37
:100C9000173341EA034107FB08F38B4204FA02F4DD
:100CA00007D9691807F1FF3C2FD28B422DD9023F9B
:100CB0002944CB1A81B2B3FBFEF00EFB103341EA9C
:100CC000034100FB08F38B4207D9691800F1FF3C90
:100CD00017D28B4215D902382944C91A40EA07476E
:100CE0003BE73746304609E70746E7E61846FBE6A6
:100CF0004145ABD2B8EB020A69EB0E02013813464C
:100D0000A4E76046E9E7184695E76746D1E78146DC
:100D10007CE702382C4447E7ACF1020C2B442FE768
:100D2000384608E73746E9E6704700BF034613F840
:100D3000012B002AFBD1181A01387047000000006F
:100D400001F0FF01102A2BDB10F0070F08D010F87C
:100D5000013B013A8B422DD010F0070F42B3F6D180
:100D6000F0B441EA012141EA014122F007047FF099
:100D700000070023F0E80256083C85EA010586EAF0
:100D8000010685FA47F5A3FA87F586FA47F6A5FA2C
:100D900087F68EB9EED1F0BC01F0FF0102F0070238
:100DA00032B110F8013B013A83EA010313B1F8D1E3
:100DB0000020704701387047002D06BF35460338C4
:100DC000073815F0010F07D1013015F4807F02BFFD
:100DD000013015F4C03F0130F0BC0138704700BF4E
:100DE00001220421014806F0A7BB00BF0010024009
:100DF0002DE9F04184B00E466425174604210022F7
:100E00000446284806F098FB4FF0030C0DF10F0242
:100E100001230DF10D01009523488DF80DC007F059
:100E200005FF04A9330C01F8043D0DF10F02012365
:100E300000951D4807F0FAFE04A9330A01F8053DA4
:100E40000DF10F0201230095174807F0EFFE04A9EA
:100E500000950DF10F0201F8066D0123124807F00D
:100E6000E5FEBFB17E1EB6B20136DFF83C802644F7
:100E7000FF27012300950DF10F020DF10E014046F1
:100E80008DF80E7007F0D2FE9DF80F3004F8013B8C
:100E9000B442EED101220421024806F04DFB04B019
:100EA000BDE8F08100100240DC1B002030B50D4C85
:100EB00085B020460022042106F03EFB6423009307
:100EC0000DF10F0201230DF10E01062506488DF8E4
:100ED0000E5007F0ABFE20460122042106F02CFB49
:100EE00005B030BD00100240DC1B002070B50022B0
:100EF00084B004211348144E06F01EFB6424052020
:100F00008DF80D000DF10F02009401230DF10D017C
:100F1000304607F08BFEFF25012300940DF10F02F0
:100F20000DF10E0130468DF80E5007F07FFE9DF852
:100F30000F30DB07F0D401220421024806F0FCFA4E
:100F400004B070BD00100240DC1B0020F0B5214F42
:100F5000214C85B006466425FFF7A8FF38460022DD
:100F6000042106F0E9FA4FF0D80C0DF10F020DF153
:100F70000E012046009501238DF80EC007F056FEA5
:100F800004A9330C01F8033D0DF10F020095204632
:100F9000012307F04BFE04A9330A01F8043D0DF1CB
:100FA0000F0200952046012307F040FE04A901230B
:100FB00000950DF10F0201F8056D204607F036FE91
:100FC00038460122042106F0B7FAFFF78FFF05B07B
:100FD000F0BD00BF00100240DC1B0020F0B5214F27
:100FE000214C85B006466425FFF760FF3846002295
:100FF000042106F0A1FA4FF0200C0DF10F020DF1C3
:101000000E012046009501238DF80EC007F00EFE5C
:1010100004A9330C01F8033D0DF10F0200952046A1
:10102000012307F003FE04A9330A01F8043D0DF182
:101030000F0200952046012307F0F8FD04A90123C3
:1010400000950DF10F0201F8056D204607F0EEFD49
:1010500038460122042106F06FFAFFF747FF05B07A
:10106000F0BD00BF00100240DC1B00204318B3F1AC
:10107000007F09D840EA0103C3F30B0370B50546AE
:101080000C461BB1012070BD0120704783B26BB9C3
:101090008BB299420AD00E46A6F580362846B4B2E5
:1010A000FFF754FFB44205F58035F5D1C4F30B03C7
:1010B0009C420AD0A4F580542846FFF78FFFC4F362
:1010C0000B03A34205F58055F4D1002070BD00BF8D
:1010D0002DE9F04184B00E46642517460446FFF71B
:1010E000E5FE00220421284806F026FA4FF0020C03
:1010F0000DF10F0201230DF10D01009523488DF82C
:101100000DC007F093FD04A9330C01F8043D0DF167
:101110000F02012300951D4807F088FD04A9330A3A
:1011200001F8053D0DF10F0201230095174807F066
:101130007DFD04A900950DF10F0201F8066D012354
:10114000124807F073FDA7B17E1EB6B20136DFF874
:101150003C80264414F8017B009501230DF10F0219
:101160000DF10E0140468DF80E7007F05FFDB442A0
:10117000F0D101220421044806F0DEF9FFF7B6FEA3
:1011800004B0BDE8F08100BF00100240DC1B00206D
:101190002DE9F8431646130A11F0FF020D460746E3
:1011A0001ED17BB3013B5FFA83F83C4608F1010096
:1011B00007EB0027A1EB04094FF4807204EB09014F
:1011C00020461444FFF784FFBC42F5D105F5807139
:1011D00001EB0821F2B22046BDE8F843FFF778BFE3
:1011E0005442E4B2ABB9F3B29C420BD21A44D6B229
:1011F0002246FFF76DFF324661193819BDE8F84302
:10120000FFF766BF324629463846BDE8F843FFF788
:101210005FBFA2B2B61AB6B24FEA16295FFA89F8D2
:1012200008F1FF38FFF754FFF6B2254438195FFA8A
:1012300088F8B9F1000F1ED008F10107044600EB51
:101240000727A5EB00094FF4807204EB0901204643
:101250001444FFF73DFFBC42F5D105F5807505EB61
:1012600008250EB9BDE8F883324629462046BDE878
:10127000F843FFF72DBF0446F3E700BFF0B5D1E90F
:10128000026333401BD091F800C0BCF1000F1BD0AB
:101290000D6900F1140700234FF0010E0EFA03F45C
:1012A000344203F10103284606D095F90040002C92
:1012B00002DB2C89944204D063453D44EED10020EA
:1012C000F0BD4B686B60F0BD6046F0BD2DE9F84F96
:1012D000C66DD6E902138B4302D00020BDE8F88F1B
:1012E0003578002D44D03769D0F81CC0D6F804A05A
:1012F0004FF000083C460CF1140942464FF0FF3E07
:101300006368AAEB0303434506D994F900B0BBF127
:10131000000FA4BF984696460132AA424C44EFD132
:10132000BEF1FF3FD9D04FF0010808FA0EF818EAD5
:1013300001051DD009FB0EF907EB090317F8095049
:101340002A0618D415F0010517D01D8901694368D4
:1013500009F114020CFB05103A4461469847B16844
:1013600021EA08010023B16007F80930BDE8F88FD1
:101370002846BDE8F88F0020F2E72846F0E700BFD6
:101380002DE9F04F04461E46E56D0069E36981B022
:10139000321A8946B2FBF3F2184692B22946DDE9C9
:1013A0000A78FFF76BFF6A68013282466A6060B9AB
:1013B00009F00309B9F1010F25D1236842463946E6
:1013C000304601B0BDE8F04F1847606E2369E1690F
:1013D0002D6901306066F61A9AF80100B6FBF1F348
:1013E00001FB13631433143101FB0031CAF80420EC
:1013F00040463A46294409F057FB4FF00009484659
:1014000001B0BDE8F08FA36E0133A3662046FFF75D
:101410005DFFE26D9368591C814608D123684246FE
:10142000394630469847002818BF8146E7E71078CC
:101430000028F3D013F0010CE16945D04FF0010C06
:101440000AF1010A82450CFA0AFBE7D013EA0B0FF6
:10145000F6D101F1140000FB0AFCD2F810E043EAD7
:101460000B030EEB0C0A93605368CAF80430022396
:101470000EF80C3023699AF80120D5F810C0F31A41
:1014800000FB02F2B3FBF1FE143201FB1E33F01A33
:1014900062442368AAF808E098472369E2699AF849
:1014A00001402969F61AB6FBF2F302FB1363143309
:1014B000143202FB0433002818BF81463A464046E6
:1014C000194409F0F1FA9AE701F114004FF0010B09
:1014D000C3E700BFD0F85CC0BCF1000F47D0F0B547
:1014E000C369056E1433143DB5FBF3F5002D87B0C9
:1014F0003BDD0022134601325B00954243F00103BD
:10150000F9D10024CDE901440CF1140E4FF0FF3263
:101510008DF804500493CDF814E0039201AE074611
:101520000FCECCF810E0CCF80000CCF80410CCF8CA
:101530000820CCF80C30FE6DFB693278306914332A
:1015400002FB03F209F0BBFAD6E9023215F0FF05FF
:1015500023EA0203B36008D0F969326914312346E3
:10156000537001339D420A44FAD107B0F0BD704771
:101570002DE9F84F0D4604469246002180221F4671
:10158000D0F878B0DDF83080DDE90A6909F097FA23
:1015900029686A68A868EB68E36021606260A060FF
:1015A000EB6929696A69A869E361E369A061534449
:1015B00021616261C4E90D3AA269E368C4F878B0B8
:1015C000B3FBF2F3384623623246002109F077FA82
:1015D00017F0030303D0C3F104031F44F61A184B9A
:1015E000E763A3FB0636760919F00303266404D0EB
:1015F000C3F104039944A8EB0308E369C4F85C90C1
:1016000018F0030F4FEA431318BF28F003084345AF
:1016100028BF434623662046FFF75CFF094BE3677C
:10162000204600F025F9002807DB01230D9A84F8F5
:101630007430E2660020BDE8F88F6064BDE8F88F82
:10164000ABAAAAAA150309204FF6FF7291420AD04D
:1016500021B1C36C0133C36406487047036D013385
:10166000036504487047002BF6D1836C0133836413
:1016700000487047AAD8FFFF2DE9F04F05461746EE
:10168000D5F81CC08069B0FBFCF25400B4FBFCF43C
:10169000002C8BB008BF01246E6BD5F820E00896B3
:1016A000141BBDF850600596BC428B46049304FBA6
:1016B0000EF94FEA5C0A0DDC4B1C1FFA83FBDE457A
:1016C00000F2A680049B13F0040740F09D8007976A
:1016D000BB4602E000FB01F30793B9F1000F40F3B2
:1016E0009380CAEBCA735B000993049B03F0010368
:1016F0000293634697FBFAF1089C069101FB0AF8F6
:10170000C8EBC87104EB4101039152000699B2FB8A
:10171000F3F2002A08BF01228A4240F38C802A6932
:101720000798696B0191024406980093142103FB0A
:10173000002300222846FFF723FE002859D1D5E9CF
:1017400006033C464E46B0FBF3F2159F07E00399B3
:1017500031F814C005998C4514D0013E0134A4EB36
:10176000080CE2454FEA4201A646B1FBF3F1B1464F
:1017700053DD002908BF0121511AA1424DDD029914
:101780000029E4D1189B0BB1A3F800B0199B03B159
:101790001C60002F4BD0049B9A0756BF039B0599F2
:1017A00033F81410179B0193169B00935A46234657
:1017B0002846B84700F51D531733012B25D82A4A70
:1017C000EB69904203D0A869B0FBF3F2C5E72A6940
:1017D0000798696B0191024406980093142100FB5D
:1017E000032300222846FFF7CBFD00280DDBEB6921
:1017F000E9E70BF101032A6A9BB2934202D3049BEF
:101800005B0701D4002800DB18480BB0BDE8F08F5F
:101810000BFB00F3079300275FE70699099C013152
:101820000691039921447746D04403916DE71598BA
:101830000BB0BDE8F08F0BF1010B2A6A1FFA8BFB8E
:101840005A4509D9079A02440792B9F1000FDBDD26
:10185000B0FBF3F200274DE7049A12F0040BD3D14A
:10186000CDF81CB0F1E700BFA9D8FFFFA8D8FFFF53
:101870002DE9F04F036A89B04FF000080646ADF835
:101880001A80002B5ED044464FF6FF790DF11C0AFA
:101890004FF0020B12E0BDF81C30934205D0994581
:1018A00028BF9946984538BF9846BDF81A40326A15
:1018B0000134A4B29442ADF81A401CD2D6E906C352
:1018C0003769BCFBF3F5023F6D000022152130465D
:1018D00004FB0C74B5FBF3F50DB105FB03F3CDE987
:1018E00000BA2344FFF74CFD00284FF6FF72D2DA0E
:1018F00009B0BDE8F08FA8EB0903B3F5004FB4BF02
:1019000008F1010809F101081FFA88F800230DF118
:101910001A050F4CA6F856801A46CDF814A01946A1
:10192000C6E9123333653046CDE90233009304959E
:101930000194FFF7A1FE074B984208BF002009B0B1
:10194000BDE8F08F4FF001080DF11C0ADEE700BF83
:1019500049160008A8D8FFFFDFF834D0002103E0C3
:101960000C4B5B58435004310B480C4B42189A42C5
:10197000F6D30B4A02E0002342F8043B094B9A429B
:10198000F9D304F0D9FD09F05BF802F0DDFE7047F1
:1019900000000320D8EB0008000000201402002003
:1019A00014020020A4270020FEE70000704700BFBB
:1019B00070B5174EB3690133B361F36913B1F369BD
:1019C000013BF361337803B30024A50073195B680E
:1019D000B3B11A789207184612D59A68511E0AB107
:1019E000996069B93544D3E9032190476A6813784F
:1019F0005168916013F0010102D161F3410313704A
:101A000001343378E4B2A342DFD8FFF7CFFF70BDD3
:101A100030020020EFF305833BB1074A20B1136881
:101A2000DB03FCD50138F9E77047044A91699369F3
:101A30005B1A8342FBD3704710E000E030020020C5
:101A4000014B9869704700BF3002002038B5054649
:101A5000164C1748C5F3C002802105F06DFDC5F393
:101A600080022046402105F067FDC5F34002204674
:101A7000802105F061FD05F0010220464FF48071E0
:101A800005F05AFD204601224FF4007105F054FD87
:101A9000142001F0A1F9204600224FF4007105F056
:101AA0004BFD1420BDE8384001F096B90008024013
:101AB0000018024010B5002204464FF48071064819
:101AC00005F03AFD2009FFF7C1FF04F00F00BDE863
:101AD0001040FFF7BBBF00BF0000024010B40C4B2A
:101AE0000C4ADC7883B08C420192024609D800216E
:101AF00040F080005A71997103B05DF8044BFFF714
:101B0000D9BF02A8084410F8040C1044C0B2EFE793
:101B1000500200200040145410B5012204464FF436
:101B20008071064805F008FD2009FFF78FFF04F0DB
:101B30000F00BDE81040FFF789BF00BF0000024062
:101B400070B500220D4606464FF480713248334C82
:101B500005F0F2FC00224FF40071314805F0ECFC76
:101B600000224FF480712E4805F0E6FC002280210F
:101B70002B4805F0E1FC00224021294805F0DCFC5F
:101B800000228021274805F0D7FC4AF6C87001F0F2
:101B900023F9012D4FF000036371A3714FF003008F
:101BA00088BF082363702671E570FFF74FFF41F28D
:101BB000941001F011F90320FFF748FF41F294104F
:101BC00001F00AF90320FFF741FF41F2941001F000
:101BD00003F90220FFF73AFF642001F0FDF8607876
:101BE00040F02000FFF766FF04230C202370FFF76E
:101BF00061FF0120FFF75EFF40F6B83001F0ECF81E
:101C000002230620A370FFF755FF41F29410BDE8B0
:101C1000704001F0E1B800BF000002405002002017
:101C2000000802400018024008B50120FFF742FFFB
:101C300040F6B830BDE8084001F0CEB870B51546A2
:101C4000FFF74CFF2B786BB3194C00260DE02B7877
:101C50000A2B18461AD00D2B25D0FFF75DFF6379AC
:101C60000133637115F8013FE3B1627923799A4238
:101C7000EDD3A37966710133DBB219460020A3715D
:101C8000FFF72CFF2B780A2B1846E4D1A379607953
:101C90000133DBB21946A371FFF720FF15F8013FAE
:101CA000002BE2D170BDA1790020FFF717FFD9E723
:101CB0005002002030B583B002AC0D4D04F8010D88
:101CC00000224FF400510B4805F036FC2846002254
:101CD000042105F031FC214664230122064806F068
:101CE00043FE28460122042105F026FC03B030BD46
:101CF00000080240000C0240DC1B002030B583B01D
:101D000002AC0D4D04F8010D01224FF400510B48B7
:101D100005F012FC28460022042105F00DFC2146A6
:101D200064230122064806F01FFE284601220421F2
:101D300005F002FC03B030BD00080240000C024078
:101D4000DC1B002010B500224FF48051994805F0AB
:101D5000F3FB44F62063013BFDD101224FF4805197
:101D6000944805F0E9FB44F62063013BFDD10120D6
:101D7000FFF7A0FF4CF25034013CFDD1CB20FFF720
:101D800099FF3920FFF7BAFF2C20FFF7B7FF204655
:101D9000FFF7B4FF3420FFF7B1FF0220FFF7AEFFDB
:101DA000CF20FFF787FF2046FFF7A8FFC120FFF7EE
:101DB000A5FF3020FFF7A2FFE820FFF77BFF85207B
:101DC000FFF79CFF2046FFF799FF7820FFF796FF6B
:101DD000EA20FFF76FFF2046FFF790FF2046FFF74E
:101DE0008DFFED20FFF766FF6420FFF787FF0320DC
:101DF000FFF784FF1220FFF781FF8120FFF77EFFAE
:101E0000F720FFF757FF2020FFF778FFC020FFF7EC
:101E100051FF2320FFF772FFC120FFF74BFF102077
:101E2000FFF76CFFC520FFF745FF3E20FFF766FF79
:101E30002820FFF763FFC720FFF73CFF8620FFF74E
:101E40005DFF3620FFF736FF4820FFF757FF3A20A7
:101E5000FFF730FF5520FFF751FFB120FFF72AFFB2
:101E60002046FFF74BFF1820FFF748FFB620FFF78B
:101E700021FF0820FFF742FF8220FFF73FFF2720C6
:101E8000FFF73CFFF220FFF715FF2046FFF736FF74
:101E90002A20FFF70FFF2046FFF730FF2046FFF70D
:101EA0002DFF2046FFF72AFFEF20FFF727FF2B200B
:101EB000FFF700FF2046FFF721FF2046FFF71EFF38
:101EC0000120FFF71BFF3F20FFF718FF2620FFF739
:101ED000F1FE0120FFF712FFE020FFF7EBFE0F20DD
:101EE000FFF70CFF3120FFF709FF2B20FFF706FF5C
:101EF0000C20FFF703FF0E20FFF700FF0820FFF77D
:101F0000FDFE4E20FFF7FAFEF120FFF7F7FE372027
:101F1000FFF7F4FE0720FFF7F1FE1020FFF7EEFEBB
:101F20000320FFF7EBFE0E20FFF7E8FE0920FFF786
:101F3000E5FE2046FFF7E2FEE120FFF7BBFE20466C
:101F4000FFF7DCFE0E20FFF7D9FE1420FFF7D6FEC8
:101F50000320FFF7D3FE1120FFF7D0FE0720FFF785
:101F6000CDFE3120FFF7CAFEC120FFF7C7FE482093
:101F7000FFF7C4FE0820FFF7C1FE0F20FFF7BEFEEB
:101F80000C20FFF7BBFE3120FFF7B8FE3620FFF72D
:101F9000B5FE0F20FFF7B2FE1120FFF78BFE064BB8
:101FA000013BFDD12920FFF785FE2C20BDE8104024
:101FB000FFF780BE000C024040420F00F8B5074614
:101FC0002A200D4616461C46FFF774FE380AFFF716
:101FD00095FEF8B2FFF792FE300AFFF78FFEF0B2DF
:101FE000FFF78CFE2B20FFF765FE280AFFF786FE21
:101FF000E8B2FFF783FE200AFFF780FEE0B2BDE8FB
:10200000F840FFF77BBE00BF10B50B4614460246F2
:10201000FFF7D4FF2C20FFF74DFEC4F30720FFF796
:102020006DFEE0B2BDE81040FFF768BE2DE9F0415B
:1020300082B00746BDF820408DF80540240A0D46C1
:1020400016468DF804401C46FFF7B8FF2C20FFF71A
:1020500031FE631B0133002204212848DFF8A480ED
:10206000F61B06FB033705F067FA01224FF4005117
:10207000234805F061FAD8F800301A6822F04002CF
:102080001A601A684FF4006142F04002B7F5803FD1
:10209000C8F80C101A602DD34FF6FF7401AD4646F8
:1020A00002222946304606F0CFFD013CF8D1A7F5C3
:1020B0007F47FF3F134E0137012401340222294696
:1020C000304606F0C1FDBC42F7D1012204210B4885
:1020D00005F032FAD8F800301A6822F040021A608F
:1020E0001A68002142F04002C8F80C101A6002B0D1
:1020F000BDE8F081002FE8D001ADDBE70008024029
:10210000000C0240DC1B002000B5074B1A885B88DE
:1021100083B0002180B2013A009092B20846FFF7E6
:1021200085FF03B05DF804FBA00D002030B501224F
:1021300083B004210E480F4C05F0FEF9FFF702FEB4
:102140000D480E4A00234FF6FF7100914FF4A07521
:1021500019460380138018460122F0232380227140
:102160002B46EF226580FFF761FF03B030BD00BF53
:1021700000080240A00D0020A60D00209C0D0020AC
:1021800010B504463620FFF795FD74B1012C1CD024
:10219000022C16D0032C1CD0104B4FF4A070F02151
:1021A0000022188059801A7110BD5820FFF7A6FD33
:1021B0000A4BF0204FF4A0710122188059801A7147
:1021C00010BD2820FFF79AFDE6E78820FFF796FD6F
:1021D000EEE7E820FFF792FDDEE700BFA00D00204C
:1021E0002DE9F04F2F4FDFF8C4803880A8F8001099
:1021F0002D4C93F800E0248893F801C083B000EBE5
:102200000E051E46A54201EB0C03DDF83090924608
:102210009BB208DD9C440020A8F8003019467546A2
:102220001FFA8CF338800D9A94B20094AAB2FFF78B
:10223000FDFE72787AB333783888AAF1200A1946FD
:102240004FF0000B0AFB02B4756835F81450CBB19F
:10225000002403E00134A342194612D905FA04F21E
:102260001204F7D5B8F800102044594480B289B25E
:102270004A46FFF7C9FE337838880134A34219462D
:10228000ECD872780BF1010B5A45DBD80844388042
:1022900003B0BDE8F08F317838880844388003B047
:1022A000BDE8F08F9C0D0020A00D0020A60D0020A1
:1022B0002DE9F04F1B4F1C4E824610463180A7F887
:1022C00000A083B00178DDF83090DDF834801D4641
:1022D0004FF0000B441C2B460A4681B10A2911D04D
:1022E0000D2905D038883188CDE90098FFF778FFAF
:1022F00020460178441C2B460A460029EED103B043
:10230000BDE8F08F32886B78013213443380437814
:102310000D2B06BF841CA7F800B0A7F800A020462C
:10232000E7E700BF9C0D0020A60D0020014B185CC4
:10233000704700BF18000020094B187CFF280BD005
:102340005A7CFE2A09D0074910B4FE2200240C80D2
:102350005A745DF8044B70477047FF20704700BF08
:10236000180000205802002010B5012204464FF446
:1023700080511C4805F0E0F801222021194805F0A1
:10238000DBF801224021174805F0D6F801224FF46E
:102390000051154805F0D0F8012C1BD0022C12D0AA
:1023A000032C09D0042C1CD100224FF400510E48FC
:1023B000BDE8104005F0C0B8002240210948BDE842
:1023C000104005F0B9B8002220210648BDE81040B1
:1023D00005F0B2B8002210210248BDE8104005F017
:1023E000ABB810BD00100240000802400020FFF70B
:1023F000BBBF00BF10B54FF480710446134805F011
:1024000095F818B912482044C07C10BD80210F48AF
:1024100005F08CF818B90E482044C07D10BD4FF46B
:1024200080610C4805F082F818B909482044C07E44
:1024300010BD4FF40071054805F078F818B904484C
:102440002044C07F10BDFF2010BD00BF000402402B
:10245000180000200018024008B50120FFF784FF93
:102460000120FFF7C7FFFF2800D008BD0220FFF7BB
:102470007BFF0220FFF7BEFFFF28F6D10320FFF706
:1024800073FF0320FFF7B6FFFF28EED10420FFF70C
:102490006BFF0420BDE80840FFF7ACBF08B5FFF7AD
:1024A000DBFF0D4A0D491388087401339BB2B3F565
:1024B000FA7F0ED30023FF28138005D093780133D1
:1024C000DBB2042B937001D100239370FF234B7474
:1024D00008BD138008BD00BF58020020180000206E
:1024E000014B9869704700BF5C020020012922D08F
:1024F00017D3022914D1124B9A691044B0F5801FEA
:1025000001D3C0F31300C0F31001C0F34B12986164
:10251000C0F34740C3E90412187783F820007047DE
:102520007047074B0022B0F5801FC3E9042283F8EF
:102530002020E6D2E7E7024BC0F58010F2E700BFAB
:102540005C020020012922D017D3022914D1124B9A
:102550009A681044B0F5801F01D3C0F31300C0F394
:102560001001C0F34B129860C0F34740C3E900125A
:10257000187383F8200070477047074B0022B0F5AE
:10258000801FC3E9002283F82020E6D2E7E7024B50
:10259000C0F58010F2E700BF5C020020014B986894
:1025A000704700BF5C02002038B50C4C0C480D4D44
:1025B000002384F82030082102E055F82300118C14
:1025C000012204F0B9FF94F820300133DBB2072B6D
:1025D00005EB430284F82030EFD938BD5C020020BF
:1025E0000018024060E500082DE9F041164E174C36
:1025F00096F82030164F04EB430282B08046118CCF
:1026000054F82300002204F097FF02A9012501F8E5
:10261000015D2A463846642306F0A6F902A92A4637
:1026200001F8028D3846642306F09EF996F82030B2
:1026300004EB430154F82300098C2A4604F07CFF84
:10264000002002B0BDE8F0815C02002060E50008D7
:10265000DC1B00202DE9F04182B002AD134C05F8DF
:10266000013D06460F469046294620466423012236
:1026700006F07AF902A9204601F8028D64230122AE
:1026800006F072F902A9204601F8037D64230122B5
:1026900006F06AF902A9204601F8046D64230122BC
:1026A00006F062F902B0BDE8F08100BFDC1B00203B
:1026B0002DE9F047DFF878801B4F82B006464020B6
:1026C000894692460A9D1C46FFF78EFF98F82030F7
:1026D00007EB430257F82300118C002204F02CFF73
:1026E0005246494630460223FFF7B4FF75B10F4EFC
:1026F000254414F8013B8DF80730012264230DF1C5
:102700000701304606F030F9AC42F2D198F820309B
:1027100007EB430257F82300118C012204F00CFF51
:10272000002002B0BDE8F08760E50008DC1B002057
:102730005C0200202DE9F043534CDFF85081236800
:1027400083B007460D464FF0200913F01F0314BF56
:10275000C3F120061E464DB31F2D20786178A27864
:1027600027D9002B41D13B46CDF80090FFF7A0FFC1
:10277000A2682032424588BFC2F31302C2F310039D
:10278000C2F34B11A260C4E90031C2F3474213F017
:102790001F03A5F1200507F12007227384F82020EC
:1027A00014BFC3F120061E46002DD5D103B0BDE8ED
:1027B000F083A3B3AE424CD23B460096FFF778FFBE
:1027C000A2683244424588BFC2F31302C2F3100329
:1027D000C2F34B11A260C2F34742AD1B3744C4E9B8
:1027E0000031227384F82020AFE73B460096FFF7C4
:1027F0005FFFA3683344434588BFC3F31303A3605B
:10280000A268C2F31003C2F34B11C2F3474237442C
:10281000AD1BC4E90031227384F8202095E70095B0
:102820003B46FFF745FFA3681D44B5F5801F28BF51
:10283000C5F31305C5F31002C5F34B13A560C5F32B
:102840004745C4E90023257384F8205003B0BDE850
:10285000F08300953B46FFF72BFFA3681D44B5F5B9
:10286000801F28BFC5F31305A560A368C3F310013B
:10287000C3F34B12C3F34743C4E90012237384F834
:10288000203003B0BDE8F0835C020020FFFF0F00A2
:102890002DE9F047DFF878801B4F82B006464020D4
:1028A000894692460A9D1C46FFF79EFE98F8203006
:1028B00007EB430257F82300118C002204F03CFE82
:1028C0005246494630460323FFF7C4FE75B10F4E0A
:1028D0002544642301220DF10701304606F0F8F883
:1028E0009DF8073004F8013BAC42F2D198F8203053
:1028F00007EB430257F82300118C012204F01CFE61
:10290000002002B0BDE8F08760E50008DC1B002075
:102910005C0200202DE9F043534CDFF8508123691D
:1029200083B007460D464FF0200913F01F0314BF74
:10293000C3F120061E464DB31F2D207C617CA27C76
:1029400027D9002B41D13B46CDF80090FFF7A0FFDF
:10295000A2692032424588BFC2F31302C2F31003BA
:10296000C2F34B11A261C4E90431C2F3474213F030
:102970001F03A5F1200507F12007227784F8202006
:1029800014BFC3F120061E46002DD5D103B0BDE80B
:10299000F083A3B3AE424CD23B460096FFF778FFDC
:1029A000A2693244424588BFC2F31302C2F3100346
:1029B000C2F34B11A261C2F34742AD1B3744C4E9D5
:1029C0000431227784F82020AFE73B460096FFF7DA
:1029D0005FFFA3693344434588BFC3F31303A36177
:1029E000A269C2F31003C2F34B11C2F3474237444A
:1029F000AD1BC4E90431227784F8202095E70095C7
:102A00003B46FFF745FFA3691D44B5F5801F28BF6E
:102A1000C5F31305C5F31002C5F34B13A561C5F348
:102A20004745C4E90423257784F8205003B0BDE866
:102A3000F08300953B46FFF72BFFA3691D44B5F5D6
:102A4000801F28BFC5F31305A561A369C3F3100157
:102A5000C3F34B12C3F34743C4E90412237784F84A
:102A6000203003B0BDE8F0835C020020FFFF0F00C0
:102A700010B5064C406C21460A2208F071F9224636
:102A800001210020BDE81040FFF7D8B8A80D0020B4
:102A900003684A4A93422BD0494A934200D0704778
:102AA00010B503F0C5FF3E2800F28280DFE800F099
:102AB0007C7C7C7C80808080807878787880808046
:102AC0008080747474748080807070707080806C8A
:102AD0006C6C6C6868686880646464806060605C6A
:102AE0005C5C585858545450504848404033220079
:102AF00001F090BD334C10232360FFF795F8206858
:102B000031490A2208F02CF9002108462E4ABDE876
:102B10001040FFF793B82D4B2A4C1A7F0F21012A42
:102B2000216048D01A7F032AE7D101221A77E4E70F
:102B3000264A244C136C0E21013313642160DCE718
:102B4000224A204C136C0D21013B13642160D4E711
:102B50001C4C0C232360D0E71A4C0B232360CCE7DA
:102B6000184C0A232360C8E7164C09232360C4E7E6
:102B7000144C08232360C0E7124C07232360BCE7F2
:102B8000104C06232360B8E70E4C05232360B4E7FE
:102B90000C4C04232360B0E70A4C03232360ACE70A
:102BA000084C02232360A8E7064C01232360A4E716
:102BB000044B186010BD03221A779EE700220140E3
:102BC00000200140A0020020A80D0020F81A0020DB
:102BD00030B5194B194A1A604FF040714FF48032EA
:102BE00085B04FF080554FF070645A6099600022B4
:102BF00001211846C3E90A451A619A611A62DA602E
:102C00001A63D961596103F06FFD80B90424012270
:102C10000723694608480293CDE9004203F0E6FF26
:102C200018B1D521064801F0F7FE05B030BDCB2123
:102C3000034801F0F1FEE9E7100E002000200140FA
:102C4000D0E5000830B51F4B1F4A1A604FF48031A1
:102C50004FF0407285B01D4D5960022401219A60E9
:102C6000184600229D62DC611961996119631A623C
:102C7000DA62DA605A6103F037FDE8B9012306220F
:102C8000694610480292CDE9003303F0AFFF70B9F6
:102C9000022369460B48CDE9003303F0A7FF20B1BA
:102CA00040F201110A4801F0B7FE05B030BDF8212D
:102CB000074801F0B1FEEBE7EE21054801F0ACFE5C
:102CC000DCE700BF580E0020002201400100000F89
:102CD000D0E5000870B5394A0368934288B042D005
:102CE000374A934201D008B070BD0026354B02969A
:102CF0005A6C354C42F480625A645B6C059603F45E
:102D000080630293062203230299039203A90546D6
:102D10002E48049304F0CCFA2D4921604FF08062D4
:102D20004FF480634FF480504FF480416260236120
:102D30004FF480724FF4803360612046A660E660F5
:102D40006662C4E90612236204F0C6F878BBAC637D
:102D5000002203211220A56304F008F8122004F0D9
:102D60003BF808B070BD0024164B01945A6C17480C
:102D700042F480725A645B6C059403F4807301938F
:102D80001025032603A9019BCDE9035604F090FA10
:102D900022463146122003F0E9FF122004F01CF80D
:102DA00022462946094804F0C7FB08B070BD4FF41D
:102DB000A071084801F030FEC9E700BF00200140C3
:102DC0000022014000380240B00D00200000024007
:102DD00028640240D0E5000870B5084C05466668D6
:102DE00005F040FB064BA3FB0030800C224605FBA0
:102DF00000F553689B1BAB42FBD370BD001000E095
:102E000083DE1B4330B583B00D4C8DF80700656839
:102E100005F028FB0B4BA3FB0030800C0A21224657
:102E200001FB00F153685B1B8B42FBD30A23012299
:102E30000DF10701044805F097FD03B030BD00BF58
:102E4000001000E083DE1B43941C002070B50D4C85
:102E5000002206460D4620464FF4806104F06CFBCC
:102E600046F05000FFF7CEFF0020FFF7CBFF2846CB
:102E7000FFF7C8FF204601224FF48061BDE8704093
:102E800004F05ABB0008024030B500224FF48061C4
:102E900083B005461648174C04F04EFB45F0100071
:102EA000FFF7B0FF0020FFF7ADFF656805F0DAFA25
:102EB000114BA3FB0030800C0A21224601FB00F1DC
:102EC00053685B1B8B42FBD302A9002301F8013D31
:102ED00001220A23094805F0FBFD05489DF807403B
:102EE00001224FF4806104F027FB204603B030BD7F
:102EF00000080240001000E083DE1B43941C002009
:102F000038B5094C0546002220464FF4806104F094
:102F100013FB2846FFF776FF204601224FF480611D
:102F2000BDE8384004F008BB0008024030B1012879
:102F30000CD0022806D003280BD070470121084688
:102F4000FFF784BF45210120FFF780BF2321FFF752
:102F50007DBF67210120FFF779BF00BF38B5064C60
:102F6000064D01E0013C05D00421284604F0DEFABC
:102F70000028F7D138BD00BF801A0600000C0240BF
:102F80001C4B70B505460E4618705970FFF7E6FFEA
:102F9000194B1A489E5D1A4C00224FF4806104F0D0
:102FA000CBFA5020FFF72EFF0320FFF72BFF062060
:102FB000FFF728FF0820FFF725FF2846FFF722FF2D
:102FC0003046FFF71FFF01224FF480610B4804F0E9
:102FD000B3FA656805F046FA0A4BA3FB0030800C93
:102FE0003221224601FB00F153685B1B8B42FBD36D
:102FF00070BD00BF740D002090E50008000802407D
:10300000001000E083DE1B4308B5FFF7A7FF002098
:10301000FFF73AFFC0F3071008BD00BFF0B500226C
:103020004FF4806183B02648264C04F085FA0120D5
:10303000FFF7E8FE656805F015FA234BA3FB0030A7
:10304000800C0A21224601FB00F153685B1B8B4276
:10305000FBD302AC002604F8016D1C4D1C48214630
:103060000A23012205F034FD9DF8077018488DF8F9
:10307000076021460A2301222F7005F029FD9DF8E3
:1030800007306B7021460A23012211488DF8076032
:1030900005F01EFD6B782A789DF80740AC701B0286
:1030A00043EA02431C43064801224FF4806104F0C6
:1030B00043FA230248BF44F07F44204603B0F0BDEA
:1030C00000080240001000E083DE1B43AC02002039
:1030D000941C002030B5104C83B00B468DF80400D2
:1030E0000D0A2046012220218DF806308DF805506A
:1030F00004F022FA20460022202104F01DFA642365
:1031000001A90322054805F02FFC204601222021B9
:1031100004F012FA03B030BD000C0240941C0020F1
:10312000F0B51C4C1C4E83B0002503464FEA102C12
:103130000F0A20468DF802302A4634238DF80510F8
:1031400020218DF801C08DF803308DF804708DF8C2
:10315000005004F0F1F9642369463046032205F07B
:1031600003FC20460122202104F0E6F92A462046ED
:10317000202104F0E1F903220DEB02016423304623
:1031800005F0F2FB20460122202104F0D5F903B01E
:10319000F0BD00BF000C0240941C0020024BD3E99C
:1031A000002302600B607047B402002030B40C4D65
:1031B0000C4B286000EB40000B4C696003EB800077
:1031C0004A1C02EB4202406803EB8203A268596882
:1031D000606102FB00F2AA60A16130BC704700BFD1
:1031E000B402002034100020F81A002030B5104C32
:1031F00083B0E378ADF8060023B10E4DAB68B3F5AC
:10320000000F01D303B030BD087803F1504303EB46
:1032100010100DF10601012202F0BEFCA168AA689F
:10322000A3690A440133AA60A36103B030BD00BFA3
:10323000F81A0020B4020020F0B5514DEB7883B0AD
:103240000BB903B0F0BD4F4EB3680746087803F1E1
:1032500050430C4603EB101001220DF1060102F061
:1032600093FCBDF90630DA1912B22281638022780C
:10327000520715D507EE907AD4ED036A94ED036AF0
:1032800007EE103AF8EEE77AB8EEC77A67EE867A7C
:10329000E6EE877AFDEEE77A17EE903A1BB22381CD
:1032A000238962681BB293422ADC2278B768C2F392
:1032B000C0024ABB6B6901336B61A8686A69AB697C
:1032C00038449A42B06014D323781B073ED4237845
:1032D0004FF07E526FF382032370E26043F6FF7378
:1032E00063606B7F022B1AD00023B3606B6103B065
:1032F000F0BDB0F5000F04BF0023B36003B0F0BD14
:1033000023891BB26360D0E7214607F1504011F8D2
:10331000083B00EB131002F03FFCB768CAE73268C5
:1033200073681949A86802EB4202013301EB82027B
:1033300003EB430301EB830352685B686A61AB6193
:1033400000FB02F20023B260EB707AE76368B3F52A
:10335000804FBCDB237843F0040323706068FDF7E3
:1033600099F802460B4604A1D1E90001FDF726FABF
:10337000FDF70CFBE060B1E70000000080FFCF40EC
:10338000F81A0020B4020020341000200346102058
:10339000598801F57F513F3189B2FFF79BBE00BFCD
:1033A0002DE9F0414B4C84B0E378ADF80600EBB169
:1033B000494DAB68B3F5000F90460F4619D3474E01
:1033C000E368013303EB430306EB83035B684BB114
:1033D000A269E368013303EB430306EB83067368DA
:1033E0009A421DD2AB68B3F5000F13D004B0BDE80C
:1033F000F0810A7812F001021DD198F8002012F035
:10340000010240D1354EA068A26903440132AB608D
:10341000A261D5E70023AB60636104B0BDE8F08131
:10342000012002F013FA2E4A002301216361AB60F0
:10343000E3701170DAE70878284E03F1504303EB8C
:1034400010100DF1060102F0A7FBE36894F82020AC
:1034500003EB430302F0010206EB830313441A7AE1
:10346000AB68012ACFD198F8000003F1504303EB79
:1034700010100DF10E0102F087FBBDF90E30A8F817
:103480000230AB68BFE798F80000144E03F15043D8
:1034900003EB10100DF1060102F07EFBE36894F8D7
:1034A000202003EB430302F0010206EB83031344E5
:1034B0001A7AAB68012AA6D1387803F1504303EB9E
:1034C00010100DF10E0102F05FFBBDF90E20AB688C
:1034D0007A8098E7F81A0020B40200203410002007
:1034E0004D0A0020274A137910B43BB1D368264C0B
:1034F00003EB430304EB83031B7A43B90378DC0734
:1035000019D40B78DB0729D45DF8044B7047D368D6
:1035100003EB430304EB8304637A002BEED0438870
:1035200049885DF8044B43F6FF700144184489B2A2
:1035300080B2FFF7F5BDD368134C03EB430304EBF4
:1035400083031B7A002BDCD041885DF8044B01F526
:103550007F513F3189B21020FFF7BCBDD3680A4AC2
:1035600003EB430302EB83035B7A002BCCD0498847
:103570005DF8044B01F57F513F3189B22420FFF7FC
:10358000A9BD00BFF81A002034100020F0B5234C6C
:10359000E37883B00BB903B0F0BD214FB86815468E
:1035A0000E46012200F1504001A902F0E5FABDF9F2
:1035B0000420BDF9063072806B806269B868013200
:1035C0006261A3686169A26903449142BB601DD333
:1035D000637F022B04D00023BB60636103B0F0BDA6
:1035E00039687A680F48A36801EB4101013200EBAA
:1035F000810102EB420200EB82024968526861617C
:1036000003FB01F3A2610022BB60E270B3F5000F7F
:1036100004BF0023BB6003B0F0BD00BFF81A002058
:10362000B40200203410002008B50F4B0020D870E1
:1036300093F8202042F0010283F8202093F83020F4
:1036400060F3000283F8302093F8202060F3071223
:1036500083F82020FFF76AFCF020FFF751FCF120EF
:10366000BDE80840FFF74CBCF81A002008B5124B23
:103670000021D97093F8302042F0010283F8302005
:1036800093F8202061F3000283F820201A79012AA0
:1036900093F8302008BF022161F3071283F830202D
:1036A0000120FFF743FCF020FFF72AFCF120BDE8E2
:1036B0000840FFF725BC00BFF81A0020064A13791E
:1036C000B3FA83F35B0913711379012B0CBF042345
:1036D00002239360704700BFF81A002003786FF34D
:1036E00082030370037810B46FF3C30343F6FF74CF
:1036F0004FF07E51002203704460C1605DF8044BBE
:10370000428070471A4B10B500241C705C70DC704E
:103710001C7793F8202064F3820283F8202093F82A
:1037200020204FF07E5143F6FF7064F3C30283F80C
:1037300020205862D9625C8493F8302064F38202BE
:1037400083F8302093F8302064F3C30283F83020EC
:103750005863D9635C8600F0BDFA012002F076F868
:10376000204602F073F8034B01221A7010BD00BF0F
:10377000F81A00204D0A002010B50E480E4B0360C9
:1037800082B003F06FFB78B90C2400231022694645
:103790000848CDE9004303F07BFB18B152210748EC
:1037A00001F03AF902B010BD4921044801F034F9A2
:1037B000EAE700BFAC0E00200074004004E60008F9
:1037C000214B02689A4200D0704770B586B000263F
:1037D00003F5E23300961A6C1C4C42F000521A6456
:1037E0001B6C039603F000530093202203230099DF
:1037F000019201A905461648029303F059FD1548A8
:1038000020604FF0606140224FF480634FF400600D
:103810006160A2604FF400514FF4807223616061D7
:103820004FF400332046E6606662C4E90612236264
:1038300003F052FB18B9EC60A56306B070BD7921A6
:10384000054801F0E9F8F6E700740040C00E0020DA
:1038500000000240A060024004E6000810B582B0FB
:103860001C4B002400941A6B42F400121A631A6B6A
:1038700002F400120092009A01941A6B42F4800242
:103880001A631B6B03F480030193022201211120B0
:10389000019B03F06BFA112003F09EFA0322012131
:1038A000392003F063FA392003F096FA2246032107
:1038B0003B2003F05BFA3B2003F08EFA0222032147
:1038C0003C2003F053FA3C2002B0BDE8104003F066
:1038D00083BA00BF0038024038B500EB4000184BF7
:1038E000184C194A53F82000002319461370FEF7AC
:1038F000FDFD20461021FFF70DF8A56822686068DD
:10390000124B00FB02F01860226811484EF660214D
:10391000B1FBF5F102FB01F25A605C681968B4FB77
:10392000F1F201FB12429A605A681968B2FBF1F297
:10393000DA601968BDE8384001EB8101FEF7EABFA3
:1039400034100020A0190020200F0020C0190020F2
:10395000D01900202DE9F04F9C4CDFF8B0829C4F2D
:10396000E3689C4E9C4DDFF8A8A24FF0000985B09B
:1039700088F8009087F80090E0680293FFF7ACFFAA
:10398000964A974B9748A2F80090C3F8009005F02C
:1039900007FA0222012362772377E0682169DFF8C2
:1039A0007492FFF703FC227F012A4CD1E16823695E
:1039B0000133994247D2E27098F80030002B7DD055
:1039C000B068236CD6F800C07168874ACAF8005006
:1039D00001FB0CF129603168C9F8006003444EF620
:1039E000602BBBFBF3F301FB03F36B606868296892
:1039F000B0FBF1F301FB1303AB606B682968B3FB09
:103A0000F1F3EB60E16823697848106099422AD1AC
:103A1000E26877497748013207F02AF9002340F23B
:103A20001D52CDE900329621734B724A0A20FEF7EF
:103A30003FFC3B78002B40F09C80237F032B02D07F
:103A4000237F002BF5D100256648257705F0B4F9D2
:103A50006420FDF7DFFF029BE360E5706570257071
:103A600005B0BDE8F08F654A039210461021FEF7BD
:103A700051FF039A936810685168BBFBF3FB604BDE
:103A800001FB00F1196012685E4802FB0BF25A60FC
:103A9000D3F804C01968BCFBF1F201FB12C29A60B2
:103AA0005A681968B2FBF1F2DA60196801EB81011A
:103AB000FEF730FF002388F80030A9E74F48504B4D
:103AC000D0F808E0216CD0F800B0D0F804C0C9F8F4
:103AD00000000CFB0BFCC3F800C00068CAF8003003
:103AE00071444EF6602BBBFBF1F100FB01F1596014
:103AF000D3F804C01868BCFBF0F100FB11C13A48D0
:103B00009960DFF800C15968C0F800C003921868D6
:103B1000B1FBF0F1D96001F05FF9E16823699942E6
:103B20003FF476AF10213046FEF7F4FEB0683168FE
:103B30007368BBFBF0FB03FB01F32B6033682B487E
:103B400003FB0BF36B60D5F804C02968BCFBF1F3F1
:103B500001FB13C3AB606B682968B3FBF1F3EB6047
:103B6000296801EB8101FEF7D5FE039A88F8002051
:103B70004EE700233B702378DBB2012B0DD1E068C8
:103B800094F82010204A00EB400001F0010102EB04
:103B9000800281F001010A441372E3680133E3609B
:103BA000E268236901339A427FF4FDAE2378012B4A
:103BB0004FF0000308D0029AE26088F800303B70B2
:103BC000E068FFF789FEEEE623703CE7F81A002074
:103BD00018100020B01900201C100020A20C00209A
:103BE000C01A0020001E002030100020240F0020EA
:103BF00038E60008441B002008000020A01900201F
:103C0000C0190020D019002034100020200F0020FF
:103C1000141000202C1000202DE9F041294BDFF872
:103C2000B0C0002488B006460F46204621461546FF
:103C30008CF800401C70FEF759FC0C2101A8FEF71F
:103C400069FEDDE90112039B396032602B60326846
:103C5000A2B3302B32D81C4D6C6033682C726C725E
:103C600063B31A4FA04685F8088085F80980FEF7EF
:103C700037FC102128600DEB0100FEF74BFEDDE95B
:103C8000043101FB03F1384601EB8101FEF742FEEE
:103C90003368621CA3424EF6602014460AD9049B86
:103CA0006A680699B0FBF1F1C3EB031301FB032330
:103CB0002B6133689C4205F10C05D4D308B0BDE8F4
:103CC000F08100BF1810002034100020D01900200F
:103CD000200F002008B5054B054800221A7705F093
:103CE0006BF86420BDE80840FDF794BEF81A002088
:103CF000001E00202DE9F0412D4D2B7FDBB2012B62
:103D000001D0BDE8F0812B4A2B4E126831885068F3
:103D100088422FD9338891689BB219B1274F3C68EC
:103D2000052C37D0D168B3FBF1F201FB1233DBB9BC
:103D3000224FDFF890803C68D8F80020631D0AD835
:103D4000115D013419B1287FC0B201281AD03B6837
:103D50000433A342F4D8115D19B1287FC0B2012801
:103D600015D03B6805333B60338801339BB2338009
:103D7000BDE8F0811249114A0B70002313603380B3
:103D8000BDE8F08101F0DEFBD8F80020DFE701F0AC
:103D9000E3FBE6E7D16892680A44B3FBF2F102FB69
:103DA0001133002BE0D1DFF81C80D8F80020C7E7E2
:103DB000F81A002014100020A20C0020C01A0020C5
:103DC000181000203010002030B5124B124A1A6033
:103DD00089B001220421002480255A60D960102274
:103DE000184669449D619C60C3E90444C3E90744E3
:103DF000C3E90944CDE90122CDE90322CDE9052239
:103E0000079204F055FB18B15A21044800F004FE53
:103E100009B030BDC41A0020400100A04CE60008E3
:103E20002DE9F0412D4B1C6886B014B106B0BDE8F9
:103E3000F0814FF001082A4A0094C3F80080936B88
:103E4000284843EA08039363936B039403EA080347
:103E5000022703260C25009301A94FF63F03009A81
:103E6000CDE90137CDE9046503F022FA01A91E4826
:103E70000394CDE90187CDE9046503F019FA01A99E
:103E800048F23313194801930297CDE9046503946E
:103E900003F00EFA01A94FF68373154801930297B8
:103EA000CDE90465039403F003FA01A94CF203730E
:103EB000104801930297CDE90465039403F0F8F9E3
:103EC000602301A90C480297CDE90465039401938E
:103ED00003F0EEF906B0BDE8F08100BFC00200209B
:103EE000003802400014024000080240001802405E
:103EF00000100240000C0240000402402DE9F04F87
:103F00008FB00024BF4B01941A6BDFF810B3DFF8B9
:103F100010A3DFF81093DFF81083BB4F42F01002BC
:103F20001A631A6B02F010020192019A02941A6B42
:103F300042F004021A631A6B02F004020292029A1F
:103F400003941A6B42F020021A631A6B02F02002EB
:103F50000392039A04941A6B42F080021A631A6B5C
:103F600002F080020492049A05941A6B42F0010256
:103F70001A631A6B02F001020592059A06941A6BF5
:103F800042F002021A631A6B02F002020692069ACB
:103F900007941A6B42F040021A631A6B02F0400257
:103FA0000792079A08941A6B42F008021A631B6B77
:103FB00003F008030893584601220C21089B03F0E4
:103FC000BBFA22465846702103F0B6FA2246504604
:103FD00042F2160103F0B0FA504601224FF4F961A3
:103FE00003F0AAFA484601224FF4A47103F0A4FAA0
:103FF00022464846802103F09FFA8448012240F27D
:10400000034103F099FA2246404643F2200103F0AF
:1040100093FA2246384647F20C0103F08DFA3846EF
:104020000122802103F088FA01224046182101254F
:1040300003F082FA0226584609A90423CDE909357E
:104040000B940C9603F034F909A9584608230993F8
:10405000CDE90A540C9503F02BF9584609A97023B1
:104060000993CDE90A540C9403F022F909A95046AA
:1040700042F216030993CDE90A540C9403F018F99F
:104080004FF4886309A909936148624B0A930B9422
:1040900003F00EF909A950464FF481630993CDE965
:1040A0000A540C9603F004F909A9484648230993D9
:1040B000CDE90A540C9603F0FBF809A94846802381
:1040C0000993CDE90A540C9403F0F2F8524B0B9487
:1040D000202209A95046CDE9092303F0E9F809A9EE
:1040E00040F2034349480993CDE90A540C9603F082
:1040F000DFF809A9042345480B944FF4006BCDE980
:10410000093403F0D5F80E2309A940480D93CDE9F1
:104110000A640C94CDF824B003F0CAF809A940460B
:10412000CDE909B40B9403F0C3F809A9404643F262
:1041300020030993CDE90A540C9403F0B9F809A9B6
:10414000384647F20C030993CDE90A540C9403F066
:10415000AFF80E2309A938460D9340230993CDE902
:104160000A640C9403F0A4F809A938468023CDE929
:104170000935CDE90B4503F09BF8504609A94FF4EA
:1041800070730993CDE90A540C9503F091F809A9CD
:1041900048464FF480734FF00A0A0993CDE90A5458
:1041A0000C9503F085F809A948464FF4C0530993CC
:1041B000CDE90A640C96CDF834A003F079F8154ADD
:1041C000484609A94FF40043CDE90A24099303F0B6
:1041D0006FF8104A0B95042309A94046CDE909322E
:1041E00003F066F8182209A940460992CDE90A545D
:1041F0000C9603F05DF8402309A9404609930E236D
:1042000014E000BF003802400018024000040240E1
:1042100000140240000021100000121000100240A3
:104220000008024000000240000C02400D93CDE95E
:104230000A640C9403F03CF82C4A0B94404609A9FC
:104240008023CDE9093203F033F8284A09A938461A
:104250004FF40073CDE90A24099303F029F809A962
:1042600038464FF480630993CDE90A4503F020F8FE
:104270001F4BCDF824B0384609A9CDE90A3403F024
:1042800017F81A4A1B48102309A9CDE90A240993F3
:1042900003F00EF84FF4607309A916480993CDE9AD
:1042A0000A4503F005F82A462146082002F05EFD83
:1042B000082002F091FD31465046032202F056FDDF
:1042C000504602F089FD31460322172002F04EFDD0
:1042D000172002F081FD2A462146282002F046FDE3
:1042E000282002F079FD0FB0BDE8F08F000021100A
:1042F0000000111000040240402870B500F0DE807C
:1043000008D9B0F5007F55D0B0F5004F15D0802802
:1043100029D070BD042800F0B080102805D00128F5
:10432000F7D1BDE87040FFF7EDB9AA4A1378190735
:104330005CBF43F00803137070BDA64A137813F0F6
:104340001004E6D143F01003137000F063F9A24BA0
:10435000DC701A7F012A00F00B811A7F032AD8D162
:1043600001221A7770BD9B4A13785E07D1D49A4C0C
:10437000A16943F00403137011B9A369002BC8D0DD
:1043800094F82030DD0700F1CC8094F83030D80765
:104390000CD594F8303013F0080F94F830300CBF7F
:1043A00043F008036FF3C30384F830308B4B0122D2
:1043B0001A7070BD874A137813F00201A9D1864C98
:1043C000607843F0020301281370A2D0237F012BF1
:1043D0009FD0A369002B9CD0637FDBB2012B18D147
:1043E000E26894F82050E0687D4E02EB420205F04E
:1043F0000105013085F0010506EB820200EB40006B
:104400002A4406EB8000774DA6691372466061610D
:1044100029600123E37094F82030DA070DD594F871
:1044200020306FF3820384F8203094F8203000228B
:104430006FF3C30384F82030628494F83030DB07D4
:104440000DD594F830306FF3820384F8303094F84F
:10445000303000226FF3C30384F8303062860020CE
:1044600001F0E6F9012001F0F1F95C4A0123002195
:10447000217013706370E37070BD574CE378002BAC
:104480003FF447AFFEF7CAFD6378574A40F30F2069
:10449000012B108053D02378012B7FF43AAF23797E
:1044A000002B76D104F1300114F8203F13F0010FF6
:1044B00018BF2146BDE87040FEF798BE454A137804
:1044C00013F001057FF425AF434C217843F001033D
:1044D000012913703FF41DAF237F012B3FF419AF67
:1044E000E5706561A561637F012B0CD1234604F162
:1044F000300013F8202F12F0010F18BF1846FFF7F5
:10450000EDF8384B1D60012001F092F9002001F018
:104510009DF932490123002223700B706270E37011
:1045200070BD94F8203013F0080F94F820300CBFC1
:1045300043F008036FF3C30384F8203036E7237990
:10454000CBB9254604F1300615F8203F13F0010FD2
:1045500014BF29463146FEF76FFE94F8203013F061
:10456000010F14BF28463046BDE87040FEF70EBF6D
:1045700003221A7770BD04F1200104F13002FFF725
:1045800005F804F1300104F12000BDE87040FEF7A9
:10459000A9BF04F1300204F12001FEF701FFE26837
:1045A0000F4B94F8201002EB420203EB820301F060
:1045B000010213441B7A012B7FF4ABAE14F8203FA9
:1045C00013F0010F04F1100008BF2046BDE8704051
:1045D000FEF7DCBE4E0A0020F81A00204D0A00202B
:1045E00034100020BC020020A80E0020084B1B68DD
:1045F0000020DAB262F30700C3F3072262F30F2050
:10460000C3F3074382B063F3174002B0704700BFA3
:10461000C802002008B54FF40041094802F086FFA7
:10462000084B0949B0FA80F0400998700A68C2F353
:10463000C7021A704A68C2F3C7025A7008BD00BFA9
:1046400000000240C80200203C1B0020064B1A78E4
:10465000042A01D0012070475A78042AFAD19878A8
:10466000003018BF01207047C8020020FCF7FEBCD4
:1046700008B513468AB201461846FCF789FD0020AA
:1046800008BD00BF08B513468AB201461846FCF7BC
:10469000AFFB002008BD00BF70B594B00020284AD1
:1046A0000190116C274B41F080511164126C02F0A3
:1046B00080520192019A02901A6842F440421A60B4
:1046C0001B6803F4404302934FF48030012302241B
:1046D0004FF480010425A82208930990072308A815
:1046E000029E0E941294CDE90F151192139303F0CC
:1046F0002FFC00B1FEE74FF4A0524FF48053059019
:104700000F26052103A804940396CDE9062303F0A0
:104710000FFE044600B1FEE703F0A4FE4FF47A73E7
:10472000B0FBF3F002F072FB284602F089FB224650
:1047300021464FF0FF3002F019FB14B070BD00BFEE
:1047400000380240007000407549764BCA68F0B5E9
:1047500042F080720025CA605D601A68724C734E28
:1047600042F001028DB01A6001F0A4FF704B5D773A
:104770001D7193F8202042F0010283F8202093F865
:10478000202065F3410283F8202093F8302065F360
:10479000000283F8302093F83020022765F34102AD
:1047A00083F830201D649F60FFF776FFFFF7A6FBBC
:1047B000FFF754F801F0F4FAFFF706FB01F028FBCD
:1047C00000F002FF01F038FCFEF702FA00F024FFCF
:1047D000FEF7D2FF01F056FB01F078FC01F08CFBF4
:1047E000FEF730FAFCF7FCFA4FF490610291802159
:1047F00000914FF00071CDE907154FF48031CDE9FC
:1048000009114FF480710B914A4904914A4905916D
:10481000A4F540734949019403F1800203F5207027
:104820000691039504A9FCF7A3FE0146444806F04F
:10483000F7F901F0A5F8082002F0DAFAFDF776FCA6
:104840003846FDF79DFC4AF25420FDF75DFC3D48DB
:1048500004F0A6FA284600F0AFFF012000F0ACFFFC
:104860000121284601F000F8374804F099FA37484A
:1048700001F0E8FF3A463649364802F055F8FE2086
:10488000FEF73EFB0F20FEF73BFBFEF7BDFB0121D1
:104890000846FEF775FB2846FEF748FBF020FEF7BA
:1048A0002FFBF120FEF72CFB082002F095FA0320E5
:1048B000FEF726FBFDF79AFD00F028FE01222946AF
:1048C000B02000F0FBFD04211420FDF739F9FDF7BD
:1048D000ABF929462846204AFDF7B0F9FDF764FEFA
:1048E00000F08AF9284600F025FAA4F540740AE0A1
:1048F000307884F88057FF2801D000F01BFA94F834
:104900008137012B07D094F88037002BF0D1FDF7C9
:1049100013FD3070EDE700F05FFA84F88157F2E79D
:10492000F0ED00E0001000E0CC050020621B00204C
:10493000F81A002085460008714600086D460008F8
:1049400080E60008C41D0020881D0020100E0020F5
:104950003C1B0020580E002090E6000810B5284CA3
:1049600094F88237DA073ED498072ED459071FD41B
:104970001A0710D4DB0600D410BD4FF400412148C3
:1049800002F0D4FD0128F7D194F8823783F01003A8
:1049900084F8823710BD10211B4802F0C7FD94F83F
:1049A0008237012804BF83F0080384F88237E1E7E7
:1049B0008021164802F0BAFD94F88237012804BF1E
:1049C00083F0040384F88237D2E74FF40071104873
:1049D00002F0ACFD94F88237012804BF83F0020393
:1049E00084F88237C2E740210A4802F09FFD94F81C
:1049F0008237012804BF83F0010384F88237B3E7CC
:104A0000CC0200200000024000040240000C0240E2
:104A10000018024000140240FEE700BF2DE9F04FED
:104A20003E4B3F4EDFF828813E4A3F4C3F4D00272A
:104A300083B0384601211F70776188F80070FDF758
:104A4000FDF839463846FDF77DFD384600F0F0FEAA
:104A5000B94603E02978C9B2012918D0FDF76CFCEA
:104A600020700028F6D1002000F0F0FE0A22304924
:104A7000706906F075F97369BB420CBF2D4A2E4A66
:104A80000121002003B0BDE8F04FFDF7D7B8DFF8F3
:104A9000C4B04FF0000AB9F1000F38D098F8009078
:104AA000264B274985F800A099444846042206F081
:104AB00007F90028D7D0DBF800104846FDF73AFE8A
:104AC0007269DBF800301F49194803EB020C62469B
:104AD0003B46C6F814C006F0CBF840F21D53CDE9B2
:104AE00000A3134A184B50210A20FDF7E1FB73691C
:104AF000BB42B8D298F800304033DBB2802B14BFF1
:104B000088F8003088F800A04FF00109A6E70B4BA9
:104B10000E4A1F684846FDF791F8BFE7AC21002018
:104B2000500A0020D0E60008621B0020A0200020D0
:104B3000441B002004E7000818E70008E8200020D4
:104B4000F4E60008FCE6000808000020E0E60008A3
:104B5000E4200020682100202DE9F0474AF254208B
:104B600082B0FDF7D1FA1F4EDFF88490DFF8848021
:104B70001D4F00240A2596F83032C3EBC30306EB21
:104B800083032344E0B293F90430C3EBC30201333F
:104B900017D0E4B156F822A0FDF7C8FB53460246F1
:104BA0004146384606F064F81E20002340F21D52AC
:104BB000CDE9003229460D4B3A46FDF779FB143515
:104BC000ADB20134102CD6D102B0BDE8F08720463A
:104BD000FDF7ACFB4B4602464146384606F048F826
:104BE0000A20E2E7680A0020441B00200800002099
:104BF00034E700082CE70008F8B5444C444D00F0B9
:104C00001BFC4FF40C724FF0FF31204605F057FFAC
:104C1000404A41481168936B2160E561556BC4F8C7
:104C2000A83093683D49A563C4F8C4306063C4F8F4
:104C3000C0103B483B493C4D13692065C4F8DC106B
:104C40003A485169C4F88851156AC4F8A001106B3C
:104C50002067C4F8FC30C4F8181100233449C4F8A4
:104C60003451C4F88C0084F830322371A361C4F845
:104C70001431C4F83031C4F84C31C4F88810C4F889
:104C8000A410D2E9061207250920C4F85011C4F86F
:104C90006C210A210B22C4F86831C4F8843184F8ED
:104CA000203084F83C300C230427062684F83D503D
:104CB00084F88D010D25052084F88E1184F88F214C
:104CC0000121022284F890310E2384F8217084F8A7
:104CD000226084F8915184F89201617184F8741013
:104CE00084F8AC10A27184F8C82084F88C2184F870
:104CF0003E3084F8003184F81C3184F8383184F86F
:104D0000543184F8703184F89030F8BD680A00207E
:104D10003CE70008641B0020D95100081952000824
:104D2000CD510008E551000844E700087953000818
:104D3000315200080F282FD810B5184C94F8303293
:104D4000C3EBC30304EB8303184490F904305A1CEB
:104D500021D0DBB2C3EBC302114854F8221084F80F
:104D6000303205F0A5FFFCF75FFF4AF25420FDF753
:104D7000CBF9002108460A4AFCF760FFFFF7ECFE7A
:104D800094F83032C3EBC30304EB8304A36913B17B
:104D9000BDE81040184710BD704700BF680A0020EA
:104DA000441B002010B5094C094982B00246204638
:104DB00005F05EFF00204FF6E073CDE9003022469B
:104DC000044BDD21FDF774FA02B010BD441B002036
:104DD00050E70008080000202DE9F0413E4C3F4E0E
:104DE00094F8203094F820303D49207803F00103F6
:104DF000012B08BFB04688B014BF88460E4610B9D4
:104E00006378002B3CD02378012B51D094F82030CC
:104E10001A0717D494F830301B0713D46378012B8A
:104E200051D06D462846FBF781FF3146284405F0F6
:104E30001FFF2379012B0CD02846FFF7B3FF08B0E2
:104E4000BDE8F081274B0FCB6D462F4607C73B705F
:104E5000E8E7A369002BEFD02846FBF767FF224B5A
:104E6000024603CBAC18A85002F10A001A889B78BE
:104E70006160284441462281A37205F0F9FEDBE718
:104E80001A4B0FCB6D4685E80F0031460DF10F0030
:104E900005F0EEFE2379012BCED12846FBF746FF25
:104EA000134A0346291810689288E8508A80C3E79D
:104EB000104B93E807006D462B4603C323F8022BE3
:104EC000120C1A70AEE70C4B93E807006D462B46A8
:104ED00003C31A80A6E700BFF81A002058E70008AD
:104EE0005CE7000884E70008A0E7000860E7000826
:104EF00070E7000878E7000894E700080EB42DE991
:104F0000F04384B00BAC14F8045B0394D0B1461E9C
:104F1000F6B20136DFF8388004EB860640F21D5900
:104F20004FF478470434CDF8049054F8042C0097DB
:104F3000294643460A2003941435FDF7B9F9A642E1
:104F4000EDB2EFD104B0BDE8F04303B0704700BF4D
:104F50000800002010B5054CFDF7EEF9002814BF3D
:104F6000012300232370F7D110BD00BF621B002076
:104F70002DE9F04F87B00125DFF84482DFF8449235
:104F80008A4E8B4F03908A462C46FDF7D5F9FF28B1
:104F900088F8000027D0062800F20481DFE800F03E
:104FA000C363B51DA7999000DBF80C20DBF8103027
:104FB0009A4204D2DBF80C300133CBF80C309DF868
:104FC0001630012B2CD19BF81C30022B02D09BF801
:104FD0001C30D3B99AF80030BBB901238AF80030ED
:104FE00007B0BDE8F08FDFF8E0B19BF80030012B8F
:104FF000F3D09BF80130012BEFD0FFF727FB0128FE
:1050000000F0978064B90024BFE79BF81C30022BA6
:1050100006D19AF80030012B02D100238AF8003023
:105020005DBBDBF80C20494640F21D5400250132DF
:10503000304605F01DFE3B463246CDE90054AA211C
:105040000A20FDF735F9DBF810205A4901323046C5
:1050500005F00EFECDE900543B463246BE210A2043
:10506000FDF726F9CFE7DFF860B1DBF80C3023B1AC
:10507000DBF80C30013BCBF80C30DBF80C204E4950
:1050800040F21D5501320024304605F0F1FD3B464B
:10509000CDE900453246AA210A20FDF709F9DBF8DF
:1050A000102046490132304605F0E2FDCDE90045C9
:1050B0003B463246BE210A20FDF7FAF80125A2E759
:1050C00000F0B6F8DFF800B1FFF746FDFFF784FE09
:1050D000A6E7DFF8F4B0039BDBF81020013B9A420F
:1050E0009FD2DBF810300133CBF8103099E7DFF8AE
:1050F000D8B0DBF81020DBF80C309A4291D9DBF8FD
:105100001030013BCBF810308BE7DFF8BCB0DBF898
:105110000C20DBF810309A42AFD2DBF80C300133B0
:10512000CBF80C30A9E700238AF8003007B0BDE8BF
:10513000F08FFFF75BFAC0F30723C0F30742042B9D
:105140008DF814008DF815308DF816200FD83FF427
:1051500036AFE5B9DBF81020DBF80C309A427FF669
:105160002EAFDBF81030013BCBF8103027E7002DD5
:105170007FF41AAF039BDBF81020013B9A42BFF487
:105180001EAFDBF810300133CBF8103017E7DBF837
:105190000C30002B3FF413AFDBF80C30013BCBF8A5
:1051A0000C300CE7DFF820B03AE700BF441B0020CA
:1051B0000800002010E80008E4E70008F4E7000811
:1051C000621B002000E80008F81A0020014B0222B0
:1051D0005A777047F81A0020014B01225A7770471E
:1051E000F81A002038B5084C084B094A6E210220F5
:1051F00007256577FFF782FEFFF710FC054B0021BE
:10520000012261771A7038BDF81A002020E80008E2
:1052100038E800084C0A0020044B0121002259778D
:10522000DA601A61D8681969FDF7C0BFF81A002062
:105230002DE9F041454D95F8200010F0010082B0B5
:1052400072D195F82030DB0764D52879C0B20128E7
:1052500076D03F4A82210120FFF750FE3D4A3E4B67
:105260003E4C3B4FDFF80C813D4ECDE9003296219C
:105270003C4B3D4A0420FFF741FEFDF75DF82070EE
:105280000E28FAD801A353F820F000BF09530008F4
:105290007B5200087B5200087B5200087B520008BA
:1052A0007B5200087B5200087B5200087B520008AA
:1052B0007B5200087B5200087B520008F95200081C
:1052C000E9520008C9520008FEF7F8F92B79DBB261
:1052D000012B3A464FF001004FF0820104BF1846FF
:1052E0004246FFF70BFEC8E7FEF7C0F932466E21D3
:1052F0000120FFF703FEC0E7FEF796F91B4A6E2177
:105300000120FFF7FBFDB8E7194B01221A7002B02C
:10531000BDE8F08195F8300010F0010095D0104AFA
:105320006E21FFF7EBFD90E795F83030DA0788D46F
:105330000E4A6E21FFF7E2FD2879C0B2012888D11C
:105340000C4A8221FFF7DAFD88E700BFF81A002037
:105350008CE80008C0E80008CCE80008621B0020C8
:1053600068E80008A0E80008B0E8000854E8000871
:105370004C0A00207CE8000830B52A4A2A4C2B4809
:1053800085B0002319461360022540F66C128DF893
:105390000330657705F093FB03AA02A901A8FEF785
:1053A0003BFC04F1100104F10C00FDF7F7FE019B3A
:1053B00033B3C82B15D8039B302B05D929E0FEF752
:1053C000C9FA9DF80330A3B12577FFF705FD0DF16C
:1053D00003010198FFF7CCFD9DF80330002BEED1BF
:1053E00007E0134B82219A6A0120FFF787FDFFF740
:1053F000B1FD104A012100231170237705B030BDA3
:105400000B4B82215A6A0120FFF778FDFFF7A2FDBE
:10541000EFE7074B8221DA6A0120FFF76FFDFFF704
:1054200099FDE6E7BC020020F81A002034100020A5
:10543000641B00204C0A002030B4104B104D114C5E
:1054400011481249124A1D605C60124D124C98605E
:10545000D960124812491A615D61124A124D9C616D
:10546000D861124C1248196212495A62124A9A6360
:10547000C3E90A54C3E90C0130BC7047641B002027
:10548000E4E8000834E70008F8E8000808E9000844
:105490001CE900082CE9000840E9000850E9000870
:1054A00064E9000874E9000888E900089CE900083C
:1054B000B0E90008C0E90008D4E9000800B583B0ED
:1054C00064238DF807008DF806108DF805200DF186
:1054D000070101220C4804F073F8642301220DF146
:1054E0000601094804F06CF89DF8073003F0F0035A
:1054F000B02B06D8642301220DF10501024804F007
:105500005FF803B05DF804FB3C1E002010B50C4CA6
:1055100000222046082102F00FF86420FCF77AFAF6
:1055200020460122082102F007F86420FCF772FAF5
:1055300078220721B020BDE81040FFF7BFBF00BFB1
:105540000010024001284FF03C0202D08920FFF7F2
:10555000B5BF9920FFF7B2BF38B5002205460C460B
:10556000C0202221FFF7AAFF012D21464FF03C0267
:1055700004D08020BDE83840FFF7A0BF9020BDE8F0
:105580003840FFF79BBF00BF70B50E4E3446351D47
:1055900014F8011B21B9AC42FAD134792CB970BD91
:1055A0003C229920FFF78AFFF5E700222221C02044
:1055B000FFF784FF21463C229020BDE87040FFF7B2
:1055C0007DBF00BFA420002038B5104B104A1A60E0
:1055D0004FF4827001224FF4007508240A215860AC
:1055E0005A6118460022C3E90654D962C3E902226F
:1055F0001A61C3E908229A6203F076F900B938BD4E
:1056000053210448BDE83840FFF706BA941C002037
:10561000003C0040E4E9000838B5104B104A1A601D
:105620004FF482724FF4007510240A215A60184614
:105630000022C3E90654D962C3E90222C3E9042265
:10564000C3E908229A6203F04FF900B938BD692115
:105650000448BDE83840FFF7DFB900BFDC1B00207D
:1056600000500140E4E90008F0B5484A036893425D
:1056700089B05BD0464A934201D009B0F0BD002406
:10568000444B02945A6C444D42F480125A645B6C51
:10569000059403F4801302934FF46072022302997D
:1056A000039203A9052206463C48049306930792F9
:1056B00001F0FEFD3A4B2B604FF080604FF48061AB
:1056C0004FF48032042368602846AC60EC60C5E982
:1056D0000544EC61C5E90A442C632961C5E9082346
:1056E00001F0FAFB00284CD12E4C2F4921604FF0DD
:1056F000806240204FF480634FF480316260A0608C
:1057000004222361F56400232046AE63C4E9081235
:10571000E360C4E90533E361C4E90A33236301F0BC
:10572000DBFB48BBB464A66309B0F0BD0024194B91
:1057300001941A6C1D4842F400421A641B6C0594D3
:1057400003F40043019303A94FF4C0530227032637
:105750000625019ACDE90337CDE9066501F0A8FDDC
:10576000082303A912480393CDE90474CDE9066523
:1057700001F09EFD09B0F0BDCB210E48FFF74CF9BA
:10578000D0E7B6210B48FFF747F9ADE7003C0040F2
:105790000050014000380240341C00200014024038
:1057A00058640240EC1C0020706402400008024073
:1057B00000040240E4E9000830B589B028B30128AC
:1057C00016D0184C184B04EB800433F81050606866
:1057D00003950123022203A9CDE90433069201F0C7
:1057E00067FD29466068002201F0A6FE09B030BDC1
:1057F0000E4B002202921A6B42F040021A631B6B9E
:1058000003F040030293029BDBE7084B01901A6B05
:1058100042F040021A631B6B03F040030193019BAB
:10582000CFE700BF3C000020A0E5000800380240A0
:10583000044B054A03EB800332F81010586801222C
:1058400001F07ABE3C000020A0E50008044B054AA8
:1058500003EB800332F810105868002201F06CBE90
:105860003C000020A0E5000810B586B050B91A4BE6
:1058700000901A6B42F001021A631B6B03F00103E4
:105880000093009BC9B1012901D006B010BD134B94
:10589000134A019103EB8000002401A9C068029221
:1058A000039401F005FD21460222062001F05EFA74
:1058B000062001F091FA06B010BD084B029103EBEF
:1058C000800001230193C068022301A9CDE90333BD
:1058D00001F0EEFC06B010BD003802403C00002094
:1058E000000011102DE9F047244C82B004F110059E
:1058F000012608274FF00008214682464FF6FF7226
:1059000028462660C4E90176C4F80C80CDF80480EE
:1059100002F072FE3046FCF77DF80223214628464D
:105920004FF6FF7223604FF00409C4E90176C4F812
:105930000C8002F061FE0323214628464FF6FF72D9
:1059400023606760C4F80C80C4F8089002F054FE2D
:105950004FF40C730193019B6760214628464FF674
:10596000FF72C4F80090C4E9026302F045FE51469C
:10597000284602B0BDE8F04702F058BEA40C002053
:105980002DE9F0438FB0724B724C73497348002578
:1059900001959A6BA56142F001029A639A6BE562E8
:1059A00002F001020192019A02951A6B656342F4BA
:1059B00080021A631A6B216102F480020292029A39
:1059C00003951A6B102640274FF4C0714FF4006CFA
:1059D0004FF0040926626762A162022707214FF097
:1059E000010842F002024FF40056C4F830C0A6632A
:1059F000A164C4E913916764C4E91577E765C4F845
:105A00001C90C4F814801A631A6B3A400392039AEC
:105A100004951A6B42EA09021A631A6B02EA090238
:105A20000492049A05951A6B42F008021A631A6BE5
:105A300002F008020592059A06951A6B42F01002D0
:105A40001A631A6B02F010020692069A07951A6BF7
:105A500042F020021A631A6B02F020020792079AA2
:105A600008951A6B42F040021A631B6B0EAE03F0EE
:105A700040030893602346F8143D0C233146089AEE
:105A80000D93CDE90B570A9701F012FC31463448CB
:105A9000CDF8248001F00CFC31464CF20373314800
:105AA000099301F005FC31464FF683732E480993A4
:105AB00001F0FEFB31464FF63F032C480993A04608
:105AC00001F0F6FB314648F233132948099301F0FF
:105AD000EFFB284B48F8603F80204FF400764FF4EE
